:10000000C02000202D1600007D160000C514000041
:10001000C5140000C5140000C5140000C51400007C
:10002000C5140000C5140000C5140000B510000080
:10003000C5140000C514000071100000C5140000B4
:10004000F115000097850000F1150000F115000082
:10005000F1150000F1150000F1150000F115000088
:10006000F1150000F1150000F1150000F115000078
:10007000F1150000F1150000F1150000F115000068
:10008000F1150000F1150000F1150000F115000058
:10009000F1150000F1150000F1150000F115000048
:1000A000F1150000F1150000F1150000F115000038
:1000B000F1150000F1150000F1150000F115000028
:1000C000F1150000F1150000F1150000F115000018
:1000D000F1150000F1150000F1150000000000000E
:1000E000011D0000000000003D14000000000000A1
:1000F0003D140000000000003D140000000000005E
:100100003D140000000000001D080000F030002039
:10011000E51E0000000000003D140000000000008B
:100120003D140000000000003D140000000000002D
:100130003D14000000000000598500000000000090
:100140003D14000000000000938500000000000046
:100150003D140000000000003D14000000000000FD
:100160003D14000000000000B92100000000000064
:100170003D140000000000003D14000000000000DD
:100180003D140000000000003D14000000000000CD
:100190003D140000000000003D14000000000000BD
:1001A0008D850000000000003D14000000000000EC
:1001B0003D140000000000003D140000000000009D
:1001C0003D140000000000003D140000000000008D
:1001D0003D140000000000003D140000000000007D
:1001E0003D140000000000003D140000000000006D
:1001F0003D140000000000003D140000000000005D
:100200003D140000000000003D140000000000004C
:100210003D14000053B94AB9002908BF00281CBF8B
:100220004FF0FF314FF0FF3000F08EB9ADF1080C08
:100230006DE904CE00F01AF8DDF804E0DDE90223F0
:1002400004B07047430803F05533C01A830803F025
:10025000333300F03330184400EB101000F00F304F
:1002600000EB002000EB0040000E70472DE9F04746
:100270008C460D460446089E002B51D18A421746F3
:100280006DD9B2FA82FEBEF1000F0BD0CEF1200C78
:1002900001FA0EF520FA0CFC02FA0EF74CEA050CF6
:1002A00000FA0EF44FEA174A250CBCFBFAF81FFAC5
:1002B00087F90AFB18CC45EA0C4508FB09F3AB4269
:1002C0000AD9ED1908F1FF3280F02381AB4240F2E8
:1002D0002081A8F102083D44ED1AA4B2B5FBFAF062
:1002E0000AFB105544EA054400FB09F9A14509D968
:1002F000E41900F1FF3380F00A81A14540F2078143
:1003000002383C44A4EB090440EA08400021002ED6
:1003100061D024FA0EF4002334607360BDE8F087E6
:100320008B4207D9002E54D0002186E821000846D0
:10033000BDE8F087B3FA83F1002940F08E80AB422C
:1003400002D3824200F2FA80841A65EB0305012091
:10035000AC46002E3FD086E81010BDE8F08712B9F9
:100360000127B7FBF2F7B7FA87FEBEF1000F34D1D1
:10037000EB1B3A0C1FFA87FC0121B3FBF2F8250CAA
:1003800002FB183345EA03450CFB08F3AB4207D9DF
:10039000ED1908F1FF3002D2AB4200F2D180804665
:1003A000ED1AA3B2B5FBF2F002FB105543EA054487
:1003B0000CFB00FCA44507D9E41900F1FF3302D27D
:1003C000A44500F2B8801846A4EB0C0440EA0840AB
:1003D0009DE731463046BDE8F087CEF1200405FAAE
:1003E0000EF307FA0EF720FA04F83A0C25FA04F493
:1003F00048EA0308B4FBF2F14FEA184502FB114446
:100400001FFA87FC45EA044501FB0CF3AB4200FAF6
:100410000EF409D9ED1901F1FF3080F08A80AB426A
:1004200040F2878002393D44EB1A1FFA88F5B3FB8E
:10043000F2F002FB103345EA034500FB0CF3AB423C
:1004400007D9ED1900F1FF386FD2AB426DD90238F0
:100450003D44EB1A40EA01418FE7C1F1200722FA3F
:1004600007F88B4005FA01F448EA030320FA07FE77
:100470004FEA134CFD404EEA040EB5FBFCF94FEA7F
:100480001E440CFB19551FFA83F844EA054509FB85
:1004900008F4AC4202FA01F200FA01FA08D9ED18A8
:1004A00009F1FF3043D2AC4241D9A9F102091D4400
:1004B0002D1B1FFA8EFEB5FBFCF00CFB10554EEA0F
:1004C000054400FB08F8A04507D9E41800F1FF3502
:1004D00029D2A04527D902381C4440EA0940A4EBA0
:1004E0000804A0FB02894C45C6464D4615D312D0E0
:1004F00056B1BAEB0E0364EB050404FA07F7CB40E0
:100500001F43CC40376074600021BDE8F087184677
:10051000F8E69046E0E6C245EAD2B8EB020E69EB97
:1005200003050138E4E72846D7E7404691E78146CE
:10053000BEE7014678E702383C4445E7084608E74D
:10054000A8F102083D442BE7704700BF013903467C
:1005500011F8012F0AB91A70704703F8012BF7E759
:100560000138013910F8013F11F8012F934202D1EF
:10057000002BF7D11A46981A704770B582B1013A2C
:100580000C46034603D11A782078101A70BD1E78E5
:100590002578AE4200F1010001F10101EFD0F2E750
:1005A000104670BD81EA000313F0030F70B50346D7
:1005B0000BD0013B0A4491421BD170BD002AFCD0F4
:1005C00011F8014B03F8014B013A9C07F6D11E1FAD
:1005D0000D46541B0C44032C06D822F0030421447E
:1005E000234402F00302E4E755F8044B46F8044FB5
:1005F000EFE711F8014B03F8014FDCE770B5C9B222
:1006000003469C0711D141EA012444EA04441E46F2
:10061000951B1D44032D0ED822F00304234402F041
:1006200003021A44934209D170BD002AFCD003F89A
:10063000011B013AE5E746F8044BE9E703F8011B23
:10064000F0E74FF0FF307047014B1860704700BF74
:10065000002E0020014801F001BA00BFAAAE000040
:100660001FB500210E4800F0C7FA04AB4FF48064B8
:1006700043F8044D0A2200930A490B4B012000F075
:10068000F7FB21460848094C00F0F4FA00F030FB73
:10069000204601F0E3F9012009F0A4FEF8E700BFCD
:1006A0005506000095AE0000A40F00209FAE00008C
:1006B0004FF0805310B5D3F85004D3F85424D3F836
:1006C0005814094B040A1870000C9870100ADA705C
:1006D0001871100C120E9A71D9710A0A090C5C700B
:1006E00058711A72597210BD0C0100201F4B1A78F4
:1006F0001F4B042A38D0072A34D05A7819781202AE
:1007000042EA014299780A431A490333C1F898250D
:1007100002215A781878120242EA0042987802437D
:1007200014480333C0F894255A781878120442EA22
:100730000062D8789B78024342EA032389010D4A7C
:1007400041F00401C2F89035C2F8A0150A4A00230E
:1007500013700A4A13700A4A13700A4A13600A4A4D
:10076000136070470121D4E70021DDE71601002066
:100770000C0100200050004026010020250100202F
:100780001C0100202001002018010020002303602C
:1007900082B003680193019B02B07047064B1B684F
:1007A00013F0010F054B4FF0010214BF9A625A6219
:1007B0004022C3F8082370472054004000500040F6
:1007C000114B1249F2221A70C8B11A7842F008028D
:1007D0001A700F4A1278D2B25A700A78D2B29A704E
:1007E00003210C4AC900C2F810350223C2F81C15B7
:1007F000C2F80C350123D360074A137070470A789A
:10080000D2B25A700221ECE7280100202B0100200F
:10081000010000200050004027010020A349D1F82A
:10082000042138B542B1D1F8002312F0020203D0FE
:100830009F48FFF7ABFF0222D1F80831002B37D0D9
:10084000D1F80033580733D59A48FFF79FFF002AA5
:100850000CBF01220322032A114640F0E880934B8B
:10086000D3F83C24944B1B681A4240F0E6800121E7
:100870008E4A92489160002303704FF48860C2F85A
:1008800008038D4A11608E4A146824B18D481A46B7
:1008900001210068A0478C4A136823F0010313600C
:1008A0008A4B00221A70814B0322C3F80C2501E009
:1008B000002AD0D17D4AD2F8183123B3D2F80033C0
:1008C000590620D58248D2F82445FFF75FFFD2F8B9
:1008D00028317E49002B00F0B880D2F800335B0548
:1008E00040F1B3807B48D2F80C54FFF74FFF0D2343
:1008F0001D42C2F80C3400F0A8800B78002B40F0A9
:10090000A180FFF74BFF694AD2F810312BB3D2F820
:100910000033DD0621D57048FFF738FF10236F49FB
:10092000C2F808330B78002B00F043816648036857
:1009300023F001030360012393624023C2F80833CC
:10094000624A00230B7013705D4B1C682CB15D482C
:1009500000231A4603210068A047544AD2F84C31BC
:10096000002B35D0D2F800331C0331D55C48FFF79B
:100970000DFF5748FFF70AFF5648FFF707FF594B8F
:10098000C2F810354FF48073C2F814350123D361D7
:100990004FF48863C2F804330D23C2F80C34C2F854
:1009A0000434454B02221A60454B1C682CB1454863
:1009B00000231A4619460068A047444A00231370D2
:1009C000494A1370494A1370494A1360494A1360EF
:1009D000364AD2F81C31B3B1D2F80033180612D51A
:1009E0004548D2F80414FFF7D1FEC90707D5434B99
:1009F000197821B10121C2F8041400221A702B4B7E
:100A00000D22C3F80424294BD3F80C2172B1D3F87A
:100A100000331B070AD53A48FFF7B8FE394B1A785E
:100A200022B100221A70304B01221A7038BD012AFF
:100A30003FF41EAF022A7FF43DAF204B1A7801220B
:100A40001A7037E70123D3615DE70B78254A002B45
:100A50005AD11378E02B1AD1537803F00F030F2BE0
:100A600015D0194A136843F00103136001230B707A
:100A7000134B1D683DB113481A4A0068C4F3C803FC
:100A8000023B0221A8471E48FFF780FE3BE7137890
:100A9000502B07D1194B01221A70044B4022C3F886
:100AA0000823E5E7FFF77AFEE2E700BF00500040C9
:100AB0000451004008510040042E00200200002094
:100AC00004000020080000209C5500402601002062
:100AD00018510040285100401051004000000020F3
:100AE0004C5100400C000020250100201C0100207A
:100AF00020010020180100201C510040240100208A
:100B00000C51004027010020314B10781978314DED
:100B100010F00800C9B203D139B10123EB61A7E796
:100B2000537803F00F038B42F7D1137803F0F703E8
:100B3000C22B03D1284B01221A7099E7274D2B783D
:100B4000003018BF012043B3137803F0F703F22BF2
:100B500023D10021224B29701A78DAB1214819706B
:100B6000FFF714FE1B4A1023C2F804331E4B1B6808
:100B7000C2F810351D4B186840F6F87303EAC0033D
:100B8000C2F81C350323C2F80C350123D360184B7F
:100B900019706DE7FFF714FE6AE713780D4D03F047
:100BA000E603022BB9D1FFF70BFE1023C5F804337F
:100BB0005EE7104BC2F810354FF48073C2F814355D
:100BC0000123D3614FF48863C2F80433BCE600BF4D
:100BD00001000020005000400000002025010020FE
:100BE0001C010020105100402001002018010020AD
:100BF000270100200C000020144B10B51860144B86
:100C00001960144B1A781AB907221A70FFF750FDB1
:100C1000114C0623C4F804330823C4F804330F4BE3
:100C2000C4F80433FFF762FD0D4B0E4A1B785B01DD
:100C300003F06003C4F8A435002313700A4A13704C
:100C40000A4A13600A4A136010BD00BF0400002066
:100C5000080000201601002000500040800008001D
:100C6000082E0020250100201C010020200100206A
:100C70001801002010B5024639B3154B1B7803F05C
:100C8000FF0443B1134B1860134B1960134B01223F
:100C90001A70002010BD124B12481C70FFF776FD31
:100CA000114B1020C3F80403C3F8102540F6F87266
:100CB00002EAC1010322C3F81C15C3F80C25012266
:100CC000DA600A4800F0CAFEE3E70C2010BD00BF5E
:100CD0002501002020010020180100201C01002017
:100CE000270100201051004000500040B9AE000024
:100CF00008B5094B0D22C3F8042401229A60002292
:100D00001146052000F082FB052000F04DFB034852
:100D100000F0A4FE002008BD00500040BFAE00005F
:100D200038B50446154659B1027A2B689A420CD25E
:100D30000378084600F8013B227A6168FFF732FC2D
:100D4000237A01332B60002038BD042038BD2DE903
:100D5000F34114461F46054618B90E2002B0BDE8FF
:100D6000F0814278037A9E18002A2FD19E1D04B389
:100D70008B0634D13B68B34233D321702B781943AF
:100D800021702B7A63706B7813BB04F106082A7A02
:100D9000E9684046FFF706FC2C7A6A7844442AB199
:100DA00020466968FFF7FEFB6B781C443B689B1B81
:100DB00001932B69002BD0D001AA2146686998477E
:100DC0000028CBD1019B1E443E60C7E70736CEE723
:100DD00041F0080104F10708A3712170D7E707204B
:100DE000BCE70420BAE72DE9F7430C4617468046D6
:100DF00000283BD0002A39D0D0F80090B9F1000F7C
:100E000034D019B11368012B2CD9023402260025E5
:100E1000D8F808108D4209D31CB1B31EB3F5803F3A
:100E200022D23E60002003B0BDE8F083A5B90129BD
:100E30000CBFC02180213B6859F825009B1B019302
:100E4000224601ABFFF783FF0028ECD1019B1E4433
:100E500004B11C440135DBE76B1C99420CBF4021F7
:100E60000021E8E70420DEE70620DCE70E20DAE7D1
:100E700010B58EB001AC8DF81C2000228DF8212019
:100E800009920D4A0B920D4A0C9205AA0D9208AADE
:100E900002948DF814000124069101921946109ACB
:100EA000039402A88DF820408DF828400494FFF7A1
:100EB0009AFF0EB010BD00BFC6AE0000210D0000AD
:100EC0000C4B1B78062B12D10B4B186810F00F003F
:100ED0000DD104331B6803F0F003302B08D1074B0E
:100EE0001B6813F0F00F0CBF01200020704700209A
:100EF000704700BFE00F00F0E40F00F0EC0F00F0CF
:100F000008B54FF02003EFF3118183F31188FFF749
:100F1000D7FF20B13B4AD36823F08073D360FFF73B
:100F2000CFFF10B1384B03221A60FFF7C9FF30B171
:100F30004FF080430022C3F80C21C3F81021334B3B
:100F40001B78062B17D1324B1B68180713D1314B76
:100F50001B6803F0F002302A03D003F0E003402BBB
:100F600009D14FF08043D3F80024D20703D56FF0A6
:100F70000102C3F800244FF01023D3F80022002A06
:100F800003DBD3F80032002B2FDA234B0122C3F806
:100F90000425D3F80024002AFBD04FF0102215219D
:100FA000C2F80012D3F80024002AFBD04FF010231F
:100FB0001522C3F80422184B1A46D3F8001400294E
:100FC000FBD00021C3F80415D2F80034002BFBD06D
:100FD000BFF34F8F1149124BCA6802F4E06213430A
:100FE000CB60BFF34F8F00BFFDE70C4B4FF0FF32DC
:100FF0009A62DA620B4B0C4A1A6081F31188002066
:1010000008BD00BFF0ED00E0A0050040E00F00F0DB
:10101000E40F00F0E80F00F000E0014000ED00E018
:101020000400FA05502E00200090D0030848816883
:101030004A897F2A0BD8C069884208D000B509F0D8
:1010400023FA5DF804EB03494FF080520A607047C1
:10105000780E002004ED00E0044800232021C2188F
:101060000133272B82F80013F9D1704700E100E02B
:101070000E498A6828201044EFF3098C80E8F01F9D
:101080000B4F4FF00066202080F31188CA698A60F8
:101090003E60106E0023136680F3118802F1280071
:1010A00090E8F01F8CF3098870470000780E00204C
:1010B00004ED00E01EF0040F0CBFEFF30880EFF327
:1010C0000980816931F8021C11F0FF0101D0022969
:1010D00007D0404080F3118804494FF080520A60E5
:1010E000704700B500F02EFA00BD000004ED00E0EE
:1010F00004498A68106604490968516600DF506E29
:1011000070470000780E002090B4000010B504462F
:1011100009F090F922680146BDE81040014800F04E
:101120009DBC00BF2CB0000010B504461A4800F06A
:1011300095FC04F11800194CFFF7E8FFA36A9A0127
:1011400002D5174800F08AFCA36ADB0102D51548D6
:1011500000F084FCA36A180302D5134800F07EFC5B
:101160000E4CA36A590302D5104800F077FCA36A1D
:101170009A0302D50E4800F071FCA36ADB0302D586
:101180000C4800F06BFC054A936A6FEA03436FEA70
:101190001343936210BD00BFFDB0000000ED00E0FE
:1011A00016B100002AB1000045B1000064B1000092
:1011B0008AB10000A5B1000038B5044617480D46B5
:1011C00000F04CFC04F11800154CFFF79FFFA36AD8
:1011D000DB0604D51348BDE8384000F03FBCA36AE5
:1011E000180701D51048F6E7A36A99070FD50F48ED
:1011F00000F034FC616BA36A1A060DD50C4800F0B0
:101200002DFC4DB1A36A23F08003A36238BDA36A0D
:10121000DB0701D50748DEE738BD00BF76B0000028
:1012200000ED00E08DB000009FB00000B3B0000002
:10123000CCB00000DDB0000038B504461B480D46B8
:1012400000F00CFC04F11800194CFFF75FFFA36AD3
:10125000D90404D51748BDE8384000F0FFBBA36AA5
:101260001A0501D51448F6E7A36A9B0514D513485F
:1012700000F0F4FBA16BA36A180407D5104800F036
:10128000EDFB1DB1A36A23F40043A362084B9B6AE4
:10129000590509D50B48DEE7A36A5A05FAD4A36AB3
:1012A000DB0501D50848D6E738BD00BFF3AE000026
:1012B00000ED00E08DB000009FB000000AAF00001C
:1012C000CCB0000024AF000040AF000038B5274D7F
:1012D0006B68C3F30803DA1E0446092A3AD8DFE82C
:1012E00002F00533352F393939393937204800F0C4
:1012F000B5FBEB6A9A0703D51E4800F0AFFB0CE084
:10130000EB6A5B0009D51C4800F0A8FB1B4B1B785F
:101310004BB101212046FFF74FFF21460020BDE8D9
:10132000384000F013B9164B1B7823B10121204639
:10133000FFF782FFF1E7134B1B889BB2002BECD029
:101340002046FFF7F1FEE8E70021E3E70021EEE7A2
:101350000D48D2E70D480E49A3F110020F2BD8BF5C
:1013600001460C4800F07AFBD7E700BF00ED00E033
:1013700087AF00009FAF0000C1AF000028ED00E084
:1013800029ED00E02AED00E0E1AF000059AF0000D8
:101390006EAF000018B00000024A536943F010031A
:1013A0005361704700ED00E043B2002B08DB0122DF
:1013B00000F01F0002FA00F05B09024A42F8230025
:1013C000704700BF00E100E043B2002B0DDB0122BB
:1013D0005B0900F01F0002FA00F02033034A42F8D4
:1013E0002300BFF34F8FBFF36F8F704700E100E022
:1013F0004209054B00F01F0053F82220012303FA95
:1014000000F01040704700BF00E100E043B2002B45
:10141000A8BF03F1604301F101014FEA4111ADBFE3
:1014200003F5614300F00F00034BC9B2B6BFC9B268
:1014300083F800131954704714ED00E000F042B82F
:1014400008B572B6044B986918B100229A6108F089
:1014500055FB62B608BD00BF780E0020F8B50C46FB
:1014600016461F4604220A9B0999054609F0F0FA20
:10147000A6F1200121440C4AAC6521F007010023AC
:1014800022F00102EB642B65EE658A61069A4A60E0
:10149000079A8A60089ACA600F604FF08072CA612A
:1014A000A9642B66F8BD00BFC5A800000149102241
:1014B0000A60704710ED00E0404080F3118830BFB3
:1014C000704700BF404080F31188DFF81CC0DCF893
:1014D00000C01CF4006C0CBFEFF30880EFF3098030
:1014E00000B5FFF7F3FE00BD04ED00E0042838B5B9
:1014F00004460D4613D0052813D0032813D10C48F9
:1015000000F0ACFA08F096FFAA690146094800F01D
:10151000A5FA29462046BDE8384000F017B806482D
:10152000EEE70648ECE70146054800F097FAE9E7E0
:10153000D1B100004FB20000F7B1000011B20000BD
:101540002CB2000001460068FFF7D0BF052810B597
:101550000CD009F09FF960B109F09CF90C4B0D49D2
:10156000002808BF19460C4800F078FAFFF7A4FFDE
:10157000FCE709F09FF90028EED1084C0848A16863
:1015800000F06CFAA068BDE8104000F00BB800BF96
:101590008FB200008BB20000A0B20000780E0020D5
:1015A000C0B2000038B505464FF02003EFF31184B8
:1015B00083F3118809F0DCF90B4B9B689D420DD138
:1015C0000A4B5A68C2F3080222B908F05DFF2046B0
:1015D000FFF78EFD5A6842F080525A602046BDE8FF
:1015E000384008F08DBE00BF780E002000ED00E00E
:1015F00000B572B60B4A906900281EBF00219161A8
:1016000008F07CFA62B6EFF30580A0F110004FEA13
:10161000C0000549014409C998475DF804EBFFF78C
:1016200005BD0000780E0020DC000000202080F3C3
:10163000118805484FF40061401880F309880220A2
:1016400080F3148800F006B80022002030BFFFF7B6
:10165000FDBF00BF08B5074B074A23F07F03936027
:10166000BFF34F8FBFF36F8F08F078FA08F080FA5E
:1016700008F0A6FA0000000000ED00E008B5FFF752
:10168000E5FFBDE80840FFF7D1BC0000154B164947
:101690001A6830B50D68C2F3072295420FD80022B0
:1016A00048685A60954200F10C000AD105225A6040
:1016B0000E4B01221A70BFF34F8FBFF36F8F0020C4
:1016C00030BD50F80C1C50F8044C9A6021F01F01FA
:1016D00041F01001114344F00104D96001321C6152
:1016E000E0E700BF90ED00E00C2E00202C01002070
:1016F000002070470B6801330B60014B1B681847D3
:10170000542E00202DE9F04F85B09B460E9CDFF84B
:1017100090A0012CB8BF0124012B0CBF3023202343
:101720001546804689460194029301260A27002225
:101730000AF101040AB9AA451FD2B5FBF4F04946E3
:101740003030C04701360122013F012FB5FBF4F1D3
:101750004FF00A0304FB1155BAFBF3FAE8D14946EE
:1017600005F13000C047BBF1030F03D1019B9C1B67
:10177000002C0FDC05B0BDE8F08F019BBB42E3DB22
:10178000BBF1020FE0D84946029803920136C047E8
:10179000039AD9E749462020C047013CE8E700BF4B
:1017A000FFC99A3B0A688B6830B512B14C68A342F6
:1017B00002DB01338B6030BD651EAB420BBF8C601A
:1017C0005C1C00218C600CBFD154D05430BD000093
:1017D000014B1860704700BF542E00202DE9F04FD8
:1017E00089B04FF0000A06460F4604921C464FF09F
:1017F000FF39D0465546049B187810B909B0BDE8AA
:10180000F08F45B9252800F00C813946B047049B7C
:1018100001330493EFE7642861D019D839280AD836
:10182000312850D22D283CD030283DD0252808D151
:101830003946B0476FE0582800F08980632800F0EF
:10184000EA8039462520B047049B39461878F0E7EE
:10185000702872D006D8692841D06C283CD06828FE
:10186000D5D0EEE7752858D017D87328E9D123686A
:1018700004F1040B1C46254615F8010B002840F026
:10188000BF80B8F1030F40F0D580E41AA9EB04043F
:10189000002C00F3BB805C463DE0782857D07A28C6
:1018A000DEE74FF00308B2E7B9F1000F0EDAB8F146
:1018B000000F00F0BC80A0F13009B8F1000F08BFA4
:1018C0004FF00208A3E7B9F1000FF4DB0A2303FB92
:1018D0000909A9F13009F0E70AF1010A97E7BAF11D
:1018E000010FC5BF073424F0070325681D68D4BF66
:1018F000043403F10804002D05DA39462D20B047E1
:101900006D4209F1FF39CDF8009043462A46394629
:101910003046FFF7F7FE002579E7BAF1010FC5BFA2
:10192000073424F0070322681A68CDF80090CCBF72
:1019300003F1080404344346E9E739463020B04750
:1019400039467820B0474FF008094FF00108BAF146
:10195000010FC7BF073424F0070323680593C2BFF4
:1019600003F108041B6805934FF008024FF00003D1
:10197000D8BF04340393079393460BF1FF3B059BB9
:101980004FEA8B0023FA00F010F00F0009D1079BFB
:1019900013B9BBF1000F22D14FF0300E07E0069AC9
:1019A000EBE709288CBF4FF0570E4FF0300E394649
:1019B00070440692B047039B079501330393BBF134
:1019C000000FECD1B8F1030FA5D1039BC3EB490580
:1019D000002DA0DD39462020B047013DF8E7531E19
:1019E00091450693EBDBB8F1010F03D13946302066
:1019F000B047E4E7B8F1020FE1D139462020F7E71C
:101A0000394603932C46B047039B34E739462020E0
:101A1000B047013C3CE72068251D3946B0472C46BD
:101A200079E7AA46A8464FF0FF390125EFE64FF0C7
:101A30000108ECE65C460546E9E6000013B502AC99
:101A4000002344F8043D02460B4603482146FFF7B5
:101A5000C5FE019802B010BDF51600000FB407B521
:101A600004A951F8040B0191FFF7E8FF03B05DF8FA
:101A700004EB04B0704700000CB430B585B008AB7F
:101A8000044653F8042B01900291002501A9074850
:101A900000930395FFF7A2FE0398029B9842B8BFFC
:101AA000255405B0BDE8304002B07047A5170000CE
:101AB000704700000A2838B50446074D04D128684D
:101AC00043680D215B68984728684368E1B25B680A
:101AD0009847204638BD00BF3001002010B5044CA7
:101AE0002046FEF7B1FD2046BDE81040FFF770BE6E
:101AF000B51A000008B5044807F0DAFF034B186078
:101B0000FFF7ECFF002008BDE5B200003001002027
:101B100010B54FF02003EFF3118283F31188114CBD
:101B2000237823B982F311886FF0440010BD013B84
:101B3000DBB2237023B182F311886FF00F0010BD68
:101B4000094B1878012128B1217082F311886FF0B8
:101B50000A0010BD197082F311884FF08042516065
:101B6000187010BD360100203501002008B5002294
:101B700010460121FFF74AFC0020FFF715FC00206A
:101B800008BD0000F8B54FF02002EFF3118382F397
:101B90001188254A1078441C147060B183F31188B1
:101BA0004FF08043D3F80C3413F4803F14BF00206F
:101BB0006FF04300F8BD1D4D2F782FB1107083F3E7
:101BC00011886FF00A00F8BD01262E7083F311888A
:101BD0004FF0804419B33846FFF7F6FBC4F80071A4
:101BE000D4F80433C4F804632660D4F8002192B119
:101BF0000022C4F800210E4A13F0010F4FF0010338
:101C000008BFC4F808330020C2F88031FFF7CCFBCE
:101C100000232B70C4E720BF40BF20BFE5E7C4F816
:101C200000112660F4E700BF3601002035010020D6
:101C300000E100E0F8B506460C464FF02002EFF355
:101C4000118382F311882C4A157865B183F31188CA
:101C50004FF08043D3F8183413F4803F0CBF6FF07B
:101C600043000020F8BD0127177083F31188284630
:101C7000FFF7AAFB4FF080430221C3F80451D3F8C9
:101C80000423C3F80413C3F818459F60D3F8041164
:101C900071B39207194F58BF02224FF000014FF065
:101CA0000105C3F804114FF0000058BFC3F8082322
:101CB000C7F88051FFF778FB4FF0804300211822CE
:101CC000C3F80823C3F80C11C3F8101114F0030172
:101CD000BED11020C3F83805C3F804233046C3F83A
:101CE0000453FFF74FFF0028B2D1C7F80051AFE708
:101CF00020BF40BF20BFC9E73401002000E100E061
:101D0000F8B54FF080430546D3F808E1D3F8042333
:101D1000D3F80C44D3F80071D3F80401D3F80C11B4
:101D2000D3F8106102F00102BEF1000F03D04FF0B2
:101D3000000EC3F808E127B14FF080430027C3F835
:101D400000713AB1E30341BF4FF080430122C3F871
:101D500008231A6120B14FF080430022C3F8042108
:101D600049B14FF080440021C4F80C112846FFF718
:101D7000CFFE0123636176B14FF08043002101243F
:101D8000C3F810112846C3F80443FFF7FBFE10B94F
:101D9000014BC3F80041F8BD00E100E003689B6817
:101DA0009A68836810B5DC68002024FA00F3DB072A
:101DB00007D500F5A27352F82330C3F304238B42F6
:101DC00004D001300828F0D16FF0120010BD006877
:101DD0008068006841B9D0F8101521FA02F202F0CB
:101DE00001021A6000207047D0F81025F9E700685A
:101DF0008068006849B9012191401BB1C0F80815FD
:101E000000207047C0F80C15FAE7C0F80435F7E772
:101E100010B583683AB11A680A605A68196002B945
:101E20005960002010BD18680028FAD081420ED1F8
:101E30005C68086832B9A142186000D1586000237C
:101E40000B60EEE7A142106008BF5A60F7E7024658
:101E50000068E9E7F8B514460268876892680D469D
:101E60009668A1B92146FFF799FF002811DBBA68EF
:101E7000012303FA04F4144300F1400203FA00F0D2
:101E8000BC6046F82250C6F804032846F8BD6FF03F
:101E90002200F8BDF8B514460268866892680D46BF
:101EA000976889B92146FFF779FF00280EDBB268F1
:101EB000012303FA04F403FA00F022EA0404B460F4
:101EC000C7F808032846F8BD6FF02200F8BD08B532
:101ED000002201210620FFF799FA0620FFF764FA95
:101EE000002008BDF8B5036806469B68B46898688A
:101EF000002213461546012700EB8201D1F800E1CC
:101F0000BEF1000F08D0C1F80051D1F81015C1F38F
:101F1000042107FA01F10B430132082AECD1A5682C
:101F200006201D40FFF750FA246824B90620BDE8BA
:101F3000F840FFF739BAA3681D42F5D063682A4616
:101F4000214630469847EFE72DE9F84314460268EA
:101F50008768926880469568106819B16FF0220012
:101F6000BDE8F88303F44072B2F5807FC3F301311A
:101F7000C3F3813903F4403E56D0B2F5007F0CBF65
:101F800004220022BEF5803F08BF4FF0000E13F080
:101F9000010FDFF8C8C04FEA810104F5E0764ED0AA
:101FA0000C2A43D14FF0010E0EFA04FEC0F808E5EA
:101FB00049445CF8211041F003010A4340F826200F
:101FC00013F0020047D09906C8D55A063ED413F044
:101FD000040F14BF4FF480364FF40036F868FEF754
:101FE00031F9082835D021464046FFF7D7FE0028B2
:101FF000FB6808DADA4392FAA2F0002AB0FA80F01D
:1020000008BF4FF0FF302402012204F4F85482404C
:1020100044F0010400F5A27013433443FB6045F81B
:1020200020400020BDE8F8830C22ABE7042A02BF61
:102030004FF0010E0EFA04FEC0F80CE5B8E7494473
:102040005CF821100A4342EA0E02B7E74FF440362B
:10205000C4E76FF00400BDE8F88300BF1CB30000C4
:1020600003689B681B68D3F8082132B10020C3F8CD
:102070000801D3F818350B7070474FF0FF307047E8
:1020800003689B681B68C3F81C15D3F81C21002A41
:10209000FBD00022C3F81C210846704703689B68E8
:1020A0001B68D3F8240118B1D3F88004C3F8800466
:1020B00000F00F0070470000F8B503689B68054604
:1020C00018481C6807F0F4FC436806461F6806229F
:1020D00040F201130021B84773681F6800231946B6
:1020E00008223046B8470623C4F80C350823C4F844
:1020F0001435AB684FF4E1321A602B689B681B689B
:102100004FF0EB72C3F824250423C4F800350020F7
:102110000123C4F81C01C4F80801A3602360024B2A
:102120006B60F8BD84B3000094B30000084BC3F8A3
:102130004005D3F80435C01A20F07F40054B023823
:10214000984282BF044B4FF40032C3F8002170471D
:1021500000100140FDFF7F0000E100E010B5124BD0
:10216000124CD3F804052268801A20F07F40B0F5A5
:10217000A37F11D90E49096840F24713B0FBF3F071
:10218000884228BF084603FB002323F07F432360D7
:10219000084B186008F034FA2068BDE8104000F2DF
:1021A0004710FFF7C3BF00BF001001404C010020E3
:1021B000480100208C300020024B0022C3F840214F
:1021C000FFF7CCBF0010014046F23543984228BFCC
:1021D0001846054B1860054B1B6840F2471202FB7E
:1021E0000030FFF7A3BF00BF480100204C010020D2
:1021F00008B5074B0022C3F84021064B4FF40032CC
:10220000C3F88021FFF7AAFF034B01221A6008BD23
:102210000010014000E100E04801002070B51848BE
:1022200007F046FC48B34368164D1B6801219847E8
:10223000154B00241C60154B01261E6040F247130D
:10224000C5F80845C5F840354FF48033C5F8443328
:10225000C5F804330E4BC5F840414FF40032C3F8C3
:102260008021314622461120FFF7D0F81120FFF7D8
:102270009BF8AE6020462E6070BD4FF0FF3070BD01
:1022800004B30000001001404C0100204801002070
:1022900000E100E000B5BFF35B8F50E8003F43EA88
:1022A000010240E8002EBEF1000FF6D1BFF35B8FB4
:1022B00018465DF804FB00B5BFF35B8F50E8003FA4
:1022C00003EA010240E8002EBEF1000FF6D1BFF391
:1022D0005B8F18465DF804FB70B5064688790D469D
:1022E00007F0D0FA0E4B834219D1284607F0D0FAF6
:1022F000284607F0CDFA0B4C04EBC000436873B1DD
:10230000284607F0C5FA04F83060284607F0C0FAFE
:1023100004EBC000BDE87040406808F0E9B870BD4B
:102320005031002050010020074BBFF35B8F420962
:1023300003EB820300F01F001B6FBFF35B8F43FAB8
:1023400000F000F001007047602E00202DE9F047FA
:10235000804689461348144D4FF0FF3107F026FBA5
:10236000044600F1080600213046002707F024FB50
:102370002775204607F08CFA05EBC000A0F8028014
:10238000204607F085FA05EBC00003214760304680
:1023900007F056FB80F80290A0F800802046BDE8C8
:1023A000F08700BF503100205001002070B5154665
:1023B00086B00C4619B9FFF7C9FF044668B301227D
:1023C0000021684608F08AF8204607F061FA144EAA
:1023D00006EBC000C0F804D0204607F02DFB2146D4
:1023E000104807F0EDFA42F21071684608F0E0F884
:1023F000204607F04DFA16F8300030B1204607F0BD
:10240000EDFA6FF0040006B070BD0DB12C60FAE774
:10241000204607F0E3FA2846F5E76FF03600F2E7CA
:1024200050010020142F002070B5154D062205F133
:1024300008010646FEF7A1F80446D8B1062142F28B
:102440000500FFF783FF0446B0B10622314608308D
:1024500007F0FCFA2146002242F20500FFF7A6FF32
:10246000044638B90622314605F10800FEF79AF80D
:102470000123EB71204670BD6FF03604FAE700BF10
:10248000602E002038B50221054642F20C00FFF70D
:102490005DFF044620B30221083007F0D1FA012D78
:1024A000014614D10A20FFF73FFF48700D7000224B
:1024B000214642F20C00FFF779FF044628B9012DAE
:1024C00008D180210848FFF7E5FE204638BD0023EB
:1024D0004370EBE76FF080010348FFF7ECFEF4E791
:1024E0006FF03604F1E700BFD02E002008B50820B9
:1024F000FFF71AFF014640B90720FFF715FF20B18B
:102500000846BDE80840FFF7BDBF002008BD012315
:1025100010B50621044600F8013B01F063FB18B931
:10252000A37963F03F03A37110BD0000F0B587B03D
:1025300004AA002140F60340FFF738FF04460028B4
:1025400040F04981049B9B681B786BB9B64A1360C5
:10255000B64BBFF35B8F012253E8001F43E8002016
:102560000028F9D1BFF35B8F049807F037FA04AA6B
:10257000002141F20300FFF719FF0446002840F054
:102580002A81049BAA4D99680822013105F11600A1
:10259000FEF708F8049807F021FA214604AA41F250
:1025A0000100FFF703FF0446002840F0148104985F
:1025B00083685A78AA73D9789A7842EA01222A82E3
:1025C0001A79EA73197ADA7942EA01226A825A7927
:1025D0009B7942EA0323AB8207F000FA214604AA62
:1025E00041F20900FFF7E2FE0446002840F0F380C4
:1025F000049B996806220131681CFDF7D3FF0498FB
:102600002C7007F0EBF9214604AA41F20200FFF713
:10261000CDFE0446002840F0DE80049B99684022ED
:10262000013105F11E00FDF7BDFF049807F0D6F952
:10263000AB7E580640F13F81214604AA42F20300D6
:10264000FFF7B4FE0446002840F0C580049B99685B
:102650000822013105F17800FDF7A4FF049807F086
:10266000BDF9AB7E990640F19B8095F83A301A0788
:1026700000F1B480082142F20100FFF767FE044632
:10268000002800F094800821084407F0D9F995F853
:10269000403003F00603062B14BF02234FF4C1732E
:1026A000002203701B0A43708270C2700271427173
:1026B0008271C271214642F20100FFF777FE0446A3
:1026C000002840F08880082140F60140FFF73EFED8
:1026D000064600286BD00821084407F0B1F9802392
:1026E0004370022720230470847004714471847144
:1026F000C770C3712246314640F60140FFF756FECF
:102700000446002867D1014604AA4FF60140FFF7AE
:102710004DFE20BB049807F061F904AA21464FF64C
:102720000240FFF743FED0B9049B424899683A46FD
:102730000131FDF737FF049807F050F904AA21464C
:102740004FF60340FFF732FE48B9049B3A489968B8
:1027500001221144FDF726FF049807F03FF90023FA
:10276000072202A932480293CDF80B30FDF705FF8E
:10277000002848D1314E3368002B63D195F8603082
:10278000DB077AD42A48FFF7C2FE044618BB336839
:10279000002B5FD05E68264A07230146B04759E008
:1027A000022140F66D40FFF7D1FD064610B96FF0EB
:1027B000360410E00221083007F042F9012344708A
:1027C00003702246314640F66D40FFF7EFFD0446A8
:1027D00000283FF44AAF204607B0F0BD04AA00210C
:1027E00042F21C00FFF7E2FD04460028F3D10498F2
:1027F000836853F8012F5B68C5F88430C5F88020E2
:1028000007F0ECF836E70E4B18689A8804909B792D
:10281000ADF8142004A9072205488DF81630FDF7FD
:10282000ACFE0028A6D0D6E7AC010020D02E0020B8
:10283000602E0020BF2E0020BE2E0020A8130020F6
:1028400074AE000000211C681C4A07230846A047FC
:10285000072893D12B78012B2AD1AB7903F0C00341
:10286000C02B25D11648FFF7DFFD04460028B2D162
:1028700004211448FFF70EFDADE701AA00214FF631
:102880000940FFF793FD00287FF47CAF0198816831
:102890004B7853B101230622023109482B70FDF712
:1028A00081FE019807F09AF8D4E707F097F869E7F6
:1028B0006FF015048FE76FF012048CE7602E002094
:1028C000612E0020D02E002010B5FFF72FFE044609
:1028D00030B902210648FFF7DDFC2046FFF706FE6F
:1028E000044B1B681BB12046BDE81040184710BDC3
:1028F000D02E0020A80100202DE9F04F067D012EEA
:1029000085B0044640D187683B780E3B012B40D808
:10291000404080F311884FF0040002DFA6684A4867
:102920006FF01001FFF7C7FC337843B9711C4022E8
:102930004648FDF737FE39464348FFF7ABFC444BAA
:102940001D68771C35B9204607F048F8002005B00F
:10295000BDE8F08F32782B68002A0CBF3846002083
:1029600098476D68EEE73B4DA0682A68002AEAD0D8
:10297000037823B90130904700232B60E3E7002060
:10298000F9E7FDF70FFE3AE007F028F86FF01500C1
:10299000DDE700F108050221284607F060F83B78E2
:1029A0003E2BD0D1A7683146284607F058F83F782B
:1029B000082FB3D0092FD6D0022FC4D1284607F054
:1029C00056F8DFF894A00190019B002BBBD0A668BD
:1029D0000921284607F043F8337A31463344072269
:1029E00093F809B011F8013F023B012B02A8C8D8A7
:1029F000FDF7D8FD9DF80830023B8DF80830DAF875
:102A00000030ABB1284607F03AF8337AB4F80C80BE
:102A1000A38181462B463278DAF800704FFA8BF1A9
:102A200002A8B8472369A4F80C8013FA89F3A360BD
:102A3000317A2846013107F012F8019B03F1FF3883
:102A40005FFA88F30193BFE7D02E002064010020D5
:102A5000A401002060010020AC010020F8B5037D36
:102A60008668012B044605D0404080F311884FF062
:102A7000040002DF8389012BF6D933780E3B012B4A
:102A8000F2D800F108050221284606F0E8FF337865
:102A90000E2B05D00F2B17D0204606F09FFFE3E743
:102AA000A368032128461E7806F0D9FFA3682146B3
:102AB0001878FFF711FC16B10A4807F019FD2046F7
:102AC00006F08CFF0020F8BDA66804217778284620
:102AD00006F0C5FF21463078FFF7FEFB002FEED051
:102AE000EAE700BFE82E0020084AD2F8C4303BB91C
:102AF000816841B1C16831B1C2F8C400184670475D
:102B00006FF0440070476FF015007047602E002092
:102B100038B50546054806F049FF044620B10021B6
:102B2000083006F049FF2575204638BD7031002079
:102B300010B501464FF02003EFF3118083F31188A5
:102B40000B4A0023D2F8A040C2F8A03080F31188CD
:102B500024B90120BDE81040FFF7DABF012204F1DB
:102B600008002275A381194606F026FF204610BDF5
:102B7000602E0020F7B51860C31D054623F003033F
:102B8000501E0E4680B214461A800021042206FB15
:102B90000050FDF733FD023CA4B24FF6FF77BC4274
:102BA00001D103B0F0BD04FB06602B180422801B8A
:102BB0000DEB02012844013C0193A4B2FDF7F2FCA5
:102BC000EDE773B50568064695B1EB1D23F00303E9
:102BD00004221C8829460DEB0200FDF7E3FC019B53
:102BE000013CA4B21BB1DA1D22F003021480336051
:102BF000284602B070BD70B50C6806460D461CB183
:102C0000E31D23F003031C88042229463046FDF708
:102C1000C9FCF21D22F00302631C13802E6070BDFC
:102C200002FB01007047401A80B2B0FBF2F070471F
:102C300010B5114401384FF6FF73013A92B29A422F
:102C400000D110BD11F8014D00F8014FF5E71060FB
:102C50000860704710B514682060146861601060E7
:102C600010BD884203D01AB143681360704700203A
:102C700070470B68834209D022B1586810601A6807
:102C80000A6001E0002BFAD1184670470023FBE7E9
:102C90002DE9F047114FDFF848900426013EF6B2C7
:102CA000FF2E19D033B24FEA830803EB43031D0113
:102CB00004244FF00C0A0AE01AFB04510A1D04EB2D
:102CC00008003A44394409EBC000FFF7C0FF013C5B
:102CD000E4B2FF2CF0D1E1E7BDE8F087300200203C
:102CE000B0010020F0B4124B05460F460C263024EC
:102CF00072B1614306FB00142344597A187A814269
:102D000004BF0131197228463946F0BC06F026BDD1
:102D10004C4306FB004423449C7ADA7AA24204D155
:102D200001329A72F0BC06F047BDF0BC704700BF9C
:102D300030020020F8B505460E461C468AB1012334
:102D400062782078801A10F0030729D003B3012F8E
:102D500039D00132D2B222703146284606F02CFD1D
:102D60001CE006F017FD0028E9D03146284606F0A1
:102D700003FD0028E3D030230C22734302FB05330C
:102D8000124A1A44937AD27A9B1A18BF0123D7E7C2
:102D90000232D2B22270E368A06898470020F8BDE2
:102DA000002BF8D00132D2B222700423302212FB61
:102DB00006320C2313FB0523044A60681A4421469B
:102DC000FFF748FFC8E73846F8BD00BF30020020D3
:102DD0002DE9F04F00EB400389B01B014FF00008D4
:102DE000434E049305460424CDF80480013CE4B22C
:102DF000FF2C0BD1019B002B76D0B8F1000F73D1C3
:102E000042462946284606F0A9FC6DE00DF1200B4C
:102E100000230C274BF8043D4FF0300907FB04F367
:102E200009FB053031185A46496830580293FFF7BC
:102E300018FF049B17FB0437F31982460393BAF17A
:102E4000000F19D130220C236A4303FB04223244C1
:102E5000917AD07A88421EBFD1720122019230222B
:102E60006A4303FB042333441A7A597A91421CBF04
:102E70005A724FF00108B9E7079B1F785A78BF1ABA
:102E800007F00307012F04D1013A5A709868DA68F5
:102E90009047079A13785278DBB29A1A02F003022D
:102EA000012A05930DD0029B039909FB053030449C
:102EB00000224068FFF7DDFE079A059BC2F804A0D8
:102EC0005370029B09FB0533F1185A464968F058C4
:102ED000FFF7C7FE012F8246B1D10CB90028B1D04F
:102EE0002946284606F068FC09B0BDE8F08F00BF0F
:102EF0003002002010B5421E00200139C9B2FF295E
:102F000000D110BD12F8013F002BF6D05C1E01303D
:102F10002340C0B2F8E7F0B5437F05681A460024A5
:102F2000FF2A01D10020F0BD02EB82078A4205EBA7
:102F3000C70615F8377004D0B3681C4413463A46E8
:102F4000EEE7934200D147771BB203EB830332785D
:102F5000B06805F833203378FF2B06D003EB8303EA
:102F600005EBC3039A6802449A602044F0BD30B573
:102F7000551A15F4000F8368446909D125F07F4282
:102F80001A44A2420ED9121B00248260446130BD53
:102F90008A1A22F07F42934201D99A1AF1E7224419
:102FA000D41A0022A41A0022EFE7034600221A7066
:102FB0009A6A596208460AB1D96A104770472DE9E2
:102FC000F047857F01230446C377002D4CD1437F12
:102FD000FF2B02D1C577BDE8F08705F06BFE67696E
:102FE000667FD4F80080C71B27F07F47FF2E06D0EE
:102FF00006EB860608EBC6018B689F4218D2A27AC0
:10300000E37A934205D10133DBB2022B08BF0023E0
:10301000E372E37A04EB83030122DD600023656A37
:10302000E377AC46234604210320BDE8F047604720
:10303000FF1A1D448A784B7818F836609B1ADBB269
:10304000012BD3D1D1F80C90013A8A70B9F1000F5D
:10305000CCD048696369CA8B281A184420F07F4095
:103060000B69496AC847C1E7BDE8F0872DE9F04F11
:10307000C27F93B08346002A40F0B583436905932D
:103080000121837A8177C07A984200F08F800B44C7
:10309000DBB2022B08BF00238BF80A300BEB830353
:1030A0000191D3F80C80059B434423F07F43CBF878
:1030B00014309BF81D300393DBF800300493DBF8E9
:1030C00004300B939BF80930013BDBB202930023E1
:1030D00007934FF0FF0A029BFF2B6AD19BF81D302C
:1030E000039A9B1A18BF01230293019BE3B1DBF8FB
:1030F000003004934FF000099BF81D60FF2E0CD0A8
:1031000037B2049B07EB870703EBC704A568454567
:1031100040F23681A5EB0805A560029B019A039950
:10312000B14218BF13460293DBF800300893DBF876
:10313000043010939BF80930013BDBB20193019BF3
:10314000FF2B40F070819BF81D30039A9342079B40
:1031500040F040835BB99BF80940DBF804300193F1
:10316000013CE4B24FF00008FF2C40F0A0820023A5
:103170008BF81E30029B4BB19BF81D30FF2B40F0AB
:10318000E98205F07FFD08B9CBF818009BF81F30E5
:10319000002B00F02883DBF824405B46012203214A
:1031A0000420A44613B0BDE8F04F6047019290465A
:1031B0007FE70B9B029A03EBC2077B680693F978C3
:1031C000BE788E4200F0D780069B387806EB460228
:1031D00012019D18731CDBB2984208BF0023BB701C
:1031E000069B9A5C032AEBD9052A17D8697801EB6C
:1031F00081030A930A98049B03EBC0046378A078C8
:103200001B1A13F0FF0309D0042A0CD16A6852B9C3
:10321000AA6842B9EA6832F07F4204D10121284607
:10322000FFF7C3FECBE7012B40F09B805846FFF72A
:1032300072FE2B78A060042B064640F08480DBF8F9
:103240001430089305F036FD089B0990C31A23F04B
:103250007F4343449E4202469EBF6269921B9B1875
:10326000626896BF6361F31A00238AB1A98979B1B4
:1032700001F1FF3E1FFA8EFEA5F80CE09A422BD317
:10328000DFF82493B4F81EC0E64547D8A4F81CE044
:10329000AA8808991344A360EA88636913446361A8
:1032A000099A2046FFF763FEA2692B891344A361A4
:1032B0006A8993428CBF9B1A0023A361AB7B03B145
:1032C000E370049B0A9A03F832A0637895F801A092
:1032D000013363700021A2E7B4F81EC0E645CFD2E7
:1032E000616AAF4EAF488E19864281BF01F1E87125
:1032F00001F5D43101F5A5716162666A216A8CBF5E
:103300004FF001094FF00009761A91440CF1FF3C8F
:103310006662A3EB0903A4F81EC0AFE7666A216AE0
:10332000A0480E449E49711881428EBF00210121A0
:103330004E4411440CF1010C8CBF666266620B4472
:10334000A4F81EC09EE7A37863706B789BF81C20DE
:103350009A4201BFFF238BF81C300023CBF81830B2
:10336000B8E704215B46DBF8244001220846A04769
:103370000123BE700793029B013BDBB20293AAE6D6
:10338000DBF818309D4229BFFF235B1B8BF81C30F4
:103390000023CBF81830A369A9441BB18BF81C603B
:1033A000CBF818300022049BA26013F837308BF85A
:1033B0001D30D4F804E0BEF1000F30D0A08BDFF850
:1033C000E4C1636A216A0B447549591861459FBF7E
:1033D000A3F1E873A3F5D433A3F5A573636292BF99
:1033E000019B63620023734410F1FF301A44E8D25A
:1033F000059BA260DBF8141003EB09022046FFF7DF
:10340000B6FDA38BE3830023E370049B03F837A08E
:10341000637801336370A8EB0508B2466CE6A378C5
:1034200063705646F7E7109B019A03EBC2030493BF
:103430005B680A93049B93F80190BAF1FF0F00F0C8
:103440008E800FFA8AF303EB8303089AD04612F8B2
:1034500033A002EBC3040025DBF800300B93FF23FD
:10346000A28B2370E38B934286BF9B1A9BB20023EF
:103470000C930FFA88F303EB8303DB001193119B8A
:10348000DBF80020DBF81800059002EB030EFF20AC
:103490009BF81D30DEF8081009930690FF2B07D02B
:1034A00003EB830C02EBCC06B068814200F2A980EA
:1034B000DEF818000D9001EB000C1E46FF2E40F0C8
:1034C000AE800D9830B105988142C0F0BF80FF2ECC
:1034D00040F085810998CEF80810834218BFBDF9E5
:1034E00024008EF8003016BF00EB80008BF81D80A2
:1034F00002F83080FF2B06D003EB830302EBC303FB
:103500009A68511A9960A378013363700021002DE5
:1035100093D02846FFF749FD8FE709EB49030A9A44
:103520001B01D51809F101025FFA82F9049A127899
:103530004A4508BF4FF000090A9AD35C032B0ED10D
:1035400095F80180089B08EB880403EBC4046278BB
:10355000A3789A4209D001212846FFF726FD049B53
:103560009B784B45D9D1019BE6E5EB68DBF814105D
:1035700063602B692362AB8AA383AB69A361EB69A8
:10358000E3602B6A23610026AB68A36066616A680A
:103590002046FFF7ECFC01236662E683E3705BE7FD
:1035A0005A2B17FF592B177FB6562EFE606800283E
:1035B0007BD0626A216A8D4B0A448D49D3188B42B5
:1035C0009CBFA2F1E872A2F5D432A3688BBF6262FD
:1035D000A2F5A57200226262034498BF012213443F
:1035E000E28BA3600132E283626993424FF00001F3
:1035F00089BF9B1AD31AA36061619CBF6361A160FC
:103600003DE7B669091A46B9059FB84200D23E1A8D
:103610000993059612F83C3040E70693F8E730B27C
:1036200000EB800002EBC0070E97BF680F9767455D
:103630000AD20E9FBF69002F7FF443AF0F9EACEB01
:10364000060C12F8306039E7FF263AE7069B9845EA
:103650003FF459AF069BFF2BA8D01E4633B203EBB5
:1036600083030593059A0B9B03EBC207FB8BBA8B75
:10367000934288BF9B1A7A688CBF9BB20023002AB2
:1036800094D00C9A934291D8FA78E3789A428DD2EA
:1036900031465846FFF73FFCBB787B70059A0B9B81
:1036A000B86003F832A0B246E9E601212FE7019B9A
:1036B00003EBC4056E686B78EA789A4202D1013C4C
:1036C000E4B251E503EB43031B01F218F35C012B59
:1036D00025D0022B2AD1D2F804C093689CF80000B0
:1036E000D2F80C90DBF800E0FF2804D01968DBF872
:1036F0001470B94223D0DBF814009BF81D10186039
:103700000023FF2907D001EB810A0EEBCA0087696D
:103710008068DFB103448CF80010C9F80030936A68
:10372000C2F8248013B1D16A002098476B782A78B8
:103730000133DBB29A4208BF00236B70BBE700EB9A
:103740008000D9F800301EF83010DAE703441EF884
:103750003A10D6E7039BFF2B07D105F0ABFA0446DE
:1037600005F082FA08B9CBF814409BF81D30DBF85D
:10377000002003EB830302EBC3030A269D6805F0D8
:1037800099FADBF81440031B23F07F430333AB4269
:103790002CBFE418641924F07F440746DBF8283076
:1037A0002046984705F086FAC01B20F07F40E41BB6
:1037B000033024F07F44A0427FF6E8AC013EDED126
:1037C000404080F311884FF0040002DF00238BF8A3
:1037D0001E30D1E4002BF9D101230293BBE4B045A4
:1037E0007FF43CAF8FE613B0BDE8F08F5A2B17FF84
:1037F000592B177FF0B51A4D059F9DF818402C26C0
:10380000464305EB060EAA518EF8081007998EF86C
:103810000930CEF80470013BDBB2FF2B11D1ECB9BB
:103820002C2202FB005208991162099951620A99EF
:10383000916253771377946154619472D4722046E5
:10384000F0BD1AB207EBC206716017F8322002EB26
:103850004206A41A01EB0611E4B2DCE70120F0BD38
:10386000F0020020074A2C2100FB012310B45C6AFF
:103870002CB1A44601220321022010BC604710BCD9
:10388000704700BFF00200202DE9F047254F4FF0B0
:103890002C08814608FB00700FFA81FCD0F804E088
:1038A0000EEBCC061EF83CE0F478651CEDB2AE459C
:1038B00098BF002596F801E0AE452FD0D6F804C099
:1038C00004EB44044FEA041E0CEB0E044FF0030A11
:1038D0000CF80EA06360089BA360099BE3600A9B41
:1038E00023610C9BA361BDF82C30A3820D9BE36187
:1038F0000E9B2362022363620F9BA362109B627084
:10390000E362F570456A036A0846984709FB087345
:1039100000220421A847606ABDE8F0870120BDE8C5
:10392000F08700BFF00200202DE9F047DFF890801B
:103930004FF02C0A0AFB008E0FB2DEF804508146CD
:1039400005EBC70015F83750C478661CF6B2B542CF
:1039500098BF00264578B5422FD0D0F804C004EBBC
:10396000440425010CEB050404270CF80570A38022
:10397000BDF82030E380BDF824302381BDF8283025
:103980006381BDF82C30A3819DF83030A3730223EE
:1039900063620D9BA3620E9B6270E362C670DEF8E9
:1039A0002030DEF824500846984709FB0A8300229D
:1039B0003946A847606ABDE8F0870120BDE8F08776
:1039C000F00200202DE9F047DFF86C904FF02C0A50
:1039D0000AFB009E8046DEF804000EB200EBC6072C
:1039E00010F83600FC78651CEDB2A84298BF00259F
:1039F0007878A8421DD0786804EB440424010619A5
:103A00004FF0050C00F804C07270B3620222089BEC
:103A10007262F362FD70DEF82030DEF82440084662
:103A2000984708FB0A9300220421A047706ABDE86A
:103A3000F0870120BDE8F087F00200202DE9F04773
:103A4000DFF878804FF02C0A81460AFB00800FFADD
:103A500081FE456805EBCE0715F83E50FC78661CE4
:103A6000F6B2B54298BF00267D78B54223D0D7F88C
:103A700004C004EB440425010CEB05044FF0020ED6
:103A80000CF805E0A360089BE360099BA362FF2597
:103A90000A9B62606570C4F824E0E362FE70456AC8
:103AA000036A0846984709FB0A8300220421A847B5
:103AB000606ABDE8F0870120BDE8F087F0020020D1
:103AC0002DE9F047DFF86C904FF02C0A0AFB009EBE
:103AD0008046DEF804000EB200EBC60710F8360090
:103AE000FC78651CEDB2A84298BF00257878A84202
:103AF0001DD0786804EB4404240106194FF0010C32
:103B000000F804C0FF20707002207062B262F3629D
:103B1000FD70DEF82030DEF824400846984708FBA8
:103B20000A9300220421A047706ABDE8F0870120B3
:103B3000BDE8F087F00200202DE9F041084C2C256B
:103B400005FB004306465F6A1B6A0846984706FB6A
:103B50000543BC4600220421BDE8F041604700BF98
:103B6000F002002005F0A6B8401A20F07F40704710
:103B700008B50346012B08460ED833B119B1062209
:103B80000649FCF70FFD054808BD19B10622044996
:103B9000FCF708FD024808BD002008BD4E030020C8
:103BA0004803002070B506460D4604F0AFF9044600
:103BB00010B10C24204670BD04F0BCF910F0060FC3
:103BC000F7D1062229461EB10248FCF7EBFCF1E7CB
:103BD0000148FAE74E030020480300200023037049
:103BE0000B70704770B50C4D06460C460CB90020A2
:103BF00070BD4FF0FF31284606F004F920463146EB
:103C000005F02EF90446284606F060F9002CEED0A7
:103C100020BF40BF20BFE9E72C31002008B5024893
:103C2000FEF762FF002008BDCCB3000010B5838909
:103C300004465BB1037D4BB900F074F908B1FEF79F
:103C40000DFF204605F0CAFE002010BD6FF01500E4
:103C500010BD000073B51C4D00264FF0FF31284603
:103C600006F0F7F9044618B300F032FD022801947B
:103C700021D801280EBF00214FF0FF310120FEF7AF
:103C800047FF044618B10146019800F037FC019B3C
:103C90000021D88804F014FA02A850F8043D1E60F0
:103CA00004F0AEF924B1A389204653B1FEF724FEF7
:103CB00006F07AFBD1E7404080F311884FF0040012
:103CC00002DF05F08BFEF3E74031002037B50C4CE6
:103CD0000C4D0DF1020101A804F05AF90028F8D1A9
:103CE000019B33B104F0C8FB0199284606F08DF919
:103CF000EFE74FF0FF31204606F05AFCE9E700BF3E
:103D0000143100204031002010B5144886B004F072
:103D100059FC0446F8B900F0FBFC6FF0090303936B
:103D20004FF4E0720E4B0F490594049402940194F1
:103D300000940D4806F0FEFD6FF007030393059411
:103D40000494029401940094084B094909484FF4E3
:103D5000806206F0EFFD204606B010BD1431002051
:103D6000CD3C00000017002014140020553C00003A
:103D7000C0180020AC130020C0F307230870000C0B
:103D80008870000A4B70C870704738B508300D460F
:103D90000221144605F054FE0570447038BD000041
:103DA00038B504464FF0FF300D46FEF7C1FEEA1C61
:103DB0002060D2B20E21FFF7E8FF2068032108300F
:103DC00005F03EFE01230370054B1B88A0F801306F
:103DD000206829460830BDE8384005F031BE00BFF4
:103DE0005403002070B50446154601320E460834CF
:103DF000D2B23E21FFF7C9FF0121204605F020FE87
:103E0000067029462046BDE8704005F019BE000046
:103E100070B504461846134B1646D3E9002300221A
:103E200003F0005313430D461BD00F4BD3E900237F
:103E3000002302F00802134313D00B220421FFF7E2
:103E4000D1FF08220470A0F80160033024B9291DB5
:103E5000BDE87040FCF7A6BB0021BDE87040FCF750
:103E6000CDBB70BD282F0020302F002070B5037807
:103E70008AB004460E4607AD032B20D8DFE803F0D6
:103E800002191B1D11492846FCF760FB6278049259
:103E9000A2780392E27802922279019262790092EA
:103EA000A37905950A4A1B213046FDF7E5FD0AB0C6
:103EB00070BD0849E7E70849E5E70849E3E7084A2C
:103EC0000A212846FDF7D8FDE0E700BFE7B3000070
:103ED00010B40000EEB30000F5B30000FFB3000023
:103EE00009B4000010B583789A068AB013D0C3785D
:103EF000DB0710D501460AAC11F8043BC3F380136D
:103F000004F8243D06220DF10500FCF74BFB03A944
:103F10002046FFF7ABFF0AB010BD034600685968A2
:103F200070470000F0B5818999B000250229044648
:103F30000D9502D8002019B0F0BD8368C54E1A78DF
:103F400058789B7842EA00228B423280F2D80321D3
:103F500004F1080005F083FD3388C3F309029B0ACE
:103F6000042B63D007D8032B24D001210DA8FFF721
:103F700017FF0123CCE1082B00F0D9803F2BF4D1AF
:103F8000013A092AF1D801A353F822F015430000A1
:103F900041430000694300006B3F00006B3F00009D
:103FA000B94300006B3F00007F430000C3430000A3
:103FB0002F440000032A14D008D8012AD5D1A068C4
:103FC000FFF7ABFFA44BC3E9000103E02D2A17D094
:103FD000632ACAD101210DA8FFF7E2FE05700D98F2
:103FE000A9E79D4B4FF0FF3041F6FF71C3E9000197
:103FF0009A4B1F200021C3E9000103F02FFFE9E7DE
:10400000A36804210DA81D889F78FFF7C9FEAEB2F2
:104010000446C21C3946304603F0B0FF00280CBFEE
:10402000002302232370A4F80150D8E7013A082A9C
:104030009BD801A353F822F05D40000087400000A8
:10404000FB4000006B3F00006B3F00006B3F000037
:104050006B3F00006B3F00001741000009210DA8D5
:10406000FFF79EFE002303708370C3706FF00E0392
:1040700043710523092283714FF0FF3342700271AF
:10408000C3710372ABE741210DA8FFF789FE002140
:104090000446402200F8011BFCF7B0FAE378217FC8
:1040A000A27E63F07F03E370A37963F03F03A37103
:1040B000E37A43F00403E372E37B43F02803E37302
:1040C000237C43F002032374E37D43F00403E37590
:1040D000E37E61F03C0163F03C032177E376617F8E
:1040E00094F8273041F0080162F0080263F07F0382
:1040F0006177A27684F8273071E709210DA8FFF7D0
:104100004FFE00210446082200F8011BFCF776FA56
:104110006023637163E707210DA8FFF741FE0146A5
:10412000002301F8013B1846FFF722FD57E70A2A52
:1041300000F0E18027D8052A00F0818012D8022AF9
:104140005FD0032A69D0012A7FF40FAFA068FFF780
:10415000E4FE424BC3E9000101210DA8FFF720FE58
:104160000023D5E0072A00F05A81C0F0A680082A73
:1041700000F0BB80092A7FF4F8AEA368591C1878B8
:1041800004F010FCE8E7122A77D010D8102A67D084
:104190006FD80F2A7FF4E9AE02210DA8FFF700FEC9
:1041A00000230370044604F0AFFC607017E7182A80
:1041B00067D015D8172A7FF4D8AEA06800230EAABE
:1041C00000F1100104F0A6FE11210DA8FFF7E8FD93
:1041D000002300F8013B10220EA9FCF7E3F9FEE6EC
:1041E0001C2A59D04B2A7FF4C0AE03210DA8FFF73B
:1041F000D7FD0146002301F8023B0130FFF7EEFC3A
:10420000EDE604210DA8FFF7CBFD002303701B2270
:10421000837002234270C370E1E609210DA8FFF705
:10422000BFFD00210446082200F8011BFCF7E6F957
:104230000C2363704023A3700123E370CFE6A168D1
:104240000120FFF7AFFC044601210DA8FFF7A8FDF0
:104250000470C4E654030020282F0020302F0020D3
:1042600001210DA8FFF79CFD044604F04FFC2070CF
:10427000B5E6A06804F060FCE5E7A06804F094FCF3
:10428000E1E709210DA8FFF78BFD002300F8013BB2
:104290000821FFF7A7FCA2E609210DA8FFF780FD82
:1042A00001460022044601F8012B0320FFF764FDBC
:1042B000611D1046FFF760FD91E6A06800210379BB
:1042C00002880A9109910891079106910591847BD2
:1042D0000494447B0394C41D02948479019440792E
:1042E0000090084604F002FAADE7A368591C18785C
:1042F00004F000FB30E7A368187804F099FB012173
:1043000004460DA8FFF74CFD002C0CBF00230C2326
:10431000037064E60D210DA8FFF742FD02224270F2
:10432000C2700122002382710B220370837003711B
:104330004371C271037243728372C37203734EE698
:1043400041210DA8FFF72CFD00210446402200F872
:10435000011BFCF753F9637863F058036370A3788B
:1043600043F00303A3703AE609210DA8FFF718FDF7
:10437000002100F8011B0822FCF740F92FE65E4BF4
:104380000EAA03F12006154618685968144603C49E
:104390000833B3422246F7D1186899889B79206088
:1043A000A180A37128210DA8FFF7FAFC002300F8D3
:1043B000013B2722294610E7A1680020FFF7F2FB06
:1043C000CAE64FF08053D3F8A420013206D1D3F8C7
:1043D000A8304FF6FF729BB2934220D04FF0805529
:1043E000D5F8A030DB071AD518210DA8FFF7D8FCA7
:1043F00000260123044643700670D5F8A400A11CD2
:10440000FFF7BAFCD5F8A830A371C3F3072363F014
:104410003F03E3711022314604F10800ACE70221AA
:104420000DA8FFF7BDFC002303704370D7E52121E1
:104430000DA8FFF7B5FC0346002203F8012B4FF04F
:1044400080520446D2F8901001314BD0D2F894102B
:10445000013147D0D2F89810013143D0D2F89C10E6
:1044600001313FD0D2F890001946FFF785FC611D5D
:10447000D2F89400FFF780FC04F10901D2F898000B
:10448000FFF77AFC04F10D01D2F89C00FFF774FCF1
:104490004FF08052D2F88030013304F1110327D05D
:1044A000D2F88410013123D0D2F8881001311FD006
:1044B000D2F88C1001311BD0D2F880001946FFF7DA
:1044C0005BFC04F11501D2F88400FFF755FC04F100
:1044D0001901D2F88800FFF74FFC04F11D01D2F852
:1044E0008C00E7E6102200211846FCF787F8CFE79A
:1044F0001022002118463FE733B400002DE9F041B7
:104500000379012B8AB004460E4600F1080800F03A
:10451000A180023B032B00F2D180DFE803F0025BB5
:104520005B6701238DF80D3003238DF80E30FF23D8
:104530008DF80F308DF8113002238DF81230624B58
:1045400004228DF81020D3E90023002203F0005349
:10455000002513438DF80C5039D05C4BD3E9002370
:10456000002302F00202134331D0037A03F00F0359
:10457000012B437A1CBF9D1FEDB2034405F10B02D2
:10458000D2B2022130469F7AFFF72CFC0123037040
:10459000237A0AAA03F00F031344064613F81C3CBF
:1045A0004370237AC3F380138370062204F10A0157
:1045B0000330FBF7F7FF0A3606F8015C7F427FB253
:1045C0002A4608F108013046FBF7ECFF77550AB0A0
:1045D000BDE8F081037A03F00F03072BF7D1437A8C
:1045E000002BF4D04046FFF77DFCF0E7364BD3E9D3
:1045F0000023002203F00053134300F10A0507D003
:10460000324BD3E90023002302F48022134310D15C
:10461000237A0AACC3F3801304F8243D294606220A
:104620000DF10500FBF7BEFF03A92046FFF71EFCB6
:10463000CDE7082213213046FFF7D4FB0023037097
:10464000237AC3F380134370062229460230FBF716
:10465000A9FFBCE7C17AC58809290BD00C2910D065
:1046600007292BD1037B0E2BB1D133462A460021DB
:104670001A2003E033462A4641460020FFF7C8FBD4
:10468000A5E7114BD3E90023002302F40062134392
:104690009DD008223046FFF778FB0821701805F0FE
:1046A000CFF900230370A0F80150237BC370B4F846
:1046B0000D308380B4F80F30C38088E7404080F32A
:1046C00011884FF0040002DF282F0020302F002037
:1046D0000379012B0FD00A2B15D8012000FA03F320
:1046E00013F4B06F12D113F03C0F10D183F04003DC
:1046F00043F380107047037A03F00303032B0CBFCE
:104700000220032070474FF0FF30704702207047AF
:10471000064B4FF0FF3041F6FF71C3E90001044B37
:104720001F200021C3E90001704700BF282F00208F
:10473000302F002020BF40BF20BF7047F0B50D4B89
:1047400089B005460E4601AA03F118071868596892
:10475000144603C40833BB422246F7D11B8823808A
:1047600008AB1D4415F81C0C831B5842584109B076
:10477000F0BD00BF7BAE00000860704718B90B6841
:1047800043F000430B60704718B90B6823F00043F7
:104790000B60704770B5031D451E00249D4201D17A
:1047A000204670BD15F8016F0022A018082AC0B27B
:1047B00001D10446F2E716F0010F03D00029F0D032
:1047C0000139C9B276080132EFE7000010B50C4A92
:1047D00092F8363192F835118B4238BF92F8344155
:1047E00092F8351138BF1B195B1ADBB298429DBF96
:1047F00092F83511D2F8303153F82100002010BD65
:104800005803002030B590F85C3090F85D10994264
:1048100028D190F91D30002B26DBC48C828CA0F8A7
:104820006440C48DA0F8622054437D2262434FF45B
:104830007A7492FBF4F2A0F8662090F860200125CB
:1048400065F30102D2B2002342F00402013980F87C
:104850007050C36680F8602080F85D1080F85E506C
:10486000184630BD012030BD022030BD2DE9F84F83
:104870000C78944281460F4690463DD01F4ED6F8A4
:10488000643133F83430038000254FF0020B06F515
:10489000AC7A22B2D6F86401B9F800E000EBC201AC
:1048A00030F83220964520D14868012820F00303D3
:1048B0000AD9F3B1021D1CD04279D2B1027902F0BB
:1048C0000302013A012A14D8012215444A60EDB2CC
:1048D00013B15146FEF78FF9013496F86821E4B21E
:1048E000A24208BF00244445D3D13C702846BDE80D
:1048F000F88FC1F804B0EBE70025F7E75803002074
:1049000010B5094B93F80C21824204460AD902469D
:104910004FF48271D3F80401FEF782F910B1038CD1
:10492000A34200D0002010BD580300202DE9F04123
:1049300086B00223052805460F4602930ED00628AE
:1049400000F08E8040F28680073880B2FFF7D8FFF3
:10495000002800F0D98090E8400110E06B4B5E69C0
:10496000D3F8188002AB00930A46694B032100205C
:10497000FFF728F8022866D0029B002B67D1634C12
:10498000A37B03F0FF00002B64D106AB0222A573CA
:1049900043F8102D032100932A465D4BFFF712F8D0
:1049A000022863D0029B002B45D1237B9D4202D07D
:1049B000637B9D423BD106AB022243F80C2D0022C3
:1049C00000930321524B1046FEF7FCFF022807D14B
:1049D000012211460320FEF785F9039B022B39D0F3
:1049E000039800285ED102230493237B002B31D04F
:1049F00004AB00930122464B20730321FEF7E2FF34
:104A0000022807D1012211460320FEF76BF9049B0F
:104A1000022B1FD0049A002A36D126F00046B0455A
:104A20003ED93C4B11460320FEF784F990B9A37B95
:104A30000BB9012302930023A373029806B0BDE8CB
:104A4000F081FFF777FE029B022BFAD094E7029BDE
:104A5000012B94D0404080F311884FF0040002DF16
:104A60002A4BD3F8CC60D3F8D08088E7637B9D4293
:104A700004D1012211460320FEF734F9029B022BD8
:104A800090D1FFF757FEF9E7049B012BE2D10022FA
:104A90001146204B0320FEF74DF902460028D9D1DC
:104AA0001D4BBFE7039D012DD4D1FF2F19D006ABBD
:104AB000022243F8042D032100933A46144B0020B0
:104AC000FEF780FF022807D12A4629460320FEF779
:104AD00009F9059B022BBDD0059B13B1059B012B4A
:104AE000B8D1E37B002BA2D00C4B04229A600022A9
:104AF00011460320FEF71EF90028ABD1E37B002B03
:104B000095D0FFF717FEF9E7012097E7580300203B
:104B100079470000782F002018300020A82F0020AF
:104B20002DE9F04F8BB00024FF25DFF814918DF8AC
:104B30001F50804693461F4601F1040A1C600894EA
:104B400026460223099309AB02933B4B019308AB22
:104B500000930DF11F025B4641460020FEF76EFFF9
:104B600002280BD0099B6BB1404080F311884FF0B5
:104B7000040002DF41460020FEF7DEFF099B022B06
:104B8000F8D0EFE79DF81F20FF2A4ED0062AD8D98B
:104B900099F80C3107339A42D3DA073A92B24FF4BC
:104BA0008271D9F80401FEF73BF80028C9D090F9CA
:104BB0001D30002BC5DB0368089AD0F804E0002BF9
:104BC00012DA816823F0004371452CBF52187244F9
:104BD000D21AC168FF2D01F104010B4408D19DF8E0
:104BE0001F501C461646ACE7734538BF7346F0E7C6
:104BF0003146104605930492FEF7B6FF04EB0A0116
:104C00008842049A059BEAD90C483444A4FB00016D
:104C1000072303FB041106A3D3E90023FBF7FAFAE9
:104C2000803038600BB0BDE8F08FFF2DECD1F9E794
:104C300000CA9A3B00000000794700008D49FD1A28
:104C40005803002070B504780A78C4F38013B3EBDE
:104C5000D21F19D104F00F04012C01F1080600F154
:104C6000020508D0062231462846FBF786FCB0FA3A
:104C700080F0400970BD062231462846FBF77DFCD6
:104C80000028EFD1204670BD002070BD0B4A92F87D
:104C9000743192F8751199420ED192F8743102EB89
:104CA0004303A3F86E0192F874310133DBB2032B96
:104CB00008BF002382F87431704700BF58030020FA
:104CC000044B1B7C23B1012100220846FEF70AB8E1
:104CD000704700BF58030020062810B50C460AD9BB
:104CE000094BC21F92B24FF48271D3F80401FDF751
:104CF00097FF206010BD052804D00628034818BF80
:104D0000002010BD024810BD5803002024040020DC
:104D10006C03002008B50A4B00221A7068B1012804
:104D200005D1084B00221146FEF704F838B1404087
:104D300080F311884FF0040002DF034BF2E708BD57
:104D40005C050020F82F0020E82F002038B505462C
:104D50000C460021084604F0D3F995F8A830DB068C
:104D60004FF001020DD51F21082004F00FFA224652
:104D7000002105F1A90004F041FCBDE8384004F031
:104D800033BA08201B2104F001FA2046F5E738B5B4
:104D900005460C460021084604F0B2F995F8A83003
:104DA0009B064FF001020CD51F21082004F0EEF9FC
:104DB000214605F1CA0004F05DFCBDE8384004F06E
:104DC00019BA08201B2104F0E1F92046F5E700009C
:104DD00070B5164C037894F8DD20DB09B3EBD21FD5
:104DE00005460E4607D094F8DD00C0F3011010F020
:104DF00002000BD170BD00F10801062204F1DE00B3
:104E0000FBF7BBFB0028EED1012070BD95F9003007
:104E1000002B09DA6B7B03F0C003402B04D1002E7A
:104E2000F2D00120307070BD002070BD580300200A
:104E3000404080F311884FF0040002DF30B5046871
:104E4000002C89B019DA4368856806909D4224F0E9
:104E5000004434BFE41A641B094B0593A4B2002339
:104E6000049303930293184601940094FEF75CFDAB
:104E700030F0020301D0FFF7DBFF09B030BD00BF07
:104E80008947000010B503460A4600F19C01D0F89E
:104E90009C0008B9FFF7CCFF1C8CA3F8A24083F854
:104EA000A42007240A4A83F8A04092F86C4183F8B2
:104EB0009C4002F5A272FDF7CDFE28B9404080F378
:104EC00011884FF0040002DFBDE8104003F074BB0E
:104ED0005803002010B5164A92F8353192F8361171
:104EE000994201D1FFF7A4FF92F83511D2F8303181
:104EF00053F8211092F86C3108680B7092F8353134
:104F000092F834410133DBB29C4208BF002382F89F
:104F1000353102F5A272FDF79DFE28B9404080F3BD
:104F200011884FF0040002DFBDE8104003F044BBDD
:104F30005803002010B50120FFF748FC044608B9CB
:104F4000FFF776FF4FF6FF73C3800623037110222D
:104F500000210B30FBF752FB3C23E372BDE810400D
:104F6000FFF7B8BF1FB53E4C20B1A37B052B75D012
:104F7000FFF75EFF237B052B02D0637B052B65D1FA
:104F800004AB022243F8082D002200930121354B87
:104F90001046FEF717FD02280DD00298C0B1029806
:104FA000012819D1E37B002B50D02F4B04229A60AB
:104FB0000022114646E0012211461046FDF792FEFE
:104FC000029B022BE9D101210020FEF7B5FDF7E796
:104FD00002230393237B2BB9404080F311884FF0C9
:104FE000040002DF03AB01222073114600931D4B26
:104FF000FEF7E8FC02280FD0039AD2B1039C012CE3
:10500000EAD100221146194B2046FDF793FE0246D5
:105010000028E1D1164B13E0012211461046FDF79E
:1050200061FE039B022BE7D101210020FEF784FDE6
:10503000F7E76369A16923F000438B42EAD20B4B87
:1050400011460120FDF776FE0028C5D10022094B4C
:1050500011460120FDF76EFE0028BDD104B010BD41
:105060005803002079470000982F0020682F002067
:1050700008300020382F002073B5164602AA1C46BF
:10508000054642F8046D27310120FFF749FD2368EA
:10509000FBB10198831B1B0201D5FFF7C9FE314606
:1050A000FEF762FD024610480723A2FB000103FB46
:1050B00002110BA3D3E90023FBF7ACF823681844D3
:1050C0000028206005DB40F2E240684323689842F4
:1050D00001D302B070BD1B1A2360F7E7AFF3008065
:1050E00000CA9A3B000000008D49FD1A13B500F17B
:1050F0006C030446826FC168808CFFF7BDFF02A974
:10510000E36E606F40F2E242B3FBF2F3022221F859
:10511000023DFBF747FA02B010BD262810B5044641
:105120000BD027280BD025280BD1022003F0FEFF3F
:105130002046BDE8104003F0FFBF1A20F6E75020DC
:10514000F4E70A2802D802304000EFE7272801D808
:105150000330F9E7FFF76CFE38B52A4C94F8743049
:1051600094F875209A4206D00133DBB2022B08BFB7
:10517000002384F8743094F8C43094F8C5209A421F
:1051800006D00133DBB2022B08BF002384F8C43001
:1051900094F874202623272515FB0235601904F0A6
:1051A00029F8635D03F00F03022B23D0072B21D0D6
:1051B00002239620237404F027F9002004F094F8C9
:1051C00094F82430C3F30202D3B21946002011F040
:1051D000010F00F1010512D0013B134094F8242087
:1051E000C0B263F3020284F824202530BDE83840C1
:1051F000FFF793BF0323237404F08CF8E0E749081A
:105200002846E4E75803002038B5104A92F86C317C
:1052100092F868410133DBB29C4208BF002392F848
:105220006B419C4201D1FFF703FE92F86C51D2F81A
:10523000644124F8350092F86C0104EBC00461600D
:1052400082F86C31BDE8384003F0B6B9580300204D
:105250002DE9F843244C064600272EB194F8693115
:1052600094F86A219A4201D1BDE8F88394F86981E3
:10527000D4F86091D4F8040139F8382009EBC80358
:105280004FF482715D682F60FDF7CAFC034639F860
:1052900038001A8C82421FD1D3F8F82042B9D3F8D3
:1052A000EC20C3F8F8501AB9C3F8EC50C3F8FC204E
:1052B000D3F8FC2002B11560C3F8FC5094F86931B2
:1052C00094F868210133DBB29A4208BF0023013E03
:1052D00084F86931F6B2C0E72B7967F301032B71CB
:1052E0002946FFF791FFE9E75803002073B5012233
:1052F000044611460020FDF7F5FC94F8202000211B
:1053000042F208330732009308463A4BD2B2FEF716
:1053100059FB30F0020105D0404080F311884FF076
:10532000040002DF344B1A7C052A1D461BD1228C57
:10533000187B0732904216D1197342F21933009349
:1053400001222C4B0846FEF73DFB30F00202E3D170
:1053500042F2203300931146264B1046FEF732FBF3
:1053600030F00203D8D1D4F8EC10D4F8F0309942E0
:1053700003D0D4F8F830994201D1204E12E00B79D5
:105380006FF301030B710B68C4F8EC30208CFFF74E
:105390003BFFE8E70368C4F8EC30C4F8F03031466E
:1053A000FDF729FCD4F8EC0018B1D4F8F830984295
:1053B000F0D10023C4F8F030C4F8F430D4F8EC1085
:1053C00051B94FF6FF732384D5F87C319C4208BF56
:1053D000C5F87C1102B070BD0B796FF301030B713E
:1053E0000B68C4F8EC30C4F8F830208CFFF70CFFE1
:1053F000E4E700BF3555000058030020A804002052
:10540000C0B208B5031F012B01D9FFF711FD084AEF
:10541000137C3BB1043B012B04D91074BDE8084058
:1054200003F008BF03F038FF0028F7D008BD00BF25
:105430005803002008B50A4A137838B1591C117076
:1054400063B90120BDE8084003F0B4B80BB9FFF719
:10545000EFFC013BDBB21370002BF3D008BD00BFA3
:10546000080500200020FFF7E5BF0000002208B576
:105470001146044B1046FDF75DFC08B1FFF7D8FC60
:1054800008BD00BFC82F0020002208B51146044BFC
:105490001046FDF74FFC08B1FFF7CAFC08BD00BF7E
:1054A000482F002008B530B1034B9B7BC9B299420D
:1054B00001D0FFF7BDFC08BD5803002008B528B196
:1054C000034B9B7B052B01D0FFF7B2FC08BD00BF4F
:1054D00058030020012808B5094B07D19A7B062AFA
:1054E00002D100229A7308BDFFF7A2FC1B7B062B9A
:1054F00005D1404080F311884FF0040002DF08BD61
:1055000058030020012808B5094B07D19A7B052ACA
:1055100002D100229A7308BDFFF78AFC1B7B052B82
:1055200005D1404080F311884FF0040002DF08BD30
:105530005803002008B508B1FFF77AFC08BD4040C9
:1055400080F311884FF0040002DF000070B50646BA
:105550000320FFF73BF920B34FF6FF73C380124BD4
:1055600093F8DD305A0718D0C3F30203DAB2012AE8
:1055700003D0042A02D0FFF7E2FF0323447A037129
:1055800000F10805023456B103F0DCFE00F07F00A4
:105590002855FFF79FFC002070BD0223EEE77F2017
:1055A000F6E7012070BD00BF5803002037B502ADFB
:1055B000104B45F8043D044603F088FD002003F03D
:1055C000AFFD0D4803F04CFD0121204603F098FD8E
:1055D000284603F0C3FD620002F0FE0225210820E8
:1055E00003F0D4FD054940F25B6003F05FFE03B0B9
:1055F00030BD00BFD6BE898E2165000055555500CF
:1056000008B5054B0022986011461046FDF792FB45
:1056100008B1FFF70DFC08BD882F00202DE9F04FE1
:1056200014681D688DB0002C81460B9190469B46F6
:105630009DF85CA003DA169CAC4238BF2C46AC4205
:105640004E4F1BD941F2855308934D4B05930021D2
:10565000631B009307974B460691049103910291B7
:10566000019101220846FEF70FF930F002032BD01A
:10567000404080F311884FF0040002DF1DD2002368
:105680001A4619461846FFF7FFFE41F29A530021C9
:1056900008932C1B3B4B059307974B4606910491AF
:1056A000039102910191009401220846FEF7ECF863
:1056B00030F00203DCD12C460BE000231A461946D9
:1056C0001846FFF7E1FE00231A4619461846FFF771
:1056D000CDFE2D4E0B9BB36041F2B2530893199B44
:1056E00006930022189B059307974B46049203925A
:1056F00002920192009411461046FEF7C5F830F070
:105700000203B5D10520FFF77BFFD6F878319D4223
:1057100023D0CBF80030D8F800300597002BBCBF61
:1057200023F00043C8F80030D6F87821D8F80010EC
:105730008A4238BF0A4641F2E251A3B292B20691C0
:10574000002102930192009204910391524608466F
:10575000FEF7EAF830F002038AD1FF20FFF778FD68
:105760000A4B012211460020C3F808A0FDF7E2FA17
:1057700000287FF47DAF0DB0BDE8F08F35550000F7
:10578000895400006D540000580300202830002088
:105790001FB50B4A137B03F0FF040BB1FFF748FB67
:1057A000052313730394074C02940193D369009368
:1057B00002F118031432FFF731FF04B010BD00BF2F
:1057C000580300204D5A000007B50520FFF718FFC9
:1057D00041F6A603002100930522064B0846FEF77A
:1057E000F1F830F0020301D0FFF722FB03B05DF8BF
:1057F00004FB00BF654F00002DE9F843214D95F8EB
:10580000364195F8343195F848910134E4B2A34219
:1058100008BF002405F59E7705F59278B9F1000FD1
:1058200003D095F835319C4201D1BDE8F883384664
:10583000FDF7C7F906460028F7D04046FDF7C1F945
:1058400028B930461049BDE8F843FDF7D4B90660E1
:1058500095F83621D5F8303143F8220085F83641E5
:1058600095F834310134E4B2A34208BF002495F81E
:10587000483109F1FF39013B85F848315FFA89F970
:10588000CCE700BF580300209404002010B52E4C34
:1058900094F80C21002A37D004F584734FF48271F8
:1058A000D4F80401FDF766F9284B94F82E21B4F8DA
:1058B0002C11D4F82001FDF75DF994F8341194F817
:1058C0000C21234BD4F838010A440821FDF752F982
:1058D000204BD4F84C0102222421FDF74BF994F817
:1058E0006821D4F854011C4BB4F85C11013A92B20F
:1058F000FDF740F91648FDF764F940B9404080F3E0
:1059000011884FF0040002DFC4F80821CCE7134AE5
:10591000111FFDF79CF994F8253043F0380384F803
:105920002530FF2384F8163184F8173184F81831B4
:1059300084F819311F2384F81A31252384F81B3188
:10594000BDE81040FFF758BF580300207C0400203A
:1059500094040020A8040020B00400209C0400202F
:10596000024B1868436800211B6818475803002041
:10597000024B1868436800215B68184758030020F1
:10598000F0B5484003274FEA102E082600240EF0F9
:105990000105013E45EA440516F0FF06ECB24FEA68
:1059A0005E0EF4D125022DB2C0B24FF0080E34467F
:1059B00000F0010646EA44040EF1FF3616F0FF0E31
:1059C000E4B24FEA5000F3D12C4304EB0414013F3E
:1059D0000C4417F0FF07A0B2D5D125244140B1FBFC
:1059E000F4F004FB1010C0B2C40800F00705145D09
:1059F0002C41E40707D45943C1F307411046BDE8E1
:105A0000F040FEF7C7BEF0BD70B514460E46054621
:105A1000FEF7A8F82146FEF7A7F8C41C092C11D9F7
:105A2000094B1B7813B10020FFF774F932460021AF
:105A30002846FFF703FAAB681C44262C00D8AC605C
:105A4000012070BD002070BD5C050020294BDA7B71
:105A500070B502F0FF0105461C462AB1404080F3B4
:105A600011884FF0040002DF1B7BDBB2052BF5D160
:105A7000606094F82500012600F00700E6732173AA
:105A80006373FFF793FD94F8253094F82420C3F353
:105A9000C20363F3020284F82420FFF75DFB94F84D
:105AA000253013F0C00F07D0304603F021F8821CD8
:105AB0004178007803F05EFCA26805F1090101203D
:105AC00003F0AEFC03F07CFD2A4605210A48FFF7EF
:105AD0009BFF034628B104232374BDE8704003F004
:105AE000A9BB064A0146FDF7EBFF30F00203B5D132
:105AF00070BD00BF580300206C030020C14C0000A3
:105B000010B590F8A840D0F8F02014F0800F18D10C
:105B1000D0F8EC30ABB1240713D4D0F8F840A3424E
:105B200004BF1C68C0F8F84092B91A680A6019608E
:105B3000C0F8F010C0F8F4100B680BB9C0F8FC10F6
:105B400010BD2AB9D0F8EC300B60C0F8EC10EFE7CC
:105B5000D0F8F4301A680A601960EBE710B490F8D6
:105B6000A84024070A460FD5D0F8F01031B9D0F874
:105B7000EC101160C0F8EC2010BC7047D0F8F43085
:105B8000196811601A60F7E710BCFFF7B9BF000091
:105B9000F8B5214F054607F5A8700E46FDF711F838
:105BA0000446B0B333797179D7F8102143F07F43BD
:105BB00043F47E0343F4435343F0100343EA0123C9
:105BC000B17943EA0143D2F88C10C1F310010B40C4
:105BD000C2F88C3092F8383043F0200382F8383025
:105BE000037943F003030371082209234371C3714E
:105BF00000211044FAF702FDD5F88C3023721A0AFE
:105C00001B0C28466272A3722146FFF7A7FF0020F3
:105C1000F8BD0120F8BD00BF5803002000000000BF
:105C20002DE9F04F6F4D1C462B7B8FB08046894687
:105C30002BB1404080F311884FF0040002DF94F84C
:105C400020300733DBB22B7394F91D30002B09DAB7
:105C5000E36B616C02FB03330B44216C63648B4286
:105C600088BF6164268D94F85C303244668C92B2B1
:105C70002285324496B294F85D209A4271D0052074
:105C8000FFF7BEFC94F85E30013B032BD1D8DFE870
:105C900013F0040026026802B102D5F87C310BB97A
:105CA000C5F87C4194F8603013F0030300F0A6803F
:105CB0004D48FCF786FF0546002852D094F8603026
:105CC00003F00302012AB4D16FF3010384F86030BA
:105CD000E38C063333449BB2A4F86830027942F077
:105CE000030202710C2242710022C27194F87020EA
:105CF0000272E26E40F2E241B2FBF1F2A0F809203A
:105D0000B4F86220A0F80B20B4F86420A0F80D20AD
:105D1000B4F86620A0F80F20A0F811302268C4F86B
:105D20007880002A0ADAA368616822F000428B4278
:105D30002CBF434408EB01039B1AA36705F1090339
:105D400063672A4B2A4ADA600122114600209C60D0
:105D5000FCF7F0FF00287FF46CAF29462046FFF7E0
:105D6000CFFE94F8992094F898309A421DD00520DF
:105D7000FFF746FC1C48FCF724FF0146A8B194F845
:105D8000983084F89930037943F0030303710223B8
:105D90004371C37194F89A3003722046FFF7B0FE46
:105DA000E38D012B98BF0133A38694F8203094F93A
:105DB0001D5010481049A2680394073311EA2501C9
:105DC00038BF0146DBB28DE80C000291231D22464C
:105DD000494640460136FFF721FC66840FB0BDE816
:105DE000F08F00BF58030020A8040020B82F002027
:105DF000ED500000317C0000DD620000B4F86870F6
:105E0000F71BBFB23804ACD494F85C2084F85D2052
:105E1000D5F87C212B73944208BFC5F87C31B4F8C7
:105E20006230A28C9A4214D1B4F86410E38C994287
:105E30000FD140F2E2435A43B4F8663042F2107197
:105E400001FB0323013B93FBF2F3E28D9BB29A42E9
:105E500016D00220FEF7BAFC00283FF4EAAE238CED
:105E6000C380082303710023C372B4F862308381B6
:105E7000B4F86430C381B4F866300382FFF72AF8BF
:105E800023686668002B09DAA06823F00043B0425B
:105E90002CBF8044B0442360A8EB0308A38CB4F863
:105EA00062A0C94913FB07F39BB2B3FBFAF21FFAD6
:105EB00082F91AFB09F080B2834280F0F280C01AA6
:105EC00040F223124243C31701FB0323A0FB01014D
:105ED0001944BBA3D3E90023FAF79CF920F07F40D3
:105EE00000EB08030B93238DDFF804B3DB1B4B445B
:105EF000238523689E4238BF1E4694F91D300D96B7
:105F000040F2E248002BE36E0C9308FB0AF680F2A5
:105F1000D980E36B626C03FB172795F81C31AB4A01
:105F200032F8135094F83830C3F3820332F8133048
:105F300094F870201D44754305F57425A44B08FBA7
:105F400002F205F23F25B5FBF3F5730805FB09F0F6
:105F5000963B0744E26400229F4294BF67646364F7
:105F6000E5632364A265A0FB0B0195A3D3E900239D
:105F7000FAF750F90B9B1B1A0B930C9BB3FBF8F031
:105F800008FB00F08EA3D3E90023A0FB0B01FAF776
:105F900041F9751B20F07F47B4F86430E384B4F80E
:105FA0006630A4F824A042F2107202FB0363013BA6
:105FB000B3FBF6F3E385874B3344B3FBF6F694F873
:105FC0006030668613F0040308BF23860121002099
:105FD00003F0D2FB0022012181461046FCF782FE2D
:105FE00094F8202041F6A123002107320093D2B279
:105FF000794B0846FDF7E6FC30F002087FF419AE55
:10600000A5FB0BAB6EA3D3E9002350465946FAF724
:1060100001F9724A94F8206020F07F45072320F0B0
:106020007F400021434302FB0133A0FB0201BAEB96
:10603000000019446BEB01014FF47A720023FAF768
:10604000E9F8E3680D9A94F91DE0654902901A4455
:106050001346644A049312EA2E0238BF0A460736F2
:1060600041F6B1210891F6B25B4907910592069479
:10607000CDF80C80019500970B9B32464146404677
:10608000FDF702FC30F002007FF4D3ADB9F1000F50
:106090003FF4A4AE012211460FB0BDE8F04FFCF76B
:1060A00021BE0AFB123292B2A2FB010140F223137D
:1060B00003FB021142A3D3E90023FAF7ABF8A8EBE4
:1060C00000030FE70C993EA3D3E90023A1FB0B01CA
:1060D000FAF7A0F820F07F40471C35465CE794F8BB
:1060E00060300BB34048FCF76CFD054600283FF4D8
:1060F00038AE002384F86030E38C06333344A4F8D0
:106100006630037943F003030371082343710123CD
:10611000C371052204F161010830FAF743FAB4F8BB
:106120006630A5F80D3018E6B4F86630F31A190495
:106130003FF517AE94F85C3084F85D3004F1170534
:10614000052204F161012846FAF72CFA05212846B8
:10615000FCF7D0FE637F60F30503637701232377A9
:10616000FFE52148FCF72DFD054600283FF4F9AD79
:1061700094F85C3084F85D301C4BC4F88C300379A3
:1061800043F0030303710923437194F91D30002B7D
:10619000ACBF08230E230822C37100211044FAF774
:1061A0002DFAD4F88C302B721A0A1B0C6A72AB725F
:1061B00029462046FFF7A4FC638EA386D1E500BFE5
:1061C0008D49FD1A070000000054CE095AB40000A2
:1061D00040420F00FF596202355500008D49FD1AFB
:1061E000996200009D620000A80400200C4001009C
:1061F00000CA9A3B94F89030DA0724D42548FCF77B
:10620000E0FC014600283FF4ACAD94F85C3084F823
:106210005D3094F8903043F0010384F890300379B6
:1062200043F003030371062343710C23C371092355
:1062300003726FF00E034372052383724FF0FF3336
:10624000C3720373B5E79B077FF5F3AC94F85C303A
:1062500084F85D300220FEF7B9FA00283FF4E9AC7B
:10626000238CC38001230371037A43F00303037279
:10627000062343720C23C37294F891300373B4F86D
:106280009230A0F80D30B4F89430A0F80F30FEF73B
:1062900021FE66E5A8040020FFF7C2BCFFF7C0BCE2
:1062A00010B5044602F012FF002002F039FF0A4840
:1062B00002F0D6FE04F1100002F050FF637DA17DD4
:1062C0001B0243EA0143217D40F25B601943BDE8B4
:1062D000104002F0EBBF00BF216500002DE9F8433C
:1062E0001C465A4BDA7B074602F0FF061D462AB1D0
:1062F000404080F311884FF0040002DF1A7B238CAA
:10630000D2B207339A42F3D10323EB7385F81461B9
:1063100085F8156101232B74238DC5F81041D2B285
:1063200063856860268520462E736A73FFF7B8FF81
:10633000962003F069F8334632463146304602F083
:10634000DFFF95F83521D5F8303153F8221020467B
:106350000831FEF7FBFC637F13F0400F04F11702D6
:106360004AD0608CE18B013803F03F0380B2FFF725
:1063700007FBFEF7D2FEA36C626C1344002262643A
:10638000226CA364934288BFA264236DE26C002652
:1063900013442365AA68E66407F10901304603F057
:1063A0003FF8804603F0D8F8304603F0F7F8236D45
:1063B000A26C78333146304603EB420902F027FFE6
:1063C000C84431468044304602F023FF404403F085
:1063D000A5F894F8201007313A46C9B22046FFF7D5
:1063E00013FB034640B304232B7402F023FF022067
:1063F000BDE8F843FEF72CBF618DA67F01FB066662
:10640000E17F25200E4496FBF0F100FB1166F0B20F
:10641000C108E077515C06F0070641FA06F6F1077D
:1064200003F03F03A5D4B0FBF3F103FB1101C9B2A4
:106430001046FEF7AFF99CE7054A0146FDF740FB21
:1064400030F002037FF454AFD1E700BF58030020BF
:10645000C14C0000F8B590F8A8301A0604460F4663
:1064600009D4D0F8EC5035B113F0080FD0F8F0E0B3
:1064700022D0754520D094F8A83043F0800384F8EA
:10648000A83002F029FF0378012262F30103002201
:106490004270D4F8EC200370DBB252B143F0100329
:1064A000037003786FF34713037000238370386021
:1064B000F8BD62F30413F3E794F8013194F8001186
:1064C0002A1DD01811B9417884F8001123B1D15C8C
:1064D000012666F30101D15494F80061F61AF6B270
:1064E0004670D15C1B2E6FF30411D15405D91B21CA
:1064F0004170D15C41F01001D154296819B1D15CCF
:1065000041F01001D154BEF1000FCAD1D4F8F830D7
:106510009D421CBFC4F8F450C4F8F050C1E700001D
:106520002DE9F04F8FB002F0ADFEC6B236B302F0E7
:10653000C9FEC7B202F04AFFC4B202F051FF03F035
:10654000F9F803F0E5F802F00BFFC5B202F084FEA3
:1065500002F04CFF02F032FF03F0E0F802F0F8FE28
:106560006D48037C8346052B01F25A82DFE813F065
:106570005F0087000A00B508B508B50835463446FF
:106580003746E3E70123037403F032F8044696200C
:1065900002F03AFF9BF80F30013BC334032B11D8B4
:1065A000DFE803F00224484800231A46194618463B
:1065B00002F0A6FE02F094FE02F016FE02F058FE73
:1065C000054628B1404080F311884FF0040002DFF7
:1065D000014602F01EFE29460444284602F015FE3C
:1065E000201A02F09BFF02F0EBFF20E00023194687
:1065F0001A46184602F084FE9BF83521DBF830314C
:1066000053F82200083002F0EFFD02F031FE05469B
:106610000028D7D1014602F0FCFD29460444284653
:1066200002F0F3FD201A02F079FF02F081FE0FB0B4
:10663000BDE8F08F00231A461946184602F060FEA6
:106640009BF83521DBF83031DBF8100153F82210CC
:106650000831FEF77BFB02F00BFE05460028B1D1A6
:10666000014602F0D6FD29460444284602F0CDFD3D
:10667000201A02F053FF0120FEF7EAFDD7E72EB9FA
:1066800003238BF8103002F0D5FDD0E7C37B013B2C
:10669000032B97D8DFE813F00400080267046704AF
:1066A000002FEDD002F01CFE9BF8742026234FF043
:1066B000270919FB0239027802F00F03032B074662
:1066C0000BEB09052AD143780C2B27D19BF82530F9
:1066D0005B0600D514B31BF80930C3F38013B3EB8A
:1066E000D21F1BD1062207F10801A81CF9F745FFAC
:1066F000A0B903238BF8103002F00CFE9BF8C40005
:10670000272303FB00B0763002F074FD02F0B0FDE9
:1067100000288CD056E700BF580300203B7803F0D8
:106720000F03052BACD17B78222BA9D11BF80930A4
:1067300003F00F03012B40F0928139462846FEF703
:1067400081FA88B13B781BF80920C3F38013B3EBBF
:10675000D21F40F082810622B91C05F10800F9F72A
:106760000CFFB0FA80F04009002889D09BF8763100
:106770002BB19BF874319BF875219A4280D1DBF8DC
:10678000C830002B3FF47CAF0420FEF71FF805460D
:1067900000283FF475AF4FF0040A8BF810A002F008
:1067A00049FDDBF8C840DBF804114FF000084FF456
:1067B00082722046CBF8C880FCF735FA0322208489
:1067C00007F1120104F11400F9F7ECFE04F11003D3
:1067D000184604F11706524607F10E010A93F9F71D
:1067E000E1FE052207F11E013046F9F7DBFE052127
:1067F0003046FCF77FFB627F0A9B60F305026277FD
:1068000097F82320C2F30402A2773A8BA28440F2C5
:10681000E2465643F97EBA7E42EA0122E2841946F4
:10682000524604F15400F9F7BDFEBB8B42F21072E0
:1068300002FB0363013BB3FBF6F3E385924B39465E
:106840003344B3FBF6F36386238C85F80B804FF05B
:10685000010885F80C80EB8011F8023B0622C3F397
:1068600080132A716B7305F10E00F9F79BFE3B8BC9
:10687000AB827B8BEB82BB8B2B8397F82330C3F3EC
:106880004213AB76208CFEF701FAFEF723FB0320C0
:10689000FDF79CFF00283FF495AE238CC3800A23AC
:1068A00003713B7813F0200300F0E780627C237CC7
:1068B000E17C43EA0223A27C42EA0122617F534049
:1068C00041F040016177E38380F80B80FEF702FB23
:1068D00097F8232094F838306C49520962F3840306
:1068E00084F838309BF81C3131F8122031F813301D
:1068F0001344734303F57423654A03F23F23B3FB48
:10690000F2F3E3637308963B23647B7D40F2E24A33
:106910004FF000080AFB03F323654146C4F84C809E
:10692000404602F074FC5B490A9000F2524054A3C6
:10693000D3E90023A0FB0101F9F76CFCDBF87851E7
:10694000656027239D4238BF1D4620F07F402360AD
:10695000E36BE060C4F80880F61A02F043FE0B9087
:10696000F88A414600FB0AAA404602F04EFC0B9B07
:10697000AAF1300A9A440A9BAAEB000AAAEB030385
:106980000A934FF4906300930522434BDFF804A170
:1069900041464046FDF716F840F28141FEF7B2FD50
:1069A0001BF8093003F00F03012B07D1CDF800804D
:1069B0004346032241464046FDF704F8A6FB0A671A
:1069C0002FA3D3E9002330463946F9F723FCDBF83F
:1069D0000430324AA3EB050B94F8203006940733B9
:1069E000DBB20B934FF4936308932D4B07932D4B1E
:1069F0000593E36880461D4420F07F400723002173
:106A0000434302FB0133A0FB0201301A19444FF04B
:106A100000044FF47A724FF0000367EB0101049514
:106A20000394F9F7F7FB0A99029028F07F4301934A
:106A3000A1FB0A0112A3D3E90023F9F7EBFB0B9AA0
:106A400020F07F4000905B4621460846FCF71CFF83
:106A500030F002037FF4B6ADE9E5002084E69BF850
:106A60002530DB0900D034B139462846FEF7EAF874
:106A700000F0010078E62046FAE7C37226E700BF7F
:106A80008D49FD1A07000000FF5962025AB4000048
:106A900040420F0000CA9A3B055500008D49FD1A7F
:106AA000355500009D620000002F00F0188290F81C
:106AB000DD30C3F3001313B1002C00F0108200226C
:106AC0008DF834209BF83511DBF8302152F8217015
:106AD000DBF8FC2007F10804002A00F097819BF8FE
:106AE000762132B19BF874219BF87511914240F0E8
:106AF0008D81002B00F078813B7A13F00F0340F07A
:106B0000D08102F06FFDDBF8D83000F21626B048D5
:106B10000722A3FB000102FB0311A9A3D3E9002371
:106B2000F9F778FBA0F59670864280F06F8104201B
:106B3000FDF74CFE8246002800F0D1810426002398
:106B4000DBF8FC408BF81060CBF8FC3002F0C8FB9F
:106B50000378A04903F0D00343F0250303703A7A89
:106B6000DBB2C2F3801262F3C713222242709BF899
:106B7000DD20D20962F386130546062200F8023BA7
:106B800005F10809F9F70EFD062207F10A0148464A
:106B9000F9F708FD324604F1100105F10E00F9F78E
:106BA00001FD032204F1140105F11200F9F7FAFCCA
:106BB00001236B75BBF8F03040F2E2465E4302F011
:106BC00011FDDBF80830DBF80081002BCCBF00F5AD
:106BD000DB6000F2BA60B8F1000F40F06C8185F81C
:106BE000168085F8178080460021084602F008FBD1
:106BF0000021A8EB0008084602F007FBA8EB000004
:106C000000F11E030A93BBF8F0302B83BBF8F2307F
:106C10006B83BBF8F430AB8304F11701052205F157
:106C20001E00F9F7BFFCA27F95F8233062F304033E
:106C300085F823309BF81C2162F3471385F8233035
:106C400002F068FB284602F0D5FA02F011FB8046FC
:106C500000287FF4B7AC4FF48272DBF804112046B1
:106C6000FBF7E1FF20848AF80B808AF80C802B78F0
:106C7000AAF806000622C3F3C0138AF80420494686
:106C80008AF80D300AF10E00F9F78CFCBBF8F030F1
:106C9000AAF81430BBF8F230AAF81630BBF8F4307A
:106CA000AAF8183095F82330C3F342138AF81A3043
:106CB000208CFDF7EBFFFEF70DF90320FDF786FDB5
:106CC00000283FF47FAC238CC3800A2303713B7AF6
:106CD00013F020030ED0627C237CE17C43EA022384
:106CE000A27C42EA0122617F534041F04001E383EC
:106CF00061770123C372FEF7EDF8DBF8783163604A
:106D0000272B38BF27232722002522609846DBF84F
:106D1000F820E26040F237630622A560294600931E
:106D200028462D4BDFF8BCA0FCF74CFE4FF4C761A2
:106D3000FEF7D0FB2B460422294600952846FCF797
:106D400041FEDBF8043094F820900694A3EB080B86
:106D500040F24F630893214B0793214B0593E3685F
:106D60000395A6FB0A6743440493304616A3D3E970
:106D700000233946F9F74EFA104619464FF47A7255
:106D80000023F9F747FA10A3D3E90023029039460C
:106D90003046F9F73FFA0A9901900BA3D3E9002393
:106DA000A1FB0A01F9F736FA09F107095FFA89F937
:106DB00020F07F4000905B464A46294645E600BFEA
:106DC00000CA9A3B000000008D49FD1A0700000030
:106DD0008D49FD1A36040020D554000035550000B9
:106DE0009962000000CA9A3B9BF8DD203B7AC2F30F
:106DF0008012C3F380139A4208D1062207F10A01D8
:106E0000BD48F9F7BAFB00283FF476AE3B7A13F0A1
:106E10000F0301D0062B6FD19BF8DD2016075AD542
:106E2000DBF8FC20002A56D12846FEF78FFB0546EA
:106E3000002854D102F054FA0378B049032262F3D7
:106E4000030303703A7ADBB2C2F3801262F3C71312
:106E50000C2242709BF8DD20D20962F386130446AF
:106E6000062200F8023BF9F79DFB062207F10A0112
:106E700004F10800F9F796FB9BF8DC3043F00203BD
:106E80008BF8DC30962002238BF8103002F0BCFA2D
:106E9000284602F029FA204602F0ACF902F090FBF5
:106EA00034E4012BB6D100212046FDF791FF0028E4
:106EB000ACD026E6B044B8F1000FFBDB8045F9D337
:106EC00040F2E243A8EB0000B0FBF3F06B7DE882F8
:106ED00001336B7588E67BB97B7A002B3BD10323AA
:106EE0008BF8103002F0A6F99BF8DC306FF3410309
:106EF0008BF8DC30FFF79BBB012B0DD03B7A03F006
:106F00000B02022AE8D003F00F03072B0BD19BF8EA
:106F1000DD305C07E0D1E2E70DA92046FDF758FF20
:106F20000028D9D1EAE7042BD9D19BF8DC309807A7
:106F3000D5D502F0D5F93B7A0278C3F38013B3EBD1
:106F4000D21FCCD1062207F10A010830F9F715FB50
:106F50000028C1D0C3E7DBF8FC30002BBFD12846A6
:106F6000FEF7F4FABBE790F8143190F835210133BD
:106F700080F81431D0F8303153F822600123337196
:106F8000002F00F06E83D0F81031307A93F8A820EB
:106F9000C0F3800002F00101884200F0B78081F068
:106FA000010161F3000283F8A8209BF80F20032A57
:106FB00002BF93F8382042F0010283F8382093F89A
:106FC000A820110600F19E80D3F8EC8093F801E12F
:106FD00008F1040C0CEB0E056C780CB9002527E0C9
:106FE00092060AD5D3F8DA00D3F8DE10013041F169
:106FF0000001C3F8DA00C3F8DE101CF80E3003F00D
:107000000303032BEAD1EA78022AE7D18BF8103088
:1070100002F010F902F02CF900287FF4D3AA2979A4
:10702000DBF81001132908BF1621FDF72BFF0125FE
:10703000DBF8103193F8012193F800112244D2B209
:10704000914283F801211ED1D3F8EC20D3F8F0103F
:1070500000208A4283F8000183F8010116D1B8F1BB
:10706000000F10D0D3F8F4101468C3F8EC408A4233
:1070700006BFC3F8F000C3F8F400C3F8F04020499D
:107080004046FBF7B8FD4FF0000808E0D3F8F810D1
:107090008A42126808BFC3F8F820C3F8EC20002D1C
:1070A00036D0DBF81001FEF721F90025CBF810519E
:1070B00002F07AFA18B902F06BFA02F06FFADBF814
:1070C0001031002B3FF4B3AAB8F1000F03D04146B2
:1070D000188CFEF799F8002D3FF4A9AADBF81031BF
:1070E000188CFDF7D3FDDBF810311B8CF380FDF716
:1070F000F1FEFFF79CBA00BF3C04002036040020DC
:10710000A80400206FF3C71283F8A8204FF00008EE
:10711000DBF81031327A93F8A830C2F3C002C3F31F
:1071200040039A423CD00025DBF8103100248BF854
:1071300015411C86DBF810010DA990F8A890FFF707
:1071400089F99BF81030032B4FEAD91913D0002C82
:1071500040F0A0823FB1337ADF0604D40D9B5B7808
:10716000002B00F09782DBF8103193F89B30002B56
:107170000CBF02230323032B8BF8103040F0A482B2
:107180009BF80F30042B40F08782DBF8103193F826
:10719000A82069F3C71283F8A82002F04BF887E70C
:1071A0000320FDF713FB0028BDD09BF8763173B3A5
:1071B000DBF84031DBF84421934205D19BF8742180
:1071C0009BF87511914222D0DBF844219342AAD05A
:1071D0009BF874319BF875219A42A4D09BF87431C6
:1071E00033B9DBF81031BBF872211B8C9A420ED0F8
:1071F0009BF87431002B96D09BF87431DBF810119A
:107200000BEB4303B3F86C210B8C9A428BD196F8AD
:107210000990B9F1000F00F0DA81DBF8103193F832
:10722000A89019F0100906D002F04AFA00283FF49D
:10723000C9A94FF00109DBF8103193F8A830DC063A
:107240000FD4DBF81041337A94F8A82012F0040F21
:1072500020D113F0030300F0BA81022B47D8012597
:10726000B3E002F04BFA0028EBD103238BF8103087
:1072700001F0E0FF01F0FCFF054600287FF4A2A921
:10728000DBF810013D21FDF7FDFDDBF81001FEF7F5
:107290002DF80BE703F003010329E6D194F91D0053
:1072A000F17A002802F0400215DB22B90229D0D081
:1072B0001129DAD809E08A1ED2B2092AF8D840F298
:1072C000052020FA02F2D007C3D4C24A22FA01F103
:1072D000C907CAD5BDE72AB90229BAD01129C4D82D
:1072E000BD4AF3E78A1E012AB3D90B29F5E7F57ADF
:1072F00006F1080A192D00F27981DFE815F01A006D
:107300007E00B10077017701770177017101BC0040
:10731000D90077017701FF007701D100770177016C
:1073200063017701770177017701770177017701B1
:107330008B0194F91D30002B80F25881717A002066
:10734000FDF7FCF9002800F05181B6F81510638CA8
:10735000CB1A1A0400F1668394F85C3094F85D202F
:107360009A427FF42FA9DBF87C210AB9CBF87C4143
:10737000327B84F87020B6F80D0040F2E2424243BE
:10738000E266307CF27B42EA0022A4F86220B07C04
:10739000727C42EA0022A4F86420F27C307DA4F8DA
:1073A000681042EA0022A4F8662094F8602002F0F7
:1073B000FC026FF3820284F86020013B0122002569
:1073C00084F85E2084F85D30A586DBF8101191F812
:1073D000A83083F0020381F8A830B9F1000F3FF420
:1073E000A3AED1F8B920D1F8BD30013243F100038A
:1073F000C1F8B920C1F8BD3096E694F91D30002BD4
:1074000080F2F480717A0120FDF798F9002800F0ED
:10741000ED80B6F81130628C9B1A1B0400F10283D8
:1074200094F85C2094F85D309A427FF4CBA8052252
:1074300006F10C0104F16100F9F7B4F8737CB27C39
:1074400043EA0223A4F86630022384F85E3094F8FD
:107450005D300025013B84F8605084F85D30B4E76E
:10746000717A0220FDF76AF9002800F0BF80337BB3
:1074700084F89B30ABE094F91D30002B80F2B6808D
:10748000717A0820FDF75AF9002800F0AF805146C4
:107490002046FEF77DFB054600287FF444AE94E7C6
:1074A00094F91D30002BC0F2A180717A0E20E9E71B
:1074B000717A0920FDF742F9002800F09780337BAC
:1074C000727B43F07F4343F47E0343F4435343F022
:1074D000100343EA0223B27B43EA0243D4F88C2030
:1074E000C2F310021340C4F88C3094F8383043F0E3
:1074F000200384F838300023A386B0E6717A0C208C
:10750000FDF71CF9002871D094F8903013F00105B4
:1075100052D13248FBF755FB014600283FF403AE39
:1075200094F8903043F0010384F89030037943F0ED
:1075300003030371062343710C23C37109230372F0
:107540006FF00E034372052383724FF0FF33C37253
:1075500003732046FEF702FB94F8A83043F0800343
:1075600084F8A83001F0B8FE03784570012262F378
:107570000103D4F8EC200370DBB2C2B143F0100376
:107580000370337B84F89130B27B737B43EA022330
:10759000A4F89230F37B327C43EA0223A4F89430BF
:1075A00094F8903043F0020384F890300DE762F3D2
:1075B000041303701546E4E713F0020307D1A38612
:1075C0000125DEE7717A1120FDF7B8F870B10025CA
:1075D000FBE600BF6020020040200200A80400205B
:1075E000717A0720FDF7AAF8002884D19A48FBF7A2
:1075F000E8FA014600283FF496AD0379057243F09E
:1076000003030371022343710723C3712046FEF76E
:1076100077FADCE794F91D30002BE7DB717A19204B
:10762000FDF78CF80028E1D0357B15F001053FF41B
:10763000CCAE94F85C2094F85D309A42C7D1052214
:10764000864904F16100F8F7ADFF012384F860304A
:10765000022384F85E3094F85D30013B84F85D309D
:10766000B5E790F8153113B9022380F815319BF86E
:107670001541DBF81031013CE4B28BF815411D8E49
:10768000B4FA84F464091DB9DA8D1A86A84651E566
:107690000025FBE703236EE501F03CFE0D99DBF8C6
:1076A00010010B7890F8A82062F3C303C2F34002E4
:1076B00062F382030B70FDF76AFB01F0D9FD00282D
:1076C0003FF4F6ACFEF77EBF962001F09DFE002051
:1076D00001F00AFE01F074FFE0E7C27B042A3EF6E7
:1076E00071AFDFE812F09501050050009A009A0092
:1076F000032B09D190F824305D0705D0FDF72CFD50
:1077000001F092FDFEF76FBF01F04EFE9BF81030C6
:10771000032B62D19BF8244014F040045DD10DA9E5
:10772000012001F0A5FB9DF834104D480A23B1FB60
:10773000F3F203FB12120132D2B28DF83420D2B22E
:10774000A2FB0001E82303FB021141A3D3E90023BC
:10775000F8F760FD40F648730693424B0593049496
:1077600083B203940294019400940522214620469A
:10777000FCF7DAF830F002032FD09BF80E30052B1F
:107780002BD0FEF71FBF032B1AD1962001F03CFE31
:10779000002319461A46184601F0B2FDDBF83031D5
:1077A0009BF8352153F82200083001F01DFD01F04F
:1077B000BFFD01238BF8103001F030FDFEF713BF41
:1077C00001F0F2FD9BF81030052B06D10023009349
:1077D000042219461846FCF7F5F800248BF80F40F0
:1077E0008BF810408BF80D4001F08CFE22462146AC
:1077F00020461D4BFBF79EFA044600287EF4E2AEBD
:10780000DBF80000436821465B6898470122114677
:107810002046FBF767FAFEF70ABFD0F810010028F0
:10782000DBD090F89B1009B39BF80F30032B03D0EB
:1078300090F83830DC0719D5FDF724FBDBF8100190
:10784000FDF754FD0023CBF81031C6E7AFF30080FD
:107850008D49FD1A07000000A80400206E040020D6
:107860000010A5D4BD540000582F0020468D9BF871
:107870001471751CADB2002F6BD09BF80F30032B29
:107880005BD101F091FE804601F094FEDBF81071AF
:10789000DFF8A091A8EB0008B86C00F1580AD045B9
:1078A00062A3D3E900233BD8A0FB0901F8F7B2FC9F
:1078B00084B2AAEB08005DA3D3E90023A0FB090171
:1078C000F8F7A8FC83B20022BA643A65D7F8EC2036
:1078D0006AB3527912B997F801210AB100227A8568
:1078E000DBF8102100219185DBF81001028EAAB18E
:1078F000954280F08580521B92B20021062A0286B2
:1079000041857FD99BF80F20032A07D1002E79D11A
:10791000476D7A0817F0010735D14265002735E039
:10792000A8FB0901F8F776FC022384B2CBE797F8AD
:107930003820D207D4D5FA8CD1E741B190F838304D
:1079400043F0010380F8383000231C46C8E70B469B
:10795000FBE7848D84B1A54204D2641B84853C4638
:107960002346C1E73E21FDF78DFADBF81001FDF754
:10797000BDFCCBF8107130E7038E002BF0D1C28D27
:1079800002861C46B0E742F000424265828E1AB180
:10799000954239D2551B858690F85D1090F85C2091
:1079A000914206D090F85E20013A012A9CBF002245
:1079B000428517B9428DB24228D0418D013189B23A
:1079C00024B91BB911B9002F3FF407AF90F820502C
:1079D000154A039107350021EDB2059200930695F3
:1079E00023460497029101912A460846FBF79CFF23
:1079F00030F002033FF4F1AE9BF80E309D42BFE63B
:107A0000082119E70127C1E7222115E73946D7E701
:107A1000043B012B3EF6D6AD00230374FEF707BEF0
:107A2000FDF78DFD282323E5A55400008D49FD1A9F
:107A30000700000000CA9A3BF0B58FB002230993FB
:107A4000FF220023744E754D0A9304460B938DF864
:107A500023200C9309AB02930CAB009301960DAB62
:107A60000DF1230201210020FBF7E8FF02280BD0D3
:107A7000099B6BB1404080F311884FF0040002DF96
:107A800001210020FCF758F8099B022BF8D0EFE702
:107A90009DF82330FF2B04D095F80C210732934238
:107AA000D8DA5A1FD2B2F92A5D4F05D85B4A92F84C
:107AB0000C210732934206DB3B7813B10120FDF71E
:107AC00029F90FB0F0BD0AA9E0B2FDF705F90028C9
:107AD000D0D003684468002BB8BF83689C4238BF8D
:107AE0001C46C3689DF823000BA91C44FDF7F4F85D
:107AF00005460028BED08668436802689E4238BFAB
:107B00001E46002A05DA0C9B22F0004233449B1AE1
:107B10000C930C9A04F1310393420BD23B7813B1CE
:107B20000120FDF7F7F89DF8232001212846FDF7F5
:107B300085F9C6E73A783AB901203A4B38701146D0
:107B4000FBF7F8F8002895D12B68002B15DB9E4237
:107B500013D29B1B00209BB23349059102939DF8E1
:107B60002320069504900390019000900121FBF7DB
:107B7000DBFE30F002037FF47DAF0A9E002EA0D022
:107B80000B9D002D9DD0B38CAA8C9A4299D1274889
:107B900092B2A2FB000140F2231303FB02111CA3CB
:107BA000D3E90023F8F736FB0C9B20F07F4000223E
:107BB000984218D302B10C9396F91D20002A95F92A
:107BC0001D2013DA002AFFF67CAF14349C427FF6A6
:107BD00078AF3046FCF716FE02287FF472AF0B98A0
:107BE000FCF710FE6DE71B1A0122E1E7002ABFF641
:107BF00068AF14349C427FF664AF2846FCF702FE5F
:107C000002287FF45EAF0A98EAE700BFAFF3008076
:107C10008D49FD1A07000000794700005803002035
:107C20005C050020D82F00207D4700000054CE09BD
:107C3000F7B51C46494BDA7B074602F0FF061D46A6
:107C40002AB1404080F311884FF0040002DF1B7B13
:107C5000228CDBB207329342F3D1042285F81461FF
:107C600085F81561DBB2EA732E736B73238DC5F84B
:107C7000104102206385268528746F60FDF7E8FABD
:107C800001A92046FEF7E6FB019994F8A8200B789D
:107C900062F3C303C2F3400262F382030B70204617
:107CA000FEF7FEFA962001F0AFFB304601F01CFB18
:107CB00001992046FDF76BF8637F13F0400F04F144
:107CC000170221D0608CE18B013803F03F0380B2B2
:107CD000FDF756FEFDF721FAAA6807F10901012018
:107CE00001F09EFB01F06CFC94F8201007313A463D
:107CF000C9B22046FDF788FE034628B304232B743F
:107D000001F098FA03B0F0BD618DA67F01FB066615
:107D1000E17F25200E4496FBF0F100FB1166F0B2E6
:107D2000C108E077515C06F0070641FA06F6F10754
:107D300003F03F03CED4B0FBF3F103FB1101C9B252
:107D40001046FCF727FDC5E7054A0146FBF7B8FEDC
:107D500030F002037FF475AFD4E700BF5803002072
:107D6000C14C00002DE9F0413B4D099C9DF818C025
:107D7000BDF82860BDF81C8028604FF4827000FBBD
:107D8000024085F81C11C5F80441A1190CF1010449
:107D9000E7B208F10304282C03F1030E5FFA8EFE0C
:107DA000A5F8288188BF08F10E0885F848E18CBF46
:107DB00028F003080EEB4E0E03F104030CF1020C45
:107DC000DBB28CBF18FB0EFE4FEA0E1E5FFA8CFC76
:107DD000A5F82AE185F868C1C5F830014FEACC0C56
:107DE00000EB8300B5F82A41C5F8600160444FF00C
:107DF000300EC5F864016044A5F82CE1C5F82001F7
:107E0000B4FBFEFE20449C18C5F8380100EBC4000A
:107E1000BDF82040C5F84C010A3424F00304483072
:107E2000A4B2A5F85C4107FB0404641A85F80C2190
:107E300085F8343185F82EE1C5F8540103D0344477
:107E40002046BDE8F081012385F87631FDF71EFD5F
:107E500001F01AF9F4E700BF5803002038B50321F8
:107E60000520FCF763FD04210620FCF75FFD224C92
:107E7000002594F80C21ABB29A4205F1010534D8E3
:107E800094F824306FF3C71384F8243094F8DC306E
:107E9000002060F3000384F8DC303022B4F82A318B
:107EA000B3FBF2F384F82E3194F8343184F83501C1
:107EB000013B84F8690184F86C0184F8483194F836
:107EC0007431C4F8C800C4F8FC00A4F82C2184F86C
:107ED000360184F86A0184F86B0184F8753100F08A
:107EE000A9FEBDE83840FDF7D1BCA81DFF21C0B2F6
:107EF000FCF71CFDBDE700BF580300200048704799
:107F00007E03002000487047CE030020024B93F808
:107F10002400C009704700BF58030020044B93F9A8
:107F20002420002ABABF93F825008009002070475A
:107F300058030020094A92F8DC3092F8DD00D2F8AC
:107F4000FC20C0F3C000002A03F0010303FA00F391
:107F500014BF042000201843704700BF58030020BE
:107F6000054B93F8DC0010F001001CBF93F8DD0016
:107F7000C0F30110704700BF5803002010B514462D
:107F8000FCF7BEFC10B10020207010BD012010BD18
:107F90002DE9F341054608461849D1F84031D1F89A
:107FA000442193420F461FD0D3F8048001F26B1195
:107FB00098F80020FCF75AFC0446E0B902AE97F8A6
:107FC0006B3106F8033D97F86C2131460DF1060040
:107FD000FCF74CFC34B928B9C5F80080204602B043
:107FE000BDE8F0810446EEE791F86C2101F26B11D7
:107FF000FCF73CFC044600232B60EFE7580300200D
:108000002DE9F041164C05460068A4F59276A4F1DE
:108010001C0720B92860BDE8F041FDF7EDBB0279EF
:10802000D0F800800A2A07D80123934040F27E72DC
:10803000134207D11B060AD4404080F311884FF049
:10804000040002DF2146FAF7D6FD4046E1E7C28888
:10805000D6F804014FF48271FAF7E2FD3946F2E7EF
:108060007C040020914210B5144B19D1D3F844215F
:10807000D3F84041944211D1002914BF0A4603228B
:10808000013AD2B203EB420483F8752193F87421CC
:10809000A4F86E0191420FD083F87511012010BD34
:1080A00029B9B3F87231181A18BF012010BD03EBBB
:1080B0004103B3F86C31F6E7002010BD58030020EF
:1080C00030B4144B93F876210D4602B393F8742123
:1080D000D1B293F8752135B14FF6FF73984216D09F
:1080E00030BCFFF7BFBFD3F84001D3F84441A042F2
:1080F0000DD191420BD0D3F8444183F87511A042C1
:1081000005D093F87401814208BF83F875210020DF
:1081100030BC70475803002070470000000000008A
:108120002DE9F04FDFF8E8B28FB0994602230D93A6
:108130009BF924308DF82F20002B824688465D461F
:1081400001DA0C204EE19BF875202623272717FB28
:1081500002371BF8073003F00F03012B00F2F88001
:10816000DBF8C860002EECD10BF59E70FAF729FD04
:108170000A9058B10BF58470FAF723FD0A9A044669
:1081800030B90BF59E711046FAF735FD072029E14D
:108190004FF6FF730384984BC0F88C30437FC6774B
:1081A00066F3861363F07F0343770623838590F895
:1081B0003830468466F3451366F3000366F34103E3
:1081C00080F8383090F89030068566F3000366F347
:1081D000410380F8903090F8A830468566F300039C
:1081E00066F3410366F3820366F3C30366F3041385
:1081F00066F3451366F3861366F3C7134664866415
:1082000086650686868680F85C6080F85D6080F80A
:10821000986080F8996080F89B60C0F89C2080F896
:10822000A830C0F8EC60C0F8F060C0F8F460C0F8A6
:10823000F860C0F8FC6080F8006180F80161CBF85C
:10824000C8000EA895F8253010F8092D6AF302032E
:1082500062F3C50369F3871385F82530D5F87831C3
:10826000AB6127236B6101210023EB61FAF742FE2A
:108270001BF8076006F00F06012E6BD14FF4277331
:10828000584300F59C705D4959A3D3E90023A0FB36
:108290000101F7F7BFFFAF696B6928629F4238BFE2
:1082A0001F46B8F1000F5DD1721E5342534195F83D
:1082B0002460DFF86091DFF860B163F3861685F81B
:1082C000246016F040060DF1340A53D0FBF74AFC47
:1082D0002B6ACDF820A01F4406460020CDF81C9044
:1082E0000690CDF814B00497039002908DE88100B9
:1082F000334605220321FBF7C7FA022836D00D9832
:10830000C8B902230D933E4B059303224AF2FE3374
:108310000093CDF820A0CDF81C9006900490039017
:108320000290019033461146FBF7AEFA022846D080
:108330000D98002847D0002C3FF403AFD4F89C00E0
:108340003049FAF758FC30492046FAF754FCF8E671
:10835000002476E7022E0CBF4FF4297340F2FC5341
:10836000584390E70023A2E7FCF7E4F90D9B022BAA
:10837000FAD0C4E7FBF7F6FBCDF820A0CDF81C90AF
:108380000696CDF814B02B6A0A90204803961FFA7F
:1083900088F81F44A8FB0001912303FB081114A3D4
:1083A000D3E9002304970296F7F734FF0096019073
:1083B0000A9B052203213046B6E7FCF7BBF90D9B6B
:1083C000022BFAD0B4E795F8243043F0800385F807
:1083D000243095F8DC3013F0010403D10120FFF7BD
:1083E0009BFE20460FB0BDE8F08F00BFAFF30080CA
:1083F0008D49FD1A070000000C40010000CA9A3B9D
:10840000C95700009404002060040020002AE7847B
:1084100058030020794700009157000070B50321F0
:108420000520FCF783FA0546E8B9104C94F824209F
:1084300060F3C71284F8242094F8DC20D30701D419
:10844000FFF76AFED4F8C8605EB10023C4F8C830F4
:108450000749D6F89C00FAF7CEFB06493046FAF7F2
:10846000CAFB284670BD0C25FBE700BF580300205F
:10847000940400206004002037B5344D02AA002384
:1084800042F8043DD5F8440105F5A071FAF7F1FB77
:108490002C4628B9404080F311884FF0040002DFD9
:1084A00005F59E71FAF7A7FB019A11790A29F1D80F
:1084B00001238B4040F27E70034211D11806E9D5AA
:1084C000062934D1D37A3C2B15D0127B8ABB94F881
:1084D000DC30D907DED562F3000384F8DC301AE023
:1084E00095F8340195F8483101388342D2DA0133E6
:1084F00085F84831E4E70023D4F8C850C4F8C83000
:1085000094F92430002BC5DA94F824306FF3C713A4
:1085100084F824307DB994F8DC0094F8243000F01D
:108520000100400050EAD31001D1FFF7F5FD03B080
:1085300030BD0025E4E7D5F89C000549FAF75BFB60
:1085400004492846FAF757FBE5E700BF5803002027
:10855000940400206004002038B50B4CD4F840216E
:10856000D4F8445122B10020C4F84001FBF77AF955
:108570002DB10023C4F844310120FBF773F900202A
:10858000BDE83840FAF724BC00B000400120FAF7FB
:108590001FBC00F075BC684620F007018D4601B590
:1085A00000F056FDF8F74CFFF8F740FDBDE801403C
:1085B0008546704770470000014B186801F098BF6E
:1085C000180B002070B53D4B86B0186004220921BD
:1085D0003B4800F035FC3B480C22112100F038FCF0
:1085E000394801F065FA18B96FF0120006B070BD95
:1085F000436801211B68984700F028FBFAF748FB05
:10860000324B08221A7003221A720020304A187462
:1086100002261E7605922F4A04922F4A03920D25B8
:108620002E4A02928DE828002D4A04230721FBF7E9
:10863000E1F8044628B1404080F311884FF004006F
:1086400002DF284801F034FA0028CDD04FF4F87347
:108650000493254B03931B23029301932246009618
:1086600001230721FFF77EFB044620BB012000F019
:10867000E1FA224621460120F8F7C8FE22462146AB
:108680000B20F8F7C3FE224621461820F8F7BEFE5D
:10869000224601212846F8F7B9FE0120F8F784FEAA
:1086A0000B20F8F781FE1820F8F77EFE2846F8F731
:1086B0007BFE20469AE76FF00B0097E7180B00202F
:1086C000F80A0020040B002004B30000D80A0020A0
:1086D0007998000001980000E197000068080020E8
:1086E000500700200FB30000600500202DE9F04F77
:1086F00085B0994600238DF8083006234FF0010A13
:108700008DF80A304FF0020B07230D461446139ED6
:108710009DF850708DF809A08DF80BB08DF80CA065
:108720008DF80D30FFF7F2FB8046002840F0D9802D
:108730006F490B78B9F1040F6AF347130B706CD9CA
:1087400015F0100F05F0030313D003228DF8042059
:1087500004228DF8052004AA13448DF806B08DF884
:10876000070013F80C9C2B0757D5D14600234B600C
:108770000EE0032B00F0B88005F00C030C2B00F08A
:10878000B3800B7867F347130B704FF005094C600B
:108790000B789DF8442062F302039DF8482062F3B1
:1087A000C4030B70FFF7AAFB90F84F2002EB820383
:1087B000C2EBC30204AB9944835C19F8081C9DF812
:1087C000389061F303036FF304138354DBB203F0B7
:1087D0000F01012994BF43F020036FF34513835425
:1087E000835C09F0010969F386136FF3C71383549F
:1087F000DBB203F00F01012900EB020411D19DF857
:108800003C1061F3C71383541099062204F1080049
:10881000F7F7C8FE0C23637040E0B9F1010FB6D141
:10882000A4E7072958D1A17801F0C00165F38711A9
:10883000A170A8064FF0000104F1020304F1040244
:10884000E17009D4A17811F0C00F05D1042F1EBF2B
:108850000122E27004F10A02690644BFE1780132A4
:10886000A2EB030348BF41F04001DBB248BFE17017
:10887000022B8ABFA178012303F1FF306370E378F4
:1088800084BF60F30501A1705B0607D516B333788A
:108890007F2B01D10023337002F8013CFFF732FB3C
:1088A00090F84F2002EB8203C2EBC3020424835CE6
:1088B00064F3030303F0CF0369F386136FF3C71365
:1088C000811883544B780BB906234B70404605B092
:1088D000BDE8F08F3346DFE76378002BDED1062357
:1088E00099E74FF00C08F1E74FF01208EEE700BFF0
:1088F0001C0B00202DE9F0410F460646FFF7FEFA5B
:1089000090F84F5005EB8502C5EBC202044610F803
:1089100002E00EF00F03012B00EB020140D0072B09
:108920003ED090F84E30AB4204D10135EDB2022D6D
:1089300008BF002505EB8503C5EBC30304EB030863
:10894000E05C6EF303006FF30410E054A05C14F8D5
:1089500003E0C0F3401060F3451E04F803E0A05CA0
:108960005FFA8EFEC0F3801060F3861E04F803E009
:10897000A25C5FFA8EF0D20962F3C710E0540622BF
:10898000023108F10200F7F70DFE3246394608F1D0
:1089900008000636F7F706FE88F8016084F84F50A5
:1089A000BDE8F0812DE9F04106460F46FFF7AAFA2F
:1089B00090F84F3090F84E209A42044636D15D1C14
:1089C000EDB2022D08BF002503EB8302C3EBC20208
:1089D0002BB203EB8300C3EBC0034FF0040EE05C4B
:1089E0006EF3030000F0EF006FF34510E054A05C5D
:1089F000A118E25CC0F3801060F3861204EB030858
:108A00006FF3C712E254B31D88F801300622023119
:108A100008F10200F7F7C6FD3246394608F10800B2
:108A2000F7F7C0FD84F84F50BDE8F0811D46CBE755
:108A30002DE9F74320B903B0BDE8F043FFF7EEBCE2
:108A4000FFF764FA074600284ED1FFF757FA804631
:108A5000FFF758FA98F84F4004EB8403C4EBC304C3
:108A6000064618F8040000F00F03072B08EB040972
:108A70001DD199F80330DB070AD53946C0F38010C1
:108A8000FBF776F80622014609F10400F7F78AFDA4
:108A9000164B18789988FF23009300F00702C0F363
:108AA000C1034009FFF73CFB03B0BDE8F083394642
:108AB000C0F3801096F84F50FBF75AF80622014693
:108AC00009F10200F7F76EFD18F804003946C0F30B
:108AD0008010FBF74DF805EB8503C5EBC305354466
:108AE00001460622A81CD1E70020DDE71C0B002070
:108AF00028B9404080F311884FF0040002DF01489C
:108B0000704700BF240B00200820704710B5FFF706
:108B100005FA044610B10C24204610BDFFF720FAD8
:108B2000C307F8D4024B1C705C70024B1C70F3E757
:108B3000240B00207C14002070B50446FFF7EEF9EA
:108B4000054610B10C25284670BDFFF709FAC3078A
:108B5000F8D42378FF2B03D1114B01221A70F2E7CE
:108B600010490A78FF2A18D0284622FA00F6F6079C
:108B700011D40126864032430A7003F001034A787B
:108B800083401343062202FB00104B700230611C2D
:108B9000F7F708FDD7E70130E7E70725D3E700BF80
:108BA0007C140020240B00202DE9F8430746FFF732
:108BB000B5F9064618B10C263046BDE8F883FFF734
:108BC000CFF9C107F7D497F80080B8F1FF0F02D1B1
:108BD000164B1E70F0E7164C237833B10825013789
:108BE0004FF0060915F1FF3501D21226E4E723788C
:108BF000EB40DA07F6D563782B4183EA0803DB07FD
:108C0000F0D409FB0540062239460230F7F7B5FCDF
:108C10000028E7D10123AB402278DB43DBB21A40C6
:108C20002270627813406370C6E700BF7C14002096
:108C3000240B0020034A00231370034A137053705F
:108C4000704700BF7C140020240B0020054B00223D
:108C5000C3F808254FF44032C3F84423C3F8042373
:108C6000704700BF00B00040044A1378591C1170CF
:108C7000012013B9024A106018467047560B0020B5
:108C800000B00040094B187828B9404080F31188A3
:108C90004FF0040002DF0138C0B21870012310B990
:108CA000034A536070471846704700BF560B0020B8
:108CB00000B00040014BD3F80405704700B00040FD
:108CC00000F5A870014B43F82010704700B0004039
:108CD00030B5D0B1C27805788478531CDBB2AB4292
:108CE00008BF0023A34210D061B10A490244D1F861
:108CF00008151171C3700133DBB29D4208BF002318
:108D0000A34205D06FF00F0030BD6FF0360030BDCC
:108D1000002030BD00D000402DE9F041064628B9C2
:108D2000404080F311884FF0040002DF8478C3785C
:108D3000271D9C420A44074421D81B1BDBB29942E1
:108D40003FBFC8B21B1A5FFA83FE03461C44A1EB67
:108D5000030028BF4FF0000EE4B215463B449F428B
:108D600008D17378B470734582BF204B01221A601A
:108D7000BDE8F08117F8012B05F8012DEFE7057824
:108D80002D1BEDB2A94228D2C8B2A3EB000E754448
:108D900004445FFA85FEE4B20546481B07EB050C68
:108DA000114667451CD1551B0028DAD0002BD8D0BE
:108DB00098423ABFC4B21B1B1C4606F1040234BFE2
:108DC0005FFA83FE4FF0000E001B13199A42C8D0C1
:108DD00012F8011B05F8011DF8E79E460024DCE7A8
:108DE00017F8018B01F8018DDBE700BF00D00040D0
:108DF00010B51C1DA24205D8404080F311884FF0E9
:108E0000040002DF01604B700023CB708B70043ACA
:108E1000084B0A701B6813B1074B1B684BB9074B13
:108E200001220021C3F80425C3F80011C3F804236C
:108E30001A6010BD580B00205C0B002000D00040D1
:108E400013460A4601460148FFF7D2BF5C0B0020DB
:108E500013460A4601460148FFF7CABF580B0020D7
:108E6000024B0A4601461868FFF756BF5C0B00200C
:108E7000024B0A4601461868FFF74EBF580B002008
:108E800008B50E4BD3F80031BBB10D4B012118686A
:108E9000FFF71EFF10F1100F07D00A4B373014BF39
:108EA000002101211868FFF713FF044B0022103046
:108EB000C3F800211CBF01225A6008BD00D0004049
:108EC000580B00205C0B0020114B70B501210025D0
:108ED0001A465960C3F80405C3F80051C3F8045199
:108EE0001960D3F8004134B9D3F804411CB9D3F860
:108EF0000445002CF5D15160D2F80441002CE8D192
:108F0000D2F80465002EE4D0C2F8044570BD00BF5D
:108F100000E0004070B58CB00E46154601461022A8
:108F200068461C46F9F784FE10220DEB020031461C
:108F3000F9F77EFE6846FFF7C7FF25B1102208A9A2
:108F40002846F9F775FE24B1102208A92046F7F744
:108F500029FB0CB070BD0000074B084AC3F8102570
:108F60000749084A002814BF104608460122C3F8E2
:108F70001405C3F80425704700F00140408100400B
:108F80000410004000100040F0B52C4E2C4F3578F6
:108F90002C4BC7F860352BB2DC0004F1804404F59B
:108FA000F834C7F8644505F10B04E4B2E400A7F512
:108FB000AF3704F18044C03F04F5F83407EB830772
:108FC000C4F81075002834D04AF25A0749F64040D8
:108FD000022A0CBF02463A4642F2B84741F24A50D2
:108FE000022918BF384602F5FA7101444FF47A722B
:108FF000B1FBF2F1144AC4F814259B0003F180433D
:1090000003F51043D3F840258A428BBFD3F840259F
:109010000122511AC3F8402588BFC3F84015084BF8
:109020004FF49062C3F804256B1C03F00103337006
:10903000F0BD064AC4F814252D21DEE77C0D002082
:1090400000F001400C1100400010004004100040EE
:10905000024B1B6803B11847704700BF780D002012
:10906000064B1860064B1022C3F80423054B02225E
:10907000C3F880210120F8F797B900BF780D0020D0
:109080000010004000E100E04FF080434FF0FF325D
:109090000021C3F8002EC3F8042EC3F8081EC3F83D
:1090A0000C2EC3F8101EC3F8142EC3F8182EC3F8E4
:1090B0001C2EC3F8202EC3F8242EC3F8282EC3F884
:1090C0002C2EC3F8302EC3F8342E704708B501207B
:1090D000F8F77AF9084B0022C3F8FC2F0122C3F8F5
:1090E000FC2F064A136823F0807323F0010343F03A
:1090F0008073136008BD00BF00100040741700406B
:10910000064B02280CBF04220322C3F81025D3F813
:10911000502642F00102C3F850267047001000406C
:10912000014BC3F80C05704700100040014BC3F819
:109130000805704700100040074BC3F85405D3F8EA
:10914000182522F00072C3F81825D3F8182542F02C
:109150000072C3F818257047001000400A4A002327
:10916000C2F82C350123C2F83035C378C2F8243553
:10917000437881781B0443EA0163017843EA0123C1
:10918000C2F81C35704700BF00100040C2F3420314
:10919000022B10B50CBF4FF080740024D307C0F130
:1091A00008034FEA034300F00F0040F4807003F41B
:1091B00070230B4A43EA000348BF44F4801423435E
:1091C000C2F81435D2F81805064B0340C2F818351A
:1091D000D2F8183543F440331943C2F8181510BDBE
:1091E000001000400000F8FE014BC3F80405704772
:1091F00000100040014BC3F8040570470010004008
:1092000002280CBF28202920704701207047292000
:10921000704702280CBF06200A207047014B01222C
:109220005A60704700100040014B01221A607047DD
:1092300000100040074A4FF49063C2F8083501233C
:109240005360D360A2F5F0320021C2F8001213611E
:10925000704700BF00F00140044B0022C3F800211A
:10926000C3F80C21C3F81021704700BF0010004064
:10927000034BD3F80001003018BF0120704700BF36
:1092800000100040034BD3F80C01003018BF012040
:10929000704700BF00100040034BD3F85005B0FAF0
:1092A00080F04009704700BF00100040044B40F2BE
:1092B0000312C3F83425C3F83805C3F83C157047CA
:1092C00000100040034BD3F80004003018BF012009
:1092D000704700BF00100040004870476C0C002031
:1092E00000487047700C0020044B03220021C3F893
:1092F000002202460846FFF747BE00BF00100040AC
:10930000034B0321C3F8001201460120FFF73CBEC6
:1093100000100040054B0322C3F8002203F5F03390
:109320004FF49062C3F80825704700BF001000405A
:10933000034AD2F8003243F48873C2F8003270470F
:1093400000100040014BD3F8480570470010004062
:10935000024B0022C3F81C21704700BF00100040E0
:10936000034BD3F81C01003018BF0120704700BF29
:109370000010004030B50024A30003F1804303F542
:1093800080531568C3F8005601349588C3F82056F9
:10939000082C02F10602EFD1024B40EA0120C3F88B
:1093A000400630BD00100040034AD2F8403623F09A
:1093B000FF03C2F84036704700100040024B002205
:1093C000C3F81421704700BF00100040034BD3F8CE
:1093D0001401003018BF0120704700BF001000408A
:1093E000014BD3F81004704700100040054B4FF4B8
:1093F0008022C3F8482303F5A0337F22C3F8082551
:10940000704700BF00B00040034B044A1B7803F5CF
:10941000A87342F8230070477C0D002000900040A4
:109420002DE9F041A2F57423304C314DA3F51073B2
:10943000A34288BF02F1E8722E4B2F4C82BF02F587
:10944000D43201F1FF3102F5A5720126B2FBF5F528
:10945000002702224FF00408DE60C3F80475C3F849
:109460001085C3F80825C3F84055C4F848154FF4D3
:109470008021C4F8441304F5A0342049C4F8181519
:10948000C4F81C35C4F80425FFF766FD1C4BDE60EC
:10949000C3F80475C3F81085C3F808751E60A3F5FA
:1094A000FD43743BC4F8483503F5FE43C4F84C351E
:1094B00003F59A73C4F8503503F5AF33C433C4F8D9
:1094C0005435A3F5AF33C03BC4F8583503F5AF337B
:1094D000C833C4F85C354FF41063C4F800384FF457
:1094E0009053C4F804382846BDE8F081BFBDF07F32
:1094F00040420F000080004000B0004048B10040F2
:1095000000900040044A01235360136102F5805229
:1095100053601361704700BF008000400C4B0D4A40
:10952000C3F8440503F5B833C3F8282502F5DE4235
:109530004032C3F82C2502F58072C3F83025A2F51D
:10954000E242343AC3F834251822C3F804257047A0
:1095500000800040041100400B4B0C4AC3F820254A
:1095600002F5DE424032C3F82425A2F5DE423C3A41
:10957000C3F8282502F5DE424032C3F82C250C2220
:10958000C3F80425704700BF00F0014000110040FF
:10959000014BD3F84405704700800040014B186030
:1095A000704700BF740D0020014B1868704700BF62
:1095B000740D0020014BD3F8400570470080004037
:1095C000064B074AC3F8382502F5DE423C32C3F8A1
:1095D0003C252022C3F80425704700BF00F001405D
:1095E0000C110040014BD3F8480570470080004043
:1095F000014BD3F84805704700800040164B70B50A
:1096000000240225C3F80045144EC3F80055144D3C
:1096100002290CBF29463146C3F80415C3F80805D2
:109620001048C3F80C05C3F810250F4AC3F81425D9
:109630000E490F4AC3F80042C3F80441C3F8084179
:10964000C2F8401501F55F41C2F844154021C2F847
:10965000041501221A6070BD00F0004001000001F5
:1096600001000101700C0020600B0020041100407B
:1096700000F0014010B50E4B00220224C3F8002573
:10968000C3F800450B4CC3F80445C3F80805C3F8FC
:109690000C1509480949C3F81005C3F81415012130
:1096A000C3F80012C3F80421C3F80821196010BDE3
:1096B00000F0004000000101700C0020600B002051
:1096C0000C4B0222C3F80423D3F804216AB102220E
:1096D000C3F80823084A4FF40041C2F88011D3F8B8
:1096E0000801B0FA80F04009704720BF40BF20BF9A
:1096F000EAE700BF00F0004000E100E0034BD3F8D0
:109700000004003018BF0120704700BF00F0004087
:10971000014BD3F80004704700F00040044A0023D6
:10972000C2F8283102F56042C2F80035704700BF28
:1097300000100040084BD3F8280160B103F56043E6
:10974000D3F8000138B1D3F8040120B1D3F80801EF
:10975000B0FA80F04009704700100040012905D0A0
:10976000404080F311884FF0040002DF18200AB156
:10977000F7F71ABEF7F728BE39B1012908D04040E3
:1097800080F311884FF0040002DF0B20F7F730BEA2
:109790001820FBE788420AD018B94B1E584258419E
:1097A0007047012805D1B1FA81F0400970470120C6
:1097B0007047002070470000084B39B101290AD0DA
:1097C000404080F311884FF0040002DF4FF4006244
:1097D000C3F8002170474FF08072F9E700E100E024
:1097E000032805D9404080F311884FF0040002DFC0
:1097F000024B185C0028F5D0704700BF6AB4000027
:10980000023810B41C46032816D8DFE800F0020B1B
:109810001124032910D1134B00219C60002010BC9F
:10982000F9F788BA042907D10F4B01219C60F5E7AD
:10983000032907D004290AD0404080F311884FF053
:10984000040002DF094B00219C600120E7E7084B80
:1098500001219C60F9E70429EED1064B01219C60AF
:109860000320DCE73830002048300020583000204A
:10987000683000207830002001460020FFF720BA31
:1098800070470000014B03EB40107047503100203F
:109890008279044B03EB4213DB69C01A024BC01000
:1098A0005843704750310020ABAAAAAA10B5094B03
:1098B000827903EB42130A689B695C6823689A42C9
:1098C00094BF0A600B60FFF7E3FF94E80C0002FB13
:1098D000003010BD503100202DE9F34105460191C3
:1098E000164600F083FE07464FF02003EFF3118881
:1098F00083F311886B8A002B3DD02A8A9A422AD999
:109900000021284600F0A5FB044620B388F3118807
:10991000019B002B3CD0731C012B06D900F066FE86
:10992000C01BB04294BF361AB61BA3791E4F07EB7B
:10993000431332469B691B6801A91B682046984760
:109940000546206128BBA079214607EB401000F0B6
:1099500060FB2C4618E06B8A5A1E6A8288F31188D5
:109960002C8AE41AEB69182202FB04340E4BED1A20
:109970006D11A571CCE788F311883146284600F0B7
:1099800068FB04460028C3D1204602B0BDE8F08140
:10999000236101232371002323606371019AA38152
:1099A0002369E281A360EFE75031002083695B689F
:1099B0000A461968FFF790BF836819440160704731
:1099C00010B40A46146814B910BC00F026BB5379D1
:1099D00043F0010353712246F4E70000F8B5154D3A
:1099E0000446002604B9F8BD23792768013BDBB2A1
:1099F0002371002BF7D1216959B163799B0707D4F3
:109A0000A37905EB431320469B691B689B68984725
:109A10002661A079A66005EB401326605B691BB147
:109A2000204698473C46DDE7214605EB401000F014
:109A3000F0FAF7E7503100200379013303717047E2
:109A40008388026819448180D018704730B48388B5
:109A500004689D188580E01830BCF6F7A3BD8388A4
:109A60005B1A83800368194401600846704708B593
:109A7000036801211A78FFF7F2FF104608BD02685B
:109A80008068101A7047000038B5084B53F8204022
:109A9000013053F820502046A84204F10C0400D3B2
:109AA00038BD54F80C3C5B689847F4E77CB4000080
:109AB000104B70B5104C05461E469C4204D10E4C0E
:109AC000B44209D1002412E062681AB12268126817
:109AD000AA420CD00C34F0E763680BB90C34EFE702
:109AE000236828461968F6F73BFD0028F6D1204682
:109AF00070BD00BF1431002090300020431C03D003
:109B0000034B1B68984201DBF8F772BB704700BF3C
:109B1000883000200F4D80B50F4F05F110064FF033
:109B20002002EFF3118382F311882B69B3420AD02C
:109B30004BB11C69631C08D03B68A34205DDAC61D6
:109B4000F7F7BAFCEBE74FF0FF342046F8F73CFBA1
:109B5000F5E700BF780E0020883000200248034A55
:109B60000021121AF6F74ABD000000200815002057
:109B70000248034A0349121AF6F714BD002E0020CA
:109B800090310020E0B4000008B50220FFF77CFF10
:109B900008490948F7F762FF0320FFF775FF00F057
:109BA0000DFFF6F75DFD054A137A23F001031372EA
:109BB00008BD00BF98B40000B4B40000100E00202F
:109BC00080B586B0324E06AFF7F746FA24239A19CD
:109BD0009A510833B3F5927F5260F8D12D4DDFF8DA
:109BE000DC80F56100244FF0010943464FF48062A8
:109BF0002949CDF8109028460394029401940094CA
:109C000000F094FE6B7A284623F004036B7200F098
:109C100067FA0F2303932149CDF810900294019421
:109C200000941F4B1F484FF4A07200F07FFE1D4BA5
:109C30001C4A5B7A23F004035372104600F050FA7A
:109C4000194B33617361194B83F30888184BE02279
:109C500083F82220DC771C765C769C765A6A42F484
:109C6000E0225A62F7F798FBF7F720FC2046FFF74F
:109C70000BFF4846FFF708FF0E4BB56023F00703C4
:109C80000D4A83F30988002181F31188404610476B
:109C9000780E0020100E0020C01C0020C0200020E4
:109CA000159B0000A80D0020880E0020002A00202F
:109CB00000ED00E0C0200020C5A80000899B000046
:109CC00010B5C47AC0688C424FF00C04B6BF614333
:109CD00004FB01014158202492FBF4F401EB8401C0
:109CE000196002F01F0010BD07B501ABFFF7E8FFD8
:109CF000019A012303FA00F013680343136003B0D1
:109D00005DF804FB2DE9F84F304C314E0C27A4F1DF
:109D10001005B54202D30020BDE8F88F54F80C3C82
:109D200034F808EC54F8100C246003FB0EFE704469
:109D3000646000214FF0200C14F8062C914207DBE0
:109D40004FF0000834F8083C984524DB1834DEE76F
:109D500054F804ACBEFBF3F207FB01F91F2A0AEB2F
:109D600009084FEA930308F1040BC8BF1F3203F13F
:109D70000303C8F804B0C8F808B0CABF92FBFCF2ED
:109D800004F8051C4AF8090023F00303C8BF00EBE0
:109D900082000131D0E754F80C2C54F8043C54F8FC
:109DA000100C02FB08F203F1040E40F802E08118E7
:109DB0009A684A609A682846116099604246002174
:109DC000FFF792FF08F10108BCE700BF2431002033
:109DD0001431002038B590F90A308B4204460D4604
:109DE0000ED0437ADB060AD1036A013307D100F0B3
:109DF000FBF9A5722046BDE8384000F071B9A572A4
:109E000038BD000070B5304A0D469168CB7A013BF1
:109E10000446CB72C36811464BB180689268904289
:109E200011D095B900F086FA6FF00F0070BD9268FE
:109E300092F90A2022610133E3608B68A36000F08D
:109E400079FA002070BD2269F4E792F90A1090F9BE
:109E50000A309942A8BF194621EAE1714FF0200368
:109E6000EFF3118683F31188A06890F90A309942C4
:109E700001DAFFF7AFFF2046294600F01BFA00F099
:109E800003FB3046F7F734F90028D8D0236821695E
:109E90009C4208BF002333B193F90A309942A8BF0E
:109EA000194621EAE1714FF02003EFF3118583F3A6
:109EB0001188A068FFF78EFF85F3118800F03AFA49
:109EC0006FF00A0070BD00BF780E0020F8B5344E68
:109ED000B268D37A013B0546D372C368013BC360C5
:109EE0001BB1BDE8F84000F025BA4FF02003EFF3B6
:109EF000118783F3118801698068FFF76BFF294B95
:109F00002C681B6883B1A54208BF002424B987F3DD
:109F100011880023AB60E4E7236A023308D16B6841
:109F20009C42F4D02468F1E7A542F0D0002CEED09A
:109F300094E80C001A6022685360637A216A23F067
:109F4000020363724B1C04F110020ED073699A4233
:109F50001FBF226913695B181361636922691A6064
:109F6000226953604FF0FF332362637A23F00402C7
:109F700013F01B0F627202D1236A01330BD087F3F7
:109F8000118800236366EB68AC600133EB6094F9E1
:109F90000A302B61A5E7204600F0A2F8EFE700BFEA
:109FA000780E00208014002000230360436000F13D
:109FB00008038360C360704710B54FF02003EFF3D0
:109FC000118483F3118831B9036813604368026018
:109FD00043B9426006E00B6813608BB943686BB904
:109FE000426002600421083000F0EAFE50B100F047
:109FF0004BFA2046BDE81040F7F77AB81A60E8E758
:10A000000A60EFE784F3118810BD0A464168FFF744
:10A01000D3BF0A460021FFF7CFBF10B54FF0200392
:10A02000EFF3118483F3118843686BB901604260D8
:10A030000421083000F0C4FE40B100F025FA2046AB
:10A04000BDE81040F7F754B81960F0E784F31188C1
:10A0500010BD30B5044687B00D464FF02002EFF337
:10A06000118382F31188026852B11168016040685F
:10A07000824208BF616083F31188104607B030BD8B
:10A0800019B983F311880022F7E783F311880421BB
:10A0900003460DEB010000F0DBFD9DF811302A4670
:10A0A0006FF30713012101A88DF8113000F0E4FDD2
:10A0B0000028E8D14FF02003EFF3118183F31188DA
:10A0C00022682AB1606813682360824208BF636017
:10A0D00081F31188002AD0D16B1CDED0D3E70000B9
:10A0E00030B590F90A30114903F1100462110632BB
:10A0F00001EB820204F01F050124AC409568143383
:10A100002C43DB0094601A1D0A440B4402609A68D9
:10A1100042609A6810609860CB6990F90A4093F9A0
:10A120000A209442A8BF1846C86130BD780E0020AE
:10A13000427A22F0040112F01B0F417204D1036A2B
:10A14000013301D1FFF7CCBF7047000070B50B6140
:10A150008860CA6013BB4FF02002EFF3118482F3D2
:10A1600011884FF0FF320A6180B1CA684AB190E8A5
:10A170000600116001684A60427AC36122F002025F
:10A180004272FFF7D5FF84F3118870BD84F3118804
:10A190004B692BB30846BDE870401847114A10467A
:10A1A00050F8103F83420CD1086053694B605369EB
:10A1B0001960516170BD641B0C615469A342F3D0F6
:10A1C0001B68002BF0D00C691D69AC42F3DC5A68A7
:10A1D0002C1B1C614A600B605A681160596070BD8D
:10A1E00070BD00BF780E002090E80A0010B590F90D
:10A1F0000A201960016814324B60144BD200111D03
:10A200001A44194452688A420FD190F90A10103149
:10A210004A11063203EB8202012401F01F0104FA05
:10A2200001F1946824EA01049460DA6990420BD148
:10A23000196A91FAA1F20029B2FA82F208BF4FF02E
:10A24000FF3203EBC202526ADA6110BD780E0020C1
:10A2500030B40C68A14208BF002414B390F90A502E
:10A2600094F90A309D4216DA6368436004606368BB
:10A2700018606060437A43F002034372531C17D0A6
:10A2800009320A2330BCB2FBF3F30A46013300F172
:10A290001001FFF75BBF4B689C4202D02468002C82
:10A2A000DBD101604B6843604B6818604860E1E7B0
:10A2B00030BC704770B5064C0E460546A068FFF7E7
:10A2C00093FF32462946A068BDE87040FFF7C0BF43
:10A2D000780E0020094A116A9268002991FAA1F3C8
:10A2E00092F90A00B3FA83F308BF4FF0FF33103B33
:10A2F0009842D4BF00200120704700BF780E002094
:10A3000010B50A4B9B685B897F2B044602D8FFF788
:10A31000E1FF10B984F3118810BD054B00222046DF
:10A32000BDE810401A60F6F7E3BE00BF780E0020CB
:10A33000841400204FF02003EFF3118083F3118881
:10A34000034B9A68D37A0133D372FFF7D9BF00BFAA
:10A35000780E002090F90A30124A30B51433DB0031
:10A36000191D11444C68A0421BD044680568256043
:10A37000056813446C6001609968416099680860E1
:10A380009860D36998420BD1116A91FAA1F3002920
:10A39000B3FA83F308BF4FF0FF3302EBC3035B6AEA
:10A3A000D36130BD780E002038B54FF02003EFF3B5
:10A3B000118583F31188094CA068FFF7CBFFA268D1
:10A3C000E3699A4202D185F3118838BD044B00221B
:10A3D0001A602846BDE83840F6F78ABE780E00209D
:10A3E0008414002037B518B9FFF7DEFF03B030BD85
:10A3F0000A230930B0FBF3F0013001904FF0200345
:10A40000EFF3118583F31188084CA068FFF7ECFE89
:10A41000A068019B00F110010022FFF797FE044B9A
:10A42000002228461A60F6F763FEDFE7780E002068
:10A4300084140020014B9868704700BF780E0020FC
:10A440000D4B1B68002B14DD0C4B1B68984210D081
:10A450000B4A90F90A30126893420ADB03F11402A6
:10A46000084B03EBC20358689B68C01A18BF012051
:10A4700070470020704700BF9C0F002094B400007C
:10A48000A00F0020780E0020014B00221A607047B8
:10A4900084140020104A1268034600686AB183429F
:10A4A00008BF002008B900207047026A023207D1B5
:10A4B0005A689042F7D00068F4E783420AD050B15E
:10A4C00090E80C001A6002685360437A23F002039C
:10A4D00043727047104670478014002000F110034B
:10A4E0008160C260006040600361436170470000AA
:10A4F00070B505464FF02003EFF3118683F3118802
:10A50000FFF7C8FF044698B9AB68EA689A4218BFDB
:10A510000133AB60022105F1100000F051FC00286E
:10A520003BD0FFF7B1FF3046BDE87040F6F7E0BD25
:10A53000016A00F11002481C0FD01B4B5B699A4264
:10A540001FBF226913695B181361636922691A606E
:10A55000226953604FF0FF332362637A23F00402D1
:10A5600013F01B0F627202D1236A013318D000234B
:10A570006366EFF305830D2B0FD81BB10B4B5B68A4
:10A580001B050AD5084B9B685B897F2B05D8FFF715
:10A59000A1FE003018BF0120C1E786F3118870BD0D
:10A5A0002046FFF79DFDE2E7780E002000ED00E079
:10A5B00038B54FF02003EFF3118483F311888368DB
:10A5C0002BB1013B836084F31188002038BD21B991
:10A5D00084F311886FF00F0038BDFFF76BFEFFF7B3
:10A5E00053FF2046BDE83840F6F782BD034BD3E960
:10A5F00000010A23A0FB0301704700BF881400205C
:10A600002DE9F74F07464FF02003EFF3118083F356
:10A6100011886349D1E90045E21945EBE773C1E9C7
:10A62000002380F311886E46CDF800D0CDF804D019
:10A630004FF02003EFF3118083F31188594C21462A
:10A64000024651F8103F8B4200D0FBB980F31188CD
:10A65000A068FFF7F5FEB0B1534A11680A2307FB63
:10A660000317524B17601B689F420CDB00231360DB
:10A670004FF02003EFF3118583F31188A068FFF7F3
:10A6800069FE85F3118803B0BDE8F08F484D0121C4
:10A690002960AB4639464FF0000E6FF0010C186987
:10A6A0008842AABFA0EB0108C3F810E0C3F81080ED
:10A6B000091A60691D69984214BF18680020D5B94D
:10A6C00093E82002C9F800501D68C5F80490009D69
:10A6D00083E86000009D00936B60C3F810C082F3B4
:10A6E00011884FF02003EFF3118283F311880346A2
:10A6F0000028D4D101E00029F1DC82F31188009810
:10A70000B04203D10023CBF80030A1E70028F9D0F4
:10A71000019B984201D1002600E006684FF0FF3807
:10A720004FF0000990E80C001A60026853608368DB
:10A730004FF02002EFF3118A82F31188C0F81080E5
:10A74000FBB1C26852B159681A680A601A68516050
:10A750005A7AC3F81C9022F002025A725A7A22F0F6
:10A76000040112F01B0F597202D11A6A013213D080
:10A770008AF31188002EC5D0019BB34208D1002373
:10A7800007E08AF311884369002BF3D09847F1E77B
:10A79000336830461E46C5E71846FFF7A1FCE7E7D9
:10A7A00088140020780E0020841400209C0F0020C4
:10A7B0008014002008B54FF480624FF0FF33034946
:10A7C000034800F071F9002008BD00BF002A0020F6
:10A7D00090140020437ADA0604D1006A431C5842E0
:10A7E000584170470020704703695A1C11D00A4A2B
:10A7F000526990421FBF01680A699B180B6190E87B
:10A800000C001A60026853604FF0FF3303610020B0
:10A8100070471846704700BF780E0020F0B54FF023
:10A820002003EFF3118683F31188194A80610A230C
:10A830000931B1FBF3F10131016211460023C3611B
:10A8400051F8103F8B4200F1100508D101615369A6
:10A85000436153691D60556186F31188F0BD002B7B
:10A86000F4D0D2F814E0046A1F69BC4208DC5A68CC
:10A870003C1B1C61426103615A6815605D60EBE737
:10A88000E41B73450462E1D01B68002BEBD1DDE7CC
:10A89000780E0020EFF305800D2807D838B1044B5F
:10A8A000586880F40060C0F3C020704701207047F2
:10A8B00000ED00E0024B9B68187A00F00100704741
:10A8C000780E002008B50446084611461A46A047EF
:10A8D000FFF7B0FDF6F766FE10B501464FF0200316
:10A8E000EFF3118483F31188437A5A0702D484F377
:10A8F000118810BD23F004034372FFF76BFF00289B
:10A90000F5D00846FFF7ECFB074B9B685B897F2B74
:10A91000EDD8FFF7DFFC0028E9D0FFF7B5FD2046B2
:10A92000BDE81040F6F7E4BB780E002010B410BC70
:10A93000F6F794BD70B586B004460E9E04960D9E43
:10A9400003960C9E02960B9E0F9D01960A9E009602
:10A95000F6F784FD6B1C03D02DB92046FFF7BCFF32
:10A96000204606B070BD29462046FFF757FFF7E79F
:10A97000036D10B5044603B198472046FFF72AFF40
:10A9800038B12046FFF730FC637A43F00803637266
:10A9900010BD637A9B0708D594E80C001A60226802
:10A9A0005360637A23F002036372236A0133EBD0AE
:10A9B00004F11000FFF718FFE6E70000F0B5214FA3
:10A9C000214D87B03E46BD4205F12C0414D31F4BE8
:10A9D0009A68D37A013BD3724FF02003EFF31185CD
:10A9E00083F31188184CB4421FD385F3118807B044
:10A9F000BDE8F040FFF79EBC54F80C3C049354F8BB
:10AA0000103C039354F8143C029354F8183C0193FF
:10AA100054F81C3C0093A4F12C000FC8F6F71EFD5F
:10AA200054F82C3CDD642546CDE7616A4B1C03D00D
:10AA3000206819B9FFF750FF2C34D4E7FFF7EEFE7A
:10AA4000FAE700BF1431002014310020780E0020F6
:10AA50000372427200234FF0FF328172C3720262AE
:10AA6000C36183614362704710B504464FF0FF3104
:10AA70002046FFF7EEFA03460028F7D00833426875
:10AA8000BFF35B8F53E8001F21F0010E43E800EC99
:10AA9000BCF1000FF6D1BFF35B8FCB0700D5904719
:10AAA000FFF782FCE2E70000F0B587B004461F46DE
:10AAB0000D461646FFF778FA0020059004900290A4
:10AAC000019003970094044B3246294604F110008C
:10AAD000FFF730FF07B0F0BD69AA000090E80C0056
:10AAE0001A6002685360704770B51424154604FB61
:10AAF00001040026002900DA70BD637BA66003F024
:10AB00000F03022B03D0042B01D0012B02D12046CE
:10AB1000FFF7E4FF85F311884FF02003EFF3118571
:10AB200083F311880139143CE4E70000F8B50023F1
:10AB30001360836805460E461746002B49D01968F6
:10AB40004B7A23F0200298074A7242D50B6A0233EF
:10AB50004AD00846FFF7C2FF4B7A0C6A23F0020383
:10AB6000621C4B7201F110000CD0214B5B699842C2
:10AB70001FBF0A6913691B191361FFF7AFFF4FF07D
:10AB8000FF330B62487A002E0CBF6FF003030023E3
:10AB900010F01F044B661CD10B6A013319D1084613
:10ABA000FFF79EFAEFF305830D2B1BD823B1114B52
:10ABB000586810F400600BD00D4B9B685B897F2BAD
:10ABC00001D9002004E0FFF785FB003018BF012009
:10ABD00038606B7B46EA131666F3071300206B732D
:10ABE000A860F8BD2046F3E76FF00A00F8BD00BF8B
:10ABF000780E002000ED00E00368984230B50AD0DE
:10AC0000446844B1A56812682D6892F90A2095F944
:10AC10000A50954217DA086043684B604368196030
:10AC2000416030BD9D682D6895F90A50954206DD5A
:10AC30005A684A600B605A681160596030BDA3427F
:10AC400003D01B680BB1002BECD181E81100E5E7C4
:10AC500030B5447B036161F30304817B62F300013F
:10AC60008173C289002565F3071465F34F0285607F
:10AC70004473C28130BD00002DE9F04F87B080469B
:10AC8000019191464FF02003EFF3118183F3118876
:10AC90004A4DAA68537A43F02003537281F3118816
:10ACA0000DF1180AAA684AF80C2D044600274FF047
:10ACB000FF36019B9F4215DB4FF02003EFF3118716
:10ACC00083F31188AA68537A13F0200444D13A46DA
:10ACD00031464046FFF708FF87F31188204607B04A
:10ACE000BDE8F08F4FF02002EFF3118B82F3118853
:10ACF000617B01F00F02022A03D0042A04D0012A4A
:10AD000006D12069806801E020690068002848D1E8
:10AD1000B9F1000F16D0A968497A8B0612D5022A1C
:10AD200007D0042A13D0012A09D1524621462069AE
:10AD300003E02069524621461030FFF75DFFC4F85A
:10AD400008A001368BF3118801371434B1E720696C
:10AD5000524621460830F0E723F020035372B9F140
:10AD6000000F04D187F311886FF00A04B6E704A836
:10AD7000494604900590FFF79DFAFFF785FB38469A
:10AD8000F6F7B6F904464FF02003EFF3118583F38D
:10AD900011882A4631464046FFF7A6FE85F3118802
:10ADA0009CE742EA111262F307110023A36061736A
:10ADB000A9684A7A22F020024A72C3E7780E00207E
:10ADC00013B50468A04202D1002002B010BD204695
:10ADD000FFF784FE002CF7D001AA2046FFF7A6FE5D
:06ADE0000198F2E7704744
:08ADE8008454FF7F010000000C
:10ADF000B8AE0000010F000000000000B8AE000077
:10AE00008D16000000000000B8AE0000F51A00002A
:10AE10000000000004B300006D1B000000000000F3
:10AE20000FB300006D1B00000000000084B30000A1
:10AE3000CF1E00005CB30000E5B20000B9200000A6
:10AE40008CB30000A0B300001D2200000000000031
:10AE5000B8AE00001D3C000000000000B8AE0000CD
:10AE6000059D000000000000B8AE0000B5A700007E
:04AE700000000000DE
:10AE740000FFFFFFFFFFFF0C0802170D010102098D
:10AE84000901010602091818030101090903030550
:10AE940003676F6F676C652E636F6D4920616D206A
:10AEA400686572650A006E66635F63616C6C6261FB
:10AEB400636B200A0053656E640A005374617274F4
:10AEC4000A0055464C4153485F30005352414D5F90
:10AED400300046414354555345524346475F300082
:10AEE4005045524950485F30005050425F30002A6C
:10AEF4002A2A2A2A20425553204641554C54202AB6
:10AF04002A2A2A2A0A002020507265636973652060
:10AF14006461746120627573206572726F720A00D5
:10AF24002020496D70726563697365206461746182
:10AF340020627573206572726F720A002020496E58
:10AF4400737472756374696F6E20627573206572B1
:10AF5400726F720A00526573657276656420457873
:10AF640063657074696F6E20280053707572696F21
:10AF7400757320696E7465727275707420284952F5
:10AF84005120002A2A2A2A2A204841524420464194
:10AF9400554C54202A2A2A2A2A0A00202042757352
:10AFA400206661756C74206F6E20766563746F72B1
:10AFB400207461626C6520726561640A0020204619
:10AFC40061756C7420657363616C6174696F6E2064
:10AFD400287365652062656C6F77290A002A2A2A1E
:10AFE4002A2A204465627567206D6F6E69746F72DA
:10AFF40020657863657074696F6E20286E6F7420A5
:10B00400696D706C656D656E74656429202A2A2AE1
:10B014002A2A0A002A2A2A2A2A2025732025642972
:10B02400202A2A2A2A2A0A00202045786563757472
:10B03400696E6720746872656164204944202874CD
:10B044006872656164293A2025700A20204661757A
:10B054006C74696E6720696E737472756374696F5A
:10B064006E20616464726573733A202030782578A9
:10B074000A002A2A2A2A2A204D5055204641554C96
:10B0840054202A2A2A2A2A0A002020537461636B36
:10B09400696E67206572726F720A002020556E73A4
:10B0A4007461636B696E67206572726F720A002047
:10B0B4002044617461204163636573732056696F32
:10B0C4006C6174696F6E0A00202041646472657358
:10B0D400733A20307825780A002020496E73747200
:10B0E400756374696F6E2041636365737320566979
:10B0F4006F6C6174696F6E0A002A2A2A2A2A205505
:10B1040053414745204641554C54202A2A2A2A2A8D
:10B114000A0020204469766973696F6E2062792081
:10B124007A65726F0A002020556E616C69676E65DE
:10B1340064206D656D6F7279206163636573730A52
:10B144000020204E6F20636F70726F636573736F9E
:10B154007220696E737472756374696F6E730A001A
:10B164002020496C6C6567616C206C6F6164206F92
:10B1740066204558435F52455455524E20696E74BB
:10B184006F2050430A002020496C6C6567616C2075
:10B19400757365206F662074686520455053520AA4
:10B1A400002020417474656D707420746F2065787C
:10B1B400656375746520756E646566696E65642083
:10B1C400696E737472756374696F6E0A002A2A2A31
:10B1D4002A204B65726E656C20416C6C6F636174E0
:10B1E400696F6E204661696C75726521202A2A2A6E
:10B1F4002A0A002A2A2A2A2A204B65726E656C20A4
:10B204004F4F505321202A2A2A2A2A0A002A2A2A5E
:10B214002A2A204B65726E656C2050616E69632129
:10B22400202A2A2A2A2A0A002A2A2A2A20556E6B28
:10B234006E6F776E20466174616C204572726F7216
:10B2440020256421202A2A2A2A0A0043757272655D
:10B254006E7420746872656164204944203D202521
:10B26400700A4661756C74696E6720696E737472D6
:10B27400756374696F6E2061646472657373203DD5
:10B2840020307825780A0049535200657373656E3F
:10B294007469616C207468726561640046617461EC
:10B2A4006C206661756C7420696E202573212053AF
:10B2B40070696E6E696E672E2E2E0A004661746187
:10B2C4006C206661756C7420696E207468726561A7
:10B2D40064202570212041626F7274696E672E0AA2
:10B2E40000554152545F3000351C0000000000003E
:10B2F40000000000851B0000111B0000000000007E
:10B30400636C6B5F6B333273726300636C6B5F6D82
:10B314003136737263000000000000000002000078
:10B32400000000000006000000010000000300000F
:10B334000000000000070000000000000000000002
:10B3440000000000000000000004000000050000F0
:10B354000000000000000000000000500000005049
:10B3640000600040491F0000EF1D0000CF1D0000D9
:10B37400111E0000551E0000951E00000000000074
:10B384004750494F5F300000002000400024F40083
:10B3940061200000812000009D2000007379735F0C
:10B3A400636C6F636B00000070B40000BCB30000FA
:10B3B40070B40000C4B300004C0000003815002035
:10B3C4004C00000018160020DCB300000000000050
:10B3D400093D00002D3C0000436F6E74726F6C6C6D
:10B3E4006572007075626C69630072616E646F6D82
:10B3F400007075626C69632069640072616E646FC9
:10B404006D20696400307825303278002530325858
:10B414003A253032583A253032583A253032583AA3
:10B42400253032583A253032582028257329005ABD
:10B434006570687972204F532076312E31312E3069
:10B444002041707220313120323031382030373A87
:10B4540031363A323900F401FA00960064004B00A8
:10B4640032001E001400030400050000AD98000023
:10B47400000000008198000090300020E43000209B
:10B48400F03000201431002014310020F5FFFFFFBC
:10B49400A80D00204255494C443A20417072203195
:10B4A4003120323031382030373A31363A323800B0
:10B4B4002A2A2A2A2A20424F4F54494E47205A45C5
:10B4C40050485952204F532076312E31312E30209E
:0CB4D4002D202573202A2A2A2A2A0A008B
:10B4E000430600000100000001000000050000000C
:10B4F000142E002000000000C7AE00002400080742
:10B5000000000020CFAE00001E0008110000001057
:10B51000D6AE00001800100300000040E4AE0000AA
:10B5200038001003000000E0EDAE00001E00040330
:10B530000090D003F116000000C2010000000000DE
:10B5400000000000000000000000000000000000FB
:10B5500000000000000000000000000000000000EB
:10B5600000000000000000000000000000000000DB
:10B5700000000000000000000000000000000000CB
:10B5800000000000000000000000000000000000BB
:10B5900000000000000000000000000000000000AB
:10B5A0000000000000000000C928000000000000AA
:10B5B000000000000000000000000000000000008B
:10B5C0000000000000000000E82E0020E82E00200F
:10B5D0000100000001000000F82E0020F82E0020DD
:10B5E000000000000000000000000000000000005B
:10B5F0000000000000000000000000001C2F0020E0
:10B600001C2F002000000000FFFFFFFFFF1F0000B5
:10B610001F00000000000000000000004C0500209A
:10B6200000000000354F0000000000000C05002065
:10B630000100000035540000000000001405002047
:10B64000000000006554000000000000D804002045
:10B65000000000006554000000000000E00400202D
:10B660000000000065540000000000003C050020C0
:10B67000000000000154000000000000E804002069
:10B68000000000000154000000000000F004002051
:10B6900000000000015400000000000054050020DC
:10B6A0000000000000000000000000001C05002059
:10B6B0000000000061590000000000002405002087
:10B6C0000000000061590000000000002C0500206F
:10B6D0000000000071590000000000003405002047
:10B6E000000000007159000000000000F804002074
:10B6F000000000007159000000000000000500205B
:10B700000000000071590000000000004405002006
:10B7100000000000397A000000000000800D0020C9
:10B7200000000000BF2F000000000000880D002076
:10B73000000000006D30000000000000900D0020AF
:10B7400000000000BF2F000000000000980D002046
:10B75000000000006D30000000000000A00D00207F
:10B76000000000006D300000030000000100000038
:10B77000F0AD000000000000000000005CAE000022
:10B780000000000000000000FCAD00000000000010
:10B790000000000014AE0000ECB200000000000049
:10B7A00020AE0000F8B200000000000038AE00003B
:10B7B00000000000582E002008AE0000000000002D
:10B7C0000000000044AE0000000000000000000087
:10B7D0002CAE000068B300003801002068AE000005
:10B7E000000000000000000050AE0000000000005B
:04B7F0000000000055
:10B7F400143100201431002000000000FFFFFFFF7F
:08B80400243100202431002052
:10B80C002C3100202C310020000000000000000032
:04B81C000F00000019
:10B8200000000000000000004831002048310020E6
:10B8300000000000000000005831002058310020B6
:10B840000200020000000000ACB300000815002058
:10B850000000000000000000783100207831002056
:10B860000300030000000000B4B30000D015002066
:040000030000162DB6
:00000001FF
