:020000023000CC
:10AC0000807F002001E1030041E1030043E10300F4
:10AC10000000000000000000000000000000000034
:10AC200000000000000000000000000045E10300FB
:10AC3000000000000000000047E1030049E10300BC
:10AC40004BE103004BE103004BE103004BE1030048
:10AC50004BE10300000000004BE103004BE1030067
:10AC60004BE103004BE103004BE103004BE1030028
:10AC70004BE1030065BD03004BE103004BE1030022
:10AC80004BE10300F1C203004BE103004BE1030081
:10AC9000A1BE03004BE10300A9D203004BE1030076
:10ACA0004BE103004BE10300000000000000000046
:10ACB0000000000000000000000000000000000094
:10ACC00010B5064C2378002B07D1054B002B02D082
:10ACD000044800E000BF0123237010BD902C002029
:10ACE000000000005CF30300084B10B5002B03D0FC
:10ACF0000749084800E000BF07480368002B00D15F
:10AD000010BD064B002BFBD09847F9E70000000070
:10AD1000942C00205CF30300742C00200000000041
:10AD2000164B002B00D1144B9D46402292029A1ADA
:10AD3000924600218B460F461348144A121A00F01F
:10AD400065F80F4B002B00D098470E4B002B00D01E
:10AD500098470020002104000D000D48002802D073
:10AD60000C4800E000BF00F02DF82000290002F0A0
:10AD700099FB00F011F8C04600000800807F002019
:10AD80000000000000000000902C0020D8380020B7
:10AD90000000000000000000084B10B50400002B6C
:10ADA00002D0002100E000BF054B1868836A002B29
:10ADB00000D09847200000F031F8C04600000000A5
:10ADC000F0EF030070B500260C4D0D4C641BA41071
:10ADD000A64209D1002604F0FFF80A4D0A4C641B74
:10ADE000A410A64205D170BDB300EB5898470136B8
:10ADF000EEE7B300EB5898470136F2E76C2C0020E1
:10AE00006C2C00206C2C0020702C00200300821879
:10AE1000934200D1704719700133F9E7FEE7C0464D
:10AE2000F0B503888FB00400112B39D010D8102B47
:10AE300023D02388142B01D100F0EEFB55D8102B22
:10AE400000D188E043D8022B00D1A5E00FB0F0BDBF
:10AE5000122B36D0502BECD1A54DC188EA899142F6
:10AE600048D1038A022B45D1837CDB0715D401F03E
:10AE700057FB0028DDD0AB691FE0010082889D4BA5
:10AE800018311A809C48082204F06CF800229B4B71
:10AE90001A70974BDB899342CBD102F0FBFEC8E7D7
:10AEA0000122944B52421A800022944B1A7001F0F6
:10AEB00037FB0028BDD08E4B9B69002BB9D098473B
:10AEC000B7E7082281188C4804F04CF8E5E7112B0D
:10AED00055D0132BBAD18A4B8521188800231A002C
:10AEE00000F04AFE0028B1D04DE0512B5AD022D8B4
:10AEF000502BABD1834BE2889B889A42A6D10AAEF5
:10AF00000C2200213000FFF781FF02233370230061
:10AF1000123304937360238A0393B3607A4B1B78D4
:10AF2000012B00D186E3022B01D100F0E1FB0023CD
:10AF300002931C0087E3522B00D174E3552B00D001
:10AF400084E7A379002B00D080E76D4B132118888C
:10AF500002F0E6FEC6E7A022022380206B49D2055C
:10AF60005350800304395050A188654A1180684AC3
:10AF70001168994311600122664B1A7066E700F070
:10AF80008FFD002801D001F07FFD01225C4B524271
:10AF90001A80604B187059E7594B0021188800F04F
:10AFA000DBFD9FE7A679002E00D14FE70AAD102206
:10AFB00000212800FFF72AFF022E00D046E7514A61
:10AFC00020899189884200D040E7A37B043B022B73
:10AFD00000D83BE70121AB792E700B43AB71238A7C
:10AFE00008AF2B81638A00216B8123001433EB604F
:10AFF000138A380008220293FFF708FF3E80404E74
:10B0000007AB30883A0002997B6000F0ADFD002864
:10B010000FD104AB5A7B1B7B120213430122134254
:10B0200007D1FE233088FF332900AB8000F09AFD62
:10B030000CE700230AAD30882900AB8000F092FDB8
:10B040000290002800D001E701000C222800FFF741
:10B05000DDFE217D481E052800D9DBE203F0A6FFB6
:10B06000060065027402A400DA028A02638A2A4E8C
:10B070000322062B20D1E27DA17D12020A43217E0C
:10B08000264F09040A43617E7B8809061143012289
:10B090003B80637DA9606B602A70934209D11A4A94
:10B0A0001370194B1C78012C0BD0022C3ED00522BA
:10B0B00002E00722022BF2D00121300002F0B8F9A1
:10B0C000C4E603220029F7D0802301325B009942B5
:10B0D000F2D80027124B1C32390012481F70FFF7BC
:10B0E00095FE114BAA681F639A632200E4E7C046ED
:10B0F0005C3800207A3800204C3800207838002056
:10B10000682C0020C4380020602C00200C050000B2
:10B11000F0340020AC340020D0380020AC2C0020CB
:10B12000C0370020B83100208031002003220029E0
:10B13000C2D08B0506D0A24BA2485B6D0068CB182D
:10B140008342B9D1802304225B019942B4D89E4B3B
:10B1500092181B78002BAFD0994B9A4C586D2468ED
:10B160000D18A542A8D8DA6C59649A6403221865B0
:10B1700018633B79954C013313403B710023FB80EE
:10B180002368934A01332360924BC918924B890A72
:10B190001B68C01801F093FA012200288CD02368A4
:10B1A0000432013B236087E703232B708B4B1B7812
:10B1B000012B04D0022B00D128E10524D7E0804EDA
:10B1C0000824F26BB16B8A4200D0D0E07E4A1C00AA
:10B1D0001278002A00D0CAE002F0CEF80524012837
:10B1E00000D0C4E07E4B1A0074321278002A00D1DD
:10B1F000E1E01A007A321278002A00D1B7E0794FE4
:10B200003A687968002A1FD000291DD01800DB3069
:10B210000078002804D01800DC300078002813D112
:10B2200018008430007800280ED01800883000689C
:10B23000332809D18C331B786B4803938446002351
:10B24000674D0398834201DB0A2490E0644698002E
:10B25000903024882858A04200D100E30133F0E761
:10B260002B007C331B78002BEED0B36802932B1D90
:10B27000DB6F02988342E7D32B00E8331B78002B67
:10B28000E2D15A4B10003B6020237B6001F02EFC82
:10B290000028D9D12E00E936327855495548564C08
:10B2A00003F060FE534BA3643378E364402B84D1F6
:10B2B0003E687F68002E00D17FE70324344000D031
:10B2C0007BE703F0E3FC4B4B00903A0031004B4826
:10B2D00003F0E0FC002800D16FE72B00394EA133CA
:10B2E000346018780A24032841D82B0003F04AFE62
:10B2F0001443304A28007C3000780028A4D0F0683D
:10B300000290002BB3D0023B012BB5D82B1DDB6F75
:10B310000298834298D9AFE7B0331B78B435002B3D
:10B3200092D02B68336020223549304803F01AFE52
:10B33000306800283AD001F025F9002816D101F034
:10B34000E5FA002800D07FE701241F4B1C700EE0B7
:10B35000A8331B78002B00D176E7AC352A68326021
:10B36000FF2328499B025B1A9A42DCD9042422005D
:10B3700004212548A2E6A2331B78002B00D163E705
:10B38000A435CEE7A8331B78002B00D15CE72B0057
:10B39000A2331B78002B00D156E72B00AC35A43329
:10B3A0001B682A6899183160002B01D10324DEE75D
:10B3B000002AFBD0D4E71B78002BD8D044E7C04646
:10B3C00080310020BC370020C0370020EC34002042
:10B3D000F9D20300FF030000DC320020602C0020C3
:10B3E00004350020783100200C300000B0340020FB
:10B3F000EE350020B42C0020AC2C0020F4EF03002C
:10B40000BF35002000AC0300D0380020A34D082435
:10B410002A6D6B6D696CD31A9942A8D10020AB6C70
:10B4200068646A65EB6401F071FA002800D00BE7EC
:10B430009B4E2B6D3268073C934298D1994B1B6809
:10B44000002B2CD1984B0A24B9331B78032B14D131
:10B45000964F974B31683B6020237B60954B0A24C5
:10B46000186801F043FB002800D1093C20229249D2
:10B47000386803F068FD002814D16B69002B13D0E5
:10B480008E4A012B00D0DFE6012C4AD1864BA13336
:10B49000187803283CD803F075FD09102D3400F00E
:10B4A000EDFECBE70524E8E7854AEDE7012393604D
:10B4B0007D4B0433DB6FAB6005E0A52393607A4BD3
:10B4C000A4331B686B63AB6C53603368136000215B
:10B4D00020227C48FFF79AFCB222FF217A48FFF72E
:10B4E00095FC002379482B6301F010FA002800D066
:10B4F000AAE63CE7AA2393606B4B0433DB6FEB6057
:10B50000E1E7AC239360684BA4331B686B63F3E7FC
:10B51000002804D002380A240128D4D8ECE70A24F1
:10B52000C6E7002393605360D0E7638A684803222C
:10B53000032B07D1A27D637D12021343654A53801A
:10B54000138001220221B9E504232B70624B60486D
:10B550001B78012B04D0022B08D005220321ADE576
:10B560004E4BD96B1A6C01F033FF6FE44B4B196DE6
:10B570009A6CF8E7638A0322022B12D10622637DBC
:10B580002A706B60012B09D1534A1370524B1B7800
:10B59000012B08D0022B37D0052202E00722022B14
:10B5A000F2D00621E5E680213C4B49001C6CDA6BA9
:10B5B00030884A4B984200D148E40125484B1B682B
:10B5C0002B4200D142E4474B60269D700025090ABA
:10B5D0001971110ADA711972110C120E9A72220A7B
:10B5E0001A731E70220C5A3EDC72240E5A735E705F
:10B5F000DD705D719D7159729C733B4B0F2299896F
:10B6000000F032FAFFF722FC8021244B49019C6CA8
:10B610001A6DCDE70322ACE60023A0881A001900BA
:10B6200000F0A8FA5EE40023A0881A00190000F0D8
:10B6300097FA57E4194D039BEC6BAA6B1B199342C5
:10B6400018D92B6C0293234D6B88002B01D1FFF787
:10B65000FDFB2B88013B9BB22B80002B01D0FFF719
:10B66000F5FB029A21001A4801F0B2FE6B882B808C
:10B67000FFF7ECFB20005C30039A0499401903F0BB
:10B6800071FCB368EA6B19009C187068174AEC6388
:10B6900000F032FB02902864D5E7C04680310020DC
:10B6A000BC370020EC340020043500207831002025
:10B6B000B0340020DC320020BF350020A43100204F
:10B6C00098310020B8310020DC31002075D403000F
:10B6D000D0380020AC2C0020602C0020FFFF0000A0
:10B6E000F034002030360020C4380020C031002063
:10B6F000624DAB6C2C6D0293614B1B78002BA2D07A
:10B70000039B1A0080235B009A429CD813196A6D30
:10B7100005939B1A6A6C934295D85A4A03990498E8
:10B7200000F0EAFA059B584F2B65F988039B0290BD
:10B730005A18A8643879FF2A3AD8544B00024018A6
:10B740001818039A049903F00DFCFA88B368059C55
:10B750009B18FB804C4FFA88002A00D173E7474DB5
:10B760006B6D286BD31A696C1B188B4200D26AE789
:10B770003900474B474E1B680332C01833685031BD
:10B78000013333603B7992101B02C918424B01F020
:10B7900031F800285AD12A6BFB88D3182B63032178
:10B7A000394A137901330B4013710023D3804AE7E0
:10B7B00080235B005C1A0002344BA4B240182200C4
:10B7C0001818049903F0CEFBB368FA881B1BB3600A
:10B7D0007368A2181C192E4B746018682D4C2B6BC3
:10B7E00039791818236892B201332360274BFA8005
:10B7F0000902033259189210274B00F0FBFF002872
:10B800001BD12A6BFB88059CD3182B6300220320D5
:10B810001D4D2B79EA8001330C9A03402B71002ACD
:10B8200098D028001B025030C0180B9903F09AFBE7
:10B83000EA880C9B9B18EB808CE72368013B236014
:10B84000EB6C6C6D0293AB642C65DFE733686C6D59
:10B85000013B3360EB6C2C650293AB649FE72B00DC
:10B86000A1331B780A24032B00D980E5180003F0CC
:10B8700093FBF7FC4AFD41FD41FDC04680310020AD
:10B88000C0370020C8310020AC2C0020FC2C002048
:10B89000DC320020EC340020F9D20300A6DF704730
:10B8A0007DDF704773DF704772DF7047094B5A6E58
:10B8B000013A5A66002A04D1022007490A788243D5
:10B8C0000A701A6E0132042A01D01A6670470022EB
:10B8D000FBE7C046E03200204833002028DF7047F5
:10B8E00029DF704730B5040085B00D00102200211B
:10B8F0006846FFF78BFA237A012B0AD0022B10D06F
:10B90000636829000193236868469B68984705B0DF
:10B9100030BD00236A46137023690293A38A938182
:10B92000EEE701236A4669461370A289E3894A81DA
:10B93000D31A0B81E4E770B51B4B5A6E002A27D04F
:10B9400018241D6E6C43E418227A012A06D0022ABC
:10B9500022D009212000FFF7C5FF19E0A28AE08A62
:10B96000121AFF2A15DC92B2182169435B18D968B4
:10B970001B69800009181818FFF7B2FF11280FD1B2
:10B9800002220A490B7893431A00042313430B70D5
:10B9900070BD80225200E7E7A089FFF79FFFEDE727
:10B9A0000028F5D0D5E7C046E0320020483300201B
:10B9B000022270B5294904000B78134241D01823A4
:10B9C000274A156E6B439818022C04D0032C2CD0F8
:10B9D000FFF7B1FF70BD0021224B1970037A012BD4
:10B9E0000CD0022BF4D18389028A01338381C3896D
:10B9F00001339BB2C3819A42EAD10EE0848AC38AA2
:10BA0000E11AFF290EDC89B25B18182169439BB249
:10BA10005218D38200219C42DAD1FFF763FFFFF76F
:10BA200045FFD5E780214900EEE70E4A1378013340
:10BA3000DBB2032B01D81370CAE70023082113706F
:10BA4000EBE704200342C3D0834305480B70406EEC
:10BA50000028BDD013430B70BAE7C046483300201E
:10BA6000E0320020FC300020F0B587B06B4602AC1D
:10BA700006000F00DA800021102220009D1DFFF734
:10BA8000C5F90123A370054B210030002780A56074
:10BA9000E360FFF703FF07B0F0BDC046303600207B
:10BAA000F0B5002002272A4E8DB03168394081421E
:10BAB00045D106AD18222800FFF7A8F90B236A46E6
:10BAC0000D2001AC53800A3B63700533A370033B28
:10BAD000E37056336371D119A53368442770277119
:10BAE000A371FFF7DDFE002829D16B4659880B2989
:10BAF00027D84B1CE3710923C918237289B200238C
:10BB0000C9B21A002000FFF7CFFE002817D1282362
:10BB1000287068602872688228002B82FFF7C2FEB6
:10BB200000280CD1A02280210A4BD2058903D150D4
:10BB3000A1210223C90053503268134333600DB072
:10BB4000F0BD0C23E371043B23721421D7E7C046F8
:10BB5000F03400200C05000067DF704763DF70479A
:10BB6000A9DF7047A8DF7047A5DF7047A2DF7047E5
:10BB7000A0DF704786DF70477FDF70477CDF70474C
:10BB800074DF704771DF704770DF70470022F0B5D7
:10BB9000CDB00B784C781B0624042343CC78234388
:10BBA0008C780431240223430CAC13510432402A14
:10BBB000EFD12300112713269A6B5C681100F9411D
:10BBC0008C4611006546F141920A69404A401D6861
:10BBD000596A04334919521807252100E9418C4656
:10BBE00021000B35E9416546E4086940614052187F
:10BBF000DA633CAA9A42DFD1036D00270293436DBA
:10BC0000029C0393836D039E0493C36D0593036E9F
:10BC10000693436E06990793836E0893C36E099348
:10BC20000A93089B0193079B0093059B0B93049B2E
:10BC30009C460B230D000A00DD41053BDA416A40BA
:10BC40000D001333DD412B4B55400CAAFB58BA585D
:10BC500004379A18AA18019B009D8B430D406B4036
:10BC6000D2180A9B2500D3180A930D23DD41022226
:10BC70002B002500D54122005D401623DA416346A2
:10BC8000554062467340324023405340ED180A9AB3
:10BC90000B9BD318521965460B95019D0A9580257B
:10BCA0006D00AF421DD1029DAA180265039A1419B6
:10BCB000049A44659619059A86656244C265069A97
:10BCC000D318009A03669446079B019A5918089B5B
:10BCD0004166634494468366099B6344C3664DB0E2
:10BCE000F0BD009DB4460091260001951900140096
:10BCF0009FE7C04634F0030030B5002A07D0136830
:10BD0000DB4301244118814204D1D84330BD0123D3
:10BD10005B42F6E70278534008225D08234000D0DA
:10BD2000034B013A6B40002AF7D10130EBE7C046E4
:10BD30002083B8ED10B5094A5368002B0BD00028BA
:10BD400009D1EFF3108372B6054914680C60506096
:10BD5000002B00D162B6002010BDC0464831002043
:10BD600000E100E0F0B585B002AB9E1D002330007D
:10BD7000337000F065FB284B1C78E4B2002C42D1F4
:10BD8000264B1A68002A3ED0C221254A8900515804
:10BD90000092CA0737D51C60A123009ADB00D35854
:10BDA000019302ABDF1D38003C7000F049FB1D4DD4
:10BDB000AB681F2B00D85C1C6A68AC60A24204D13F
:10BDC0000022202C00D0621C6A606A461279EB18AF
:10BDD0001A746B689C421BD3E41AEB68A34200D22E
:10BDE000EC603878FFF7A6FFAA6800231F2A00D866
:10BDF000531C6A689A4206D1C2220123009992001C
:10BE00008B50094A13603078FFF794FF05B0F0BDFE
:10BE1000E41A2134E1E7C046E034002000D10040BC
:10BE200000D00040FC30002004D0004030B509496B
:10BE30004C788A78631CDBB29A4200D100230D78DB
:10BE400000229D4204D00370182060434A681218F3
:10BE5000100030BD5031002080220D4B920270B591
:10BE6000DA678023D22201250A4C5B029200A3509C
:10BE7000403AA350656000F001FBA5600024064B2A
:10BE80001C6000F0FBFA054B31331C7070BDC046DE
:10BE900004E100E00010014048380020FC300020A0
:10BEA000F0B5B54885B00368B44C0193B44B227823
:10BEB0001D78B4490023954236D00132D2B2022A0D
:10BEC00030D022702378019A9B00CB185B6BD2187C
:10BED0001202120A0260012200923C310978002706
:10BEE0008C460124A848A94A006812780290A74805
:10BEF000417891421AD1002F03D06146A14A3C32C9
:10BF00001170009AA04C002A3AD000210D000F00B9
:10BF10002268002A3CD01068984200D89FE0C31ADB
:10BF2000136035E02370CDE70093D6E71821514325
:10BF3000456801328078D2B26918904200D100225F
:10BF4000087802280BD00328D1D1002005008E49A3
:10BF50000968002910D10028C9D08B4809E1486838
:10BF600089490D6829002E000029C0D0884200D1DF
:10BF7000EAE00E00C969F7E70D742000C969E8E737
:10BF8000029A236800219B1A5A1E9341DBB2009348
:10BF90002368794E01937B4B7C4C3C331B78029396
:10BFA000002900D06DE0237862789A4200D082E0C8
:10BFB000754B019A1B689A4202D1009A002A48D018
:10BFC000002B00D1BDE01B68714A0393714C6A4B92
:10BFD000A6581B686B4D0093F31A1B021B0A033310
:10BFE000313501932B780292002B12D18023C13A74
:10BFF0005B02FF3AA350403AA350C02180220127A0
:10C00000654B920249005A501A60276000F036FAD8
:10C010002F70039B019A934200D21300A821009A2B
:10C02000C9009B181B021B0A6350029AA258921B5C
:10C030001202120A9E1B36020332360AB24208D995
:10C04000029BE358635000F019FA8022534B92028E
:10C050005A6000224B4B3C331A7005B0F0BD1B1ADE
:10C060002D18D668D06917602060002E00D14FE7E8
:10C070000198D16140190002000A506096601100D9
:10C0800046E70B00C969464D5F68AC4632689D685B
:10C09000B81A0002000A60452ED82818186000223D
:10C0A0000120394F5A609A60DA613A681874002AA0
:10C0B0002DD13B6074E718225A436068013382181F
:10C0C000A078DBB22370984200D121701378012B45
:10C0D00000D068E75368187C002800D063E79568B3
:10C0E0005D60D5689D601569DD6052699A61029A4C
:10C0F000002AC8D05860C6E7D21B1202120AAA4210
:10C1000002D2AD1A1D60CAE700221A60C7E718689C
:10C1100015689446A84209D8281A1060DA61C8E761
:10C12000401BD5699446002D07D02A00156885422A
:10C13000F6D32D1A1560150062461860DD61D361D3
:10C140002EE7FFF789FE84E7B0420AD1E9690E4D78
:10C150002960002905D12700A4460E4DAC60064D8C
:10C1600029600168C069F061002800D1BFE6056858
:10C1700069180160BBE6C0464838002044380020FA
:10C1800045380020FC30002040380020503100208D
:10C19000040500000010014000E100E0FCE100E0C7
:10C1A000FEFF7F00F0B5002485B002ABDE1D0090DD
:10C1B00030000D000192347000F042F91F4B204A0C
:10C1C0001B782049DBB29C4613780988DBB220003B
:10C1D0008B4201D20133D8B21B4F3C00844508D0BA
:10C1E000147813780020DBB2994201D90133D8B218
:10C1F00010703078FFF79EFD0420BC4218D0134F1A
:10C20000019A3B68E6009B191A60009A002A11D037
:10C21000002D0FD00E4B2A0018880E4B444318688F
:10C220000099001902F09EFE00203B689E19B5801F
:10C2300005B0F0BD00209880FAE7C046B93700206D
:10C24000B8370020BA370020FFFF0000603600201A
:10C25000E8340020B437002007B5064B00901B8857
:10C2600001910920072B04D9034A08216846FFF7EA
:10C2700099FF0EBDE8340020DFC2030010B5104C5A
:10C28000104B22781B789A4200D110BD20780E4ABC
:10C29000C0B21268C300D3180C4A998812881B6870
:10C2A00050430B4A1268101898470A4A237811889D
:10C2B000DBB20022994201D90133DAB22270DEE703
:10C2C000B9370020B837002060360020E83400205D
:10C2D000B4370020BA37002010B500F0D5FB10B5F8
:10C2E000082901D000F0D0FB03684068984710BDD2
:10C2F00070B50024234B5C649C64DC641C655C604A
:10C300009C60214B1B68A34238D0204A20498D589D
:10C31000204A1268AD1A2D022D0A1A68AA4219D8AD
:10C32000AD1AA4181A7CDE69002A11D000221A74F2
:10C33000194A1268002A08D099695869904700285C
:10C3400006D000F0A1FB3300E7E75A6998699047EF
:10C35000002EF8D1114B124A197813788B4204D170
:10C360000133DBB2022B0AD0137012780D4B92000E
:10C370009B1880225C630C4B52035A6070BD0023F3
:10C38000F2E7C046FC1001404038002004050000E0
:10C390000010014048380020C437002044380020F5
:10C3A00045380020FC300020FCE100E070B50B4D6A
:10C3B00004006A6E0020042A0FD02B6ED318032BC2
:10C3C00000D9043B01326A6618225343ED1800215C
:10C3D0002800FEF71BFD0120256070BDE032002023
:10C3E000062310B5044A1178194204D1043B0B43CB
:10C3F0001370FFF7A0FA10BD4833002010B5044BAE
:10C40000002900D119705B68002B00D0984710BD3F
:10C410003C31002070B5094A012493681D00A543F2
:10C42000002907D10324A34393604368002B00D065
:10C43000984770BD02232B43F6E7C0463C310020ED
:10C4400070B5EFF3108672B6094B01221969002905
:10C450000CD1084C1A61E26F074D2A40DA60E5679B
:10C460000170002E00D162B6002070BD0270F8E7A6
:10C470003C31002004E100E0FC06FFBC084B094908
:10C480001A682F23C046C046C046C046C046C046B4
:10C49000C046C0468A4200D0C046013BF2D1704738
:10C4A000642C00200024F400F0B585B00191437C99
:10C4B000070000260091012B00D0009602ABDD1D85
:10C4C00028002E70FFF7BCFF02AB981DFFF7AEFCF3
:10C4D0000424002810D00123002403700C4A0D4BC3
:10C4E0004760D35846618360019BC360009B036132
:10C4F00002AB9A79084B5A752878FFF71BFC002C81
:10C5000003D18022054B52035A60200005B0F0BDD4
:10C5100000100140040500003C310020FCE100E077
:10C52000F7B5164D0824AB69002B25D02B6B002BDB
:10C5300022D02B0000272C331F706B46DE1D3000ED
:10C540003770FFF77DFF6B46981DFFF76FFC043CCB
:10C55000B84208D0022303702B001C3343606B46A3
:10C560003C009B796B753078FFF7E4FB002C03D11E
:10C570008022034B52035A602000FEBD3C31002054
:10C58000FCE100E0F8B5174B05001968164B0420D4
:10C590001A68164BD218521AAA421ED31448154CC8
:10C5A000466E2162012E19D1134FC36DDB199B0A10
:10C5B0009B02D21A0027954203D9466587655C30F5
:10C5C00004E0CB18476586652362683004000C22BE
:10C5D0000021FEF71BFC00202560F8BD0023436509
:10C5E0008365ECE7083000001410001000F4FFFF32
:10C5F0003C310020BC320020FF03000010B50A4B84
:10C6000000205A6E012A0DD11C6E1000002C09D09A
:10C61000D96D064B00221868FFF76EFB201A4442C2
:10C620006041C0B210BDC0463C310020083000005F
:10C6300010B50C220021FEF7E9FB0022024B5A67DD
:10C640009A675A659A6510BD3C31002000280FD0CA
:10C65000084B094A1B68C046C046C046C046C04693
:10C66000C046C046C046934200D0C0460138F2D111
:10C670007047C046642C00200024F40010B5064C1E
:10C6800088342368042B00D010BD0448FFF7DEFF78
:10C69000FFF7F4FDF5E7C046BC320020A08601009C
:10C6A00018DF70471FB5102200216846FEF7AEFB69
:10C6B000022368460093FFF7F3FF05B000BDF0B515
:10C6C00087B000920422444E0500B368134244D060
:10C6D00002240A2023423ED109380343B3603F4B72
:10C6E0001B7B034208D03E4F3E4B9F4203D33E4B41
:10C6F0009F4200D26CE020000123B2689A43B260EE
:10C7000029E0AB050620002BF6D13B6801389D429D
:10C71000F2D38BB29B027C68EB189C42ECD38CB2B8
:10C720001000002CE8D002A8FFF740FE030007200D
:10C73000002BE1D0029B009A1F605A600222029BEC
:10C74000AD0A1A729D811C82FFF74AFE0123B2686E
:10C750001343B360002007B0F0BD830A020002203B
:10C76000844680200E009BB20193204C204BC000D9
:10C7700067461F511F58002FFCD0A127FF00DA5138
:10C780001F58002FFCD000271F511F58002FFCD02E
:10C790008027013EFF00D219002EE9D100988902BE
:10C7A0006D180028D7D03100102202A8FEF72EFB0A
:10C7B000012302AA1370009BAD0A039313006A467B
:10C7C00092885D811A8118003100009B9847C1E76B
:10C7D000002D96D103208FE73C3100203C33002010
:10C7E000782C0020782C0020882C002004050000E4
:10C7F00000E00140F0B53E4F87B00093BB680400F5
:10C800000D00590748D502210A200B4242D10938B0
:10C810000343BB60374B1B7B03423BD0364E374B49
:10C8200008009E4236D3364B9E4233D20323180073
:10C83000002D2FD01800002C2CD0290021430620D9
:10C84000194227D1336801389C4223D393B29B000D
:10C850007168E31899421DD393B201930138002BFC
:10C8600018D002A8FFF7A2FD03000720002B11D06B
:10C87000029B009A1E605A606A460126029B9288BB
:10C880001E72DD601C619A82FFF7AAFDBB681E4321
:10C89000BE60002007B0F0BD01218020194B1A4F67
:10C8A000C000D95119580029FCD0910080208C4635
:10C8B0000021C000614513D10021D9511958002928
:10C8C000FCD000250098A842E4D002AB1D7002AB5A
:10C8D00003909A81180004942900009B9847D8E798
:10C8E0006E5866501E58002EFCD00431E2E7C04658
:10C8F0003C3100203C330020782C0020782C002094
:10C90000882C002000E0014004050000F8B5050077
:10C910001D4C2378002B13D1013323706560FFF782
:10C92000ADFE1A4D002201212800FFF7C8FE0200CB
:10C930000728F4D0002809D0002303202370F8BD75
:10C940001348FFF783FEFFF799FCE1E72000582129
:10C950004830FFF7D1F90F4E27006064AE22300057
:10C96000443710305200390002F0FCFAFFF786FE1F
:10C970003100094B103157222800FFF73BFF0728F1
:10C98000F4D00028D8D1DAE73C31002000FC0300C5
:10C99000A08601003C330020FDC303008022F0B5D7
:10C9A000214F52017B6F87B09A1820490092BA6FCD
:10C9B0001E185418E41AA40AA402A5086D18AD0A9A
:10C9C000AD02002A29D1AB08019301230293009BF9
:10C9D00002A80493019B03960593FFF761FE0028CC
:10C9E0001ED103230293009B02A80393019B04968C
:10C9F0000593FFF755FE002812D1009B76195B19AD
:10CA00000093A5420ED8641BBB6F00201B1B7B67E5
:10CA1000FFF77CFF002CD8D102E000209342D2D156
:10CA200007B0F0BD0400EFE73C310020FF03000039
:10CA3000F0B5134B85B09C6F0B6825181C1B0323A6
:10CA40000093104BA40868460E00019302950394CE
:10CA5000FFF726FE071E07D13000FFF7E9FD38007B
:10CA6000FFF754FF05B0F0BD102200216846FEF725
:10CA7000CDF9684601950294FFF712FEF2E7C04631
:10CA80003C31002000AC0300BFF34F8F034A044B3E
:10CA9000DA60BFF34F8FC046FDE7C0460400FA05D9
:10CAA00000ED00E010B5084BDA6E002A09DD1A002F
:10CAB00070321278002A01D1FFF7E6FF0022DA6611
:10CAC00010BD0132FBE7C0463C3400200122064B7A
:10CAD000524210B5DA67040000F0D5F9002802D1FF
:10CAE000200000F0B4F910BD04E100E00023F0B52F
:10CAF0009FB012930022002314921593554B169366
:10CB0000554B1793554B1893554B1993554B1A93F7
:10CB1000554B1B93554B1C93554B1D93002969D1C5
:10CB20008026040000274518B600A54267D1514D64
:10CB3000EC6B002C60D08021129A02A8531C815407
:10CB4000372A00D976E00022382B00D06EE0129907
:10CB500002AE4B0FCA001498159912184B41009061
:10CB600001913F2102A809180A703E21100A891973
:10CB700008703D21100C8919087014921593110E3C
:10CB800011AA11703B213A2089190B708019190ADA
:10CB900001703920190C801901701A0E300010AB89
:10CBA00031001A70FEF7F2FF230058070434C01A50
:10CBB0001D99C218D200D14019701C990133D1407F
:10CBC000D9701B99D140D9711A99D140D97219994C
:10CBD000D140D9731899D140D9741799D140D975DA
:10CBE00016990091D140D9769C42E1D120230020B2
:10CBF0002B6402E0002893D10E201FB0F0BD129BE1
:10CC0000227802A9CA5401331293402B0CD1080098
:10CC1000FEF7BCFF149A159B0092019392197B4179
:10CC2000149215930023129301347EE702A9CA548B
:10CC3000013389E7002202A93F2B08D90800FEF73B
:10CC4000A5FF3822002102A8FEF7E0F87FE7CA54CA
:10CC50000133F0E767E6096A85AE67BB72F36E3CA5
:10CC60003AF54FA57F520E518C68059BABD9831FB7
:10CC700019CDE05B3C31002061DF704752DF704727
:10CC8000002110B5024A0800FFF78CFA10BDC0461B
:10CC90008DD2030013B514006946082200F083FE0C
:10CCA000002803D0009A019B2260636016BD13B573
:10CCB000140001A9042200F076FE002801D0019B97
:10CCC000236016BDF7B50E0001A90500140000F0A1
:10CCD00015FE002813D0019A0020511C8A420ED85C
:10CCE0003F277378BB43802B09D03379994206D80C
:10CCF0002100280000F057FE0023019AA354FEBD36
:10CD0000F7B50E0001A90500140000F0F7FD00289A
:10CD100013D0019A0020FF2A0FD8511C8A420CD848
:10CD20003F277378BB43802B07D03379994204D8CF
:10CD30002270611C280000F036FEFEBD73B50D00A8
:10CD40006946140000F0A6FD00280ED0019A009E4E
:10CD5000D307710852080B43F60701D5DB43D243D2
:10CD60002979082902D12360626076BD042909D19E
:10CD700018002360D91758404A4010434342584195
:10CD8000C0B2F2E7022903D118B22080C117F2E73E
:10CD900000200129E9D158B22070F7E737B50D001E
:10CDA0006946140000F076FD00280ED02B79082B80
:10CDB0000CD1009B019823606060009A5340019A57
:10CDC0005040184343425841C0B23EBD042B03D1EA
:10CDD000009B23600020F0E7022B05D16B461B88E7
:10CDE00023806B461B88F5E70020012BEDD16B46B5
:10CDF0001B7823706B461B78DFE737B50D0069465B
:10CE0000140000F047FD002806D02A79082A04D132
:10CE1000009A019B226063603EBD009BD917042AE3
:10CE200009D118000A00236058404A401043434289
:10CE30005841C0B2F0E7022A03D118B22080C217CD
:10CE4000F2E70020012AE7D158B22070F7E7F0B5E9
:10CE50000300186880F308885868FF2464B2EFF371
:10CE60000585002D01D1A6460047251C061C21275B
:10CE70003FBAF0B40024002500260027F0B4F920C2
:10CE800040B20047F0BD13DF704760DF704710DF2E
:10CE9000704710B52C4B1A78012A0FD12B4A126813
:10CEA00012070BD12A4AE0241168F0220800104032
:10CEB000214227D127490968114226D01A78012A30
:10CEC0000DD122490968090709D1F02020490968D4
:10CED0000140402903D11F49096801422ED01B6837
:10CEE000DBB2012B0DD1194B1B681B0709D1184B65
:10CEF0001A68F0231A40A02A0FD1164A12681A4263
:10CF00000ED010BD3028D5D0D8E71349134A116090
:10CF10008021134A09021160D0E7D02AF1D1ECE751
:10CF2000104B1A68012A03D1C0220F4B1A60E8E7A0
:10CF30000E4A1A601A68012AFCD1F5E7C121802047
:10CF4000C900C0054250CAE7E00F00F0E40F00F04E
:10CF5000E80F00F0EC0F00F0DFFF07C00405004011
:10CF6000186C004000EC064014EC0640759300007D
:10CF70000023F0B593B009920493059306910791AD
:10CF800008930400887812180A92C978019349B26C
:10CF900052180B92A368002B24D1079B06A800937C
:10CFA000089C5D7800F02EFE0028F6D130231D424B
:10CFB00004D1079B1B785A1E9341E4180120002CD2
:10CFC0001BD0002361099A008B4266D11F2304A95C
:10CFD0001C408A5801331C1B213BE34001209A422C
:10CFE0000AD10AE00CA9200000F088FC0390002878
:10CFF00005D1A368002BD0D0002013B0F0BD0C9D4C
:10D00000002DCAD00723EF08079E1D400095079BFF
:10D010001A78974204D10F225B781A40082A42D12D
:10D0200006A800F0EFFD079B9E42F0D1019BBB429A
:10D030000ED80F21079A53780B40082B53D006A81F
:10D0400000F0E0FD079B9E42F3D101235B42019378
:10D050000099200000F0D4FC00289BD1CCE7336875
:10D060001A68151E08D0009B3A0031002000A8471E
:10D070000028C1D0B6683EE09B6803981B789F42A9
:10D08000F6D131000CA800F0E8FB01230CAA3373A1
:10D090000099200000F0DCFCEAE704A88258013285
:10D0A000AAD101338FE7302213420ED1089B3F2BC8
:10D0B0000BD81F215A09194001238B40920004A963
:10D0C00051580B43029104A95350E668002E04D036
:10D0D00006AB009A39002000B04706AA009920004C
:10D0E00000F0B6FCB8E713780193BB42B0D8A36850
:10D0F00002930A9B1E68A368002E02D0029A9A42ED
:10D10000ADD0029A9A4200D044E7A1E77FB5002350
:10D1100003910090019002938378C918032304912E
:10D12000C356C91803780591002B07D0684600F054
:10D1300027F8684600F066FD0028F7D107B000BD6B
:10D14000F0B585B00E008C6869460700150000F048
:10D1500011FC002812D0B06800280FD0302273785C
:10D160001340202B03D129002000FFF7CFFF2A0016
:10D1700021006846FFF7FCFE019B7B6005B0F0BD17
:10D180000F2210B5436886B05B781A40082A10D188
:10D1900003691C68002C01D106B010BD00232100DA
:10D1A0002373684600F059FB6846FFF7E9FFA4685F
:10D1B000F0E73F22190091430A1E20D13021194087
:10D1C00010290CD143691A700F2143685A780A401C
:10D1D000072A09D101699868FFF798FFDCE79B06E9
:10D1E000F2D543691A70D7E799681A79006900295E
:10D1F00002D001F0B7FECFE7FDF708FECCE78029AB
:10D20000CAD1002201690A609B06C5D5E9E7F7B5D6
:10D210001D4E356874686B425D4163425C41EDB2FE
:10D22000E4B2002D1FD0002C05D0F7BD0198336863
:10D230009847002C15D1347AE4B2002CF5D16B4616
:10D24000F768991C738938000B80FFF715FD0528D6
:10D2500005D0002811D1380073689847E1E7002D08
:10D26000E3D101240025337A002BDED101A8FFF79A
:10D2700005FD052803D00028D8D0FFF705FC002CB9
:10D28000D3D10125D7E7C046D034002010B50029FE
:10D2900001D0FFF7F9FB034B1B7C002B01D0FFF7FC
:10D2A000B6FF10BDD034002010B5074B5A69002AD4
:10D2B00004D09047002806D0FFF7E6FB1B7C002B2C
:10D2C00001D0FFF7A4FF10BDD034002010B5FFF748
:10D2D000DBFBC0465A68064B92689A4206D1426808
:10D2E000836804490132013B0A604B607047C046C5
:10D2F00034F1030078310020024A1368013B1360C7
:10D300007047C046EC340020042370B5154C002053
:10D3100062681A420ED1134313486360FFF796F90F
:10D32000124B1888124B984205D0132100F0F8FCDC
:10D33000002812D070BD022563682B420DD0FEF785
:10D340001FFC0028F6D18021A123A022DB00890345
:10D35000D205D15063681D436560FFF7E1F80020F6
:10D36000E8E7C046EC340020C0D40100682C00205F
:10D37000FFFF000075DF704770B50E4A0E4C0F4B73
:10D38000A26026000E4A9B6BE260002223610D4DD5
:10D390000D4B1836783563610C4B310028001A604C
:10D3A0005A60FFF7B3FE2000320029000830FFF773
:10D3B000DFFD70BD3DD80300EC340020803100203B
:10D3C000DC31002034F10300D5D203007831002095
:10D3D00070B5134B05001C88124B08209C421ED0D0
:10D3E0000126114B5B68334219D0104B583044333F
:10D3F00018705D385870080AD9701871080C090E39
:10D400009971110ADA711972110C120E58719A720F
:10D410009E70597229880B222000FEF725FB70BDF3
:10D42000682C0020FFFF0000EC340020EC350020C9
:10D4300070B50C4B04000C4D18880823A8420ED080
:10D440000A4D6D68ED070AD56025094B44339A7083
:10D450001D70597021880322FEF706FB0300180097
:10D4600070BDC046682C0020FFFF0000EC34002097
:10D47000EC35002070B5084B084C094DE41AE4085F
:10D48000E4000434E418A54204D02B68984708351A
:10D490000028F8D0FFF7F8FA882C0020902C002004
:10D4A0008C2C0020A023EF220321DB05D200F0B555
:10D4B00099508021A122C905D2009950C249C34A7E
:10D4C00000259950AE22C24EC24B89B05200C249CB
:10D4D00030001D7001F046FD3468631C06D02A0040
:10D4E0005821BE48FEF708FC84420ED0AE2200212F
:10D4F00052003000FDF78AFC012300207360FFF723
:10D5000005FA002801D0FFF7BFFAB54B1A6803935C
:10D510003369012B12D07369002B0FD0B369B14965
:10D52000B14D5C18A40AA402A418AB68A52B00D1C5
:10D5300007E106D8012B13D0002565E01400AB4DA0
:10D54000F3E7AA2B00D10AE1AC2BF5D12000FFF7BD
:10D5500025FA002857D129002000FFF769FAFCE0DE
:10D5600073690025012B4FD1736A356B02935319F0
:10D570000193029B5D1B80232F00DB009D4200D99D
:10D580001F00002201210198FFF799F8031E3AD1EC
:10D590003A0021000198FFF72DF9002833D1032329
:10D5A0000493019B04A80593BB0806940793FFF717
:10D5B00077F8021E27D101212000FFF780F800280C
:10D5C00021D1336BE419DB193363FFF79FF9019B1A
:10D5D000ED1BDB190193002DCDD1039B2A001868A8
:10D5E0000299FEF789FBB36A984204D101233362A2
:10D5F000029BF061B3617C48FFF71AF80020FFF747
:10D6000085F9002800D001258022A220A024784B93
:10D61000D205C000E405D1582058000404D50029E3
:10D6200000D0A2E00131D150FEF716FC714C05216B
:10D6300025000022704B5C35A365704B80269970E5
:10D640006F491A705A705D600B0058331A700B00E6
:10D65000C020C5270195FF2559331A70694B760301
:10D6600040004A65BF001E50D859A8438446C020D8
:10D6700065462843D851A1201E60634EC000325039
:10D68000043FDA5961481040C02212020243DA51C5
:10D690005F4BF358CB65019B002B00D133E75D4E08
:10D6A00030005430037C002B00D02CE78021013364
:10D6B0004374594B0902B366FEF7F6FE002800D00A
:10D6C00021E733007833736723004C33187023004D
:10D6D00008224D331870514B05001A802300213663
:10D6E000FF36A6644E4F4F4E4E330C32F61B1A8057
:10D6F000F608AE4258D101234B4A354D11780B4301
:10D7000013704A4A4A4B1A6004224A4B1A6000229C
:10D71000494B1A60AB6B934210D0FFF72DFE0028E7
:10D720000CD02B6A002B47D1AB69002B44D023656A
:10D73000206DFEF727FF012354342370FEF79EFD72
:10D74000FCE72000FFF72AF9041E00D05BE7280061
:10D75000FEF76EFF2000FFF7D9F8012551E72900F9
:10D760002000FFF765F900254BE70021D1508D42DD
:10D7700000D059E7FEF742FF002800D154E7039B91
:10D780001C68FEF78FFF002802D12000FFF79EF9EA
:10D79000039B1C68FEF786FF002802D12000FFF7DC
:10D7A00095F9002009B0F0BDEB00FB589847002820
:10D7B00000D0A8E601359CE7EB6A002BBED1AB692F
:10D7C000002BBBD06B6AB2E70C0003003C070000E3
:10D7D000803100203C31002000FC03008431002017
:10D7E00008300000FF030000A43100209831002021
:10D7F0001C0500006C37002059C203005031002086
:10D80000EC37002000E100E000100140FF00FFFFC6
:10D8100004050000EC350020A5CA0300E834002010
:10D82000882C0020902C002048330020B1B9030040
:10D83000D034002044310020EC34002010B544687E
:10D84000A31843600023002904D1012010BDE05C2F
:10D85000C85401339A42FAD1F7E710B500240B6897
:10D860009A684B6802604260C360846094781B19B8
:10D870000324036114571B1943614B6803610B00B8
:10D880000C33436153783F229343802B01D1043101
:10D89000016110BDF0B5002405000E0087B00394AF
:10D8A0000194AB68002B24D004ABDF1D01223900AA
:10D8B00028002B689847029000281AD07F20AB6878
:10D8C0003F78013BAB603840019A002101F078FBC2
:10D8D000039B7FB20B430393019B044307330193E4
:10D8E000002F03DB039B3460736004E0019B462B35
:10D8F000D7D100230293029807B0F0BDF0B583683A
:10D9000085B004000091002B03D10027380005B03A
:10D91000F0BD02ABDD1D0122290003689847071EF8
:10D92000F3D0A3682D78013BA3606BB2002B1BDA08
:10D930007F2307261D400193A368002BE5D002AB8F
:10D94000D91D01222000236898470028DDD0A36854
:10D95000019A013BA36002ABDB791A40B2405BB293
:10D9600015430736002B02DB009B1D60CEE7232EFC
:10D97000E2D1CAE7F7B50D0001A90400FFF7BEFF29
:10D98000002801D10020FEBD2B002200C2CAC2C364
:10D9900012681A60019BAA689A42F3D3AB60A2682E
:10D9A000D31AA360EFE730B5040085B01500002955
:10D9B00003D1124B02689A420CD1A3689D4212D93E
:10D9C00000200EE0102269462000FFF7ECFF00283F
:10D9D00007D0103D102DF5D82A0069462000FFF72A
:10D9E000E2FF05B030BD2A002000236898470028D8
:10D9F000E6D0A3685D1BA560F3E7C0463DD80300F1
:10DA000037B50400052921D8080001F0BBFA030F3F
:10DA1000151F1F1D01AD012229002000FFF7C3FFC4
:10DA2000002802D02B787F2BF4D83EBD082200219D
:10DA30002000FFF7B8FFF8E701A92000FFF75EFF1D
:10DA40000028F2D0019AF2E70422F0E70020ECE788
:10DA5000F0B506005068140043783F221D008BB0DB
:10DA60000193954304D0402D00D16BE000254AE09E
:10DA70000F22019B1A409700BC4663465F4FDB595B
:10DA800030270093019B3B40102B1DD007D8002B63
:10DA9000ECD1010022693000009B98475BE0202B0D
:10DAA00017D0302BE2D1037861690B70072A0ED1B1
:10DAB000636829001A792069FDF7A8F9636821696C
:10DAC0009868FFF723FB02E0012362691370226963
:10DAD00036E06769022928D1042A26D806A9300031
:10DAE000FFF748FF051EC1D0089B0193002B04D00F
:10DAF00061683A784B79934208D8079B009373602A
:10DB0000089B002BB2D128000BB0F0BD0B7906A802
:10DB10005A4323699A18009B9847002803D03B7802
:10DB200001333B70E0E70500E7E73B7842790025E9
:10DB30009A42E8D90179581C4B4322693870D218AF
:10DB40006168A8E727693B1D01933B68002B04D15E
:10DB50003000FFF755FF0500D5E7022915D106A9CA
:10DB60003000FFF707FF002800D17FE7019A6168C6
:10DB700006A83B689847051E00D177E7089B0093ED
:10DB8000002BF3D1079B7360BDE701292CD000293E
:10DB900009D0052900D069E7042203A93000FFF766
:10DBA00002FF042526E003AB5B184D1C00930B2DF0
:10DBB00000D15BE7012200993000FFF7F4FE002856
:10DBC00000D153E7009B29001B785BB2002BEADBF6
:10DBD0000B4B0895069303AB0793002309933B680F
:10DBE000019A616806A858E7082203A93000FFF7E8
:10DBF000DAFE0825002800D138E7E9E770F20300D3
:10DC00003DD8030070B503004268002011788142BE
:10DC100010D011000C315960117B81420BD1196871
:10DC2000986059608A78DC68A2181A61C97849B28C
:10DC300052185A6170BD3025547811792540302D25
:10DC40001AD1567B3540302D16D191781C69611A56
:10DC50001961010030205478044202D198680130E3
:10DC60009860907B4118186941181961D27B012096
:10DC700052B289185961DDE70F2025008543202D18
:10DC800002D150794143E5E73F208443802CE1D124
:10DC90000421DFE713B51D4C638822899A4213D80B
:10DCA00062899A4210D3636A002B2BD001A801220B
:10DCB00004E0636A002B25D0002201A8027020E056
:10DCC000A1690CE0082019E023002D331B78002BFC
:10DCD000EFD123002C331B78002BF1D161690C4B61
:10DCE0005B68002BEED00720042907D90948436957
:10DCF000002BE7D0FEF7D8FB002803D0A36A002B47
:10DD000000D0984700232D34237013BD4C380020D9
:10DD100050310020583100207BDF70477ADF704798
:10DD200076DF704713B5174C174BE08D984212D031
:10DD300022002C3213780133DBB21370217F994219
:10DD40000AD321000831FFF715FB002803D0A36A8E
:10DD5000002B00D0984713BD00231370631CDB7F9A
:10DD6000002B08D03B21FFF7DBFF002803D0A36A7C
:10DD7000002B00D09847636A002BECD0002201A84A
:10DD80000270E7E74C380020FFFF0000A0230322C9
:10DD9000BB49DB05F0B55A50BA4901265A50A122B9
:10DDA0008021D2008903995002219950002395B017
:10DDB00004AF7B70BB7007333E70FB70FEF772FCE4
:10DDC000041E6DD1B048FFF75EF8041E68D1AF4A5B
:10DDD000AF4BB04C1A604822AF4B1A80AF4AB04BE1
:10DDE0001A6025686D0B354003D08022AD4B92013F
:10DDF000DA67AD493800FFF74AF8002806D0002D51
:10DE000002D080239B012360FEF73EFE0122A74B38
:10DE10001A70C5239B00E3589B0D1342F4D0802356
:10DE2000A34ADB035168002901D1236002E0116895
:10DE30000B4313600DAD142200212800FCF7E6FF10
:10DE400001232B80002301222B612B7B08AE9343FF
:10DE50002B73984B31000193019B280008932A7281
:10DE60006A72AA72FFF711F8019B041E18D1924A38
:10DE7000924B21001A6028000822FCF7C7FF0122FC
:10DE80001023300013433B70FDF77CFE041E07D1C6
:10DE90007378310001337370FDF776FE041E02D0F3
:10DEA000200015B0F0BD864C200001F064F8210080
:10DEB00082B23800FDF762FE041EF1D10C232B80E4
:10DEC000DB186B807933FF332800AC80EB80FFF7E1
:10DED00025FF041EE4D101227A4B52421A8001230D
:10DEE00002A98B70784B794A01200B80FDF740FE28
:10DEF000041ED5D110227649380001F033F8634969
:10DF000038004A31FDF72AFE041EC9D101001C2247
:10DF10002800FCF77BFF210014223000FCF776FF7D
:10DF2000210003226846FCF771FF04232A7803AF1F
:10DF300013432B70654B0F229B782900BB70022383
:10DF40003B806B465B78376093430E3A13430E3247
:10DF50001340013213436A46537093780622934369
:10DF6000043A1343013A13436A46937014237260D0
:10DF7000B381564A454B10884C333200FDF7F6FD0D
:10DF8000041E00D08CE701001C222800FCF73EFF95
:10DF9000210014223000FCF739FF210003226846DB
:10DFA000FCF734FF08222B782900134392181343FF
:10DFB0002B70464B013A9B783760BB7001233B8046
:10DFC0006B465B7893430E3A13430E321340013293
:10DFD00013436A465370937806229343043A1343DB
:10DFE0000E3213430F3A13436A469370172372603D
:10DFF000B381364A254B108854333200FDF7B6FD05
:10E00000041E00D04CE70123324A11680B43136011
:10E0100001001C222800FCF7F9FE2F4B2F4A0E931B
:10E020008023DB010F9303232B7313002C491391DF
:10E0300015CD15C315CD15C300221960294B2A48EB
:10E040001A70FFF769FE041E00D029E70122274B52
:10E0500052421A800022264B08341A70254B5B6806
:10E06000934200D11CE7244B1A7C002A00D017E70A
:10E070005A74224A5A61FDF713FD040010E7C046A6
:10E08000540700000407000000AC03007C380020A7
:10E09000DC34002000E100E0DA34002081CC030011
:10E0A000E434002004E100E0CDD20300E03400209D
:10E0B00048310020002C002021AE0300D434002081
:10E0C000A4F20300682C002059FEFFFFC438002092
:10E0D00094F20300F0340020CD0C00005C380020E6
:10E0E000D9C2030079380020543800207A38002043
:10E0F00078380020503100205831002025DD030001
:10E1000003210A4802680A430260094802680A4378
:10E1100002600849084A094B9B1A03DD043BC858B2
:10E12000D050FBDCFEF7B5FEFCF7FAFD24050040FD
:10E130005405004068F30300002C0020902C0020C0
:10E14000FEE7FEE7FEE7FEE7FEE7FEE7002A03D074
:10E15000013A8B5C8354F9E7704710B5013AD2B2AB
:10E1600053B2002B07DB9B00C458CB589C4204D809
:10E17000F4D2FF2002E0002000E0012040B210BDF8
:10E1800070B50824E31ADB000133041C002003A54A
:10E190005B1920C940CAAD1920C4184720C940CA1C
:10E1A000754120C420C940CA754120C420C940CA55
:10E1B000754120C420C940CA754120C420C940CA45
:10E1C000754120C420C940CA754120C420C940CA35
:10E1D000754120C4404170BD0000000000000000F7
:10E1E00070B50824E31ADB000133002403A5C04600
:10E1F0005B1920C940CAAD1B20C0184720C940CABE
:10E20000B54120C020C940CAB54120C020C940CA7C
:10E21000B54120C020C940CAB54120C020C940CA6C
:10E22000B54120C020C940CAB54120C020C940CA5C
:10E23000B54120C064416042604170BDF0B55F46A9
:10E2400056464D464446F0B4013B9B0098465B0061
:10E250009946002300240025002601B4002702E08F
:10E26000370040463F1A9A46A346AC46B646F01BD6
:10E270001458C859030C80B2250CA4B21E006E437A
:10E280006343454360431C041B0C00195E412C048E
:10E290002D0C00196E4153465C4665461B187441AF
:10E2A0000020454176460437474501DCB742DADDB8
:10E2B0000098835123462C46002504364645CDDD83
:10E2C0004E45CDDD835101BC3CBC90469946A246EB
:10E2D000AB46F0BDF0B55F4656464D464446F0B4F9
:10E2E000013A9200904652009146002200230024F9
:10E2F000002501B4002602E02E004046361A924660
:10E300009B46A446AE46AF1BCB598859020C80B23F
:10E310001C0C9BB2150065435A43444358431304F5
:10E32000120CC01855412304240CC01865415246F4
:10E330005B466446BE4203DA002712186B417C41FB
:10E34000002712186B417C4175460436AE4202DA52
:10E35000AF1BBE42D3DD009842511A46234600242B
:10E3600004354545C6DD4D45C6DD425101BC3CBCCA
:10E3700090469946A246AB46F0BD002310B55AB26E
:10E380008A4205DA0024920001331450DBB2F6E72A
:10E3900010BDF7B51E1C01910223F15E051CC81DBE
:10E3A000C3171F315B0F1B18C817C00E4118491146
:10E3B000DB100091141E9C4200D91C1C6B460027E8
:10E3C000DF57281C391CFFF7D8FF221C281C019995
:10E3D000FFF7BCFE0223F25EE400944220D9A41AA7
:10E3E0000022009B9B00EB18043B191D8D4209D2B3
:10E3F0001968081CE04002431A602022121B914059
:10E400000A1CF1E72436301C291C3A1CFFF7A5FE34
:10E41000012805D0281C291C321C3B1CFFF7E0FEFC
:10E42000F7BD00231A1C10B55CB28C4205DAA400BB
:10E43000245801332243DBB2F6E75042504110BD6D
:10E440001F234A1119401E3B8B4092001058184060
:10E45000704700000139C9B24BB2002B0ADA002321
:10E460000131C9B2994213D00A4A49B28A189200BE
:10E47000125804E09B001B58002BEBD0EFE7002A5A
:10E4800002D052080133FAE70139490159188BB219
:10E4900018B27047FFFFFF3F30B5002463B29342CC
:10E4A00005DA9B00CD580134C550E4B2F6E730BD23
:10E4B000F0B50C1C00278BB00822051CFFF7ECFF01
:10E4C000E36A02A80593236B011C0693636B021C8D
:10E4D0000793A36B04970893E36B039709930823AF
:10E4E0000297FFF74DFE291C061C02AA0823281CD0
:10E4F000FFF746FE236B86190593636B02A806930C
:10E50000A36B011C0793E36B021C08930823099774
:10E51000FFF736FE291C361802AA0823281CFFF72D
:10E520002FFE236A36180293636A291C0393A36A99
:10E5300002AA0493A36B281C0893E36B0797099323
:10E54000082306970597FFF71BFE636AA26B0293E9
:10E55000A36A06920393E36AE26B0493636B361833
:10E5600005930893236A07920993291C02AA08239A
:10E57000281CFFF705FEE36A36180293236B291C5B
:10E580000393636B02AA0493236A281C0893A36A6B
:10E5900007970993082306970597FFF721FE236B3A
:10E5A000361A0293636B291C0393A36B02AA04938C
:10E5B000E36B281C0593636A07970893E36A069741
:10E5C00009930823FFF70CFE636B361A0293A36BC3
:10E5D000291C0393E36B02AA0493236A281C059366
:10E5E000636A08970693A36A0793236B099308232A
:10E5F000FFF7F6FDA36B361A0293E36B281C039317
:10E60000636A291C0593A36A02AA0693E36A049726
:10E610000793636B0897019309930823FFF7E0FDC5
:10E62000341A0F4EBC4216DA321D281C291C08234E
:10E63000FFF7A6FD0419F7D410E0301D291C0822AD
:10E64000FFF78BFD012809D0321D281C291C082347
:10E65000FFF7C6FD241A002CEFD0F5E70BB0F0BD94
:10E66000ACF20300002330B5013AD2B254B2002C10
:10E6700007DBA4000D590459013A6C402343D2B280
:10E68000F4E75842584130BD002210B589004118C6
:10E6900004390B1D984205D20C68630813430B60C4
:10E6A000E207F5E710BD000070B5141C0268051CF8
:10E6B0000B1C0026D20705D51A1C291C231CFFF7AA
:10E6C0005FFD061C281C211CFFF7DEFF002E08D072
:10E6D000044BE4188023A400281902681B06134386
:10E6E000036070BDFFFFFF3F70B500251E1C04AB2B
:10E6F0005D57041C2B1CFFF743FD002806D1301C7E
:10E70000211C2A1CFFF729FD012805D0201C211CF3
:10E71000321C2B1CFFF764FD70BD70B500251E1C5C
:10E7200004AB5D57041C2B1CFFF75AFD002805D0D5
:10E73000201C211C321C2B1CFFF722FD70BD000089
:10E74000F0B51D1CA7B016AB03900591101C291C39
:10E750000493161CFFF77EFEAB01181A83B20093D8
:10E760006B460027DF5F3D4BFC17E40EE419641194
:10E77000E4B23B4004D52027013B7F423B430133B9
:10E7800064B29FB2211C06A8FFF7F7FD3BB2A400BC
:10E79000002B11DD06AA14190022111CAF00BA4289
:10E7A00010D0B05898400143A1502021B058C91A48
:10E7B000C8400432011CF2E706AB1819311C2A1CB0
:10E7C000FFF76AFE01246B000193AF0006ABDB1973
:10E7D00002936B4600229B5E002B36DB0020031C5D
:10E7E000019A41B2914216DA04AEA2009259890010
:10E7F000565806AA8A58B21AD21AB24202D0964283
:10E800009B415B420126361BB60004AFBE59013066
:10E810007250C0B2E4E7E41A6242624106AE301CB4
:10E82000291CD4B2FFF730FF6B1EAA009B0092593F
:10E830009959D2070A430298291C9A51FFF724FFDD
:10E840000098013883B20093C3E704ABA400039897
:10E85000E1582A1CFFF720FE27B0F0BD1F00008002
:10E8600070B50024061C1D1C90B014AB1C576846E4
:10E87000231CFFF7E3FC301C69462A1C231CFFF70E
:10E880005FFF10B070BD30B51C1C0023051C91B09B
:10E89000E3566846AC34FFF7D1FC2368281C694670
:10E8A000984711B030BD30B5141C0022051C91B042
:10E8B000A2566846AC34FFF70DFD2368281C694654
:10E8C000984711B030BDF0B5141C8DB0051C0E1C5E
:10E8D00004A800212022FCF799FA03232778281C9A
:10E8E000311C221C7FB20493FFF7DDFF231D281C7F
:10E8F000291C04AA00970393FFF70FFF281C291C6B
:10E90000321C231CFFF7BFFF221C00978432281CF7
:10E91000291C039BFFF7E8FE0DB0F0BDF0B5002603
:10E9200097B0049103939E57051C311C101C141CB6
:10E93000FFF777FD002800D096E006A80499039A17
:10E94000FFF7B1FF039B0EA8291C06AAFFF79BFF48
:10E9500006A8011C039AFFF7A6FF0498039B011C5D
:10E96000221CFFF790FF201C211C039AFFF79BFF3E
:10E97000039B281C1F1D291C221C3B1C0096FFF713
:10E98000B3FE201C211C221C3B1C0096FFF7ACFE92
:10E99000201C291C221C3B1C0096FFF7BEFE281CD5
:10E9A000291C221C039BFFF76EFF201C291C2A1C1C
:10E9B0003B1C0096FFF798FE281C3B1C0096291C68
:10E9C000221CFFF791FE2B68281CDB0713D53A1C8D
:10E9D000331C291CFFF7D4FB311C0590281CFFF7C2
:10E9E00053FE224B059AF3189B00EB181968D207C7
:10E9F0000A431A6002E0311CFFF746FE201C291C66
:10EA0000039AFFF750FF201C211C0EAA3B1C009606
:10EA1000FFF783FE201C211C0EAA3B1C0096FFF76B
:10EA20007CFE0EA8011C221C3B1C0096FFF775FE05
:10EA3000281C291C0EAA039BFFF725FF06A8021C11
:10EA40003B1C291C0096FFF768FE281C211C321C69
:10EA5000FFF722FD201C0499321CFFF71DFD0498CE
:10EA600006A9321CFFF718FD17B0F0BDFFFFFF3FEE
:10EA7000F0B50025141C1E1C8DB0129B0290039152
:10EA80005D571F1D3B1C04A8111C0095029AFFF73F
:10EA900044FE04A8011C129AFFF705FF029804AA7D
:10EAA000011C129BFFF7EFFE201C211C04AA129BE5
:10EAB000FFF7E9FE3B1C301C311C039A0095FFF761
:10EAC0002CFE04A8311C129AFFF7EDFE04A8011CCD
:10EAD000029A3B1C0095FFF720FE04A8011C221C93
:10EAE0003B1C0095FFF719FE201C211C029A3B1CC1
:10EAF0000095FFF712FE0398221C011C129BFFF7E2
:10EB0000C2FE201C029904AA3B1C0095FFF705FEDB
:10EB1000301C311C221C129BFFF7B5FE301C311C2F
:10EB2000039A3B1C0095FFF7F8FD201C04A92A1C42
:10EB3000FFF7B2FC0DB0F0BDF0B51C1C071C161C95
:10EB40000D1C89B06846111C1A1CFFF7ACFE381C5E
:10EB5000391C6A46231CFFF796FE68466946321C3C
:10EB6000231CFFF790FE281C291C6A46231CFFF774
:10EB70008AFE09B0F0BDF0B5061CA3B00F1C081C3E
:10EB8000191C151C1C1CFFF74CFC002804D0301C61
:10EB9000211CFFF7F2FB77E002A8391C221CFFF7CB
:10EBA0007BFC0AA8291C221CFFF776FC12A8211C5A
:10EBB000FFF7E3FB01231AA8211C1293FFF7DDFBEB
:10EBC00002A80AA9221CFFF7C8FA002857D0029B06
:10EBD00001930123019A1A4204D102A8211CFFF7D4
:10EBE00053FD27E00A9A01921A4204D10AA8211C77
:10EBF000FFF74AFD3DE000281EDD02A80AAA011C1D
:10EC0000231CFFF7EDFA02A8211CFFF73DFD12A817
:10EC10001AA9221CFFF7A1FA002805DA12A8011C84
:10EC20002A1C231CFFF7ACFA12A8011C1AAA231CE9
:10EC3000FFF7D6FA12A81DE00AA802AA011C231C9D
:10EC4000FFF7CEFA0AA8211CFFF71EFD1AA812A989
:10EC5000221CFFF782FA002805DA1AA8011C2A1CD8
:10EC6000231CFFF78DFA1AA8011C12AA231CFFF718
:10EC7000B7FA1AA8291C221CFFF716FDA0E7301CC2
:10EC800012A9221CFFF708FC23B0F0BD0048704712
:10EC9000ACF20300F0B50025EFB01C1C749B08908B
:10ECA0001B7807910493749B099202229B5E4EAFDE
:10ECB0001F33DA17D20ED3185B115BB20393013BFB
:10ECC0009B000693069A26AB56AED550D55195516A
:10ECD0000122749B211C9A56381CFFF737FA012237
:10ECE000749B301C9A56A118FFF730FA10246B461B
:10ECF0001C57381C211CFFF794FB0490A84200D03D
:10ED00001EE1301C211CFFF78CFB049D05900028A0
:10ED100000D015E1749B391C2433181C039A04930A
:10ED2000FFF71BFA059D012800D009E10498311C6A
:10ED3000039AFFF712FA059D012800D000E1311C6B
:10ED40001EA8049A039BFFF716FF069B059A0EAEBA
:10ED50009A51301C0799099A749BFFF71AFB039B81
:10ED6000301C311C00931EAA049BFFF779FD039B06
:10ED70005EAD391C009316A8049B1EAAFFF770FD18
:10ED8000281C0899221CFFF787FBA3000693EF18A5
:10ED9000069A089B381C9918221CFFF77DFB749B70
:10EDA00036A84433191C221C0993FFF775FB211C5C
:10EDB000749B10318900591804313EA8221CFFF7BA
:10EDC0006BFB749B291C04331EA836AA009407937E
:10EDD000FFF7A3FC749B2A1C009336A83EA93B1C9A
:10EDE000FFF746FE1EA8011C079A231CFFF7C3FE6F
:10EDF000281C1EAA391C749BFFF79EFE059B301C25
:10EE00000A93099B03990B93089B0D950C93FFF7AD
:10EE100021FB0399061C16A8FFF71CFB051CB0423A
:10EE200000DA351CADB26F1E3FB2391C0EA8FFF7D9
:10EE300007FB061C391C701E864116A8FFF700FB55
:10EE4000431E9841400006430AABB600F65826A878
:10EE5000311C221CFFF720FB069B2EA8F118221C58
:10EE6000FFF71AFB1EA8211CFFF787FA0123023DBA
:10EE70001E93ADB22FB2002F43DB749B1EAAA433A6
:10EE80001E6826A8749B2EA9B047391C0EA8FFF750
:10EE9000D7FA061C391C701E864116A8FFF7D0FA57
:10EEA000431E984140000643B6000AABF658002EB8
:10EEB00025D036A8311C221CFFF7EEFA069B3EA88F
:10EEC000F118221CFFF7E8FA36A83EA91EAA749B87
:10EED000FFF732FE46A826A936AA079B0094FFF743
:10EEE0001CFC749B36A800933EA926AA2EABFFF704
:10EEF000BFFD1EA8011C46AA749BFFF7C4FC013D80
:10EF0000B7E71EA8011C079A231CFFF734FE26A8AA
:10EF10002EA91EAA749BFFF70FFE049826A9039A38
:10EF2000FFF71BF9012805D026A8011C049A039BB2
:10EF3000FFF756F926A84EA9221CFFF793FB051CE4
:10EF4000281C6FB0F0BD30B50024A24201D10020D2
:10EF500005E0035D651C0C5DA34201D0181B30BDAC
:10EF60002C00F2E7002310B59A4200D110BDCC5C12
:10EF7000C4540133F8E70023C25C0133002AFBD1FB
:10EF8000581E704702B4714649084900095C49009F
:10EF90008E4402BC7047C04603B471464908400025
:10EFA0004900095E49008E4403BC704703B47146B2
:10EFB000490840004900095A49008E4403BC704783
:10EFC0009140031C90409C46203A93401943524282
:10EFD0006346D34019437047F8B5C046F8BC08BC37
:10EFE0009E467047F8B5C046F8BC08BC9E467047C0
:10EFF000002C00204109D6C659653C51CBD5301AAA
:10F00000D321743D0E56B1DA1A7E6D8DDF361A317A
:10F0100065F0315C05025569EDC6B3AF3F8058CE4F
:10F02000EEA67D208159A0D227EE2C68ECF20BF0E1
:10F03000D3198CED982F8A4291443771CFFBC0B51C
:10F04000A5DBB5E95BC25639F111F159A4823F92B3
:10F05000D55E1CAB98AA07D8015B8312BE8531240C
:10F06000C37D0C55745DBE72FEB1DE80A706DC9BCD
:10F0700074F19BC1C1699BE48647BEEFC69DC10F79
:10F08000CCA10C246F2CE92DAA84744ADCA9B05CB5
:10F09000DA88F97652513E986DC631A8C82703B078
:10F0A000C77F59BFF30BE0C64791A7D55163CA0686
:10F0B00067292914850AB72738211B2EFC6D2C4D92
:10F0C000130D385354730A65BB0A6A762EC9C28180
:10F0D000852C7292A1E8BFA24B661AA8708B4BC216
:10F0E000A3516CC719E892D1240699D685350EF440
:10F0F00070A06A1016C1A419086C371E4C774827F7
:10F10000B5BCB034B30C1C394AAAD84E4FCA9C5B6C
:10F11000F36F2E68EE828F746F63A5781478C884BD
:10F120000802C78CFAFFBE90EB6C50A4F7A3F9BE9F
:10F13000F27871C6011104FC040000000000000018
:10F14000021104FC0400000000000000032104FC84
:10F150000404000000000000041101FF0100000091
:10F1600000000000051102FE040000000000000085
:10F17000061104FC0400000000000000071104FC5C
:10F180000400000000000000081701FF220000003A
:10F19000D4F10300091001FF01000000D0F10300C9
:10F1A000000000000000000000000000011704FC47
:10F1B0007000000040F20300021704FCB4000000DD
:10F1C00010F203000000000000000000000000003A
:10F1D000000000000101000001000000000000002C
:10F1E00002050000210000000000000000000000F7
:10F1F0000000000000000000010100000400000009
:10F2000000000000000000000000000000000000FE
:10F21000010700007000000040F20300020100003E
:10F220000100000000000000030500004100000094
:10F2300000000000000000000000000000000000CE
:10F24000011101FF0100000000000000021702FE92
:10F250006400000034F10300031704FC0400000004
:10F26000F8F10300000000000000000000000000B2
:10F27000FBCD03009DCD03003DCD0300AFCC0300CB
:10F2800095CC030001CD0300C5CC030041D10300A0
:10F290000000000050EADA308883B89F604F15F311
:10F2A0000000C98E4446555F434B4D0008200001C5
:10F2B000FFFFFFFFFFFFFFFFFFFFFFFF000000005A
:10F2C000000000000000000001000000FFFFFFFF41
:10F2D000512563FCC2CAB9F3849E17A7ADFAE6BCF8
:10F2E000FFFFFFFFFFFFFFFF00000000FFFFFFFF2A
:10F2F00096C298D84539A1F4A033EB2D817D0377D0
:10F30000F240A463E5E6BCF847422CE1F2D1176B6A
:10F31000F551BF376840B6CBCE5E316B5733CE2B3D
:10F32000169E0F7C4AEBE78E9B7F1AFEE242E34F6C
:10F330004B60D2273E3CCE3BF6B053CCB0061D65A9
:10F34000BC86987655BDEBB3E7933AAAD835C65A32
:10F350001DE90300C7E80300B1E40300000000005A
:08F36000C0B9FF7F01000000AD
:10F368000000000000000000000000000000000095
:10F378000000000000000000000000000000000085
:10F388000000000000000000000000000000000075
:10F398000000000000000000000000000000000065
:10F3A8000000000000000000000000000000000055
:10F3B8000000000000000000000000000000000045
:10F3C800010000000024F400FFFF0000E9AC030086
:08F3D800C1AC030000000000BD
:10F3E00000100000000C040015C403000000000021
:08F3F0008DDD030009D30300C9
:020000020000FC
:020000041000EA
:0410140000AC030029
:040000033000E101E7
:00000001FF
