
zephyr.elf:     file format elf32-littlearm


Disassembly of section text:

0000c000 <_vector_table-0x200>:
	...

0000c200 <_vector_table>:
    c200:	200068b0 	.word	0x200068b0
    c204:	0000f06d 	.word	0x0000f06d
    c208:	0000f0e1 	.word	0x0000f0e1
    c20c:	0000ef01 	.word	0x0000ef01
    c210:	0000ef01 	.word	0x0000ef01
    c214:	0000ef01 	.word	0x0000ef01
    c218:	0000ef01 	.word	0x0000ef01
    c21c:	0000ef01 	.word	0x0000ef01
    c220:	0000ef01 	.word	0x0000ef01
    c224:	0000ef01 	.word	0x0000ef01
    c228:	0000ef01 	.word	0x0000ef01
    c22c:	0000ead1 	.word	0x0000ead1
    c230:	0000ef01 	.word	0x0000ef01
    c234:	0000ef01 	.word	0x0000ef01
    c238:	0000ea8d 	.word	0x0000ea8d
    c23c:	0000ef01 	.word	0x0000ef01

0000c240 <_irq_vector_table>:
    c240:	0000f031 00022d23 0000f031 0000f031     1...#-..1...1...
    c250:	0000f031 0000f031 0000f031 0000f031     1...1...1...1...
    c260:	0000f031 0000f031 0000f031 0000f031     1...1...1...1...
    c270:	0000f031 0000f031 0000f031 0000f031     1...1...1...1...
    c280:	0000f031 0000f031 0000f031 0000f031     1...1...1...1...
    c290:	0000f031 0000f031 0000f031 0000f031     1...1...1...1...
    c2a0:	0000f031 0000f031 0000f031 0000f031     1...1...1...1...
    c2b0:	0000f031 0000f031 0000f031 0000f031     1...1...1...1...
    c2c0:	0000f031 0000f031 0000f031 0000f031     1...1...1...1...
    c2d0:	0000f031 0000f031 0000f031              1...1...1...

0000c2dc <_sw_isr_table>:
    c2dc:	00000000 000109dd 00000000 0000ee59     ............Y...
    c2ec:	20008280 000113cb 00000000 0000ee59     ... ........Y...
    c2fc:	00000000 0000ee59 00000000 0000ee59     ....Y.......Y...
    c30c:	200082b0 000110f9 00000000 0000ee59     ... ........Y...
    c31c:	00000000 0000ee59 00000000 0000ee59     ....Y.......Y...
    c32c:	00000000 0000ee59 00000000 00022ce5     ....Y........,..
    c33c:	00000000 0000ee59 00000000 00022d1f     ....Y........-..
    c34c:	00000000 0000ee59 00000000 0000ee59     ....Y.......Y...
    c35c:	00000000 0000ee59 00000000 00011511     ....Y...........
    c36c:	00000000 0000ee59 00000000 0000ee59     ....Y.......Y...
    c37c:	00000000 0000ee59 00000000 0000ee59     ....Y.......Y...
    c38c:	00000000 0000ee59 00000000 0000ee59     ....Y.......Y...
    c39c:	00000000 00022d19 00000000 0000ee59     .....-......Y...
    c3ac:	00000000 0000ee59 00000000 0000ee59     ....Y.......Y...
    c3bc:	00000000 0000ee59 00000000 0000ee59     ....Y.......Y...
    c3cc:	00000000 0000ee59 00000000 0000ee59     ....Y.......Y...
    c3dc:	00000000 0000ee59 00000000 0000ee59     ....Y.......Y...
    c3ec:	00000000 0000ee59 00000000 0000ee59     ....Y.......Y...
    c3fc:	00000000 0000ee59 00000000 0000ee59     ....Y.......Y...
    c40c:	00000000 0000ee59                       ....Y...

0000c414 <__aeabi_uldivmod>:
    c414:	b953      	cbnz	r3, c42c <__aeabi_uldivmod+0x18>
    c416:	b94a      	cbnz	r2, c42c <__aeabi_uldivmod+0x18>
    c418:	2900      	cmp	r1, #0
    c41a:	bf08      	it	eq
    c41c:	2800      	cmpeq	r0, #0
    c41e:	bf1c      	itt	ne
    c420:	f04f 31ff 	movne.w	r1, #4294967295	; 0xffffffff
    c424:	f04f 30ff 	movne.w	r0, #4294967295	; 0xffffffff
    c428:	f000 b98e 	b.w	c748 <__aeabi_idiv0>
    c42c:	f1ad 0c08 	sub.w	ip, sp, #8
    c430:	e96d ce04 	strd	ip, lr, [sp, #-16]!
    c434:	f000 f81a 	bl	c46c <__udivmoddi4>
    c438:	f8dd e004 	ldr.w	lr, [sp, #4]
    c43c:	e9dd 2302 	ldrd	r2, r3, [sp, #8]
    c440:	b004      	add	sp, #16
    c442:	4770      	bx	lr

0000c444 <__popcountsi2>:
    c444:	0843      	lsrs	r3, r0, #1
    c446:	f003 3355 	and.w	r3, r3, #1431655765	; 0x55555555
    c44a:	1ac0      	subs	r0, r0, r3
    c44c:	0883      	lsrs	r3, r0, #2
    c44e:	f003 3333 	and.w	r3, r3, #858993459	; 0x33333333
    c452:	f000 3033 	and.w	r0, r0, #858993459	; 0x33333333
    c456:	4418      	add	r0, r3
    c458:	eb00 1010 	add.w	r0, r0, r0, lsr #4
    c45c:	f000 300f 	and.w	r0, r0, #252645135	; 0xf0f0f0f
    c460:	eb00 2000 	add.w	r0, r0, r0, lsl #8
    c464:	eb00 4000 	add.w	r0, r0, r0, lsl #16
    c468:	0e00      	lsrs	r0, r0, #24
    c46a:	4770      	bx	lr

0000c46c <__udivmoddi4>:
    c46c:	e92d 47f0 	stmdb	sp!, {r4, r5, r6, r7, r8, r9, sl, lr}
    c470:	468c      	mov	ip, r1
    c472:	460d      	mov	r5, r1
    c474:	4604      	mov	r4, r0
    c476:	9e08      	ldr	r6, [sp, #32]
    c478:	2b00      	cmp	r3, #0
    c47a:	d151      	bne.n	c520 <__udivmoddi4+0xb4>
    c47c:	428a      	cmp	r2, r1
    c47e:	4617      	mov	r7, r2
    c480:	d96d      	bls.n	c55e <__udivmoddi4+0xf2>
    c482:	fab2 fe82 	clz	lr, r2
    c486:	f1be 0f00 	cmp.w	lr, #0
    c48a:	d00b      	beq.n	c4a4 <__udivmoddi4+0x38>
    c48c:	f1ce 0c20 	rsb	ip, lr, #32
    c490:	fa01 f50e 	lsl.w	r5, r1, lr
    c494:	fa20 fc0c 	lsr.w	ip, r0, ip
    c498:	fa02 f70e 	lsl.w	r7, r2, lr
    c49c:	ea4c 0c05 	orr.w	ip, ip, r5
    c4a0:	fa00 f40e 	lsl.w	r4, r0, lr
    c4a4:	ea4f 4a17 	mov.w	sl, r7, lsr #16
    c4a8:	0c25      	lsrs	r5, r4, #16
    c4aa:	fbbc f8fa 	udiv	r8, ip, sl
    c4ae:	fa1f f987 	uxth.w	r9, r7
    c4b2:	fb0a cc18 	mls	ip, sl, r8, ip
    c4b6:	ea45 450c 	orr.w	r5, r5, ip, lsl #16
    c4ba:	fb08 f309 	mul.w	r3, r8, r9
    c4be:	42ab      	cmp	r3, r5
    c4c0:	d90a      	bls.n	c4d8 <__udivmoddi4+0x6c>
    c4c2:	19ed      	adds	r5, r5, r7
    c4c4:	f108 32ff 	add.w	r2, r8, #4294967295	; 0xffffffff
    c4c8:	f080 8123 	bcs.w	c712 <__udivmoddi4+0x2a6>
    c4cc:	42ab      	cmp	r3, r5
    c4ce:	f240 8120 	bls.w	c712 <__udivmoddi4+0x2a6>
    c4d2:	f1a8 0802 	sub.w	r8, r8, #2
    c4d6:	443d      	add	r5, r7
    c4d8:	1aed      	subs	r5, r5, r3
    c4da:	b2a4      	uxth	r4, r4
    c4dc:	fbb5 f0fa 	udiv	r0, r5, sl
    c4e0:	fb0a 5510 	mls	r5, sl, r0, r5
    c4e4:	ea44 4405 	orr.w	r4, r4, r5, lsl #16
    c4e8:	fb00 f909 	mul.w	r9, r0, r9
    c4ec:	45a1      	cmp	r9, r4
    c4ee:	d909      	bls.n	c504 <__udivmoddi4+0x98>
    c4f0:	19e4      	adds	r4, r4, r7
    c4f2:	f100 33ff 	add.w	r3, r0, #4294967295	; 0xffffffff
    c4f6:	f080 810a 	bcs.w	c70e <__udivmoddi4+0x2a2>
    c4fa:	45a1      	cmp	r9, r4
    c4fc:	f240 8107 	bls.w	c70e <__udivmoddi4+0x2a2>
    c500:	3802      	subs	r0, #2
    c502:	443c      	add	r4, r7
    c504:	eba4 0409 	sub.w	r4, r4, r9
    c508:	ea40 4008 	orr.w	r0, r0, r8, lsl #16
    c50c:	2100      	movs	r1, #0
    c50e:	2e00      	cmp	r6, #0
    c510:	d061      	beq.n	c5d6 <__udivmoddi4+0x16a>
    c512:	fa24 f40e 	lsr.w	r4, r4, lr
    c516:	2300      	movs	r3, #0
    c518:	6034      	str	r4, [r6, #0]
    c51a:	6073      	str	r3, [r6, #4]
    c51c:	e8bd 87f0 	ldmia.w	sp!, {r4, r5, r6, r7, r8, r9, sl, pc}
    c520:	428b      	cmp	r3, r1
    c522:	d907      	bls.n	c534 <__udivmoddi4+0xc8>
    c524:	2e00      	cmp	r6, #0
    c526:	d054      	beq.n	c5d2 <__udivmoddi4+0x166>
    c528:	2100      	movs	r1, #0
    c52a:	e886 0021 	stmia.w	r6, {r0, r5}
    c52e:	4608      	mov	r0, r1
    c530:	e8bd 87f0 	ldmia.w	sp!, {r4, r5, r6, r7, r8, r9, sl, pc}
    c534:	fab3 f183 	clz	r1, r3
    c538:	2900      	cmp	r1, #0
    c53a:	f040 808e 	bne.w	c65a <__udivmoddi4+0x1ee>
    c53e:	42ab      	cmp	r3, r5
    c540:	d302      	bcc.n	c548 <__udivmoddi4+0xdc>
    c542:	4282      	cmp	r2, r0
    c544:	f200 80fa 	bhi.w	c73c <__udivmoddi4+0x2d0>
    c548:	1a84      	subs	r4, r0, r2
    c54a:	eb65 0503 	sbc.w	r5, r5, r3
    c54e:	2001      	movs	r0, #1
    c550:	46ac      	mov	ip, r5
    c552:	2e00      	cmp	r6, #0
    c554:	d03f      	beq.n	c5d6 <__udivmoddi4+0x16a>
    c556:	e886 1010 	stmia.w	r6, {r4, ip}
    c55a:	e8bd 87f0 	ldmia.w	sp!, {r4, r5, r6, r7, r8, r9, sl, pc}
    c55e:	b912      	cbnz	r2, c566 <__udivmoddi4+0xfa>
    c560:	2701      	movs	r7, #1
    c562:	fbb7 f7f2 	udiv	r7, r7, r2
    c566:	fab7 fe87 	clz	lr, r7
    c56a:	f1be 0f00 	cmp.w	lr, #0
    c56e:	d134      	bne.n	c5da <__udivmoddi4+0x16e>
    c570:	1beb      	subs	r3, r5, r7
    c572:	0c3a      	lsrs	r2, r7, #16
    c574:	fa1f fc87 	uxth.w	ip, r7
    c578:	2101      	movs	r1, #1
    c57a:	fbb3 f8f2 	udiv	r8, r3, r2
    c57e:	0c25      	lsrs	r5, r4, #16
    c580:	fb02 3318 	mls	r3, r2, r8, r3
    c584:	ea45 4503 	orr.w	r5, r5, r3, lsl #16
    c588:	fb0c f308 	mul.w	r3, ip, r8
    c58c:	42ab      	cmp	r3, r5
    c58e:	d907      	bls.n	c5a0 <__udivmoddi4+0x134>
    c590:	19ed      	adds	r5, r5, r7
    c592:	f108 30ff 	add.w	r0, r8, #4294967295	; 0xffffffff
    c596:	d202      	bcs.n	c59e <__udivmoddi4+0x132>
    c598:	42ab      	cmp	r3, r5
    c59a:	f200 80d1 	bhi.w	c740 <__udivmoddi4+0x2d4>
    c59e:	4680      	mov	r8, r0
    c5a0:	1aed      	subs	r5, r5, r3
    c5a2:	b2a3      	uxth	r3, r4
    c5a4:	fbb5 f0f2 	udiv	r0, r5, r2
    c5a8:	fb02 5510 	mls	r5, r2, r0, r5
    c5ac:	ea43 4405 	orr.w	r4, r3, r5, lsl #16
    c5b0:	fb0c fc00 	mul.w	ip, ip, r0
    c5b4:	45a4      	cmp	ip, r4
    c5b6:	d907      	bls.n	c5c8 <__udivmoddi4+0x15c>
    c5b8:	19e4      	adds	r4, r4, r7
    c5ba:	f100 33ff 	add.w	r3, r0, #4294967295	; 0xffffffff
    c5be:	d202      	bcs.n	c5c6 <__udivmoddi4+0x15a>
    c5c0:	45a4      	cmp	ip, r4
    c5c2:	f200 80b8 	bhi.w	c736 <__udivmoddi4+0x2ca>
    c5c6:	4618      	mov	r0, r3
    c5c8:	eba4 040c 	sub.w	r4, r4, ip
    c5cc:	ea40 4008 	orr.w	r0, r0, r8, lsl #16
    c5d0:	e79d      	b.n	c50e <__udivmoddi4+0xa2>
    c5d2:	4631      	mov	r1, r6
    c5d4:	4630      	mov	r0, r6
    c5d6:	e8bd 87f0 	ldmia.w	sp!, {r4, r5, r6, r7, r8, r9, sl, pc}
    c5da:	f1ce 0420 	rsb	r4, lr, #32
    c5de:	fa05 f30e 	lsl.w	r3, r5, lr
    c5e2:	fa07 f70e 	lsl.w	r7, r7, lr
    c5e6:	fa20 f804 	lsr.w	r8, r0, r4
    c5ea:	0c3a      	lsrs	r2, r7, #16
    c5ec:	fa25 f404 	lsr.w	r4, r5, r4
    c5f0:	ea48 0803 	orr.w	r8, r8, r3
    c5f4:	fbb4 f1f2 	udiv	r1, r4, r2
    c5f8:	ea4f 4518 	mov.w	r5, r8, lsr #16
    c5fc:	fb02 4411 	mls	r4, r2, r1, r4
    c600:	fa1f fc87 	uxth.w	ip, r7
    c604:	ea45 4504 	orr.w	r5, r5, r4, lsl #16
    c608:	fb01 f30c 	mul.w	r3, r1, ip
    c60c:	42ab      	cmp	r3, r5
    c60e:	fa00 f40e 	lsl.w	r4, r0, lr
    c612:	d909      	bls.n	c628 <__udivmoddi4+0x1bc>
    c614:	19ed      	adds	r5, r5, r7
    c616:	f101 30ff 	add.w	r0, r1, #4294967295	; 0xffffffff
    c61a:	f080 808a 	bcs.w	c732 <__udivmoddi4+0x2c6>
    c61e:	42ab      	cmp	r3, r5
    c620:	f240 8087 	bls.w	c732 <__udivmoddi4+0x2c6>
    c624:	3902      	subs	r1, #2
    c626:	443d      	add	r5, r7
    c628:	1aeb      	subs	r3, r5, r3
    c62a:	fa1f f588 	uxth.w	r5, r8
    c62e:	fbb3 f0f2 	udiv	r0, r3, r2
    c632:	fb02 3310 	mls	r3, r2, r0, r3
    c636:	ea45 4503 	orr.w	r5, r5, r3, lsl #16
    c63a:	fb00 f30c 	mul.w	r3, r0, ip
    c63e:	42ab      	cmp	r3, r5
    c640:	d907      	bls.n	c652 <__udivmoddi4+0x1e6>
    c642:	19ed      	adds	r5, r5, r7
    c644:	f100 38ff 	add.w	r8, r0, #4294967295	; 0xffffffff
    c648:	d26f      	bcs.n	c72a <__udivmoddi4+0x2be>
    c64a:	42ab      	cmp	r3, r5
    c64c:	d96d      	bls.n	c72a <__udivmoddi4+0x2be>
    c64e:	3802      	subs	r0, #2
    c650:	443d      	add	r5, r7
    c652:	1aeb      	subs	r3, r5, r3
    c654:	ea40 4101 	orr.w	r1, r0, r1, lsl #16
    c658:	e78f      	b.n	c57a <__udivmoddi4+0x10e>
    c65a:	f1c1 0720 	rsb	r7, r1, #32
    c65e:	fa22 f807 	lsr.w	r8, r2, r7
    c662:	408b      	lsls	r3, r1
    c664:	fa05 f401 	lsl.w	r4, r5, r1
    c668:	ea48 0303 	orr.w	r3, r8, r3
    c66c:	fa20 fe07 	lsr.w	lr, r0, r7
    c670:	ea4f 4c13 	mov.w	ip, r3, lsr #16
    c674:	40fd      	lsrs	r5, r7
    c676:	ea4e 0e04 	orr.w	lr, lr, r4
    c67a:	fbb5 f9fc 	udiv	r9, r5, ip
    c67e:	ea4f 441e 	mov.w	r4, lr, lsr #16
    c682:	fb0c 5519 	mls	r5, ip, r9, r5
    c686:	fa1f f883 	uxth.w	r8, r3
    c68a:	ea44 4505 	orr.w	r5, r4, r5, lsl #16
    c68e:	fb09 f408 	mul.w	r4, r9, r8
    c692:	42ac      	cmp	r4, r5
    c694:	fa02 f201 	lsl.w	r2, r2, r1
    c698:	fa00 fa01 	lsl.w	sl, r0, r1
    c69c:	d908      	bls.n	c6b0 <__udivmoddi4+0x244>
    c69e:	18ed      	adds	r5, r5, r3
    c6a0:	f109 30ff 	add.w	r0, r9, #4294967295	; 0xffffffff
    c6a4:	d243      	bcs.n	c72e <__udivmoddi4+0x2c2>
    c6a6:	42ac      	cmp	r4, r5
    c6a8:	d941      	bls.n	c72e <__udivmoddi4+0x2c2>
    c6aa:	f1a9 0902 	sub.w	r9, r9, #2
    c6ae:	441d      	add	r5, r3
    c6b0:	1b2d      	subs	r5, r5, r4
    c6b2:	fa1f fe8e 	uxth.w	lr, lr
    c6b6:	fbb5 f0fc 	udiv	r0, r5, ip
    c6ba:	fb0c 5510 	mls	r5, ip, r0, r5
    c6be:	ea4e 4405 	orr.w	r4, lr, r5, lsl #16
    c6c2:	fb00 f808 	mul.w	r8, r0, r8
    c6c6:	45a0      	cmp	r8, r4
    c6c8:	d907      	bls.n	c6da <__udivmoddi4+0x26e>
    c6ca:	18e4      	adds	r4, r4, r3
    c6cc:	f100 35ff 	add.w	r5, r0, #4294967295	; 0xffffffff
    c6d0:	d229      	bcs.n	c726 <__udivmoddi4+0x2ba>
    c6d2:	45a0      	cmp	r8, r4
    c6d4:	d927      	bls.n	c726 <__udivmoddi4+0x2ba>
    c6d6:	3802      	subs	r0, #2
    c6d8:	441c      	add	r4, r3
    c6da:	ea40 4009 	orr.w	r0, r0, r9, lsl #16
    c6de:	eba4 0408 	sub.w	r4, r4, r8
    c6e2:	fba0 8902 	umull	r8, r9, r0, r2
    c6e6:	454c      	cmp	r4, r9
    c6e8:	46c6      	mov	lr, r8
    c6ea:	464d      	mov	r5, r9
    c6ec:	d315      	bcc.n	c71a <__udivmoddi4+0x2ae>
    c6ee:	d012      	beq.n	c716 <__udivmoddi4+0x2aa>
    c6f0:	b156      	cbz	r6, c708 <__udivmoddi4+0x29c>
    c6f2:	ebba 030e 	subs.w	r3, sl, lr
    c6f6:	eb64 0405 	sbc.w	r4, r4, r5
    c6fa:	fa04 f707 	lsl.w	r7, r4, r7
    c6fe:	40cb      	lsrs	r3, r1
    c700:	431f      	orrs	r7, r3
    c702:	40cc      	lsrs	r4, r1
    c704:	6037      	str	r7, [r6, #0]
    c706:	6074      	str	r4, [r6, #4]
    c708:	2100      	movs	r1, #0
    c70a:	e8bd 87f0 	ldmia.w	sp!, {r4, r5, r6, r7, r8, r9, sl, pc}
    c70e:	4618      	mov	r0, r3
    c710:	e6f8      	b.n	c504 <__udivmoddi4+0x98>
    c712:	4690      	mov	r8, r2
    c714:	e6e0      	b.n	c4d8 <__udivmoddi4+0x6c>
    c716:	45c2      	cmp	sl, r8
    c718:	d2ea      	bcs.n	c6f0 <__udivmoddi4+0x284>
    c71a:	ebb8 0e02 	subs.w	lr, r8, r2
    c71e:	eb69 0503 	sbc.w	r5, r9, r3
    c722:	3801      	subs	r0, #1
    c724:	e7e4      	b.n	c6f0 <__udivmoddi4+0x284>
    c726:	4628      	mov	r0, r5
    c728:	e7d7      	b.n	c6da <__udivmoddi4+0x26e>
    c72a:	4640      	mov	r0, r8
    c72c:	e791      	b.n	c652 <__udivmoddi4+0x1e6>
    c72e:	4681      	mov	r9, r0
    c730:	e7be      	b.n	c6b0 <__udivmoddi4+0x244>
    c732:	4601      	mov	r1, r0
    c734:	e778      	b.n	c628 <__udivmoddi4+0x1bc>
    c736:	3802      	subs	r0, #2
    c738:	443c      	add	r4, r7
    c73a:	e745      	b.n	c5c8 <__udivmoddi4+0x15c>
    c73c:	4608      	mov	r0, r1
    c73e:	e708      	b.n	c552 <__udivmoddi4+0xe6>
    c740:	f1a8 0802 	sub.w	r8, r8, #2
    c744:	443d      	add	r5, r7
    c746:	e72b      	b.n	c5a0 <__udivmoddi4+0x134>

0000c748 <__aeabi_idiv0>:
    c748:	4770      	bx	lr
    c74a:	bf00      	nop

0000c74c <__assert_func>:
    c74c:	b500      	push	{lr}
    c74e:	4c0a      	ldr	r4, [pc, #40]	; (c778 <__assert_func+0x2c>)
    c750:	6826      	ldr	r6, [r4, #0]
    c752:	4605      	mov	r5, r0
    c754:	b085      	sub	sp, #20
    c756:	461c      	mov	r4, r3
    c758:	68f0      	ldr	r0, [r6, #12]
    c75a:	b152      	cbz	r2, c772 <__assert_func+0x26>
    c75c:	4b07      	ldr	r3, [pc, #28]	; (c77c <__assert_func+0x30>)
    c75e:	9202      	str	r2, [sp, #8]
    c760:	e88d 000a 	stmia.w	sp, {r1, r3}
    c764:	4622      	mov	r2, r4
    c766:	462b      	mov	r3, r5
    c768:	4905      	ldr	r1, [pc, #20]	; (c780 <__assert_func+0x34>)
    c76a:	f000 f821 	bl	c7b0 <fiprintf>
    c76e:	f000 ffe9 	bl	d744 <abort>
    c772:	4b04      	ldr	r3, [pc, #16]	; (c784 <__assert_func+0x38>)
    c774:	461a      	mov	r2, r3
    c776:	e7f2      	b.n	c75e <__assert_func+0x12>
    c778:	200079f8 	.word	0x200079f8
    c77c:	000297e0 	.word	0x000297e0
    c780:	000297f0 	.word	0x000297f0
    c784:	000297ec 	.word	0x000297ec

0000c788 <__assert>:
    c788:	b508      	push	{r3, lr}
    c78a:	4613      	mov	r3, r2
    c78c:	2200      	movs	r2, #0
    c78e:	f7ff ffdd 	bl	c74c <__assert_func>
    c792:	bf00      	nop

0000c794 <_fiprintf_r>:
    c794:	b40c      	push	{r2, r3}
    c796:	b500      	push	{lr}
    c798:	b083      	sub	sp, #12
    c79a:	ab04      	add	r3, sp, #16
    c79c:	f853 2b04 	ldr.w	r2, [r3], #4
    c7a0:	9301      	str	r3, [sp, #4]
    c7a2:	f000 fa77 	bl	cc94 <_vfiprintf_r>
    c7a6:	b003      	add	sp, #12
    c7a8:	f85d eb04 	ldr.w	lr, [sp], #4
    c7ac:	b002      	add	sp, #8
    c7ae:	4770      	bx	lr

0000c7b0 <fiprintf>:
    c7b0:	b40e      	push	{r1, r2, r3}
    c7b2:	b510      	push	{r4, lr}
    c7b4:	b083      	sub	sp, #12
    c7b6:	ab05      	add	r3, sp, #20
    c7b8:	4c06      	ldr	r4, [pc, #24]	; (c7d4 <fiprintf+0x24>)
    c7ba:	f853 2b04 	ldr.w	r2, [r3], #4
    c7be:	9301      	str	r3, [sp, #4]
    c7c0:	4601      	mov	r1, r0
    c7c2:	6820      	ldr	r0, [r4, #0]
    c7c4:	f000 fa66 	bl	cc94 <_vfiprintf_r>
    c7c8:	b003      	add	sp, #12
    c7ca:	e8bd 4010 	ldmia.w	sp!, {r4, lr}
    c7ce:	b003      	add	sp, #12
    c7d0:	4770      	bx	lr
    c7d2:	bf00      	nop
    c7d4:	200079f8 	.word	0x200079f8

0000c7d8 <memcmp>:
    c7d8:	2a03      	cmp	r2, #3
    c7da:	b470      	push	{r4, r5, r6}
    c7dc:	d922      	bls.n	c824 <memcmp+0x4c>
    c7de:	ea40 0301 	orr.w	r3, r0, r1
    c7e2:	079b      	lsls	r3, r3, #30
    c7e4:	d011      	beq.n	c80a <memcmp+0x32>
    c7e6:	7803      	ldrb	r3, [r0, #0]
    c7e8:	780c      	ldrb	r4, [r1, #0]
    c7ea:	42a3      	cmp	r3, r4
    c7ec:	d11d      	bne.n	c82a <memcmp+0x52>
    c7ee:	440a      	add	r2, r1
    c7f0:	3101      	adds	r1, #1
    c7f2:	e005      	b.n	c800 <memcmp+0x28>
    c7f4:	f810 3f01 	ldrb.w	r3, [r0, #1]!
    c7f8:	f811 4b01 	ldrb.w	r4, [r1], #1
    c7fc:	42a3      	cmp	r3, r4
    c7fe:	d114      	bne.n	c82a <memcmp+0x52>
    c800:	4291      	cmp	r1, r2
    c802:	d1f7      	bne.n	c7f4 <memcmp+0x1c>
    c804:	2000      	movs	r0, #0
    c806:	bc70      	pop	{r4, r5, r6}
    c808:	4770      	bx	lr
    c80a:	680d      	ldr	r5, [r1, #0]
    c80c:	6806      	ldr	r6, [r0, #0]
    c80e:	42ae      	cmp	r6, r5
    c810:	460c      	mov	r4, r1
    c812:	4603      	mov	r3, r0
    c814:	f101 0104 	add.w	r1, r1, #4
    c818:	f100 0004 	add.w	r0, r0, #4
    c81c:	d108      	bne.n	c830 <memcmp+0x58>
    c81e:	3a04      	subs	r2, #4
    c820:	2a03      	cmp	r2, #3
    c822:	d8f2      	bhi.n	c80a <memcmp+0x32>
    c824:	2a00      	cmp	r2, #0
    c826:	d1de      	bne.n	c7e6 <memcmp+0xe>
    c828:	e7ec      	b.n	c804 <memcmp+0x2c>
    c82a:	1b18      	subs	r0, r3, r4
    c82c:	bc70      	pop	{r4, r5, r6}
    c82e:	4770      	bx	lr
    c830:	4621      	mov	r1, r4
    c832:	4618      	mov	r0, r3
    c834:	e7d7      	b.n	c7e6 <memcmp+0xe>
    c836:	bf00      	nop

0000c838 <memcpy>:
    c838:	4684      	mov	ip, r0
    c83a:	ea41 0300 	orr.w	r3, r1, r0
    c83e:	f013 0303 	ands.w	r3, r3, #3
    c842:	d16d      	bne.n	c920 <memcpy+0xe8>
    c844:	3a40      	subs	r2, #64	; 0x40
    c846:	d341      	bcc.n	c8cc <memcpy+0x94>
    c848:	f851 3b04 	ldr.w	r3, [r1], #4
    c84c:	f840 3b04 	str.w	r3, [r0], #4
    c850:	f851 3b04 	ldr.w	r3, [r1], #4
    c854:	f840 3b04 	str.w	r3, [r0], #4
    c858:	f851 3b04 	ldr.w	r3, [r1], #4
    c85c:	f840 3b04 	str.w	r3, [r0], #4
    c860:	f851 3b04 	ldr.w	r3, [r1], #4
    c864:	f840 3b04 	str.w	r3, [r0], #4
    c868:	f851 3b04 	ldr.w	r3, [r1], #4
    c86c:	f840 3b04 	str.w	r3, [r0], #4
    c870:	f851 3b04 	ldr.w	r3, [r1], #4
    c874:	f840 3b04 	str.w	r3, [r0], #4
    c878:	f851 3b04 	ldr.w	r3, [r1], #4
    c87c:	f840 3b04 	str.w	r3, [r0], #4
    c880:	f851 3b04 	ldr.w	r3, [r1], #4
    c884:	f840 3b04 	str.w	r3, [r0], #4
    c888:	f851 3b04 	ldr.w	r3, [r1], #4
    c88c:	f840 3b04 	str.w	r3, [r0], #4
    c890:	f851 3b04 	ldr.w	r3, [r1], #4
    c894:	f840 3b04 	str.w	r3, [r0], #4
    c898:	f851 3b04 	ldr.w	r3, [r1], #4
    c89c:	f840 3b04 	str.w	r3, [r0], #4
    c8a0:	f851 3b04 	ldr.w	r3, [r1], #4
    c8a4:	f840 3b04 	str.w	r3, [r0], #4
    c8a8:	f851 3b04 	ldr.w	r3, [r1], #4
    c8ac:	f840 3b04 	str.w	r3, [r0], #4
    c8b0:	f851 3b04 	ldr.w	r3, [r1], #4
    c8b4:	f840 3b04 	str.w	r3, [r0], #4
    c8b8:	f851 3b04 	ldr.w	r3, [r1], #4
    c8bc:	f840 3b04 	str.w	r3, [r0], #4
    c8c0:	f851 3b04 	ldr.w	r3, [r1], #4
    c8c4:	f840 3b04 	str.w	r3, [r0], #4
    c8c8:	3a40      	subs	r2, #64	; 0x40
    c8ca:	d2bd      	bcs.n	c848 <memcpy+0x10>
    c8cc:	3230      	adds	r2, #48	; 0x30
    c8ce:	d311      	bcc.n	c8f4 <memcpy+0xbc>
    c8d0:	f851 3b04 	ldr.w	r3, [r1], #4
    c8d4:	f840 3b04 	str.w	r3, [r0], #4
    c8d8:	f851 3b04 	ldr.w	r3, [r1], #4
    c8dc:	f840 3b04 	str.w	r3, [r0], #4
    c8e0:	f851 3b04 	ldr.w	r3, [r1], #4
    c8e4:	f840 3b04 	str.w	r3, [r0], #4
    c8e8:	f851 3b04 	ldr.w	r3, [r1], #4
    c8ec:	f840 3b04 	str.w	r3, [r0], #4
    c8f0:	3a10      	subs	r2, #16
    c8f2:	d2ed      	bcs.n	c8d0 <memcpy+0x98>
    c8f4:	320c      	adds	r2, #12
    c8f6:	d305      	bcc.n	c904 <memcpy+0xcc>
    c8f8:	f851 3b04 	ldr.w	r3, [r1], #4
    c8fc:	f840 3b04 	str.w	r3, [r0], #4
    c900:	3a04      	subs	r2, #4
    c902:	d2f9      	bcs.n	c8f8 <memcpy+0xc0>
    c904:	3204      	adds	r2, #4
    c906:	d008      	beq.n	c91a <memcpy+0xe2>
    c908:	07d2      	lsls	r2, r2, #31
    c90a:	bf1c      	itt	ne
    c90c:	f811 3b01 	ldrbne.w	r3, [r1], #1
    c910:	f800 3b01 	strbne.w	r3, [r0], #1
    c914:	d301      	bcc.n	c91a <memcpy+0xe2>
    c916:	880b      	ldrh	r3, [r1, #0]
    c918:	8003      	strh	r3, [r0, #0]
    c91a:	4660      	mov	r0, ip
    c91c:	4770      	bx	lr
    c91e:	bf00      	nop
    c920:	2a08      	cmp	r2, #8
    c922:	d313      	bcc.n	c94c <memcpy+0x114>
    c924:	078b      	lsls	r3, r1, #30
    c926:	d08d      	beq.n	c844 <memcpy+0xc>
    c928:	f010 0303 	ands.w	r3, r0, #3
    c92c:	d08a      	beq.n	c844 <memcpy+0xc>
    c92e:	f1c3 0304 	rsb	r3, r3, #4
    c932:	1ad2      	subs	r2, r2, r3
    c934:	07db      	lsls	r3, r3, #31
    c936:	bf1c      	itt	ne
    c938:	f811 3b01 	ldrbne.w	r3, [r1], #1
    c93c:	f800 3b01 	strbne.w	r3, [r0], #1
    c940:	d380      	bcc.n	c844 <memcpy+0xc>
    c942:	f831 3b02 	ldrh.w	r3, [r1], #2
    c946:	f820 3b02 	strh.w	r3, [r0], #2
    c94a:	e77b      	b.n	c844 <memcpy+0xc>
    c94c:	3a04      	subs	r2, #4
    c94e:	d3d9      	bcc.n	c904 <memcpy+0xcc>
    c950:	3a01      	subs	r2, #1
    c952:	f811 3b01 	ldrb.w	r3, [r1], #1
    c956:	f800 3b01 	strb.w	r3, [r0], #1
    c95a:	d2f9      	bcs.n	c950 <memcpy+0x118>
    c95c:	780b      	ldrb	r3, [r1, #0]
    c95e:	7003      	strb	r3, [r0, #0]
    c960:	784b      	ldrb	r3, [r1, #1]
    c962:	7043      	strb	r3, [r0, #1]
    c964:	788b      	ldrb	r3, [r1, #2]
    c966:	7083      	strb	r3, [r0, #2]
    c968:	4660      	mov	r0, ip
    c96a:	4770      	bx	lr

0000c96c <memmove>:
    c96c:	4288      	cmp	r0, r1
    c96e:	b5f0      	push	{r4, r5, r6, r7, lr}
    c970:	d90d      	bls.n	c98e <memmove+0x22>
    c972:	188b      	adds	r3, r1, r2
    c974:	4298      	cmp	r0, r3
    c976:	d20a      	bcs.n	c98e <memmove+0x22>
    c978:	1884      	adds	r4, r0, r2
    c97a:	2a00      	cmp	r2, #0
    c97c:	d051      	beq.n	ca22 <memmove+0xb6>
    c97e:	4622      	mov	r2, r4
    c980:	f813 4d01 	ldrb.w	r4, [r3, #-1]!
    c984:	f802 4d01 	strb.w	r4, [r2, #-1]!
    c988:	4299      	cmp	r1, r3
    c98a:	d1f9      	bne.n	c980 <memmove+0x14>
    c98c:	bdf0      	pop	{r4, r5, r6, r7, pc}
    c98e:	2a0f      	cmp	r2, #15
    c990:	d948      	bls.n	ca24 <memmove+0xb8>
    c992:	ea41 0300 	orr.w	r3, r1, r0
    c996:	079b      	lsls	r3, r3, #30
    c998:	d146      	bne.n	ca28 <memmove+0xbc>
    c99a:	f100 0410 	add.w	r4, r0, #16
    c99e:	f101 0310 	add.w	r3, r1, #16
    c9a2:	4615      	mov	r5, r2
    c9a4:	f853 6c10 	ldr.w	r6, [r3, #-16]
    c9a8:	f844 6c10 	str.w	r6, [r4, #-16]
    c9ac:	f853 6c0c 	ldr.w	r6, [r3, #-12]
    c9b0:	f844 6c0c 	str.w	r6, [r4, #-12]
    c9b4:	f853 6c08 	ldr.w	r6, [r3, #-8]
    c9b8:	f844 6c08 	str.w	r6, [r4, #-8]
    c9bc:	3d10      	subs	r5, #16
    c9be:	f853 6c04 	ldr.w	r6, [r3, #-4]
    c9c2:	f844 6c04 	str.w	r6, [r4, #-4]
    c9c6:	2d0f      	cmp	r5, #15
    c9c8:	f103 0310 	add.w	r3, r3, #16
    c9cc:	f104 0410 	add.w	r4, r4, #16
    c9d0:	d8e8      	bhi.n	c9a4 <memmove+0x38>
    c9d2:	f1a2 0310 	sub.w	r3, r2, #16
    c9d6:	f023 030f 	bic.w	r3, r3, #15
    c9da:	f002 0e0f 	and.w	lr, r2, #15
    c9de:	3310      	adds	r3, #16
    c9e0:	f1be 0f03 	cmp.w	lr, #3
    c9e4:	4419      	add	r1, r3
    c9e6:	4403      	add	r3, r0
    c9e8:	d921      	bls.n	ca2e <memmove+0xc2>
    c9ea:	1f1e      	subs	r6, r3, #4
    c9ec:	460d      	mov	r5, r1
    c9ee:	4674      	mov	r4, lr
    c9f0:	3c04      	subs	r4, #4
    c9f2:	f855 7b04 	ldr.w	r7, [r5], #4
    c9f6:	f846 7f04 	str.w	r7, [r6, #4]!
    c9fa:	2c03      	cmp	r4, #3
    c9fc:	d8f8      	bhi.n	c9f0 <memmove+0x84>
    c9fe:	f1ae 0404 	sub.w	r4, lr, #4
    ca02:	f024 0403 	bic.w	r4, r4, #3
    ca06:	3404      	adds	r4, #4
    ca08:	4421      	add	r1, r4
    ca0a:	4423      	add	r3, r4
    ca0c:	f002 0203 	and.w	r2, r2, #3
    ca10:	b162      	cbz	r2, ca2c <memmove+0xc0>
    ca12:	3b01      	subs	r3, #1
    ca14:	440a      	add	r2, r1
    ca16:	f811 4b01 	ldrb.w	r4, [r1], #1
    ca1a:	f803 4f01 	strb.w	r4, [r3, #1]!
    ca1e:	428a      	cmp	r2, r1
    ca20:	d1f9      	bne.n	ca16 <memmove+0xaa>
    ca22:	bdf0      	pop	{r4, r5, r6, r7, pc}
    ca24:	4603      	mov	r3, r0
    ca26:	e7f3      	b.n	ca10 <memmove+0xa4>
    ca28:	4603      	mov	r3, r0
    ca2a:	e7f2      	b.n	ca12 <memmove+0xa6>
    ca2c:	bdf0      	pop	{r4, r5, r6, r7, pc}
    ca2e:	4672      	mov	r2, lr
    ca30:	e7ee      	b.n	ca10 <memmove+0xa4>
    ca32:	bf00      	nop

0000ca34 <memset>:
    ca34:	b470      	push	{r4, r5, r6}
    ca36:	0786      	lsls	r6, r0, #30
    ca38:	d046      	beq.n	cac8 <memset+0x94>
    ca3a:	1e54      	subs	r4, r2, #1
    ca3c:	2a00      	cmp	r2, #0
    ca3e:	d041      	beq.n	cac4 <memset+0x90>
    ca40:	b2ca      	uxtb	r2, r1
    ca42:	4603      	mov	r3, r0
    ca44:	e002      	b.n	ca4c <memset+0x18>
    ca46:	f114 34ff 	adds.w	r4, r4, #4294967295	; 0xffffffff
    ca4a:	d33b      	bcc.n	cac4 <memset+0x90>
    ca4c:	f803 2b01 	strb.w	r2, [r3], #1
    ca50:	079d      	lsls	r5, r3, #30
    ca52:	d1f8      	bne.n	ca46 <memset+0x12>
    ca54:	2c03      	cmp	r4, #3
    ca56:	d92e      	bls.n	cab6 <memset+0x82>
    ca58:	b2cd      	uxtb	r5, r1
    ca5a:	ea45 2505 	orr.w	r5, r5, r5, lsl #8
    ca5e:	2c0f      	cmp	r4, #15
    ca60:	ea45 4505 	orr.w	r5, r5, r5, lsl #16
    ca64:	d919      	bls.n	ca9a <memset+0x66>
    ca66:	f103 0210 	add.w	r2, r3, #16
    ca6a:	4626      	mov	r6, r4
    ca6c:	3e10      	subs	r6, #16
    ca6e:	2e0f      	cmp	r6, #15
    ca70:	f842 5c10 	str.w	r5, [r2, #-16]
    ca74:	f842 5c0c 	str.w	r5, [r2, #-12]
    ca78:	f842 5c08 	str.w	r5, [r2, #-8]
    ca7c:	f842 5c04 	str.w	r5, [r2, #-4]
    ca80:	f102 0210 	add.w	r2, r2, #16
    ca84:	d8f2      	bhi.n	ca6c <memset+0x38>
    ca86:	f1a4 0210 	sub.w	r2, r4, #16
    ca8a:	f022 020f 	bic.w	r2, r2, #15
    ca8e:	f004 040f 	and.w	r4, r4, #15
    ca92:	3210      	adds	r2, #16
    ca94:	2c03      	cmp	r4, #3
    ca96:	4413      	add	r3, r2
    ca98:	d90d      	bls.n	cab6 <memset+0x82>
    ca9a:	461e      	mov	r6, r3
    ca9c:	4622      	mov	r2, r4
    ca9e:	3a04      	subs	r2, #4
    caa0:	2a03      	cmp	r2, #3
    caa2:	f846 5b04 	str.w	r5, [r6], #4
    caa6:	d8fa      	bhi.n	ca9e <memset+0x6a>
    caa8:	1f22      	subs	r2, r4, #4
    caaa:	f022 0203 	bic.w	r2, r2, #3
    caae:	3204      	adds	r2, #4
    cab0:	4413      	add	r3, r2
    cab2:	f004 0403 	and.w	r4, r4, #3
    cab6:	b12c      	cbz	r4, cac4 <memset+0x90>
    cab8:	b2c9      	uxtb	r1, r1
    caba:	441c      	add	r4, r3
    cabc:	f803 1b01 	strb.w	r1, [r3], #1
    cac0:	429c      	cmp	r4, r3
    cac2:	d1fb      	bne.n	cabc <memset+0x88>
    cac4:	bc70      	pop	{r4, r5, r6}
    cac6:	4770      	bx	lr
    cac8:	4614      	mov	r4, r2
    caca:	4603      	mov	r3, r0
    cacc:	e7c2      	b.n	ca54 <memset+0x20>
    cace:	bf00      	nop

0000cad0 <_free_r>:
    cad0:	b191      	cbz	r1, caf8 <_free_r+0x28>
    cad2:	f851 3c04 	ldr.w	r3, [r1, #-4]
    cad6:	3904      	subs	r1, #4
    cad8:	2b00      	cmp	r3, #0
    cada:	bfb8      	it	lt
    cadc:	18c9      	addlt	r1, r1, r3
    cade:	4b1f      	ldr	r3, [pc, #124]	; (cb5c <_free_r+0x8c>)
    cae0:	681a      	ldr	r2, [r3, #0]
    cae2:	b1fa      	cbz	r2, cb24 <_free_r+0x54>
    cae4:	428a      	cmp	r2, r1
    cae6:	b430      	push	{r4, r5}
    cae8:	d90a      	bls.n	cb00 <_free_r+0x30>
    caea:	6808      	ldr	r0, [r1, #0]
    caec:	180c      	adds	r4, r1, r0
    caee:	42a2      	cmp	r2, r4
    caf0:	d026      	beq.n	cb40 <_free_r+0x70>
    caf2:	604a      	str	r2, [r1, #4]
    caf4:	6019      	str	r1, [r3, #0]
    caf6:	bc30      	pop	{r4, r5}
    caf8:	4770      	bx	lr
    cafa:	428b      	cmp	r3, r1
    cafc:	d803      	bhi.n	cb06 <_free_r+0x36>
    cafe:	461a      	mov	r2, r3
    cb00:	6853      	ldr	r3, [r2, #4]
    cb02:	2b00      	cmp	r3, #0
    cb04:	d1f9      	bne.n	cafa <_free_r+0x2a>
    cb06:	6814      	ldr	r4, [r2, #0]
    cb08:	1915      	adds	r5, r2, r4
    cb0a:	428d      	cmp	r5, r1
    cb0c:	d00d      	beq.n	cb2a <_free_r+0x5a>
    cb0e:	d806      	bhi.n	cb1e <_free_r+0x4e>
    cb10:	6808      	ldr	r0, [r1, #0]
    cb12:	180c      	adds	r4, r1, r0
    cb14:	429c      	cmp	r4, r3
    cb16:	d019      	beq.n	cb4c <_free_r+0x7c>
    cb18:	604b      	str	r3, [r1, #4]
    cb1a:	6051      	str	r1, [r2, #4]
    cb1c:	e7eb      	b.n	caf6 <_free_r+0x26>
    cb1e:	230c      	movs	r3, #12
    cb20:	6003      	str	r3, [r0, #0]
    cb22:	e7e8      	b.n	caf6 <_free_r+0x26>
    cb24:	604a      	str	r2, [r1, #4]
    cb26:	6019      	str	r1, [r3, #0]
    cb28:	4770      	bx	lr
    cb2a:	6809      	ldr	r1, [r1, #0]
    cb2c:	440c      	add	r4, r1
    cb2e:	1911      	adds	r1, r2, r4
    cb30:	4299      	cmp	r1, r3
    cb32:	6014      	str	r4, [r2, #0]
    cb34:	d1df      	bne.n	caf6 <_free_r+0x26>
    cb36:	cb0a      	ldmia	r3, {r1, r3}
    cb38:	440c      	add	r4, r1
    cb3a:	6053      	str	r3, [r2, #4]
    cb3c:	6014      	str	r4, [r2, #0]
    cb3e:	e7da      	b.n	caf6 <_free_r+0x26>
    cb40:	6814      	ldr	r4, [r2, #0]
    cb42:	6852      	ldr	r2, [r2, #4]
    cb44:	604a      	str	r2, [r1, #4]
    cb46:	4420      	add	r0, r4
    cb48:	6008      	str	r0, [r1, #0]
    cb4a:	e7d3      	b.n	caf4 <_free_r+0x24>
    cb4c:	681c      	ldr	r4, [r3, #0]
    cb4e:	685b      	ldr	r3, [r3, #4]
    cb50:	604b      	str	r3, [r1, #4]
    cb52:	4420      	add	r0, r4
    cb54:	6008      	str	r0, [r1, #0]
    cb56:	6051      	str	r1, [r2, #4]
    cb58:	e7cd      	b.n	caf6 <_free_r+0x26>
    cb5a:	bf00      	nop
    cb5c:	20000000 	.word	0x20000000

0000cb60 <_malloc_r>:
    cb60:	b570      	push	{r4, r5, r6, lr}
    cb62:	1ccc      	adds	r4, r1, #3
    cb64:	f024 0403 	bic.w	r4, r4, #3
    cb68:	3408      	adds	r4, #8
    cb6a:	2c0c      	cmp	r4, #12
    cb6c:	bf38      	it	cc
    cb6e:	240c      	movcc	r4, #12
    cb70:	2c00      	cmp	r4, #0
    cb72:	4606      	mov	r6, r0
    cb74:	db3b      	blt.n	cbee <_malloc_r+0x8e>
    cb76:	42a1      	cmp	r1, r4
    cb78:	d839      	bhi.n	cbee <_malloc_r+0x8e>
    cb7a:	4d27      	ldr	r5, [pc, #156]	; (cc18 <_malloc_r+0xb8>)
    cb7c:	6829      	ldr	r1, [r5, #0]
    cb7e:	b151      	cbz	r1, cb96 <_malloc_r+0x36>
    cb80:	680a      	ldr	r2, [r1, #0]
    cb82:	1b12      	subs	r2, r2, r4
    cb84:	d404      	bmi.n	cb90 <_malloc_r+0x30>
    cb86:	e036      	b.n	cbf6 <_malloc_r+0x96>
    cb88:	681a      	ldr	r2, [r3, #0]
    cb8a:	1b12      	subs	r2, r2, r4
    cb8c:	d51a      	bpl.n	cbc4 <_malloc_r+0x64>
    cb8e:	4619      	mov	r1, r3
    cb90:	684b      	ldr	r3, [r1, #4]
    cb92:	2b00      	cmp	r3, #0
    cb94:	d1f8      	bne.n	cb88 <_malloc_r+0x28>
    cb96:	6869      	ldr	r1, [r5, #4]
    cb98:	2900      	cmp	r1, #0
    cb9a:	d037      	beq.n	cc0c <_malloc_r+0xac>
    cb9c:	4621      	mov	r1, r4
    cb9e:	4630      	mov	r0, r6
    cba0:	f000 f99a 	bl	ced8 <_sbrk_r>
    cba4:	1c43      	adds	r3, r0, #1
    cba6:	d022      	beq.n	cbee <_malloc_r+0x8e>
    cba8:	1cc3      	adds	r3, r0, #3
    cbaa:	f023 0503 	bic.w	r5, r3, #3
    cbae:	42a8      	cmp	r0, r5
    cbb0:	d005      	beq.n	cbbe <_malloc_r+0x5e>
    cbb2:	1a29      	subs	r1, r5, r0
    cbb4:	4630      	mov	r0, r6
    cbb6:	f000 f98f 	bl	ced8 <_sbrk_r>
    cbba:	3001      	adds	r0, #1
    cbbc:	d017      	beq.n	cbee <_malloc_r+0x8e>
    cbbe:	602c      	str	r4, [r5, #0]
    cbc0:	462b      	mov	r3, r5
    cbc2:	e004      	b.n	cbce <_malloc_r+0x6e>
    cbc4:	2a0b      	cmp	r2, #11
    cbc6:	d90d      	bls.n	cbe4 <_malloc_r+0x84>
    cbc8:	601a      	str	r2, [r3, #0]
    cbca:	4413      	add	r3, r2
    cbcc:	601c      	str	r4, [r3, #0]
    cbce:	f103 000b 	add.w	r0, r3, #11
    cbd2:	f020 0007 	bic.w	r0, r0, #7
    cbd6:	1d1a      	adds	r2, r3, #4
    cbd8:	1a82      	subs	r2, r0, r2
    cbda:	d002      	beq.n	cbe2 <_malloc_r+0x82>
    cbdc:	4251      	negs	r1, r2
    cbde:	5099      	str	r1, [r3, r2]
    cbe0:	bd70      	pop	{r4, r5, r6, pc}
    cbe2:	bd70      	pop	{r4, r5, r6, pc}
    cbe4:	428b      	cmp	r3, r1
    cbe6:	d00e      	beq.n	cc06 <_malloc_r+0xa6>
    cbe8:	685a      	ldr	r2, [r3, #4]
    cbea:	604a      	str	r2, [r1, #4]
    cbec:	e7ef      	b.n	cbce <_malloc_r+0x6e>
    cbee:	230c      	movs	r3, #12
    cbf0:	6033      	str	r3, [r6, #0]
    cbf2:	2000      	movs	r0, #0
    cbf4:	bd70      	pop	{r4, r5, r6, pc}
    cbf6:	2a0b      	cmp	r2, #11
    cbf8:	d803      	bhi.n	cc02 <_malloc_r+0xa2>
    cbfa:	684a      	ldr	r2, [r1, #4]
    cbfc:	460b      	mov	r3, r1
    cbfe:	602a      	str	r2, [r5, #0]
    cc00:	e7e5      	b.n	cbce <_malloc_r+0x6e>
    cc02:	460b      	mov	r3, r1
    cc04:	e7e0      	b.n	cbc8 <_malloc_r+0x68>
    cc06:	460a      	mov	r2, r1
    cc08:	460b      	mov	r3, r1
    cc0a:	e7f8      	b.n	cbfe <_malloc_r+0x9e>
    cc0c:	4630      	mov	r0, r6
    cc0e:	f000 f963 	bl	ced8 <_sbrk_r>
    cc12:	6068      	str	r0, [r5, #4]
    cc14:	e7c2      	b.n	cb9c <_malloc_r+0x3c>
    cc16:	bf00      	nop
    cc18:	20000000 	.word	0x20000000

0000cc1c <__sfputc_r>:
    cc1c:	6893      	ldr	r3, [r2, #8]
    cc1e:	3b01      	subs	r3, #1
    cc20:	2b00      	cmp	r3, #0
    cc22:	b410      	push	{r4}
    cc24:	6093      	str	r3, [r2, #8]
    cc26:	db07      	blt.n	cc38 <__sfputc_r+0x1c>
    cc28:	b2cc      	uxtb	r4, r1
    cc2a:	6813      	ldr	r3, [r2, #0]
    cc2c:	1c58      	adds	r0, r3, #1
    cc2e:	6010      	str	r0, [r2, #0]
    cc30:	7019      	strb	r1, [r3, #0]
    cc32:	4620      	mov	r0, r4
    cc34:	bc10      	pop	{r4}
    cc36:	4770      	bx	lr
    cc38:	6994      	ldr	r4, [r2, #24]
    cc3a:	42a3      	cmp	r3, r4
    cc3c:	db02      	blt.n	cc44 <__sfputc_r+0x28>
    cc3e:	b2cc      	uxtb	r4, r1
    cc40:	2c0a      	cmp	r4, #10
    cc42:	d1f2      	bne.n	cc2a <__sfputc_r+0xe>
    cc44:	bc10      	pop	{r4}
    cc46:	f000 bccd 	b.w	d5e4 <__swbuf_r>
    cc4a:	bf00      	nop

0000cc4c <__sfputs_r>:
    cc4c:	b193      	cbz	r3, cc74 <__sfputs_r+0x28>
    cc4e:	b5f8      	push	{r3, r4, r5, r6, r7, lr}
    cc50:	4614      	mov	r4, r2
    cc52:	460f      	mov	r7, r1
    cc54:	4606      	mov	r6, r0
    cc56:	18d5      	adds	r5, r2, r3
    cc58:	e001      	b.n	cc5e <__sfputs_r+0x12>
    cc5a:	42ac      	cmp	r4, r5
    cc5c:	d008      	beq.n	cc70 <__sfputs_r+0x24>
    cc5e:	463a      	mov	r2, r7
    cc60:	f814 1b01 	ldrb.w	r1, [r4], #1
    cc64:	4630      	mov	r0, r6
    cc66:	f7ff ffd9 	bl	cc1c <__sfputc_r>
    cc6a:	1c43      	adds	r3, r0, #1
    cc6c:	d1f5      	bne.n	cc5a <__sfputs_r+0xe>
    cc6e:	bdf8      	pop	{r3, r4, r5, r6, r7, pc}
    cc70:	2000      	movs	r0, #0
    cc72:	bdf8      	pop	{r3, r4, r5, r6, r7, pc}
    cc74:	2000      	movs	r0, #0
    cc76:	4770      	bx	lr

0000cc78 <__sprint_r>:
    cc78:	6893      	ldr	r3, [r2, #8]
    cc7a:	b510      	push	{r4, lr}
    cc7c:	4614      	mov	r4, r2
    cc7e:	b913      	cbnz	r3, cc86 <__sprint_r+0xe>
    cc80:	6053      	str	r3, [r2, #4]
    cc82:	4618      	mov	r0, r3
    cc84:	bd10      	pop	{r4, pc}
    cc86:	f000 ff2b 	bl	dae0 <__sfvwrite_r>
    cc8a:	2300      	movs	r3, #0
    cc8c:	60a3      	str	r3, [r4, #8]
    cc8e:	6063      	str	r3, [r4, #4]
    cc90:	bd10      	pop	{r4, pc}
    cc92:	bf00      	nop

0000cc94 <_vfiprintf_r>:
    cc94:	e92d 4ff0 	stmdb	sp!, {r4, r5, r6, r7, r8, r9, sl, fp, lr}
    cc98:	b09d      	sub	sp, #116	; 0x74
    cc9a:	4689      	mov	r9, r1
    cc9c:	4614      	mov	r4, r2
    cc9e:	9303      	str	r3, [sp, #12]
    cca0:	4682      	mov	sl, r0
    cca2:	b118      	cbz	r0, ccac <_vfiprintf_r+0x18>
    cca4:	6b83      	ldr	r3, [r0, #56]	; 0x38
    cca6:	2b00      	cmp	r3, #0
    cca8:	f000 80fd 	beq.w	cea6 <_vfiprintf_r+0x212>
    ccac:	f8b9 300c 	ldrh.w	r3, [r9, #12]
    ccb0:	0718      	lsls	r0, r3, #28
    ccb2:	f140 80ee 	bpl.w	ce92 <_vfiprintf_r+0x1fe>
    ccb6:	f8d9 3010 	ldr.w	r3, [r9, #16]
    ccba:	2b00      	cmp	r3, #0
    ccbc:	f000 80e9 	beq.w	ce92 <_vfiprintf_r+0x1fe>
    ccc0:	2330      	movs	r3, #48	; 0x30
    ccc2:	f88d 302a 	strb.w	r3, [sp, #42]	; 0x2a
    ccc6:	7823      	ldrb	r3, [r4, #0]
    ccc8:	4e78      	ldr	r6, [pc, #480]	; (ceac <_vfiprintf_r+0x218>)
    ccca:	2100      	movs	r1, #0
    cccc:	2220      	movs	r2, #32
    ccce:	9109      	str	r1, [sp, #36]	; 0x24
    ccd0:	f88d 2029 	strb.w	r2, [sp, #41]	; 0x29
    ccd4:	2701      	movs	r7, #1
    ccd6:	2b00      	cmp	r3, #0
    ccd8:	f000 8084 	beq.w	cde4 <_vfiprintf_r+0x150>
    ccdc:	2b25      	cmp	r3, #37	; 0x25
    ccde:	4625      	mov	r5, r4
    cce0:	d103      	bne.n	ccea <_vfiprintf_r+0x56>
    cce2:	e017      	b.n	cd14 <_vfiprintf_r+0x80>
    cce4:	2b25      	cmp	r3, #37	; 0x25
    cce6:	f000 8085 	beq.w	cdf4 <_vfiprintf_r+0x160>
    ccea:	f815 3f01 	ldrb.w	r3, [r5, #1]!
    ccee:	2b00      	cmp	r3, #0
    ccf0:	d1f8      	bne.n	cce4 <_vfiprintf_r+0x50>
    ccf2:	ebb5 0b04 	subs.w	fp, r5, r4
    ccf6:	d075      	beq.n	cde4 <_vfiprintf_r+0x150>
    ccf8:	4622      	mov	r2, r4
    ccfa:	465b      	mov	r3, fp
    ccfc:	4649      	mov	r1, r9
    ccfe:	4650      	mov	r0, sl
    cd00:	f7ff ffa4 	bl	cc4c <__sfputs_r>
    cd04:	3001      	adds	r0, #1
    cd06:	d06d      	beq.n	cde4 <_vfiprintf_r+0x150>
    cd08:	9b09      	ldr	r3, [sp, #36]	; 0x24
    cd0a:	782a      	ldrb	r2, [r5, #0]
    cd0c:	445b      	add	r3, fp
    cd0e:	9309      	str	r3, [sp, #36]	; 0x24
    cd10:	2a00      	cmp	r2, #0
    cd12:	d067      	beq.n	cde4 <_vfiprintf_r+0x150>
    cd14:	2300      	movs	r3, #0
    cd16:	f04f 32ff 	mov.w	r2, #4294967295	; 0xffffffff
    cd1a:	3501      	adds	r5, #1
    cd1c:	9304      	str	r3, [sp, #16]
    cd1e:	9307      	str	r3, [sp, #28]
    cd20:	9306      	str	r3, [sp, #24]
    cd22:	f88d 3053 	strb.w	r3, [sp, #83]	; 0x53
    cd26:	931a      	str	r3, [sp, #104]	; 0x68
    cd28:	9205      	str	r2, [sp, #20]
    cd2a:	e004      	b.n	cd36 <_vfiprintf_r+0xa2>
    cd2c:	9a04      	ldr	r2, [sp, #16]
    cd2e:	fa07 f303 	lsl.w	r3, r7, r3
    cd32:	4313      	orrs	r3, r2
    cd34:	9304      	str	r3, [sp, #16]
    cd36:	7829      	ldrb	r1, [r5, #0]
    cd38:	2205      	movs	r2, #5
    cd3a:	4630      	mov	r0, r6
    cd3c:	f001 f910 	bl	df60 <memchr>
    cd40:	462c      	mov	r4, r5
    cd42:	1b83      	subs	r3, r0, r6
    cd44:	3501      	adds	r5, #1
    cd46:	2800      	cmp	r0, #0
    cd48:	d1f0      	bne.n	cd2c <_vfiprintf_r+0x98>
    cd4a:	9b04      	ldr	r3, [sp, #16]
    cd4c:	06d9      	lsls	r1, r3, #27
    cd4e:	bf44      	itt	mi
    cd50:	2220      	movmi	r2, #32
    cd52:	f88d 2053 	strbmi.w	r2, [sp, #83]	; 0x53
    cd56:	7821      	ldrb	r1, [r4, #0]
    cd58:	071a      	lsls	r2, r3, #28
    cd5a:	bf44      	itt	mi
    cd5c:	222b      	movmi	r2, #43	; 0x2b
    cd5e:	f88d 2053 	strbmi.w	r2, [sp, #83]	; 0x53
    cd62:	292a      	cmp	r1, #42	; 0x2a
    cd64:	d069      	beq.n	ce3a <_vfiprintf_r+0x1a6>
    cd66:	f1a1 0230 	sub.w	r2, r1, #48	; 0x30
    cd6a:	2a09      	cmp	r2, #9
    cd6c:	d80b      	bhi.n	cd86 <_vfiprintf_r+0xf2>
    cd6e:	9b07      	ldr	r3, [sp, #28]
    cd70:	f814 1f01 	ldrb.w	r1, [r4, #1]!
    cd74:	eb03 0383 	add.w	r3, r3, r3, lsl #2
    cd78:	eb02 0343 	add.w	r3, r2, r3, lsl #1
    cd7c:	f1a1 0230 	sub.w	r2, r1, #48	; 0x30
    cd80:	2a09      	cmp	r2, #9
    cd82:	d9f5      	bls.n	cd70 <_vfiprintf_r+0xdc>
    cd84:	9307      	str	r3, [sp, #28]
    cd86:	292e      	cmp	r1, #46	; 0x2e
    cd88:	d03f      	beq.n	ce0a <_vfiprintf_r+0x176>
    cd8a:	4d49      	ldr	r5, [pc, #292]	; (ceb0 <_vfiprintf_r+0x21c>)
    cd8c:	2203      	movs	r2, #3
    cd8e:	4628      	mov	r0, r5
    cd90:	f001 f8e6 	bl	df60 <memchr>
    cd94:	b138      	cbz	r0, cda6 <_vfiprintf_r+0x112>
    cd96:	9b04      	ldr	r3, [sp, #16]
    cd98:	1b40      	subs	r0, r0, r5
    cd9a:	2240      	movs	r2, #64	; 0x40
    cd9c:	fa02 f000 	lsl.w	r0, r2, r0
    cda0:	4303      	orrs	r3, r0
    cda2:	3401      	adds	r4, #1
    cda4:	9304      	str	r3, [sp, #16]
    cda6:	7821      	ldrb	r1, [r4, #0]
    cda8:	4842      	ldr	r0, [pc, #264]	; (ceb4 <_vfiprintf_r+0x220>)
    cdaa:	f88d 1028 	strb.w	r1, [sp, #40]	; 0x28
    cdae:	2206      	movs	r2, #6
    cdb0:	3401      	adds	r4, #1
    cdb2:	f001 f8d5 	bl	df60 <memchr>
    cdb6:	2800      	cmp	r0, #0
    cdb8:	d049      	beq.n	ce4e <_vfiprintf_r+0x1ba>
    cdba:	4b3f      	ldr	r3, [pc, #252]	; (ceb8 <_vfiprintf_r+0x224>)
    cdbc:	b1f3      	cbz	r3, cdfc <_vfiprintf_r+0x168>
    cdbe:	ab03      	add	r3, sp, #12
    cdc0:	9300      	str	r3, [sp, #0]
    cdc2:	464a      	mov	r2, r9
    cdc4:	4b3d      	ldr	r3, [pc, #244]	; (cebc <_vfiprintf_r+0x228>)
    cdc6:	a904      	add	r1, sp, #16
    cdc8:	4650      	mov	r0, sl
    cdca:	f3af 8000 	nop.w
    cdce:	4680      	mov	r8, r0
    cdd0:	f1b8 3fff 	cmp.w	r8, #4294967295	; 0xffffffff
    cdd4:	d006      	beq.n	cde4 <_vfiprintf_r+0x150>
    cdd6:	9b09      	ldr	r3, [sp, #36]	; 0x24
    cdd8:	4443      	add	r3, r8
    cdda:	9309      	str	r3, [sp, #36]	; 0x24
    cddc:	7823      	ldrb	r3, [r4, #0]
    cdde:	2b00      	cmp	r3, #0
    cde0:	f47f af7c 	bne.w	ccdc <_vfiprintf_r+0x48>
    cde4:	f8b9 300c 	ldrh.w	r3, [r9, #12]
    cde8:	065b      	lsls	r3, r3, #25
    cdea:	d459      	bmi.n	cea0 <_vfiprintf_r+0x20c>
    cdec:	9809      	ldr	r0, [sp, #36]	; 0x24
    cdee:	b01d      	add	sp, #116	; 0x74
    cdf0:	e8bd 8ff0 	ldmia.w	sp!, {r4, r5, r6, r7, r8, r9, sl, fp, pc}
    cdf4:	ebb5 0b04 	subs.w	fp, r5, r4
    cdf8:	d08c      	beq.n	cd14 <_vfiprintf_r+0x80>
    cdfa:	e77d      	b.n	ccf8 <_vfiprintf_r+0x64>
    cdfc:	9b03      	ldr	r3, [sp, #12]
    cdfe:	3307      	adds	r3, #7
    ce00:	f023 0307 	bic.w	r3, r3, #7
    ce04:	3308      	adds	r3, #8
    ce06:	9303      	str	r3, [sp, #12]
    ce08:	e7e5      	b.n	cdd6 <_vfiprintf_r+0x142>
    ce0a:	7861      	ldrb	r1, [r4, #1]
    ce0c:	292a      	cmp	r1, #42	; 0x2a
    ce0e:	f104 0001 	add.w	r0, r4, #1
    ce12:	d026      	beq.n	ce62 <_vfiprintf_r+0x1ce>
    ce14:	f1a1 0230 	sub.w	r2, r1, #48	; 0x30
    ce18:	2300      	movs	r3, #0
    ce1a:	2a09      	cmp	r2, #9
    ce1c:	9305      	str	r3, [sp, #20]
    ce1e:	4604      	mov	r4, r0
    ce20:	d8b3      	bhi.n	cd8a <_vfiprintf_r+0xf6>
    ce22:	f814 1f01 	ldrb.w	r1, [r4, #1]!
    ce26:	eb03 0383 	add.w	r3, r3, r3, lsl #2
    ce2a:	eb02 0343 	add.w	r3, r2, r3, lsl #1
    ce2e:	f1a1 0230 	sub.w	r2, r1, #48	; 0x30
    ce32:	2a09      	cmp	r2, #9
    ce34:	d9f5      	bls.n	ce22 <_vfiprintf_r+0x18e>
    ce36:	9305      	str	r3, [sp, #20]
    ce38:	e7a7      	b.n	cd8a <_vfiprintf_r+0xf6>
    ce3a:	9a03      	ldr	r2, [sp, #12]
    ce3c:	6811      	ldr	r1, [r2, #0]
    ce3e:	3204      	adds	r2, #4
    ce40:	2900      	cmp	r1, #0
    ce42:	9203      	str	r2, [sp, #12]
    ce44:	db1f      	blt.n	ce86 <_vfiprintf_r+0x1f2>
    ce46:	9107      	str	r1, [sp, #28]
    ce48:	7861      	ldrb	r1, [r4, #1]
    ce4a:	3401      	adds	r4, #1
    ce4c:	e79b      	b.n	cd86 <_vfiprintf_r+0xf2>
    ce4e:	ab03      	add	r3, sp, #12
    ce50:	9300      	str	r3, [sp, #0]
    ce52:	464a      	mov	r2, r9
    ce54:	4b19      	ldr	r3, [pc, #100]	; (cebc <_vfiprintf_r+0x228>)
    ce56:	a904      	add	r1, sp, #16
    ce58:	4650      	mov	r0, sl
    ce5a:	f001 f993 	bl	e184 <_printf_i>
    ce5e:	4680      	mov	r8, r0
    ce60:	e7b6      	b.n	cdd0 <_vfiprintf_r+0x13c>
    ce62:	9b03      	ldr	r3, [sp, #12]
    ce64:	681a      	ldr	r2, [r3, #0]
    ce66:	9205      	str	r2, [sp, #20]
    ce68:	2a00      	cmp	r2, #0
    ce6a:	f103 0304 	add.w	r3, r3, #4
    ce6e:	9303      	str	r3, [sp, #12]
    ce70:	bfb8      	it	lt
    ce72:	f04f 32ff 	movlt.w	r2, #4294967295	; 0xffffffff
    ce76:	f104 0302 	add.w	r3, r4, #2
    ce7a:	bfae      	itee	ge
    ce7c:	78a1      	ldrbge	r1, [r4, #2]
    ce7e:	78a1      	ldrblt	r1, [r4, #2]
    ce80:	9205      	strlt	r2, [sp, #20]
    ce82:	461c      	mov	r4, r3
    ce84:	e781      	b.n	cd8a <_vfiprintf_r+0xf6>
    ce86:	4249      	negs	r1, r1
    ce88:	f043 0302 	orr.w	r3, r3, #2
    ce8c:	9107      	str	r1, [sp, #28]
    ce8e:	9304      	str	r3, [sp, #16]
    ce90:	e7da      	b.n	ce48 <_vfiprintf_r+0x1b4>
    ce92:	4649      	mov	r1, r9
    ce94:	4650      	mov	r0, sl
    ce96:	f000 fbf1 	bl	d67c <__swsetup_r>
    ce9a:	2800      	cmp	r0, #0
    ce9c:	f43f af10 	beq.w	ccc0 <_vfiprintf_r+0x2c>
    cea0:	f04f 30ff 	mov.w	r0, #4294967295	; 0xffffffff
    cea4:	e7a3      	b.n	cdee <_vfiprintf_r+0x15a>
    cea6:	f000 fdfb 	bl	daa0 <__sinit>
    ceaa:	e6ff      	b.n	ccac <_vfiprintf_r+0x18>
    ceac:	00029824 	.word	0x00029824
    ceb0:	0002982c 	.word	0x0002982c
    ceb4:	00029830 	.word	0x00029830
    ceb8:	00000000 	.word	0x00000000
    cebc:	0000cc4d 	.word	0x0000cc4d

0000cec0 <vfiprintf>:
    cec0:	b410      	push	{r4}
    cec2:	4c04      	ldr	r4, [pc, #16]	; (ced4 <vfiprintf+0x14>)
    cec4:	4613      	mov	r3, r2
    cec6:	460a      	mov	r2, r1
    cec8:	4601      	mov	r1, r0
    ceca:	6820      	ldr	r0, [r4, #0]
    cecc:	bc10      	pop	{r4}
    cece:	f7ff bee1 	b.w	cc94 <_vfiprintf_r>
    ced2:	bf00      	nop
    ced4:	200079f8 	.word	0x200079f8

0000ced8 <_sbrk_r>:
    ced8:	b538      	push	{r3, r4, r5, lr}
    ceda:	4c07      	ldr	r4, [pc, #28]	; (cef8 <_sbrk_r+0x20>)
    cedc:	2300      	movs	r3, #0
    cede:	4605      	mov	r5, r0
    cee0:	4608      	mov	r0, r1
    cee2:	6023      	str	r3, [r4, #0]
    cee4:	f004 fbf0 	bl	116c8 <_sbrk>
    cee8:	1c43      	adds	r3, r0, #1
    ceea:	d000      	beq.n	ceee <_sbrk_r+0x16>
    ceec:	bd38      	pop	{r3, r4, r5, pc}
    ceee:	6823      	ldr	r3, [r4, #0]
    cef0:	2b00      	cmp	r3, #0
    cef2:	d0fb      	beq.n	ceec <_sbrk_r+0x14>
    cef4:	602b      	str	r3, [r5, #0]
    cef6:	bd38      	pop	{r3, r4, r5, pc}
    cef8:	20002bc0 	.word	0x20002bc0

0000cefc <strcat>:
    cefc:	0783      	lsls	r3, r0, #30
    cefe:	b510      	push	{r4, lr}
    cf00:	4604      	mov	r4, r0
    cf02:	d110      	bne.n	cf26 <strcat+0x2a>
    cf04:	6802      	ldr	r2, [r0, #0]
    cf06:	f1a2 3301 	sub.w	r3, r2, #16843009	; 0x1010101
    cf0a:	ea23 0302 	bic.w	r3, r3, r2
    cf0e:	f013 3f80 	tst.w	r3, #2155905152	; 0x80808080
    cf12:	d108      	bne.n	cf26 <strcat+0x2a>
    cf14:	f850 2f04 	ldr.w	r2, [r0, #4]!
    cf18:	f1a2 3301 	sub.w	r3, r2, #16843009	; 0x1010101
    cf1c:	ea23 0302 	bic.w	r3, r3, r2
    cf20:	f013 3f80 	tst.w	r3, #2155905152	; 0x80808080
    cf24:	d0f6      	beq.n	cf14 <strcat+0x18>
    cf26:	7803      	ldrb	r3, [r0, #0]
    cf28:	b11b      	cbz	r3, cf32 <strcat+0x36>
    cf2a:	f810 3f01 	ldrb.w	r3, [r0, #1]!
    cf2e:	2b00      	cmp	r3, #0
    cf30:	d1fb      	bne.n	cf2a <strcat+0x2e>
    cf32:	f000 f9f3 	bl	d31c <strcpy>
    cf36:	4620      	mov	r0, r4
    cf38:	bd10      	pop	{r4, pc}
    cf3a:	bf00      	nop

0000cf3c <strchr>:
    cf3c:	b2c9      	uxtb	r1, r1
    cf3e:	2900      	cmp	r1, #0
    cf40:	d041      	beq.n	cfc6 <strchr+0x8a>
    cf42:	0782      	lsls	r2, r0, #30
    cf44:	b4f0      	push	{r4, r5, r6, r7}
    cf46:	d067      	beq.n	d018 <strchr+0xdc>
    cf48:	7803      	ldrb	r3, [r0, #0]
    cf4a:	2b00      	cmp	r3, #0
    cf4c:	d068      	beq.n	d020 <strchr+0xe4>
    cf4e:	4299      	cmp	r1, r3
    cf50:	d037      	beq.n	cfc2 <strchr+0x86>
    cf52:	1c43      	adds	r3, r0, #1
    cf54:	e004      	b.n	cf60 <strchr+0x24>
    cf56:	f813 0b01 	ldrb.w	r0, [r3], #1
    cf5a:	b390      	cbz	r0, cfc2 <strchr+0x86>
    cf5c:	4281      	cmp	r1, r0
    cf5e:	d02f      	beq.n	cfc0 <strchr+0x84>
    cf60:	079a      	lsls	r2, r3, #30
    cf62:	461c      	mov	r4, r3
    cf64:	d1f7      	bne.n	cf56 <strchr+0x1a>
    cf66:	6825      	ldr	r5, [r4, #0]
    cf68:	ea41 2301 	orr.w	r3, r1, r1, lsl #8
    cf6c:	ea43 4303 	orr.w	r3, r3, r3, lsl #16
    cf70:	ea83 0605 	eor.w	r6, r3, r5
    cf74:	f1a6 3001 	sub.w	r0, r6, #16843009	; 0x1010101
    cf78:	f1a5 3201 	sub.w	r2, r5, #16843009	; 0x1010101
    cf7c:	ea20 0006 	bic.w	r0, r0, r6
    cf80:	ea22 0205 	bic.w	r2, r2, r5
    cf84:	4302      	orrs	r2, r0
    cf86:	f012 3f80 	tst.w	r2, #2155905152	; 0x80808080
    cf8a:	d111      	bne.n	cfb0 <strchr+0x74>
    cf8c:	4620      	mov	r0, r4
    cf8e:	f850 6f04 	ldr.w	r6, [r0, #4]!
    cf92:	ea83 0706 	eor.w	r7, r3, r6
    cf96:	f1a7 3501 	sub.w	r5, r7, #16843009	; 0x1010101
    cf9a:	f1a6 3201 	sub.w	r2, r6, #16843009	; 0x1010101
    cf9e:	ea25 0507 	bic.w	r5, r5, r7
    cfa2:	ea22 0206 	bic.w	r2, r2, r6
    cfa6:	432a      	orrs	r2, r5
    cfa8:	f012 3f80 	tst.w	r2, #2155905152	; 0x80808080
    cfac:	d0ef      	beq.n	cf8e <strchr+0x52>
    cfae:	4604      	mov	r4, r0
    cfb0:	7820      	ldrb	r0, [r4, #0]
    cfb2:	b918      	cbnz	r0, cfbc <strchr+0x80>
    cfb4:	e005      	b.n	cfc2 <strchr+0x86>
    cfb6:	f814 0f01 	ldrb.w	r0, [r4, #1]!
    cfba:	b110      	cbz	r0, cfc2 <strchr+0x86>
    cfbc:	4281      	cmp	r1, r0
    cfbe:	d1fa      	bne.n	cfb6 <strchr+0x7a>
    cfc0:	4620      	mov	r0, r4
    cfc2:	bcf0      	pop	{r4, r5, r6, r7}
    cfc4:	4770      	bx	lr
    cfc6:	0783      	lsls	r3, r0, #30
    cfc8:	d024      	beq.n	d014 <strchr+0xd8>
    cfca:	7803      	ldrb	r3, [r0, #0]
    cfcc:	2b00      	cmp	r3, #0
    cfce:	d0f9      	beq.n	cfc4 <strchr+0x88>
    cfd0:	1c43      	adds	r3, r0, #1
    cfd2:	e003      	b.n	cfdc <strchr+0xa0>
    cfd4:	7802      	ldrb	r2, [r0, #0]
    cfd6:	3301      	adds	r3, #1
    cfd8:	2a00      	cmp	r2, #0
    cfda:	d0f3      	beq.n	cfc4 <strchr+0x88>
    cfdc:	0799      	lsls	r1, r3, #30
    cfde:	4618      	mov	r0, r3
    cfe0:	d1f8      	bne.n	cfd4 <strchr+0x98>
    cfe2:	6819      	ldr	r1, [r3, #0]
    cfe4:	f1a1 3201 	sub.w	r2, r1, #16843009	; 0x1010101
    cfe8:	ea22 0201 	bic.w	r2, r2, r1
    cfec:	f012 3f80 	tst.w	r2, #2155905152	; 0x80808080
    cff0:	d108      	bne.n	d004 <strchr+0xc8>
    cff2:	f853 1f04 	ldr.w	r1, [r3, #4]!
    cff6:	f1a1 3201 	sub.w	r2, r1, #16843009	; 0x1010101
    cffa:	ea22 0201 	bic.w	r2, r2, r1
    cffe:	f012 3f80 	tst.w	r2, #2155905152	; 0x80808080
    d002:	d0f6      	beq.n	cff2 <strchr+0xb6>
    d004:	781a      	ldrb	r2, [r3, #0]
    d006:	4618      	mov	r0, r3
    d008:	b142      	cbz	r2, d01c <strchr+0xe0>
    d00a:	f810 3f01 	ldrb.w	r3, [r0, #1]!
    d00e:	2b00      	cmp	r3, #0
    d010:	d1fb      	bne.n	d00a <strchr+0xce>
    d012:	4770      	bx	lr
    d014:	4603      	mov	r3, r0
    d016:	e7e4      	b.n	cfe2 <strchr+0xa6>
    d018:	4604      	mov	r4, r0
    d01a:	e7a4      	b.n	cf66 <strchr+0x2a>
    d01c:	4618      	mov	r0, r3
    d01e:	4770      	bx	lr
    d020:	4618      	mov	r0, r3
    d022:	e7ce      	b.n	cfc2 <strchr+0x86>
	...
    d040:	eba2 0003 	sub.w	r0, r2, r3
    d044:	4770      	bx	lr
    d046:	bf00      	nop

0000d048 <strcmp>:
    d048:	7802      	ldrb	r2, [r0, #0]
    d04a:	780b      	ldrb	r3, [r1, #0]
    d04c:	2a01      	cmp	r2, #1
    d04e:	bf28      	it	cs
    d050:	429a      	cmpcs	r2, r3
    d052:	d1f5      	bne.n	d040 <strchr+0x104>
    d054:	e96d 4504 	strd	r4, r5, [sp, #-16]!
    d058:	ea40 0401 	orr.w	r4, r0, r1
    d05c:	e9cd 6702 	strd	r6, r7, [sp, #8]
    d060:	f06f 0c00 	mvn.w	ip, #0
    d064:	ea4f 7244 	mov.w	r2, r4, lsl #29
    d068:	b312      	cbz	r2, d0b0 <strcmp+0x68>
    d06a:	ea80 0401 	eor.w	r4, r0, r1
    d06e:	f014 0f07 	tst.w	r4, #7
    d072:	d16a      	bne.n	d14a <strcmp+0x102>
    d074:	f000 0407 	and.w	r4, r0, #7
    d078:	f020 0007 	bic.w	r0, r0, #7
    d07c:	f004 0503 	and.w	r5, r4, #3
    d080:	f021 0107 	bic.w	r1, r1, #7
    d084:	ea4f 05c5 	mov.w	r5, r5, lsl #3
    d088:	e8f0 2304 	ldrd	r2, r3, [r0], #16
    d08c:	f014 0f04 	tst.w	r4, #4
    d090:	e8f1 6704 	ldrd	r6, r7, [r1], #16
    d094:	fa0c f405 	lsl.w	r4, ip, r5
    d098:	ea62 0204 	orn	r2, r2, r4
    d09c:	ea66 0604 	orn	r6, r6, r4
    d0a0:	d00a      	beq.n	d0b8 <strcmp+0x70>
    d0a2:	ea63 0304 	orn	r3, r3, r4
    d0a6:	4662      	mov	r2, ip
    d0a8:	ea67 0704 	orn	r7, r7, r4
    d0ac:	4666      	mov	r6, ip
    d0ae:	e003      	b.n	d0b8 <strcmp+0x70>
    d0b0:	e8f0 2304 	ldrd	r2, r3, [r0], #16
    d0b4:	e8f1 6704 	ldrd	r6, r7, [r1], #16
    d0b8:	fa82 f54c 	uadd8	r5, r2, ip
    d0bc:	ea82 0406 	eor.w	r4, r2, r6
    d0c0:	faa4 f48c 	sel	r4, r4, ip
    d0c4:	bb6c      	cbnz	r4, d122 <strcmp+0xda>
    d0c6:	fa83 f54c 	uadd8	r5, r3, ip
    d0ca:	ea83 0507 	eor.w	r5, r3, r7
    d0ce:	faa5 f58c 	sel	r5, r5, ip
    d0d2:	b995      	cbnz	r5, d0fa <strcmp+0xb2>
    d0d4:	e950 2302 	ldrd	r2, r3, [r0, #-8]
    d0d8:	e951 6702 	ldrd	r6, r7, [r1, #-8]
    d0dc:	fa82 f54c 	uadd8	r5, r2, ip
    d0e0:	ea82 0406 	eor.w	r4, r2, r6
    d0e4:	faa4 f48c 	sel	r4, r4, ip
    d0e8:	fa83 f54c 	uadd8	r5, r3, ip
    d0ec:	ea83 0507 	eor.w	r5, r3, r7
    d0f0:	faa5 f58c 	sel	r5, r5, ip
    d0f4:	4325      	orrs	r5, r4
    d0f6:	d0db      	beq.n	d0b0 <strcmp+0x68>
    d0f8:	b99c      	cbnz	r4, d122 <strcmp+0xda>
    d0fa:	ba2d      	rev	r5, r5
    d0fc:	fab5 f485 	clz	r4, r5
    d100:	f024 0407 	bic.w	r4, r4, #7
    d104:	fa27 f104 	lsr.w	r1, r7, r4
    d108:	e9dd 6702 	ldrd	r6, r7, [sp, #8]
    d10c:	fa23 f304 	lsr.w	r3, r3, r4
    d110:	f003 00ff 	and.w	r0, r3, #255	; 0xff
    d114:	f001 01ff 	and.w	r1, r1, #255	; 0xff
    d118:	e8fd 4504 	ldrd	r4, r5, [sp], #16
    d11c:	eba0 0001 	sub.w	r0, r0, r1
    d120:	4770      	bx	lr
    d122:	ba24      	rev	r4, r4
    d124:	fab4 f484 	clz	r4, r4
    d128:	f024 0407 	bic.w	r4, r4, #7
    d12c:	fa26 f104 	lsr.w	r1, r6, r4
    d130:	e9dd 6702 	ldrd	r6, r7, [sp, #8]
    d134:	fa22 f204 	lsr.w	r2, r2, r4
    d138:	f002 00ff 	and.w	r0, r2, #255	; 0xff
    d13c:	f001 01ff 	and.w	r1, r1, #255	; 0xff
    d140:	e8fd 4504 	ldrd	r4, r5, [sp], #16
    d144:	eba0 0001 	sub.w	r0, r0, r1
    d148:	4770      	bx	lr
    d14a:	f014 0f03 	tst.w	r4, #3
    d14e:	d13c      	bne.n	d1ca <strcmp+0x182>
    d150:	f010 0403 	ands.w	r4, r0, #3
    d154:	d128      	bne.n	d1a8 <strcmp+0x160>
    d156:	f850 2b08 	ldr.w	r2, [r0], #8
    d15a:	f851 3b08 	ldr.w	r3, [r1], #8
    d15e:	fa82 f54c 	uadd8	r5, r2, ip
    d162:	ea82 0503 	eor.w	r5, r2, r3
    d166:	faa5 f58c 	sel	r5, r5, ip
    d16a:	b95d      	cbnz	r5, d184 <strcmp+0x13c>
    d16c:	f850 2c04 	ldr.w	r2, [r0, #-4]
    d170:	f851 3c04 	ldr.w	r3, [r1, #-4]
    d174:	fa82 f54c 	uadd8	r5, r2, ip
    d178:	ea82 0503 	eor.w	r5, r2, r3
    d17c:	faa5 f58c 	sel	r5, r5, ip
    d180:	2d00      	cmp	r5, #0
    d182:	d0e8      	beq.n	d156 <strcmp+0x10e>
    d184:	ba2d      	rev	r5, r5
    d186:	fab5 f485 	clz	r4, r5
    d18a:	f024 0407 	bic.w	r4, r4, #7
    d18e:	fa23 f104 	lsr.w	r1, r3, r4
    d192:	fa22 f204 	lsr.w	r2, r2, r4
    d196:	f002 00ff 	and.w	r0, r2, #255	; 0xff
    d19a:	f001 01ff 	and.w	r1, r1, #255	; 0xff
    d19e:	e8fd 4504 	ldrd	r4, r5, [sp], #16
    d1a2:	eba0 0001 	sub.w	r0, r0, r1
    d1a6:	4770      	bx	lr
    d1a8:	ea4f 04c4 	mov.w	r4, r4, lsl #3
    d1ac:	f020 0003 	bic.w	r0, r0, #3
    d1b0:	f850 2b08 	ldr.w	r2, [r0], #8
    d1b4:	f021 0103 	bic.w	r1, r1, #3
    d1b8:	f851 3b08 	ldr.w	r3, [r1], #8
    d1bc:	fa0c f404 	lsl.w	r4, ip, r4
    d1c0:	ea62 0204 	orn	r2, r2, r4
    d1c4:	ea63 0304 	orn	r3, r3, r4
    d1c8:	e7c9      	b.n	d15e <strcmp+0x116>
    d1ca:	f010 0403 	ands.w	r4, r0, #3
    d1ce:	d01a      	beq.n	d206 <strcmp+0x1be>
    d1d0:	eba1 0104 	sub.w	r1, r1, r4
    d1d4:	f020 0003 	bic.w	r0, r0, #3
    d1d8:	07e4      	lsls	r4, r4, #31
    d1da:	f850 2b04 	ldr.w	r2, [r0], #4
    d1de:	d006      	beq.n	d1ee <strcmp+0x1a6>
    d1e0:	d20f      	bcs.n	d202 <strcmp+0x1ba>
    d1e2:	788b      	ldrb	r3, [r1, #2]
    d1e4:	fa5f f4a2 	uxtb.w	r4, r2, ror #16
    d1e8:	1ae4      	subs	r4, r4, r3
    d1ea:	d106      	bne.n	d1fa <strcmp+0x1b2>
    d1ec:	b12b      	cbz	r3, d1fa <strcmp+0x1b2>
    d1ee:	78cb      	ldrb	r3, [r1, #3]
    d1f0:	fa5f f4b2 	uxtb.w	r4, r2, ror #24
    d1f4:	1ae4      	subs	r4, r4, r3
    d1f6:	d100      	bne.n	d1fa <strcmp+0x1b2>
    d1f8:	b91b      	cbnz	r3, d202 <strcmp+0x1ba>
    d1fa:	4620      	mov	r0, r4
    d1fc:	f85d 4b10 	ldr.w	r4, [sp], #16
    d200:	4770      	bx	lr
    d202:	f101 0104 	add.w	r1, r1, #4
    d206:	f850 2b04 	ldr.w	r2, [r0], #4
    d20a:	07cc      	lsls	r4, r1, #31
    d20c:	f021 0103 	bic.w	r1, r1, #3
    d210:	f851 3b04 	ldr.w	r3, [r1], #4
    d214:	d848      	bhi.n	d2a8 <strcmp+0x260>
    d216:	d224      	bcs.n	d262 <strcmp+0x21a>
    d218:	f022 447f 	bic.w	r4, r2, #4278190080	; 0xff000000
    d21c:	fa82 f54c 	uadd8	r5, r2, ip
    d220:	ea94 2513 	eors.w	r5, r4, r3, lsr #8
    d224:	faa5 f58c 	sel	r5, r5, ip
    d228:	d10a      	bne.n	d240 <strcmp+0x1f8>
    d22a:	b965      	cbnz	r5, d246 <strcmp+0x1fe>
    d22c:	f851 3b04 	ldr.w	r3, [r1], #4
    d230:	ea84 0402 	eor.w	r4, r4, r2
    d234:	ebb4 6f03 	cmp.w	r4, r3, lsl #24
    d238:	d10e      	bne.n	d258 <strcmp+0x210>
    d23a:	f850 2b04 	ldr.w	r2, [r0], #4
    d23e:	e7eb      	b.n	d218 <strcmp+0x1d0>
    d240:	ea4f 2313 	mov.w	r3, r3, lsr #8
    d244:	e055      	b.n	d2f2 <strcmp+0x2aa>
    d246:	f035 457f 	bics.w	r5, r5, #4278190080	; 0xff000000
    d24a:	d14d      	bne.n	d2e8 <strcmp+0x2a0>
    d24c:	7808      	ldrb	r0, [r1, #0]
    d24e:	e8fd 4504 	ldrd	r4, r5, [sp], #16
    d252:	f1c0 0000 	rsb	r0, r0, #0
    d256:	4770      	bx	lr
    d258:	ea4f 6212 	mov.w	r2, r2, lsr #24
    d25c:	f003 03ff 	and.w	r3, r3, #255	; 0xff
    d260:	e047      	b.n	d2f2 <strcmp+0x2aa>
    d262:	ea02 441c 	and.w	r4, r2, ip, lsr #16
    d266:	fa82 f54c 	uadd8	r5, r2, ip
    d26a:	ea94 4513 	eors.w	r5, r4, r3, lsr #16
    d26e:	faa5 f58c 	sel	r5, r5, ip
    d272:	d10a      	bne.n	d28a <strcmp+0x242>
    d274:	b965      	cbnz	r5, d290 <strcmp+0x248>
    d276:	f851 3b04 	ldr.w	r3, [r1], #4
    d27a:	ea84 0402 	eor.w	r4, r4, r2
    d27e:	ebb4 4f03 	cmp.w	r4, r3, lsl #16
    d282:	d10c      	bne.n	d29e <strcmp+0x256>
    d284:	f850 2b04 	ldr.w	r2, [r0], #4
    d288:	e7eb      	b.n	d262 <strcmp+0x21a>
    d28a:	ea4f 4313 	mov.w	r3, r3, lsr #16
    d28e:	e030      	b.n	d2f2 <strcmp+0x2aa>
    d290:	ea15 451c 	ands.w	r5, r5, ip, lsr #16
    d294:	d128      	bne.n	d2e8 <strcmp+0x2a0>
    d296:	880b      	ldrh	r3, [r1, #0]
    d298:	ea4f 4212 	mov.w	r2, r2, lsr #16
    d29c:	e029      	b.n	d2f2 <strcmp+0x2aa>
    d29e:	ea4f 4212 	mov.w	r2, r2, lsr #16
    d2a2:	ea03 431c 	and.w	r3, r3, ip, lsr #16
    d2a6:	e024      	b.n	d2f2 <strcmp+0x2aa>
    d2a8:	f002 04ff 	and.w	r4, r2, #255	; 0xff
    d2ac:	fa82 f54c 	uadd8	r5, r2, ip
    d2b0:	ea94 6513 	eors.w	r5, r4, r3, lsr #24
    d2b4:	faa5 f58c 	sel	r5, r5, ip
    d2b8:	d10a      	bne.n	d2d0 <strcmp+0x288>
    d2ba:	b965      	cbnz	r5, d2d6 <strcmp+0x28e>
    d2bc:	f851 3b04 	ldr.w	r3, [r1], #4
    d2c0:	ea84 0402 	eor.w	r4, r4, r2
    d2c4:	ebb4 2f03 	cmp.w	r4, r3, lsl #8
    d2c8:	d109      	bne.n	d2de <strcmp+0x296>
    d2ca:	f850 2b04 	ldr.w	r2, [r0], #4
    d2ce:	e7eb      	b.n	d2a8 <strcmp+0x260>
    d2d0:	ea4f 6313 	mov.w	r3, r3, lsr #24
    d2d4:	e00d      	b.n	d2f2 <strcmp+0x2aa>
    d2d6:	f015 0fff 	tst.w	r5, #255	; 0xff
    d2da:	d105      	bne.n	d2e8 <strcmp+0x2a0>
    d2dc:	680b      	ldr	r3, [r1, #0]
    d2de:	ea4f 2212 	mov.w	r2, r2, lsr #8
    d2e2:	f023 437f 	bic.w	r3, r3, #4278190080	; 0xff000000
    d2e6:	e004      	b.n	d2f2 <strcmp+0x2aa>
    d2e8:	f04f 0000 	mov.w	r0, #0
    d2ec:	e8fd 4504 	ldrd	r4, r5, [sp], #16
    d2f0:	4770      	bx	lr
    d2f2:	ba12      	rev	r2, r2
    d2f4:	ba1b      	rev	r3, r3
    d2f6:	fa82 f44c 	uadd8	r4, r2, ip
    d2fa:	ea82 0403 	eor.w	r4, r2, r3
    d2fe:	faa4 f58c 	sel	r5, r4, ip
    d302:	fab5 f485 	clz	r4, r5
    d306:	fa02 f204 	lsl.w	r2, r2, r4
    d30a:	fa03 f304 	lsl.w	r3, r3, r4
    d30e:	ea4f 6012 	mov.w	r0, r2, lsr #24
    d312:	e8fd 4504 	ldrd	r4, r5, [sp], #16
    d316:	eba0 6013 	sub.w	r0, r0, r3, lsr #24
    d31a:	4770      	bx	lr

0000d31c <strcpy>:
    d31c:	ea80 0201 	eor.w	r2, r0, r1
    d320:	4684      	mov	ip, r0
    d322:	f012 0f03 	tst.w	r2, #3
    d326:	d14f      	bne.n	d3c8 <strcpy+0xac>
    d328:	f011 0f03 	tst.w	r1, #3
    d32c:	d132      	bne.n	d394 <strcpy+0x78>
    d32e:	f84d 4d04 	str.w	r4, [sp, #-4]!
    d332:	f011 0f04 	tst.w	r1, #4
    d336:	f851 3b04 	ldr.w	r3, [r1], #4
    d33a:	d00b      	beq.n	d354 <strcpy+0x38>
    d33c:	f1a3 3201 	sub.w	r2, r3, #16843009	; 0x1010101
    d340:	439a      	bics	r2, r3
    d342:	f012 3f80 	tst.w	r2, #2155905152	; 0x80808080
    d346:	bf04      	itt	eq
    d348:	f84c 3b04 	streq.w	r3, [ip], #4
    d34c:	f851 3b04 	ldreq.w	r3, [r1], #4
    d350:	d116      	bne.n	d380 <strcpy+0x64>
    d352:	bf00      	nop
    d354:	f851 4b04 	ldr.w	r4, [r1], #4
    d358:	f1a3 3201 	sub.w	r2, r3, #16843009	; 0x1010101
    d35c:	439a      	bics	r2, r3
    d35e:	f012 3f80 	tst.w	r2, #2155905152	; 0x80808080
    d362:	f1a4 3201 	sub.w	r2, r4, #16843009	; 0x1010101
    d366:	d10b      	bne.n	d380 <strcpy+0x64>
    d368:	f84c 3b04 	str.w	r3, [ip], #4
    d36c:	43a2      	bics	r2, r4
    d36e:	f012 3f80 	tst.w	r2, #2155905152	; 0x80808080
    d372:	bf04      	itt	eq
    d374:	f851 3b04 	ldreq.w	r3, [r1], #4
    d378:	f84c 4b04 	streq.w	r4, [ip], #4
    d37c:	d0ea      	beq.n	d354 <strcpy+0x38>
    d37e:	4623      	mov	r3, r4
    d380:	f80c 3b01 	strb.w	r3, [ip], #1
    d384:	f013 0fff 	tst.w	r3, #255	; 0xff
    d388:	ea4f 2333 	mov.w	r3, r3, ror #8
    d38c:	d1f8      	bne.n	d380 <strcpy+0x64>
    d38e:	f85d 4b04 	ldr.w	r4, [sp], #4
    d392:	4770      	bx	lr
    d394:	f011 0f01 	tst.w	r1, #1
    d398:	d006      	beq.n	d3a8 <strcpy+0x8c>
    d39a:	f811 2b01 	ldrb.w	r2, [r1], #1
    d39e:	f80c 2b01 	strb.w	r2, [ip], #1
    d3a2:	2a00      	cmp	r2, #0
    d3a4:	bf08      	it	eq
    d3a6:	4770      	bxeq	lr
    d3a8:	f011 0f02 	tst.w	r1, #2
    d3ac:	d0bf      	beq.n	d32e <strcpy+0x12>
    d3ae:	f831 2b02 	ldrh.w	r2, [r1], #2
    d3b2:	f012 0fff 	tst.w	r2, #255	; 0xff
    d3b6:	bf16      	itet	ne
    d3b8:	f82c 2b02 	strhne.w	r2, [ip], #2
    d3bc:	f88c 2000 	strbeq.w	r2, [ip]
    d3c0:	f412 4f7f 	tstne.w	r2, #65280	; 0xff00
    d3c4:	d1b3      	bne.n	d32e <strcpy+0x12>
    d3c6:	4770      	bx	lr
    d3c8:	f811 2b01 	ldrb.w	r2, [r1], #1
    d3cc:	f80c 2b01 	strb.w	r2, [ip], #1
    d3d0:	2a00      	cmp	r2, #0
    d3d2:	d1f9      	bne.n	d3c8 <strcpy+0xac>
    d3d4:	4770      	bx	lr
    d3d6:	bf00      	nop
	...

0000d400 <strlen>:
    d400:	f890 f000 	pld	[r0]
    d404:	e96d 4502 	strd	r4, r5, [sp, #-8]!
    d408:	f020 0107 	bic.w	r1, r0, #7
    d40c:	f06f 0c00 	mvn.w	ip, #0
    d410:	f010 0407 	ands.w	r4, r0, #7
    d414:	f891 f020 	pld	[r1, #32]
    d418:	f040 8049 	bne.w	d4ae <strlen+0xae>
    d41c:	f04f 0400 	mov.w	r4, #0
    d420:	f06f 0007 	mvn.w	r0, #7
    d424:	e9d1 2300 	ldrd	r2, r3, [r1]
    d428:	f891 f040 	pld	[r1, #64]	; 0x40
    d42c:	f100 0008 	add.w	r0, r0, #8
    d430:	fa82 f24c 	uadd8	r2, r2, ip
    d434:	faa4 f28c 	sel	r2, r4, ip
    d438:	fa83 f34c 	uadd8	r3, r3, ip
    d43c:	faa2 f38c 	sel	r3, r2, ip
    d440:	bb4b      	cbnz	r3, d496 <strlen+0x96>
    d442:	e9d1 2302 	ldrd	r2, r3, [r1, #8]
    d446:	fa82 f24c 	uadd8	r2, r2, ip
    d44a:	f100 0008 	add.w	r0, r0, #8
    d44e:	faa4 f28c 	sel	r2, r4, ip
    d452:	fa83 f34c 	uadd8	r3, r3, ip
    d456:	faa2 f38c 	sel	r3, r2, ip
    d45a:	b9e3      	cbnz	r3, d496 <strlen+0x96>
    d45c:	e9d1 2304 	ldrd	r2, r3, [r1, #16]
    d460:	fa82 f24c 	uadd8	r2, r2, ip
    d464:	f100 0008 	add.w	r0, r0, #8
    d468:	faa4 f28c 	sel	r2, r4, ip
    d46c:	fa83 f34c 	uadd8	r3, r3, ip
    d470:	faa2 f38c 	sel	r3, r2, ip
    d474:	b97b      	cbnz	r3, d496 <strlen+0x96>
    d476:	e9d1 2306 	ldrd	r2, r3, [r1, #24]
    d47a:	f101 0120 	add.w	r1, r1, #32
    d47e:	fa82 f24c 	uadd8	r2, r2, ip
    d482:	f100 0008 	add.w	r0, r0, #8
    d486:	faa4 f28c 	sel	r2, r4, ip
    d48a:	fa83 f34c 	uadd8	r3, r3, ip
    d48e:	faa2 f38c 	sel	r3, r2, ip
    d492:	2b00      	cmp	r3, #0
    d494:	d0c6      	beq.n	d424 <strlen+0x24>
    d496:	2a00      	cmp	r2, #0
    d498:	bf04      	itt	eq
    d49a:	3004      	addeq	r0, #4
    d49c:	461a      	moveq	r2, r3
    d49e:	ba12      	rev	r2, r2
    d4a0:	fab2 f282 	clz	r2, r2
    d4a4:	e8fd 4502 	ldrd	r4, r5, [sp], #8
    d4a8:	eb00 00d2 	add.w	r0, r0, r2, lsr #3
    d4ac:	4770      	bx	lr
    d4ae:	e9d1 2300 	ldrd	r2, r3, [r1]
    d4b2:	f004 0503 	and.w	r5, r4, #3
    d4b6:	f1c4 0000 	rsb	r0, r4, #0
    d4ba:	ea4f 05c5 	mov.w	r5, r5, lsl #3
    d4be:	f014 0f04 	tst.w	r4, #4
    d4c2:	f891 f040 	pld	[r1, #64]	; 0x40
    d4c6:	fa0c f505 	lsl.w	r5, ip, r5
    d4ca:	ea62 0205 	orn	r2, r2, r5
    d4ce:	bf1c      	itt	ne
    d4d0:	ea63 0305 	ornne	r3, r3, r5
    d4d4:	4662      	movne	r2, ip
    d4d6:	f04f 0400 	mov.w	r4, #0
    d4da:	e7a9      	b.n	d430 <strlen+0x30>

0000d4dc <strncmp>:
    d4dc:	2a00      	cmp	r2, #0
    d4de:	d041      	beq.n	d564 <strncmp+0x88>
    d4e0:	ea40 0301 	orr.w	r3, r0, r1
    d4e4:	f013 0303 	ands.w	r3, r3, #3
    d4e8:	b4f0      	push	{r4, r5, r6, r7}
    d4ea:	d125      	bne.n	d538 <strncmp+0x5c>
    d4ec:	2a03      	cmp	r2, #3
    d4ee:	d923      	bls.n	d538 <strncmp+0x5c>
    d4f0:	6804      	ldr	r4, [r0, #0]
    d4f2:	680d      	ldr	r5, [r1, #0]
    d4f4:	42ac      	cmp	r4, r5
    d4f6:	d11f      	bne.n	d538 <strncmp+0x5c>
    d4f8:	3a04      	subs	r2, #4
    d4fa:	d038      	beq.n	d56e <strncmp+0x92>
    d4fc:	f1a4 3501 	sub.w	r5, r4, #16843009	; 0x1010101
    d500:	ea25 0404 	bic.w	r4, r5, r4
    d504:	f014 3f80 	tst.w	r4, #2155905152	; 0x80808080
    d508:	d12e      	bne.n	d568 <strncmp+0x8c>
    d50a:	3004      	adds	r0, #4
    d50c:	3104      	adds	r1, #4
    d50e:	e00f      	b.n	d530 <strncmp+0x54>
    d510:	f850 3b04 	ldr.w	r3, [r0], #4
    d514:	680e      	ldr	r6, [r1, #0]
    d516:	f1a3 3401 	sub.w	r4, r3, #16843009	; 0x1010101
    d51a:	42b3      	cmp	r3, r6
    d51c:	ea24 0403 	bic.w	r4, r4, r3
    d520:	f101 0104 	add.w	r1, r1, #4
    d524:	d126      	bne.n	d574 <strncmp+0x98>
    d526:	3a04      	subs	r2, #4
    d528:	d021      	beq.n	d56e <strncmp+0x92>
    d52a:	f014 3f80 	tst.w	r4, #2155905152	; 0x80808080
    d52e:	d11b      	bne.n	d568 <strncmp+0x8c>
    d530:	2a03      	cmp	r2, #3
    d532:	4607      	mov	r7, r0
    d534:	460d      	mov	r5, r1
    d536:	d8eb      	bhi.n	d510 <strncmp+0x34>
    d538:	7805      	ldrb	r5, [r0, #0]
    d53a:	780c      	ldrb	r4, [r1, #0]
    d53c:	42ac      	cmp	r4, r5
    d53e:	f102 33ff 	add.w	r3, r2, #4294967295	; 0xffffffff
    d542:	d11a      	bne.n	d57a <strncmp+0x9e>
    d544:	b183      	cbz	r3, d568 <strncmp+0x8c>
    d546:	b914      	cbnz	r4, d54e <strncmp+0x72>
    d548:	e00e      	b.n	d568 <strncmp+0x8c>
    d54a:	b16b      	cbz	r3, d568 <strncmp+0x8c>
    d54c:	b17a      	cbz	r2, d56e <strncmp+0x92>
    d54e:	f810 2f01 	ldrb.w	r2, [r0, #1]!
    d552:	f811 4f01 	ldrb.w	r4, [r1, #1]!
    d556:	42a2      	cmp	r2, r4
    d558:	f103 33ff 	add.w	r3, r3, #4294967295	; 0xffffffff
    d55c:	d0f5      	beq.n	d54a <strncmp+0x6e>
    d55e:	1b10      	subs	r0, r2, r4
    d560:	bcf0      	pop	{r4, r5, r6, r7}
    d562:	4770      	bx	lr
    d564:	4610      	mov	r0, r2
    d566:	4770      	bx	lr
    d568:	2000      	movs	r0, #0
    d56a:	bcf0      	pop	{r4, r5, r6, r7}
    d56c:	4770      	bx	lr
    d56e:	4610      	mov	r0, r2
    d570:	bcf0      	pop	{r4, r5, r6, r7}
    d572:	4770      	bx	lr
    d574:	4629      	mov	r1, r5
    d576:	4638      	mov	r0, r7
    d578:	e7de      	b.n	d538 <strncmp+0x5c>
    d57a:	462a      	mov	r2, r5
    d57c:	e7ef      	b.n	d55e <strncmp+0x82>
    d57e:	bf00      	nop

0000d580 <strncpy>:
    d580:	ea40 0301 	orr.w	r3, r0, r1
    d584:	f013 0f03 	tst.w	r3, #3
    d588:	b470      	push	{r4, r5, r6}
    d58a:	4603      	mov	r3, r0
    d58c:	d024      	beq.n	d5d8 <strncpy+0x58>
    d58e:	b1a2      	cbz	r2, d5ba <strncpy+0x3a>
    d590:	780c      	ldrb	r4, [r1, #0]
    d592:	701c      	strb	r4, [r3, #0]
    d594:	3a01      	subs	r2, #1
    d596:	3301      	adds	r3, #1
    d598:	3101      	adds	r1, #1
    d59a:	b13c      	cbz	r4, d5ac <strncpy+0x2c>
    d59c:	b16a      	cbz	r2, d5ba <strncpy+0x3a>
    d59e:	f811 4b01 	ldrb.w	r4, [r1], #1
    d5a2:	f803 4b01 	strb.w	r4, [r3], #1
    d5a6:	3a01      	subs	r2, #1
    d5a8:	2c00      	cmp	r4, #0
    d5aa:	d1f7      	bne.n	d59c <strncpy+0x1c>
    d5ac:	b12a      	cbz	r2, d5ba <strncpy+0x3a>
    d5ae:	441a      	add	r2, r3
    d5b0:	2100      	movs	r1, #0
    d5b2:	f803 1b01 	strb.w	r1, [r3], #1
    d5b6:	429a      	cmp	r2, r3
    d5b8:	d1fb      	bne.n	d5b2 <strncpy+0x32>
    d5ba:	bc70      	pop	{r4, r5, r6}
    d5bc:	4770      	bx	lr
    d5be:	460e      	mov	r6, r1
    d5c0:	f851 5b04 	ldr.w	r5, [r1], #4
    d5c4:	f1a5 3401 	sub.w	r4, r5, #16843009	; 0x1010101
    d5c8:	ea24 0405 	bic.w	r4, r4, r5
    d5cc:	f014 3f80 	tst.w	r4, #2155905152	; 0x80808080
    d5d0:	d105      	bne.n	d5de <strncpy+0x5e>
    d5d2:	f843 5b04 	str.w	r5, [r3], #4
    d5d6:	3a04      	subs	r2, #4
    d5d8:	2a03      	cmp	r2, #3
    d5da:	d8f0      	bhi.n	d5be <strncpy+0x3e>
    d5dc:	e7d7      	b.n	d58e <strncpy+0xe>
    d5de:	4631      	mov	r1, r6
    d5e0:	e7d6      	b.n	d590 <strncpy+0x10>
    d5e2:	bf00      	nop

0000d5e4 <__swbuf_r>:
    d5e4:	b5f8      	push	{r3, r4, r5, r6, r7, lr}
    d5e6:	460d      	mov	r5, r1
    d5e8:	4614      	mov	r4, r2
    d5ea:	4606      	mov	r6, r0
    d5ec:	b110      	cbz	r0, d5f4 <__swbuf_r+0x10>
    d5ee:	6b83      	ldr	r3, [r0, #56]	; 0x38
    d5f0:	2b00      	cmp	r3, #0
    d5f2:	d038      	beq.n	d666 <__swbuf_r+0x82>
    d5f4:	89a3      	ldrh	r3, [r4, #12]
    d5f6:	69a2      	ldr	r2, [r4, #24]
    d5f8:	60a2      	str	r2, [r4, #8]
    d5fa:	071a      	lsls	r2, r3, #28
    d5fc:	d522      	bpl.n	d644 <__swbuf_r+0x60>
    d5fe:	6923      	ldr	r3, [r4, #16]
    d600:	b303      	cbz	r3, d644 <__swbuf_r+0x60>
    d602:	6822      	ldr	r2, [r4, #0]
    d604:	6961      	ldr	r1, [r4, #20]
    d606:	1ad3      	subs	r3, r2, r3
    d608:	b2ed      	uxtb	r5, r5
    d60a:	428b      	cmp	r3, r1
    d60c:	462f      	mov	r7, r5
    d60e:	da21      	bge.n	d654 <__swbuf_r+0x70>
    d610:	3301      	adds	r3, #1
    d612:	68a1      	ldr	r1, [r4, #8]
    d614:	1c50      	adds	r0, r2, #1
    d616:	3901      	subs	r1, #1
    d618:	60a1      	str	r1, [r4, #8]
    d61a:	6020      	str	r0, [r4, #0]
    d61c:	7015      	strb	r5, [r2, #0]
    d61e:	6962      	ldr	r2, [r4, #20]
    d620:	429a      	cmp	r2, r3
    d622:	d006      	beq.n	d632 <__swbuf_r+0x4e>
    d624:	89a3      	ldrh	r3, [r4, #12]
    d626:	07db      	lsls	r3, r3, #31
    d628:	d501      	bpl.n	d62e <__swbuf_r+0x4a>
    d62a:	2d0a      	cmp	r5, #10
    d62c:	d001      	beq.n	d632 <__swbuf_r+0x4e>
    d62e:	4638      	mov	r0, r7
    d630:	bdf8      	pop	{r3, r4, r5, r6, r7, pc}
    d632:	4621      	mov	r1, r4
    d634:	4630      	mov	r0, r6
    d636:	f000 f921 	bl	d87c <_fflush_r>
    d63a:	2800      	cmp	r0, #0
    d63c:	d0f7      	beq.n	d62e <__swbuf_r+0x4a>
    d63e:	f04f 37ff 	mov.w	r7, #4294967295	; 0xffffffff
    d642:	e7f4      	b.n	d62e <__swbuf_r+0x4a>
    d644:	4621      	mov	r1, r4
    d646:	4630      	mov	r0, r6
    d648:	f000 f818 	bl	d67c <__swsetup_r>
    d64c:	2800      	cmp	r0, #0
    d64e:	d1f6      	bne.n	d63e <__swbuf_r+0x5a>
    d650:	6923      	ldr	r3, [r4, #16]
    d652:	e7d6      	b.n	d602 <__swbuf_r+0x1e>
    d654:	4621      	mov	r1, r4
    d656:	4630      	mov	r0, r6
    d658:	f000 f910 	bl	d87c <_fflush_r>
    d65c:	2800      	cmp	r0, #0
    d65e:	d1ee      	bne.n	d63e <__swbuf_r+0x5a>
    d660:	6822      	ldr	r2, [r4, #0]
    d662:	2301      	movs	r3, #1
    d664:	e7d5      	b.n	d612 <__swbuf_r+0x2e>
    d666:	f000 fa1b 	bl	daa0 <__sinit>
    d66a:	e7c3      	b.n	d5f4 <__swbuf_r+0x10>

0000d66c <__swbuf>:
    d66c:	4b02      	ldr	r3, [pc, #8]	; (d678 <__swbuf+0xc>)
    d66e:	460a      	mov	r2, r1
    d670:	4601      	mov	r1, r0
    d672:	6818      	ldr	r0, [r3, #0]
    d674:	f7ff bfb6 	b.w	d5e4 <__swbuf_r>
    d678:	200079f8 	.word	0x200079f8

0000d67c <__swsetup_r>:
    d67c:	b538      	push	{r3, r4, r5, lr}
    d67e:	4b30      	ldr	r3, [pc, #192]	; (d740 <__swsetup_r+0xc4>)
    d680:	681b      	ldr	r3, [r3, #0]
    d682:	4605      	mov	r5, r0
    d684:	460c      	mov	r4, r1
    d686:	b113      	cbz	r3, d68e <__swsetup_r+0x12>
    d688:	6b9a      	ldr	r2, [r3, #56]	; 0x38
    d68a:	2a00      	cmp	r2, #0
    d68c:	d038      	beq.n	d700 <__swsetup_r+0x84>
    d68e:	f9b4 200c 	ldrsh.w	r2, [r4, #12]
    d692:	b293      	uxth	r3, r2
    d694:	0718      	lsls	r0, r3, #28
    d696:	d50c      	bpl.n	d6b2 <__swsetup_r+0x36>
    d698:	6920      	ldr	r0, [r4, #16]
    d69a:	b1a8      	cbz	r0, d6c8 <__swsetup_r+0x4c>
    d69c:	f013 0201 	ands.w	r2, r3, #1
    d6a0:	d01e      	beq.n	d6e0 <__swsetup_r+0x64>
    d6a2:	6963      	ldr	r3, [r4, #20]
    d6a4:	2200      	movs	r2, #0
    d6a6:	425b      	negs	r3, r3
    d6a8:	61a3      	str	r3, [r4, #24]
    d6aa:	60a2      	str	r2, [r4, #8]
    d6ac:	b1f0      	cbz	r0, d6ec <__swsetup_r+0x70>
    d6ae:	2000      	movs	r0, #0
    d6b0:	bd38      	pop	{r3, r4, r5, pc}
    d6b2:	06d9      	lsls	r1, r3, #27
    d6b4:	d53c      	bpl.n	d730 <__swsetup_r+0xb4>
    d6b6:	0758      	lsls	r0, r3, #29
    d6b8:	d426      	bmi.n	d708 <__swsetup_r+0x8c>
    d6ba:	6920      	ldr	r0, [r4, #16]
    d6bc:	f042 0308 	orr.w	r3, r2, #8
    d6c0:	81a3      	strh	r3, [r4, #12]
    d6c2:	b29b      	uxth	r3, r3
    d6c4:	2800      	cmp	r0, #0
    d6c6:	d1e9      	bne.n	d69c <__swsetup_r+0x20>
    d6c8:	f403 7220 	and.w	r2, r3, #640	; 0x280
    d6cc:	f5b2 7f00 	cmp.w	r2, #512	; 0x200
    d6d0:	d0e4      	beq.n	d69c <__swsetup_r+0x20>
    d6d2:	4628      	mov	r0, r5
    d6d4:	4621      	mov	r1, r4
    d6d6:	f000 fbf9 	bl	decc <__smakebuf_r>
    d6da:	89a3      	ldrh	r3, [r4, #12]
    d6dc:	6920      	ldr	r0, [r4, #16]
    d6de:	e7dd      	b.n	d69c <__swsetup_r+0x20>
    d6e0:	0799      	lsls	r1, r3, #30
    d6e2:	bf58      	it	pl
    d6e4:	6962      	ldrpl	r2, [r4, #20]
    d6e6:	60a2      	str	r2, [r4, #8]
    d6e8:	2800      	cmp	r0, #0
    d6ea:	d1e0      	bne.n	d6ae <__swsetup_r+0x32>
    d6ec:	f9b4 300c 	ldrsh.w	r3, [r4, #12]
    d6f0:	061a      	lsls	r2, r3, #24
    d6f2:	d5dd      	bpl.n	d6b0 <__swsetup_r+0x34>
    d6f4:	f043 0340 	orr.w	r3, r3, #64	; 0x40
    d6f8:	81a3      	strh	r3, [r4, #12]
    d6fa:	f04f 30ff 	mov.w	r0, #4294967295	; 0xffffffff
    d6fe:	bd38      	pop	{r3, r4, r5, pc}
    d700:	4618      	mov	r0, r3
    d702:	f000 f9cd 	bl	daa0 <__sinit>
    d706:	e7c2      	b.n	d68e <__swsetup_r+0x12>
    d708:	6b21      	ldr	r1, [r4, #48]	; 0x30
    d70a:	b151      	cbz	r1, d722 <__swsetup_r+0xa6>
    d70c:	f104 0340 	add.w	r3, r4, #64	; 0x40
    d710:	4299      	cmp	r1, r3
    d712:	d004      	beq.n	d71e <__swsetup_r+0xa2>
    d714:	4628      	mov	r0, r5
    d716:	f7ff f9db 	bl	cad0 <_free_r>
    d71a:	f9b4 200c 	ldrsh.w	r2, [r4, #12]
    d71e:	2300      	movs	r3, #0
    d720:	6323      	str	r3, [r4, #48]	; 0x30
    d722:	2300      	movs	r3, #0
    d724:	6920      	ldr	r0, [r4, #16]
    d726:	6063      	str	r3, [r4, #4]
    d728:	f022 0224 	bic.w	r2, r2, #36	; 0x24
    d72c:	6020      	str	r0, [r4, #0]
    d72e:	e7c5      	b.n	d6bc <__swsetup_r+0x40>
    d730:	f042 0240 	orr.w	r2, r2, #64	; 0x40
    d734:	2309      	movs	r3, #9
    d736:	602b      	str	r3, [r5, #0]
    d738:	f04f 30ff 	mov.w	r0, #4294967295	; 0xffffffff
    d73c:	81a2      	strh	r2, [r4, #12]
    d73e:	bd38      	pop	{r3, r4, r5, pc}
    d740:	200079f8 	.word	0x200079f8

0000d744 <abort>:
    d744:	b508      	push	{r3, lr}
    d746:	2006      	movs	r0, #6
    d748:	f000 ff06 	bl	e558 <raise>
    d74c:	2001      	movs	r0, #1
    d74e:	f003 ffab 	bl	116a8 <_exit>
    d752:	bf00      	nop

0000d754 <__sflush_r>:
    d754:	898b      	ldrh	r3, [r1, #12]
    d756:	071a      	lsls	r2, r3, #28
    d758:	e92d 41f0 	stmdb	sp!, {r4, r5, r6, r7, r8, lr}
    d75c:	460d      	mov	r5, r1
    d75e:	4680      	mov	r8, r0
    d760:	d433      	bmi.n	d7ca <__sflush_r+0x76>
    d762:	684a      	ldr	r2, [r1, #4]
    d764:	2a00      	cmp	r2, #0
    d766:	dd67      	ble.n	d838 <__sflush_r+0xe4>
    d768:	6aac      	ldr	r4, [r5, #40]	; 0x28
    d76a:	2c00      	cmp	r4, #0
    d76c:	d045      	beq.n	d7fa <__sflush_r+0xa6>
    d76e:	2200      	movs	r2, #0
    d770:	f8d8 6000 	ldr.w	r6, [r8]
    d774:	f8c8 2000 	str.w	r2, [r8]
    d778:	f413 5280 	ands.w	r2, r3, #4096	; 0x1000
    d77c:	d060      	beq.n	d840 <__sflush_r+0xec>
    d77e:	6d2a      	ldr	r2, [r5, #80]	; 0x50
    d780:	075f      	lsls	r7, r3, #29
    d782:	d505      	bpl.n	d790 <__sflush_r+0x3c>
    d784:	6869      	ldr	r1, [r5, #4]
    d786:	6b2b      	ldr	r3, [r5, #48]	; 0x30
    d788:	1a52      	subs	r2, r2, r1
    d78a:	b10b      	cbz	r3, d790 <__sflush_r+0x3c>
    d78c:	6beb      	ldr	r3, [r5, #60]	; 0x3c
    d78e:	1ad2      	subs	r2, r2, r3
    d790:	2300      	movs	r3, #0
    d792:	69e9      	ldr	r1, [r5, #28]
    d794:	4640      	mov	r0, r8
    d796:	47a0      	blx	r4
    d798:	1c44      	adds	r4, r0, #1
    d79a:	d039      	beq.n	d810 <__sflush_r+0xbc>
    d79c:	89ab      	ldrh	r3, [r5, #12]
    d79e:	692a      	ldr	r2, [r5, #16]
    d7a0:	602a      	str	r2, [r5, #0]
    d7a2:	04db      	lsls	r3, r3, #19
    d7a4:	f04f 0200 	mov.w	r2, #0
    d7a8:	606a      	str	r2, [r5, #4]
    d7aa:	d443      	bmi.n	d834 <__sflush_r+0xe0>
    d7ac:	6b29      	ldr	r1, [r5, #48]	; 0x30
    d7ae:	f8c8 6000 	str.w	r6, [r8]
    d7b2:	b311      	cbz	r1, d7fa <__sflush_r+0xa6>
    d7b4:	f105 0340 	add.w	r3, r5, #64	; 0x40
    d7b8:	4299      	cmp	r1, r3
    d7ba:	d002      	beq.n	d7c2 <__sflush_r+0x6e>
    d7bc:	4640      	mov	r0, r8
    d7be:	f7ff f987 	bl	cad0 <_free_r>
    d7c2:	2000      	movs	r0, #0
    d7c4:	6328      	str	r0, [r5, #48]	; 0x30
    d7c6:	e8bd 81f0 	ldmia.w	sp!, {r4, r5, r6, r7, r8, pc}
    d7ca:	690e      	ldr	r6, [r1, #16]
    d7cc:	b1ae      	cbz	r6, d7fa <__sflush_r+0xa6>
    d7ce:	680c      	ldr	r4, [r1, #0]
    d7d0:	600e      	str	r6, [r1, #0]
    d7d2:	0798      	lsls	r0, r3, #30
    d7d4:	bf0c      	ite	eq
    d7d6:	694b      	ldreq	r3, [r1, #20]
    d7d8:	2300      	movne	r3, #0
    d7da:	1ba4      	subs	r4, r4, r6
    d7dc:	608b      	str	r3, [r1, #8]
    d7de:	e00a      	b.n	d7f6 <__sflush_r+0xa2>
    d7e0:	4623      	mov	r3, r4
    d7e2:	4632      	mov	r2, r6
    d7e4:	6a6f      	ldr	r7, [r5, #36]	; 0x24
    d7e6:	69e9      	ldr	r1, [r5, #28]
    d7e8:	4640      	mov	r0, r8
    d7ea:	47b8      	blx	r7
    d7ec:	2800      	cmp	r0, #0
    d7ee:	eba4 0400 	sub.w	r4, r4, r0
    d7f2:	4406      	add	r6, r0
    d7f4:	dd04      	ble.n	d800 <__sflush_r+0xac>
    d7f6:	2c00      	cmp	r4, #0
    d7f8:	dcf2      	bgt.n	d7e0 <__sflush_r+0x8c>
    d7fa:	2000      	movs	r0, #0
    d7fc:	e8bd 81f0 	ldmia.w	sp!, {r4, r5, r6, r7, r8, pc}
    d800:	89ab      	ldrh	r3, [r5, #12]
    d802:	f043 0340 	orr.w	r3, r3, #64	; 0x40
    d806:	81ab      	strh	r3, [r5, #12]
    d808:	f04f 30ff 	mov.w	r0, #4294967295	; 0xffffffff
    d80c:	e8bd 81f0 	ldmia.w	sp!, {r4, r5, r6, r7, r8, pc}
    d810:	f8d8 2000 	ldr.w	r2, [r8]
    d814:	2a1d      	cmp	r2, #29
    d816:	d8f3      	bhi.n	d800 <__sflush_r+0xac>
    d818:	4b17      	ldr	r3, [pc, #92]	; (d878 <__sflush_r+0x124>)
    d81a:	40d3      	lsrs	r3, r2
    d81c:	43db      	mvns	r3, r3
    d81e:	f013 0301 	ands.w	r3, r3, #1
    d822:	d1ed      	bne.n	d800 <__sflush_r+0xac>
    d824:	89a9      	ldrh	r1, [r5, #12]
    d826:	692c      	ldr	r4, [r5, #16]
    d828:	606b      	str	r3, [r5, #4]
    d82a:	04c9      	lsls	r1, r1, #19
    d82c:	602c      	str	r4, [r5, #0]
    d82e:	d5bd      	bpl.n	d7ac <__sflush_r+0x58>
    d830:	2a00      	cmp	r2, #0
    d832:	d1bb      	bne.n	d7ac <__sflush_r+0x58>
    d834:	6528      	str	r0, [r5, #80]	; 0x50
    d836:	e7b9      	b.n	d7ac <__sflush_r+0x58>
    d838:	6bca      	ldr	r2, [r1, #60]	; 0x3c
    d83a:	2a00      	cmp	r2, #0
    d83c:	dc94      	bgt.n	d768 <__sflush_r+0x14>
    d83e:	e7dc      	b.n	d7fa <__sflush_r+0xa6>
    d840:	2301      	movs	r3, #1
    d842:	69e9      	ldr	r1, [r5, #28]
    d844:	4640      	mov	r0, r8
    d846:	47a0      	blx	r4
    d848:	1c43      	adds	r3, r0, #1
    d84a:	4602      	mov	r2, r0
    d84c:	d002      	beq.n	d854 <__sflush_r+0x100>
    d84e:	89ab      	ldrh	r3, [r5, #12]
    d850:	6aac      	ldr	r4, [r5, #40]	; 0x28
    d852:	e795      	b.n	d780 <__sflush_r+0x2c>
    d854:	f8d8 3000 	ldr.w	r3, [r8]
    d858:	2b00      	cmp	r3, #0
    d85a:	d0f8      	beq.n	d84e <__sflush_r+0xfa>
    d85c:	2b1d      	cmp	r3, #29
    d85e:	d001      	beq.n	d864 <__sflush_r+0x110>
    d860:	2b16      	cmp	r3, #22
    d862:	d102      	bne.n	d86a <__sflush_r+0x116>
    d864:	f8c8 6000 	str.w	r6, [r8]
    d868:	e7c7      	b.n	d7fa <__sflush_r+0xa6>
    d86a:	89ab      	ldrh	r3, [r5, #12]
    d86c:	f043 0340 	orr.w	r3, r3, #64	; 0x40
    d870:	81ab      	strh	r3, [r5, #12]
    d872:	e8bd 81f0 	ldmia.w	sp!, {r4, r5, r6, r7, r8, pc}
    d876:	bf00      	nop
    d878:	20400001 	.word	0x20400001

0000d87c <_fflush_r>:
    d87c:	b510      	push	{r4, lr}
    d87e:	4604      	mov	r4, r0
    d880:	b082      	sub	sp, #8
    d882:	b108      	cbz	r0, d888 <_fflush_r+0xc>
    d884:	6b83      	ldr	r3, [r0, #56]	; 0x38
    d886:	b153      	cbz	r3, d89e <_fflush_r+0x22>
    d888:	f9b1 000c 	ldrsh.w	r0, [r1, #12]
    d88c:	b908      	cbnz	r0, d892 <_fflush_r+0x16>
    d88e:	b002      	add	sp, #8
    d890:	bd10      	pop	{r4, pc}
    d892:	4620      	mov	r0, r4
    d894:	b002      	add	sp, #8
    d896:	e8bd 4010 	ldmia.w	sp!, {r4, lr}
    d89a:	f7ff bf5b 	b.w	d754 <__sflush_r>
    d89e:	9101      	str	r1, [sp, #4]
    d8a0:	f000 f8fe 	bl	daa0 <__sinit>
    d8a4:	9901      	ldr	r1, [sp, #4]
    d8a6:	e7ef      	b.n	d888 <_fflush_r+0xc>

0000d8a8 <fflush>:
    d8a8:	b120      	cbz	r0, d8b4 <fflush+0xc>
    d8aa:	4b05      	ldr	r3, [pc, #20]	; (d8c0 <fflush+0x18>)
    d8ac:	4601      	mov	r1, r0
    d8ae:	6818      	ldr	r0, [r3, #0]
    d8b0:	f7ff bfe4 	b.w	d87c <_fflush_r>
    d8b4:	4b03      	ldr	r3, [pc, #12]	; (d8c4 <fflush+0x1c>)
    d8b6:	4904      	ldr	r1, [pc, #16]	; (d8c8 <fflush+0x20>)
    d8b8:	6818      	ldr	r0, [r3, #0]
    d8ba:	f000 baaf 	b.w	de1c <_fwalk_reent>
    d8be:	bf00      	nop
    d8c0:	200079f8 	.word	0x200079f8
    d8c4:	00027538 	.word	0x00027538
    d8c8:	0000d87d 	.word	0x0000d87d

0000d8cc <__fp_unlock>:
    d8cc:	2000      	movs	r0, #0
    d8ce:	4770      	bx	lr

0000d8d0 <_cleanup_r>:
    d8d0:	4901      	ldr	r1, [pc, #4]	; (d8d8 <_cleanup_r+0x8>)
    d8d2:	f000 baa3 	b.w	de1c <_fwalk_reent>
    d8d6:	bf00      	nop
    d8d8:	0000d87d 	.word	0x0000d87d

0000d8dc <__sinit.part.1>:
    d8dc:	e92d 4ff0 	stmdb	sp!, {r4, r5, r6, r7, r8, r9, sl, fp, lr}
    d8e0:	4b35      	ldr	r3, [pc, #212]	; (d9b8 <__sinit.part.1+0xdc>)
    d8e2:	6845      	ldr	r5, [r0, #4]
    d8e4:	63c3      	str	r3, [r0, #60]	; 0x3c
    d8e6:	2400      	movs	r4, #0
    d8e8:	4607      	mov	r7, r0
    d8ea:	f500 72ac 	add.w	r2, r0, #344	; 0x158
    d8ee:	2304      	movs	r3, #4
    d8f0:	2103      	movs	r1, #3
    d8f2:	f8c0 1150 	str.w	r1, [r0, #336]	; 0x150
    d8f6:	f8c0 2154 	str.w	r2, [r0, #340]	; 0x154
    d8fa:	f8c0 414c 	str.w	r4, [r0, #332]	; 0x14c
    d8fe:	b083      	sub	sp, #12
    d900:	602c      	str	r4, [r5, #0]
    d902:	606c      	str	r4, [r5, #4]
    d904:	60ac      	str	r4, [r5, #8]
    d906:	666c      	str	r4, [r5, #100]	; 0x64
    d908:	81ec      	strh	r4, [r5, #14]
    d90a:	612c      	str	r4, [r5, #16]
    d90c:	616c      	str	r4, [r5, #20]
    d90e:	61ac      	str	r4, [r5, #24]
    d910:	81ab      	strh	r3, [r5, #12]
    d912:	4621      	mov	r1, r4
    d914:	f105 005c 	add.w	r0, r5, #92	; 0x5c
    d918:	2208      	movs	r2, #8
    d91a:	f7ff f88b 	bl	ca34 <memset>
    d91e:	68be      	ldr	r6, [r7, #8]
    d920:	f8df b098 	ldr.w	fp, [pc, #152]	; d9bc <__sinit.part.1+0xe0>
    d924:	f8df a098 	ldr.w	sl, [pc, #152]	; d9c0 <__sinit.part.1+0xe4>
    d928:	f8df 9098 	ldr.w	r9, [pc, #152]	; d9c4 <__sinit.part.1+0xe8>
    d92c:	f8df 8098 	ldr.w	r8, [pc, #152]	; d9c8 <__sinit.part.1+0xec>
    d930:	f8c5 b020 	str.w	fp, [r5, #32]
    d934:	2301      	movs	r3, #1
    d936:	2209      	movs	r2, #9
    d938:	f8c5 a024 	str.w	sl, [r5, #36]	; 0x24
    d93c:	f8c5 9028 	str.w	r9, [r5, #40]	; 0x28
    d940:	f8c5 802c 	str.w	r8, [r5, #44]	; 0x2c
    d944:	61ed      	str	r5, [r5, #28]
    d946:	4621      	mov	r1, r4
    d948:	81f3      	strh	r3, [r6, #14]
    d94a:	81b2      	strh	r2, [r6, #12]
    d94c:	f106 005c 	add.w	r0, r6, #92	; 0x5c
    d950:	6034      	str	r4, [r6, #0]
    d952:	6074      	str	r4, [r6, #4]
    d954:	60b4      	str	r4, [r6, #8]
    d956:	6674      	str	r4, [r6, #100]	; 0x64
    d958:	6134      	str	r4, [r6, #16]
    d95a:	6174      	str	r4, [r6, #20]
    d95c:	61b4      	str	r4, [r6, #24]
    d95e:	2208      	movs	r2, #8
    d960:	9301      	str	r3, [sp, #4]
    d962:	f7ff f867 	bl	ca34 <memset>
    d966:	68fd      	ldr	r5, [r7, #12]
    d968:	61f6      	str	r6, [r6, #28]
    d96a:	2012      	movs	r0, #18
    d96c:	2202      	movs	r2, #2
    d96e:	f8c6 b020 	str.w	fp, [r6, #32]
    d972:	f8c6 a024 	str.w	sl, [r6, #36]	; 0x24
    d976:	f8c6 9028 	str.w	r9, [r6, #40]	; 0x28
    d97a:	f8c6 802c 	str.w	r8, [r6, #44]	; 0x2c
    d97e:	4621      	mov	r1, r4
    d980:	81a8      	strh	r0, [r5, #12]
    d982:	81ea      	strh	r2, [r5, #14]
    d984:	602c      	str	r4, [r5, #0]
    d986:	606c      	str	r4, [r5, #4]
    d988:	60ac      	str	r4, [r5, #8]
    d98a:	666c      	str	r4, [r5, #100]	; 0x64
    d98c:	612c      	str	r4, [r5, #16]
    d98e:	616c      	str	r4, [r5, #20]
    d990:	61ac      	str	r4, [r5, #24]
    d992:	f105 005c 	add.w	r0, r5, #92	; 0x5c
    d996:	2208      	movs	r2, #8
    d998:	f7ff f84c 	bl	ca34 <memset>
    d99c:	9b01      	ldr	r3, [sp, #4]
    d99e:	61ed      	str	r5, [r5, #28]
    d9a0:	f8c5 b020 	str.w	fp, [r5, #32]
    d9a4:	f8c5 a024 	str.w	sl, [r5, #36]	; 0x24
    d9a8:	f8c5 9028 	str.w	r9, [r5, #40]	; 0x28
    d9ac:	f8c5 802c 	str.w	r8, [r5, #44]	; 0x2c
    d9b0:	63bb      	str	r3, [r7, #56]	; 0x38
    d9b2:	b003      	add	sp, #12
    d9b4:	e8bd 8ff0 	ldmia.w	sp!, {r4, r5, r6, r7, r8, r9, sl, fp, pc}
    d9b8:	0000d8d1 	.word	0x0000d8d1
    d9bc:	0000e5c9 	.word	0x0000e5c9
    d9c0:	0000e5f1 	.word	0x0000e5f1
    d9c4:	0000e62d 	.word	0x0000e62d
    d9c8:	0000e64d 	.word	0x0000e64d

0000d9cc <__fp_lock>:
    d9cc:	2000      	movs	r0, #0
    d9ce:	4770      	bx	lr

0000d9d0 <__sfmoreglue>:
    d9d0:	b570      	push	{r4, r5, r6, lr}
    d9d2:	1e4a      	subs	r2, r1, #1
    d9d4:	2568      	movs	r5, #104	; 0x68
    d9d6:	fb05 f502 	mul.w	r5, r5, r2
    d9da:	460e      	mov	r6, r1
    d9dc:	f105 0174 	add.w	r1, r5, #116	; 0x74
    d9e0:	f7ff f8be 	bl	cb60 <_malloc_r>
    d9e4:	4604      	mov	r4, r0
    d9e6:	b140      	cbz	r0, d9fa <__sfmoreglue+0x2a>
    d9e8:	2100      	movs	r1, #0
    d9ea:	300c      	adds	r0, #12
    d9ec:	6066      	str	r6, [r4, #4]
    d9ee:	f105 0268 	add.w	r2, r5, #104	; 0x68
    d9f2:	6021      	str	r1, [r4, #0]
    d9f4:	60a0      	str	r0, [r4, #8]
    d9f6:	f7ff f81d 	bl	ca34 <memset>
    d9fa:	4620      	mov	r0, r4
    d9fc:	bd70      	pop	{r4, r5, r6, pc}
    d9fe:	bf00      	nop

0000da00 <__sfp>:
    da00:	4b21      	ldr	r3, [pc, #132]	; (da88 <__sfp+0x88>)
    da02:	b570      	push	{r4, r5, r6, lr}
    da04:	681d      	ldr	r5, [r3, #0]
    da06:	6bab      	ldr	r3, [r5, #56]	; 0x38
    da08:	4606      	mov	r6, r0
    da0a:	2b00      	cmp	r3, #0
    da0c:	d02c      	beq.n	da68 <__sfp+0x68>
    da0e:	f505 75a6 	add.w	r5, r5, #332	; 0x14c
    da12:	686b      	ldr	r3, [r5, #4]
    da14:	68ac      	ldr	r4, [r5, #8]
    da16:	3b01      	subs	r3, #1
    da18:	d505      	bpl.n	da26 <__sfp+0x26>
    da1a:	e021      	b.n	da60 <__sfp+0x60>
    da1c:	3b01      	subs	r3, #1
    da1e:	1c5a      	adds	r2, r3, #1
    da20:	f104 0468 	add.w	r4, r4, #104	; 0x68
    da24:	d01c      	beq.n	da60 <__sfp+0x60>
    da26:	f9b4 200c 	ldrsh.w	r2, [r4, #12]
    da2a:	2a00      	cmp	r2, #0
    da2c:	d1f6      	bne.n	da1c <__sfp+0x1c>
    da2e:	2500      	movs	r5, #0
    da30:	f64f 72ff 	movw	r2, #65535	; 0xffff
    da34:	2301      	movs	r3, #1
    da36:	81e2      	strh	r2, [r4, #14]
    da38:	81a3      	strh	r3, [r4, #12]
    da3a:	6665      	str	r5, [r4, #100]	; 0x64
    da3c:	6025      	str	r5, [r4, #0]
    da3e:	60a5      	str	r5, [r4, #8]
    da40:	6065      	str	r5, [r4, #4]
    da42:	6125      	str	r5, [r4, #16]
    da44:	6165      	str	r5, [r4, #20]
    da46:	61a5      	str	r5, [r4, #24]
    da48:	4629      	mov	r1, r5
    da4a:	2208      	movs	r2, #8
    da4c:	f104 005c 	add.w	r0, r4, #92	; 0x5c
    da50:	f7fe fff0 	bl	ca34 <memset>
    da54:	6325      	str	r5, [r4, #48]	; 0x30
    da56:	6365      	str	r5, [r4, #52]	; 0x34
    da58:	6465      	str	r5, [r4, #68]	; 0x44
    da5a:	64a5      	str	r5, [r4, #72]	; 0x48
    da5c:	4620      	mov	r0, r4
    da5e:	bd70      	pop	{r4, r5, r6, pc}
    da60:	6828      	ldr	r0, [r5, #0]
    da62:	b128      	cbz	r0, da70 <__sfp+0x70>
    da64:	4605      	mov	r5, r0
    da66:	e7d4      	b.n	da12 <__sfp+0x12>
    da68:	4628      	mov	r0, r5
    da6a:	f7ff ff37 	bl	d8dc <__sinit.part.1>
    da6e:	e7ce      	b.n	da0e <__sfp+0xe>
    da70:	2104      	movs	r1, #4
    da72:	4630      	mov	r0, r6
    da74:	f7ff ffac 	bl	d9d0 <__sfmoreglue>
    da78:	6028      	str	r0, [r5, #0]
    da7a:	2800      	cmp	r0, #0
    da7c:	d1f2      	bne.n	da64 <__sfp+0x64>
    da7e:	230c      	movs	r3, #12
    da80:	4604      	mov	r4, r0
    da82:	6033      	str	r3, [r6, #0]
    da84:	e7ea      	b.n	da5c <__sfp+0x5c>
    da86:	bf00      	nop
    da88:	00027538 	.word	0x00027538

0000da8c <_cleanup>:
    da8c:	4b02      	ldr	r3, [pc, #8]	; (da98 <_cleanup+0xc>)
    da8e:	4903      	ldr	r1, [pc, #12]	; (da9c <_cleanup+0x10>)
    da90:	6818      	ldr	r0, [r3, #0]
    da92:	f000 b9c3 	b.w	de1c <_fwalk_reent>
    da96:	bf00      	nop
    da98:	00027538 	.word	0x00027538
    da9c:	0000d87d 	.word	0x0000d87d

0000daa0 <__sinit>:
    daa0:	6b83      	ldr	r3, [r0, #56]	; 0x38
    daa2:	b103      	cbz	r3, daa6 <__sinit+0x6>
    daa4:	4770      	bx	lr
    daa6:	e719      	b.n	d8dc <__sinit.part.1>

0000daa8 <__sfp_lock_acquire>:
    daa8:	4770      	bx	lr
    daaa:	bf00      	nop

0000daac <__sfp_lock_release>:
    daac:	4770      	bx	lr
    daae:	bf00      	nop

0000dab0 <__sinit_lock_acquire>:
    dab0:	4770      	bx	lr
    dab2:	bf00      	nop

0000dab4 <__sinit_lock_release>:
    dab4:	4770      	bx	lr
    dab6:	bf00      	nop

0000dab8 <__fp_lock_all>:
    dab8:	4b02      	ldr	r3, [pc, #8]	; (dac4 <__fp_lock_all+0xc>)
    daba:	4903      	ldr	r1, [pc, #12]	; (dac8 <__fp_lock_all+0x10>)
    dabc:	6818      	ldr	r0, [r3, #0]
    dabe:	f000 b987 	b.w	ddd0 <_fwalk>
    dac2:	bf00      	nop
    dac4:	200079f8 	.word	0x200079f8
    dac8:	0000d9cd 	.word	0x0000d9cd

0000dacc <__fp_unlock_all>:
    dacc:	4b02      	ldr	r3, [pc, #8]	; (dad8 <__fp_unlock_all+0xc>)
    dace:	4903      	ldr	r1, [pc, #12]	; (dadc <__fp_unlock_all+0x10>)
    dad0:	6818      	ldr	r0, [r3, #0]
    dad2:	f000 b97d 	b.w	ddd0 <_fwalk>
    dad6:	bf00      	nop
    dad8:	200079f8 	.word	0x200079f8
    dadc:	0000d8cd 	.word	0x0000d8cd

0000dae0 <__sfvwrite_r>:
    dae0:	6893      	ldr	r3, [r2, #8]
    dae2:	2b00      	cmp	r3, #0
    dae4:	d073      	beq.n	dbce <__sfvwrite_r+0xee>
    dae6:	e92d 4ff0 	stmdb	sp!, {r4, r5, r6, r7, r8, r9, sl, fp, lr}
    daea:	898b      	ldrh	r3, [r1, #12]
    daec:	b083      	sub	sp, #12
    daee:	460c      	mov	r4, r1
    daf0:	0719      	lsls	r1, r3, #28
    daf2:	9000      	str	r0, [sp, #0]
    daf4:	4616      	mov	r6, r2
    daf6:	d526      	bpl.n	db46 <__sfvwrite_r+0x66>
    daf8:	6922      	ldr	r2, [r4, #16]
    dafa:	b322      	cbz	r2, db46 <__sfvwrite_r+0x66>
    dafc:	f013 0002 	ands.w	r0, r3, #2
    db00:	6835      	ldr	r5, [r6, #0]
    db02:	d02c      	beq.n	db5e <__sfvwrite_r+0x7e>
    db04:	f04f 0900 	mov.w	r9, #0
    db08:	4fb0      	ldr	r7, [pc, #704]	; (ddcc <__sfvwrite_r+0x2ec>)
    db0a:	46c8      	mov	r8, r9
    db0c:	46b2      	mov	sl, r6
    db0e:	45b8      	cmp	r8, r7
    db10:	4643      	mov	r3, r8
    db12:	464a      	mov	r2, r9
    db14:	bf28      	it	cs
    db16:	463b      	movcs	r3, r7
    db18:	9800      	ldr	r0, [sp, #0]
    db1a:	f1b8 0f00 	cmp.w	r8, #0
    db1e:	d050      	beq.n	dbc2 <__sfvwrite_r+0xe2>
    db20:	69e1      	ldr	r1, [r4, #28]
    db22:	6a66      	ldr	r6, [r4, #36]	; 0x24
    db24:	47b0      	blx	r6
    db26:	2800      	cmp	r0, #0
    db28:	dd58      	ble.n	dbdc <__sfvwrite_r+0xfc>
    db2a:	f8da 3008 	ldr.w	r3, [sl, #8]
    db2e:	1a1b      	subs	r3, r3, r0
    db30:	4481      	add	r9, r0
    db32:	eba8 0800 	sub.w	r8, r8, r0
    db36:	f8ca 3008 	str.w	r3, [sl, #8]
    db3a:	2b00      	cmp	r3, #0
    db3c:	d1e7      	bne.n	db0e <__sfvwrite_r+0x2e>
    db3e:	2000      	movs	r0, #0
    db40:	b003      	add	sp, #12
    db42:	e8bd 8ff0 	ldmia.w	sp!, {r4, r5, r6, r7, r8, r9, sl, fp, pc}
    db46:	4621      	mov	r1, r4
    db48:	9800      	ldr	r0, [sp, #0]
    db4a:	f7ff fd97 	bl	d67c <__swsetup_r>
    db4e:	2800      	cmp	r0, #0
    db50:	f040 8133 	bne.w	ddba <__sfvwrite_r+0x2da>
    db54:	89a3      	ldrh	r3, [r4, #12]
    db56:	6835      	ldr	r5, [r6, #0]
    db58:	f013 0002 	ands.w	r0, r3, #2
    db5c:	d1d2      	bne.n	db04 <__sfvwrite_r+0x24>
    db5e:	f013 0901 	ands.w	r9, r3, #1
    db62:	d145      	bne.n	dbf0 <__sfvwrite_r+0x110>
    db64:	464f      	mov	r7, r9
    db66:	9601      	str	r6, [sp, #4]
    db68:	b337      	cbz	r7, dbb8 <__sfvwrite_r+0xd8>
    db6a:	059a      	lsls	r2, r3, #22
    db6c:	f8d4 8008 	ldr.w	r8, [r4, #8]
    db70:	f140 8083 	bpl.w	dc7a <__sfvwrite_r+0x19a>
    db74:	4547      	cmp	r7, r8
    db76:	46c3      	mov	fp, r8
    db78:	f0c0 80ab 	bcc.w	dcd2 <__sfvwrite_r+0x1f2>
    db7c:	f413 6f90 	tst.w	r3, #1152	; 0x480
    db80:	f040 80ac 	bne.w	dcdc <__sfvwrite_r+0x1fc>
    db84:	6820      	ldr	r0, [r4, #0]
    db86:	46ba      	mov	sl, r7
    db88:	465a      	mov	r2, fp
    db8a:	4649      	mov	r1, r9
    db8c:	f7fe feee 	bl	c96c <memmove>
    db90:	68a2      	ldr	r2, [r4, #8]
    db92:	6823      	ldr	r3, [r4, #0]
    db94:	eba2 0208 	sub.w	r2, r2, r8
    db98:	445b      	add	r3, fp
    db9a:	60a2      	str	r2, [r4, #8]
    db9c:	6023      	str	r3, [r4, #0]
    db9e:	9a01      	ldr	r2, [sp, #4]
    dba0:	6893      	ldr	r3, [r2, #8]
    dba2:	eba3 030a 	sub.w	r3, r3, sl
    dba6:	44d1      	add	r9, sl
    dba8:	eba7 070a 	sub.w	r7, r7, sl
    dbac:	6093      	str	r3, [r2, #8]
    dbae:	2b00      	cmp	r3, #0
    dbb0:	d0c5      	beq.n	db3e <__sfvwrite_r+0x5e>
    dbb2:	89a3      	ldrh	r3, [r4, #12]
    dbb4:	2f00      	cmp	r7, #0
    dbb6:	d1d8      	bne.n	db6a <__sfvwrite_r+0x8a>
    dbb8:	f8d5 9000 	ldr.w	r9, [r5]
    dbbc:	686f      	ldr	r7, [r5, #4]
    dbbe:	3508      	adds	r5, #8
    dbc0:	e7d2      	b.n	db68 <__sfvwrite_r+0x88>
    dbc2:	f8d5 9000 	ldr.w	r9, [r5]
    dbc6:	f8d5 8004 	ldr.w	r8, [r5, #4]
    dbca:	3508      	adds	r5, #8
    dbcc:	e79f      	b.n	db0e <__sfvwrite_r+0x2e>
    dbce:	2000      	movs	r0, #0
    dbd0:	4770      	bx	lr
    dbd2:	4621      	mov	r1, r4
    dbd4:	9800      	ldr	r0, [sp, #0]
    dbd6:	f7ff fe51 	bl	d87c <_fflush_r>
    dbda:	b370      	cbz	r0, dc3a <__sfvwrite_r+0x15a>
    dbdc:	f9b4 300c 	ldrsh.w	r3, [r4, #12]
    dbe0:	f043 0340 	orr.w	r3, r3, #64	; 0x40
    dbe4:	f04f 30ff 	mov.w	r0, #4294967295	; 0xffffffff
    dbe8:	81a3      	strh	r3, [r4, #12]
    dbea:	b003      	add	sp, #12
    dbec:	e8bd 8ff0 	ldmia.w	sp!, {r4, r5, r6, r7, r8, r9, sl, fp, pc}
    dbf0:	4681      	mov	r9, r0
    dbf2:	4633      	mov	r3, r6
    dbf4:	464e      	mov	r6, r9
    dbf6:	46a8      	mov	r8, r5
    dbf8:	469a      	mov	sl, r3
    dbfa:	464d      	mov	r5, r9
    dbfc:	b34e      	cbz	r6, dc52 <__sfvwrite_r+0x172>
    dbfe:	b380      	cbz	r0, dc62 <__sfvwrite_r+0x182>
    dc00:	6820      	ldr	r0, [r4, #0]
    dc02:	6923      	ldr	r3, [r4, #16]
    dc04:	6962      	ldr	r2, [r4, #20]
    dc06:	45b1      	cmp	r9, r6
    dc08:	46cb      	mov	fp, r9
    dc0a:	bf28      	it	cs
    dc0c:	46b3      	movcs	fp, r6
    dc0e:	4298      	cmp	r0, r3
    dc10:	465f      	mov	r7, fp
    dc12:	d904      	bls.n	dc1e <__sfvwrite_r+0x13e>
    dc14:	68a3      	ldr	r3, [r4, #8]
    dc16:	4413      	add	r3, r2
    dc18:	459b      	cmp	fp, r3
    dc1a:	f300 80a6 	bgt.w	dd6a <__sfvwrite_r+0x28a>
    dc1e:	4593      	cmp	fp, r2
    dc20:	db4b      	blt.n	dcba <__sfvwrite_r+0x1da>
    dc22:	4613      	mov	r3, r2
    dc24:	6a67      	ldr	r7, [r4, #36]	; 0x24
    dc26:	69e1      	ldr	r1, [r4, #28]
    dc28:	9800      	ldr	r0, [sp, #0]
    dc2a:	462a      	mov	r2, r5
    dc2c:	47b8      	blx	r7
    dc2e:	1e07      	subs	r7, r0, #0
    dc30:	ddd4      	ble.n	dbdc <__sfvwrite_r+0xfc>
    dc32:	ebb9 0907 	subs.w	r9, r9, r7
    dc36:	d0cc      	beq.n	dbd2 <__sfvwrite_r+0xf2>
    dc38:	2001      	movs	r0, #1
    dc3a:	f8da 3008 	ldr.w	r3, [sl, #8]
    dc3e:	1bdb      	subs	r3, r3, r7
    dc40:	443d      	add	r5, r7
    dc42:	1bf6      	subs	r6, r6, r7
    dc44:	f8ca 3008 	str.w	r3, [sl, #8]
    dc48:	2b00      	cmp	r3, #0
    dc4a:	f43f af78 	beq.w	db3e <__sfvwrite_r+0x5e>
    dc4e:	2e00      	cmp	r6, #0
    dc50:	d1d5      	bne.n	dbfe <__sfvwrite_r+0x11e>
    dc52:	f108 0308 	add.w	r3, r8, #8
    dc56:	e913 0060 	ldmdb	r3, {r5, r6}
    dc5a:	4698      	mov	r8, r3
    dc5c:	3308      	adds	r3, #8
    dc5e:	2e00      	cmp	r6, #0
    dc60:	d0f9      	beq.n	dc56 <__sfvwrite_r+0x176>
    dc62:	4632      	mov	r2, r6
    dc64:	210a      	movs	r1, #10
    dc66:	4628      	mov	r0, r5
    dc68:	f000 f97a 	bl	df60 <memchr>
    dc6c:	2800      	cmp	r0, #0
    dc6e:	f000 80a1 	beq.w	ddb4 <__sfvwrite_r+0x2d4>
    dc72:	3001      	adds	r0, #1
    dc74:	eba0 0905 	sub.w	r9, r0, r5
    dc78:	e7c2      	b.n	dc00 <__sfvwrite_r+0x120>
    dc7a:	6820      	ldr	r0, [r4, #0]
    dc7c:	6923      	ldr	r3, [r4, #16]
    dc7e:	4298      	cmp	r0, r3
    dc80:	d802      	bhi.n	dc88 <__sfvwrite_r+0x1a8>
    dc82:	6963      	ldr	r3, [r4, #20]
    dc84:	429f      	cmp	r7, r3
    dc86:	d25d      	bcs.n	dd44 <__sfvwrite_r+0x264>
    dc88:	45b8      	cmp	r8, r7
    dc8a:	bf28      	it	cs
    dc8c:	46b8      	movcs	r8, r7
    dc8e:	4642      	mov	r2, r8
    dc90:	4649      	mov	r1, r9
    dc92:	f7fe fe6b 	bl	c96c <memmove>
    dc96:	68a3      	ldr	r3, [r4, #8]
    dc98:	6822      	ldr	r2, [r4, #0]
    dc9a:	eba3 0308 	sub.w	r3, r3, r8
    dc9e:	4442      	add	r2, r8
    dca0:	60a3      	str	r3, [r4, #8]
    dca2:	6022      	str	r2, [r4, #0]
    dca4:	b10b      	cbz	r3, dcaa <__sfvwrite_r+0x1ca>
    dca6:	46c2      	mov	sl, r8
    dca8:	e779      	b.n	db9e <__sfvwrite_r+0xbe>
    dcaa:	4621      	mov	r1, r4
    dcac:	9800      	ldr	r0, [sp, #0]
    dcae:	f7ff fde5 	bl	d87c <_fflush_r>
    dcb2:	2800      	cmp	r0, #0
    dcb4:	d192      	bne.n	dbdc <__sfvwrite_r+0xfc>
    dcb6:	46c2      	mov	sl, r8
    dcb8:	e771      	b.n	db9e <__sfvwrite_r+0xbe>
    dcba:	465a      	mov	r2, fp
    dcbc:	4629      	mov	r1, r5
    dcbe:	f7fe fe55 	bl	c96c <memmove>
    dcc2:	68a2      	ldr	r2, [r4, #8]
    dcc4:	6823      	ldr	r3, [r4, #0]
    dcc6:	eba2 020b 	sub.w	r2, r2, fp
    dcca:	445b      	add	r3, fp
    dccc:	60a2      	str	r2, [r4, #8]
    dcce:	6023      	str	r3, [r4, #0]
    dcd0:	e7af      	b.n	dc32 <__sfvwrite_r+0x152>
    dcd2:	6820      	ldr	r0, [r4, #0]
    dcd4:	46b8      	mov	r8, r7
    dcd6:	46ba      	mov	sl, r7
    dcd8:	46bb      	mov	fp, r7
    dcda:	e755      	b.n	db88 <__sfvwrite_r+0xa8>
    dcdc:	6962      	ldr	r2, [r4, #20]
    dcde:	6820      	ldr	r0, [r4, #0]
    dce0:	6921      	ldr	r1, [r4, #16]
    dce2:	eb02 0842 	add.w	r8, r2, r2, lsl #1
    dce6:	eba0 0a01 	sub.w	sl, r0, r1
    dcea:	eb08 78d8 	add.w	r8, r8, r8, lsr #31
    dcee:	f10a 0001 	add.w	r0, sl, #1
    dcf2:	ea4f 0868 	mov.w	r8, r8, asr #1
    dcf6:	4438      	add	r0, r7
    dcf8:	4540      	cmp	r0, r8
    dcfa:	4642      	mov	r2, r8
    dcfc:	bf84      	itt	hi
    dcfe:	4680      	movhi	r8, r0
    dd00:	4642      	movhi	r2, r8
    dd02:	055b      	lsls	r3, r3, #21
    dd04:	d544      	bpl.n	dd90 <__sfvwrite_r+0x2b0>
    dd06:	4611      	mov	r1, r2
    dd08:	9800      	ldr	r0, [sp, #0]
    dd0a:	f7fe ff29 	bl	cb60 <_malloc_r>
    dd0e:	4683      	mov	fp, r0
    dd10:	2800      	cmp	r0, #0
    dd12:	d055      	beq.n	ddc0 <__sfvwrite_r+0x2e0>
    dd14:	4652      	mov	r2, sl
    dd16:	6921      	ldr	r1, [r4, #16]
    dd18:	f7fe fd8e 	bl	c838 <memcpy>
    dd1c:	89a3      	ldrh	r3, [r4, #12]
    dd1e:	f423 6390 	bic.w	r3, r3, #1152	; 0x480
    dd22:	f043 0380 	orr.w	r3, r3, #128	; 0x80
    dd26:	81a3      	strh	r3, [r4, #12]
    dd28:	eb0b 000a 	add.w	r0, fp, sl
    dd2c:	eba8 030a 	sub.w	r3, r8, sl
    dd30:	f8c4 b010 	str.w	fp, [r4, #16]
    dd34:	f8c4 8014 	str.w	r8, [r4, #20]
    dd38:	6020      	str	r0, [r4, #0]
    dd3a:	60a3      	str	r3, [r4, #8]
    dd3c:	46b8      	mov	r8, r7
    dd3e:	46ba      	mov	sl, r7
    dd40:	46bb      	mov	fp, r7
    dd42:	e721      	b.n	db88 <__sfvwrite_r+0xa8>
    dd44:	f06f 4100 	mvn.w	r1, #2147483648	; 0x80000000
    dd48:	42b9      	cmp	r1, r7
    dd4a:	bf28      	it	cs
    dd4c:	4639      	movcs	r1, r7
    dd4e:	464a      	mov	r2, r9
    dd50:	fb91 f1f3 	sdiv	r1, r1, r3
    dd54:	9800      	ldr	r0, [sp, #0]
    dd56:	6a66      	ldr	r6, [r4, #36]	; 0x24
    dd58:	fb03 f301 	mul.w	r3, r3, r1
    dd5c:	69e1      	ldr	r1, [r4, #28]
    dd5e:	47b0      	blx	r6
    dd60:	f1b0 0a00 	subs.w	sl, r0, #0
    dd64:	f73f af1b 	bgt.w	db9e <__sfvwrite_r+0xbe>
    dd68:	e738      	b.n	dbdc <__sfvwrite_r+0xfc>
    dd6a:	461a      	mov	r2, r3
    dd6c:	4629      	mov	r1, r5
    dd6e:	9301      	str	r3, [sp, #4]
    dd70:	f7fe fdfc 	bl	c96c <memmove>
    dd74:	6822      	ldr	r2, [r4, #0]
    dd76:	9b01      	ldr	r3, [sp, #4]
    dd78:	9800      	ldr	r0, [sp, #0]
    dd7a:	441a      	add	r2, r3
    dd7c:	6022      	str	r2, [r4, #0]
    dd7e:	4621      	mov	r1, r4
    dd80:	f7ff fd7c 	bl	d87c <_fflush_r>
    dd84:	9b01      	ldr	r3, [sp, #4]
    dd86:	2800      	cmp	r0, #0
    dd88:	f47f af28 	bne.w	dbdc <__sfvwrite_r+0xfc>
    dd8c:	461f      	mov	r7, r3
    dd8e:	e750      	b.n	dc32 <__sfvwrite_r+0x152>
    dd90:	9800      	ldr	r0, [sp, #0]
    dd92:	f000 f935 	bl	e000 <_realloc_r>
    dd96:	4683      	mov	fp, r0
    dd98:	2800      	cmp	r0, #0
    dd9a:	d1c5      	bne.n	dd28 <__sfvwrite_r+0x248>
    dd9c:	9d00      	ldr	r5, [sp, #0]
    dd9e:	6921      	ldr	r1, [r4, #16]
    dda0:	4628      	mov	r0, r5
    dda2:	f7fe fe95 	bl	cad0 <_free_r>
    dda6:	f9b4 300c 	ldrsh.w	r3, [r4, #12]
    ddaa:	220c      	movs	r2, #12
    ddac:	f023 0380 	bic.w	r3, r3, #128	; 0x80
    ddb0:	602a      	str	r2, [r5, #0]
    ddb2:	e715      	b.n	dbe0 <__sfvwrite_r+0x100>
    ddb4:	f106 0901 	add.w	r9, r6, #1
    ddb8:	e722      	b.n	dc00 <__sfvwrite_r+0x120>
    ddba:	f04f 30ff 	mov.w	r0, #4294967295	; 0xffffffff
    ddbe:	e6bf      	b.n	db40 <__sfvwrite_r+0x60>
    ddc0:	9a00      	ldr	r2, [sp, #0]
    ddc2:	230c      	movs	r3, #12
    ddc4:	6013      	str	r3, [r2, #0]
    ddc6:	f9b4 300c 	ldrsh.w	r3, [r4, #12]
    ddca:	e709      	b.n	dbe0 <__sfvwrite_r+0x100>
    ddcc:	7ffffc00 	.word	0x7ffffc00

0000ddd0 <_fwalk>:
    ddd0:	e92d 41f0 	stmdb	sp!, {r4, r5, r6, r7, r8, lr}
    ddd4:	f510 77a6 	adds.w	r7, r0, #332	; 0x14c
    ddd8:	d01b      	beq.n	de12 <_fwalk+0x42>
    ddda:	4688      	mov	r8, r1
    dddc:	2600      	movs	r6, #0
    ddde:	687d      	ldr	r5, [r7, #4]
    dde0:	68bc      	ldr	r4, [r7, #8]
    dde2:	3d01      	subs	r5, #1
    dde4:	d40f      	bmi.n	de06 <_fwalk+0x36>
    dde6:	89a3      	ldrh	r3, [r4, #12]
    dde8:	2b01      	cmp	r3, #1
    ddea:	f105 35ff 	add.w	r5, r5, #4294967295	; 0xffffffff
    ddee:	d906      	bls.n	ddfe <_fwalk+0x2e>
    ddf0:	f9b4 300e 	ldrsh.w	r3, [r4, #14]
    ddf4:	3301      	adds	r3, #1
    ddf6:	4620      	mov	r0, r4
    ddf8:	d001      	beq.n	ddfe <_fwalk+0x2e>
    ddfa:	47c0      	blx	r8
    ddfc:	4306      	orrs	r6, r0
    ddfe:	1c6b      	adds	r3, r5, #1
    de00:	f104 0468 	add.w	r4, r4, #104	; 0x68
    de04:	d1ef      	bne.n	dde6 <_fwalk+0x16>
    de06:	683f      	ldr	r7, [r7, #0]
    de08:	2f00      	cmp	r7, #0
    de0a:	d1e8      	bne.n	ddde <_fwalk+0xe>
    de0c:	4630      	mov	r0, r6
    de0e:	e8bd 81f0 	ldmia.w	sp!, {r4, r5, r6, r7, r8, pc}
    de12:	463e      	mov	r6, r7
    de14:	4630      	mov	r0, r6
    de16:	e8bd 81f0 	ldmia.w	sp!, {r4, r5, r6, r7, r8, pc}
    de1a:	bf00      	nop

0000de1c <_fwalk_reent>:
    de1c:	e92d 43f8 	stmdb	sp!, {r3, r4, r5, r6, r7, r8, r9, lr}
    de20:	f510 77a6 	adds.w	r7, r0, #332	; 0x14c
    de24:	d01f      	beq.n	de66 <_fwalk_reent+0x4a>
    de26:	4688      	mov	r8, r1
    de28:	4606      	mov	r6, r0
    de2a:	f04f 0900 	mov.w	r9, #0
    de2e:	687d      	ldr	r5, [r7, #4]
    de30:	68bc      	ldr	r4, [r7, #8]
    de32:	3d01      	subs	r5, #1
    de34:	d411      	bmi.n	de5a <_fwalk_reent+0x3e>
    de36:	89a3      	ldrh	r3, [r4, #12]
    de38:	2b01      	cmp	r3, #1
    de3a:	f105 35ff 	add.w	r5, r5, #4294967295	; 0xffffffff
    de3e:	d908      	bls.n	de52 <_fwalk_reent+0x36>
    de40:	f9b4 300e 	ldrsh.w	r3, [r4, #14]
    de44:	3301      	adds	r3, #1
    de46:	4621      	mov	r1, r4
    de48:	4630      	mov	r0, r6
    de4a:	d002      	beq.n	de52 <_fwalk_reent+0x36>
    de4c:	47c0      	blx	r8
    de4e:	ea49 0900 	orr.w	r9, r9, r0
    de52:	1c6b      	adds	r3, r5, #1
    de54:	f104 0468 	add.w	r4, r4, #104	; 0x68
    de58:	d1ed      	bne.n	de36 <_fwalk_reent+0x1a>
    de5a:	683f      	ldr	r7, [r7, #0]
    de5c:	2f00      	cmp	r7, #0
    de5e:	d1e6      	bne.n	de2e <_fwalk_reent+0x12>
    de60:	4648      	mov	r0, r9
    de62:	e8bd 83f8 	ldmia.w	sp!, {r3, r4, r5, r6, r7, r8, r9, pc}
    de66:	46b9      	mov	r9, r7
    de68:	4648      	mov	r0, r9
    de6a:	e8bd 83f8 	ldmia.w	sp!, {r3, r4, r5, r6, r7, r8, r9, pc}
    de6e:	bf00      	nop

0000de70 <__swhatbuf_r>:
    de70:	b570      	push	{r4, r5, r6, lr}
    de72:	460c      	mov	r4, r1
    de74:	f9b1 100e 	ldrsh.w	r1, [r1, #14]
    de78:	2900      	cmp	r1, #0
    de7a:	b090      	sub	sp, #64	; 0x40
    de7c:	4615      	mov	r5, r2
    de7e:	461e      	mov	r6, r3
    de80:	db13      	blt.n	deaa <__swhatbuf_r+0x3a>
    de82:	aa01      	add	r2, sp, #4
    de84:	f000 fc0e 	bl	e6a4 <_fstat_r>
    de88:	2800      	cmp	r0, #0
    de8a:	db0e      	blt.n	deaa <__swhatbuf_r+0x3a>
    de8c:	9a02      	ldr	r2, [sp, #8]
    de8e:	f402 4270 	and.w	r2, r2, #61440	; 0xf000
    de92:	f5a2 5200 	sub.w	r2, r2, #8192	; 0x2000
    de96:	fab2 f282 	clz	r2, r2
    de9a:	0952      	lsrs	r2, r2, #5
    de9c:	f44f 6380 	mov.w	r3, #1024	; 0x400
    dea0:	2000      	movs	r0, #0
    dea2:	6032      	str	r2, [r6, #0]
    dea4:	602b      	str	r3, [r5, #0]
    dea6:	b010      	add	sp, #64	; 0x40
    dea8:	bd70      	pop	{r4, r5, r6, pc}
    deaa:	89a3      	ldrh	r3, [r4, #12]
    deac:	2200      	movs	r2, #0
    deae:	061b      	lsls	r3, r3, #24
    deb0:	6032      	str	r2, [r6, #0]
    deb2:	d504      	bpl.n	debe <__swhatbuf_r+0x4e>
    deb4:	2340      	movs	r3, #64	; 0x40
    deb6:	2000      	movs	r0, #0
    deb8:	602b      	str	r3, [r5, #0]
    deba:	b010      	add	sp, #64	; 0x40
    debc:	bd70      	pop	{r4, r5, r6, pc}
    debe:	f44f 6380 	mov.w	r3, #1024	; 0x400
    dec2:	2000      	movs	r0, #0
    dec4:	602b      	str	r3, [r5, #0]
    dec6:	b010      	add	sp, #64	; 0x40
    dec8:	bd70      	pop	{r4, r5, r6, pc}
    deca:	bf00      	nop

0000decc <__smakebuf_r>:
    decc:	898a      	ldrh	r2, [r1, #12]
    dece:	0792      	lsls	r2, r2, #30
    ded0:	460b      	mov	r3, r1
    ded2:	d506      	bpl.n	dee2 <__smakebuf_r+0x16>
    ded4:	f101 0243 	add.w	r2, r1, #67	; 0x43
    ded8:	2101      	movs	r1, #1
    deda:	601a      	str	r2, [r3, #0]
    dedc:	611a      	str	r2, [r3, #16]
    dede:	6159      	str	r1, [r3, #20]
    dee0:	4770      	bx	lr
    dee2:	b5f0      	push	{r4, r5, r6, r7, lr}
    dee4:	b083      	sub	sp, #12
    dee6:	ab01      	add	r3, sp, #4
    dee8:	466a      	mov	r2, sp
    deea:	460c      	mov	r4, r1
    deec:	4605      	mov	r5, r0
    deee:	f7ff ffbf 	bl	de70 <__swhatbuf_r>
    def2:	9900      	ldr	r1, [sp, #0]
    def4:	4606      	mov	r6, r0
    def6:	4628      	mov	r0, r5
    def8:	f7fe fe32 	bl	cb60 <_malloc_r>
    defc:	f9b4 300c 	ldrsh.w	r3, [r4, #12]
    df00:	b1d0      	cbz	r0, df38 <__smakebuf_r+0x6c>
    df02:	9a01      	ldr	r2, [sp, #4]
    df04:	4f12      	ldr	r7, [pc, #72]	; (df50 <__smakebuf_r+0x84>)
    df06:	9900      	ldr	r1, [sp, #0]
    df08:	63ef      	str	r7, [r5, #60]	; 0x3c
    df0a:	f043 0380 	orr.w	r3, r3, #128	; 0x80
    df0e:	81a3      	strh	r3, [r4, #12]
    df10:	6020      	str	r0, [r4, #0]
    df12:	6120      	str	r0, [r4, #16]
    df14:	6161      	str	r1, [r4, #20]
    df16:	b91a      	cbnz	r2, df20 <__smakebuf_r+0x54>
    df18:	4333      	orrs	r3, r6
    df1a:	81a3      	strh	r3, [r4, #12]
    df1c:	b003      	add	sp, #12
    df1e:	bdf0      	pop	{r4, r5, r6, r7, pc}
    df20:	4628      	mov	r0, r5
    df22:	f9b4 100e 	ldrsh.w	r1, [r4, #14]
    df26:	f000 fbd1 	bl	e6cc <_isatty_r>
    df2a:	f9b4 300c 	ldrsh.w	r3, [r4, #12]
    df2e:	2800      	cmp	r0, #0
    df30:	d0f2      	beq.n	df18 <__smakebuf_r+0x4c>
    df32:	f043 0301 	orr.w	r3, r3, #1
    df36:	e7ef      	b.n	df18 <__smakebuf_r+0x4c>
    df38:	059a      	lsls	r2, r3, #22
    df3a:	d4ef      	bmi.n	df1c <__smakebuf_r+0x50>
    df3c:	f104 0243 	add.w	r2, r4, #67	; 0x43
    df40:	f043 0302 	orr.w	r3, r3, #2
    df44:	2101      	movs	r1, #1
    df46:	81a3      	strh	r3, [r4, #12]
    df48:	6022      	str	r2, [r4, #0]
    df4a:	6122      	str	r2, [r4, #16]
    df4c:	6161      	str	r1, [r4, #20]
    df4e:	e7e5      	b.n	df1c <__smakebuf_r+0x50>
    df50:	0000d8d1 	.word	0x0000d8d1
	...

0000df60 <memchr>:
    df60:	f001 01ff 	and.w	r1, r1, #255	; 0xff
    df64:	2a10      	cmp	r2, #16
    df66:	db2b      	blt.n	dfc0 <memchr+0x60>
    df68:	f010 0f07 	tst.w	r0, #7
    df6c:	d008      	beq.n	df80 <memchr+0x20>
    df6e:	f810 3b01 	ldrb.w	r3, [r0], #1
    df72:	3a01      	subs	r2, #1
    df74:	428b      	cmp	r3, r1
    df76:	d02d      	beq.n	dfd4 <memchr+0x74>
    df78:	f010 0f07 	tst.w	r0, #7
    df7c:	b342      	cbz	r2, dfd0 <memchr+0x70>
    df7e:	d1f6      	bne.n	df6e <memchr+0xe>
    df80:	b4f0      	push	{r4, r5, r6, r7}
    df82:	ea41 2101 	orr.w	r1, r1, r1, lsl #8
    df86:	ea41 4101 	orr.w	r1, r1, r1, lsl #16
    df8a:	f022 0407 	bic.w	r4, r2, #7
    df8e:	f07f 0700 	mvns.w	r7, #0
    df92:	2300      	movs	r3, #0
    df94:	e8f0 5602 	ldrd	r5, r6, [r0], #8
    df98:	3c08      	subs	r4, #8
    df9a:	ea85 0501 	eor.w	r5, r5, r1
    df9e:	ea86 0601 	eor.w	r6, r6, r1
    dfa2:	fa85 f547 	uadd8	r5, r5, r7
    dfa6:	faa3 f587 	sel	r5, r3, r7
    dfaa:	fa86 f647 	uadd8	r6, r6, r7
    dfae:	faa5 f687 	sel	r6, r5, r7
    dfb2:	b98e      	cbnz	r6, dfd8 <memchr+0x78>
    dfb4:	d1ee      	bne.n	df94 <memchr+0x34>
    dfb6:	bcf0      	pop	{r4, r5, r6, r7}
    dfb8:	f001 01ff 	and.w	r1, r1, #255	; 0xff
    dfbc:	f002 0207 	and.w	r2, r2, #7
    dfc0:	b132      	cbz	r2, dfd0 <memchr+0x70>
    dfc2:	f810 3b01 	ldrb.w	r3, [r0], #1
    dfc6:	3a01      	subs	r2, #1
    dfc8:	ea83 0301 	eor.w	r3, r3, r1
    dfcc:	b113      	cbz	r3, dfd4 <memchr+0x74>
    dfce:	d1f8      	bne.n	dfc2 <memchr+0x62>
    dfd0:	2000      	movs	r0, #0
    dfd2:	4770      	bx	lr
    dfd4:	3801      	subs	r0, #1
    dfd6:	4770      	bx	lr
    dfd8:	2d00      	cmp	r5, #0
    dfda:	bf06      	itte	eq
    dfdc:	4635      	moveq	r5, r6
    dfde:	3803      	subeq	r0, #3
    dfe0:	3807      	subne	r0, #7
    dfe2:	f015 0f01 	tst.w	r5, #1
    dfe6:	d107      	bne.n	dff8 <memchr+0x98>
    dfe8:	3001      	adds	r0, #1
    dfea:	f415 7f80 	tst.w	r5, #256	; 0x100
    dfee:	bf02      	ittt	eq
    dff0:	3001      	addeq	r0, #1
    dff2:	f415 3fc0 	tsteq.w	r5, #98304	; 0x18000
    dff6:	3001      	addeq	r0, #1
    dff8:	bcf0      	pop	{r4, r5, r6, r7}
    dffa:	3801      	subs	r0, #1
    dffc:	4770      	bx	lr
    dffe:	bf00      	nop

0000e000 <_realloc_r>:
    e000:	b5f8      	push	{r3, r4, r5, r6, r7, lr}
    e002:	4614      	mov	r4, r2
    e004:	b1f9      	cbz	r1, e046 <_realloc_r+0x46>
    e006:	b1c2      	cbz	r2, e03a <_realloc_r+0x3a>
    e008:	4606      	mov	r6, r0
    e00a:	460d      	mov	r5, r1
    e00c:	f000 fb86 	bl	e71c <_malloc_usable_size_r>
    e010:	4284      	cmp	r4, r0
    e012:	d801      	bhi.n	e018 <_realloc_r+0x18>
    e014:	4628      	mov	r0, r5
    e016:	bdf8      	pop	{r3, r4, r5, r6, r7, pc}
    e018:	4621      	mov	r1, r4
    e01a:	4630      	mov	r0, r6
    e01c:	f7fe fda0 	bl	cb60 <_malloc_r>
    e020:	4607      	mov	r7, r0
    e022:	b170      	cbz	r0, e042 <_realloc_r+0x42>
    e024:	4622      	mov	r2, r4
    e026:	4629      	mov	r1, r5
    e028:	f7fe fc06 	bl	c838 <memcpy>
    e02c:	4629      	mov	r1, r5
    e02e:	4630      	mov	r0, r6
    e030:	463d      	mov	r5, r7
    e032:	f7fe fd4d 	bl	cad0 <_free_r>
    e036:	4628      	mov	r0, r5
    e038:	bdf8      	pop	{r3, r4, r5, r6, r7, pc}
    e03a:	f7fe fd49 	bl	cad0 <_free_r>
    e03e:	4625      	mov	r5, r4
    e040:	e7e8      	b.n	e014 <_realloc_r+0x14>
    e042:	4605      	mov	r5, r0
    e044:	e7e6      	b.n	e014 <_realloc_r+0x14>
    e046:	4611      	mov	r1, r2
    e048:	e8bd 40f8 	ldmia.w	sp!, {r3, r4, r5, r6, r7, lr}
    e04c:	f7fe bd88 	b.w	cb60 <_malloc_r>

0000e050 <_printf_common>:
    e050:	e92d 47f0 	stmdb	sp!, {r4, r5, r6, r7, r8, r9, sl, lr}
    e054:	460c      	mov	r4, r1
    e056:	4691      	mov	r9, r2
    e058:	690a      	ldr	r2, [r1, #16]
    e05a:	6889      	ldr	r1, [r1, #8]
    e05c:	f8dd 8020 	ldr.w	r8, [sp, #32]
    e060:	428a      	cmp	r2, r1
    e062:	bfb8      	it	lt
    e064:	460a      	movlt	r2, r1
    e066:	f8c9 2000 	str.w	r2, [r9]
    e06a:	f894 1043 	ldrb.w	r1, [r4, #67]	; 0x43
    e06e:	4606      	mov	r6, r0
    e070:	461f      	mov	r7, r3
    e072:	b111      	cbz	r1, e07a <_printf_common+0x2a>
    e074:	3201      	adds	r2, #1
    e076:	f8c9 2000 	str.w	r2, [r9]
    e07a:	6823      	ldr	r3, [r4, #0]
    e07c:	0699      	lsls	r1, r3, #26
    e07e:	d55d      	bpl.n	e13c <_printf_common+0xec>
    e080:	f8d9 2000 	ldr.w	r2, [r9]
    e084:	3202      	adds	r2, #2
    e086:	f8c9 2000 	str.w	r2, [r9]
    e08a:	6823      	ldr	r3, [r4, #0]
    e08c:	f013 0f06 	tst.w	r3, #6
    e090:	4619      	mov	r1, r3
    e092:	d11d      	bne.n	e0d0 <_printf_common+0x80>
    e094:	68e1      	ldr	r1, [r4, #12]
    e096:	1a8a      	subs	r2, r1, r2
    e098:	2a00      	cmp	r2, #0
    e09a:	bfd8      	it	le
    e09c:	4619      	movle	r1, r3
    e09e:	dd17      	ble.n	e0d0 <_printf_common+0x80>
    e0a0:	f104 0a19 	add.w	sl, r4, #25
    e0a4:	2500      	movs	r5, #0
    e0a6:	e005      	b.n	e0b4 <_printf_common+0x64>
    e0a8:	68e3      	ldr	r3, [r4, #12]
    e0aa:	f8d9 2000 	ldr.w	r2, [r9]
    e0ae:	1a9b      	subs	r3, r3, r2
    e0b0:	42ab      	cmp	r3, r5
    e0b2:	dd0c      	ble.n	e0ce <_printf_common+0x7e>
    e0b4:	2301      	movs	r3, #1
    e0b6:	4652      	mov	r2, sl
    e0b8:	4639      	mov	r1, r7
    e0ba:	4630      	mov	r0, r6
    e0bc:	47c0      	blx	r8
    e0be:	3001      	adds	r0, #1
    e0c0:	f105 0501 	add.w	r5, r5, #1
    e0c4:	d1f0      	bne.n	e0a8 <_printf_common+0x58>
    e0c6:	f04f 30ff 	mov.w	r0, #4294967295	; 0xffffffff
    e0ca:	e8bd 87f0 	ldmia.w	sp!, {r4, r5, r6, r7, r8, r9, sl, pc}
    e0ce:	6821      	ldr	r1, [r4, #0]
    e0d0:	f894 3043 	ldrb.w	r3, [r4, #67]	; 0x43
    e0d4:	3300      	adds	r3, #0
    e0d6:	bf18      	it	ne
    e0d8:	2301      	movne	r3, #1
    e0da:	068a      	lsls	r2, r1, #26
    e0dc:	d50a      	bpl.n	e0f4 <_printf_common+0xa4>
    e0de:	18e1      	adds	r1, r4, r3
    e0e0:	1c5a      	adds	r2, r3, #1
    e0e2:	2030      	movs	r0, #48	; 0x30
    e0e4:	f881 0043 	strb.w	r0, [r1, #67]	; 0x43
    e0e8:	4422      	add	r2, r4
    e0ea:	f894 1045 	ldrb.w	r1, [r4, #69]	; 0x45
    e0ee:	f882 1043 	strb.w	r1, [r2, #67]	; 0x43
    e0f2:	3302      	adds	r3, #2
    e0f4:	f104 0243 	add.w	r2, r4, #67	; 0x43
    e0f8:	4639      	mov	r1, r7
    e0fa:	4630      	mov	r0, r6
    e0fc:	47c0      	blx	r8
    e0fe:	3001      	adds	r0, #1
    e100:	d0e1      	beq.n	e0c6 <_printf_common+0x76>
    e102:	6823      	ldr	r3, [r4, #0]
    e104:	f003 0306 	and.w	r3, r3, #6
    e108:	2b04      	cmp	r3, #4
    e10a:	d029      	beq.n	e160 <_printf_common+0x110>
    e10c:	68a3      	ldr	r3, [r4, #8]
    e10e:	6922      	ldr	r2, [r4, #16]
    e110:	4293      	cmp	r3, r2
    e112:	bfc8      	it	gt
    e114:	f04f 0900 	movgt.w	r9, #0
    e118:	dd30      	ble.n	e17c <_printf_common+0x12c>
    e11a:	1a9b      	subs	r3, r3, r2
    e11c:	4499      	add	r9, r3
    e11e:	341a      	adds	r4, #26
    e120:	2500      	movs	r5, #0
    e122:	e001      	b.n	e128 <_printf_common+0xd8>
    e124:	454d      	cmp	r5, r9
    e126:	d029      	beq.n	e17c <_printf_common+0x12c>
    e128:	2301      	movs	r3, #1
    e12a:	4622      	mov	r2, r4
    e12c:	4639      	mov	r1, r7
    e12e:	4630      	mov	r0, r6
    e130:	47c0      	blx	r8
    e132:	3001      	adds	r0, #1
    e134:	f105 0501 	add.w	r5, r5, #1
    e138:	d1f4      	bne.n	e124 <_printf_common+0xd4>
    e13a:	e7c4      	b.n	e0c6 <_printf_common+0x76>
    e13c:	f013 0f06 	tst.w	r3, #6
    e140:	d108      	bne.n	e154 <_printf_common+0x104>
    e142:	68e1      	ldr	r1, [r4, #12]
    e144:	f8d9 2000 	ldr.w	r2, [r9]
    e148:	1a8a      	subs	r2, r1, r2
    e14a:	2a00      	cmp	r2, #0
    e14c:	bfd8      	it	le
    e14e:	4619      	movle	r1, r3
    e150:	dca6      	bgt.n	e0a0 <_printf_common+0x50>
    e152:	e7bd      	b.n	e0d0 <_printf_common+0x80>
    e154:	f894 3043 	ldrb.w	r3, [r4, #67]	; 0x43
    e158:	3300      	adds	r3, #0
    e15a:	bf18      	it	ne
    e15c:	2301      	movne	r3, #1
    e15e:	e7c9      	b.n	e0f4 <_printf_common+0xa4>
    e160:	f8d9 1000 	ldr.w	r1, [r9]
    e164:	68e0      	ldr	r0, [r4, #12]
    e166:	68a3      	ldr	r3, [r4, #8]
    e168:	6922      	ldr	r2, [r4, #16]
    e16a:	eba0 0901 	sub.w	r9, r0, r1
    e16e:	4293      	cmp	r3, r2
    e170:	ea29 79e9 	bic.w	r9, r9, r9, asr #31
    e174:	dcd1      	bgt.n	e11a <_printf_common+0xca>
    e176:	f1b9 0f00 	cmp.w	r9, #0
    e17a:	d1d0      	bne.n	e11e <_printf_common+0xce>
    e17c:	2000      	movs	r0, #0
    e17e:	e8bd 87f0 	ldmia.w	sp!, {r4, r5, r6, r7, r8, r9, sl, pc}
    e182:	bf00      	nop

0000e184 <_printf_i>:
    e184:	e92d 43f0 	stmdb	sp!, {r4, r5, r6, r7, r8, r9, lr}
    e188:	460c      	mov	r4, r1
    e18a:	7e09      	ldrb	r1, [r1, #24]
    e18c:	b085      	sub	sp, #20
    e18e:	296e      	cmp	r1, #110	; 0x6e
    e190:	4606      	mov	r6, r0
    e192:	4617      	mov	r7, r2
    e194:	980c      	ldr	r0, [sp, #48]	; 0x30
    e196:	4698      	mov	r8, r3
    e198:	f104 0c43 	add.w	ip, r4, #67	; 0x43
    e19c:	d055      	beq.n	e24a <_printf_i+0xc6>
    e19e:	d80f      	bhi.n	e1c0 <_printf_i+0x3c>
    e1a0:	2963      	cmp	r1, #99	; 0x63
    e1a2:	f000 811b 	beq.w	e3dc <_printf_i+0x258>
    e1a6:	f200 80d6 	bhi.w	e356 <_printf_i+0x1d2>
    e1aa:	2900      	cmp	r1, #0
    e1ac:	d05c      	beq.n	e268 <_printf_i+0xe4>
    e1ae:	2958      	cmp	r1, #88	; 0x58
    e1b0:	f040 80e8 	bne.w	e384 <_printf_i+0x200>
    e1b4:	f884 1045 	strb.w	r1, [r4, #69]	; 0x45
    e1b8:	6822      	ldr	r2, [r4, #0]
    e1ba:	f8df e260 	ldr.w	lr, [pc, #608]	; e41c <_printf_i+0x298>
    e1be:	e013      	b.n	e1e8 <_printf_i+0x64>
    e1c0:	2973      	cmp	r1, #115	; 0x73
    e1c2:	f000 80fd 	beq.w	e3c0 <_printf_i+0x23c>
    e1c6:	f200 8089 	bhi.w	e2dc <_printf_i+0x158>
    e1ca:	296f      	cmp	r1, #111	; 0x6f
    e1cc:	f000 80e4 	beq.w	e398 <_printf_i+0x214>
    e1d0:	2970      	cmp	r1, #112	; 0x70
    e1d2:	f040 80d7 	bne.w	e384 <_printf_i+0x200>
    e1d6:	6822      	ldr	r2, [r4, #0]
    e1d8:	f042 0220 	orr.w	r2, r2, #32
    e1dc:	6022      	str	r2, [r4, #0]
    e1de:	2378      	movs	r3, #120	; 0x78
    e1e0:	f8df e23c 	ldr.w	lr, [pc, #572]	; e420 <_printf_i+0x29c>
    e1e4:	f884 3045 	strb.w	r3, [r4, #69]	; 0x45
    e1e8:	6803      	ldr	r3, [r0, #0]
    e1ea:	0615      	lsls	r5, r2, #24
    e1ec:	f103 0104 	add.w	r1, r3, #4
    e1f0:	f100 80ff 	bmi.w	e3f2 <_printf_i+0x26e>
    e1f4:	0655      	lsls	r5, r2, #25
    e1f6:	bf4b      	itete	mi
    e1f8:	881b      	ldrhmi	r3, [r3, #0]
    e1fa:	681b      	ldrpl	r3, [r3, #0]
    e1fc:	6001      	strmi	r1, [r0, #0]
    e1fe:	6001      	strpl	r1, [r0, #0]
    e200:	07d0      	lsls	r0, r2, #31
    e202:	bf44      	itt	mi
    e204:	f042 0220 	orrmi.w	r2, r2, #32
    e208:	6022      	strmi	r2, [r4, #0]
    e20a:	2b00      	cmp	r3, #0
    e20c:	f040 8095 	bne.w	e33a <_printf_i+0x1b6>
    e210:	6822      	ldr	r2, [r4, #0]
    e212:	f022 0220 	bic.w	r2, r2, #32
    e216:	6022      	str	r2, [r4, #0]
    e218:	2110      	movs	r1, #16
    e21a:	2200      	movs	r2, #0
    e21c:	f884 2043 	strb.w	r2, [r4, #67]	; 0x43
    e220:	6860      	ldr	r0, [r4, #4]
    e222:	60a0      	str	r0, [r4, #8]
    e224:	2800      	cmp	r0, #0
    e226:	f2c0 808d 	blt.w	e344 <_printf_i+0x1c0>
    e22a:	6822      	ldr	r2, [r4, #0]
    e22c:	f022 0204 	bic.w	r2, r2, #4
    e230:	6022      	str	r2, [r4, #0]
    e232:	2b00      	cmp	r3, #0
    e234:	d167      	bne.n	e306 <_printf_i+0x182>
    e236:	2800      	cmp	r0, #0
    e238:	f040 8086 	bne.w	e348 <_printf_i+0x1c4>
    e23c:	4665      	mov	r5, ip
    e23e:	2908      	cmp	r1, #8
    e240:	d06f      	beq.n	e322 <_printf_i+0x19e>
    e242:	ebac 0305 	sub.w	r3, ip, r5
    e246:	6123      	str	r3, [r4, #16]
    e248:	e011      	b.n	e26e <_printf_i+0xea>
    e24a:	6823      	ldr	r3, [r4, #0]
    e24c:	061a      	lsls	r2, r3, #24
    e24e:	f100 80d3 	bmi.w	e3f8 <_printf_i+0x274>
    e252:	f013 0f40 	tst.w	r3, #64	; 0x40
    e256:	6803      	ldr	r3, [r0, #0]
    e258:	6962      	ldr	r2, [r4, #20]
    e25a:	f103 0104 	add.w	r1, r3, #4
    e25e:	6001      	str	r1, [r0, #0]
    e260:	681b      	ldr	r3, [r3, #0]
    e262:	bf14      	ite	ne
    e264:	801a      	strhne	r2, [r3, #0]
    e266:	601a      	streq	r2, [r3, #0]
    e268:	2300      	movs	r3, #0
    e26a:	4665      	mov	r5, ip
    e26c:	6123      	str	r3, [r4, #16]
    e26e:	f8cd 8000 	str.w	r8, [sp]
    e272:	463b      	mov	r3, r7
    e274:	aa03      	add	r2, sp, #12
    e276:	4621      	mov	r1, r4
    e278:	4630      	mov	r0, r6
    e27a:	f7ff fee9 	bl	e050 <_printf_common>
    e27e:	3001      	adds	r0, #1
    e280:	d021      	beq.n	e2c6 <_printf_i+0x142>
    e282:	462a      	mov	r2, r5
    e284:	6923      	ldr	r3, [r4, #16]
    e286:	4639      	mov	r1, r7
    e288:	4630      	mov	r0, r6
    e28a:	47c0      	blx	r8
    e28c:	3001      	adds	r0, #1
    e28e:	d01a      	beq.n	e2c6 <_printf_i+0x142>
    e290:	6823      	ldr	r3, [r4, #0]
    e292:	68e0      	ldr	r0, [r4, #12]
    e294:	f013 0f02 	tst.w	r3, #2
    e298:	9b03      	ldr	r3, [sp, #12]
    e29a:	d019      	beq.n	e2d0 <_printf_i+0x14c>
    e29c:	1ac2      	subs	r2, r0, r3
    e29e:	2a00      	cmp	r2, #0
    e2a0:	dd16      	ble.n	e2d0 <_printf_i+0x14c>
    e2a2:	f104 0919 	add.w	r9, r4, #25
    e2a6:	2500      	movs	r5, #0
    e2a8:	e004      	b.n	e2b4 <_printf_i+0x130>
    e2aa:	68e0      	ldr	r0, [r4, #12]
    e2ac:	9b03      	ldr	r3, [sp, #12]
    e2ae:	1ac2      	subs	r2, r0, r3
    e2b0:	42aa      	cmp	r2, r5
    e2b2:	dd0d      	ble.n	e2d0 <_printf_i+0x14c>
    e2b4:	2301      	movs	r3, #1
    e2b6:	464a      	mov	r2, r9
    e2b8:	4639      	mov	r1, r7
    e2ba:	4630      	mov	r0, r6
    e2bc:	47c0      	blx	r8
    e2be:	3001      	adds	r0, #1
    e2c0:	f105 0501 	add.w	r5, r5, #1
    e2c4:	d1f1      	bne.n	e2aa <_printf_i+0x126>
    e2c6:	f04f 30ff 	mov.w	r0, #4294967295	; 0xffffffff
    e2ca:	b005      	add	sp, #20
    e2cc:	e8bd 83f0 	ldmia.w	sp!, {r4, r5, r6, r7, r8, r9, pc}
    e2d0:	4298      	cmp	r0, r3
    e2d2:	bfb8      	it	lt
    e2d4:	4618      	movlt	r0, r3
    e2d6:	b005      	add	sp, #20
    e2d8:	e8bd 83f0 	ldmia.w	sp!, {r4, r5, r6, r7, r8, r9, pc}
    e2dc:	2975      	cmp	r1, #117	; 0x75
    e2de:	d05b      	beq.n	e398 <_printf_i+0x214>
    e2e0:	2978      	cmp	r1, #120	; 0x78
    e2e2:	d14f      	bne.n	e384 <_printf_i+0x200>
    e2e4:	6822      	ldr	r2, [r4, #0]
    e2e6:	e77a      	b.n	e1de <_printf_i+0x5a>
    e2e8:	6861      	ldr	r1, [r4, #4]
    e2ea:	60a1      	str	r1, [r4, #8]
    e2ec:	202d      	movs	r0, #45	; 0x2d
    e2ee:	2900      	cmp	r1, #0
    e2f0:	f1c3 0300 	rsb	r3, r3, #0
    e2f4:	f884 0043 	strb.w	r0, [r4, #67]	; 0x43
    e2f8:	db21      	blt.n	e33e <_printf_i+0x1ba>
    e2fa:	f022 0204 	bic.w	r2, r2, #4
    e2fe:	f8df e11c 	ldr.w	lr, [pc, #284]	; e41c <_printf_i+0x298>
    e302:	6022      	str	r2, [r4, #0]
    e304:	210a      	movs	r1, #10
    e306:	4665      	mov	r5, ip
    e308:	fbb3 f2f1 	udiv	r2, r3, r1
    e30c:	fb01 3012 	mls	r0, r1, r2, r3
    e310:	4613      	mov	r3, r2
    e312:	f81e 2000 	ldrb.w	r2, [lr, r0]
    e316:	f805 2d01 	strb.w	r2, [r5, #-1]!
    e31a:	2b00      	cmp	r3, #0
    e31c:	d1f4      	bne.n	e308 <_printf_i+0x184>
    e31e:	2908      	cmp	r1, #8
    e320:	d18f      	bne.n	e242 <_printf_i+0xbe>
    e322:	6823      	ldr	r3, [r4, #0]
    e324:	07d9      	lsls	r1, r3, #31
    e326:	d58c      	bpl.n	e242 <_printf_i+0xbe>
    e328:	6862      	ldr	r2, [r4, #4]
    e32a:	6923      	ldr	r3, [r4, #16]
    e32c:	429a      	cmp	r2, r3
    e32e:	dc88      	bgt.n	e242 <_printf_i+0xbe>
    e330:	2330      	movs	r3, #48	; 0x30
    e332:	f805 3c01 	strb.w	r3, [r5, #-1]
    e336:	3d01      	subs	r5, #1
    e338:	e783      	b.n	e242 <_printf_i+0xbe>
    e33a:	2110      	movs	r1, #16
    e33c:	e76d      	b.n	e21a <_printf_i+0x96>
    e33e:	f8df e0dc 	ldr.w	lr, [pc, #220]	; e41c <_printf_i+0x298>
    e342:	210a      	movs	r1, #10
    e344:	2b00      	cmp	r3, #0
    e346:	d1de      	bne.n	e306 <_printf_i+0x182>
    e348:	f89e 3000 	ldrb.w	r3, [lr]
    e34c:	f884 3042 	strb.w	r3, [r4, #66]	; 0x42
    e350:	f104 0542 	add.w	r5, r4, #66	; 0x42
    e354:	e773      	b.n	e23e <_printf_i+0xba>
    e356:	2964      	cmp	r1, #100	; 0x64
    e358:	d001      	beq.n	e35e <_printf_i+0x1da>
    e35a:	2969      	cmp	r1, #105	; 0x69
    e35c:	d112      	bne.n	e384 <_printf_i+0x200>
    e35e:	6822      	ldr	r2, [r4, #0]
    e360:	6803      	ldr	r3, [r0, #0]
    e362:	0615      	lsls	r5, r2, #24
    e364:	f103 0104 	add.w	r1, r3, #4
    e368:	d452      	bmi.n	e410 <_printf_i+0x28c>
    e36a:	0655      	lsls	r5, r2, #25
    e36c:	bf4b      	itete	mi
    e36e:	f9b3 3000 	ldrshmi.w	r3, [r3]
    e372:	681b      	ldrpl	r3, [r3, #0]
    e374:	6001      	strmi	r1, [r0, #0]
    e376:	6001      	strpl	r1, [r0, #0]
    e378:	2b00      	cmp	r3, #0
    e37a:	dbb5      	blt.n	e2e8 <_printf_i+0x164>
    e37c:	f8df e09c 	ldr.w	lr, [pc, #156]	; e41c <_printf_i+0x298>
    e380:	210a      	movs	r1, #10
    e382:	e74d      	b.n	e220 <_printf_i+0x9c>
    e384:	2301      	movs	r3, #1
    e386:	f884 1042 	strb.w	r1, [r4, #66]	; 0x42
    e38a:	6123      	str	r3, [r4, #16]
    e38c:	f104 0542 	add.w	r5, r4, #66	; 0x42
    e390:	2300      	movs	r3, #0
    e392:	f884 3043 	strb.w	r3, [r4, #67]	; 0x43
    e396:	e76a      	b.n	e26e <_printf_i+0xea>
    e398:	6823      	ldr	r3, [r4, #0]
    e39a:	061a      	lsls	r2, r3, #24
    e39c:	d433      	bmi.n	e406 <_printf_i+0x282>
    e39e:	f013 0f40 	tst.w	r3, #64	; 0x40
    e3a2:	6803      	ldr	r3, [r0, #0]
    e3a4:	f103 0204 	add.w	r2, r3, #4
    e3a8:	bf15      	itete	ne
    e3aa:	881b      	ldrhne	r3, [r3, #0]
    e3ac:	681b      	ldreq	r3, [r3, #0]
    e3ae:	6002      	strne	r2, [r0, #0]
    e3b0:	6002      	streq	r2, [r0, #0]
    e3b2:	296f      	cmp	r1, #111	; 0x6f
    e3b4:	bf14      	ite	ne
    e3b6:	210a      	movne	r1, #10
    e3b8:	2108      	moveq	r1, #8
    e3ba:	f8df e060 	ldr.w	lr, [pc, #96]	; e41c <_printf_i+0x298>
    e3be:	e72c      	b.n	e21a <_printf_i+0x96>
    e3c0:	6803      	ldr	r3, [r0, #0]
    e3c2:	6862      	ldr	r2, [r4, #4]
    e3c4:	1d19      	adds	r1, r3, #4
    e3c6:	6001      	str	r1, [r0, #0]
    e3c8:	681d      	ldr	r5, [r3, #0]
    e3ca:	2100      	movs	r1, #0
    e3cc:	4628      	mov	r0, r5
    e3ce:	f7ff fdc7 	bl	df60 <memchr>
    e3d2:	b300      	cbz	r0, e416 <_printf_i+0x292>
    e3d4:	1b40      	subs	r0, r0, r5
    e3d6:	6060      	str	r0, [r4, #4]
    e3d8:	6120      	str	r0, [r4, #16]
    e3da:	e7d9      	b.n	e390 <_printf_i+0x20c>
    e3dc:	6803      	ldr	r3, [r0, #0]
    e3de:	681a      	ldr	r2, [r3, #0]
    e3e0:	1d19      	adds	r1, r3, #4
    e3e2:	2301      	movs	r3, #1
    e3e4:	6001      	str	r1, [r0, #0]
    e3e6:	f104 0542 	add.w	r5, r4, #66	; 0x42
    e3ea:	f884 2042 	strb.w	r2, [r4, #66]	; 0x42
    e3ee:	6123      	str	r3, [r4, #16]
    e3f0:	e7ce      	b.n	e390 <_printf_i+0x20c>
    e3f2:	6001      	str	r1, [r0, #0]
    e3f4:	681b      	ldr	r3, [r3, #0]
    e3f6:	e703      	b.n	e200 <_printf_i+0x7c>
    e3f8:	6803      	ldr	r3, [r0, #0]
    e3fa:	6962      	ldr	r2, [r4, #20]
    e3fc:	1d19      	adds	r1, r3, #4
    e3fe:	6001      	str	r1, [r0, #0]
    e400:	681b      	ldr	r3, [r3, #0]
    e402:	601a      	str	r2, [r3, #0]
    e404:	e730      	b.n	e268 <_printf_i+0xe4>
    e406:	6803      	ldr	r3, [r0, #0]
    e408:	1d1a      	adds	r2, r3, #4
    e40a:	6002      	str	r2, [r0, #0]
    e40c:	681b      	ldr	r3, [r3, #0]
    e40e:	e7d0      	b.n	e3b2 <_printf_i+0x22e>
    e410:	6001      	str	r1, [r0, #0]
    e412:	681b      	ldr	r3, [r3, #0]
    e414:	e7b0      	b.n	e378 <_printf_i+0x1f4>
    e416:	6860      	ldr	r0, [r4, #4]
    e418:	e7de      	b.n	e3d8 <_printf_i+0x254>
    e41a:	bf00      	nop
    e41c:	00029838 	.word	0x00029838
    e420:	0002984c 	.word	0x0002984c

0000e424 <_init_signal_r.part.0>:
    e424:	b510      	push	{r4, lr}
    e426:	2180      	movs	r1, #128	; 0x80
    e428:	4604      	mov	r4, r0
    e42a:	f7fe fb99 	bl	cb60 <_malloc_r>
    e42e:	f8c4 0148 	str.w	r0, [r4, #328]	; 0x148
    e432:	b140      	cbz	r0, e446 <_init_signal_r.part.0+0x22>
    e434:	1f03      	subs	r3, r0, #4
    e436:	2200      	movs	r2, #0
    e438:	307c      	adds	r0, #124	; 0x7c
    e43a:	f843 2f04 	str.w	r2, [r3, #4]!
    e43e:	4283      	cmp	r3, r0
    e440:	d1fb      	bne.n	e43a <_init_signal_r.part.0+0x16>
    e442:	2000      	movs	r0, #0
    e444:	bd10      	pop	{r4, pc}
    e446:	f04f 30ff 	mov.w	r0, #4294967295	; 0xffffffff
    e44a:	bd10      	pop	{r4, pc}

0000e44c <_init_signal_r>:
    e44c:	f8d0 3148 	ldr.w	r3, [r0, #328]	; 0x148
    e450:	b10b      	cbz	r3, e456 <_init_signal_r+0xa>
    e452:	2000      	movs	r0, #0
    e454:	4770      	bx	lr
    e456:	e7e5      	b.n	e424 <_init_signal_r.part.0>

0000e458 <_signal_r>:
    e458:	291f      	cmp	r1, #31
    e45a:	d80a      	bhi.n	e472 <_signal_r+0x1a>
    e45c:	b510      	push	{r4, lr}
    e45e:	f8d0 4148 	ldr.w	r4, [r0, #328]	; 0x148
    e462:	b084      	sub	sp, #16
    e464:	b154      	cbz	r4, e47c <_signal_r+0x24>
    e466:	f854 0021 	ldr.w	r0, [r4, r1, lsl #2]
    e46a:	f844 2021 	str.w	r2, [r4, r1, lsl #2]
    e46e:	b004      	add	sp, #16
    e470:	bd10      	pop	{r4, pc}
    e472:	2216      	movs	r2, #22
    e474:	6002      	str	r2, [r0, #0]
    e476:	f04f 30ff 	mov.w	r0, #4294967295	; 0xffffffff
    e47a:	4770      	bx	lr
    e47c:	9003      	str	r0, [sp, #12]
    e47e:	9202      	str	r2, [sp, #8]
    e480:	9101      	str	r1, [sp, #4]
    e482:	f7ff ffcf 	bl	e424 <_init_signal_r.part.0>
    e486:	b928      	cbnz	r0, e494 <_signal_r+0x3c>
    e488:	9b03      	ldr	r3, [sp, #12]
    e48a:	9a02      	ldr	r2, [sp, #8]
    e48c:	f8d3 4148 	ldr.w	r4, [r3, #328]	; 0x148
    e490:	9901      	ldr	r1, [sp, #4]
    e492:	e7e8      	b.n	e466 <_signal_r+0xe>
    e494:	f04f 30ff 	mov.w	r0, #4294967295	; 0xffffffff
    e498:	e7e9      	b.n	e46e <_signal_r+0x16>
    e49a:	bf00      	nop

0000e49c <_raise_r>:
    e49c:	291f      	cmp	r1, #31
    e49e:	d828      	bhi.n	e4f2 <_raise_r+0x56>
    e4a0:	b520      	push	{r5, lr}
    e4a2:	f8d0 2148 	ldr.w	r2, [r0, #328]	; 0x148
    e4a6:	b082      	sub	sp, #8
    e4a8:	4605      	mov	r5, r0
    e4aa:	b1aa      	cbz	r2, e4d8 <_raise_r+0x3c>
    e4ac:	f852 3021 	ldr.w	r3, [r2, r1, lsl #2]
    e4b0:	b193      	cbz	r3, e4d8 <_raise_r+0x3c>
    e4b2:	2b01      	cmp	r3, #1
    e4b4:	d00e      	beq.n	e4d4 <_raise_r+0x38>
    e4b6:	1c58      	adds	r0, r3, #1
    e4b8:	d007      	beq.n	e4ca <_raise_r+0x2e>
    e4ba:	2500      	movs	r5, #0
    e4bc:	4608      	mov	r0, r1
    e4be:	f842 5021 	str.w	r5, [r2, r1, lsl #2]
    e4c2:	4798      	blx	r3
    e4c4:	4628      	mov	r0, r5
    e4c6:	b002      	add	sp, #8
    e4c8:	bd20      	pop	{r5, pc}
    e4ca:	2316      	movs	r3, #22
    e4cc:	2001      	movs	r0, #1
    e4ce:	602b      	str	r3, [r5, #0]
    e4d0:	b002      	add	sp, #8
    e4d2:	bd20      	pop	{r5, pc}
    e4d4:	2000      	movs	r0, #0
    e4d6:	e7f6      	b.n	e4c6 <_raise_r+0x2a>
    e4d8:	4628      	mov	r0, r5
    e4da:	9101      	str	r1, [sp, #4]
    e4dc:	f000 f872 	bl	e5c4 <_getpid_r>
    e4e0:	9901      	ldr	r1, [sp, #4]
    e4e2:	460a      	mov	r2, r1
    e4e4:	4601      	mov	r1, r0
    e4e6:	4628      	mov	r0, r5
    e4e8:	b002      	add	sp, #8
    e4ea:	e8bd 4020 	ldmia.w	sp!, {r5, lr}
    e4ee:	f000 b855 	b.w	e59c <_kill_r>
    e4f2:	2316      	movs	r3, #22
    e4f4:	6003      	str	r3, [r0, #0]
    e4f6:	f04f 30ff 	mov.w	r0, #4294967295	; 0xffffffff
    e4fa:	4770      	bx	lr

0000e4fc <__sigtramp_r>:
    e4fc:	291f      	cmp	r1, #31
    e4fe:	d828      	bhi.n	e552 <__sigtramp_r+0x56>
    e500:	b520      	push	{r5, lr}
    e502:	f8d0 3148 	ldr.w	r3, [r0, #328]	; 0x148
    e506:	b082      	sub	sp, #8
    e508:	4605      	mov	r5, r0
    e50a:	b1bb      	cbz	r3, e53c <__sigtramp_r+0x40>
    e50c:	f853 2021 	ldr.w	r2, [r3, r1, lsl #2]
    e510:	eb03 0381 	add.w	r3, r3, r1, lsl #2
    e514:	b182      	cbz	r2, e538 <__sigtramp_r+0x3c>
    e516:	1c50      	adds	r0, r2, #1
    e518:	d00b      	beq.n	e532 <__sigtramp_r+0x36>
    e51a:	2a01      	cmp	r2, #1
    e51c:	d006      	beq.n	e52c <__sigtramp_r+0x30>
    e51e:	2500      	movs	r5, #0
    e520:	4608      	mov	r0, r1
    e522:	601d      	str	r5, [r3, #0]
    e524:	4790      	blx	r2
    e526:	4628      	mov	r0, r5
    e528:	b002      	add	sp, #8
    e52a:	bd20      	pop	{r5, pc}
    e52c:	2003      	movs	r0, #3
    e52e:	b002      	add	sp, #8
    e530:	bd20      	pop	{r5, pc}
    e532:	2002      	movs	r0, #2
    e534:	b002      	add	sp, #8
    e536:	bd20      	pop	{r5, pc}
    e538:	2001      	movs	r0, #1
    e53a:	e7f5      	b.n	e528 <__sigtramp_r+0x2c>
    e53c:	9101      	str	r1, [sp, #4]
    e53e:	f7ff ff71 	bl	e424 <_init_signal_r.part.0>
    e542:	b918      	cbnz	r0, e54c <__sigtramp_r+0x50>
    e544:	f8d5 3148 	ldr.w	r3, [r5, #328]	; 0x148
    e548:	9901      	ldr	r1, [sp, #4]
    e54a:	e7df      	b.n	e50c <__sigtramp_r+0x10>
    e54c:	f04f 30ff 	mov.w	r0, #4294967295	; 0xffffffff
    e550:	e7ea      	b.n	e528 <__sigtramp_r+0x2c>
    e552:	f04f 30ff 	mov.w	r0, #4294967295	; 0xffffffff
    e556:	4770      	bx	lr

0000e558 <raise>:
    e558:	4b02      	ldr	r3, [pc, #8]	; (e564 <raise+0xc>)
    e55a:	4601      	mov	r1, r0
    e55c:	6818      	ldr	r0, [r3, #0]
    e55e:	f7ff bf9d 	b.w	e49c <_raise_r>
    e562:	bf00      	nop
    e564:	200079f8 	.word	0x200079f8

0000e568 <signal>:
    e568:	4b02      	ldr	r3, [pc, #8]	; (e574 <signal+0xc>)
    e56a:	460a      	mov	r2, r1
    e56c:	4601      	mov	r1, r0
    e56e:	6818      	ldr	r0, [r3, #0]
    e570:	f7ff bf72 	b.w	e458 <_signal_r>
    e574:	200079f8 	.word	0x200079f8

0000e578 <_init_signal>:
    e578:	4b03      	ldr	r3, [pc, #12]	; (e588 <_init_signal+0x10>)
    e57a:	6818      	ldr	r0, [r3, #0]
    e57c:	f8d0 3148 	ldr.w	r3, [r0, #328]	; 0x148
    e580:	b10b      	cbz	r3, e586 <_init_signal+0xe>
    e582:	2000      	movs	r0, #0
    e584:	4770      	bx	lr
    e586:	e74d      	b.n	e424 <_init_signal_r.part.0>
    e588:	200079f8 	.word	0x200079f8

0000e58c <__sigtramp>:
    e58c:	4b02      	ldr	r3, [pc, #8]	; (e598 <__sigtramp+0xc>)
    e58e:	4601      	mov	r1, r0
    e590:	6818      	ldr	r0, [r3, #0]
    e592:	f7ff bfb3 	b.w	e4fc <__sigtramp_r>
    e596:	bf00      	nop
    e598:	200079f8 	.word	0x200079f8

0000e59c <_kill_r>:
    e59c:	b538      	push	{r3, r4, r5, lr}
    e59e:	460b      	mov	r3, r1
    e5a0:	4c07      	ldr	r4, [pc, #28]	; (e5c0 <_kill_r+0x24>)
    e5a2:	4605      	mov	r5, r0
    e5a4:	4611      	mov	r1, r2
    e5a6:	4618      	mov	r0, r3
    e5a8:	2300      	movs	r3, #0
    e5aa:	6023      	str	r3, [r4, #0]
    e5ac:	f003 f872 	bl	11694 <_kill>
    e5b0:	1c43      	adds	r3, r0, #1
    e5b2:	d000      	beq.n	e5b6 <_kill_r+0x1a>
    e5b4:	bd38      	pop	{r3, r4, r5, pc}
    e5b6:	6823      	ldr	r3, [r4, #0]
    e5b8:	2b00      	cmp	r3, #0
    e5ba:	d0fb      	beq.n	e5b4 <_kill_r+0x18>
    e5bc:	602b      	str	r3, [r5, #0]
    e5be:	bd38      	pop	{r3, r4, r5, pc}
    e5c0:	20002bc0 	.word	0x20002bc0

0000e5c4 <_getpid_r>:
    e5c4:	f003 b868 	b.w	11698 <_getpid>

0000e5c8 <__sread>:
    e5c8:	b510      	push	{r4, lr}
    e5ca:	460c      	mov	r4, r1
    e5cc:	f9b1 100e 	ldrsh.w	r1, [r1, #14]
    e5d0:	f000 f8ae 	bl	e730 <_read_r>
    e5d4:	2800      	cmp	r0, #0
    e5d6:	db03      	blt.n	e5e0 <__sread+0x18>
    e5d8:	6d23      	ldr	r3, [r4, #80]	; 0x50
    e5da:	4403      	add	r3, r0
    e5dc:	6523      	str	r3, [r4, #80]	; 0x50
    e5de:	bd10      	pop	{r4, pc}
    e5e0:	89a3      	ldrh	r3, [r4, #12]
    e5e2:	f423 5380 	bic.w	r3, r3, #4096	; 0x1000
    e5e6:	81a3      	strh	r3, [r4, #12]
    e5e8:	bd10      	pop	{r4, pc}
    e5ea:	bf00      	nop

0000e5ec <__seofread>:
    e5ec:	2000      	movs	r0, #0
    e5ee:	4770      	bx	lr

0000e5f0 <__swrite>:
    e5f0:	e92d 41f0 	stmdb	sp!, {r4, r5, r6, r7, r8, lr}
    e5f4:	4616      	mov	r6, r2
    e5f6:	f9b1 200c 	ldrsh.w	r2, [r1, #12]
    e5fa:	461f      	mov	r7, r3
    e5fc:	05d3      	lsls	r3, r2, #23
    e5fe:	460c      	mov	r4, r1
    e600:	4605      	mov	r5, r0
    e602:	d507      	bpl.n	e614 <__swrite+0x24>
    e604:	2200      	movs	r2, #0
    e606:	2302      	movs	r3, #2
    e608:	f9b1 100e 	ldrsh.w	r1, [r1, #14]
    e60c:	f000 f870 	bl	e6f0 <_lseek_r>
    e610:	f9b4 200c 	ldrsh.w	r2, [r4, #12]
    e614:	f9b4 100e 	ldrsh.w	r1, [r4, #14]
    e618:	f422 5280 	bic.w	r2, r2, #4096	; 0x1000
    e61c:	81a2      	strh	r2, [r4, #12]
    e61e:	463b      	mov	r3, r7
    e620:	4632      	mov	r2, r6
    e622:	4628      	mov	r0, r5
    e624:	e8bd 41f0 	ldmia.w	sp!, {r4, r5, r6, r7, r8, lr}
    e628:	f000 b814 	b.w	e654 <_write_r>

0000e62c <__sseek>:
    e62c:	b510      	push	{r4, lr}
    e62e:	460c      	mov	r4, r1
    e630:	f9b1 100e 	ldrsh.w	r1, [r1, #14]
    e634:	f000 f85c 	bl	e6f0 <_lseek_r>
    e638:	89a3      	ldrh	r3, [r4, #12]
    e63a:	1c42      	adds	r2, r0, #1
    e63c:	bf0e      	itee	eq
    e63e:	f423 5380 	biceq.w	r3, r3, #4096	; 0x1000
    e642:	f443 5380 	orrne.w	r3, r3, #4096	; 0x1000
    e646:	6520      	strne	r0, [r4, #80]	; 0x50
    e648:	81a3      	strh	r3, [r4, #12]
    e64a:	bd10      	pop	{r4, pc}

0000e64c <__sclose>:
    e64c:	f9b1 100e 	ldrsh.w	r1, [r1, #14]
    e650:	f000 b816 	b.w	e680 <_close_r>

0000e654 <_write_r>:
    e654:	b570      	push	{r4, r5, r6, lr}
    e656:	460d      	mov	r5, r1
    e658:	4c08      	ldr	r4, [pc, #32]	; (e67c <_write_r+0x28>)
    e65a:	4611      	mov	r1, r2
    e65c:	4606      	mov	r6, r0
    e65e:	461a      	mov	r2, r3
    e660:	4628      	mov	r0, r5
    e662:	2300      	movs	r3, #0
    e664:	6023      	str	r3, [r4, #0]
    e666:	f002 fffb 	bl	11660 <_write>
    e66a:	1c43      	adds	r3, r0, #1
    e66c:	d000      	beq.n	e670 <_write_r+0x1c>
    e66e:	bd70      	pop	{r4, r5, r6, pc}
    e670:	6823      	ldr	r3, [r4, #0]
    e672:	2b00      	cmp	r3, #0
    e674:	d0fb      	beq.n	e66e <_write_r+0x1a>
    e676:	6033      	str	r3, [r6, #0]
    e678:	bd70      	pop	{r4, r5, r6, pc}
    e67a:	bf00      	nop
    e67c:	20002bc0 	.word	0x20002bc0

0000e680 <_close_r>:
    e680:	b538      	push	{r3, r4, r5, lr}
    e682:	4c07      	ldr	r4, [pc, #28]	; (e6a0 <_close_r+0x20>)
    e684:	2300      	movs	r3, #0
    e686:	4605      	mov	r5, r0
    e688:	4608      	mov	r0, r1
    e68a:	6023      	str	r3, [r4, #0]
    e68c:	f003 f816 	bl	116bc <_close>
    e690:	1c43      	adds	r3, r0, #1
    e692:	d000      	beq.n	e696 <_close_r+0x16>
    e694:	bd38      	pop	{r3, r4, r5, pc}
    e696:	6823      	ldr	r3, [r4, #0]
    e698:	2b00      	cmp	r3, #0
    e69a:	d0fb      	beq.n	e694 <_close_r+0x14>
    e69c:	602b      	str	r3, [r5, #0]
    e69e:	bd38      	pop	{r3, r4, r5, pc}
    e6a0:	20002bc0 	.word	0x20002bc0

0000e6a4 <_fstat_r>:
    e6a4:	b538      	push	{r3, r4, r5, lr}
    e6a6:	460b      	mov	r3, r1
    e6a8:	4c07      	ldr	r4, [pc, #28]	; (e6c8 <_fstat_r+0x24>)
    e6aa:	4605      	mov	r5, r0
    e6ac:	4611      	mov	r1, r2
    e6ae:	4618      	mov	r0, r3
    e6b0:	2300      	movs	r3, #0
    e6b2:	6023      	str	r3, [r4, #0]
    e6b4:	f002 fff2 	bl	1169c <_fstat>
    e6b8:	1c43      	adds	r3, r0, #1
    e6ba:	d000      	beq.n	e6be <_fstat_r+0x1a>
    e6bc:	bd38      	pop	{r3, r4, r5, pc}
    e6be:	6823      	ldr	r3, [r4, #0]
    e6c0:	2b00      	cmp	r3, #0
    e6c2:	d0fb      	beq.n	e6bc <_fstat_r+0x18>
    e6c4:	602b      	str	r3, [r5, #0]
    e6c6:	bd38      	pop	{r3, r4, r5, pc}
    e6c8:	20002bc0 	.word	0x20002bc0

0000e6cc <_isatty_r>:
    e6cc:	b538      	push	{r3, r4, r5, lr}
    e6ce:	4c07      	ldr	r4, [pc, #28]	; (e6ec <_isatty_r+0x20>)
    e6d0:	2300      	movs	r3, #0
    e6d2:	4605      	mov	r5, r0
    e6d4:	4608      	mov	r0, r1
    e6d6:	6023      	str	r3, [r4, #0]
    e6d8:	f002 ffda 	bl	11690 <_isatty>
    e6dc:	1c43      	adds	r3, r0, #1
    e6de:	d000      	beq.n	e6e2 <_isatty_r+0x16>
    e6e0:	bd38      	pop	{r3, r4, r5, pc}
    e6e2:	6823      	ldr	r3, [r4, #0]
    e6e4:	2b00      	cmp	r3, #0
    e6e6:	d0fb      	beq.n	e6e0 <_isatty_r+0x14>
    e6e8:	602b      	str	r3, [r5, #0]
    e6ea:	bd38      	pop	{r3, r4, r5, pc}
    e6ec:	20002bc0 	.word	0x20002bc0

0000e6f0 <_lseek_r>:
    e6f0:	b570      	push	{r4, r5, r6, lr}
    e6f2:	460d      	mov	r5, r1
    e6f4:	4c08      	ldr	r4, [pc, #32]	; (e718 <_lseek_r+0x28>)
    e6f6:	4611      	mov	r1, r2
    e6f8:	4606      	mov	r6, r0
    e6fa:	461a      	mov	r2, r3
    e6fc:	4628      	mov	r0, r5
    e6fe:	2300      	movs	r3, #0
    e700:	6023      	str	r3, [r4, #0]
    e702:	f002 ffde 	bl	116c2 <_lseek>
    e706:	1c43      	adds	r3, r0, #1
    e708:	d000      	beq.n	e70c <_lseek_r+0x1c>
    e70a:	bd70      	pop	{r4, r5, r6, pc}
    e70c:	6823      	ldr	r3, [r4, #0]
    e70e:	2b00      	cmp	r3, #0
    e710:	d0fb      	beq.n	e70a <_lseek_r+0x1a>
    e712:	6033      	str	r3, [r6, #0]
    e714:	bd70      	pop	{r4, r5, r6, pc}
    e716:	bf00      	nop
    e718:	20002bc0 	.word	0x20002bc0

0000e71c <_malloc_usable_size_r>:
    e71c:	f851 0c04 	ldr.w	r0, [r1, #-4]
    e720:	2800      	cmp	r0, #0
    e722:	f1a0 0004 	sub.w	r0, r0, #4
    e726:	bfbc      	itt	lt
    e728:	580b      	ldrlt	r3, [r1, r0]
    e72a:	18c0      	addlt	r0, r0, r3
    e72c:	4770      	bx	lr
    e72e:	bf00      	nop

0000e730 <_read_r>:
    e730:	b570      	push	{r4, r5, r6, lr}
    e732:	460d      	mov	r5, r1
    e734:	4c08      	ldr	r4, [pc, #32]	; (e758 <_read_r+0x28>)
    e736:	4611      	mov	r1, r2
    e738:	4606      	mov	r6, r0
    e73a:	461a      	mov	r2, r3
    e73c:	4628      	mov	r0, r5
    e73e:	2300      	movs	r3, #0
    e740:	6023      	str	r3, [r4, #0]
    e742:	f002 ff79 	bl	11638 <_read>
    e746:	1c43      	adds	r3, r0, #1
    e748:	d000      	beq.n	e74c <_read_r+0x1c>
    e74a:	bd70      	pop	{r4, r5, r6, pc}
    e74c:	6823      	ldr	r3, [r4, #0]
    e74e:	2b00      	cmp	r3, #0
    e750:	d0fb      	beq.n	e74a <_read_r+0x1a>
    e752:	6033      	str	r3, [r6, #0]
    e754:	bd70      	pop	{r4, r5, r6, pc}
    e756:	bf00      	nop
    e758:	20002bc0 	.word	0x20002bc0

0000e75c <connected>:
	printk("Advertising successfully started\n");
}

static void connected(struct bt_conn *conn, u8_t err)
{
	if (err) {
    e75c:	b111      	cbz	r1, e764 <connected+0x8>
		printk("Connection failed (err %u)\n", err);
    e75e:	4803      	ldr	r0, [pc, #12]	; (e76c <connected+0x10>)
    e760:	f000 bee6 	b.w	f530 <printk>
	} else {
		printk("Connected\n");
    e764:	4802      	ldr	r0, [pc, #8]	; (e770 <connected+0x14>)
    e766:	f000 bee3 	b.w	f530 <printk>
    e76a:	bf00      	nop
    e76c:	000275d2 	.word	0x000275d2
    e770:	000275ee 	.word	0x000275ee

0000e774 <advertise>:
{
    e774:	b57f      	push	{r0, r1, r2, r3, r4, r5, r6, lr}
	bt_le_adv_stop();
    e776:	f009 fca7 	bl	180c8 <bt_le_adv_stop>
	rc = bt_le_adv_start(BT_LE_ADV_CONN, ad, ARRAY_SIZE(ad),
    e77a:	2300      	movs	r3, #0
    e77c:	22a0      	movs	r2, #160	; 0xa0
    e77e:	9303      	str	r3, [sp, #12]
    e780:	9304      	str	r3, [sp, #16]
    e782:	9305      	str	r3, [sp, #20]
    e784:	f8ad 200e 	strh.w	r2, [sp, #14]
    e788:	2301      	movs	r3, #1
    e78a:	22f0      	movs	r2, #240	; 0xf0
    e78c:	f88d 300c 	strb.w	r3, [sp, #12]
    e790:	f8ad 2010 	strh.w	r2, [sp, #16]
    e794:	9300      	str	r3, [sp, #0]
    e796:	4909      	ldr	r1, [pc, #36]	; (e7bc <advertise+0x48>)
    e798:	4b09      	ldr	r3, [pc, #36]	; (e7c0 <advertise+0x4c>)
    e79a:	2202      	movs	r2, #2
    e79c:	a803      	add	r0, sp, #12
    e79e:	f009 fbfb 	bl	17f98 <bt_le_adv_start>
	if (rc) {
    e7a2:	4601      	mov	r1, r0
    e7a4:	b128      	cbz	r0, e7b2 <advertise+0x3e>
		printk("Advertising failed to start (rc %d)\n", rc);
    e7a6:	4807      	ldr	r0, [pc, #28]	; (e7c4 <advertise+0x50>)
    e7a8:	f000 fec2 	bl	f530 <printk>
}
    e7ac:	b007      	add	sp, #28
    e7ae:	f85d fb04 	ldr.w	pc, [sp], #4
	printk("Advertising successfully started\n");
    e7b2:	4805      	ldr	r0, [pc, #20]	; (e7c8 <advertise+0x54>)
    e7b4:	f000 febc 	bl	f530 <printk>
    e7b8:	e7f8      	b.n	e7ac <advertise+0x38>
    e7ba:	bf00      	nop
    e7bc:	00027544 	.word	0x00027544
    e7c0:	00027684 	.word	0x00027684
    e7c4:	00027554 	.word	0x00027554
    e7c8:	00027579 	.word	0x00027579

0000e7cc <disconnected>:
	}
}

static void disconnected(struct bt_conn *conn, u8_t reason)
{
    e7cc:	b508      	push	{r3, lr}
	printk("Disconnected (reason %u)\n", reason);
    e7ce:	4803      	ldr	r0, [pc, #12]	; (e7dc <disconnected+0x10>)
    e7d0:	f000 feae 	bl	f530 <printk>
	advertise();
}
    e7d4:	e8bd 4008 	ldmia.w	sp!, {r3, lr}
	advertise();
    e7d8:	f7ff bfcc 	b.w	e774 <advertise>
    e7dc:	000275f9 	.word	0x000275f9

0000e7e0 <bt_ready>:
	.connected = connected,
	.disconnected = disconnected,
};

static void bt_ready(int err)
{
    e7e0:	b508      	push	{r3, lr}
	if (err) {
    e7e2:	4601      	mov	r1, r0
    e7e4:	b120      	cbz	r0, e7f0 <bt_ready+0x10>
		printk("Bluetooth init failed (err %d)\n", err);
    e7e6:	4806      	ldr	r0, [pc, #24]	; (e800 <bt_ready+0x20>)
	}

	printk("Bluetooth initialized\n");

	advertise();
}
    e7e8:	e8bd 4008 	ldmia.w	sp!, {r3, lr}
		printk("Bluetooth init failed (err %d)\n", err);
    e7ec:	f000 bea0 	b.w	f530 <printk>
	printk("Bluetooth initialized\n");
    e7f0:	4804      	ldr	r0, [pc, #16]	; (e804 <bt_ready+0x24>)
    e7f2:	f000 fe9d 	bl	f530 <printk>
}
    e7f6:	e8bd 4008 	ldmia.w	sp!, {r3, lr}
	advertise();
    e7fa:	f7ff bfbb 	b.w	e774 <advertise>
    e7fe:	bf00      	nop
    e800:	0002759b 	.word	0x0002759b
    e804:	000275bb 	.word	0x000275bb

0000e808 <main>:

void main(void)
{
    e808:	b513      	push	{r0, r1, r4, lr}
	int rc;

	rc = STATS_INIT_AND_REG(smp_svr_stats, STATS_SIZE_32, "smp_svr_stats");
    e80a:	4b18      	ldr	r3, [pc, #96]	; (e86c <main+0x64>)
    e80c:	9301      	str	r3, [sp, #4]
    e80e:	2201      	movs	r2, #1
    e810:	9200      	str	r2, [sp, #0]
    e812:	4b17      	ldr	r3, [pc, #92]	; (e870 <main+0x68>)
    e814:	4817      	ldr	r0, [pc, #92]	; (e874 <main+0x6c>)
    e816:	2104      	movs	r1, #4
    e818:	f000 ff65 	bl	f6e6 <stats_init_and_reg>
	assert(rc == 0);
    e81c:	b128      	cbz	r0, e82a <main+0x22>
    e81e:	4b16      	ldr	r3, [pc, #88]	; (e878 <main+0x70>)
    e820:	4a16      	ldr	r2, [pc, #88]	; (e87c <main+0x74>)
    e822:	4817      	ldr	r0, [pc, #92]	; (e880 <main+0x78>)
    e824:	216f      	movs	r1, #111	; 0x6f
    e826:	f7fd ff91 	bl	c74c <__assert_func>

	/* Register the built-in mcumgr command handlers. */
#ifdef CONFIG_MCUMGR_CMD_FS_MGMT
	fs_mgmt_register_group();
    e82a:	f004 f897 	bl	1295c <fs_mgmt_register_group>
#endif
#ifdef CONFIG_MCUMGR_CMD_OS_MGMT
	os_mgmt_register_group();
    e82e:	f004 fdd1 	bl	133d4 <os_mgmt_register_group>
#endif
#ifdef CONFIG_MCUMGR_CMD_IMG_MGMT
	img_mgmt_register_group();
    e832:	f004 facf 	bl	12dd4 <img_mgmt_register_group>
#endif
#ifdef CONFIG_MCUMGR_CMD_STAT_MGMT
	stat_mgmt_register_group();
    e836:	f004 fec5 	bl	135c4 <stat_mgmt_register_group>
#endif

	/* Enable Bluetooth. */
	rc = bt_enable(bt_ready);
    e83a:	4812      	ldr	r0, [pc, #72]	; (e884 <main+0x7c>)
    e83c:	f009 fb5c 	bl	17ef8 <bt_enable>
	if (rc != 0) {
    e840:	4601      	mov	r1, r0
    e842:	b128      	cbz	r0, e850 <main+0x48>
		printk("Bluetooth init failed (err %d)\n", rc);
    e844:	4810      	ldr	r0, [pc, #64]	; (e888 <main+0x80>)
	 */
	while (1) {
		k_sleep(1000);
		STATS_INC(smp_svr_stats, ticks);
	}
}
    e846:	b002      	add	sp, #8
    e848:	e8bd 4010 	ldmia.w	sp!, {r4, lr}
		printk("Bluetooth init failed (err %d)\n", rc);
    e84c:	f000 be70 	b.w	f530 <printk>
	bt_conn_cb_register(&conn_callbacks);
    e850:	480e      	ldr	r0, [pc, #56]	; (e88c <main+0x84>)
		STATS_INC(smp_svr_stats, ticks);
    e852:	4c08      	ldr	r4, [pc, #32]	; (e874 <main+0x6c>)
	bt_conn_cb_register(&conn_callbacks);
    e854:	f009 fd04 	bl	18260 <bt_conn_cb_register>
	smp_bt_register();
    e858:	f016 fde4 	bl	25424 <smp_bt_register>

K_SYSCALL_DECLARE2_VOID(K_SYSCALL_K_OBJECT_ACCESS_REVOKE, k_object_access_revoke, void *, object, struct k_thread *, thread);

K_SYSCALL_DECLARE10(K_SYSCALL_K_THREAD_CREATE, k_thread_create, k_tid_t, struct k_thread *, new_thread, k_thread_stack_t *, stack, size_t, stack_size, k_thread_entry_t, entry, void *, p1, void *, p2, void *, p3, int, prio, u32_t, options, s32_t, delay);

K_SYSCALL_DECLARE1_VOID(K_SYSCALL_K_SLEEP, k_sleep, s32_t, duration);
    e85c:	f44f 707a 	mov.w	r0, #1000	; 0x3e8
    e860:	f017 fe50 	bl	26504 <_impl_k_sleep>
		STATS_INC(smp_svr_stats, ticks);
    e864:	6963      	ldr	r3, [r4, #20]
    e866:	3301      	adds	r3, #1
    e868:	6163      	str	r3, [r4, #20]
    e86a:	e7f7      	b.n	e85c <main+0x54>
    e86c:	00027613 	.word	0x00027613
    e870:	0002768c 	.word	0x0002768c
    e874:	20002830 	.word	0x20002830
    e878:	00027621 	.word	0x00027621
    e87c:	0002753c 	.word	0x0002753c
    e880:	00027629 	.word	0x00027629
    e884:	0000e7e1 	.word	0x0000e7e1
    e888:	0002759b 	.word	0x0002759b
    e88c:	20007ca4 	.word	0x20007ca4

0000e890 <__NVIC_SystemReset>:
  \details Acts as a special kind of Data Memory Barrier.
           It completes when all explicit memory accesses before this instruction complete.
 */
__STATIC_FORCEINLINE void __DSB(void)
{
  __ASM volatile ("dsb 0xF":::"memory");
    e890:	f3bf 8f4f 	dsb	sy
__STATIC_INLINE void __NVIC_SystemReset(void)
{
  __DSB();                                                          /* Ensure all outstanding memory accesses included
                                                                       buffered write are completed before reset */
  SCB->AIRCR  = (uint32_t)((0x5FAUL << SCB_AIRCR_VECTKEY_Pos)    |
                           (SCB->AIRCR & SCB_AIRCR_PRIGROUP_Msk) |
    e894:	4905      	ldr	r1, [pc, #20]	; (e8ac <__NVIC_SystemReset+0x1c>)
  SCB->AIRCR  = (uint32_t)((0x5FAUL << SCB_AIRCR_VECTKEY_Pos)    |
    e896:	4b06      	ldr	r3, [pc, #24]	; (e8b0 <__NVIC_SystemReset+0x20>)
                           (SCB->AIRCR & SCB_AIRCR_PRIGROUP_Msk) |
    e898:	68ca      	ldr	r2, [r1, #12]
    e89a:	f402 62e0 	and.w	r2, r2, #1792	; 0x700
  SCB->AIRCR  = (uint32_t)((0x5FAUL << SCB_AIRCR_VECTKEY_Pos)    |
    e89e:	4313      	orrs	r3, r2
    e8a0:	60cb      	str	r3, [r1, #12]
    e8a2:	f3bf 8f4f 	dsb	sy
                            SCB_AIRCR_SYSRESETREQ_Msk    );         /* Keep priority group unchanged */
  __DSB();                                                          /* Ensure completion of memory access */

  for(;;)                                                           /* wait until reset */
  {
    __NOP();
    e8a6:	bf00      	nop
    e8a8:	e7fd      	b.n	e8a6 <__NVIC_SystemReset+0x16>
    e8aa:	bf00      	nop
    e8ac:	e000ed00 	.word	0xe000ed00
    e8b0:	05fa0004 	.word	0x05fa0004

0000e8b4 <ftpan_32>:
	return false;
}

static bool ftpan_36(void)
{
	if ((((*(u32_t *)0xF0000FE0) & 0x000000FF) == 0x6) &&
    e8b4:	4b0c      	ldr	r3, [pc, #48]	; (e8e8 <ftpan_32+0x34>)
    e8b6:	781b      	ldrb	r3, [r3, #0]
    e8b8:	2b06      	cmp	r3, #6
    e8ba:	d112      	bne.n	e8e2 <ftpan_32+0x2e>
		(((*(u32_t *)0xF0000FE4) & 0x0000000F) == 0x0)) {
    e8bc:	4b0b      	ldr	r3, [pc, #44]	; (e8ec <ftpan_32+0x38>)
    e8be:	6818      	ldr	r0, [r3, #0]
	if ((((*(u32_t *)0xF0000FE0) & 0x000000FF) == 0x6) &&
    e8c0:	f010 000f 	ands.w	r0, r0, #15
    e8c4:	d10d      	bne.n	e8e2 <ftpan_32+0x2e>
		if ((((*(u32_t *)0xF0000FE8) & 0x000000F0) == 0x30) &&
    e8c6:	3304      	adds	r3, #4
    e8c8:	681b      	ldr	r3, [r3, #0]
    e8ca:	f003 03f0 	and.w	r3, r3, #240	; 0xf0
    e8ce:	2b30      	cmp	r3, #48	; 0x30
    e8d0:	d108      	bne.n	e8e4 <ftpan_32+0x30>
			(((*(u32_t *)0xF0000FEC) & 0x000000F0) == 0x0)) {
    e8d2:	4b07      	ldr	r3, [pc, #28]	; (e8f0 <ftpan_32+0x3c>)
    e8d4:	681b      	ldr	r3, [r3, #0]
		if ((((*(u32_t *)0xF0000FE8) & 0x000000F0) == 0x30) &&
    e8d6:	f013 0ff0 	tst.w	r3, #240	; 0xf0
    e8da:	bf0c      	ite	eq
    e8dc:	2001      	moveq	r0, #1
    e8de:	2000      	movne	r0, #0
    e8e0:	4770      	bx	lr
			return true;
		}
	}

	return false;
    e8e2:	2000      	movs	r0, #0
}
    e8e4:	4770      	bx	lr
    e8e6:	bf00      	nop
    e8e8:	f0000fe0 	.word	0xf0000fe0
    e8ec:	f0000fe4 	.word	0xf0000fe4
    e8f0:	f0000fec 	.word	0xf0000fec

0000e8f4 <nordicsemi_nrf52_init>:
{
	SystemCoreClock = __SYSTEM_CLOCK_64M;
}

static int nordicsemi_nrf52_init(struct device *arg)
{
    e8f4:	b508      	push	{r3, lr}
		:
		: "memory");
#elif defined(CONFIG_ARMV7_M_ARMV8_M_MAINLINE)
	unsigned int tmp;

	__asm__ volatile(
    e8f6:	f04f 0320 	mov.w	r3, #32
    e8fa:	f3ef 8211 	mrs	r2, BASEPRI
    e8fe:	f383 8811 	msr	BASEPRI, r3
	if (ftpan_32()) {
    e902:	f7ff ffd7 	bl	e8b4 <ftpan_32>
    e906:	b120      	cbz	r0, e912 <nordicsemi_nrf52_init+0x1e>
		CoreDebug->DEMCR &= ~CoreDebug_DEMCR_TRCENA_Msk;
    e908:	4946      	ldr	r1, [pc, #280]	; (ea24 <nordicsemi_nrf52_init+0x130>)
    e90a:	68cb      	ldr	r3, [r1, #12]
    e90c:	f023 7380 	bic.w	r3, r3, #16777216	; 0x1000000
    e910:	60cb      	str	r3, [r1, #12]
	if (ftpan_37()) {
    e912:	f7ff ffcf 	bl	e8b4 <ftpan_32>
    e916:	b110      	cbz	r0, e91e <nordicsemi_nrf52_init+0x2a>
		*(volatile u32_t *)0x400005A0 = 0x3;
    e918:	4b43      	ldr	r3, [pc, #268]	; (ea28 <nordicsemi_nrf52_init+0x134>)
    e91a:	2103      	movs	r1, #3
    e91c:	6019      	str	r1, [r3, #0]
	if (ftpan_36()) {
    e91e:	f7ff ffc9 	bl	e8b4 <ftpan_32>
    e922:	b130      	cbz	r0, e932 <nordicsemi_nrf52_init+0x3e>
		NRF_CLOCK->EVENTS_DONE = 0;
    e924:	f04f 4380 	mov.w	r3, #1073741824	; 0x40000000
    e928:	2100      	movs	r1, #0
    e92a:	f8c3 110c 	str.w	r1, [r3, #268]	; 0x10c
		NRF_CLOCK->EVENTS_CTTO = 0;
    e92e:	f8c3 1110 	str.w	r1, [r3, #272]	; 0x110
	if ((((*(u32_t *)0xF0000FE0) & 0x000000FF) == 0x6) &&
    e932:	4b3e      	ldr	r3, [pc, #248]	; (ea2c <nordicsemi_nrf52_init+0x138>)
    e934:	781b      	ldrb	r3, [r3, #0]
    e936:	2b06      	cmp	r3, #6
    e938:	d117      	bne.n	e96a <nordicsemi_nrf52_init+0x76>
	    (((*(u32_t *)0xF0000FE4) & 0x0000000F) == 0x0)) {
    e93a:	4b3d      	ldr	r3, [pc, #244]	; (ea30 <nordicsemi_nrf52_init+0x13c>)
    e93c:	681b      	ldr	r3, [r3, #0]
	if ((((*(u32_t *)0xF0000FE0) & 0x000000FF) == 0x6) &&
    e93e:	0718      	lsls	r0, r3, #28
    e940:	d113      	bne.n	e96a <nordicsemi_nrf52_init+0x76>
		if (((*(u32_t *)0xF0000FE8) & 0x000000F0) == 0x30) {
    e942:	4b3c      	ldr	r3, [pc, #240]	; (ea34 <nordicsemi_nrf52_init+0x140>)
    e944:	681b      	ldr	r3, [r3, #0]
    e946:	f003 01f0 	and.w	r1, r3, #240	; 0xf0
    e94a:	2930      	cmp	r1, #48	; 0x30
    e94c:	d003      	beq.n	e956 <nordicsemi_nrf52_init+0x62>
		if (((*(u32_t *)0xF0000FE8) & 0x000000F0) == 0x40) {
    e94e:	f003 03e0 	and.w	r3, r3, #224	; 0xe0
    e952:	2b40      	cmp	r3, #64	; 0x40
    e954:	d109      	bne.n	e96a <nordicsemi_nrf52_init+0x76>
		if (NRF_POWER->RESETREAS & POWER_RESETREAS_RESETPIN_Msk) {
    e956:	f04f 4380 	mov.w	r3, #1073741824	; 0x40000000
    e95a:	f8d3 1400 	ldr.w	r1, [r3, #1024]	; 0x400
    e95e:	07c9      	lsls	r1, r1, #31
    e960:	d503      	bpl.n	e96a <nordicsemi_nrf52_init+0x76>
			NRF_POWER->RESETREAS = ~POWER_RESETREAS_RESETPIN_Msk;
    e962:	f06f 0101 	mvn.w	r1, #1
    e966:	f8c3 1400 	str.w	r1, [r3, #1024]	; 0x400
	if (((NRF_UICR->PSELRESET[0] & UICR_PSELRESET_CONNECT_Msk) !=
    e96a:	f04f 2310 	mov.w	r3, #268439552	; 0x10001000
    e96e:	f8d3 1200 	ldr.w	r1, [r3, #512]	; 0x200
    e972:	2900      	cmp	r1, #0
    e974:	db03      	blt.n	e97e <nordicsemi_nrf52_init+0x8a>
	    ((NRF_UICR->PSELRESET[0] & UICR_PSELRESET_CONNECT_Msk) !=
    e976:	f8d3 1200 	ldr.w	r1, [r3, #512]	; 0x200
	     (UICR_PSELRESET_CONNECT_Connected << UICR_PSELRESET_CONNECT_Pos)) ||
    e97a:	2900      	cmp	r1, #0
    e97c:	da24      	bge.n	e9c8 <nordicsemi_nrf52_init+0xd4>
		NRF_NVMC->CONFIG = NVMC_CONFIG_WEN_Wen << NVMC_CONFIG_WEN_Pos;
    e97e:	4b2e      	ldr	r3, [pc, #184]	; (ea38 <nordicsemi_nrf52_init+0x144>)
    e980:	2201      	movs	r2, #1
    e982:	f8c3 2504 	str.w	r2, [r3, #1284]	; 0x504
		while (NRF_NVMC->READY == NVMC_READY_READY_Busy) {
    e986:	f8d3 2400 	ldr.w	r2, [r3, #1024]	; 0x400
    e98a:	2a00      	cmp	r2, #0
    e98c:	d0fb      	beq.n	e986 <nordicsemi_nrf52_init+0x92>
		NRF_UICR->PSELRESET[0] = 21;
    e98e:	f04f 2210 	mov.w	r2, #268439552	; 0x10001000
    e992:	2115      	movs	r1, #21
    e994:	f8c2 1200 	str.w	r1, [r2, #512]	; 0x200
		while (NRF_NVMC->READY == NVMC_READY_READY_Busy) {
    e998:	f8d3 2400 	ldr.w	r2, [r3, #1024]	; 0x400
    e99c:	2a00      	cmp	r2, #0
    e99e:	d0fb      	beq.n	e998 <nordicsemi_nrf52_init+0xa4>
		NRF_UICR->PSELRESET[1] = 21;
    e9a0:	f04f 2310 	mov.w	r3, #268439552	; 0x10001000
    e9a4:	2215      	movs	r2, #21
    e9a6:	f8c3 2204 	str.w	r2, [r3, #516]	; 0x204
		while (NRF_NVMC->READY == NVMC_READY_READY_Busy) {
    e9aa:	4b23      	ldr	r3, [pc, #140]	; (ea38 <nordicsemi_nrf52_init+0x144>)
    e9ac:	461a      	mov	r2, r3
    e9ae:	f8d3 1400 	ldr.w	r1, [r3, #1024]	; 0x400
    e9b2:	2900      	cmp	r1, #0
    e9b4:	d0fb      	beq.n	e9ae <nordicsemi_nrf52_init+0xba>
		NRF_NVMC->CONFIG = NVMC_CONFIG_WEN_Ren << NVMC_CONFIG_WEN_Pos;
    e9b6:	2100      	movs	r1, #0
    e9b8:	f8c3 1504 	str.w	r1, [r3, #1284]	; 0x504
		while (NRF_NVMC->READY == NVMC_READY_READY_Busy) {
    e9bc:	f8d2 3400 	ldr.w	r3, [r2, #1024]	; 0x400
    e9c0:	2b00      	cmp	r3, #0
    e9c2:	d0fb      	beq.n	e9bc <nordicsemi_nrf52_init+0xc8>
		NVIC_SystemReset();
    e9c4:	f7ff ff64 	bl	e890 <__NVIC_SystemReset>
	 * two GPIOs (see Product Specification to see which ones)
	 * will be reserved for NFC and will not be available as
	 * normal GPIOs.
	 */
#if defined(CONFIG_NFCT_PINS_AS_GPIOS)
	if ((NRF_UICR->NFCPINS & UICR_NFCPINS_PROTECT_Msk) ==
    e9c8:	f8d3 020c 	ldr.w	r0, [r3, #524]	; 0x20c
    e9cc:	f010 0001 	ands.w	r0, r0, #1
    e9d0:	d01d      	beq.n	ea0e <nordicsemi_nrf52_init+0x11a>
	    (UICR_NFCPINS_PROTECT_NFC << UICR_NFCPINS_PROTECT_Pos)) {

		NRF_NVMC->CONFIG = NVMC_CONFIG_WEN_Wen << NVMC_CONFIG_WEN_Pos;
    e9d2:	4b19      	ldr	r3, [pc, #100]	; (ea38 <nordicsemi_nrf52_init+0x144>)
    e9d4:	2201      	movs	r2, #1
    e9d6:	f8c3 2504 	str.w	r2, [r3, #1284]	; 0x504
		while (NRF_NVMC->READY == NVMC_READY_READY_Busy) {
    e9da:	f8d3 2400 	ldr.w	r2, [r3, #1024]	; 0x400
    e9de:	2a00      	cmp	r2, #0
    e9e0:	d0fb      	beq.n	e9da <nordicsemi_nrf52_init+0xe6>
			;
		}
		NRF_UICR->NFCPINS &= ~UICR_NFCPINS_PROTECT_Msk;
    e9e2:	f04f 2210 	mov.w	r2, #268439552	; 0x10001000
    e9e6:	f8d2 320c 	ldr.w	r3, [r2, #524]	; 0x20c
    e9ea:	f023 0301 	bic.w	r3, r3, #1
    e9ee:	f8c2 320c 	str.w	r3, [r2, #524]	; 0x20c
		while (NRF_NVMC->READY == NVMC_READY_READY_Busy) {
    e9f2:	4b11      	ldr	r3, [pc, #68]	; (ea38 <nordicsemi_nrf52_init+0x144>)
    e9f4:	461a      	mov	r2, r3
    e9f6:	f8d3 1400 	ldr.w	r1, [r3, #1024]	; 0x400
    e9fa:	2900      	cmp	r1, #0
    e9fc:	d0fb      	beq.n	e9f6 <nordicsemi_nrf52_init+0x102>
			;
		}
		NRF_NVMC->CONFIG = NVMC_CONFIG_WEN_Ren << NVMC_CONFIG_WEN_Pos;
    e9fe:	2100      	movs	r1, #0
    ea00:	f8c3 1504 	str.w	r1, [r3, #1284]	; 0x504
		while (NRF_NVMC->READY == NVMC_READY_READY_Busy) {
    ea04:	f8d2 3400 	ldr.w	r3, [r2, #1024]	; 0x400
    ea08:	2b00      	cmp	r3, #0
    ea0a:	d0fb      	beq.n	ea04 <nordicsemi_nrf52_init+0x110>
    ea0c:	e7da      	b.n	e9c4 <nordicsemi_nrf52_init+0xd0>
static ALWAYS_INLINE void _ClearFaults(void)
{
#if defined(CONFIG_ARMV6_M_ARMV8_M_BASELINE)
#elif defined(CONFIG_ARMV7_M_ARMV8_M_MAINLINE)
	/* Reset all faults */
	SCB->CFSR = SCB_CFSR_USGFAULTSR_Msk |
    ea0e:	4b0b      	ldr	r3, [pc, #44]	; (ea3c <nordicsemi_nrf52_init+0x148>)
    ea10:	f04f 31ff 	mov.w	r1, #4294967295	; 0xffffffff
    ea14:	6299      	str	r1, [r3, #40]	; 0x28
		    SCB_CFSR_MEMFAULTSR_Msk |
		    SCB_CFSR_BUSFAULTSR_Msk;

	/* Clear all Hard Faults - HFSR is write-one-to-clear */
	SCB->HFSR = 0xffffffff;
    ea16:	62d9      	str	r1, [r3, #44]	; 0x2c
	SystemCoreClock = __SYSTEM_CLOCK_64M;
    ea18:	4b09      	ldr	r3, [pc, #36]	; (ea40 <nordicsemi_nrf52_init+0x14c>)
    ea1a:	490a      	ldr	r1, [pc, #40]	; (ea44 <nordicsemi_nrf52_init+0x150>)
    ea1c:	6019      	str	r1, [r3, #0]
	if (key) {
		return;
	}
	__asm__ volatile("cpsie i" : : : "memory");
#elif defined(CONFIG_ARMV7_M_ARMV8_M_MAINLINE)
	__asm__ volatile("msr BASEPRI, %0" :  : "r"(key) : "memory");
    ea1e:	f382 8811 	msr	BASEPRI, r2
	NMI_INIT();

	irq_unlock(key);

	return 0;
}
    ea22:	bd08      	pop	{r3, pc}
    ea24:	e000edf0 	.word	0xe000edf0
    ea28:	400005a0 	.word	0x400005a0
    ea2c:	f0000fe0 	.word	0xf0000fe0
    ea30:	f0000fe4 	.word	0xf0000fe4
    ea34:	f0000fe8 	.word	0xf0000fe8
    ea38:	4001e000 	.word	0x4001e000
    ea3c:	e000ed00 	.word	0xe000ed00
    ea40:	20007cfc 	.word	0x20007cfc
    ea44:	03d09000 	.word	0x03d09000

0000ea48 <_ExcExit>:
 */

SECTION_SUBSEC_FUNC(TEXT, _HandlerModeExit, _ExcExit)

#ifdef CONFIG_PREEMPT_ENABLED
    ldr r0, =_kernel
    ea48:	4808      	ldr	r0, [pc, #32]	; (ea6c <_EXIT_EXC+0x2>)

    ldr r1, [r0, #_kernel_offset_to_current]
    ea4a:	6881      	ldr	r1, [r0, #8]

    /*
     * Non-preemptible thread ? Do not schedule (see explanation of
     * preempt field in kernel_struct.h).
     */
    ldrh r2, [r1, #_thread_offset_to_preempt]
    ea4c:	894a      	ldrh	r2, [r1, #10]
    cmp r2, #_PREEMPT_THRESHOLD
    ea4e:	2a7f      	cmp	r2, #127	; 0x7f
    bhi _EXIT_EXC
    ea50:	d80b      	bhi.n	ea6a <_EXIT_EXC>

    ldr r0, [r0, _kernel_offset_to_ready_q_cache]
    ea52:	69c0      	ldr	r0, [r0, #28]
    cmp r0, r1
    ea54:	4288      	cmp	r0, r1
    beq _EXIT_EXC
    ea56:	d008      	beq.n	ea6a <_EXIT_EXC>

#ifdef CONFIG_TIMESLICING
    push {lr}
    ea58:	b500      	push	{lr}
    bl _update_time_slice_before_swap
    ea5a:	f017 fda5 	bl	265a8 <_update_time_slice_before_swap>
#if defined(CONFIG_ARMV6_M_ARMV8_M_BASELINE)
    pop {r0}
    mov lr, r0
#else
    pop {lr}
    ea5e:	f85d eb04 	ldr.w	lr, [sp], #4
#endif /* CONFIG_ARMV6_M_ARMV8_M_BASELINE */
#endif /* CONFIG_TIMESLICING */

    /* context switch required, pend the PendSV exception */
    ldr r1, =_SCS_ICSR
    ea62:	4903      	ldr	r1, [pc, #12]	; (ea70 <_EXIT_EXC+0x6>)
    ldr r2, =_SCS_ICSR_PENDSV
    ea64:	f04f 5280 	mov.w	r2, #268435456	; 0x10000000
    str r2, [r1]
    ea68:	600a      	str	r2, [r1, #0]

0000ea6a <_EXIT_EXC>:
#else
    pop {lr}
#endif /* CONFIG_ARMV6_M_ARMV8_M_BASELINE */
#endif /* CONFIG_STACK_SENTINEL */

    bx lr
    ea6a:	4770      	bx	lr
    ldr r0, =_kernel
    ea6c:	20002700 	.word	0x20002700
    ldr r1, =_SCS_ICSR
    ea70:	e000ed04 	.word	0xe000ed04

0000ea74 <_IntLibInit>:
    NVIC->IP[((uint32_t)(int32_t)IRQn)]               = (uint8_t)((priority << (8U - __NVIC_PRIO_BITS)) & (uint32_t)0xFFUL);
    ea74:	4804      	ldr	r0, [pc, #16]	; (ea88 <_IntLibInit+0x14>)
 * @return N/A
 */

void _IntLibInit(void)
{
	int irq = 0;
    ea76:	2300      	movs	r3, #0
    ea78:	2120      	movs	r1, #32
    ea7a:	18c2      	adds	r2, r0, r3

	for (; irq < CONFIG_NUM_IRQS; irq++) {
    ea7c:	3301      	adds	r3, #1
    ea7e:	2b27      	cmp	r3, #39	; 0x27
    ea80:	f882 1300 	strb.w	r1, [r2, #768]	; 0x300
    ea84:	d1f9      	bne.n	ea7a <_IntLibInit+0x6>
		NVIC_SetPriority((IRQn_Type)irq, _IRQ_PRIO_OFFSET);
	}
}
    ea86:	4770      	bx	lr
    ea88:	e000e100 	.word	0xe000e100

0000ea8c <__pendsv>:
    pop {lr}
#endif /* CONFIG_ARMV6_M_ARMV8_M_BASELINE */
#endif /* CONFIG_KERNEL_EVENT_LOGGER_CONTEXT_SWITCH  */

    /* load _kernel into r1 and current k_thread into r2 */
    ldr r1, =_kernel
    ea8c:	490e      	ldr	r1, [pc, #56]	; (eac8 <__pendsv+0x3c>)
    ldr r2, [r1, #_kernel_offset_to_current]
    ea8e:	688a      	ldr	r2, [r1, #8]

    /* addr of callee-saved regs in thread in r0 */
    ldr r0, =_thread_offset_to_callee_saved
    ea90:	2028      	movs	r0, #40	; 0x28
    add r0, r2
    ea92:	4410      	add	r0, r2

    /* save callee-saved + psp in thread */
    mrs ip, PSP
    ea94:	f3ef 8c09 	mrs	ip, PSP
    mov r6, r11
    mov r7, ip
    /* store r8-12 */
    stmea r0!, {r3-r7}
#elif defined(CONFIG_ARMV7_M_ARMV8_M_MAINLINE)
    stmia r0, {v1-v8, ip}
    ea98:	e880 1ff0 	stmia.w	r0, {r4, r5, r6, r7, r8, r9, sl, fp, ip}
     * don't clear it yet. PendSV must not be cleared until
     * the new thread is context-switched in since all decisions
     * to pend PendSV have been taken with the current kernel
     * state and this is what we're handling currently.
     */
    ldr v4, =_SCS_ICSR
    ea9c:	4f0b      	ldr	r7, [pc, #44]	; (eacc <__pendsv+0x40>)
    ldr v3, =_SCS_ICSR_UNPENDSV
    ea9e:	f04f 6600 	mov.w	r6, #134217728	; 0x8000000

    /* protect the kernel state while we play with the thread lists */
#if defined(CONFIG_ARMV6_M_ARMV8_M_BASELINE)
    cpsid i
#elif defined(CONFIG_ARMV7_M_ARMV8_M_MAINLINE)
    movs.n r0, #_EXC_IRQ_DEFAULT_PRIO
    eaa2:	2020      	movs	r0, #32
    msr BASEPRI, r0
    eaa4:	f380 8811 	msr	BASEPRI, r0
#endif /* CONFIG_ARMV6_M_ARMV8_M_BASELINE */

    /* _kernel is still in r1 */

    /* fetch the thread to run from the ready queue cache */
    ldr r2, [r1, _kernel_offset_to_ready_q_cache]
    eaa8:	69ca      	ldr	r2, [r1, #28]

    str r2, [r1, #_kernel_offset_to_current]
    eaaa:	608a      	str	r2, [r1, #8]
     * since they were based on the previous kernel state and this
     * has been handled.
     */

    /* _SCS_ICSR is still in v4 and _SCS_ICSR_UNPENDSV in v3 */
    str v3, [v4, #0]
    eaac:	603e      	str	r6, [r7, #0]

    /* Restore previous interrupt disable state (irq_lock key) */
    ldr r0, [r2, #_thread_offset_to_basepri]
    eaae:	6e90      	ldr	r0, [r2, #104]	; 0x68
    movs.n r3, #0
    eab0:	2300      	movs	r3, #0
    str r3, [r2, #_thread_offset_to_basepri]
    eab2:	6693      	str	r3, [r2, #104]	; 0x68
    /* restore r4-r7, go back 9*4 bytes to the start of the stored block */
    subs r0, #36
    ldmia r0!, {r4-r7}
#elif defined(CONFIG_ARMV7_M_ARMV8_M_MAINLINE)
    /* restore BASEPRI for the incoming thread */
    msr BASEPRI, r0
    eab4:	f380 8811 	msr	BASEPRI, r0
    blx configure_mpu_user_context
    pop {r2, lr}
#endif

    /* load callee-saved + psp from thread */
    add r0, r2, #_thread_offset_to_callee_saved
    eab8:	f102 0028 	add.w	r0, r2, #40	; 0x28
    ldmia r0, {v1-v8, ip}
    eabc:	e890 1ff0 	ldmia.w	r0, {r4, r5, r6, r7, r8, r9, sl, fp, ip}
#else
#error Unknown ARM architecture
#endif /* CONFIG_ARMV6_M_ARMV8_M_BASELINE */

    msr PSP, ip
    eac0:	f38c 8809 	msr	PSP, ip
#endif /* CONFIG_ARMV6_M_ARMV8_M_BASELINE */
    ldm sp!,{r0-r3} /* Load back regs ro to r4 */
#endif /* CONFIG_EXECUTION_BENCHMARKING */

    /* exc return */
    bx lr
    eac4:	4770      	bx	lr
    eac6:	0000      	.short	0x0000
    ldr r1, =_kernel
    eac8:	20002700 	.word	0x20002700
    ldr v4, =_SCS_ICSR
    eacc:	e000ed04 	.word	0xe000ed04

0000ead0 <__svc>:
 *
 * @return N/A
 */

SECTION_FUNC(TEXT, __svc)
    tst lr, #0x4    /* did we come from thread mode ? */
    ead0:	f01e 0f04 	tst.w	lr, #4
    ite eq  /* if zero (equal), came from handler mode */
    ead4:	bf0c      	ite	eq
        mrseq r0, MSP   /* handler mode, stack frame is on MSP */
    ead6:	f3ef 8008 	mrseq	r0, MSP
        mrsne r0, PSP   /* thread mode, stack frame is on PSP */
    eada:	f3ef 8009 	mrsne	r0, PSP

    ldr r1, [r0, #24]   /* grab address of PC from stack frame */
    eade:	6981      	ldr	r1, [r0, #24]
    /* SVC is a two-byte instruction, point to it and read  encoding */
    ldrh r1, [r1, #-2]
    eae0:	f831 1c02 	ldrh.w	r1, [r1, #-2]
    * 2: kernel panic or oops (software generated fatal exception)
    * 3: System call
    * Planned implementation of system calls for memory protection will
    * expand this case.
    */
    ands r1, #0xff
    eae4:	f011 01ff 	ands.w	r1, r1, #255	; 0xff
    tst r2, #0x1
    bne _oops

    cmp r1, #0
#endif
    beq _context_switch
    eae8:	d001      	beq.n	eaee <_context_switch>

    cmp r1, #2
    eaea:	2902      	cmp	r1, #2
    beq _oops
    eaec:	d007      	beq.n	eafe <_oops>

0000eaee <_context_switch>:
    /*
     * Unlock interrupts:
     * - in a SVC call, so protected against context switches
     * - allow PendSV, since it's running at prio 0xff
     */
    eors.n r0, r0
    eaee:	4040      	eors	r0, r0
    msr BASEPRI, r0
    eaf0:	f380 8811 	msr	BASEPRI, r0

     /* set PENDSV bit, pending the PendSV exception */
    ldr r1, =_SCS_ICSR
    eaf4:	4904      	ldr	r1, [pc, #16]	; (eb08 <_oops+0xa>)
    ldr r2, =_SCS_ICSR_PENDSV
    eaf6:	f04f 5280 	mov.w	r2, #268435456	; 0x10000000
    str r2, [r1, #0]
    eafa:	600a      	str	r2, [r1, #0]

    /* handler mode exit, to PendSV */
    bx lr
    eafc:	4770      	bx	lr

0000eafe <_oops>:

_oops:
    push {lr}
    eafe:	b500      	push	{lr}
    blx _do_kernel_oops
    eb00:	f000 fa3e 	bl	ef80 <_do_kernel_oops>
    pop {pc}
    eb04:	bd00      	pop	{pc}
    eb06:	0000      	.short	0x0000
    ldr r1, =_SCS_ICSR
    eb08:	e000ed04 	.word	0xe000ed04

0000eb0c <__swap>:
    mov lr,r3
#else
    pop {lr}
#endif /* CONFIG_ARMV6_M_ARMV8_M_BASELINE */
#endif /* CONFIG_EXECUTION_BENCHMARKING */
    ldr r1, =_kernel
    eb0c:	4904      	ldr	r1, [pc, #16]	; (eb20 <__swap+0x14>)
    ldr r2, [r1, #_kernel_offset_to_current]
    eb0e:	688a      	ldr	r2, [r1, #8]
    str r0, [r2, #_thread_offset_to_basepri]
    eb10:	6690      	str	r0, [r2, #104]	; 0x68

    /*
     * Set __swap()'s default return code to -EAGAIN. This eliminates the need
     * for the timeout code to set it itself.
     */
    ldr r1, =_k_neg_eagain
    eb12:	4904      	ldr	r1, [pc, #16]	; (eb24 <__swap+0x18>)
    ldr r1, [r1]
    eb14:	6809      	ldr	r1, [r1, #0]
    str r1, [r2, #_thread_offset_to_swap_return_value]
    eb16:	66d1      	str	r1, [r2, #108]	; 0x6c
     * PendSV handler will be called if there are no other interrupts
     * of a higher priority pending.
     */
    cpsie i
#elif defined(CONFIG_ARMV7_M_ARMV8_M_MAINLINE)
    svc #0
    eb18:	df00      	svc	0
#else
#error Unknown ARM architecture
#endif /* CONFIG_ARMV6_M_ARMV8_M_BASELINE */

    /* coming back from exception, r2 still holds the pointer to _current */
    ldr r0, [r2, #_thread_offset_to_swap_return_value]
    eb1a:	6ed0      	ldr	r0, [r2, #108]	; 0x6c
    bx lr
    eb1c:	4770      	bx	lr
    eb1e:	0000      	.short	0x0000
    ldr r1, =_kernel
    eb20:	20002700 	.word	0x20002700
    ldr r1, =_k_neg_eagain
    eb24:	00029790 	.word	0x00029790

0000eb28 <_FaultThreadShow.isra.2>:
 *
 * See _FaultDump() for example.
 *
 * @return N/A
 */
static void _FaultThreadShow(const NANO_ESF *esf)
    eb28:	b510      	push	{r4, lr}
    eb2a:	4604      	mov	r4, r0

K_SYSCALL_DECLARE0_VOID(K_SYSCALL_K_YIELD, k_yield);

K_SYSCALL_DECLARE1_VOID(K_SYSCALL_K_WAKEUP, k_wakeup, k_tid_t, thread);

K_SYSCALL_DECLARE0(K_SYSCALL_K_CURRENT_GET, k_current_get, k_tid_t);
    eb2c:	f017 fd12 	bl	26554 <_impl_k_current_get>
{
	PR_EXC("  Executing thread ID (thread): %p\n"
    eb30:	6822      	ldr	r2, [r4, #0]
    eb32:	4601      	mov	r1, r0
	       "  Faulting instruction address:  0x%x\n",
	       k_current_get(), esf->pc);
}
    eb34:	e8bd 4010 	ldmia.w	sp!, {r4, lr}
	PR_EXC("  Executing thread ID (thread): %p\n"
    eb38:	4801      	ldr	r0, [pc, #4]	; (eb40 <_FaultThreadShow.isra.2+0x18>)
    eb3a:	f000 bcf9 	b.w	f530 <printk>
    eb3e:	bf00      	nop
    eb40:	00027804 	.word	0x00027804

0000eb44 <_UsageFault>:
 * See _FaultDump() for example.
 *
 * @return N/A
 */
static void _UsageFault(const NANO_ESF *esf)
{
    eb44:	b510      	push	{r4, lr}
    eb46:	4604      	mov	r4, r0
	PR_EXC("***** USAGE FAULT *****\n");
    eb48:	481a      	ldr	r0, [pc, #104]	; (ebb4 <_UsageFault+0x70>)
    eb4a:	f000 fcf1 	bl	f530 <printk>

	_FaultThreadShow(esf);
    eb4e:	f104 0018 	add.w	r0, r4, #24

	/* bits are sticky: they stack and must be reset */
	if (SCB->CFSR & CFSR_DIVBYZERO_Msk) {
    eb52:	4c19      	ldr	r4, [pc, #100]	; (ebb8 <_UsageFault+0x74>)
	_FaultThreadShow(esf);
    eb54:	f7ff ffe8 	bl	eb28 <_FaultThreadShow.isra.2>
	if (SCB->CFSR & CFSR_DIVBYZERO_Msk) {
    eb58:	6aa3      	ldr	r3, [r4, #40]	; 0x28
    eb5a:	019a      	lsls	r2, r3, #6
    eb5c:	d502      	bpl.n	eb64 <_UsageFault+0x20>
		PR_EXC("  Division by zero\n");
    eb5e:	4817      	ldr	r0, [pc, #92]	; (ebbc <_UsageFault+0x78>)
    eb60:	f000 fce6 	bl	f530 <printk>
	}
	if (SCB->CFSR & CFSR_UNALIGNED_Msk) {
    eb64:	6aa3      	ldr	r3, [r4, #40]	; 0x28
    eb66:	01db      	lsls	r3, r3, #7
    eb68:	d502      	bpl.n	eb70 <_UsageFault+0x2c>
		PR_EXC("  Unaligned memory access\n");
    eb6a:	4815      	ldr	r0, [pc, #84]	; (ebc0 <_UsageFault+0x7c>)
    eb6c:	f000 fce0 	bl	f530 <printk>
	}
	if (SCB->CFSR & CFSR_NOCP_Msk) {
    eb70:	6aa3      	ldr	r3, [r4, #40]	; 0x28
    eb72:	0318      	lsls	r0, r3, #12
    eb74:	d502      	bpl.n	eb7c <_UsageFault+0x38>
		PR_EXC("  No coprocessor instructions\n");
    eb76:	4813      	ldr	r0, [pc, #76]	; (ebc4 <_UsageFault+0x80>)
    eb78:	f000 fcda 	bl	f530 <printk>
	}
	if (SCB->CFSR & CFSR_INVPC_Msk) {
    eb7c:	4c0e      	ldr	r4, [pc, #56]	; (ebb8 <_UsageFault+0x74>)
    eb7e:	6aa3      	ldr	r3, [r4, #40]	; 0x28
    eb80:	0359      	lsls	r1, r3, #13
    eb82:	d502      	bpl.n	eb8a <_UsageFault+0x46>
		PR_EXC("  Illegal load of EXC_RETURN into PC\n");
    eb84:	4810      	ldr	r0, [pc, #64]	; (ebc8 <_UsageFault+0x84>)
    eb86:	f000 fcd3 	bl	f530 <printk>
	}
	if (SCB->CFSR & CFSR_INVSTATE_Msk) {
    eb8a:	6aa3      	ldr	r3, [r4, #40]	; 0x28
    eb8c:	039a      	lsls	r2, r3, #14
    eb8e:	d502      	bpl.n	eb96 <_UsageFault+0x52>
		PR_EXC("  Illegal use of the EPSR\n");
    eb90:	480e      	ldr	r0, [pc, #56]	; (ebcc <_UsageFault+0x88>)
    eb92:	f000 fccd 	bl	f530 <printk>
	}
	if (SCB->CFSR & CFSR_UNDEFINSTR_Msk) {
    eb96:	6aa3      	ldr	r3, [r4, #40]	; 0x28
    eb98:	03db      	lsls	r3, r3, #15
    eb9a:	d502      	bpl.n	eba2 <_UsageFault+0x5e>
		PR_EXC("  Attempt to execute undefined instruction\n");
    eb9c:	480c      	ldr	r0, [pc, #48]	; (ebd0 <_UsageFault+0x8c>)
    eb9e:	f000 fcc7 	bl	f530 <printk>
	}

	/* clear USFR sticky bits */
	SCB->CFSR |= SCB_CFSR_USGFAULTSR_Msk;
    eba2:	4a05      	ldr	r2, [pc, #20]	; (ebb8 <_UsageFault+0x74>)
    eba4:	6a93      	ldr	r3, [r2, #40]	; 0x28
    eba6:	ea6f 4303 	mvn.w	r3, r3, lsl #16
    ebaa:	ea6f 4313 	mvn.w	r3, r3, lsr #16
    ebae:	6293      	str	r3, [r2, #40]	; 0x28
    ebb0:	bd10      	pop	{r4, pc}
    ebb2:	bf00      	nop
    ebb4:	000278d5 	.word	0x000278d5
    ebb8:	e000ed00 	.word	0xe000ed00
    ebbc:	000278ee 	.word	0x000278ee
    ebc0:	00027902 	.word	0x00027902
    ebc4:	0002791d 	.word	0x0002791d
    ebc8:	0002793c 	.word	0x0002793c
    ebcc:	00027962 	.word	0x00027962
    ebd0:	0002797d 	.word	0x0002797d

0000ebd4 <_MpuFault>:
{
    ebd4:	b538      	push	{r3, r4, r5, lr}
    ebd6:	4604      	mov	r4, r0
	PR_EXC("***** MPU FAULT *****\n");
    ebd8:	4817      	ldr	r0, [pc, #92]	; (ec38 <_MpuFault+0x64>)
{
    ebda:	460d      	mov	r5, r1
	PR_EXC("***** MPU FAULT *****\n");
    ebdc:	f000 fca8 	bl	f530 <printk>
	_FaultThreadShow(esf);
    ebe0:	f104 0018 	add.w	r0, r4, #24
	if (SCB->CFSR & CFSR_MSTKERR_Msk) {
    ebe4:	4c15      	ldr	r4, [pc, #84]	; (ec3c <_MpuFault+0x68>)
	_FaultThreadShow(esf);
    ebe6:	f7ff ff9f 	bl	eb28 <_FaultThreadShow.isra.2>
	if (SCB->CFSR & CFSR_MSTKERR_Msk) {
    ebea:	6aa3      	ldr	r3, [r4, #40]	; 0x28
    ebec:	06db      	lsls	r3, r3, #27
    ebee:	d504      	bpl.n	ebfa <_MpuFault+0x26>
		PR_EXC("  Stacking error\n");
    ebf0:	4813      	ldr	r0, [pc, #76]	; (ec40 <_MpuFault+0x6c>)
}
    ebf2:	e8bd 4038 	ldmia.w	sp!, {r3, r4, r5, lr}
		PR_EXC("  Instruction Access Violation\n");
    ebf6:	f000 bc9b 	b.w	f530 <printk>
	} else if (SCB->CFSR & CFSR_MUNSTKERR_Msk) {
    ebfa:	6aa3      	ldr	r3, [r4, #40]	; 0x28
    ebfc:	0718      	lsls	r0, r3, #28
    ebfe:	d501      	bpl.n	ec04 <_MpuFault+0x30>
		PR_EXC("  Unstacking error\n");
    ec00:	4810      	ldr	r0, [pc, #64]	; (ec44 <_MpuFault+0x70>)
    ec02:	e7f6      	b.n	ebf2 <_MpuFault+0x1e>
	} else if (SCB->CFSR & CFSR_DACCVIOL_Msk) {
    ec04:	6aa3      	ldr	r3, [r4, #40]	; 0x28
    ec06:	0799      	lsls	r1, r3, #30
    ec08:	d50f      	bpl.n	ec2a <_MpuFault+0x56>
		PR_EXC("  Data Access Violation\n");
    ec0a:	480f      	ldr	r0, [pc, #60]	; (ec48 <_MpuFault+0x74>)
    ec0c:	f000 fc90 	bl	f530 <printk>
		STORE_xFAR(mmfar, SCB->MMFAR);
    ec10:	6b61      	ldr	r1, [r4, #52]	; 0x34
		if (SCB->CFSR & CFSR_MMARVALID_Msk) {
    ec12:	6aa3      	ldr	r3, [r4, #40]	; 0x28
    ec14:	061a      	lsls	r2, r3, #24
    ec16:	d50d      	bpl.n	ec34 <_MpuFault+0x60>
			PR_EXC("  Address: 0x%x\n", mmfar);
    ec18:	480c      	ldr	r0, [pc, #48]	; (ec4c <_MpuFault+0x78>)
    ec1a:	f000 fc89 	bl	f530 <printk>
			if (fromHardFault) {
    ec1e:	b14d      	cbz	r5, ec34 <_MpuFault+0x60>
				SCB->CFSR &= ~CFSR_MMARVALID_Msk;
    ec20:	6aa3      	ldr	r3, [r4, #40]	; 0x28
    ec22:	f023 0380 	bic.w	r3, r3, #128	; 0x80
    ec26:	62a3      	str	r3, [r4, #40]	; 0x28
    ec28:	bd38      	pop	{r3, r4, r5, pc}
	} else if (SCB->CFSR & CFSR_IACCVIOL_Msk) {
    ec2a:	6aa3      	ldr	r3, [r4, #40]	; 0x28
    ec2c:	07db      	lsls	r3, r3, #31
    ec2e:	d501      	bpl.n	ec34 <_MpuFault+0x60>
		PR_EXC("  Instruction Access Violation\n");
    ec30:	4807      	ldr	r0, [pc, #28]	; (ec50 <_MpuFault+0x7c>)
    ec32:	e7de      	b.n	ebf2 <_MpuFault+0x1e>
    ec34:	bd38      	pop	{r3, r4, r5, pc}
    ec36:	bf00      	nop
    ec38:	0002784e 	.word	0x0002784e
    ec3c:	e000ed00 	.word	0xe000ed00
    ec40:	00027865 	.word	0x00027865
    ec44:	00027877 	.word	0x00027877
    ec48:	0002788b 	.word	0x0002788b
    ec4c:	000278a4 	.word	0x000278a4
    ec50:	000278b5 	.word	0x000278b5

0000ec54 <_BusFault>:
{
    ec54:	b538      	push	{r3, r4, r5, lr}
    ec56:	4604      	mov	r4, r0
	PR_EXC("***** BUS FAULT *****\n");
    ec58:	481b      	ldr	r0, [pc, #108]	; (ecc8 <_BusFault+0x74>)
{
    ec5a:	460d      	mov	r5, r1
	PR_EXC("***** BUS FAULT *****\n");
    ec5c:	f000 fc68 	bl	f530 <printk>
	_FaultThreadShow(esf);
    ec60:	f104 0018 	add.w	r0, r4, #24
	if (SCB->CFSR & CFSR_STKERR_Msk) {
    ec64:	4c19      	ldr	r4, [pc, #100]	; (eccc <_BusFault+0x78>)
	_FaultThreadShow(esf);
    ec66:	f7ff ff5f 	bl	eb28 <_FaultThreadShow.isra.2>
	if (SCB->CFSR & CFSR_STKERR_Msk) {
    ec6a:	6aa3      	ldr	r3, [r4, #40]	; 0x28
    ec6c:	04d9      	lsls	r1, r3, #19
    ec6e:	d504      	bpl.n	ec7a <_BusFault+0x26>
		PR_EXC("  Stacking error\n");
    ec70:	4817      	ldr	r0, [pc, #92]	; (ecd0 <_BusFault+0x7c>)
}
    ec72:	e8bd 4038 	ldmia.w	sp!, {r3, r4, r5, lr}
		PR_EXC("  Instruction bus error\n");
    ec76:	f000 bc5b 	b.w	f530 <printk>
	} else if (SCB->CFSR & CFSR_UNSTKERR_Msk) {
    ec7a:	6aa3      	ldr	r3, [r4, #40]	; 0x28
    ec7c:	051a      	lsls	r2, r3, #20
    ec7e:	d501      	bpl.n	ec84 <_BusFault+0x30>
		PR_EXC("  Unstacking error\n");
    ec80:	4814      	ldr	r0, [pc, #80]	; (ecd4 <_BusFault+0x80>)
    ec82:	e7f6      	b.n	ec72 <_BusFault+0x1e>
	} else if (SCB->CFSR & CFSR_PRECISERR_Msk) {
    ec84:	6aa3      	ldr	r3, [r4, #40]	; 0x28
    ec86:	059b      	lsls	r3, r3, #22
    ec88:	d514      	bpl.n	ecb4 <_BusFault+0x60>
		PR_EXC("  Precise data bus error\n");
    ec8a:	4813      	ldr	r0, [pc, #76]	; (ecd8 <_BusFault+0x84>)
    ec8c:	f000 fc50 	bl	f530 <printk>
		STORE_xFAR(bfar, SCB->BFAR);
    ec90:	6ba1      	ldr	r1, [r4, #56]	; 0x38
		if (SCB->CFSR & CFSR_BFARVALID_Msk) {
    ec92:	6aa3      	ldr	r3, [r4, #40]	; 0x28
    ec94:	0418      	lsls	r0, r3, #16
    ec96:	d507      	bpl.n	eca8 <_BusFault+0x54>
			PR_EXC("  Address: 0x%x\n", bfar);
    ec98:	4810      	ldr	r0, [pc, #64]	; (ecdc <_BusFault+0x88>)
    ec9a:	f000 fc49 	bl	f530 <printk>
			if (fromHardFault) {
    ec9e:	b11d      	cbz	r5, eca8 <_BusFault+0x54>
				SCB->CFSR &= ~CFSR_BFARVALID_Msk;
    eca0:	6aa3      	ldr	r3, [r4, #40]	; 0x28
    eca2:	f423 4300 	bic.w	r3, r3, #32768	; 0x8000
    eca6:	62a3      	str	r3, [r4, #40]	; 0x28
		if (SCB->CFSR & CFSR_IMPRECISERR_Msk) {
    eca8:	4b08      	ldr	r3, [pc, #32]	; (eccc <_BusFault+0x78>)
    ecaa:	6a9b      	ldr	r3, [r3, #40]	; 0x28
    ecac:	0559      	lsls	r1, r3, #21
    ecae:	d509      	bpl.n	ecc4 <_BusFault+0x70>
			PR_EXC("  Imprecise data bus error\n");
    ecb0:	480b      	ldr	r0, [pc, #44]	; (ece0 <_BusFault+0x8c>)
    ecb2:	e7de      	b.n	ec72 <_BusFault+0x1e>
	} else if (SCB->CFSR & CFSR_IMPRECISERR_Msk) {
    ecb4:	6aa3      	ldr	r3, [r4, #40]	; 0x28
    ecb6:	055a      	lsls	r2, r3, #21
    ecb8:	d4fa      	bmi.n	ecb0 <_BusFault+0x5c>
	} else if (SCB->CFSR & CFSR_IBUSERR_Msk) {
    ecba:	6aa3      	ldr	r3, [r4, #40]	; 0x28
    ecbc:	05db      	lsls	r3, r3, #23
    ecbe:	d501      	bpl.n	ecc4 <_BusFault+0x70>
		PR_EXC("  Instruction bus error\n");
    ecc0:	4808      	ldr	r0, [pc, #32]	; (ece4 <_BusFault+0x90>)
    ecc2:	e7d6      	b.n	ec72 <_BusFault+0x1e>
    ecc4:	bd38      	pop	{r3, r4, r5, pc}
    ecc6:	bf00      	nop
    ecc8:	000276cb 	.word	0x000276cb
    eccc:	e000ed00 	.word	0xe000ed00
    ecd0:	00027865 	.word	0x00027865
    ecd4:	00027877 	.word	0x00027877
    ecd8:	000276e2 	.word	0x000276e2
    ecdc:	000278a4 	.word	0x000278a4
    ece0:	000276fc 	.word	0x000276fc
    ece4:	00027718 	.word	0x00027718

0000ece8 <_Fault>:
 *
 * @param esf ESF on the stack, either MSP or PSP depending at what processor
 *            state the exception was taken.
 */
void _Fault(const NANO_ESF *esf)
{
    ece8:	b538      	push	{r3, r4, r5, lr}
	int fault = SCB->ICSR & SCB_ICSR_VECTACTIVE_Msk;
    ecea:	4d27      	ldr	r5, [pc, #156]	; (ed88 <_Fault+0xa0>)
    ecec:	686b      	ldr	r3, [r5, #4]
    ecee:	f3c3 0308 	ubfx	r3, r3, #0, #9
	switch (fault) {
    ecf2:	1eda      	subs	r2, r3, #3
{
    ecf4:	4604      	mov	r4, r0
	switch (fault) {
    ecf6:	2a09      	cmp	r2, #9
    ecf8:	d83a      	bhi.n	ed70 <_Fault+0x88>
    ecfa:	e8df f002 	tbb	[pc, r2]
    ecfe:	3305      	.short	0x3305
    ed00:	39392f35 	.word	0x39392f35
    ed04:	37393939 	.word	0x37393939
	PR_EXC("***** HARD FAULT *****\n");
    ed08:	4820      	ldr	r0, [pc, #128]	; (ed8c <_Fault+0xa4>)
    ed0a:	f000 fc11 	bl	f530 <printk>
	if (SCB->HFSR & SCB_HFSR_VECTTBL_Msk) {
    ed0e:	6aeb      	ldr	r3, [r5, #44]	; 0x2c
    ed10:	079a      	lsls	r2, r3, #30
    ed12:	d503      	bpl.n	ed1c <_Fault+0x34>
		PR_EXC("  Bus fault on vector table read\n");
    ed14:	481e      	ldr	r0, [pc, #120]	; (ed90 <_Fault+0xa8>)
	PR_EXC("***** Debug monitor exception (not implemented) *****\n");
    ed16:	f000 fc0b 	bl	f530 <printk>
    ed1a:	e00c      	b.n	ed36 <_Fault+0x4e>
	} else if (SCB->HFSR & SCB_HFSR_FORCED_Msk) {
    ed1c:	6aeb      	ldr	r3, [r5, #44]	; 0x2c
    ed1e:	005b      	lsls	r3, r3, #1
    ed20:	d509      	bpl.n	ed36 <_Fault+0x4e>
		PR_EXC("  Fault escalation (see below)\n");
    ed22:	481c      	ldr	r0, [pc, #112]	; (ed94 <_Fault+0xac>)
    ed24:	f000 fc04 	bl	f530 <printk>
		if (SCB_MMFSR) {
    ed28:	4b1b      	ldr	r3, [pc, #108]	; (ed98 <_Fault+0xb0>)
    ed2a:	781b      	ldrb	r3, [r3, #0]
    ed2c:	b14b      	cbz	r3, ed42 <_Fault+0x5a>
			_MpuFault(esf, 1);
    ed2e:	2101      	movs	r1, #1
		_MpuFault(esf, 0);
    ed30:	4620      	mov	r0, r4
    ed32:	f7ff ff4f 	bl	ebd4 <_MpuFault>

	FAULT_DUMP(esf, fault);

	_SysFatalErrorHandler(_NANO_ERR_HW_EXCEPTION, esf);
    ed36:	4621      	mov	r1, r4
    ed38:	2000      	movs	r0, #0
}
    ed3a:	e8bd 4038 	ldmia.w	sp!, {r3, r4, r5, lr}
	_SysFatalErrorHandler(_NANO_ERR_HW_EXCEPTION, esf);
    ed3e:	f000 b923 	b.w	ef88 <_SysFatalErrorHandler>
		} else if (SCB_BFSR) {
    ed42:	4b16      	ldr	r3, [pc, #88]	; (ed9c <_Fault+0xb4>)
    ed44:	781b      	ldrb	r3, [r3, #0]
    ed46:	b123      	cbz	r3, ed52 <_Fault+0x6a>
			_BusFault(esf, 1);
    ed48:	2101      	movs	r1, #1
		_BusFault(esf, 0);
    ed4a:	4620      	mov	r0, r4
    ed4c:	f7ff ff82 	bl	ec54 <_BusFault>
    ed50:	e7f1      	b.n	ed36 <_Fault+0x4e>
		} else if (SCB_UFSR) {
    ed52:	4b13      	ldr	r3, [pc, #76]	; (eda0 <_Fault+0xb8>)
    ed54:	881b      	ldrh	r3, [r3, #0]
    ed56:	b29b      	uxth	r3, r3
    ed58:	2b00      	cmp	r3, #0
    ed5a:	d0ec      	beq.n	ed36 <_Fault+0x4e>
		_UsageFault(esf);
    ed5c:	4620      	mov	r0, r4
    ed5e:	f7ff fef1 	bl	eb44 <_UsageFault>
    ed62:	e7e8      	b.n	ed36 <_Fault+0x4e>
		_MpuFault(esf, 0);
    ed64:	2100      	movs	r1, #0
    ed66:	e7e3      	b.n	ed30 <_Fault+0x48>
		_BusFault(esf, 0);
    ed68:	2100      	movs	r1, #0
    ed6a:	e7ee      	b.n	ed4a <_Fault+0x62>
	PR_EXC("***** Debug monitor exception (not implemented) *****\n");
    ed6c:	480d      	ldr	r0, [pc, #52]	; (eda4 <_Fault+0xbc>)
    ed6e:	e7d2      	b.n	ed16 <_Fault+0x2e>
	PR_EXC("***** %s %d) *****\n",
    ed70:	480d      	ldr	r0, [pc, #52]	; (eda8 <_Fault+0xc0>)
    ed72:	490e      	ldr	r1, [pc, #56]	; (edac <_Fault+0xc4>)
    ed74:	f1a3 0210 	sub.w	r2, r3, #16
    ed78:	2b0f      	cmp	r3, #15
    ed7a:	bfd8      	it	le
    ed7c:	4601      	movle	r1, r0
    ed7e:	480c      	ldr	r0, [pc, #48]	; (edb0 <_Fault+0xc8>)
    ed80:	f000 fbd6 	bl	f530 <printk>
    ed84:	e7d7      	b.n	ed36 <_Fault+0x4e>
    ed86:	bf00      	nop
    ed88:	e000ed00 	.word	0xe000ed00
    ed8c:	0002775f 	.word	0x0002775f
    ed90:	00027777 	.word	0x00027777
    ed94:	00027799 	.word	0x00027799
    ed98:	e000ed28 	.word	0xe000ed28
    ed9c:	e000ed29 	.word	0xe000ed29
    eda0:	e000ed2a 	.word	0xe000ed2a
    eda4:	000277b9 	.word	0x000277b9
    eda8:	00027731 	.word	0x00027731
    edac:	00027746 	.word	0x00027746
    edb0:	000277f0 	.word	0x000277f0

0000edb4 <_FaultInit>:
 */
void _FaultInit(void)
{
#if defined(CONFIG_ARMV6_M_ARMV8_M_BASELINE)
#elif defined(CONFIG_ARMV7_M_ARMV8_M_MAINLINE)
	SCB->CCR |= SCB_CCR_DIV_0_TRP_Msk;
    edb4:	4a02      	ldr	r2, [pc, #8]	; (edc0 <_FaultInit+0xc>)
    edb6:	6953      	ldr	r3, [r2, #20]
    edb8:	f043 0310 	orr.w	r3, r3, #16
    edbc:	6153      	str	r3, [r2, #20]
    edbe:	4770      	bx	lr
    edc0:	e000ed00 	.word	0xe000ed00

0000edc4 <_arch_irq_enable>:
 *
 * @return N/A
 */
void _arch_irq_enable(unsigned int irq)
{
	NVIC_EnableIRQ((IRQn_Type)irq);
    edc4:	b243      	sxtb	r3, r0
  if ((int32_t)(IRQn) >= 0)
    edc6:	2b00      	cmp	r3, #0
    edc8:	db08      	blt.n	eddc <_arch_irq_enable+0x18>
    NVIC->ISER[(((uint32_t)(int32_t)IRQn) >> 5UL)] = (uint32_t)(1UL << (((uint32_t)(int32_t)IRQn) & 0x1FUL));
    edca:	2201      	movs	r2, #1
    edcc:	f000 001f 	and.w	r0, r0, #31
    edd0:	fa02 f000 	lsl.w	r0, r2, r0
    edd4:	095b      	lsrs	r3, r3, #5
    edd6:	4a02      	ldr	r2, [pc, #8]	; (ede0 <_arch_irq_enable+0x1c>)
    edd8:	f842 0023 	str.w	r0, [r2, r3, lsl #2]
    eddc:	4770      	bx	lr
    edde:	bf00      	nop
    ede0:	e000e100 	.word	0xe000e100

0000ede4 <_arch_irq_disable>:
 *
 * @return N/A
 */
void _arch_irq_disable(unsigned int irq)
{
	NVIC_DisableIRQ((IRQn_Type)irq);
    ede4:	b243      	sxtb	r3, r0
  if ((int32_t)(IRQn) >= 0)
    ede6:	2b00      	cmp	r3, #0
    ede8:	db0d      	blt.n	ee06 <_arch_irq_disable+0x22>
    NVIC->ICER[(((uint32_t)(int32_t)IRQn) >> 5UL)] = (uint32_t)(1UL << (((uint32_t)(int32_t)IRQn) & 0x1FUL));
    edea:	2201      	movs	r2, #1
    edec:	095b      	lsrs	r3, r3, #5
    edee:	f000 001f 	and.w	r0, r0, #31
    edf2:	fa02 f000 	lsl.w	r0, r2, r0
    edf6:	3320      	adds	r3, #32
    edf8:	4a03      	ldr	r2, [pc, #12]	; (ee08 <_arch_irq_disable+0x24>)
    edfa:	f842 0023 	str.w	r0, [r2, r3, lsl #2]
    edfe:	f3bf 8f4f 	dsb	sy
  __ASM volatile ("isb 0xF":::"memory");
    ee02:	f3bf 8f6f 	isb	sy
    ee06:	4770      	bx	lr
    ee08:	e000e100 	.word	0xe000e100

0000ee0c <_arch_irq_is_enabled>:
 * @param irq IRQ line
 * @return interrupt enable state, true or false
 */
int _arch_irq_is_enabled(unsigned int irq)
{
	return NVIC->ISER[REG_FROM_IRQ(irq)] & (1 << BIT_FROM_IRQ(irq));
    ee0c:	0942      	lsrs	r2, r0, #5
    ee0e:	4b05      	ldr	r3, [pc, #20]	; (ee24 <_arch_irq_is_enabled+0x18>)
    ee10:	f000 001f 	and.w	r0, r0, #31
    ee14:	f853 2022 	ldr.w	r2, [r3, r2, lsl #2]
    ee18:	2301      	movs	r3, #1
    ee1a:	fa03 f000 	lsl.w	r0, r3, r0
}
    ee1e:	4010      	ands	r0, r2
    ee20:	4770      	bx	lr
    ee22:	bf00      	nop
    ee24:	e000e100 	.word	0xe000e100

0000ee28 <_irq_priority_set>:
	 */
	__ASSERT(prio <= ((1 << CONFIG_NUM_IRQ_PRIO_BITS) - 1),
		 "invalid priority %d! values must be less than %d\n",
		 prio - _IRQ_PRIO_OFFSET,
		 (1 << CONFIG_NUM_IRQ_PRIO_BITS) - (_IRQ_PRIO_OFFSET));
	NVIC_SetPriority((IRQn_Type)irq, prio);
    ee28:	b243      	sxtb	r3, r0
  if ((int32_t)(IRQn) >= 0)
    ee2a:	2b00      	cmp	r3, #0
    NVIC->IP[((uint32_t)(int32_t)IRQn)]               = (uint8_t)((priority << (8U - __NVIC_PRIO_BITS)) & (uint32_t)0xFFUL);
    ee2c:	bfa8      	it	ge
    ee2e:	f103 4360 	addge.w	r3, r3, #3758096384	; 0xe0000000
	prio += _IRQ_PRIO_OFFSET;
    ee32:	f101 0101 	add.w	r1, r1, #1
    ee36:	ea4f 1141 	mov.w	r1, r1, lsl #5
    ee3a:	bfad      	iteet	ge
    ee3c:	f503 4361 	addge.w	r3, r3, #57600	; 0xe100
    SCB->SHP[(((uint32_t)(int32_t)IRQn) & 0xFUL)-4UL] = (uint8_t)((priority << (8U - __NVIC_PRIO_BITS)) & (uint32_t)0xFFUL);
    ee40:	f000 000f 	andlt.w	r0, r0, #15
    ee44:	4b03      	ldrlt	r3, [pc, #12]	; (ee54 <_irq_priority_set+0x2c>)
    NVIC->IP[((uint32_t)(int32_t)IRQn)]               = (uint8_t)((priority << (8U - __NVIC_PRIO_BITS)) & (uint32_t)0xFFUL);
    ee46:	b2c9      	uxtbge	r1, r1
    SCB->SHP[(((uint32_t)(int32_t)IRQn) & 0xFUL)-4UL] = (uint8_t)((priority << (8U - __NVIC_PRIO_BITS)) & (uint32_t)0xFFUL);
    ee48:	bfb6      	itet	lt
    ee4a:	b2c9      	uxtblt	r1, r1
    NVIC->IP[((uint32_t)(int32_t)IRQn)]               = (uint8_t)((priority << (8U - __NVIC_PRIO_BITS)) & (uint32_t)0xFFUL);
    ee4c:	f883 1300 	strbge.w	r1, [r3, #768]	; 0x300
    SCB->SHP[(((uint32_t)(int32_t)IRQn) & 0xFUL)-4UL] = (uint8_t)((priority << (8U - __NVIC_PRIO_BITS)) & (uint32_t)0xFFUL);
    ee50:	5419      	strblt	r1, [r3, r0]
    ee52:	4770      	bx	lr
    ee54:	e000ed14 	.word	0xe000ed14

0000ee58 <_irq_spurious>:
 * @return N/A
 */
void _irq_spurious(void *unused)
{
	ARG_UNUSED(unused);
	__reserved();
    ee58:	f000 b852 	b.w	ef00 <__bus_fault>

0000ee5c <_arch_isr_direct_pm>:
 * See https://jira.zephyrproject.org/browse/ZEP-1595
 */

#ifdef CONFIG_SYS_POWER_MANAGEMENT
void _arch_isr_direct_pm(void)
{
    ee5c:	b508      	push	{r3, lr}
#elif defined(CONFIG_ARMV7_M_ARMV8_M_MAINLINE)
	/* Lock all interrupts. irq_lock() will on this CPU only disable those
	 * lower than BASEPRI, which is not what we want. See comments in
	 * arch/arm/core/isr_wrapper.S
	 */
	__asm__ volatile("cpsid i" : : : "memory");
    ee5e:	b672      	cpsid	i
#else
#error Unknown ARM architecture
#endif /* CONFIG_ARMV6_M_ARMV8_M_BASELINE */

	if (_kernel.idle) {
    ee60:	4b04      	ldr	r3, [pc, #16]	; (ee74 <_arch_isr_direct_pm+0x18>)
    ee62:	6998      	ldr	r0, [r3, #24]
    ee64:	b118      	cbz	r0, ee6e <_arch_isr_direct_pm+0x12>
		s32_t idle_val = _kernel.idle;

		_kernel.idle = 0;
    ee66:	2200      	movs	r2, #0
    ee68:	619a      	str	r2, [r3, #24]
		_sys_power_save_idle_exit(idle_val);
    ee6a:	f016 fe0d 	bl	25a88 <_sys_power_save_idle_exit>
	}

#if defined(CONFIG_ARMV6_M_ARMV8_M_BASELINE)
	irq_unlock(key);
#elif defined(CONFIG_ARMV7_M_ARMV8_M_MAINLINE)
	__asm__ volatile("cpsie i" : : : "memory");
    ee6e:	b662      	cpsie	i
    ee70:	bd08      	pop	{r3, pc}
    ee72:	bf00      	nop
    ee74:	20002700 	.word	0x20002700

0000ee78 <_new_thread>:

void _new_thread(struct k_thread *thread, k_thread_stack_t *stack,
		 size_t stackSize, k_thread_entry_t pEntry,
		 void *parameter1, void *parameter2, void *parameter3,
		 int priority, unsigned int options)
{
    ee78:	b5f8      	push	{r3, r4, r5, r6, r7, lr}
    ee7a:	460c      	mov	r4, r1
    ee7c:	4616      	mov	r6, r2
    ee7e:	461f      	mov	r7, r3
	 * if it isn't.
	 */
	*((u32_t *)pStack) = STACK_SENTINEL;
#endif /* CONFIG_STACK_SENTINEL */
	/* Initialize various struct k_thread members */
	_init_thread_base(&thread->base, prio, _THREAD_PRESTART, options);
    ee80:	9909      	ldr	r1, [sp, #36]	; 0x24
    ee82:	9b0a      	ldr	r3, [sp, #40]	; 0x28
    ee84:	2204      	movs	r2, #4
    ee86:	4605      	mov	r5, r0
    ee88:	f017 fea8 	bl	26bdc <_init_thread_base>

	_new_thread_init(thread, pStackMem, stackEnd - pStackMem, priority,
			 options);

	/* carve the thread entry struct from the "base" of the stack */
	pInitCtx = (struct __esf *)(STACK_ROUND_DOWN(stackEnd -
    ee8c:	f1a6 0120 	sub.w	r1, r6, #32
    ee90:	4421      	add	r1, r4
#else
	pInitCtx->pc = (u32_t)_thread_entry;
#endif

	/* force ARM mode by clearing LSB of address */
	pInitCtx->pc &= 0xfffffffe;
    ee92:	4a13      	ldr	r2, [pc, #76]	; (eee0 <_new_thread+0x68>)
#if defined(CONFIG_USERSPACE)
	thread->mem_domain_info.mem_domain = NULL;
#endif /* CONFIG_USERSPACE */

#if defined(CONFIG_THREAD_STACK_INFO)
	thread->stack_info.start = (u32_t)pStack;
    ee94:	662c      	str	r4, [r5, #96]	; 0x60
	pInitCtx = (struct __esf *)(STACK_ROUND_DOWN(stackEnd -
    ee96:	f021 0107 	bic.w	r1, r1, #7
	thread->init_data = NULL;
    ee9a:	2300      	movs	r3, #0
	pInitCtx->pc &= 0xfffffffe;
    ee9c:	f022 0201 	bic.w	r2, r2, #1
    eea0:	64eb      	str	r3, [r5, #76]	; 0x4c
	thread->fn_abort = NULL;
    eea2:	652b      	str	r3, [r5, #80]	; 0x50
	thread->stack_info.size = (u32_t)stackSize;
    eea4:	666e      	str	r6, [r5, #100]	; 0x64
    eea6:	618a      	str	r2, [r1, #24]

	pInitCtx->a1 = (u32_t)pEntry;
	pInitCtx->a2 = (u32_t)parameter1;
    eea8:	9a06      	ldr	r2, [sp, #24]
    eeaa:	604a      	str	r2, [r1, #4]
	pInitCtx->a3 = (u32_t)parameter2;
    eeac:	9a07      	ldr	r2, [sp, #28]
    eeae:	608a      	str	r2, [r1, #8]
	pInitCtx->a4 = (u32_t)parameter3;
    eeb0:	9a08      	ldr	r2, [sp, #32]
    eeb2:	60ca      	str	r2, [r1, #12]
	pInitCtx->xpsr =
    eeb4:	f04f 7280 	mov.w	r2, #16777216	; 0x1000000
	pInitCtx->a1 = (u32_t)pEntry;
    eeb8:	600f      	str	r7, [r1, #0]
	pInitCtx->xpsr =
    eeba:	61ca      	str	r2, [r1, #28]
		0x01000000UL; /* clear all, thumb bit is 1, even if RO */

	thread->callee_saved.psp = (u32_t)pInitCtx;
    eebc:	64a9      	str	r1, [r5, #72]	; 0x48
	thread->arch.basepri = 0;
    eebe:	66ab      	str	r3, [r5, #104]	; 0x68
#ifdef CONFIG_THREAD_MONITOR
	/*
	 * In debug mode thread->entry give direct access to the thread entry
	 * and the corresponding parameters.
	 */
	thread->entry = (struct __thread_entry *)(pInitCtx);
    eec0:	6569      	str	r1, [r5, #84]	; 0x54
	__asm__ volatile(
    eec2:	f04f 0320 	mov.w	r3, #32
    eec6:	f3ef 8211 	mrs	r2, BASEPRI
    eeca:	f383 8811 	msr	BASEPRI, r3
static ALWAYS_INLINE void thread_monitor_init(struct k_thread *thread)
{
	unsigned int key;

	key = irq_lock();
	thread->next_thread = _kernel.threads;
    eece:	4b05      	ldr	r3, [pc, #20]	; (eee4 <_new_thread+0x6c>)
    eed0:	f8d3 1124 	ldr.w	r1, [r3, #292]	; 0x124
    eed4:	65a9      	str	r1, [r5, #88]	; 0x58
	_kernel.threads = thread;
    eed6:	f8c3 5124 	str.w	r5, [r3, #292]	; 0x124
	__asm__ volatile("msr BASEPRI, %0" :  : "r"(key) : "memory");
    eeda:	f382 8811 	msr	BASEPRI, r2
    eede:	bdf8      	pop	{r3, r4, r5, r6, r7, pc}
    eee0:	00026a51 	.word	0x00026a51
    eee4:	20002700 	.word	0x20002700

0000eee8 <_CpuIdleInit>:
 *
 * void _CpuIdleInit (void);
 */

SECTION_FUNC(TEXT, _CpuIdleInit)
	ldr r1, =_SCB_SCR
    eee8:	4901      	ldr	r1, [pc, #4]	; (eef0 <_CpuIdleInit+0x8>)
	movs.n r2, #_SCR_INIT_BITS
    eeea:	2210      	movs	r2, #16
	str r2, [r1]
    eeec:	600a      	str	r2, [r1, #0]
	bx lr
    eeee:	4770      	bx	lr
	ldr r1, =_SCB_SCR
    eef0:	e000ed10 	.word	0xe000ed10

0000eef4 <k_cpu_idle>:

#if defined(CONFIG_ARMV6_M_ARMV8_M_BASELINE)
	cpsie i
#elif defined(CONFIG_ARMV7_M_ARMV8_M_MAINLINE)
	/* clear BASEPRI so wfi is awakened by incoming interrupts */
	eors.n r0, r0
    eef4:	4040      	eors	r0, r0
	msr BASEPRI, r0
    eef6:	f380 8811 	msr	BASEPRI, r0
#else
#error Unknown ARM architecture
#endif /* CONFIG_ARMV6_M_ARMV8_M_BASELINE */

	wfi
    eefa:	bf30      	wfi

	bx lr
    eefc:	4770      	bx	lr
    eefe:	bf00      	nop

0000ef00 <__bus_fault>:
	mrs r0, MSP
_stack_frame_endif:

#elif defined(CONFIG_ARMV7_M_ARMV8_M_MAINLINE)
	/* force unlock interrupts */
	eors.n r0, r0
    ef00:	4040      	eors	r0, r0
	msr BASEPRI, r0
    ef02:	f380 8811 	msr	BASEPRI, r0

	/* this checks to see if we are in a nested exception */
	ldr ip, =_SCS_ICSR
    ef06:	f8df c01c 	ldr.w	ip, [pc, #28]	; ef24 <__bus_fault+0x24>
	ldr ip, [ip]
    ef0a:	f8dc c000 	ldr.w	ip, [ip]
	ands.w ip, #_SCS_ICSR_RETTOBASE
    ef0e:	f41c 6c00 	ands.w	ip, ip, #2048	; 0x800

	ite eq			/* is the RETTOBASE bit zero ? */
    ef12:	bf0c      	ite	eq
		mrseq r0, MSP	/* if so, we're not returning to thread mode,
    ef14:	f3ef 8008 	mrseq	r0, MSP
				 * thus this is a nested exception: the stack
				 * frame is on the MSP */
		mrsne r0, PSP	/* if not, we are returning to thread mode, thus
    ef18:	f3ef 8009 	mrsne	r0, PSP
				 * frame is on the PSP */
#else
#error Unknown ARM architecture
#endif /* CONFIG_ARMV6_M_ARMV8_M_BASELINE */

	push {lr}
    ef1c:	b500      	push	{lr}
	bl _Fault
    ef1e:	f7ff fee3 	bl	ece8 <_Fault>

	pop {pc}
    ef22:	bd00      	pop	{pc}
	ldr ip, =_SCS_ICSR
    ef24:	e000ed04 	.word	0xe000ed04

0000ef28 <_NanoFatalErrorHandler>:
 * @param pEsf pointer to the exception stack frame
 */
void _NanoFatalErrorHandler(unsigned int reason,
					  const NANO_ESF *pEsf)
{
	switch (reason) {
    ef28:	2804      	cmp	r0, #4
{
    ef2a:	b538      	push	{r3, r4, r5, lr}
    ef2c:	4604      	mov	r4, r0
    ef2e:	460d      	mov	r5, r1
	switch (reason) {
    ef30:	d013      	beq.n	ef5a <_NanoFatalErrorHandler+0x32>
    ef32:	2805      	cmp	r0, #5
    ef34:	d013      	beq.n	ef5e <_NanoFatalErrorHandler+0x36>
    ef36:	2803      	cmp	r0, #3
    ef38:	d113      	bne.n	ef62 <_NanoFatalErrorHandler+0x3a>
		printk("***** Stack Check Fail! *****\n");
		break;
#endif /* CONFIG_STACK_CANARIES */

	case _NANO_ERR_ALLOCATION_FAIL:
		printk("**** Kernel Allocation Failure! ****\n");
    ef3a:	480c      	ldr	r0, [pc, #48]	; (ef6c <_NanoFatalErrorHandler+0x44>)
		break;

	case _NANO_ERR_KERNEL_OOPS:
		printk("***** Kernel OOPS! *****\n");
    ef3c:	f000 faf8 	bl	f530 <printk>
    ef40:	f017 fb08 	bl	26554 <_impl_k_current_get>

	default:
		printk("**** Unknown Fatal Error %d! ****\n", reason);
		break;
	}
	printk("Current thread ID = %p\n"
    ef44:	69aa      	ldr	r2, [r5, #24]
    ef46:	4601      	mov	r1, r0
    ef48:	4809      	ldr	r0, [pc, #36]	; (ef70 <_NanoFatalErrorHandler+0x48>)
    ef4a:	f000 faf1 	bl	f530 <printk>
	 * to respond to the error.  The decisions as to what responses are
	 * appropriate to the various errors are something the customer must
	 * decide.
	 */

	_SysFatalErrorHandler(reason, pEsf);
    ef4e:	4629      	mov	r1, r5
    ef50:	4620      	mov	r0, r4
}
    ef52:	e8bd 4038 	ldmia.w	sp!, {r3, r4, r5, lr}
	_SysFatalErrorHandler(reason, pEsf);
    ef56:	f000 b817 	b.w	ef88 <_SysFatalErrorHandler>
		printk("***** Kernel OOPS! *****\n");
    ef5a:	4806      	ldr	r0, [pc, #24]	; (ef74 <_NanoFatalErrorHandler+0x4c>)
    ef5c:	e7ee      	b.n	ef3c <_NanoFatalErrorHandler+0x14>
		printk("***** Kernel Panic! *****\n");
