:020000040000FA
:2000000000040020E508000079050000C5080000830500008D0500009705000000000000CE
:2000200000000000000000000000000009090000A105000000000000AB050000B50500009E
:20004000BF050000C9050000D3050000DD050000E7050000F1050000FB0500000506000067
:200060000F06000019060000230600002D06000037060000410600004B06000055060000C0
:200080005F06000069060000730600007D06000087060000910600009B060000A506000020
:2000A000AF060000B9060000C3060000CD060000D7060000E1060000EB060000F506000080
:2000C000FF06000009070000130700001D07000027070000310700003B07000045070000D9
:2000E0004F07000059070000630700006D07000077070000810700008B0700009507000038
:200100009F0700001FB500F003F88DE80F001FBD00F0DEBB1FB56FF00100009040100390EA
:20012000029001904FF010208069000B420900F01F045DF822300120A04083434DF82230D6
:20014000684600F044F91FBDF0B54FF6FF734FF4B4751A466E1E11E0A94201D3344600E02A
:200160000C46091B30F8027B641E3B441A44F9D19CB204EB134394B204EB12420029EBD13A
:2001800098B200EB134002EB124140EA0140F0BDDD4992B00446D1E90001CDE91001FF222A
:2001A0004021684600F03AFB94E80F008DE80F00684610A902E004C841F8042D8842FAD1E8
:2001C00010216846FFF7C0FF1090AA208DF84400FFF7A0FF00F0F2F84FF01024A06910223B
:2001E0006946803000F001F9A069082210A900F0FCF800F0D7F84FF080510A69496900688A
:200200004A43824201D8102070470020704710B5D0E900214FF0805002EB810302694469BF
:200220006243934209D84FF01022536903EB81030169406941438B4201D9092010BD5069D7
:20024000401C01D0002010BD0F2010BD70B501680446AE4D4FF01020062951D2DFE801F03C
:20026000320318283B1DD4E9026564682946304600F0CDF82A462146304600F0B6F8AA0092
:200280002146304600F09EFA002800D0032070BD00F050FB4FF4805007E0201DFFF7ABFF9F
:2002A0000028F4D100F046FB60682860002070BD241D94E80700920000F084FA0028F6D0D1
:2002C0000E2070BD8069401C12D0201DFFF79FFF0028F6D109E08069401C09D0201DFFF7A2
:2002E0008AFF0028EDD1606820B12046FFF750FF042070BDFFF70EFF00F060F800F052F875
:20030000072070BD10B50C46182802D00120086010BD2068FFF79AFF206010BD4FF0102433
:20032000A069401C05D0A569A66980353079AA2808D06069401C2DD060690068401C29D0B6
:2003400060692CE010212846FFF7FEFE316881421CD1A16901F18002C03105E030B108CAE7
:2003600051F8040D984201D1012000E000208A42F4D158B1286810B1042803D0FEE7284619
:2003800000F057F861496868086008E000F016F800F008F84FF480500168491C01D000F0C4
:2003A000A3FAFEE7BFF34F8F59480168594A01F4E06111430160BFF34F8FFEE74FF01020AF
:2003C0008169491C02D0806900F0ADB87047524A01681160121D416811604F4A8168103284
:2003E0001160111DC068086070472DE9F04117460D460646002406E03046296800F0A6F835
:20040000641C2D1D361DBC42F6D3BDE8F08170B50C4605464FF4806608E0284600F083F836
:20042000B44205D3A4F5806405F58055002CF4D170BD4168044609B1012500E000254FF06D
:2004400010267069A268920000F0BCF9C8B1204600F01AF89DB17669A56864684FF4002002
:2004600084420AD2854208D229463046FFF7CFFF2A4621463046FFF7B8FFFFF79FFFFFF70C
:2004800091FFFFF747FEF8E72DE9FF414FF01024616980680D0B01EB800000F6FF70010B42
:2004A000002000900190029002460390684601230BE0560902F01F0C50F8267003FA0CFC72
:2004C00047EA0C0740F82670521CAA42F1D30AE04A0901F01F0650F8225003FA06F635436E
:2004E00040F82250491C8029F2D3A169090B4A0901F01F0150F822408B409C4340F822400F
:20050000FFF765FFBDE8FF8158090000000000200CED00E00400FA050006004014480168F4
:200520000029FCD07047134A0221116010490B68002BFCD00F4B1B1D186008680028FCD0ED
:200540000020106008680028FCD07047094B10B501221A60064A1468002CFCD0016010689D
:200560000028FCD00020186010680028FCD010BD00E4014004E5014008208F490968095895
:20058000084710208C4909680958084714208A490968095808471820874909680958084795
:2005A00030208549096809580847382082490968095808473C208049096809580847402012
:2005C0007D4909680958084744207B49096809580847482078490968095808474C20764976
:2005E000096809580847502073490968095808475420714909680958084758206E4909689E
:20060000095808475C206C490968095808476020694909680958084764206749096809587F
:200620000847682064490968095808476C20624909680958084770205F4909680958084764
:2006400074205D4909680958084778205A490968095808477C2058490968095808478020E5
:20066000554909680958084784205349096809580847882050490968095808478C204E49B5
:2006800009680958084790204B4909680958084794204949096809580847982046490968B5
:2006A000095808479C204449096809580847A0204149096809580847A4203F490968095897
:2006C0000847A8203C49096809580847AC203A49096809580847B02037490968095808477C
:2006E000B4203549096809580847B8203249096809580847BC203049096809580847C020BD
:200700002D49096809580847C4202B49096809580847C8202849096809580847CC202649F4
:20072000096809580847D0202349096809580847D4202149096809580847D8201E490968CC
:2007400009580847DC201C49096809580847E0201949096809580847E420174909680958AE
:200760000847E8201449096809580847EC201249096809580847F0200F4909680958084793
:20078000F4200D49096809580847F8200A49096809580847FC2008490968095808475FF461
:2007A00080700549096809580847000003480449024A034B70470000000000206809000060
:2007C0006809000040EA010310B59B070FD1042A0DD310C808C9121F9C42F8D020BA19BAF8
:2007E000884201D9012010BD4FF0FF3010BD1AB1D30703D0521C07E0002010BD10F8013B2E
:2008000011F8014B1B1B07D110F8013B11F8014B1B1B01D1921EF1D1184610BD02F0FF0343
:2008200043EA032242EA024200F005B87047704770474FF000020429C0F0128010F0030C65
:2008400000F01B80CCF1040CBCF1020F18BF00F8012BA8BF20F8022BA1EB0C0100F00DB88D
:200860005FEAC17C24BF00F8012B00F8012B48BF00F8012B70474FF0000200B513469446BC
:200880009646203922BFA0E80C50A0E80C50B1F12001BFF4F7AF090728BFA0E80C5048BF7C
:2008A0000CC05DF804EB890028BF40F8042B08BF704748BF20F8022B11F0804F18BF00F8E8
:2008C000012B7047014B1B68DB6818470000002009480A497047FFF7FBFFFFF713FC00BD97
:2008E00020BFFDE7064B1847064A1060016881F30888406800470000680900006809000087
:200900001D030000000000201EF0040F0CBFEFF30881EFF30981886902380078182803D11D
:2009200000E00000074A1047074A12682C3212681047000000B5054B1B68054A9B5898478C
:2009400000BD000005030000000000205409000004000000001000000000000000FFFFFF44
:040960000090D00330
:2010000048120020D1E001006D9F000041E001006D9F00006D9F00006D9F00000000000052
:2010200000000000000000000000000029E101006D9F0000000000006D9F00006D9F000081
:2010400091E1010097E101006D9F00006D9F00006D9F00006D9F00006D9F00006D9F00005C
:201060009DE101006D9F00006D9F0000A3E101006D9F0000A9E10100AFE10100B5E1010095
:201080006D9F00006D9F00006D9F00006D9F00006D9F00006D9F00006D9F00006D9F0000F0
:2010A000BBE10100C1E101006D9F00006D9F00006D9F00006D9F00006D9F00006D9F0000A8
:2010C000C7E101006D9F00006D9F00006D9F00006D9F00006D9F00006D9F00006D9F000013
:2010E0006D9F00006D9F00006D9F00006D9F00006D9F00006D9F00006D9F00006D9F000090
:201100006D9F00006D9F000000F002F81CF0CDFF0AA090E8000C82448344AAF10107DA4578
:2011200001D11CF0C2FFAFF2090EBAE80F0013F0010F18BFFB1A43F001031847BCD5010080
:20114000DCD501000A4410F8014B14F00F0508BF10F8015B240908BF10F8014B6D1E05D050
:2011600010F8013B6D1E01F8013BF9D1641E03D0641E01F8015BFBD19142E4D37047000068
:201180000023002400250026103A28BF78C1FBD8520728BF30C148BF0B6070471FB500F062
:2011A0003DF88DE80F001FBD1EF0040F0CBFEFF30880EFF30980014A10470000BF9D0000DB
:2011C0008269034981614FF00100104470470000D511000001B41EB400B511F043F901B497
:2011E0000198864601BC01B01EBD0000F0B44046494652465B460FB402A0013001B50648B5
:20120000004700BF01BC86460FBC8046894692469B46F0BC70470000091100001CF042BF9C
:2012200070B51C4C054608202070A01C00F065F85920A08029462046BDE8704007F01CB887
:2012400010B507F024F813490020891E087010BD70B50C460F49891E097829B1A0F160018B
:20126000532906D3012011E0602802D043F201000CE020CC084E94E80E0006EB8000A0F5B9
:201280008050241FD0F8806E2846B047206070BD012070470A00002014E2010010B504466B
:2012A0000021012000F03FF80021182000F03BF800210B2000F037F80421192000F033F865
:2012C00004210D2000F02FF804210E2000F02BF804210F2000F027F80421C84300F023F8A1
:2012E0000721162000F01FF80721152000F01BF82046FFF795FF002010BD8C210180704767
:20130000FFF79EBF10487047104A10B514680F4B0F4A08331A60FFF79BFF0C48001D046003
:2013200010BD704770474907090E002806DA00F00F0000F1E02080F8141D704700F1E020C2
:2013400080F800147047000003F90043100502400100000130B5F74D044610280AD0112CF0
:2013600006D02846122C817806D0132C08D0FFDFAC7030BDFFDFFBE71129F9D0FFDFF7E79F
:201380001129F5D0FFDFF3E770B50FF05AFA044610F030FE201AC4B206200DF02DFC05465F
:2013A00006200DF031FC2E1A07200DF025FC054607200DF029FCDF49281A321888781228CE
:2013C0000DD000231A4413280BD0002002440878022808D000201044201AC0B270BD012340
:2013E000F0E70120F2E70120F5E7D24800B50079D049420897B051F8050F89880CD01722AA
:201400008DF80020CDF80200ADF806100BA968460AF02BFF17B000BD4022F1E702210DF041
:2014200040BC2DE9F04196B01D4690460E460746FFF7F4FF04000BD02078222804D3A07FA9
:20144000C0F34010A84206D1082016B0BDE8F08143F20200F9E745208DF80000ADF80270AC
:201460003DB101208DF804008DF805608DF8068002E000208DF804000BA968460AF0F5FE05
:20148000A07F65F34510A0770020DEE730B50446A1F120000D460A284AD2DFE800F005073F
:2014A0000C1C2328353A3F44FFDF42E0207820283FD1FFDF3DE09F480178032939D080784F
:2014C000132836D02078242833D0252831D023282FD0FFDF2DE0207822282AD0232828D83A
:2014E000FFDF26E02078222823D0FFDF21E0207822281ED024281CD026281AD0272818D0DD
:20150000292816D0FFDF14E02078252811D0FFDF0FE0207825280CD0FFDF0AE020782528C1
:2015200007D0FFDF05E02078282802D0FFDF00E0FFDF257030BD30B50B8840F67B444FF687
:20154000FF72022801D0934204D09D1FA54224D2022802D04D88954203D04D88AD1FA542DA
:201560001BD24C88A34218D88B88B3F5FA7F14D2022802D0C888904205D0C88840F6774586
:201580000A38A84209D2C888904208D0944206D05B1C6343B3EB800F01DB072030BD002044
:2015A00030BD70B514460D46064611F0C9F960B90DB1A54201D90C2070BD002409E000BFA0
:2015C00056F8240011F0BCF908B1102070BD641CE4B2AC42F4D3002070BDF0B50024059D4A
:2015E00010B1A94203D851E009B90020F0BD0920F0BD055D8DB107197E78112E3FD00FDCDF
:201600000A2E3CD2DFE806F03B1624242A2A2C2C3333025D72BB641CE4B28C42F9D3E4E715
:201620001D2E2CDAA6F11206042E28D2DFE806F027271018022DDAD1BD781D70072D01D2A8
:201640006D0701D40A20F0BD157845F0010515E0EE43F60707E0012D07D010E00620F0BDD0
:201660002E07A6F18056002EF5D06046F0BD1578AE0701D50B20F0BD45F002051570055D6F
:20168000641C2C44E4B28C4202D9B0E74FF4485C8C42AED3A9E710B50278540809D0012227
:2016A00043F20223012C07D0022C0DD0032C13D10FE00020087005E080790324B4EB901FD4
:2016C0000AD10A70002010BD8079B2EB901F03D1F7E780798009F4D0184610BD154A917BF5
:2016E00039B1D17B022908D0032908D043F2022070470146101D01F03FBB032100E001211A
:2017000001700020704738B50C460546694601F033FB00280DD19DF80010207861F347004B
:20172000207055F8010FC4F80100A888A4F80500002038BDB401002038B51378C0B1022831
:2017400016D0F6A46D46246800944C7905EB9414247864F34703137003280ED003F0FE001F
:2017600010700868C2F801008888A2F8050038BD23F0FE0313700228EED1D8B240F00100DF
:20178000EEE730B50C46097897B0222902D2082017B030BD28218DF80010ADF80200132AB8
:2017A00003D03B2A01D00720F2E78DF804200BA968460AF05AFD050003D121212046FFF74D
:2017C00065FE2846E4E700B597B023218DF80010ADF802001088ADF804005088ADF806002D
:2017E000D088ADF80A009088ADF808000020ADF80C00ADF80E000BA968460AF036FD09E61B
:201800002DE9FF470220C64E8DF804000027708AADF80600B84643F202094DE001A80DF0D0
:20182000AAF9050006D0708AA8B3A6F81280ADF806803FE0039CA07F01072DD504F124007A
:201840000090A28EBDF80800214604F1360301F0A2FF050005D04D452BD0112D3DD0FFDF54
:201860003BE0A07F20F00800A077E07F810861F30000C10861F34100E07794F8210000F071
:201880001F0084F820002078282827D129212046FFF7FCFD22E015E040070BD5BDF8080033
:2018A000214604F10E02FFF78EFF05000DD04D4510D100257F1CFFB202200DF09DF9401C62
:2018C000B842ABD8052D12D008E0A07F20F00400A07703E0112D00D0FFDF0025BDF8060096
:2018E0007082052D05D0284604B0BDE8F087A6F812800020F8E72DE9F047040000D1FFDF82
:201900002078874E20F00F00801C20F0F0007030207060680178091F1429E6D2DFE801F059
:20192000F00A0B4FEF0B0CEFEF36F00B0BF074F00B0BF0F0FFDFD8E787883846FFF76EFD5E
:20194000050000D1FFDF6078212140F008006070707C40F0040070742846FFF797FD384637
:2019600007F0C2FA384603F092FF384605F01DF83946022010F0A1FFA87F20F01000A87783
:20198000FFF73EFF0028B0D0FFDFAEE785882846FFF744FD00B9FFDF60688078012800D0F7
:2019A000FFDF60688179284607F00EFC00289CD0617841F0080161706168C88095E7868805
:2019C0003046FFF72BFD050000D1FFDF6078314640F0080060706068C0882881606800895E
:2019E000688160684089A881022010F066FF0020A875A87F00F0030002289CD1FFF700FFDA
:201A0000002898D0FFDF70E780783C2803D0002502280AD000E00125002720B13C2802D075
:201A2000022800D0FFDF17B1A3E00127F5E76078002D40F008006070707C40F0080070746A
:201A40006BD165680221B5F80480AD1C474638460DF01EF90446032138460DF019F982467E
:201A6000052138460DF014F98146042138460DF00FF9074604B9FFDFBAF1000F00D1FFDFF8
:201A8000B9F1000F00D1FFDF07B9FFDF22212046FFF7FCFC2879012833D00227A07F06216D
:201AA00067F30100A077288B2081688B6081A88BA08105F1120001F096F920B36879800775
:201AC00000D5FFDF6979E07D61F34700E075D5F80600A0616889A083062105F10C0001F022
:201AE00082F9F8B130794108607861F347006070D6F80500C4F80200B6F809001BE045E025
:201B000049E00127CAE7E07D20F0FE00801CE075D5F81200A061E88ADDE71DE00302FF014F
:201B2000B4010020607820F0FE00801C6070E868C4F80200288AE080FE48007884F8220002
:201B4000A07F00F00301404607F0C0F9012F03D0022F0ED0FFDFC8E63078032800D0FFDF1D
:201B60000021084610F0A9FEBDE8F047012001F0DDB8B078132800D0FFDF0021072010F073
:201B80009CFEBDE8F0471120FFF7E4BB2046BDE8F04702F0D3B8607840F008006070A4E6E0
:201BA0002DE9F04705460078914600270209DFF888A30C463E46012A75D000214FF6FF70EF
:201BC000022A71D0072A0AD00A2A6ED0FFDF00BFA9F800600CB127806680002085E6D5F8DB
:201BE00004C004F1080204F118089CF80060361F142E5AD2DFE806F09859594559590A59F5
:201C0000593C5A5959C263FA59594DE811270926002C7CD0BCF80480A4F80480686880791D
:201C200020729AF81110404621F004018AF8111004210DF048F8052140460DF044F80021B8
:201C400040460DF040F8012140460DF03CF8032140460DF038F8022140460DF034F8062120
:201C600040460DF030F8072140460DF02CF8AFE701270926F4B3BCF80400A08068688079B5
:201C80000FE012271026BCF80400214601F08CF89EE71C2709266CB3BCF80200A080686896
:201CA0000079207294E7B5E0DFE004E11B27092604B30420207268684088A08088E79CF8CC
:201CC00002003C2826D0102718260CF1020C8CB1BCF80200A080BCF818006082BCF818009B
:201CE0002082BCF81A00A082BCF81C00E0829CF8050000E00BE00CF10601FFF71DFD9CF814
:201D0000040010B10120E07309E00220FBE7A9F8006062E71B270926002CF8D021729AF8C9
:201D2000111021F00801B2E01D273726002CEED0A08069680879491DFFF7FEFC686890F82B
:201D40002B00A0756868C0780428E07D13D020F00100E07569681F22C97861F34200E0752B
:201D60006968C97A61F3C700E075696840460C311CF09AF82CE740F00100EAE71D273726F7
:201D8000002CC4D0A0806968481D0B7901461846FFF7D2FC696804F10F0201F10C00CB7A26
:201DA00001461846FFF7C8FC6868807CA0756868C178E07D61F3420020F0F900E0751F2149
:201DC00040461CF00AF903E720271026002C9ED0A080686804F10902407A20726968CB1C79
:201DE00088781946FFF7A8FCF2E6FFE704271026002C8CD0BCF80200A080686880882081F4
:201E00006868C088608168680089A08168684089E081DDE6287A012803D0022814D0FFDF08
:201E2000D6E61F271026002CABD06888A08068892081A8896081E889A081288AE0819AF8D8
:201E4000111021F0200122E012271026688800F0ABFF002C95D0687800F00700032889D147
:201E60009AF8111021F0020111E02A7A062A29D2DFE802F00310102121211B270926002CFF
:201E8000A5D0A08021729AF8111021F001018AF811109DE61B270926002C98D0A080287A67
:201EA000012806D0032020729AF8111021F01001EDE70220F7E74A4621462846BDE8F04784
:201EC00002F0B7B8FFDF83E610B51B4896B08078132802D0082016B010BD22208DF8000065
:201EE0000BA968460AF0C1F904460021072010F0E4FC2046EFE700B50F4897B08078122899
:201F000001D008207BE41E208DF8000000208DF802008DF803000BA968460AF0A6F9002854
:201F2000F0D10021072010F0C8FC1120FFF712FA002064E410000020B401002000B5F9483E
:201F400097B00078012814D01B208DF8000000208DF802000BA968460AF087F9002807D172
:201F60000021084610F0A9FC012000F0DFFE002045E4082043E42DE9F041EA4C002740B132
:201F800002281DD0072842D0082800D0FFDFBDE8F081FFF7D3FF0028F9D106F0B4F8002871
:201FA000F5D0017821F00F01891C21F0F00120310170077206F087F8607C40F001001DE061
:201FC0008EB23046FFF72AFA050000D1FFDF28782128DCD006F097F890B1017821F00F0188
:201FE000891C21F0F00110310170022101724680AF7506F068F8607C40F002006074C6E723
:2020000029463046BDE8F0411322FFF7BABBA578122D03D0132D04D0FFDFB8E7FFF76BFF45
:2020200001E0FFF751FF0028B1D106F06CF80028ADD0017821F00F01891C21F0F00120313E
:202040000170122D07D00221017206F03CF8607C40F01000D2E70121F6E72DE9F0411446C4
:202060000D00074600D1FFDF2878012803D0022821D0FFDF8BE73846FFF7D0F9060000D13C
:20208000FFDF0220B075207820F00F00801C20F0F00010302070607840F008006070286888
:2020A000A0606868E060288920829E48417C41F0200141746BE73846FFF7B0F9060000D1CD
:2020C000FFDF69884FF6FF70814209D1AA88824206D131463846BDE8F0411322FFF751BB11
:2020E000814201D1A88898B1207820F00F00801C20F0F00010302070607840F008006070CF
:202100002868A0606868E06028892082002006E0782300223946022010F032FB0120B075F5
:2021200035E730B5054697B00C46084610F008FC80BB00200121203D072D6ED2DFE805F05E
:2021400004264145515D67000021082010F08EFB10B1112017B030BD24208DF80000D4F8AD
:202160000200CDF80200A0798DF806000BA968460AF07BF8050056D10823002211461846F5
:2021800010F0FEFA08284ED0FFDF4CE0606810F019FC08B11020DDE748208DF800002088D0
:2021A000ADF802006088ADF804000BA968460AF05CF8050037D1606880B3BDF830100180B9
:2021C00031E0206802F0D6F909E049220AE000BF8DF802100CE000BF8DF8020008E00546AC
:2021E00021E042228DF800202278D207F4D0EFE70BA968460AF039F8F1E738208DF8000086
:202200002088ADF802006088ADF80400F0E7207828B1A0F11B01E12902D3072503E01B20C0
:20222000414900250870284694E730B5054697B00C46084610F0A8FB08B110208AE7202D2D
:2022400007D0212D25D0222D23D0232D21D0072080E72088FFF7E2F820B10078222804D272
:20226000082077E743F2020074E725208DF800002088ADF802000BA9684609F0F6FF0028B5
:20228000DCD1DDF83210C4F802109DF83610A17160E706205EE72348001D704721490874E8
:2022A00070472048007C00F00100704738B514211C481BF070FE012000F038FD1120FFF76F
:2022C00049F81949FB20174C0870611D684605F0E2FF9DF80010207961F3470020F0010079
:2022E00020710020A0734FF46170A0810220E073FFF77BF800B1FFDF00F08EFE01F0D9FC36
:2023000038BD10B50C463E2120461BF044FEA07F20F00300A077202020700020A07584F8D5
:20232000230010BDB40100201000002070477CB5054610F005FB08B110207CBDFE4C211DCB
:2023400060680090A06801902846FFF7DCF90028F3D1FFF74AF80028EFD000996160BDF839
:20236000041021819DF80610A1727CBD10B5044610F00AFB08B11020D3E7EF4922460879D8
:20238000491D4008FFF7D8F90020CAE72DE9F0479CB00D4604004FF0000812D00822FFF7BE
:2023A00000F900281CD1002609E000BF54F8260004A9FFF770F9002812D1761CF6B2AE428E
:2023C000F4D32F460A2006AD0DF1440A8DF8180026465146284609F048FF20B143F2032021
:2023E0001CB0BDE8F0874046DFF84C8388F803002EB300244FF00B091DE000BF56F82400C0
:2024000005A9FFF748F900B1FFDF9DF81400A87056F8240050F8011FC5F803108088A5F838
:20242000070085F800905146284609F01EFF00B1FFDF641CE4B2BC42E0D388F80370002004
:20244000CEE72DE9F0479EB01546894604001ED00F4608222946FFF7A4F8002811D1002660
:2024600013E000BF54F8260005A9103000F084FC002806D13FB157F8260010F061FA10B15A
:2024800010201EB0ADE7761CF6B2AE42EAD30026A5F101081CE000BF06F1010A0AF0FF0741
:2024A00012E000BF54F82600017C4A0854F827100B7CB2EB530F05D10622113011311BF095
:2024C000C7FCC0B17F1CFFB2AF42EBD30AF0FF064645E1DBC8462F46342007AD0DF14809AD
:2024E0008DF81C0026464946284609F0BEFE28B143F20420C5E743F20520C2E796B30024CF
:202500002CE000BF56F82400A91C103000F034FC00B1FFDF56F82400102250F8111FC5F8F1
:2025200003108088A5F8070056F8241005F109001BF0BAFCB8F1000F15D058F82410102247
:2025400005F119001BF0B0FC322028704946284609F08BFE00B1FFDF641CE4B2BC42D1D305
:20256000012206E004E005F1190001F0F7FFEBE700224946284600F02AFC002081E770B5C4
:2025800096B0044610F0DCF918B9606810F023FA10B1102016B070BD60884AF2B811884285
:2025A00005D82078644D6E4618B1012804D00720F0E7FEF71AFF1AE06078022804D0032874
:2025C00002D043F20220E5E7E87317208DF80000E97B0020CDF80200ADF80600022932D0CC
:2025E00003292DD0FFDF0BA9684609F03EFE0028D0D1606801F0A5FF207870B101208DF8B8
:202600000200F01C01F0AAFF4B208DF800000BA9684609F02AFE00B1FFDF6088A8B1A881A6
:2026200080B2ADF8020030208DF800000BA9684609F01BFE00B1FFDF2078A8730020A9E786
:202640008DF80700CFE74020FAE74FF46170E6E710B5044610F098F920B9606838B110F0EC
:20266000B1F908B110205CE6606801F077FF324881896180C17B6170807B2070002050E603
:202680002DE9F0419CB0054600208DF864008DF860008DF830008DF868001E461446884640
:2026A000284610F098F918B9204610F094F910B110201CB06BE455EA040018D01F270CAB23
:2026C00019AA414628460097FEF787FF0028F0D11AAB18AA314620460097FEF77EFF0028B2
:2026E000E7D19DF86000C00703D00A20E1E70720DFE701AF7DB11A208DF804008DF8068008
:2027000042462946F81C1BF0CFFB0DA901A809F0ACFD0028CDD194B120208DF804008DF87F
:20272000066032462146F81C1BF0BEFB0DA901A809F09BFD002801E0B4010020B9D1FF49DC
:202740009DF8300048700020B3E72DE9F0439BB04FF00008FAA104468DF83480D1E900018E
:20276000CDE91901204610F0EBF890B92078012803D1606810F0E4F858B9F04D4FF0010927
:20278000A87B50B1E87B022807D1606810F023F918B110201BB0BDE8F0832878012801D056
:2027A0000820F7E707200CF02FFA18B9207848B1012807D0FEF7E8FD30B1687C10F00C0FAB
:2027C00008D103E01220E5E71320E3E7C10701D1800701D51120DDE7608943F6E172A0F150
:2027E00020019142217807D301297CD100287AD1A189002977D10FE0022901D0032901D104
:20280000A02870D3012907D06978C90704D0A189002968D0B42966D8217831B1012908D004
:20282000022904D003295ED10AE0002609E0022607E008B9A08908B1042609E0012607E072
:202840000326A87B50B1E87B022807D1606828B10DA96068FEF71FFF00289BD1207A30B185
:20286000012806D0022806D003286DD105E0002704E0012702E0022700E003270EB1022ED4
:202880000ED16FB1E87870B36878800702D043F201207FE7022E03D1022F55D0032F53D012
:2028A00018208DF838006089ADF83A006089ADF83C008DF83E600DF13F00FEF70FFF00B17D
:2028C000FFDF9DF834008DF840002078012806D0A87B68B1E87B02280AD1606840B16068D0
:2028E00050F8011F00E02FE0CDF84110808802E04046CDF84180ADF845008DF84870A07B33
:20290000C0F34002014662F35F01C0F3800041EA800019A9085C8DF84700A8B169460EA838
:2029200009F0A3FC0028B4D11B208DF838008DF83A9069460EA809F098FC0028A9D19DF8E2
:2029400001001B2819D101E0072023E7052E09D2DFE806F0030305050300032000E0022034
:2029600000F0E4F9012E0AD0A08940B100228300114610460FF004FF08B103200AE7002026
:2029800008E72DE9FC4107460D460326084610F022F8002864D13846FEF740FD040005D0DE
:2029A0002078222805D20820BDE8FC8143F20200FAE7A07F00F0030C2DB129466046FEF7F6
:2029C000BAFD0600F0D15D48BCF1010F05D0BCF1020F17D0FFDF3046E6E7A27D2946012AC3
:2029E00002D0407C800701D51120DDE729B9684600F01FFC0028D7D16946384606F067FB07
:202A00000646E8E7A17D022914D1407C800611D425B1A07F40070BD4002100E0012138468A
:202A200006F09DFB0600D6D1A075002DD3D002E01126D0E7A5B12A4621463846FEF7C3FE45
:202A400006461128C7D1A07F4107C4D4296844F80E1F6968616040F0040020740026BAE73F
:202A60001020A1E770B50C460546FEF7D7FC010005D022462846BDE87040FEF782BE43F2A9
:202A8000020070BD00B597B03F218DF800108DF802000BA9684609F0E8FB17B000BD0123A9
:202AA000FEF7BFBC00231A461946FEF7BABC30B597B004460FF044FF10B1102017B030BDFC
:202AC000204600F047F90028F8D11C4DA878112801D00820F2E7FEF757FC20B1687CC00618
:202AE00003D51120EAE71320E8E72078800701D5E87848B31D208DF800002078022200F03C
:202B000001008DF802006088ADF80400A088ADF806002078C0F3400102EA500001438DF838
:202B2000091002A8FEF7DAFD00B1FFDF0BA9684609F09BFB0028C1D11E2006E0B4010020D3
:202B4000070605040302010017E08DF8000001208DF8020000208DF803000BA9684609F032
:202B600084FB0028AAD1E08800F010F90400A5D11220FEF7EFFB2046A0E707209EE7F0B509
:202B800097B015460C4607460FF025FF38B920460FF0D6FE18B928460FF0D2FE10B11020A8
:202BA00017B0F0BD974E707C10F0180F01D1400701D51120F4E7204600F0CCF80028EFD1AC
:202BC00029460220FEF7B7FC0028E9D1B078112803D0122801D00820E2E72078C0F340011E
:202BE000394311D0800700D577B906200CF00CF840B12078800701D5F07828B1B07812283D
:202C000004D007E01220CBE70720C9E7FFF773F90028C5D1FEF7B8FB022801D21320BFE7A0
:202C200021208DF800006088ADF80200A088ADF804002078C0F340008DF806002078800739
:202C400016D43878420808D0012A18D043F20221022A18D0032A18D115E0C00700D0022075
:202C60008DF8070057F8010F0290B888ADF80C000DF10E00FEF732FD58B1032090E7C0074C
:202C800005D00320ECE7C00701D0084688E70120E6E72888ADF810006888ADF81200A888EA
:202CA000ADF81400E888ADF816000020ADF81800ADF81A000BA9684609F0D7FA00288BD1E4
:202CC000E08800F063F8040086D11320FEF742FB204665E730B5054697B00C4608460FF0B9
:202CE00053FE08B11020E9E62846FEF797FB38B10178222902D3807F800604D40820DDE60C
:202D000043F20200DAE613208DF80000ADF802500BA9684609F0A9FA0028E4D19DF932105A
:202D20007F2901D02170C9E60520C7E630B5354D040008D0012C04D0022C06D0032C04D0BD
:202D4000FFDF2C7030BDFFDFFBE728780128F8D0FFDFF6E7418843F6FD730A1F9A4209D2AE
:202D60008088042806D3B0F5804F03D8884201D800207047072070470278520804D0012ACC
:202D800002D043F202207047FEF785BC10B548B183000022114607200FF0F2FC072801D04F
:202DA000032060E400205EE470B50C0006460DD0FEF734FB050000D1FFDFA68028892081A0
:202DC000288960816889A081A889E08170BD10B502F0010282703122027009F046FA0028BE
:202DE00000D0FFDF3FE410B500231A4603E0845C2343521CD2B28A42F9D30BB1002032E415
:202E0000012030E4B40100204FF0E0224FF400410020C2F880112049087020499002086034
:202E2000704730B51C4D04462878A04218BF002C02D0002818BFFFDF2878A04208BF30BDD9
:202E40002C701749154A0020ECB1164DDFF858C0131F012C0DD0022C1CBFFFDF30BD086090
:202E600003200860CCF800504FF400001060186030BD086002200860CCF800504FF04070A6
:202E80001060186030BD086008604FF06070106030BD00B5FFDF00BD1A00002008F5014059
:202EA00000F500401C03002014F50040094810B504680A49084808600EF0FDF90848046020
:202EC00010BD0849002008604FF0E0210220C1F88002704710050240010000011805024040
:202EE00014050240FC1F004010B50D2000F06FF8C4B26FF0040000F06AF8C0B2844200D0A0
:202F0000FFDF3A490120086010BD70B50D2000F048F8374C0020C4F800010125C4F80453DF
:202F20000D2000F049F825604FF0E0216014C1F8000170BD10B50D2000F033F82C48012170
:202F400041600021C0F80011BDE810400D2000F033B8284810B504682649274808310860C9
:202F60002349D1F80001012804D0FFDF2148001D046010BD1D48001D00680022C0B2C1F852
:202F800000210FF0A8F9F1E710B51948D0F800110029FBD0FFF7DDFFBDE810400D2000F0C1
:202FA0000BB800F01F02012191404009800000F1E020C0F88011704700F01F02012191408C
:202FC0004009800000F1E020C0F880127047002806DA00F00F0000F1E02090F8140D03E0B2
:202FE00000F1E02090F800044009704704D5004000D0004010050240010000017047704764
:2030000018FFFFFFDBE5B15100F001008C00FFFF84000000C0C62D00FE48002101604160BE
:2030200070472DE9F743044692B091460120FFF735F960680FF0C6FC58B160680FF0CBFCC1
:2030400038B9607800F00300022802D10020FFF725F94D4648460FF073FC18B1102015B036
:20306000BDE8F08329460120FEF765FA0028F6D101258DF842504FF4C050ADF840000022CE
:2030800010A9284603F035FF0028E8D18DF842504FF42850ADF8400000261C21684607969C
:2030A0001AF09BFF9DF81C0007AF20F00F00401C20F0F00010308DF81C0020788DF81D006F
:2030C00061789DF81E000DF1400861F3420040F001008DF81E009DF8000008AA40F002003B
:2030E0008DF800002089ADF83000ADF832606089ADF834000B9760680E900AA9CDF82880AC
:20310000684603F0F5FC0028A9D1C24CBDF8200008AA20808DF8425042F60120ADF84000F1
:203120009DF81E000AA920F00600801C20F001008DF81E000220ADF83000ADF8340013A838
:203140000E90684603F0D4FC002888D1BDF820006080211D484600F032F9002887D18DF83E
:20316000425042F6A620ADF840001C21684607961AF033FF9DF81C00ADF8345020F00F001D
:20318000401C20F0F00010308DF81C009DF81D0008AA20F0FF008DF81D009DF81E000AA977
:2031A00020F0060040F00100801C8DF81E009DF800008DF8445040F002008DF80000CDE96E
:2031C0000A8711A80E90ADF83050684603F090FC002899D1BDF82000E08000203FE73EB5B5
:2031E00004460820ADF8000020460FF0A9FB08B110203EBD21460120FEF79DF90028F8D1C7
:203200002088ADF804006088ADF80600A088ADF80800E088ADF80A007E4801AB6A468088B4
:20322000002104F061F8BDF800100829E1D003203EBD1FB50446002002900820ADF80800B6
:20324000CDF80CD020460FF07BFB10B1102004B010BD704802AA81884FF6FF7004F029FA48
:203260000028F4D1BDF80810082901D00320EEE7BDF800102180BDF802106180BDF80410C3
:20328000A180BDF80610E180E1E701B582B00220ADF800005F4802AB6A464088002104F089
:2032A00023F8BDF80010022900D003200EBD1CB5002100910221ADF8001001900FF064FBFB
:2032C00008B110201CBD53486A4641884FF6FF7004F0EFF9BDF800100229F3D003201CBDD9
:2032E000FEB514460E460746FEF7DBFF28B130460FF026FB18B11020FEBD0F20FEBDF82C20
:2033000001D90C20FEBD38460FF01AFB414D18BB288801A903F05BF90028F3D138788DF837
:203320000500288801A903F0C1FF0028EAD100909DF800009DF8051040F002008DF8000012
:20334000090703D040F008008DF800002888694603F04AFF0028D5D1ADF80840288833464E
:2033600002AA002103F0C0FFBDF80810A142C9D00320FEBD7CB5054600200090019008885A
:20338000ADF800000C46284601950FF01BFB18B920460FF0F9FA08B110207CBD15B1BDF857
:2033A000000050B11B486A4601884FF6FF7004F080F9BDF8001021807CBD0C207CBD30B566
:2033C00093B0044600200D460090142101A81AF004FE1C2108A81AF000FE9DF80000CDF824
:2033E00008D020F00F00401C20F0F00010308DF800009DF8010020F0FF008DF801009DF8F5
:20340000200040F002008DF8200001208DF8460002E000001200002042F60420ADF8440070
:2034200011A801902088ADF83C006088ADF83E00A088ADF84000E088ADF842009DF80200FB
:2034400006AA20F00600801C20F001008DF802000820ADF80C00ADF810000FA8059001A9EE
:2034600008A803F045FB002803D1BDF818002880002013B030BD000010B504460FF060FAC0
:2034800008B1102010BD2078C0F30210042807D86078072804D3A178102901D8814201D26F
:2034A000072010BDE078410706D421794A0703D4000701D4080701D5062010BD002010BD3B
:2034C00010B513785C08C37F64F30003C3771478A40864F34103C3771078C309887863F3AB
:2034E0004100887013781C094B7864F347134B701378DB0863F3000088705078487110BDAA
:2035000010B5C4780B7864F300030B70C478640864F341030B70C478A40864F382030B7055
:20352000C478E40864F3C3030B700379117863F30001117003795B0863F34101117003797A
:203540009B0863F3820111700079C00860F3C301117010BD70B514460D46064604F0D3FDE6
:2035600080B10178142221F00F01891C21F0F001A03100F8081B21461AF0DBFCBDE870401A
:2035800004F0A1BD29463046BDE870401322FEF7F8B870B514460E46054604F0B4FD70B1E1
:2035A000017821F00F01891C21F0F00120310170458021688160BDE8704004F084BD3146D8
:2035C0002846BDE870401322FEF7DBB810B5FE4C94F8300000280CD104F120014FF6FF72CF
:2035E000A1F110000CF0A3FF00B1FFDF012084F8300010BD2DE9F047064608A8894690E8D2
:2036000030041F469046142128461AF0E6FC0021CAF80010B8F1000F03D0B9F1000F03D1A1
:2036200014E03878C00711D020680FF0ADF9E8BBB8F1000F07D120681230286020681430C0
:2036400068602068A8602168CAF800103878800728D560680FF0B6F940BBB9F1000F2DD05C
:20366000FEF719FE0168C6F8B4118188A6F8B811807986F8BA01FFF7A9FFDFF84C8308F173
:203680002008C5F80C80626862B196F8B40106F2B51140081032FEF74FF810224146606894
:2036A0001AF002FC3878400712D500E003E0A0680FF06AF950B11020BDE8F08760680028BA
:2036C000F9D0E8606068C6F8B001EBE7A06828610020F1E730B5054608780C4620F00F0026
:2036E000401C20F0F001103121700020607095F8230030B104280FD0052811D0062814D0EF
:20370000FFDF20780121B1EB101F04D295F8200000F01F00607030BD21F0F000203002E0C4
:2037200021F0F00030302070EBE721F0F0004030F9E710B510B190F8A94044B1A24890F817
:20374000354000205CB108601060186010BD00F1A8040C6000F1D001F8301160F5E79A4C84
:2037600034340C60F0E700B58BB00723CDE902128DF80130019194490023643105910993AB
:2037800001468DF8103068460CF0A9FE002800D0FFDF0BB000BD30B597B00C462C251A99FC
:2037A0008DF80050ADF80200B3B11868019058680290ADF80C2010220DF10E001AF074FB3E
:2037C0000BA9684608F051FD002803D1A17F41F01001A17717B030BD00200190E8E72DE981
:2037E000F0470646008A8CB080B20D468146FDF715FE0446744F3078283FDFF8CC814FF0AE
:20380000000A122873D2DFE800F072E9350936777E98A8F3E7E6E5E4E35BE3E3A07F00F0C8
:203820000300012806D0002148460BF03AFA050003D101E00121F7E7FFDF98F85C10090605
:2038400002D5D8F860000BE0032105F121000EF023FDD5F821005D49B0FBF1F201FB1200ED
:20386000C5F8210070686866B068A8662078252800D0FFDFECE0A07F00F00300012806D02E
:20388000002148460BF00DFA060003D101E00121F7E7FFDF7078810702D52178252904D0DC
:2038A00040F0010070700CB006E70220287096F82000287106F121003136C5E90206F2E73F
:2038C000A07F00F00300012806D0002148460BF0E8F9040003D101E00121F7E7FFDF6078DD
:2038E000C10605D51320287041346C60DBE7DEE140F008006070D6E73348082128380EF0D3
:20390000CBFC032016E02A208DF8000010220DF1020071681AF0C8FA10220DF11200B168C6
:203920001AF0C2FA284968462C3908F09EFC00B1FFDF042028706F60B5E7E07FC00600D5FB
:20394000FFDFB0680090B38806220321484605F024FB0028A7D0FFDFA5E704B9FFDF71683B
:2039600021B1102204F124001AF09EFA28212046FDF78CFDA07F00F0030002280ED104F14C
:203980002400002300901A4621464846FFF703FF112807D029212046FDF778FD307A84F8B4
:2039A000200080E7A07F000700D5FFDF14F81E0F40F008002070A4F816A0C4F818A0C4F824
:2039C0001CA0617808460AE01402002040420F0030E068E196E08CE062E009E03FE061F37A
:2039E0008200410861F3C3006070307AE0705AE7A07F00F00300012806D0002148460BF01F
:203A000050F9040003D101E00121F7E7FFDF022104F175000EF040FC1020287004F5DA70F4
:203A20006860B4F875002882FA486C346C61C5E9028038E7A07F00F00300012805D00021C4
:203A400048460BF02EF918B901E00121F8E7FFDF0CB0324621464846BDE8F0477AE504B904
:203A6000FFDF207821289CD93079012802D002280AD103E0E07F40F01000E07798F85C1094
:203A800041F0010188F85C10324621464846FFF761FD0CB02046BDE8F0472321FDF7F6BC5E
:203AA000327901230321484605F086F878B111202870327905F10800AA80031D0090032179
:203AC000484605F0F6F8002891D0FFDFEBE6A07F00F00300012806D0002148460BF0E1F8A9
:203AE000040003D101E00121F7E7FFDF30792070D9E60321484605F0FDFB002899D11220D4
:203B00002870D0E6A07F00F00300012806D0002148460BF0C6F8050003D101E00121F7E724
:203B2000FFDF95F8740000F00300012878D1A07F00F00307E07FC0F3400616B1012F04D005
:203B40002BE095F89000C0072AD0D5F8AC1119B395F87320087C62F387000874E27FD5F8FC
:203B6000AC1162F341000874D5F8AC1166F300000874AEB1D5F8AC01102204F12401783545
:203B80001AF092F9287E40F001002876287820F0010005F8780900E016B1022F04D02CE034
:203BA00095F87800C00726D0D5F8A81119B395F87320087C62F387000874E27FD5F8A8110E
:203BC00062F341000874D5F8A81166F3000008748EB1D5F8A801102204F1240178351AF0C0
:203BE00063F9287840F0010005F8180B287820F0010005F89009022F51D0002000EB400094
:203C000005EBC00090F87800800709D595F86C00D5F8B021400805F16D011032FDF78CFD8D
:203C2000052060F3070815F8740F00F0030060F30F28287960F31748287F60F31F6875485F
:203C40005C38027822F00F02921C22F0F00220320270427822F00702D21C4270A0F802901E
:203C6000C0F8088004F0B7FB2078252805D0212807D0FFDF2078222803D922212046FDF74B
:203C800005FCA07F00F0030001280AD0002148460BF019F800283FF412AEFFDF03E6012050
:203CA000ACE70121F3E7716881F801A0FBE5FFDFF9E570B5574C0025103C14F85C0F20F026
:203CC0008000207065600CF0D2FB5249A1F1100004F013FB04F82C5C062060724D487C304A
:203CE00020615030A0611030E06170BD70B50D46FDF794FB040000D1FFDF4FF4DE71284666
:203D00001AF06BF943485430686104F124002861A07F00F00300012808D0022105F590708B
:203D20000CF0A6FB002800D0FFDF70BD0121F5E70A46014602F590700CF0BABB70B5054676
:203D400040689CB0017808290DD00B2903D00C2936D101218171686886883046FDF75EFBF0
:203D6000040035D133E046883046FDF757FB040000D1FFDF2078212822D0282822D1686803
:203D800002210C3001F0B8F9E0B168680821001D01F0B2F9B0B12D208DF80000ADF80260A5
:203DA000102204F1240101A81AF07EF80BA9684608F05BFA00B1FFDF29212046FDF766FB4B
:203DC0001CB070BD687840F008006870F8E7FFDFA07F00F00301022902D120F01000A077F5
:203DE000207821280AD06868817909B1807898B1A07F00F0030002285BD0FFDFA07F00F0EF
:203E000003000228DCD1FDF7FBFC0028D8D0FFDFD6E7000024020020687840F0080068703C
:203E2000E07FC10720D0800701D5062000E0052084F823002078292818D02428DED1314601
:203E400006200EF03AFD22212046FDF71FFBA07F00F0030001282AD0002130460AF033FF58
:203E60000028CBD0FFDFC9E70420E1E7A07F00F00300012806D0002130460AF012FF05004D
:203E800003D101E00121F7E7FFDF25212046FDF7FDFA0F208DF8580016A905F590700CF037
:203EA000FEFA0228AAD00028A8D0FFDFA6E70121D3E7687840F0080068709FE72DE9F043C0
:203EC0008BB09946154688460646FDF7A7FA04004ED0207822284BD3232849D0E07FC00613
:203EE00046D4A07F00F00300012806D0002130460AF0D7FE070002D00BE00121F7E7A07F4E
:203F000000F00300012804D1012130460AF0C0FE074601AB02AA03A93846FFF70AFC0398FA
:203F200000B9FFDF4FB1039807F5907787612078222806D0242804D007E003990020886100
:203F400003E025212046FDF7A1FA03980B21417046628580C0E902890299016101994161B1
:203F600004A90CF0BCFA022802D0002800D0FFDF0BB0BDE8F08330B587B00546FDF74EFA9A
:203F8000017822292FD9807F00F00300012806D0002128460AF085FE040003D101E001217D
:203FA000F7E7FFDF227801230321284604F004FE002818D011208DF80400227803A8009060
:203FC000ADF8082004AB0321284604F072FE00B1FFDF01A904F590700CF061FA022802D0EA
:203FE000002800D0FFDF07B030BD10B586B00446FDF714FA0178222919D9807F00F0030058
:20400000012806D0002120460AF04BFE040003D101E00121F7E7FFDF12208DF800006946DA
:2040200004F590700CF03BFA002800D0FFDF06B010BD2DE9F05F05460C4600270078904686
:2040400001093E46BB4604F1080A02297ED0072902D00A2909D142E068680178082905D0D1
:204060000B292CD00C292AD0FFDFC6E114271C26002C6CD04088A080FDF7D0F95FEA000980
:2040800000D1FFDF99F817005246400809F11801FDF752FB68688089208268684168C4F8E5
:2040A00012108068C4F81600A07E20F0060040F00100A07699F81E0040F040014DE01A271B
:2040C0000A26002CD5D08088A080FDF7A7F9050000D1FFDF51462846FFF7FCFA8DE10CB153
:2040E000288BA080287A0E287ED006DC01287CD0022808D0032804D135E0102876D01128A2
:2041000075D0FFDF79E11E270926002CB1D0A088FDF784F95FEA000900D1FFDF287B00F0D4
:2041200003000128207A1BD020F001002072297B890861F341002072297BC90861F3820084
:204140002072297B090961F3C30001E04AE117E1207299F81E0040F0800189F81E104CE12E
:2041600040F00100E2E713270D26002CAAD0A088FDF754F98146807F00F00300012806D011
:204180000021A0880AF08DFD050003D101E00121F7E7FFDF99F81E0000F00302012A59D0C2
:2041A000A86E817801F003010129217A54D021F00101217283789B0863F3410121728378A8
:2041C000DB0863F38201217283781B0963F3C3012172037863F306112172437863F3C71160
:2041E000217284F809B003E05EE0A4E08CE09CE0C178A172012A32D04279E17A62F3000185
:20420000E1724279520862F34101E1724279920862F38201E1724279D20862F3C301E172CB
:204220000279217B62F3000121730279520862F3410121730279920862F382012173007983
:20424000C00860F3C301217399F8000023285AD9262168E0686EA4E741F00101A9E70279AE
:20426000E17A62F30001E1720279520862F34101E1720279920862F38201E1720279D208E6
:2042800062F3C301E1724279217B62F3000121734279520862F3410121734279920862F387
:2042A000820121734079CBE718271026002C67D0A088FDF7B3F88246807F00F003000128FA
:2042C00007D00021A0880AF0ECFC5FEA000903D101E00121F6E7FFDFE868A06099F8010016
:2042E00040F0040189F8011099F80200800708D5012020739AF8000023287ED9272150463A
:2043000063E084F80CB078E015270F26C4B3A088FDF784F8814606225146E86808F00DF877
:204320000120A073AEE048464FE0162709263CB3287B207261E0297BFE4802290CD01927FC
:204340000E26ECB101290DD003291AD004291BD0052919D0FFDF23E01B270926BCB301215D
:20436000217205E001212172617A21F00301617210F85C1F4A08520062F3060101700FE06A
:204380002BE00220207207E0687B052900F00F0040F0800020721BD0607A20F0030060727B
:2043A000A088FDF73BF805460078212825D0232800D0FFDFA87F00F00300012810D0002170
:2043C000A0880AF080FC22212846FDF75FF814E0607A20F00300401CE1E7A8F8006011E04D
:2043E0000121EDE70CB16888A080287A03282BD004280AD005284BD0FFDFA8F800600CB149
:20440000278066800020BDE8F09F15270F26002CE3D0A088FDF702F8807F00F0030001283A
:2044200006D00021A0880AF03CFC050003D101E00121F7E7FFDFD5F821000622514607F0EF
:204440007CFF84F80EB0D8E717270926002CC4D0A088FCF7E3FF8146807F00F003000128DC
:2044600006D00021A0880AF01CFC050003D101E00121F7E7FFDFA878800701D5022000E0F4
:204480000120207299F800002328B6D927214AE719270E26002CA0D0A088FCF7BFFF5FEA53
:2044A000000900D1FFDFC4F808B0A4F80CB084F808B0A07A40F00300A07299F81F1061F3D1
:2044C0008200A07299F81F1001EA510161F3C300A072687A00F0030001288ED1607A40F0BB
:2044E0000400607299F81E00E97A00F00300012813D0607B61F300006073AA7A217B62F3BE
:2045000000012173EA7A520862F341006073A87A400860F3410121736FE7207B61F3000007
:204520002073AA7A617B62F300016173EA7A520862F341002073A87A400860F34101617304
:204540005BE710B57B4C30B10146102204F1200019F0AAFC012084F8300010BD10B50446C6
:20456000FFF734F8734920461022BDE81040203119F09ABC70B56F4C06004FF0000514D012
:204580000EF0DEF908B110250DE00621304607F0BBFE411C06D0206614F85C0F40F080003E
:2045A000207000E00725284670BD14F85C0F20F08000F5E7007810F00F0204D0012A05D084
:2045C000022A0CD110E0000909D10AE00009012807D0022805D0032803D0042801D00720EB
:2045E00070470870002070470620704705282AD2DFE800F003070F171F00087820F0FF001A
:204600001EE0087820F00F00401C20F0F000103016E0087820F00F00401C20F0F000203020
:204620000EE0087820F00F00401C20F0F000303006E0087820F00F00401C20F0F0004030E0
:20464000087000207047072070472DE9F041804688B00D46002708460EF0BDF9A8B9404685
:20466000FCF7DCFE040003D02078222815D104E043F2020008B0BDE8F08145B9A07F0106C1
:2046800003D500F00300022801D01020F2E7A07FC10601D4010702D50DB10820EAE725498C
:2046A00091F85C10C90701D01120E3E7E17FC90601D50D20DEE700F00300022805D125B1A9
:2046C0002846FEF7D9FE0700D4D1A07F00F00300012806D0002140460AF0E3FA060002D08D
:2046E0000CE00121F7E7A07F00F0030001280BD0002140460AF0CCFA060007D0A07F00F065
:204700000300022804D009E00121F2E70420B1E725B12A4631462046FEF7D2FE07AB1A46FE
:2047200069463046FFF705F8009800B9FFDF0C20009901E014020020487006F59070C1F8EA
:204740002480486100200881A07F00F00300012828D0EDB302200871301D8861707840098E
:204760000877B078C0F340004877287800F00102887F62F301008877E27F62F382008877BA
:20478000E27F520862F3C3008877B27862F304108877A878C87701F1210228462031FEF78D
:2047A000AFFE22E001200871287800F00102087E62F3010008762A78520862F38200087672
:2047C0002A78920862F3C30008762A78D20800E007E062F30410087624212046FCF756FEEB
:2047E0000BE0032008710520087625212046FCF74DFEA07F20F08000A07701A900980BF0A2
:204800006EFE022801D000B1FFDF384632E72DE9FF4FF94A0D4699B09A4607CA14AB002731
:2048200083E807001998FCF7F9FD060006D03078262806D008201DB0BDE8F08F43F2020074
:20484000F9E7B07F00F00309B9F1010F03D0B9F1020F07D008E03DB91B98FEF70DFE002875
:20486000E9D101E01B9878BBB07F00F00300012806D0002119980AF014FA040003D101E003
:204880000121F7E7FFDF852D25D007DCD5B1812D1BD0822D1BD0832D08D11AE0862D1CD0D5
:2048A000882D1CD0892D1CD08A2D1CD00F2020710F281AD001208DF83400201D0E902079E3
:2048C000A8B158E10020F2E70FE00120EFE70220EDE70320EBE70520E9E70620E7E708206B
:2048E000E5E70920E3E70A20E1E70720A3E7B9F1010F17D0D4E919508046022001900120F5
:204900000090A87898F80210C0F3C000C1F3C00108405FEA000B5DD050460EF011F80028CF
:204920006CD12DE0D4E919850120019002200090214630461B9AFEF7C3FD1B98007800F00C
:204940000101A87861F30100A870F17F61F38200A870F17F490861F3C300A870A17861F30D
:204960000410A870607840092870A078C0F3400068701B988078E870002068712871C0E733
:20498000DAF80C000DF0DCFFC0BBDAF81C000DF0D7FF98BBDAF80C00A060DAF81C00E060C6
:2049A00098F80100A17800F0010041EA4000A07098F80210C0B2C1F30011891E0840A07009
:2049C000002084F82000009906F1170002290BD001210AE098F80110A07801F00101FD2297
:2049E00042EA41010840E2E7002104EB810188610199701C022902D0012101E028E000216E
:204A000004EB81018861A87800F00300012849D198F8020000F00300012843D1B9F1010F6A
:204A200004D12A1D691D1B98FEF76AFD297998F8040001408DF82C10687998F805201040A7
:204A40008DF8300001432DD050460DF079FF08B11020F0E60AF1100004F5D47104F17C02DA
:204A60000490B9F1020F3CD00090CDE9012100210BAB5A462046FEF7BDFD0028E9D104F50C
:204A8000D67104F19402B9F1010F30D004980090CDE9012100210CAB5A462046FEF7AAFD0C
:204AA0000028D6D1A078800740D4A87898F80210C0F38000C1F38001084337D0297898F8C7
:204AC000000014AAB9F1010F17D032F810204B00DA4012F0030718D0012F1ED0022F12D192
:204AE0001DE0CDF800A0CDE901210121C0E7CDF800A0CDE901210121CDE732F81120430002
:204B0000DA4002F00307032F07D0BBF1000F0DD0012906D0042904D008E00227F5E70127C8
:204B2000F3E7012801D0042800D10427F07F40F001006BF34100F077A07881074FF00300F1
:204B40000CD5A071BBF1000F15D100BF8DF85C0017AA31461998FEF71CFD0CE00221022FEB
:204B600018D0012F18D0042F22D00020A071F07F20F00100F07725213046FCF787FC0DA910
:204B800004F590700BF08BFC10B1022800D0FFDF002050E6A171D9E7A1710D2104F1240080
:204BA00019F01BFA607840F0020060700420CDE70120A071DFE72DE9F04387B09146884608
:204BC0000446FCF72BFC070006D03878272806D0082007B0BDE8F08343F20200F9E7B87F7A
:204BE00000F00300012809D0002120460AF059F8040006D104E0000060E301000121F4E7EE
:204C0000FFDFA679012E08D0B8F1000F0FD048460DF096FEB8B11020DBE7B9F1000F25D1D0
:204C2000B8F1000F09D0B8F1010F1FD120E0022E05D0032E05D0FFDF28E00C2526E00125EC
:204C400024E0022522E0B8F1020F03D0B8F1010F0AD00BE0032E09D100251022494604F136
:204C6000210019F021F911E0022E01D00720B0E70025102104F1210019F08DF95FEA0900F3
:204C800004D0062107F040FBC4F821006078252140F0020060703846FCF7F8FB6078C107E6
:204CA00013D020F00100607002208DF8000004F1210002908DF804506946FF300BF0EFFB45
:204CC000022804D018B1FFDF01E084F8205000207FE730B587B00D460446FCF79FFB88B15D
:204CE000807F00F0030001280FD00021204609F0D8FF04000ED028460DF022FE38B11020DD
:204D000007B030BD43F20200FAE70121EEE76078400701D40820F3E7294604F14100202203
:204D2000054619F0C1F8607840F01000607001070FD520F00800607013208DF80000694643
:204D400004F5907001950BF0AAFB022801D000B1FFDF0020D4E770B592B00D460646FCF7C6
:204D60005DFB18B10178272940D103E043F2020012B070BD807F00F00300012806D000211D
:204D8000304609F08EFF040003D101E00121F7E7FFDFA079022829D1A078C00726D000234B
:204DA00002220321304603F007FF08B30C208DF805000A9604A804F5907402220090069434
:204DC000ADF80C2005AB0321304603F072FF00B1FFDF04208DF808008DF81C500BA901A8C6
:204DE0000BF07DFB00B1FFDF0020C1E70820BFE71120BDE770B5064686B014460D460846A4
:204E00000DF09EFD18B920460DF0BEFD10B1102006B070BDA6F57F40FF380ED03046FCF75F
:204E2000FDFA38B1417822464B08811C1846FCF783FC07E043F20200EAE72046FDF796FAD8
:204E40000028E5D11021E01D0DF026FAE21D29466846FEF788FC102204F11700019919F0B3
:204E600023F80020D4E72DE9F041044690B015468846002708460DF0AEFD18B928460DF0E9
:204E8000AAFD18B1102010B0BDE8F0812046FCF7C5FA060003D03078272818D102E043F2B4
:204EA0000200F0E7B07F00F00300012806D00021204609F0F6FE040003D101E00121F7E7CB
:204EC000FFDF6078400702D5A078800701D40820D9E7B07F00F00300012818D0D4E9190198
:204EE000407800B1B5B1487810B1B8F1000F11D0C5B1EA1D02A8E168FEF735FC102205F10B
:204F00001700039918F0A4FF30B104270AE0D4E91910E5E70720B6E71022E91D04F1310069
:204F200018F0C2FFB8F1000F06D0102208F1070104F1210018F0B8FF6078252140F00200C2
:204F400060703046FCF7A2FA6078C10715D020F00100607002208DF8200004F121000A909F
:204F600010300B908DF8247008A9EF300BF097FA022804D018B1FFDF01E084F8207000202F
:204F800081E7F8B515460E460746FCF747FA040004D02078222804D00820F8BD43F202002A
:204FA000F8BDA07F00F00300022802D043F20500F8BD30460DF0C4FC18B928460DF0C0FC14
:204FC00008B11020F8BD00953288B31C21463846FEF7E1FB112814D00028F3D1297C4A085F
:204FE000E17F62F30001E1772A7C62F34101E177297C890884F82010A17F21F08001A17762
:20500000F8BDA17F0907FBD4D6F80200C4F83600D6F80600C4F83A003088A08610222946D1
:2050200004F1240018F040FF287C4108E07F61F38200E077297C61F3C300E077287C800858
:2050400084F82100A07F40F00800A0770020D3E770B596B00D46064613B1072016B070BD83
:20506000FCF7DCF9040007D02078222802D3A07F400604D40820F1E743F20200EEE7C5B117
:205080002D208DF80000ADF802601022294601A818F00AFF287C4108E07F61F30000E077E5
:2050A000297C61F34100E077287C800884F8200004E02E208DF80000ADF802600BA9684677
:2050C00007F0D3F8A17F21F04001A177C6E770B50D46FCF7A3F9040005D028460DF054FC3C
:2050E00020B1102070BD43F2020070BD29462046FEF7F0FA002070BD05E000BF10F8012B45
:205100000AB100207047491E89B2F7D201207047F0B50078059F1E4614460D46012800D0EF
:20512000FFDF0C2030803A203880002C08D0287A052806D0287B012800D0FFDF1720608168
:20514000F0BDA889FBE72DE9F04786B0144691F80C900E9A0D46B9F1010F0BD01021007854
:205160002E8A8846052807D0062833D0FFDF06B0BDE8F0870221F2E7E8890C2100EB4000FF
:2051800001EB4000188033201080002CEFD0E889608100271AE00096688808F1020301AADB
:2051A000696900F092FE06EB0800801C07EB470186B204EB4102BDF8040090810DF1060195
:2051C00040460E320BF02CFA7F1CBFB26089B842E1D8CCE734201080E889B9F1010F11D09D
:2051E000122148430E301880002CC0D0E88960814846B9F1010F00D00220207300270DF11B
:20520000040A1FE00621ECE70096688808F1020301AA696900F059FE06EB0800801C86B272
:20522000B9F1010F12D007EBC70004EB4000BDF80410C18110220AF10201103018F034FE35
:205240007F1CBFB26089B842DED890E707EB470104EB4102BDF80400D0810AF10201404638
:2052600010320BF0DDF9EBE72DE9F0470E4688B090F800C096F80C80378AF5890C201099FA
:2052800002F10C044FF0000ABCF1030F08D0BCF1040F3ED0BCF1070F7DD0FFDF08B067E769
:2052A00005EB850C00EB4C00188031200880002AF4D0A8F1060000F0FF09558125E018212C
:2052C00001A818F08AFE00977088434601AA716900F0FBFDBDF804002080BDF80600E0809C
:2052E000BDF808002081A21C0DF10A0148460BF097F9B9F1000F00D018B184F804A0A4F862
:2053000002A007EB080087B20A346D1EADB2D6D2C4E705EB850C00EB4C0018803220088013
:20532000002ABBD0A8F1050000F0FF09558137E000977088434601AA716900F0C6FD9DF850
:205340000600BDF80410E1802179420860F3000162F34101820862F38201C20862F3C30109
:20536000020962F30411420962F34511820962F386112171C0096071BDF80700208122465A
:205380000DF1090148460BF04BF918B184F802A0A4F800A000E007E007EB080087B20A34DD
:2053A0006D1EADB2C4D279E7A8F1020084B205FB08F000F10E0CA3F800C035230B80002AD1
:2053C000A6D055819481009783B270880E32716900F07BFD62E72DE9F84F1E460A9D0C4623
:2053E00081462AB1607A00F58070D080E089108199F800000C274FF000084FF00E0A0D286B
:2054000073D2DFE800F09E070E1C28303846556A73737300214648460095FFF779FEBDE837
:20542000F88F207B9146082802D0032800D0FFDF378030200AE000BFA9F80A80EFE7207B4C
:205440009146042800D0FFDF378031202880B9F1000FF1D1E3E7207B9146042800D0FFDF5A
:2054600037803220F2E7207B9146022800D0FFDF37803320EAE7207B1746022800D0FFDF55
:205480003420A6F800A02880002FC8D0A7F80A80C5E7207B1746042800D0FFDF3520A6F871
:2054A00000A02880002FBAD04046A7F80A8012E0207B1746052802D0062800D0FFDF102047
:2054C000308036202880002FA9D0E0897881A7F80E80B9F80200B881A1E7207B91460728D2
:2054E00000D0FFDF37803720B0E72AE04FF0120018804FF038001700288090D0E08978816E
:20550000A7F80E80A7F8108099F800000A2805D00B2809D00C280DD0FFDF80E7207B0C2866
:2055200000D0FFDF01200AE0207B0D2800D0FFDF042004E0207B0E2800D0FFDF05203873DD
:205540006DE7FFDF6BE770B50C460546FBF766FF20B10078222804D2082070BD43F20200B9
:2055600070BD0521284609F09CFB206008B1002070BD032070BDFFB585B0074608981446D4
:205580000D46022628B908A93846FFF7DCFF002840D108980121801D04F074FDADF8080005
:2055A00002464DB100233146384603F005FB98B30898007880BB05E02078092820D00F2827
:2055C0002BD0FFDF03A8009004ABBDF808203146384603F06EFB00281CD1089802A9801DDD
:2055E000C4E90107DDE90332204604F058FD40B3072824D2DFE800F01A182323211C1E00AA
:20560000072600233146384603F0D6FA0028D9D143F2040009B0F0BD06E000233146384613
:2056200003F0CAFA0028CDD11120F3E70020F1E70820EFE743F20300ECE70720EAE70320C6
:20564000E8E703980090BDF8083004223146384603F0A3FC0028DDD1002DDBD008990D70EA
:20566000D8E710B588B01C46AAB104238DF800301388ADF80C305288ADF80E208A788DF825
:2056800012200988ADF8101000236A462146FFF772FF08B010BD1020FBE770B50D460521AC
:2056A00009F0FFFA040000D1FFDF2946A01DBDE8704004F0D0BC70B596B00C460646FFF745
:2056C000ECFF05462146304601F036FE0121304601F050FE002D25D13046FBF79FFE05008E
:2056E00000D1FFDF95F822001B281BD9172C19D93A208DF80000ADF8026095F82200211D0D
:20570000884201D9241D00E00446ADF8044040F64800ADF806000BA9684606F0A6FD002845
:2057200000D0FFDF16B070BD2DE9F8430546007800260C4612287BD2DFE800F0896464436A
:205740003B663737133737370937373737372879001FC0B2022801D010281FD104BBFFDF74
:205760001EE004B9FFDF6088052109F09AFA0078032805D004280AD0072811D0FFDF0DE09C
:205780002879801FC0B202280AD048B106E02879401FC0B2022803D0102801D0072657E098
:2057A000607840F00800607052E0002CF8D1FFDFF6E704B9FFDF28790128F1D160881721E0
:2057C00042E0A888052180B2804609F06AFA074604B1FFDF07B9FFDF4146B81D04F015FC1D
:2057E00002F091FC040008D0607840F008006070A4F8028002F067FC2BE013214046FDF742
:2058000031F937E0FFDF23E004B9FFDF6088052109F047FA070000D1FFDF6946B81D04F055
:20582000FBFB00B1FFDFA988172902D2172201E00DE00A46BDF80000824201D9014602E0CB
:20584000172900D217216088FFF735FFA8E7FFDF84B1607800070DD52078182220F00F0098
:20586000C01C20F0F00090302070294604F1080018F05FFB3046BDE8F88300200870881D5B
:2058800004F0B7BB0A460146901D04F0C4BB70B50546052109F005FA040000D1FFDF29463B
:2058A000A01DBDE8704004F0B0BB2DE9F74F90B04FF0000AADF830A0ADF804A047880C46B3
:2058C00005460521384609F0ECF9060000D1FFDF24B1A780A4F806A0A4F808A0297A04F12C
:2058E00010003827C91E4FF00C0B4FF001084FF0120902900F297DD2DFE801F0F1F0EF7F3A
:2059000008D2888D9F3DDBF2EDB6B6003078022800D0FFDFA8890BEBC001ADF80410302124
:20592000ADF83010002C25D06081B5F80E8000271DE004EBC709317989F80E107188A9F87F
:205940000C10CDF800806888042305AA296900F0BCFABDF81410A9F8101008F10400BDF89C
:2059600016107F1C1FFA80F8A9F81210BFB26089B842DED808E13078022800D0FFDFE9892D
:205980000BEBC100ADF804003020ADF8300095F80CB0002CABF10400C0B20F90EAD06181C0
:2059A000B5F81090002722E0CDF8009068885B4603AA696900F089FA09EB0B001FFA80F908
:2059C00004EBC70808F10C0204A90F980AF028FE18B188F80EA0A8F80CA0BDF80C10A8F8DA
:2059E0001010BDF80E107F1CA8F81210BFB26089B84200E0C7E0D7D8C6E00CA8009001AB37
:205A0000224629463046FFF79EFBBDE03078082805D0FFDF03E03078082800D0FFDFE889A8
:205A20001030ADF804003620ADF83000002C3FD0A98961817188A18127E03078092800D038
:205A4000FFDFA88900F10C01ADF804103721ADF83010002C2CD06081E8890090AB89688815
:205A600004F10C02296955E0E8893921103080B2ADF80400ADF83010002C72D0A98961810F
:205A8000287A10280AD002212173E989E181288A0090EB8968886969029A3BE00121F3E79C
:205AA0000CA8009001AB224629463046FFF7DCFB6AE030780A2800D0FFDFADF80490ADF82C
:205AC00030704CB3A9896181A4F810A0A4F80EA084F80C8058E020E002E030E038E041E012
:205AE00030780B2800D0FFDF288AADF830701230ADF8040084B104212173A9896181E989C7
:205B0000E181298A2182688A00902B8A688804F11202696900F0D9F936E030780C2800D047
:205B2000FFDFADF80490ADF8307044B305212173A4F80AA0A4F80EA0A4F810A024E00CA8C4
:205B4000009001AB224629463046FFF7E1FA1BE00CA8009001AB224629463046FFF73BFC86
:205B600012E00DE00B203B21ADF80400ADF8301034B1A4F80680A4F808A084F80AA003E0DD
:205B80001299088014E0FFDF1299BDF80400088074B1BDF830002080BDF804006080287A2F
:205BA000032805D0102803D0112801D086F800A013B00020BDE8F08F2DE9FC4156880F4625
:205BC000804615460521304609F06BF8040000D1FFDFA41DCDE900642B463A4640466968D6
:205BE00004F011FCBDE8FC8170B50D46052109F058F8040000D1FFDF2946A01DBDE8704067
:205C000004F015BA70B50D46052109F04AF8040000D1FFDF2946A01DBDE8704004F03ABACC
:205C20002DE9F0438DB00D461446814607A9FFF78AFC002814D14FF6FF7601274FF4205894
:205C40008CB103208DF800001020ADF8140008A8069008AA204605A90AF001FD78B1072022
:205C60000DB0BDE8F0830820ADF80C508DF812708DF80000ADF80E60ADF810800CE00798C7
:205C8000A1780171218841808DF81270ADF80C50ADF81080ADF80E606A4602214846079BBC
:205CA000FFF769FCDCE708B501228DF8022042F60202ADF800200A4603236946FFF7D1FC56
:205CC00008BD08B501228DF8022042F60302ADF800200A4604236946FFF7C3FC08BD00B521
:205CE00087B079B102228DF800200A88ADF80C204988ADF80E1000236A460521FFF73BFC5D
:205D000007B000BD1020FBE709B10723A9E40720704770B588B00D461446064607A9FFF7B2
:205D200012FC00280ED17CB10620ADF80C508DF80000ADF80E40079B6A4608215C803046B5
:205D4000FFF719FC08B070BD05208DF80000ADF80C50F0E700B587B059B107238DF80030FC
:205D6000ADF80C20049100236A460921FFF703FCC6E71020C4E770B588B00C460646002523
:205D800007A9FFF7E0FB0028DCD107980121801D04F078F99CB12178062921D2DFE801F02A
:205DA000200505160318801E80B2C01EE28880B20AB1A3681BB1824203D90C20C2E7102007
:205DC000C0E7042904D0A08850B901E00620B9E7012913D0022905D004291CD005292AD0F5
:205DE0000720AFE709208DF800006088ADF80C00E088ADF80E00A068049023E00C208DF834
:205E000000006088ADF80C00E088ADF80E00A0680A25049016E00D208DF800006088ADF8CE
:205E20000C00A088ADF80E00E088ADF81000A0680B25059006E00E208DF8000060788DF89B
:205E40000C000C256A4629463046079BFFF793FB78E700B587B00F228DF80020ADF80C1068
:205E600000236A461946FFF786FB49E700B587B071B102228DF800200A88ADF80C2049883E
:205E8000ADF80E1000236A460621FFF774FB37E7102035E770B588B0064601200D46ADF8B4
:205EA0000C108DF80000014600236A463046FFF762FB040008D12946304601F02EFA002162
:205EC000304601F057FA20463CE7F8B51C4615460E46069F09F048F82346FF1DBCB231467B
:205EE0002A46009408F060FCF8BD000018B18178012938D101E010207047018842F6011204
:205F0000881A914231D018DC42F60102A1EB020091422AD00CDC41B3B1F5C05F25D06FF488
:205F2000C050081821D0A0F57060FF381BD11CE001281AD002280AD117E0B0F5807F14D025
:205F400008DC012811D002280FD003280DD0FF2809D10AE0B0F5817F07D0A0F5807003381B
:205F600003D0012801D0002070470F2070470B2826D008DC1BD2DFE800F01C2025251A2521
:205F8000292325271E0011281CD008DC0C2817D00D281DD00F2815D0102808D110E082283E
:205FA00009D0842810D0852810D0872812D003207047002070470520704743F203007047E2
:205FC000072070470F20704704207047062070470C2070474FF45050704708280DD2DFE8F2
:205FE00000F00406040C0C080C0A002070471120704707207047082070470320704738B52A
:206000000C46050041D06946FEF7D4FA002819D19DF80010607861F3020060706946681CBE
:20602000FEF7C8FA00280DD19DF80010607861F3C5006070A978C1F34101012903D00229FE
:2060400005D0072038BD217821F0200102E0217841F020012170410704D0A978C90861F3C4
:2060600086106070607810F0380F07D0A978090961F3C710607010F0380F02D1607840065E
:2060800003D5207840F040002070002038BD70B504460020088015466068FFF7B0FF002874
:2060A00016D12089A189884211D860688078C0070AD0B1F5007F0AD840F20120B1FBF0F22A
:2060C00000FB1210288007E0B1F5FF7F01D90C2070BD01F201212980002070BD10B5047871
:2060E000137864F3000313700478640864F3410313700478A40864F3820313700478E40843
:2061000064F3C30313700478240964F3041313700478640964F3451313700078800960F3D6
:206120008613137031B10878C10701D1800701D5012000E0002060F3C713137010BD427892
:20614000530702D002F0070306E012F0380F02D0C2F3C20300E001234A7863F302024A70C2
:20616000407810F0380F02D0C0F3C20005E0430702D000F0070000E0012060F3C5024A700C
:2061800070472DE9F04796B00D00804613D0B8F1000F14D01221284617F0FDFE06AAFF21F0
:2061A000012005F09DFE0024264637464FF420596FF4205A78E0102016B0BDE8F0870720F7
:2061C000FAE700BF9DF8220001280AD1BDF8200048450BD010EB0A000AD001280CD0022819
:2061E0000CD0042C0ED0052C0FD10DE0012400E00224BDF81E6008E0032406E00424BDF887
:206200001E7002E0052400E00624BDF81E1041454AD12C74D6B30DF140094FF0000811AAE5
:20622000CDF81490CDF80880CDE903824FF0070ACDE900A810234246FF21304605F0FEFE7D
:2062400010BBBDF840002A46C0B211A90AF0E8F9D0B9AE81D7B103A90BAE4046CDF808808F
:2062600081E84102CDE900A813230022FF21384605F0E4FE40B9BDF84000F11CC01EC0B2FC
:206280002A1D0AF0CDF910B1032095E70AE0BDF82D00E881062C05D19DF82200A872BDF8D4
:2062A00020002881002087E706A805F021FE002888D0FFF75CFE7FE72DE9F8439846DDE99A
:2062C000087614460D00814600D1FFDF0CB1012100E0002105F1080004F0DEFC30800246BF
:2062E00000232146484602F067FC40B10097328843462146484602F0DCFCBDE8F883072C54
:2063000001D01120F9E743F20400F6E72DE9F0438DB00E46DDE9149805461C4617461421FA
:2063200006A817F05AFE012002218DF81C108DF818008DF81D80ADF8207064B1A178C90769
:2063400009D08DF82200E088ADF82600A088ADF82400A0680A9001F0D6FE040023D0658056
:206360000BA904A8CDE900010CAB002231462846FFF7A2FF002813D1049808368DE87100E5
:206380000BAA494606A80C9B05F057F806466078000701D501F097FE5EB13046FFF71DFE03
:2063A0000DB0BDE8F08313212846FCF75BFB0320F6E704980090BDF82C300422002128462B
:2063C00002F0EBFDECE7F0B58DB000240746099406A80A94CDE904400725CDE90054079409
:2063E00008940E460294039410232246384605F025FE80B90BA8059007A90294CDE903418E
:20640000CDE90054BDF8183000223146384605F0F8FB002801D0FFF7AAFD0DB0F0BD05F081
:206420009DBA2DE9FC470546002600780C46B0460D2871D2DFE800F0B2070EAA30C853533D
:206440007188A68C970004B1FFDFA88880B201F0CCFFA4E0A888042180B2814608F021FCE2
:20646000074604B1FFDF07B9FFDF494607F1080004F0ABFB01F047FE040008D0607840F05B
:2064800008006070A4F8029001F01DFE88E013214846FCF7E7FA97E004B9FFDF60880421CD
:2064A00008F0FFFB070000D1FFDFE888ADF80000002038809DF80000010704D5C00602D534
:2064C000A888388005E09DF80100400667D5A88878806078022640F0080060705FE0E888F8
:2064E000ADF8000004B9FFDF9DF80100000604D52878072806D0062828D0607840F008000C
:2065000060704CE06088042108F0CBFB060000D1FFDFA888708019E040E004B9FFDF608843
:20652000042108F0BEFB070000D1FFDF07F1080005F04CFA90F0010F02D1E87900062ED5C7
:2065400060880226B880D8E704B9FFDF0226D4E704B9FFDF022661880122204601F089FF08
:206560004FF00108C9E7A88987B204B1FFDF686800902889ADF8040001226946384601F02B
:2065800093FF0CE0002CB8D1FFDFB6E704B9FFDF022660880021FFF735FBAEE7FFDF9CB19B
:2065A0006078000710D5B8F1000F0DD12078142220F00F00001D20F0F000803020702946C8
:2065C00004F1080017F0B5FC3046BDE8FC873EB50C0008D06B4601AA002105F0AEFD20B1A3
:2065E000FFF7C5FC3EBD10203EBD00202080A0709DF8050002A900F00700FDF7F7FF50B9BF
:206600009DF8080020709DF8050002A9C0F3C200FDF7ECFF08B103203EBD9DF80800607070
:206620009DF80500C109A07861F30410A0709DF80510890961F3C300A0709DF804108906CB
:2066400001D5022100E0012161F342009DF8001061F30000A07000203EBD70B514460646BA
:206660000D4651EA040005D075B108460CF0AAF978B901E0072070BD2946304605F0B8FDAB
:2066800010B1BDE8704072E454B120460CF09AF908B1102070BD21463046BDE8704096E7CF
:2066A000002070BD2DE9FE4F05460C46007A0A31009104F108010291904600270C31821EDC
:2066C0003E464FF0020B4FF0010A0191092A75D2DFE802F0F3F20574252577B6F400688822
:2066E000042108F0DEFA060000D1FFDF308810B152270726E9E051271026002C7ED06888F0
:20670000A08084F806A0A88900220099FFF7A5FF002874D1A8892081288AE081F8E0B5F8DA
:206720001290072825D1E87B000622D5512709F1140086B2002CE1D0A88900220099FFF7B5
:206740008CFF00287AD16888A08084F806B0A889208184F80EA0288A2082A4F81290A88A39
:20676000009068884B46A969DDF8042001F0C1FACEE0502709F1120086B2002C3ED0A8897D
:2067800000220299FFF769FF002857D16888A080A889E080287A072811D002202073288AD4
:2067A000E081E87B4B46C0096073A4F81090A88A0090688804F11202A969D7E7A7E0012079
:2067C000ECE76888042108F06CFAB5F812A05FEA000900D1FFDF09F1080005F0F7F890F0AD
:2067E000010F02D1E87B000627D50AF11400512786B2002C7FD06888A08001E070E01DE0D9
:20680000A88900220099FFF728FF002816D184F806B0A88920810420A073288A2082A4F835
:2068200012A0A88A009068885346A969019A01F060FAA989A9F802106AE00320BDE8FE8FDF
:206840006888FAF7EBFD82466888042108F029FA8146BAF1000F00D1FFDFB9F1000F00D1BD
:20686000FFDFB9F80400A0F57F41FF3902D05127142601E05027122694B36888A080502F0E
:2068800006D084F806B0287B029901F042FA3FE0287BA11D01F03DFA00219AF82300CDE951
:2068A00000010B46B9F8022068884946FFF72EFD0028C3D12CE001E013E01FE0FE49A88900
:2068C000C988814205D1542706264CB16888A0801EE053270CE06888A080A889E08017E01E
:2068E00009E06888042108F0DCF900B9FFDF55270826002CEFD1A8F800600EE05627072608
:20690000002CF8D0A889A0800020A07100E0FFDFA8F800600CB12780668000208EE7E64935
:2069200000200870704730B587B00C4608F082F90546FF2800D1FFDF0020208060804FF621
:20694000FF70A080294604F1080004F025F902AA2946012005F0C4FA1AE000BF9DF80B00E2
:20696000000715D5BDF80E002946FFF72CFD9DF80B00FF2340F010008DF80B00BDF80B0083
:20698000ADF80400BDF80E002946019A05F0FEFB02A805F0ADFA0028E0D007B030BD0A4681
:2069A000014602F1080004F016B970B50546042108F077F9040000D1FFDF294604F10800B6
:2069C000BDE8704004F001B9F0B58FB00C460746FAF724FD060005D03078222805D2082053
:2069E0000FB0F0BD43F20200FAE70CB1A08870B101208DF81C0003208DF8200000208DF8DE
:206A0000210034B1A088ADF82800206803E00920E6E7ADF82800099001F075FB050007D077
:206A20006F800421384608F03CF9040007D105E013213846FCF716F80320D1E7FFDF06A9BB
:206A400004A8CDE900010CAB002221463846FFF733FC0028C4D104F10800049903908DE891
:206A6000A20096F8231006AA07A80C9B04F0E5FC06466878000701D501F025FB1EB1304679
:206A8000FFF7ABFAACE704980090BDF8183004220021384602F081FA4FF6FF71A1809FE711
:206AA0002DE9FF4F87B09846DDE9159793467E88DDF850A03046FAF7B1FC0546042130464D
:206AC00008F0EFF8044605B9FFDF04B9FFDF0834CDE90464CDE90297CDE9008ADDE907029E
:206AE00095F823105B4604F0E7F80BB0BDE8F08F2DE9F04F9BB004464FF000086E48ADF8F7
:206B00005880ADF83080ADF85480A0F80480ADF81880ADF81C80ADF82480ADF8208000782F
:206B200016460D464746012808D0022806D0032804D0042802D008201BB0D7E720460BF009
:206B4000FFFED0BB28460BF0FBFEB0BB60680BF042FF90BB606848B160892189884202D899
:206B6000B1F5007F01D90C20E6E780460BAA07A92846FFF78CFA0028DED168688078C0F3B6
:206B80004100022808D19DF81D0010F0380F03D028690BF017FF80B906A92069FFF72FFAB3
:206BA0000028C9D1206950B1607880079DF8190000F0380002D5E8B301E011E0D0BB9DF8F0
:206BC000180080060ED59DF8190010F0380F03D060680BF0F7FE18B960680BF0FCFE08B16D
:206BE0001020A9E708A96069FFF709FA0028A3D1606940B19DF8210000F0070101293BD128
:206C000010F0380F38D009A9A069FFF7F8F9002892D19DF8200080062ED49DF8240080067C
:206C20002AD4A06950B19DF8250000F00701012922D100E020E010F0380F1DD0E06818B158
:206C40000078C8B11C2817D20FAA611C2046FFF745FA0120B94660F30F27BA4607468DF8CA
:206C6000520042F60300ADF850000DF13F0218A9286809F0F4FC08B107205DE79DF8600000
:206C800017A9CDF80090C01CCDE9019100F0FF0B00230BF20122514614A805F066F8E8BB35
:206CA000BDF85C000E9004492A892869091D0092CDE901016B8901E010030020BDF82C201B
:206CC0002868079905F051F801007DD120784FF0020AC10601D480062BD5ADF80C906069E8
:206CE00050B908A907A8FFF72AFA9DF8210020F00700401C8DF821009DF820008DF8527046
:206D000040F0C8008DF8200042F60210ADF850000CA903AA0023CDF800A000E021E0CDE916
:206D2000012140F2032214A8089905F01EF801004AD1FE484D465B468088ADF83D000FA83B
:206D4000CDF80890CDE90390CDF814904FF00709CDE900950022FF21BDF85C0004F051FFF3
:206D600010B1FFF704F9E7E69DF83C00000625D52946012060F30F218DF852704FF42450B0
:206D8000ADF85000ADF8105062789DF81000002362F300008DF810006278CDF800A05208D4
:206DA00062F341008DF8100004AACDE9012540F2032214A804F0D9FF010005D1606850B39D
:206DC000206970B906A900E07EE007A8FFF7B7F96078800705D49DF8190020F038008DF80C
:206DE00019008DF8527042F60110ADF85000208940F20121B0FBF1F201FB1202606815ABD2
:206E0000CDF80080CDE90103002314A8069904F0ACFF010058D12078C00729D0ADF80C50D3
:206E2000A06950B909A907A8FFF789F99DF8250020F00700401C8DF825009DF824008DF852
:206E4000527040F040008DF8240042F60310ADF8500016A903AACDF800A0CDE9012100234B
:206E600040F2032214A8099904F07FFF01002BD1E06868B32946012060F30F218DF8527031
:206E800042F60410ADF85000E068002302788DF8102040788DF81100E06804AA4088ADF866
:206EA0001200E06800798DF81400E068C088ADF81500CDF80090CDE901254FF4027214A878
:206EC00004F053FF010003D00E9800F035FF33E696480321017056B180883080BDF854007A
:206EE0007080BDF83000B080BDF85800F080002022E670B501258AB016460B46012802D0BB
:206F0000022816D104E08DF80E504FF4205003E08DF80E5042F60100ADF80C0063B10024FE
:206F2000601C60F30F2404AA08A9184609F097FB20B107200AB070BD1020FBE704A99DF8D4
:206F400020207A48CDE90021801C02900023214603A802F2012204F008FF10B1FFF707F82D
:206F6000E8E772480EB14188318005700020E1E770B594B0044601268DF83E6041F60100BD
:206F8000ADF83C0012AA0FA93046FFF7B2FF002848D12078654CC0074FF0000544D01C2199
:206FA00002A817F01AF89DF808008DF83E6040F020008DF8080042F60520ADF83C000E9590
:206FC0009DF83A00119520F00600801C8DF83A009DF838006A4620F0FF008DF838009DF8ED
:206FE000390009A920F0FF008DF839000420ADF82C00ADF830000EA80A9011A80D900FA8B2
:207000000990ADF82E5002A8FFF772FD002809D1BDF80000E080BDF804002081401C6081F7
:207020002570002014B070BDE5802581BDF84800F4E72DE9F74F3D49A2B04FF000080A78CA
:20704000012A04D0022A02D0082025B04EE54A88824201D00620F8E723988A46824201D176
:207060000720F2E701208DF8760042F6020B0024ADF874B0ADF84C004FF6FF702146621C38
:2070800062F30F21ADF84E00ADF8560007918DF87A40FF20ADF878401EA98DF854001491E5
:2070A00013A804F049FF00252E462F460DF128090EAB4FF6FF72072113A804F040FF78B1EE
:2070C00082285FD1A5B39EB39DF86600ADF86C508DF81840ADF86E601BAC012866D06DE00E
:2070E0009DF83E002FB301285BD1BDF83C10594521D11AA8CDE904900720CDE90004029472
:207100000394BDF83A0010230022FF2104F096FFC0BBBDF86800042801D006284CD1BDF856
:207120002810239881423CD10F208EE7100300203AE0012835D1BDF83C00B0F5205F03D084
:2071400042F6010188422CD1BAF80210BDF83A00814201D1012700E0002705B19EB12399F6
:2071600088421ED11AA9CDE904910721CDE9001405460294039410230022FF2104F05EFF18
:2071800000B902E02DE046460BE0BDF86800022801D0102810D1C0B219AA0AA909F040FA84
:2071A00050B9BDF83A8083E705204EE706A919A8221D09F054FA08B1032046E79DF81800E7
:2071C0000023001DC2B28DF8182024980092CDE901401DA8079904F0C8FD10B902228AF86C
:2071E0000020FEF7C4FE30E710B50B46401E88B084B206AA00211846FEF770FF07A906AACC
:20720000CDE9042100200721CDE900100290039002460123FF21204604F0F3FC0446BDF88C
:207220001C00012800D0FFDF2046FEF7A0FE08B010BDF0B5F84F044687B038780E46032841
:2072400004D0042802D0082007B0F0BD04AA03A92046FEF71CFF0500F6D160688078C0F3C1
:20726000410002280AD19DF80D0010F0380F05D020690BF0A7FB08B11020E5E7208905AAD7
:2072800021698DE807006389BDF810202068039904F06BFD10B1FEF76AFED5E716B1BDF841
:2072A00014003080042038702846CDE738B50C00054608D000236A46FF2104F03EFF20B10B
:2072C000FEF755FE38BD102038BD69462046FEF796FE0028F8D1A078FF2100F00103284623
:2072E000009A04F053FFEBE730B587B0144600220DF10C0C06AD02928CE82C000723CDE967
:2073000000320A462388FF2104F07BFCBDF818102180FEF72CFE07B030BD70B50D460421D7
:2073200007F0BFFC040000D1FFDF294604F10800BDE8704003F070BC70B50D46042107F074
:20734000B0FC040000D1FFDF294604F10800BDE8704003F084BC70B50D46042107F0A1FCA9
:20736000040000D1FFDF294604F10800BDE8704003F092BC70B50D46042107F092FC040032
:2073800000D1FFDF294604F10800BDE8704003F08DBC0121FEF736BC2DE9F04196B04FF06C
:2073A00000050C008046ADF818501CD0E06828B1A068C0B10188ADF8181005804046FAF711
:2073C0002DF8070011D03878222861D3404607F031FC0146A07801280AD0022808D007203D
:2073E00016B0BDE8F0811020FAE743F20200F7E7208830B1401C80B207AA04F071FD50BB56
:2074000002E043F20300EBE707A804F071FD9DF826204FF45051012A09D1BDF82420A2F51B
:207420002453023B03D1822801D0A0B901E00846D6E7E068B0B106A9CDE904010720CDE914
:20744000000502950395A2882088BDF81830FF2104F0D7FB10B1FEF78AFDC1E7A168BDF8A0
:20746000180008809DF81F00C00602D543F20140B6E70B9818B1BDF82800022801D00320A1
:20748000AEE70B98A1780078012903D0800706D40820A5E7C007FBD00726022001E0012628
:2074A00003208DF83C009DF8200010F0380F00D1FFDF9DF820005949C0F3C200084497F896
:2074C000231010F8010C884201D90F2088E72088ADF840000421404607F0E3FB040000D140
:2074E000FFDF0DA90CA8CDE900010EAB324621464046FEF7E1FE002885D108340C990394A5
:207500008DE822010DAA07210FA80E9B03F095FF10B1FEF762FD63E70C980090BDF8343061
:2075200004223146404601F038FD59E770B5064615460C460846FEF7D9FC002805D12A461E
:2075400021463046BDE87040D3E470BD71E570B51E4614460D0009D044B1616831B138B16D
:207560002D494988814203D0072070BD102070BD2068FEF7BBFC0028F9D13246214628460A
:20758000BDE87040FFF7B4BA70B515460C0006D038B121498988814203D0072070BD102052
:2075A00070BD2068FEF7A2FC0028F9D129462046BDE870403DE670B5054686B00E461446F0
:2075C00010460BF0E1F930BB60680BF004FA10BBA5F57F40FF3803D02846F9F71FFFA0B1D9
:2075E000284607F027FB054630466946FEF7C9FD00280CD19DF810100F2008293FD2DFE8E7
:2076000001F008060606060F0F0843F2020006B070BD0320FBE743E0100300206AE3010070
:207620009DF80210012908D1BDF80010B1F5C05FEDD06FF4C052D142E9D09DF80610012943
:207640000BD1BDF80410A1F52851062905D2DFE801F0030304030303D9E79DF80A1001290C
:207660000ED1BDF80810B1F5245FD0D0A1F524510239CCD00129CAD0022901D1C7E7FFDF66
:20768000606878B9002305AA2946304604F055FD10B1FEF76CFCBAE79DF81400800601D431
:2076A0001020B4E76188224630466368FFF71CFEADE72DE9F043044689B08946154610467D
:2076C0000BF062F918B1102009B0BDE8F083204607F0B0FA4FF6FF770646BC4201D0FF2E80
:2076E00009D00146002307AA484604F026FD28B1FEF73DFCE8E743F20200E5E79DF81C0067
:20770000C00602D543F20140DEE7002406A8CDE904404FF00708CDE90084029403946A881E
:207720003B463146484604F089FC070014D168680BF02AF968B968680294CDE90340059457
:20774000CDE900842B886A883146484604F076FC0746BDF8180028803846C9E739B1FA4BC0
:207760000A881B899A4202D843F20300704713E610B586B0F44C0423ADF81430E38843B18B
:2077800024898C4201D2914205D943F2030006B010BD0620FBE7ADF810100021009101911E
:2077A000ADF8003002218DF8021005A9029104A90391ADF812206946FFF7EEFDE7E72DE96D
:2077C000FC4781460F4608460BF0BAF888BB4846F9F724FE5FEA00080AD098F80000222867
:2077E00029D30421484607F05CFA060005D103E043F20200BDE8FC87FFDF06F1080003F09F
:2078000012FA05463878012803D0022804D00720F0E7A8070FD502E015F0340F0BD0B879A0
:207820003C1DC00709D0E08838B1A0680BF088F818B11020DEE70820DCE73A782088002157
:2078400028B3A0F201130721112B18D20CD2DFE803F00B090D0B1D0B121D100B0B1D1D1DC1
:207860001D0B1D00022A11D10846C3E7012AFBD00CE0EA0600E0AA06002AF5DA06E0A0F5E7
:20788000C0721F2A02D97D3A022AEDD8C1B298F82300CDE900017288234631464846FEF7B0
:2078A00035FDA7E72DE9FF4F8DB01E4615460C464FF000080F460D98F9F7B0FD30B100781F
:2078C000222806D2082011B0BDE8F08F43F20200F9E7B00801D00720F5E7032E00D10026AE
:2078E0000D9807F0A7F94FF6FF7A0690CCB1022D74D320460BF06FF830B904EB0509A9F1BD
:2079000001000BF068F808B11020DCE7AD1EAAB22146504604F022FD39F8021C88425DD1E1
:20792000ADB28948B10702D50189491C00E001211FFA81F9F10701D0068900E0564607AA7F
:207940004846069904F0CCFA4FF0070B4FF0000A0BE07888102841D808F1040108441FFA07
:2079600080F8A8453AD804EB08077FB339884945EFD353E09DF81F100A074FD544B304EB3D
:20798000080708F104027B881FFA82F8102B25D803EB0802AA4221D83A8890421ED1C806DD
:2079A0001ED50DF10C090CAA04EB08015046CDF808A089E80700CDE900BA388800220699A7
:2079C00004F01FF928B1FEF7D2FA7CE726E005E00CE07888BDF83010884201D00B2072E7B3
:2079E000798801EB08001FFA80F806E0C90604D50699FEF7E8FC002887D19DF81F00FF23A5
:207A000020F010008DF81F00BDF81F00ADF80000BDF82200009A069904F0B8FB07A804F0CF
:207A200067FA18B9BDF82200B042A3D904210D9807F037F9040000D1FFDF22885AB1CDE9C0
:207A400000BA5546002321460D98FEF75FFC0028BBD1258037E7002035E72DE9F04F8DB00D
:207A60001E4617000D464FF000041BD0B10802D007200DB028E7032E00D1002607F0DAF89B
:207A80008046FF2805D07DB128460AF09BFF48B902E043F20200ECE73988681E08440AF07A
:207AA00091FF08B11020E4E72749B00701D5488900E00120F2074FF6FF7902D04989491EF2
:207AC00000E049468EB207AA414604F009FA4FF0000B4FF0070A3EE09DF81F0000073AD546
:207AE00006A9CDE904B1CDF808B0CDF80CB04B4600224146CDE900AB604604F09FFA08BBDD
:207B000025B3BDF818103A8821442819091D8A4234D3BDF8222020F8022BBDF8182020F80E
:207B2000022B06AA0592CDF808B0CDE903B0CDE900ABBDF82200BDF818300022414604F019
:207B40007DFA18B1032094E710030020BDF818002044001D84B207A804F0CAF920B18228AF
:207B600006D0FEF704FA84E7BDF822C0B445B3D934B175B13988A01C814203D20C2078E70A
:207B8000052076E722462946484604F0E7FB29190880A41C3C8000206BE710B504460AF067
:207BA000F3FE08B1102010BD694840892080002010BD2DE9F041A4B00C4606464FF0000897
:207BC000142105A816F009FA01208DF818008DF8140000278DF81970ADF81C403046F9F7C7
:207BE0001DFC30B10078222806D2082024B0BDE8F08143F20200F9E70421304607F051F8ED
:207C0000050000D1FFDF0AA904A8CDE9000116AB002229463046FEF74FFB0028E6D1049818
:207C20000835CDE90007CDE902650AAA072105A8169B03F002FC10B1FEF7CFF9D6E704982B
:207C40000090BDF8283004224146304601F0A5F900B1FFDF21463046FDF7C6FF17A9284682
:207C600002F0D0FF00B1FFDFBDF85C00172801D2172100E00146A14204D8172801D2172426
:207C800000E0044621463046FFF756FB054621463046FDF702FD4146304601F02BFB00B9AE
:207CA000FFDF25BB3046F9F7B9FB050000D1FFDF95F822001B281AD9172C18D93A208DF840
:207CC0002C00ADF82E6095F82200211D884201D9241D00E00446ADF8304040F64800ADF811
:207CE000320018A90BA804F0C0FA00B1FFDF00207CE7F8B51C4615460E46069F07F034F997
:207D00002346FF1DBCB231462A46009406F04CFDF8BD70B50C4605460E21204616F03BF970
:207D2000002020802DB1012D01D0FFDF70BD062000E00520A07170BD10B50C4604F09DF892
:207D400000B1FFDF2046BDE81040FEF710B900001003002010B50446007896B0022805D07C
:207D6000012803D043F2050016B010BDA17889290AD06078892807D021B1032902D808B1A4
:207D8000032801D90720EFE74D208DF800002078022801D0012000E000208DF802006078DC
:207DA00000F0D7FDC01D8DF80300A078012815D000F0CFFD10F101008DF80400607800F065
:207DC000C8FD8DF80500A07800F0C3FD8DF806009DF805200621102A04D005E0022000F01B
:207DE000B8FDE9E78DF80510102801D18DF806102078012804D19DF80300401C8DF80300AD
:207E000002F0E0F8001DADF808000BA9684604F02CFA00B1FFDF0020A6E72DE9FF4FFF496A
:207E200091B00600D1E900010396CDE90C01507A117A9B4608441546C7B222D05FF0000449
:207E40004FF00009CDF81C900520ADF81C001F20ADF81E00F2A00690CDF81490F01D8DF85E
:207E600014904FF0010A20F007008DF815A0B04200D0FFDF28880399401C1FFA80F814B125
:207E800007E00124DCE708F0FF0008F06FFB00B1FFDF03993A4601EB0810C01C20F003011B
:207EA000D5F8188003913CB981F800901FFA88F003F06EFE00B1FFDF0399234601EB080053
:207EC0000390A87A297A3A460844C1B203A800F08EFD0398C01C20F003000390697A009154
:207EE0002B7AAA7A04B1002002A906F0B6FD00B1FFDFBDF8081003980DF1780808443A464F
:207F000098E88A00C01C20F00300CDE90270CDE9001304B100205B4608A906F029FF00B181
:207F2000FFDF089903980844C01D20F0070003901299821B002C0A603AD1BC4ABA491160F1
:207F4000111D401E086001232C220EA9B84806F005FD00F00CFD00211E22084602F042F838
:207F6000FAF7A4F900F075FFFEF7D9FCE8680CAA214620B1FBF755F830B1FFDF04E005A878
:207F8000FBF74FF800B1FFDF05F11400FEF7F0FF00B1FFDF4FF49671A64816F01EF8A5485B
:207FA000022180F829A180F82A11062180F82B1115B0BDE8F08F10B59E4CA078092800D31A
:207FC000FFDF207804EB401010F8041F21F0FF010170417821F00701C91C21F018014170AD
:207FE0000121E17010BD2DE9F04105460C4600270078052190463E46B1EB101F00D0FFDFC5
:20800000287A58B1012810D0FFDF00BFA8F800600CB1278066800020BDE8F0810227092637
:208020007CB1A889A080A87B09E00327142644B16888A0802869E060A88A2082287B207273
:20804000E4E7A8F80060E6E700B597B04E218DF8001000780BA900F001008DF80200684636
:2080600004F003F917B000BD00B5017897B001F001018DF80210417801F001018DF8031049
:208080000178C1F340018DF804104178C1F340018DF80510017889088DF8061041788908A2
:2080A0008DF8071081788DF80810C1788DF8091000798DF80A004A208DF800000BA968465E
:2080C00004F0D3F8CEE770B55A4CE078002819D02078002504EB4010407900F00700011932
:2080E00091F82801401E81F828012078401CC0B22070092800D12570A078401CA07009F0C4
:20810000BAFFE57070BD4B4890F82B01002800D051E770472DE9F043464D9BB05FF000067A
:20812000D5F8240168B1FFF7EEFF002875D02022D5F8241115F0FDFEFFF7C5FFC5F82461A4
:20814000EEE795F82901002867D0FFF734FF0446374806F034FC606000B9FFDF606804F009
:20816000D1F888B12046F9F7C6FB6078010706D520F00700401C6070FFF7A5FFD0E72C4823
:20818000616806F025FCCBE72948616806F020FC01A800F0B9FC00286BD10321BDF8040072
:2081A00006F07FFD8046BDF8040006F0DDFE0746B8F1000F00D1FFDFD8F8040010B100783C
:2081C000FF2856D0FFF7F7FE0446384606F08FFA606000B9FFDF606800F104090671BDF8D7
:2081E00004006080204600F02CFF384606F04FFB00B9FFDF47208DF81000BDF80400ADF86B
:20820000120004A805F0D9FE10A804F0DEFA6078010711D4C00615D417E02AE070E3010087
:208220006E524635780000000000002000060240780500204C04002020F00700801C607093
:20824000FFF741FFC8F804906AE7D8F8040038B10178491C11F0FF0101708FD1FFDF5FE7B2
:2082600000221146384600F072FB002886D1FFDF56E71BB0BDE8F08310B5FE4CA0600868AE
:20828000E060AFF26F1001F0F6FD607010BDF94900200870704730B505464FF080500C46DB
:2082A000D0F8A41097B0491C05D1D0F8A810C9430904090C08D050F8A01F01F001012970A7
:2082C0004168216080680EE02B208DF800000BA9684603F0CAFF00B1FFDF012028700C98C4
:2082E0002060BDF83400A0802878002803D0607940F0C000607117B030BDF0B54FF0805454
:208300000746D4F8800097B00D462B26401C0BD1D4F88400401C07D1D4F88800401C03D199
:20832000D4F88C00401C0BD0D4F880003860D4F884007860D4F88800B860D4F88C0016E0E8
:208340008DF82C6069460BA803F08FFF00B1FFDF01983860029878608DF82C6069460BA884
:2083600003F083FF00B1FFDF0198B8600298F860D4F89000401C0BD1D4F89400401C07D12E
:20838000D4F89800401C03D1D4F89C00401C08D054F8900F286060686860A068A860E06852
:2083A00016E08DF800600BA9684603F05EFF00B1FFDF0C9828600D9868608DF800600BA96F
:2083C000684603F052FF00B1FFDF0C98A8600D98E86017B0F0BD30B5A74C0546D4F82401FB
:2083E00000B1FFDFC4F8245130BD3EB50546032106F057FC0446284606F0B6FD054604B9BC
:20840000FFDF606818B10078FF2800D1FFDF01AA6946284600F09BFA60B9FFDF0AE000224F
:2084200002A9284600F093FA00B9FFDF9DF8080000B1FFDF9DF80000411E8DF80010EED29A
:2084400060680199884201D1002060608A4C94F82A01022800D3FFDF94F82A01401CC0B251
:2084600084F82A01012803D18248407801F022FD3EBD70B50446A1F57F4016460D46FF3821
:2084800000D1FFDF012E01D0FFDF70BD207820F00F00401D20F0F00050302070002020724C
:2084A000A5810120A07370BD70B515460C460646FFF729FE90B1017821F00F01491D21F0A8
:2084C000F0015031017046800121017221680161A18881820573BDE87040F4E53046BDE886
:2084E00070401321FAF7BEBA70B505460C4608460AF04AFA08B1102070BD2846F8F78EFFE1
:2085000028B1284600F0E7FE2070002070BD43F2020070BD2DE9F04F04465648894687B0BB
:20852000017811B1082007B043E552485349416020460AF029FA002875D148460AF024FA8B
:20854000002870D1637A217A5818FF287DD82088FE287AD800B90A202080A06908B94FF49E
:20856000B060A0616068A0B14578827805EB45052A440578067905EB450502EB450245794A
:20858000C07805EB450505EB8605C0EBC000284409E003EB430001EB410200EB4202C1EBF3
:2085A000C10505EB830086B2C3EBC3001044C1EBC1021044084487B2208A01F0F9FC002885
:2085C000B1D101F0FFFC001D7843059001F0FAFC001D00FB06F8E168A06900F041FA5FEAFD
:2085E000000AA0D1A17A607A81422ED84FF0120B08280ED8207A01280BD808F022F90546CC
:2086000009F0F8FC2A1A217A607A521E0B189A4201DA584687E765688B460090BDB1284654
:208620000AF0D9F908B110207DE7A978687808442978421800985844904206D16A79297977
:208640001144EA781144884201D007206BE7CDF80080CDE90176224603A90020059BFFF7BE
:20866000DCFB044D039AD9F8003068681118994209D805E01C0000204C0400204813002073
:20868000B2F5803F03D30420C9F800104BE7CDF80080CDE90176224604A9059BFFF7BDFBA2
:2086A000DDE90301884200D0FFDF0498696808446860C9F80000FF49012028700870504627
:2086C00031E72DE9F04707460C4608460AF05CF940B938460AF076F920B9F81C20F0030019
:2086E000B84202D01020BDE8F087F3484FF00008817889B14178824600EB4115B4F80090AF
:2087000015F8040F234600F00F000022294600F037FA060004D013E0A4F800800520E2E748
:2087200097B12188494501D90C260DE02878234600F00F003A46294600F022FA060005D0E3
:208740000C2E01D0A4F800803046CCE79AF801005446401CC0B28AF80100092801D184F8CC
:208760000180A078401EA070687800F0070101290BD0022903D0032918D0FFDFE4E7C00694
:20878000E2D46888FFF731FEDEE7CC48696806F01FF994F82901401CC0B284F82901012803
:2087A000D2D1C748407801F085FBCDE794F82B01401C8AF82B01C7E770B50D4604460AF0FE
:2087C000BFF818B928460AF0DFF808B1102070BD29462046BDE8704007F0FFBE70B504466F
:2087E00015460E4608460AF0ABF818B928460AF0CBF808B1102070BD022C03D0102C01D0BF
:20880000092070BD2A463146204607F009FF0028F7D0052070BD70B514460D4606460AF05D
:208820008FF838B928460AF0AFF818B920460AF0C9F808B1102070BD22462946304607F065
:208840000EFF0028F7D0072070BD10B596B004460AF09AF810B1102016B010BD0F208DF8AF
:2088600000000BA9684603F000FD0028F4D19DF834002070BDF836006080BDF83800A08088
:208880000020E9E770B505460C4608460AF09AF820B93CB120680AF077F808B1102070BD7F
:2088A000A08828B121462846BDE87040FEF78CB8092070BD70B504460D4608460AF040F8BC
:2088C00030B9601E1E2814D828460AF039F808B1102070BD032C01D9072070BD04B9FFDF58
:2088E000784800EB840050F8041C2846BDE870400847A4F120001F28EED829462046BDE893
:208900007040F9F70EBC70B504460D4608460AF03BF830B9601E1E280FD828460AF010F8AC
:2089200008B1102070BD012C03D0022C01D0032C01D1062070BD072070BDA4F120001F287E
:20894000F9D829462046BDE87040F9F76EBC05F06ABD892805D0032805D0022805D0012040
:20896000704710207047062070470320704710B596B003F06BFC52484178806803F064FEAD
:208980004F4801240C300178012916D13E218DF80010C0788DF8020010B1012803D005E000
:2089A0008DF8024002E000208DF80200684605F004FB10B10BA803F008FF02208DF82C0084
:2089C0008DF82D008DF82E000BA8FFF7C3F900B1FFDF8DF82C4003208DF82D008DF82E00C5
:2089E0000BA8FFF7B7F9002800D0FFDF34E72DE9F0410646022012B101EB4200401DC7B2B1
:208A00003068C01C20F0030232601BBB2A483B460921243809F085FE002408E0092C11D24C
:208A2000DFE804F005070509090B0B050500264804E0264802E0264800E0264809F090FE53
:208A4000054600E0FFDFA54200D0FFDF641CE4B2092CE3D3306800EB07103060BDE8F08137
:208A600038B50C00054604D0084609F069FF00BB02E0F62844D345E0606809F061FFC0B99E
:208A8000607800F00300012803D0022801D0072038BD69462046FBF78DFD0028F8D160789E
:208AA00000F0030002281CD19DF80000C8B1606812E014E0080000204C04002078050020BB
:208AC0001C00002090E30100771F0000F18E0000CB9F00002103010009F074FF08B11020ED
:208AE00038BD6089F8280BD82189814208D8617801F00301012905D1D73080B2A84201D97D
:208B0000092038BD002038BD2DE9F04397B0814646208DF82C0069460BA803F0A6FB00B10D
:208B2000FFDF43F2040600246D46DFF884801FE02F19B87DC10706D0400704D405EB4400F9
:208B4000C08800F0B9FB98F82A0178B1B87D80070CD505EB4400C08800F037FA30B105EB3A
:208B600044000026C188A9F8001005E0641CE4B29DF80400A042DBD817B03046BDE8F08313
:208B80002DE9F041044600201880601E1D4616460F46052800D3FFDF06482A4600EB8400EF
:208BA000314650F8043C3846BDE8F041184700004C04002078E301002DE9F0478A4698463C
:208BC00015460646032106F06CF80446304606F0DDF90C35AFB2002581462E4604B9FFDF47
:208BE000B9F1000F00D1FFDF04EB8A000189B94200D30125218CB94202D2BAF1060F00D307
:208C0000012638EA050104D0817A41F0020181720BE038EA060108D0817A41F004018172FF
:208C200014F8220F40F00400207005EA0600BDE8F0872DE9F0478246DDE90846174604F1A7
:208C40000C0099460D461FFA80F80023224639465046FFF7B1FF60B1A87800061BD426F8BB
:208C6000044C26F8029C504606F090F9060008D106E0072F01D01120D9E743F20400D6E720
:208C8000FFDF241D3046A1B205F0CCFA00B9FFDF504603F03DFC05EB8700062F0289A2EB14
:208CA0000801018103D2298CA1EB080028840020BDE72DE9F8431D4617460E46DDF82080C1
:208CC00006F064F9040019D03F1DB9B205F05AFA2860B0B1067120466A46296805F016FD35
:208CE000009800210A460180817003F0D1FC0098C01DC8F800000020BDE8F88343F202008D
:208D0000FAE7072E01D01120F6E743F20400F3E72DE9F04F0F46054687B0164650880321C7
:208D200005F0BFFF040000D1FFDF4FF000098DF80890A078400600D1FFDF042F53D3297861
:208D400041F30000401C06D162786B789A424AD12278120747D04FF0010B4FF0020814295D
:208D600039DA4FF6FF7A012933D0122902D0132931D11CE00C2F2ED1A17801F07F010129C0
:208D800029D0207820F00F00401C2070687860708DF808B0A888ADF80A00E888ADF80C004A
:208DA0002889ADF80E006889ADF8100016E0062F11D1207820F00F0020707188012009F042
:208DC0007CFD8DF80880ADF80AA0A888ADF80C0004E0062F0AD09DF80810B9B17088324663
:208DE00002A9F9F73AF907B0BDE8F08F207820F00F0020707188012009F05FFD8DF8088007
:208E0000A888ADF80A00ADF80CA0E7E70028EAD0768805A8009006AB062204213046FFF7CD
:208E200048FF00B1FFDF05980523042280F800B069784170A0F80280A0F804900621CDE994
:208E4000001021463046FFF7F4FE0028CBD0FFDFC9E710B501F0B6F80021FF4B0A4600BF0E
:208E600023F81120491C0829FAD3FB4A00F10C011032400011805180183090804D20D08007
:208E800011815181C1EBC100908110BD70B50C46897821F0FF01A170217821F00F0121703E
:208EA000012161700021616006F070F8050000D1FFDF284605F064F9E74910318989401A2E
:208EC00020852046BDE8704000F014BB70B50D46032105F0E6FE040000D1FFDFA07865F3DB
:208EE0000600A07070BD70470146012009F0E5BC3EB58DB20321284605F0D3FE040000D117
:208F0000FFDF2078002220F00F00207002208DF800004FF6FF70ADF80200ADF804006946B0
:208F20002846F9F79AF83EBD2DE9F84F05460C4600270078012192463E46B1EB101F00D094
:208F4000FFDF287A032809D0FFDF00BFAAF800600CB1278066800020BDE8F88FB5F80C801F
:208F6000702708F10A0086B2A4B16888A08068892081A4F806806888D5F8049004F10A05B1
:208F800005F0F2FF2A46072549464346009505F00BFCDBE7AAF80060DDE72DE9FC410F4676
:208FA0001C46164680460321089D05F07AFE010008D033463A464046CDE90045FFF739FE77
:208FC000BDE8FC8143F20200FAE7F8B50646A0F57F40FF3816D0304605F0C6FF040000D1E8
:208FE000FFDF204605F083FB050000D1FFDF204629466A4605F08AFB009CB4F80500E41CBA
:20900000052801D00120F8BD0321304605F049FE050000D1FFDF2079122807D120880C286B
:2090200004D1A87800F07F00022806D00023062204213046FFF7C0FDF8BD0023062205210D
:20904000F7E7F8B50446408805F08EFF050000D1FFDF6A462846616800F0CCF902460098C1
:20906000121F30F8031F458891421DD1042D1CD0052D27D0062D1DD0402D15D30E4628466A
:2090800000F0D4F908280FD0207820F00F00401C20F0F00010302070032020726581A6815F
:2090A000607840F008006070F8BD2246001D00F0C9F9F8BD636864880A46011D2046FAF7B3
:2090C000FDFEF8BD2246001DFFF722FEF8BD7FB50D460646032105F0E4FD04003AD020781D
:2090E00000F00F00012838D002A8009003AB0C2205213046FFF7DDFD002829D102981221CF
:209100000523017061781A46891C417008214180298881806988C180A9880181E988418173
:209120000C21CDE9001021463046FFF782FD00B1FFDFF02300223146012009F021FB2078E1
:2091400020F00F00401C20706078801C6070002004B070BD43F20200FAE71120F8E77FB563
:209160000D460646032105F09CFD040006D0207800F00F00012804D00820E9E743F2020001
:20918000E6E702A8009003AB062205213046FFF790FD0028DCD102981321052301706178BE
:2091A00041700221418085800621CDE900101A4621463046FFF73DFD00B1FFDF207820F084
:2091C0000F0020700020C3E72DE9F84F0F468346032105F066FD0546584605F0D7FE8046B6
:2091E0004FF0000A05B9FFDFB8F1000F58D1FFDF56E040466946002205F015F99DF8004066
:209200008146082C00D3FFDF05EB840609F108003189062C0144318102D2298C08442884C2
:20922000072C03D10AF1010000F0FF0AB07AC0070DD02146284600F0DFF840B9B07A20F095
:209240000100B072584684B3032C2FD0FFDFB07A81070AD502E00000A805002020F00200B8
:20926000B0722146584600F0D8F8062C18D895F82200410714D520F0040085F8220000242E
:2092800005EB8400817A4A0706D521F0040181722146584600F0C1F8641CE4B2062CEFD372
:2092A0007F1EFFB2A5D2504656E602E0FAF79DFECDE7FEF76EF8CAE710B5032105F0F1FC1E
:2092C000040000D1FFDF204600F014F9A07840F08000A07010BD10B5032105F0E2FC040013
:2092E00000D1FFDF00F06EFE218D0C30B1FBF0F0C0B210BD70B50D46032105F0D2FC04004B
:2093000000D1FFDF062D00D9FFDF2946204600F073F8002805D004EB85018A7A42F00102D9
:209320008A7270BD10B50446402801D2072010BD00F07CF8082802D04FF4445010BD00219B
:20934000774802E0491C082903D230F81120002AF8D1082903D020F81140002010BD042037
:2093600010BD10B5402801D2072010BD00F05EF8082805D06A4A002122F81010084610BDB7
:20938000052010BD2DE9FE4315460C00804606D02DB16088402804D20720BDE8FE83102000
:2093A000FBE7218811B300F041F8082820D002A80090228801AB07214046FFF77AFC002843
:2093C000EBD140462788019E05F0E0FD2A46072531463B46009505F020FA0298009023881E
:2093E000628807214046FFF7D8FDD6E70C20D4E70520D2E705F08AB9072904D0484A103278
:2094000032F8112000E0028D00EB81000089904201D2012070470020704710B5032901D077
:20942000FFDF10BDBDE81040FAF7A5BD014600203B4A02E0401C082803D232F810308B42D3
:20944000F8D17047F0B50F460646014687B014463846FCF7B1FBC0B2082842D10020ADF8D7
:20946000100003906088032105F01BFC050000D1FFDF00212846FFF7BFFF78B96088002100
:20948000FDF769FFADF81000024603A80090608805AB0021FFF70DFC00B1FFDF03980599B8
:2094A000CDE90010029404AB324638466168FDF7F7FAC0B205281BD2DFE800F0031A131575
:2094C0001300BDF8100000280BD003990423CDE90001608800222946FFF7ABFB002800D02A
:2094E000FFDF07B0F0BD607840F010006070F8E7FFDFF6E710B504462021083014F06DFDB2
:209500000748002110F1100004EB810330F81120491C1A810629F7D9208DA08410BD000061
:20952000A805002030B44FF0E02001234FF4006C0021C0F880C11D02C0F880511C06C0F8CC
:209540008041E84A82F80014D21E82F80014E64A82F80014E54A53609360C2F84011C2F8B4
:209560004411C2F84811C0F880C2C0F88052C0F88042C0F800C1C0F80041136030BC7047FD
:2095800070B401204FF0E023C6024FF0000CC3F880610402C3F880410506C3F88051D34A5F
:2095A00050609060D24801680029FCD1C2F840C1C2F844C1C2F848C1C3F88062C3F880423B
:2095C000C3F8805270BC70474FF0E0204FF40061C0F88012C910C0F880127047002804BF29
:2095E000C4487047012804BFC3487047022804BFC248704700B5FFDF002000BD08B5BB491B
:20960000002298B101282FD002281CBFFFDF08BD4FF48020C1F80803C1F84803B848026002
:20962000C1F84821B5480068009008BD4FF48030C1F80803C1F84803B24B1A60C1F8402102
:20964000B14BC1031960B149C1F808034FF0E0230012C3F88001AE480260C1F84021C1F858
:209660000022AC48027008BD4FF40030C1F80803C1F84803A8480260C1F844219E480068A4
:20968000009008BD70B5DFF864C2042600240125B0B101284CD002281CBFFFDF70BD9F4842
:2096A0004FF48022012BC0F8401518BFCCF80823C0F8404108BFCCF80423CCF8442370BD83
:2096C000881E20F07F40CCF840054FF48030CCF80803CCF84041CCF84403012B14BF0021DA
:2096E00001218C4B597089490D61DFF834C2CCF800408C4C4FF0020CC4F800C0DFF828C235
:20970000CCF80060DFF808C23D32CCF80020C1F800524FF0E0224FF4807CC2F880C2C1F8F1
:209720000403C2F800C10804804908601D7070BD7F4A4FF40030012BC2F8401518BFCCF89E
:209740000803C2F8404108BFCCF80403CCF8440370BD67480068704770B57648056877491B
:2097600075480860614CD4F84001002601280AD1D4F8080310F4803F05D04FF48030C4F8C2
:209780000803C4F84061D4F8440101280DD1D4F8080310F4003F08D04FF40030C4F808031D
:2097A000C4F84461012007F088FCD4F8480101280DD1D4F8080310F4802F08D04FF480204B
:2097C000C4F80803C4F84861022007F076FC5C48056070BD574810B5046858495648086025
:2097E0004C490878002808BF03201AD0464A4FF000401060454AC00BC2F8080303124FF066
:20980000E02C0020CCF88031414B1860C2F84001C2F8000208704A78002A1CBF48700020D5
:2098200001D007F04AFC4648046010BD4FF0E0214FF08070C1F8000270474FF0E0214FF0FB
:209840008070C1F8800270474FF0E0214FF40010C1F8000270474FF0E0214FF40010C1F8D5
:20986000800270472949012008614FF0E0210002C1F880027047410A43F609525143C0F359
:20988000080010FB02F000F5807001EB50207047430B48F2376C03FB0CF31B0C4FEA432CD4
:2098A000C1F800C0DFF89CC003FB0C0326484CF2F72C5843400D10FB0CFC0CEB432303F5D0
:2098C00080735B1213700A68104408607047194810B5046819491848086007F087FF184827
:2098E000046010BD0BE000E018E000E000B0004004B500404081004044B1004048B100403C
:2099000048B5004040B5004008F5014000800040408500402C00002044B5004008B0004055
:2099200004850040088500401085004004F5014004B00040100502400100000118050240D6
:2099400014050240F7C2FFFF6F0C010010B5EFF3108000F0010472B6EB484178491C417023
:209960004078012801D108F0A5FB002C00D162B610BD70B5E44CE07848B90125E570FFF79B
:20998000E5FF08F09FFB20B1002008F07BFB002070BD4FF080406571C0F80453F7E770B5BE
:2099A000EFF3108000F0010572B6D74C607800B9FFDF6078401E6070607808B908F07EFB75
:2099C000002D00D162B670BDCF4810B5C17821B100214171C170FFF7E2FF002010BD10B5D0
:2099E000044608F06FFBC849C978084000D001202060002010BD2DE9F05FDFF80C9342782E
:209A0000817889F80620002589F80710064689F8085000782F4620B101280FD002280FD0F5
:209A2000FFDF08F05CFB98B108F060FBA8420FD1284608F05FFB0028FAD047E00125F0E7BD
:209A4000FFF784FF08F03EFB0028FBD00225E8E701208407E060C4F80471AC490D600107EC
:209A6000D1F84412A94AC1F3423124321160A7494FF0020B34310860C4F804B3A060DFF893
:209A800090A2DAF80010C94341F3001101F10108DAF8001041F01001CAF8001000E020BFB1
:209AA000D4F804010028FAD0284608F023FB0028FAD0B8F1000F05D1DAF8001021F01001DB
:209AC000CAF80010C4F808B3C4F8047199F807004C4670B1307860B908F0F4FA064608F0D6
:209AE000E5FC6FF0004116B1C4E9031001E0C4E9030115B12771BDE8F09F01202071BDE8E3
:209B0000F05F00F0DFB870B5050000D1FFDF4FF080424FF0FF30C2F808030021C2F8001176
:209B2000C2F80411C2F80C11C2F81011764C617008F0CEFA10B10120E07060702846BDE83C
:209B4000704058E72DE9F0410125AF077D616E4CE079F0B1012803D0217A401E814218DAB7
:209B600008F0B0FA064608F0A1FCE179012902D9217A491C21720EB1216900E0E168411AA3
:209B8000022902DA11F1020F0EDC0EB1206100E0E060FFF7DBFE08F095FA10B13D61A57097
:209BA00000E0257000202072BDE8F0812DE9F05F5848D0F800B0574A574908321160840675
:209BC000D4F8080110B14FF0010801E04FF00008D4F8000100B101208146D4F8040108B18F
:209BE000012600E00026D4F80C0100B101208246D4F8100108B1012700E0002748EA0901C4
:209C000026EA010020EA0A00B84300D0FFDF0025B8F1000F04D0C4F80851012008F032FA6B
:209C2000DFF8E480B9F1000F13D0C4F8005198F8050020B188F80550002008F023FA98F840
:209C4000000030B108F03EFA18B1012088F8020020610EB1C4F80451BAF1000F0AD0C4F8E6
:209C60000C5198F80200464600B9FFDFB5703570FFF795FE37B1C4F8105198F8040008B12D
:209C8000FFF760FF2349091DC1F800B033E770B51D4DE87808B908F011FA01208407A061FA
:209CA000A87850B1D4F80C0120B9002008F022FA0028F7D10020C4F80C014FF0FF30C4F89A
:209CC000080370BD2DE9F0411926B507C5F808630124AC610020C5F80001C5F80C01C5F84B
:209CE000100108F0EFF9084F10B1BC702C6100E03C70FFF72BFE0549B87920310860C5F802
:209D000004636C6150E70000300000201805004010ED00E0100502400100000110B52020F0
:209D200000F075F8202000F07DF84449202081F80004434900060860091D42480860F7F7D7
:209D4000E1FA3F49C83108603F48D0F8041341F00101C0F80413D0F8041341F08071C0F81E
:209D60000413364901201C39C1F8000110BD10B5202000F04CF8324800210160001D01609D
:209D80002F4A481EE83A10602F4AC2F808032C4BC8331960C2F80001C2F860012B49086077
:209DA000BDE81040202000F03DB825492848EC390860704722492648E8390860704770B529
:209DC0001F4A8069E83A224911601F49D1F800610023204D1D4A5C1E1EB1A84206D300217D
:209DE0000FE0D1F8606186B1A84209D2C1F80031C1F860311460BDE87040202000F012B8F7
:209E00001168BDE8704014F01AB9FFDF70BD00F01F02012191404009800000F1E020C0F81C
:209E20008011704700F01F02012191404009800000F1E020C0F880127047000020E000E03B
:209E4000000602404413002000000240000402400100000100F001004FF0E0214FF00070D9
:209E6000C1F88001C1F88002384B802283F80024C1F80001704700B502460420344903E0B7
:209E800001EBC0031B792BB1401EC0B2F8D2FFDFFF2000BD41F8302001EBC00100224A713C
:209EA0008A7101220A7100BD294A002102EBC0000171704710B50446042800D3FFDF24488A
:209EC00000EBC4042079012800D0FFDF6079A179401CC0B2814200D060714FF0E0214FF0BB
:209EE0000070C1F8000210BD2DE9F0411948056818491948083108601448042690F80004E0
:209F0000134F4009154C042818D0FFDF16E0217807EBC1000279012A08D1427983799A42EF
:209F200004D04279827157F8310080472078401CC0B22070042801D300202070761EF6B276
:209F4000E5D20448001D0560BDE8F08119E000E0C8050020100502400100000144000020E3
:209F60000F4A12680D498A420CD118470C4A12680A4B9A4206D101B508F066FAFFF715FFC0
:209F8000BDE80140074909680958084706480749054A064B7047000000000000BEBAFECA35
:209FA0009800002004000020481200204812002018B1172802D20720704717200849088007
:209FC0000020704706480088704770B50C46054600F0B5FB21462846BDE8704001F0B0BC34
:209FE00046000020FE4B586019721A80C90013F0F4BF10B504460E2113F0CDFF1720208171
:20A00000207B40F00A00207310BD4FF6FF720280032008F052BC7047027BD30701D1920731
:20A0200003D4408908800020704705207047027B920700D54181704701460020098847F2B0
:20A04000FE12114200D00120E549497A002901D040F00800704700B50346007BC00701D0C1
:20A06000052000BD19811846FFF7E6FFC00703D0187B40F004001873187B40F001001873F0
:20A08000002000BD027B520700D509B10089704717207047027B61F3C302027370472DE978
:20A0A000F04F0E46017804464FF0010B0BFA01F047F2FF1100EA010961681D464FF6FF73E9
:20A0C000088887B09646984206D0B9F1000F07D047F2FE12104203D0012007B0BDE8F08F33
:20A0E00040EA090008804FF0000A8DB185F800A02278002705200221102A72D2DFE802F0C1
:20A10000710D323B506A727C50C7C399CBFDFCFB20780B28ECD00420DFE76068B4F80C8009
:20A12000007B80077ED5B8F1170F4BD3FFF74AFF4045FAD360684089172801D3404541D111
:20A14000287820F03F00801C2870A5F80180032030806168A1F80A806068017B21F00201A7
:20A16000017334E104212970A189A5F80110E189A5F8031085E0A08A3188C01D1FFA80F8F0
:20A180004145D2D3062005F8010BA0892880E0896880208AA88007200090A38AA2693EE064
:20A1A000082A10D008212970A189A5F80110E189A5F8031030806A1D694604F1100006F0F8
:20A1C0004EFA10B1CCE01021EDE730889DF80010084456E00A202870A089A5F8010003203A
:20A1E00008E006E10C212970A189A5F80110E189A5F803103080A8E0A089B6F800C00BEB13
:20A2000040021FFA82F8C44578D3B8F1050F75D30E222A70CDF800B0226903EA400320896D
:20A2200080B200E079E0714600F096FAA6F80080CDE06B48427A002A6FD0521E427240680D
:20A24000227B236900EBC205AA882868D3F800C01044A0F1080240F808CC586850608DF8E6
:20A2600000108DF801A028680290A888ADF8040000216846FBF758FAA5F804A0002E01D05A
:20A2800050463080A3E0287840F080012970287840F040012970E0893188C01C1FFA80F8D2
:20A2A00041455DD3287820F03F0012302870A189A5F80110032000902089E38980B2714696
:20A2C000226900F049FAA6F80080287841063CD500067CD58DF800B08DF801A03188CDE989
:20A2E000025A091DDFF8F8800420ADF80410049098F8080003E055E04BE02AE030E08DF8A2
:20A30000140000216846FBF70FFA074630880C303080022F02D0DFB36EE047E09DF814209B
:20A32000D8F8041098F80830404601EBC2019A4216D28A88A2B9427A521C88F809200D60CB
:20A3400030888880A6F800A056E06168A08988803DE0218A3288491D1FFA81F8424501D2FB
:20A36000042749E0297821F03F0116312970A189A5F80110E189A5F8031000902089238ADF
:20A3800080B27146626900F0E7F9A6F80080DCE71DE0287820F03F0018302870207B687019
:20A3A000318014E060680188090401D4052723E0C088A189884201D006271DE01E20287089
:20A3C000A6F800B06068018821F400410180B9F1000F11D00248002200888300032001E0F2
:20A3E000E8050020A16808F0CBF961682078887007E0A6F800A003276068018821EA09017D
:20A400000180384669E62DE9F04F87B09B46119C0D46030016461AD03078C10703D000F005
:20A420003F00192801D9012100E000212046FFF729FE98420BD32088A0F57F41FF3906D059
:20A440003078410601D4000603D5082045E6072043E600208DF800008DF8010030785F1E67
:20A4600000F03F0C0122981E4FF0050A4FF00209B9B2BCF1200F76D2DFE80CF08C10755F6E
:20A480007569758D759E75B775BC75CA75D675E3757575F375F175F075EF758C052B79D18E
:20A4A00004208DF80000A0788DF804007088ADF8060030798DF80100707800F03F000C2835
:20A4C00029D00ADCA0F10200092863D2DFE800F0126215621A621D622000122824D004DCD9
:20A4E0000E281BD01028DAD11BE016281FD01828D5D11FE02078800701E020784007002844
:20A5000048DAF0E020780007F9E72078C006F6E720788006F3E720784006F0E72078000644
:20A52000EDE72088C005EAE72088C004E7E720888004E4E720884004E1E72078800729D507
:20A54000032B27D18DF800A0B6F8010082E0217849071FD5062B1DD381B27078012803D08A
:20A56000022817D102E0CBE0022000E0102006228DF8002072788DF80420801CB1FBF0F280
:20A58000ADF8062092B242438A4203D10395ADF80890A8E07AE02078000777D50721B8B253
:20A5A0008DF800108108ADF80410B0EB810F6DD10295ADF8062096E02178C90666D5022BB3
:20A5C00064D381B208208DF80000707802285DD3B1FBF0F28DF80400ADF8062092B2424377
:20A5E0008A4253D1ADF808907CE0207880064DD5092003E02078400648D50A208DF80000DC
:20A60000A088ADF80400ADF80610ADF8082069E02078000672D50B20ADF804108DF800004A
:20A62000ADF8062002955EE02188C90566D5022B64D381B20C208DF80000707804285DD33C
:20A64000C6E72088C00459D5012B57D10D208DF80000A088ADF8040045E021E026E016E0BA
:20A66000FFE72088800449D5052B47D30E208DF80000A088ADF80400B6F803005B1FADF80C
:20A680000830ADF80600ADF80AA02BE036E02088400433D5012B31D10F208DF8000022E08F
:20A6A000208800042AD4B6F80100E080207B000724D5032B22D3307800F03F001B2819D020
:20A6C00011208DF80000208840F40040A4F80000B6F80100ADF80400DB1E0320ADF80630BD
:20A6E000ADF80800039559466846FBF71DF8050008D016E010208DF80000E9E7072510E04D
:20A7000008250EE0307800F03F001B2809D01D2807D00320109908F0D0F8208800F40040A7
:20A720002080207B400708D52046FFF785FCC00703D1207B20F0040020732846CDE400B52C
:20A7400087B0032806D18DF80000019100216846FAF7EAFF07B000BDF8B51C4615460E46CE
:20A76000069F04F013FC2346FF1DBCB231462A46009404F052F8F8BD2DE9FF4F8FB00546E2
:20A78000DDE91C471198DDF880B0082805D0E86901F031F950B11020CDE02088092140F091
:20A7A000100020808BF80010022017E0E96901208871EA694FF420519180E9698872E9691B
:20A7C00042F601000881E969002088732088112140F0200020808BF8001004208146387852
:20A7E0000B900A2038704FF0020A05F1180056460D9001F0A1FB4C467CE0119810280DD120
:20A80000022E0BD0AAEB0400801C80B200902198022380B206AA1F9901F0DDF8BDF81A1019
:20A820001298814203D9F648007A109004E003D10B9808B1387031E02198CDF800A080B25A
:20A840004FF002030DF11A021F9901F0C4F81E980088811BA1EB090083B2C9F1FF009842FE
:20A8600000D203460AEB090292B20DF13008029200202199CDF81480CDE903101F99109853
:20A88000CDE9000195F82010BDF81A00002201F0D5FB387050B1C0B2832803D0BDF81A002A
:20A8A000288334E0022013B0BDE8F08FBDF83000022E00EB0901CCB20CD09BF80110A142E5
:20A8C00005D1BDF82410814206D0FF2C04D09BF801401EE08BF80140C9480068017805296B
:20A8E00002D1BDF81A1081800AEB04001FFA80FA301986B206AB219A10990D9801F01FFBD3
:20A9000028B91E980088801BA042BFF676AF022E12D0119810280BD1AAEB0400801C80B28B
:20A9200000902198022380B206AA1F9901F053F81E980680002038700020B4E72DE9F843C3
:20A940009446089E02460027F06BB0B3521F94B2B6F84220A2F57F45FF3D05D08518AD8845
:20A960002A44921D95B200E000252A19B6F840800832424522D84219BCF8010022F8020BCB
:20A98000BCF8030022F8020B98B222F8024B8946904604F0E9FA4FF00C0C494642462346D5
:20A9A000CDF800C003F000FFA6F84250F16B00202944A41D2144088003E001E0092700E085
:20A9C00083273846BDE8F88310B50B88B0F840409C420CD9C46BE018048844B1848824F420
:20A9E0000044A41D23440B801060002010BD822010BD2DE9F0478AB000259046894682467B
:20AA0000ADF81C5007274DE0069806888088000448D4A8F8006008A8CDE90450CDE9007591
:20AA2000029503954FF4007300224946304601F005FB04003DD1BDF81C00ADF824000699CE
:20AA400008888A88B04216D1130414D40595CDE9007522F4004202950395049542F480439E
:20AA60004A88494601F0CDF804000BD10698818841F40041818006AA09A95046FFF7A4FF30
:20AA80000400DCD00595CDE9007506980395029504950088BDF820300022494601F0B1F803
:20AAA000822C06D106AA07A95046FFF78DFF0400AAD0ADF81C5004E00698818821F4004129
:20AAC000818006AA07A95046FFF77EFF0028F3D0822C03D020460AB0BDE8F0870020FAE763
:20AAE00030B50446C06B85B0002578B10C208DF80000B4F84000ADF80800E06B03910190BF
:20AB000000216846FBF78DFC8DF8005044F83C5F4FF6FF70E080A58005B030BD2DE9F0411D
:20AB200005460F46E96B0020069E1446002911D0012B0FD1324639462846FFF75AFF002811
:20AB400008D1002C06D0324639462846BDE8F04100F060BFBDE8F081F8B51D46DDF818C0FD
:20AB6000DDE907634C1DBCF800E0A4B2099FA64501D20720F8BDACF80040172403F8014BAA
:20AB800018805A80052000900B46B8B22A46314600F021FF0020F8BD70B50D4604464C21D8
:20ABA00013F01BFA04F1080044F81C0F00204FF6FF712062E184A08425711720208514F8BB
:20ABC0002C0F40F00A00207070BD4FF6FF720280042007F072BE30B585B00D460446FFF713
:20ABE0007FFF208F38B101208DF80000002168460195FBF716FC002020636063A0638BE755
:20AC0000F405002090F84820920703D440880880002070470620704790F84820920701D558
:20AC2000A0F8461070470146002009880A0700D5012011F0F00F01D040F00200CA0501D5C8
:20AC400040F004008A0501D540F010004A0501D540F02000090501D540F04000704700B5E6
:20AC6000034690F84800C00701D0062000BDA3F844101846FFF7D7FF10F0760F05D093F842
:20AC8000480040F0040083F8480013F8480F40F001001870002000BD90F84820520700D55F
:20ACA00011B1B0F8440070471720704710F8482F61F3C302027070472DE9FF4F9BB00600CB
:20ACC000DDE92CB4289F1E9D2A9B25D02878C10703D000F03F00192801D9012100E00021EA
:20ACE0002046FFF7D9FFB04216D3287841060FD400F03F011E2909D0218811F47F6F0BD1B3
:20AD00003A884AB1A1F57F42FF3A05D0010606D500F03F00122802D004201FB0C4E5F84917
:20AD20001C984FF0000908728DF818908DF83C900FAA0A602B9A4A60ADF81C90ADF85090B7
:20AD40002A789A4602F03F0C0420711F04F118034FF007084FF0030E1693BCF11F0F7DD2FF
:20AD6000DFE80CF07C7C107C257CA97CFD7CFC7CFB7CFA7CFD7CF97C7C7CF87CF77C7C7C23
:20AD80007C7CF60094F84820B5F80110920701D5032E02D08DF8180039E34FF40060ADF8A0
:20ADA000500061808DF83CE0ADF84010F1E2052EF0D1B5F801002083ADF81C00B5F8031033
:20ADC000618300286BD0884269D80020A07220814FF6FF706084169801F0AEF805208AF8CA
:20ADE00000000220804601900AAB5A461C99169801F0A5F898BB9DF82E00012804D002215E
:20AE00008AF80110102003E001208AF8010002200490002203A90BA805F021FCF0BB9DF85F
:20AE20000C00049981423CD13A88801CA2EB0801814236DB019800901FFA8BF002230DF1F1
:20AE40002A02299900F0C7FD019808F10208801C81B2019117AA03A90BA801E0B8E223E0B5
:20AE600005F0FDFB019900911FFA8BF09DF80C3017AA299900F0AFFD9DF80C000AAB08EBED
:20AE800000011FFA81F801995A46084480B201901C99169801F053F8002801E001E095E0D8
:20AEA000B7D0B8F1020F03D10A208DF818006DE2A7F800806AE2072EFFF46CAFB5F801000B
:20AEC0002083ADF81C00B5F80310618300287DD088427BD80120A072B5F805002081002032
:20AEE000A073E06900F087FD78B9E16901208871E2694FF420519180E1698872E16942F617
:20AF000001000881E16900208873F01F60841D98A062A4F82480169801F00EF88AF80080B1
:20AF20000120804602900020ADF82A002BE000BFB8F1010F1DD0E0698079012803D1BDF845
:20AF40002800ADF80E00029800901FFA8BF007E02BE2ADE13BE1DCE025E29FE076E03BE007
:20AF6000042303AA299900F036FD0298001D80B20290BDF82A00ADF80C00ADF80E0008F161
:20AF800004001FFA80F80AAB5A461C99169800F0D6FF20B93988A1EB08000428C8D2B8F102
:20AFA000010F81D0E0698079012805D0BDF82810A1F57F40FF3803D1BDF82800ADF80E0013
:20AFC000029800901FFA8BF0042300E014E003AA299900F000FD6BE7072E02D0152E7FF44D
:20AFE000D9AEB5F801002083ADF81C00B5F80320628308B1904201D90120CBE60120A07299
:20B0000000202081A073052E07D0C8B2691DE26905F006FB00287FF447AF4FF6FF706084E8
:20B02000299803A9029781E8010C06A814A9CDE900102878002300F03F0220461C99FFF75E
:20B040009BFB8146208BADF81C009FE1032ED4D14020ADF85000B5F801002083ADF81C006A
:20B060000DF1300C01230021CDF814C00293CDE903B1299A1C99CDE9001239880022491E2F
:20B080008BB294F8201000F0D9FF8DF8180090BB0B208AF80000BDF8300038E0052EACD1AD
:20B0A0008020ADF85000B5F801002083B5F803106184ADF81C00B1F5007F02D98DF8188027
:20B0C000A5E141F47C4262840DF1280800214FF0010CCDE90418CDE902CB299B1C99CDE9F2
:20B0E00000133988491E8BB294F8201000F0A6FF8DF8180030B18328A7D10220D6E000000E
:20B10000F40500200D218AF80010BDF82800401C3BE1D10901EB41030EEB8301B14204D9AA
:20B1200051067FF56AAF00202FE1B5F80100ADF81C002A78520609D506228DF83C202A7809
:20B14000120605D500208DF83C0043E18DF83C804FF0030C4FF00008CDF808C0CDE903B824
:20B16000DDE91C23CDF81480CDE90023A6EB010B1FFA8BF394F82010424600F042FD8DF86C
:20B1800018008DF83C80297849060DD52088C00506D5208BBDF81C10884201D1C4F82880B0
:20B1A00040468DF81880F0E0832801D14FF002094FF48070ADF85000BDF81C002083A4F81D
:20B1C00022B01D98A0620320A0841321DAE0052EFFF413AFB5F80100ADF81C00B4F840204E
:20B1E0007AB3A2F57F43FE3B2CD008228DF83C204FF0050C4FF00008CDF808C0CDE903B8F4
:20B20000DDE91C23CDF81480CDE9002389B241F40043B5F8032094F8201000F0F2FC8DF855
:20B220003C804FF400718DF81800ADF85010832813D010B3B4F84010A1F57F40FE3809D04B
:20B24000E5E0FFE70B228DF83C204FF6FE72A4F84020CDE7A4F84080D9E05B462A46009416
:20B2600030461D99FFF76AFB8DF8180008B183284CD1BDF81C0020833FE75B462A460094EA
:20B2800030461D99FFF75AFB8DF81800F0BBB4F84210E06B299A431801A8009780E8040CD0
:20B2A0005A88998833F8060BFFF756FC81466DE095F80180022E75D15FEA080002D0B8F1A3
:20B2C000010F6FD109208DF83C0007A800908DF8408094F82010434600222046FFF71EFCD3
:20B2E0008DF8410000218DF8421058B9B8F1010F15D0B8F1000F05D1B4F84010A1F57F4002
:20B30000FF380CD0B4F8400048B100E03EE000208DF83C004FF48060ADF850000EE00FA899
:20B320002B99FBF77EF8814600208DF83C004FF48060ADF85000B9F1020F06D0F8480068E8
:20B34000807928B18DF8180028E0A4F8188043E0B9F1000F03D081208DF818003CE007A88A
:20B36000009094F82010434601222046FFF7D6FB8DF8180059462046FFF7B2FB9DF81800B6
:20B3800020B919218AF80010012038809DF83C0020B10FA82B99FBF744F88146B9F1000F64
:20B3A00032D019E016E00620F4E42078000711D5012E0FD10A208DF83C00E088ADF84000D2
:20B3C0005946042007F079FA0820ADF85000AAE65106E9D54FF004092088BDF8501008432A
:20B3E0002080BDF8500080050CD5B4F84010A1F57F40FE3806D11D9820631E986063268786
:20B400004FF00309484688E49DF8180078B101208AF8000029788AF80110BDF81C10AAF8B7
:20B4200002109DF818108AF80410052038802088BDF8501088432080E4E72DE9FF4F97B02C
:20B44000804601780120DDE926A488404FF209010840ADF8200021889B46A1F57F424FF0BC
:20B460000009FF3A02D028B1080703D501201BB0BDE8F08F249E0020054630701999189AB7
:20B480000988ADF84010A6498DF81C000A728DF82C000BA808602598486098F80000012830
:20B4A00037D0022809D003287ED1307820F03F001D303070B8F80400E08098F80000022856
:20B4C00004D1307820F03F001B30307094F84800000769D513AB0020CDE904030721CDE923
:20B4E000001B0322CDE9022ABDF8400094F82010C01E83B2B8F80400002200F09FFD0028DC
:20B50000D2D1B8F80400A6F80100BDF84C00C01C03E198F805108DF81C1098F80400012861
:20B5200006D04FF4007902282BD00328BCD171E12088B8F8087010F40060ADF8200033D04E
:20B54000172F1CD3FEF73EFDB84218D3B4F84600172801D3B84212D1307820F03F00C01CEC
:20B560003070A6F801700320ADF84000A4F8467094F8480020F0020084F848006CE10525A1
:20B5800085E1208808F1080700F4FE60ADF8200010F0F00F1ED010F0C00F03D03888228B82
:20B5A0009042ECD1B1B900E06BE1B878C00711D00020B9680290CDE9030107210590CDE98E
:20B5C0000010FB88BA8894F82010388800F019FB0028D4D1BDF8200080284CD006DC102896
:20B5E0000DD020280BD040288AD124E0B0F5807F6AD048457ED0B0F5806F97D1E2E0C00647
:20B6000001D5082000E01020814605208DF82C00002008A9ADF8300001AB009110AA07A833
:20B6200083E80508CDE9046A3B884A4607212046FFF7A2F8A8E09DF81C004FF00A0900284A
:20B640009CD113ABCDE904030721CDE9001B0122CDE9022ABDF8400094F82010401E83B2C0
:20B66000208B002200F0EAFC8DF81C000B203070BDF84C001EE09DF81C004FF00C0900288F
:20B6800021D115ABCDE904030721CDE9001B0122CDE9022ABDF84000628C401E83B294F83B
:20B6A0002010208B00F0CAFC8DF81C000D203070BDF85400401CADF8400005208DF82C006B
:20B6C000208BADF83000C7E03888B4F818C060457FF455AF9DF81C004FF0120900281ED1C1
:20B6E000A06AB8B1B878C0073FF449AF0020B968029000E016E0CDE9030107210590CDE9DF
:20B700000010FB88BA8894F82010604600F079FA8DF81C00132030700120ADF840009BE09A
:20B72000F4050020B7F800C0208B8445D0D19DF81C004FF016090028E06B06D0F0B3002051
:20B74000ADF808004FF6FF7729E078B1B978C907BED1B4F8421010AACDE9002BCDE9026A04
:20B7600043185A88998833F8060B0BE0B878C007BAD010AACDE9002BCDE9026ABA88F98843
:20B780006046BB68FFF7E8F9050065D0072D79D07DE00F4605AA02A92046FFF715F9B4F830
:20B7A0004220BDF808108A4201D00028F1D0B4F84210E26B00201144088000E04CE0A4F8E4
:20B7C000427049E09DF81C004FF0180940B1208BD0B13888208351462046FFF781F93BE075
:20B7E00004F118000090237E94F8201001222046FFF794F98DF81C000028ECD119203070E4
:20B800000120ADF84000E6E7052551462046FFF767F93CE0208800F40070ADF8200048455E
:20B820002FD1B4F84000A0F57F41FE3990D1D8F808004FF0160958B1E063B8F80C10A4F845
:20B8400040104FF6FF71A4F842100021018003E04FF6FF70A4F84000BDF8200030F47F6107
:20B860001AD0782300225146042006F089FF98F8000020712088BDF82010084320800EE061
:20B8800000E007252088BDF8201088432080208810F47F6F1DD03EE02188814321809DF85C
:20B8A0002C0028B16F4841680BA8FAF7BAFD05469DF81C000028EAD086F80190012030701A
:20B8C000208B70809DF81C0030710520ADF84000DDE7208FF8B119990988ADF84010DDE957
:20B8E000242302A9059481E80C0410AACDE9002BD4E90C231899FFF7DFF9054601208DF84D
:20B900002C0000210BA8CDF830A0FAF78AFD00B105460020208794F8480040070AD52046F7
:20B92000FFF781F910F0760F04D114F8480F20F0040020701998BDF840100180284696E516
:20B9400000B585B0042807D102208DF80000019100216846FAF765FD05B000BD10B5414ADC
:20B9600003781168012B02D0022B2BD112E00B780BB1052B01D104230B701368818899803A
:20B980001168C388CB801368018919811168408948810FE083888B801168C388CB8013685F
:20B9A00001891981136841895981116883898B8100690861D2E90001FAF733FD022803D007
:20B9C000002800D0812010BD832010BDC06B002800D001207047F8B51C4615460E46069F33
:20B9E00003F0D4FA2346FF1DBCB231462A46009402F013FFF8BD8178012909D10088B0F535
:20BA0000205F03D042F60101884201D10020704707207047F0B589B0002415460E4607464B
:20BA2000ADF8184011E0079801882980811D0294CDE9034107210594CDE9001483884288B9
:20BA40000088314600F0DDF830B907AA06A93846FEF7BAFF0028E6D0822800D1002009B07B
:20BA6000F0BD0000F405002010B58B7883B102789A4205D10B885BB102E08B79091D4BB131
:20BA80008B789A42F9D1B0F801300C88A342F4D1002010BD812010BD072826D012B1012A78
:20BAA00027D103E0497801F0070102E04978C1F3C20105291DD2DFE801F00318080C1200C1
:20BAC0000AB1032070470220704704280DD250B10DE0052809D2801E022808D303E0062843
:20BAE00003D0032803D005207047002070470F2070478120704710B513880B800B781C06F4
:20BB00001FD5F64CA47A844204D843F010000870002010BD94682478C44064F304130B7002
:20BB20001378D17803F0030341EA032140F20123B1FBF3F403FB1411926800FB0120401C6B
:20BB400010BD906810BD37B5BDF8041011809DF8045029061BD5E14901239468897A8142F5
:20BB600009D8FE280FD1E80602D58B405B1E00E00023237007E0217883409943C5F3001355
:20BB8000834019432170107820F0100010703EBD2DE9F0410746C81C0E4620F00300B04201
:20BBA00002D08620BDE8F081082A01D90E20F9E7CA4D002034462E60AF802881AA72E88042
:20BBC0001AE0E988491CE980810614D4E17800F0030041EA002040F20121B0FBF1F201FB48
:20BBE0001201206800F021FB2989084480B22881381A3044A0600C3420784107E1D400200A
:20BC0000D0E72DE9FF4F87B01646DDE9147A8046994623F4404500F0F8FA04000BD0207888
:20BC200000060AD5AD48817A0898814205D887200BB0BDE8F08F0120FAE7224601A90898B5
:20BC4000FFF759FF834600208DF80800072F1BD0012221463846FFF71FFF0028E8D120786A
:20BC6000400611D502208DF80800BDF80400ADF80C80ADF80E00ADF810601698ADF8125082
:20BC8000CDF818A0ADF814005FEA094004D500252E46A84601270CE02178E07801F0030182
:20BCA00040EA012040F20122B0FBF2F1804602FB11875FEA494009D5B84507D1A1782079C4
:20BCC00001F0030140EA0120B04201D3BE4201D90720ADE7A8191FFA80F9B94501D90D2071
:20BCE000A6E79DF8080020B102A8FAF798FB00289ED1B84507D1A0784FEA192161F30100CF
:20BD0000A07084F80490199800B10580189850EA0A0028D0189830B10BEB06002A46189982
:20BD200012F0C2F80FE017980BEB060880B25746169E03F019F92B46F61DB5B2394642462B
:20BD4000009502F031FD224601A90898FFF7D3FE9DF80400224620F010008DF80400019971
:20BD60000898FFF7F0FE002062E72DE9FF4FDFF86C9182461746B9F80610D9F8000001EBF5
:20BD8000410100EB810440F20120B2FBF0F187B000FB11754E46DDF854802946089800F01C
:20BDA00044FA316832898B46611A0C3101441144B38889B28B4201D8842039E70899CEB2CD
:20BDC000310603D5B10601D5852031E7B9F806C00CF1010C1FFA8CFCA9F806C0169909B118
:20BDE000A1F800C0B10602D5C4F8088007E0104480B2A9F80800191A01EB0B00A060224670
:20BE0000FE200899FFF79FFEE77025712078390A61F301002A0AA17840F0040062F30101DB
:20BE2000A17020709AF802006071BAF80000E08000252573300602D599F80A7000E001270D
:20BE4000B00601D54FF000084E4600244FF007090FE00295CDE903580595CDE90095F08814
:20BE60002146149B0A9AFFF7CCFE0028A5D1641CE4B2BC42EDD30020DAE62DE9F0478046E3
:20BE800000F0C3F9070005D000264446134D40F2012916E00120BDE8F087204600F0B5F977
:20BEA0000278C17802F0030241EA0222B2FBF9F309FB1321006800F0B8F93044641C86B283
:20BEC000A4B2E988601E8142E7DCA8F10100E8802889801B288100203870DCE700060020EF
:20BEE00020B1401E10809170002070470120704710B5D54904460088CA88904201D3822084
:20BF000010BD096800EB400001EB80025079A072D08820819178107901F0030140EA0120A4
:20BF2000A081A078E11CFFF7E6FD20612088401C2080E080002010BD0121818270472DE98E
:20BF4000FF4F83B04FF6FF780546A3F8008040681F4680788DF8060068680088ADF80400AD
:20BF600000208DF80A00A88A2C88A04200D30446AC8242E0A88A401CA882701D6968FFF7D1
:20BF800073FDC0BB3988414501D1601E38806888A04237D3B178307901F0030140EA012970
:20BFA00001A9701DFFF760FD28BB698941452ED0002231460498FFF76FFDE0B969894945EE
:20BFC00019D10598D5F810B0B5F80CC0D6F808A080B2CDF800C002F0C7FFDDF800C05946BB
:20BFE0000CF1070C1FFA8CFC52464B46CDF800C002F09DFB58B1641CA4B2204600F005F925
:20C000000600B7D1641EAC82822007B011E67C807079B871F088B8803178F07801F00301CE
:20C0200040EA01207881A7F80C90287A324607F10801FFF760FD38610020E6E72DE9FF4F29
:20C0400087B01C46DDE9158B91460F46DDF864A0079800F0DAF8050008D02878000607D51C
:20C060007948807AB84203D88720E1E50120DFE5C9F309062A4601A93846FFF73CFD0746FF
:20C08000149807281BD000222946FFF705FD0028EBD12878400612D501208DF80800079853
:20C0A000ADF80C00BDF80400ADF80E00ADF81060ADF8124002A8FAF7B2F90028D5D12978A2
:20C0C000E87801F0030140EA0121AA78287902F0030240EA02204E4507D0B1F5007F04D94D
:20C0E000611E814201DD0B20A2E5864201D907209EE5801B85B2A54200D92546BAF1000F6B
:20C1000001D0AAF80050189818B1B9192A4611F0CBFEB8F1000F0ED017983E4480B2444654
:20C120005F4602F033FF2146FF1DBCB232462B46009402F072FB00207AE52DE9F0411D4640
:20C1400017460E4600F061F8040008D02078000607D53D48807AB04203D8872022E5012074
:20C1600020E5224639463046FFF7C5FC65B12178E07801F0030140EA0120B0F5007F01D862
:20C18000012000E00020287000200BE52DE9F0411D4617460E4600F038F8040008D02078E7
:20C1A000000607D52848807AB04203D88720F9E40120F7E4224639463046FFF7C4FCFF2DA7
:20C1C00014D02178E07801F0030240EA022040F20122B0FBF2F302FB130015B900F2012072
:20C1E00080B2E070000A60F3010121700020D9E410B50C4600F009F828B1C188218040796C
:20C20000A070002010BD012010BD0F49CA88824209D340B1096800EB40006FF00B0202EB03
:20C2200080000844704700207047C0B2820609D4000605D50448807A4843401C80B27047D7
:20C2400008467047002070470006002010B506F01BFD05F088FFF6F7D7FD10F011FE06F0C7
:20C26000EBFBBDE8104006F09DBC10B50C4601F0A4FE80B3204600F0A8FA68B322780F2AD1
:20C2800009D0102A07D0022A05D0032A03D0142A2ED0FFDF1DE0A0781E282DD00EDC0C2823
:20C2A00024D008DC092827D2DFE800F013261726261E1E1A1C0012281ED11BE0302819D052
:20C2C0001ADDA0F13A00032816D2DFE800F011150B00002010BD13E010E043F20200F9E7BA
:20C2E0000420F7E70D20F5E70F20F3E70820F1E71120EFE70720EDE70320EBE7FFDFE8E786
:20C30000FFDFE6E700F061BA70B50346002002466FF02F050EE09C5CA4F130060A2E02D340
:20C320004FF0FF3070BD00EB800005EB4000521C2044D2B28A42EED370BD30B50A240AE0BA
:20C34000B0FBF4F304FB13008D18303005F8010C521E1846D2B2002AF2D130BD30B50023F6
:20C360004FF6FF7510E0040A44EA002084B2C85C6040C0F30314604005EA00344440E0B21B
:20C380005B1C84EA40109BB29342ECD330BD000010B50AF04CF8042803D00AF048F8052831
:20C3A00002D108F05FFD50B90AF0FEF8032803D00AF000F9032804D107F0EFFC08B10120B0
:20C3C00010BD002010BD70B50C460546062102F068FC606008B1002006E00721284602F05D
:20C3E00060FC606018B101202070002070BD022070BD2DE9FC470C4606466946FFF7E3FF8D
:20C4000000287DD19DF8000050B107F022FCB0427CD0214630460DF020F9002873D115E069
:20C4200008F039FAB04271D0214630460BF0CAFF002868D1019D95F8C000503518B9687E75
:20C4400008B1012000E00020804603E0019D95F8698050354FF0010A95F835004FF000096C
:20C46000A0B195F83600800710D584F8019084F800A084F80290A68095F83710A171298F41
:20C480002181698F618185F835903CE0304602F07DFD070000D1FFDF384601F078FF10F044
:20C4A000FF0008D084F801900D212170A680E08084F802A027E0304602F056FD070000D19B
:20C4C000FFDFB8F1000F21D0384601F0F0FFB8B19DF8000038B90198D0F8E4004188B14287
:20C4E00001D180F80090304607F075FA84F801900A21217084F80290A680A97EA17100E070
:20C5000004E085F819900120BDE8FC870020FBE71CB56946FFF757FF00B1FFDF684601F0CC
:20C52000A0FDFF4900208968A1F8C2001CBD2DE9FC4104460E46062002F05EFB05460720FD
:20C5400002F05AFB2844C7B20025A8463E4417E02088401C80B22080B04202D34046A4F864
:20C56000008080B2B84204D3B04202D20020BDE8FC816946FFF727FF0028F8D06D1CEDB24D
:20C58000AE42E5D84FF6FF7020801220EFE738B54FF6FF70ADF800000DE00621BDF8000083
:20C5A00002F091FB04460721BDF8000002F08BFB0CB100B1FFDF00216846FFF7B8FF00286E
:20C5C000EBD038BD2DE9F041D6A00679076807F06FFA0EF047FCD54C4FF004081020A4F827
:20C5E000388060874FF6FF70A4F85600002584F85850A4F85A0084F8315004F8345BCB491B
:20C6000004F8065C25702572C4F809703D316673481E0CF051F8A5731B2020824FF4A4711C
:20C620006182A082E1820A21217684F819800321A176E1760E212177072161770621A17723
:20C64000E1772084BDE8F08170B5B54C0D466060217007F0A8F9FFF79AFFFFF7B3FF207897
:20C6600009F099FC08F03CFA217860680BF043FF20780DF0A9FF28460AF04EFB07F029FB57
:20C68000217860680DF094F8BDE870400EF0EABB10B501240AB1002010BD21B1012903D057
:20C6A0000024204610BD02210FF030FEF9E72DE9F047040000D1FFDF9C4D002695F8310026
:20C6C00058B166701420207095F83200A07095F83300E07085F8316068E0287840B12C22A3
:20C6E000A91C204611F0E0FB0F2020702E705DE095F82E0060B10120E07095F82F00A07090
:20C7000095F8300060701020207085F82E604DE0864802215A308246FFF709FF00B1FFDFC4
:20C72000B5F85A90062002F067FA0746072002F063FA3844C7B2781C00F0FF08B5F85A009F
:20C74000B84212D1204608F039F850BB95F8340078B36670122020702021A01C11F01BFCC9
:20C760000220A07085F8346020E040451AD1204607F044FAE8B12078122817D1A0783C289C
:20C7800014D1A088072102F08CFA050000D1FFDF288807F020F9A088072102F094FA00B1F7
:20C7A000FFDF03E02146FFF724FE10B10120BDE8F087FFE702215046FFF7B9FE18B9B5F871
:20C7C0005A104945BAD10020F1E770E710B509F05FFB00B1FFDF0BF08CFE00B1FFDF08F0D4
:20C7E00049F90AF082FA00B1FFDF0CF0DFFF00B1FFDF07F038FA00B1FFDF0DF0DFFE00B146
:20C80000FFDFFFF7C4FEFFF7DDFE07F0B5F802F09AFB0EF027FB4548002101710121417172
:20C820000222C270017010BD10B5404C207828B10A21BDE810400F2001F0D8BBFFF7A8FD34
:20C8400008B10C2002E00EF053FB00202071012060710A21E170207010BD70B5334D04465A
:20C86000287828B1BDE8704032210F2001F0BEBB207818B1012801D0122010E001F0C3FBD2
:20C8800020B10EF080FC08B10C2008E0207801F0A2FB04F11703E21D611C0EF081FB2871BC
:20C8A000012068713221E970287070BD70B51F4C0546207828B1BDE870400B210F2001F020
:20C8C00095BB287818B1012801D012200EE0FFF75FFD08B10C2009E0287801F07CFB691CD8
:20C8E0000EF0CDFA08B1002000E007202071012060710B21E170207070BD10B50B4C217821
:20C9000029B13021BDE810400F2001F06FBB00880EF03CFC302158B10020207109E00000FB
:20C9200048000020FFFFFFFF1F0000000C060020217101206071E170207010BD70B5FF4CA0
:20C940000546207828B1BDE8704031210F2001F04DBB01F058FB08B10C2005E0287800F0AE
:20C9600001000EF00DFC00202071012060713121E170207070BD10B5F04C207828B13421E5
:20C98000BDE810400F2001F031BB01F03CFB20B10EF0F9FB08B10C2002E00EF058FB002073
:20C9A0002071012060713421E170207010BD10B5E24C217829B13621BDE810400F2001F01F
:20C9C00015BB0378411CA21D18460EF041FC08B1002000E002202071012060713621E17051
:20C9E000207010BD70B5D54C0546207828B1BDE8704037210F2001F0F9BA287801F0EBFAE2
:20CA0000691C0EF0D1FB022508280AD00EF00FFD38B10168C4F806108088608100202071CE
:20CA200000E02571012060713721E170207070BDC248017819B10F21084601F0D7BA0021BA
:20CA400001710F218170C170FF2181714FF6FF710181BB4949680A7882728A8882814988B8
:20CA6000C1810121417101707047B4490A781AB147210F2001F0BABA0088A1F8560001209A
:20CA800081F8580000220A7148714722CA700870704710B5A94C207828B12B21BDE8104031
:20CAA0000F2001F0A3BA0821A01D05F0F5FB00202071012060712B21E170207010BD70B56C
:20CAC0009E4C217829B1BDE870403F210F2001F08DBA90F90000042816D0032814D098B1EA
:20CAE000011D11D010F1080F0ED010F10C0F0BD010F1100F08D010F1140F05D010F1280F21
:20CB000002D01220207103E0002506F0DEF925713F20E07001206071207070BD10B5874C1F
:20CB2000217829B12A21BDE810400F2001F05EBAA31D012200F110010FF097F800202071E6
:20CB40000F20A0702A20E07001206071207010BD2DE9FF41794C207828B146210F2001F09A
:20CB600045FABDE8FF814FF0000884F80680B4F85600ADF8040002A9FFF725FC20B10021A9
:20CB800001A8FFF7D4FCE8BBBDF80400ADF8000002A980B2FFF717FC00B1FFDFBDF80000FB
:20CBA00002F0F4F9050000D1FFDF2846039F01F085FC80F0010697F86950BDF8000002F0FA
:20CBC000D3F9070000D1FFDF384601F070FC80F0010255EA020019D0A179BDF8000004EB9D
:20CBE000410108815549A3791831585C65F300005854A37962F341005854A27966F382005B
:20CC0000505400E00DE0A079401CA07100216846FFF78DFC28B9BDF80000BDF804108842A6
:20CC2000B6D1012084F8048060714621E170207097E770B5414C0546207828B1BDE87040F2
:20CC400042210F2001F0D2B909F0F1FB052804D0284609F08DF9002000E00C202071012015
:20CC600060714221E170207070BD10B5334C207828B10E21BDE810400F2001F0B7B9A11D4B
:20CC8000002006F029FF00202071012060710E21E170207010BD70B5284C0546207828B181
:20CCA000BDE8704040210F2001F0A0B901F0ABF938B10C202071012060714021E1702070D6
:20CCC00070BD2946002006F0F4FE0020F2E770B51A4C0546207828B1BDE870403E210F208D
:20CCE00001F084B909F0C4F910B90AF0EBFA68B128780AF060F8287808F0EBF80020207171
:20CD0000012060713E21E170207070BD0C20F6E770B50A4C0546207828B1BDE870401721E7
:20CD20000F2001F063B901F06EF958B10C202071012060711721E170207070BD0C0600202F
:20CD4000480000202946012006F0B3FE0020EEE738B5FF4D0446287828B1BDE838404A21BB
:20CD60000F2001F043B9227961798A4215D0A079E379984211D01F2A0FD81F290DD80022C2
:20CD8000114610F0D7FB40B90022E079114610F0D1FB10B9207A072801D9122015E04FF6FB
:20CDA000FF70ADF8000009F0FFFBA8B909F002FC90B909F03CFB78B900216846FFF7B7FBF3
:20CDC00050B1204605F09AFF00202871012068714A21E970287038BD0C20F6E72DE9FC47F8
:20CDE000DB4C054694F82E0028B12821102001F0FDF8BDE8FC87282084F83000012184F815
:20CE00002E10A8784FF000091A2825D00EDC162831D2DFE800F03030303030213030303082
:20CE20003030303030303030302121212A2822D00BDCA0F11E000C281DD2DFE800F01C1CF3
:20CE40001C1C1C1C1C1C1C1C1C0D3A38042812D2DFE800F0110211022888B0F5706F0AD25A
:20CE60001F20884684F82F0028886946FFF7ABFA18B1022019E0122017E09DF80000019FBE
:20CE8000002806D007F1F607019E05D106F1DD0604E007F1DC07F7E706F1F706684601F020
:20CEA000D5F808B1387818B10C2084F82F00A0E787F80080A878307084F82F90684601F07C
:20CEC000D0F896E77CB5A24C0546207820B125210F2001F08BF87CBD28886946FFF773FA56
:20CEE000002160B102202071A1602173E1800F20A0702520E0700120607120707CBD019A2D
:20CF00001046503282F83E108368A360037B237392F83E30002BF5D12888E080E7E710B5E3
:20CF200040B10478406813B1B0F8440003E0B0F8460000E0FB201B2908D3814206D8B2F5F9
:20CF4000A47F03D340F64800824201D9122010BD002010BD70B57E4C0546207828B1BDE880
:20CF600070404C210F2001F041B8012666711F2020710F20A0704C20E0702670EA88A98879
:20CF800033460020FFF7CBFF30B900236A8829881846FFF7C4FF08B12071CEE604F8426FC7
:20CFA000A888E080E8882081288860806888A0800020207004F83E0CBFE67CB5644D044669
:20CFC000287820B13A210F2001F010F87CBD01266E711F2028710F20A8703A20E8702E70AF
:20CFE00020886946FFF7EFF908B102200DE0A288618801236846FFF792FF30B9A2886188CC
:20D0000000236846FFF78BFF08B128717CBD9DF800100020002901990988E980287101997F
:20D0200018D081F81961019A6188A2F81E11019AA188A2F82011019A6188A2F81A11019A55
:20D04000A188A2F81C11019981F81861019981F819017CBD81F8F160019A6188A2F8F61000
:20D06000019AA188A2F8F810019A6188A2F8F210019AA188A2F8F410019981F8F0600199CB
:20D0800081F8F1007CBD70B5314C0546207828B1BDE870403C210F2000F0A8BF0126667159
:20D0A0000F20A0703C20E07026706A88298833460020FFF734FF30B900236A88298818467D
:20D0C000FFF72DFF08B1207137E604F8426F288860806888A0802888E080688820810020B9
:20D0E000207004F83E0C28E670B5194D287828B1BDE870403B210F2000F078BF95F8420072
:20D100002C1D00B1FFDFB5F848006080B5F84A00A08001206070002121700F21A9703B2103
:20D12000E970287009E670B5094D287828B1BDE870403D210F2000F059BFFB262C1DEE8059
:20D14000304600F04FFFA080E680304602E000000C06002000F046FF208101206070002123
:20D1600021700F21A9703D21E9702870E5E52DE9FC41FC4C064694F82E0028B110210846C3
:20D1800000F034FFBDE8FC811F2084F82F00102084F83000012784F82E7030886946FFF7E5
:20D1A00012F978B9684600F051FF58B1019D9DF8000050350028019806D000F5857001788A
:20D1C00041B904E0022006E0D0F8E400F7E795F8351019B13A2084F82F00D3E795F83610B1
:20D1E00089070CD1042101709DF8000020B901993088D1F8E4104880684600F032FF0020F8
:20D2000084F82F0085F83570BCE72DE9F041D54C0546207828B1BDE8F0411D210F2000F047
:20D22000E5BE1F202071012060711D21E170207009F0FDF80C2604283CD005283AD0A979B9
:20D240001220012904D019B1022901D0032926D1297809B1012922D1E97929B1012903D004
:20D26000022901D003291AD1698843F6FD720B1F3020934213D2AB881B1F93420FD2218703
:20D28000A88860870027A87907F05DFD90B1E87907F0B0FD2878012804D030B10CE020719D
:20D2A000BDE8F0810021022001E00021012007F0D0FD08B12671F3E72771F1E770B5A94C7A
:20D2C000217829B1BDE870401E210F2000F08EBE1F212171012161711E22E2702170027879
:20D2E0001221012A00D01AB9407818B1012801D0217122E500260C25012A08D009F097F837
:20D30000052802D008F071FD40B1257115E507F031FD618F208F08F0B8FEF5E726710CE551
:20D320002DE9F0478F4C0746B0F84600B4F844500E46854200D3054600F054FE0146B4F8DC
:20D340004600814203D8B7F8460000F04BFE8046A146B4F84840B7F84400844200D3044604
:20D3600000F040FE0146B9F84A00814203D8B7F8440000F037FE4FF4A4721B2C01D0904244
:20D3800003D11B2D08D0904506D0F580A6F808807480B08001203070BDE8F0872DE9FC5FE1
:20D3A0000546AFF680216F4ED1E900A196F82E00884628B1BDE8FC5F2121102000F016BE2B
:20D3C0001F2086F82F00212086F830004FF0010B86F82EB0284600F052FE002811D109F01A
:20D3E00026F805280CD009F022F8042808D096F8340028B907F04FFAA0F57F41FF3901D0AE
:20D400000C20D0E0062101A801F01CFC04007DD003210EF061FAB6F85400A4F84400B6F8F9
:20D420005400A4F8460096F84D000090B6F8541096F84C3020880A4601F0E1FC04287CD0F1
:20D4400000B1FFDF208806F0C5FA04F10D07B4F800900421384604F01FFF494638460EF0DB
:20D4600078FB41A03F1D006800900321684604F09EFE002069460A5C3A54401CC0B20328E6
:20D48000F9D3288A6080688AA080A88AE08096F84F2096F84E1020460EF0FFFC0146204695
:20D4A0000EF034FD4FF0000984F8569084F857904F46687900F08FFD6076D5F80600C4F8D9
:20D4C0001A006889E083C4F808A084F80C8084F8ECB004F1F0012046FFF722FF8DF8007002
:20D4E0000121684604F063FE9DF8000000F00701C0F3C1021144C0F3401008448DF80000DB
:20D50000401D2076092804D2083001E013E014E02076002120460EF0DFF9287B07F013FC75
:20D5200098B107F027FC69792879AA1D07F06DFC07001BD027E0092035E02088062101F0E7
:20D54000C2FB00B1FFDF07202DE0208806F043FA2088062101F0B7FB00283FF451AFFFDFC5
:20D560004EE700000C060020112233002146032007F06FFC070006D16A882988204608F013
:20D5800036FD07000CD0208806F025FA2088062101F099FB00B1FFDF86F82F70BDE8FC9F78
:20D5A000484684F8E09086F82F00F7E738B5FE4C207820B122210F2000F018FD38BD1F201B
:20D5C0002071012565712220E070257094F8340010BB08F02CFF052805D007F05CF9A0F506
:20D5E0007F41FF3918D000202071684608F083FD0028E3D10098008806F0EDF900980621DD
:20D60000008801F060FB00B1FFDFE84884F834500078FCF74FFC38BD0C20207138BD2DE904
:20D62000F041E14D044695F82E0028B1BDE8F0412321102000F0DABC1F2085F82F002320AF
:20D6400085F83000012085F82E00618840F67B438A1F30209A4251D2A288961F9E424DD29E
:20D6600091424BD8E188B1F5FA7F47D2218940F67746A1F10A03B34240D2B1EBD20F3DD93D
:20D680006189A289914239D84FF000082088062101F007FB06004FF0020707D000F0C8FCAF
:20D6A00020B1D6F8E400017839B902E085F82F70F6E5D6F81011097809B13A201EE00521FB
:20D6C0008171D6F8E4004146A0F80880D6F8E420A0885081D6F8E420E0889081D6F8E42017
:20D6E0002089D081D6F8E400028943899A4204D88279082A01D89A4203D3122085F82F00D9
:20D70000CEE522884280D6F8E400077085F82F10C6E52DE9FE43A44C0646207830B103B09B
:20D720002421BDE8F0430F2000F060BC012565712420E070257030460EF02DFA08B10020F8
:20D7400000E01220207100282CD184F83C503068C4F83D00307984F841004FF0000884F83F
:20D760003C806946062001F028FA00B1FFDF684601F001FAA0B9BDF8047000BFBDF80400E2
:20D78000062101F08EFA060000D1FFDF86F8EC50684601F0F0F918B9BDF80400B842EDD1B0
:20D7A00084F80480BDE8FE8370B57F4D064695F82E0028B1BDE870402621102000F016BCE4
:20D7C0001F2085F82F00262085F83000012085F82E003088062101F064FA040007D000F0A6
:20D7E00027FC20B1D4F8E400017831B901E002200CE0D4F81011097809B13A2006E00521A5
:20D800000170D4F8E41030884880002085F82F005AE46548017819B106210F2000F0E6BB76
:20D82000002202710F2181700621C170C0F80620C0F80A20F121817101214171017070471A
:20D840002DE9F041584D064695F82E0028B1BDE8F0412C21102000F0C9BB1F2085F82F004A
:20D860002C2085F83000012085F82E003088062101F017FA040007D000F0DAFB20B1D4F8C5
:20D88000E410087830B901E0022026E0D4F81001007808B13A2020E08C200027005D10F08A
:20D8A000010F19D0D6F802004860D6F80600886054F8E40F718910228181206806F10C0142
:20D8C0000E3010F0F1FA21680320087021683088488085F82F70E3E40C2085F82F00DFE474
:20D8E00070B5314D04460C26287828B1BDE8704018210F2000F07ABB08F056FE03284BD01C
:20D9000008F058FE032847D0A07908B101282DD1607928B1012803D0022801D0032825D1B4
:20D92000A07B28B1012803D0022801D003281DD1607BD8B1C00819D162884FF4804082421C
:20D9400002D82188814203D9207901280ED118E0207930B1012814D0022805D0032805D185
:20D9600002E0202A0BD30CE0A0290AD22079042805D12088202802D36188884201D91226E7
:20D980000AE0607906F010FA30B1207985F83600204606F073FA064601202E7168711821B0
:20D9A000E9702870A5E400000C0600204800002010B5FE4C217829B11A21BDE810400F2072
:20D9C00000F014BB01781F2902D91220207106E0002121710278411C104606F0C6FA01208C
:20D9E00060711A21E170207010BD10B5EF4C217829B12021BDE810400F2000F0F7BA01787B
:20DA00001F2902D91220207106E0002121710278411C104606F098FA012060712021E1704E
:20DA2000207010BD2DE9FC41E04C217829B1BDE8FC411B210F2000F0D9BA012767710C219A
:20DA4000217100780026012804D0002879D01220207190E006F072F9002819D006F0B7F9DD
:20DA600094F83600A8B1012813D0042811D008F0A1FD00287FD108F097FD18B108F094FD86
:20DA8000022878D1002009F099F900B1FFDF267171E008F089FD00286DD108F08BFD002865
:20DAA00069D106F0D6F8A0F57F41FF3963D1072101A801F0C7F8BE4905468860280000D1F3
:20DAC000FFDF032128460DF00BFE284606F081FB34F8540FA5F8440034F80409A5F8460064
:20DAE000E278A17828460EF043FA0146002228460EF077FA6078009014F8043B288834F835
:20DB000054190A4601F07BF980B1042800D0FFDF2888072101F0D7F800B1FFDF07202071F9
:20DB200005F58C712846FFF7FBFB24E0288805F051FF284609F042F900B1FFDF2671EFE7FD
:20DB4000FFE708F031FD032803D008F033FD032811D108F02CFD0546002009F052F850B9AE
:20DB6000267145B1288805F036FF2888072101F0AAF800B1FFDF1B20E0702770BDE8FC8100
:20DB80002DE9F041894C0646207828B1BDE8F0412D210F2000F02ABA3088072101F081F83B
:20DBA00005004FF0010720D095F8F90040B995F85C00112801D0122802D195F8360150B1E5
:20DBC0000C2020710F20A0702D20E0703088E080677127706CE51022B11C05F1FA0010F0E5
:20DBE00063F985F8F9700020EBE70220E9E770B56E4C0546207828B1BDE870402E210F2091
:20DC000000F0F4B92888072101F04BF8022178B190F8F9202AB990F85C20112A04D0122A3C
:20DC200002D00C20207104E080F8F9100020F9E721710F20A0702E20E0702888E080012050
:20DC400060712070E4E52DE9FC47584C0646207828B138210F2000F0C9F9BDE8FC87708886
:20DC60004BF68032122190420AD848B14FF0000830886946FEF7A7FB20B10220207110E018
:20DC800021710EE0019800F15009851C2F887288394648460DF01AFD2888B842F6D184F8C1
:20DCA0000480012060713821E1702070D5E77CB53E4C0546207820B145210F2000F096F975
:20DCC0007CBD28886946FEF77EFB38B102202071012060714521E17020707CBD01987F22F6
:20DCE000014680F8582080F85920002280F85A20A87801F8280FE878487028798870227154
:20DD0000E6E71CB5294C217821B113210F2000F06DF91CBD00886946FEF755FB08B102209C
:20DD200005E0019890F82810012902D00C20207106E0582100222271095C21720088E080F8
:20DD4000012060711321E1700F21A17020701CBD2DE9F041154C0546207828B1BDE8F04168
:20DD600043210F2000F042B9A87808B1012803D1A888B0F5FA7F01D912202071288807218C
:20DD800000F08FFF0126C8B1002780F8F070A988A0F8F21080F8CC60A978012900D00021BB
:20DDA00080F8F01090F8CD0030B103E00C0600204800002009F04EF9277101E002202071CC
:20DDC00066714320E070267072E42DE9F041CF4C0546207828B1BDE8F04148210F2000F051
:20DDE00005B92888072100F05CFF012358B382886D88C688418803EB4207BD4217D342F2A9
:20DE000010777E43BF107943B6FBF1F1491E89B24FF4FA76B14200D931468D4200D22946F4
:20DE2000491C521CB1FBF2F15143491E8AB290F8221101B90284E2800020207163714820FF
:20DE4000E070237034E40220F7E770B5AF4C0546207828B1BDE8704041210F2000F0C6B897
:20DE600008F0A2FB08B10C2017E0297889B10A290FD014290DD01E290BD0282909D0322983
:20DE800007D04B2905D0642903D0FF2901D0122003E0284609F04FF80020207101206071A3
:20DEA0004121E1702070B3E498490A781AB14D210F2000F09BB8427862B1827852B1C27876
:20DEC00042B1027932B1C2881B2A03D303781BB1012B01D0122007E0A1F854200278D0F8E0
:20DEE000010042B1086500200871012048714D22CA7008707047C864F5E770B5834C05462F
:20DF0000207828B1BDE870404E210F2000F06EB8287800F0010008F019F9287800F001005B
:20DF200009F061F800202071012060714E21E17020706DE470B5754D0446287828B1BDE8FC
:20DF400070404B210F2000F051B800F05CF808B10C200DE0601C0DF063FA207800F0010008
:20DF600005F031FF207800F0010006F0FFFE00202871012068714B21E970287048E470B59F
:20DF8000624C0546207828B1BDE8704049210F2000F02CB808F008FB10B908F00BFB08B1DA
:20DFA0000C2003E0287805F0F0FF00202071012060714921E17020702AE410B501784F291C
:20DFC00007D2534A52F8211019B1801C8847012010BD002010BD18B1022801D001207047A4
:20DFE00000207047C000703080B27047474A92F83130002B06D182F8320082F833100120F9
:20E0000082F83100704710B508F011FA04280DD008F00DFA052809D008F0C6FA032805D010
:20E0200008F0C8FA032801D0002010BD012010BD90F8691041B990F8C01029B190F8C000DA
:20E04000042801D001207047002070470178406821B190F8690010B100207047E8E70120A8
:20E0600070470178012909D1406890F8CD10002904D0002180F8CD1008F0ECBF704710B5CD
:20E08000038843F6FD711A1F8A4223D24288141F8C421FD29A421DD8C28940F67B43911FD8
:20E0A000994217D2018A8C1F9C4213D28A4211D8428AB2F5FA7F0DD2828A40F67744A2F193
:20E0C0000A03A34206D2B2EBD10F03D9C18A028B914201D9302010BD017911B1012910D134
:20E0E00007E0417929B1012903D0022901D0032907D1007B38B1012805D0022803D003281E
:20E1000001D0122010BD002010BD00000C0600209CE301003F3070470844C01D424301F1CA
:20E120003F00104480B2704770B51D460446A818049BC01D00FB03F205F13F00104486B2A4
:20E14000B14238BFFFDF1E2120460FF024FFA6F11E0080B2A5756080B0F5004F88BFFFDF36
:20E16000608805F13B01884238BFFFDF6088401BA0F13B011B2934BF1B203B38208070BD24
:20E18000408870472DE9F04F0D46C188044600F11E08008921F4004320F4004221F400461C
:20E1A00020F400474FF0010A4FF000099A4208D100F4004001F4004188421CBF0020BDE8E9
:20E1C000F08FB7420BD9A17DB81B401AC01F85421BDC08EB06000021058041801EE06088B5
:20E1E000A17D801B401AB0F1070B0ED4BBF11B0FB8BFFFDF5D45D4BF29461FFA8BF1681A91
:20E200000204120C18BFBA4204DD84F814900020BDE8F08F08EB06000180428084F814A056
:20E22000BDE8F08F2DE9F041044600F11E02C08820F40043207D002808BFBDE8F081D018EF
:20E240000288438813448B423CBF0020BDE8F081002791429CBF0180478013D9891A0D04D7
:20E260002D0C45800ED0E088A61D20F40040854288BFFFDF30884FF4004121EA00002843A5
:20E28000308009E0A27D0088D31D1044C01D81B26288A01D00F044FB27750120BDE8F08141
:20E2A00030B4B0F804C0C488034600F11E052CF400402844A44503D10020188230BC70477F
:20E2C000B3F80CC00488A44509D34088ACEB040CA0EB0C0084B20CEB0500C01E06E0A4EBEB
:20E2E0000C049D7DA4B2AC446044001DB1F800C0A44588BF0C80B3F80CC0BCF1000F0CBFCA
:20E300004FF0010C4FF0000C82F800C00988198230BC70472DE9F041044600F11E018088B4
:20E3200020F400404518208A002808BFBDE8F081A189084480B2A08129886A8811448142F9
:20E3400038BFFFDF28886D88A28941190027914219D175B1A088261D20F40040A84238BF14
:20E36000FFDF30884FF4004121EA00002843308008E0A27D1044C01D81B2D31D6288201DDB
:20E3800000F0CEFAA78127820120BDE8F0812DE9F0474189B0F804800027044600F11E0AF0
:20E3A000414518BF4FF400493AD000BF21F40040504446886EB1608904F10A0520F4004094
:20E3C000B04238BFFFDF288829EA00003043288021E0A37D008803F1070C18446389C01DC3
:20E3E00023F400456288284480B204F10A0190420BD2121A92B20CF11B0C62452CBF03F46D
:20E40000004229EA030004D204E0801A80B229EA030210430880781C618987B24145C5D158
:20E420003846BDE8F0872DE9F047B0F808800B46044600F11E01B0F80A90808828F4004C68
:20E4400001EB0C05804504BF0020BDE8F087002A1CBF281D106023B1A27D291D18460FF0AB
:20E4600023FD2F886D888DB1E81987B2208904F1080620F40040A84238BFFFDF30884FF49E
:20E48000004121EA00002843308009E0A07D6288C119C91DC31D89B204F1080000F040FA23
:20E4A000C84504BF208960813846BDE8F0878188C08881420CBF01200020704781880089FF
:20E4C00088420CBF01200020704730B48488C28800F11E0324F4004C22F40041634494422B
:20E4E0001BD08289048A15191C885A88A3189D4216D312B18A4210D212E0837D0CF1070CEE
:20E500001A196244408892B2801A80B22233984201D211B104E08A4202D130BC0020704740
:20E5200030BC012070472DE9F007B0F806C0048900F11E0702462CF400457E1924F4004954
:20E540002CF4004A002024F400434FF00108D1450AD104F400440CF4004C644504D05082C6
:20E56000BDE8F00700207047AB4207D992F816C05B1BA3EB0C03DC1F002308E0B2F802C076
:20E58000947DACEB050CACEB040CACF10704002CE5DBB2F80EC0BCF1000F0DD0B6F800C008
:20E5A00075884DB15B1B50758B42D8DBD0893844A0EB0C00C01E09E0A4EB0C0450758C4240
:20E5C00008DB907DD38918443044001D5182BDE8F00770478B42A8BF82F81580E6DABEE734
:20E5E0002DE9F05F044600F11E0AC088934620F400400AEB0005608A894608B1484502D211
:20E600000020BDE8F09FE089002804BF4FF00008464607D0B5F800806E8808EB06018842C1
:20E6200018BFFFDF607D4FF0000750EA060101D048B332E0E08938B1A17D01444819B4F821
:20E6400017108180617E8171E18908EB09004944E18128806F80BBF1000F0BD0A07D298871
:20E66000C31D0144C91D89B26288A01D00F058F9E78137E0A07DE189084428448188A4F809
:20E68000171080792DE0E089B4F817105044A0EB080020F8031D617E817006EB090086B2B0
:20E6A000E089BBF1000F4844E081A5F800806E800ED0E088A51D20F40040B04238BFFFDF1B
:20E6C00028884FF4004121EA000030432880CFE7E0895044A0EB080030F8031DA4F817108F
:20E6E00080786076678227750120BDE8F09F01461E308A88CB8822F4004C60449A4203D0C3
:20E700008989002908BF70470020704700F11E03807D01F1040C604410600888002804BFC9
:20E72000D81E106008884988084480B270472DE9F04115460A4600F11E061C46807D131D47
:20E74000034410885788069900281CBFC01C80B226D088429CBF081A80B213D9401AA042B4
:20E76000A8BF20461FFA80F85818424629460FF06FFB002818BFBDE8F0814544A4EB080036
:20E7800084B2002001198F423CBF4FF0FF30BDE8F081304422462946BDE8F0410FF058BB86
:20E7A000FA1C97B2F61ED4E72DE9F04100F11E071D46807D0B1D0344164608880024B1F846
:20E7C0000280069A00281CBFC01C80B21FD090429CBF101A80B20DD9801AA842A8BF28464F
:20E7E00084B29918224630460FF05EFB281B85B2264400204119414506D839182A46304603
:20E800000FF052FB601984B22046BDE8F08108F103011FFA81F8FF1ED9E72DE9F041164672
:20E820000A4600F11E071D46807D131D034410880024B2F80280069900281CBFC01C80B203
:20E840001FD088429CBF081A80B20DD9401AA842A8BF284684B25818224631460FF024FBAE
:20E86000281B85B2264400204119414506D838442A4631460FF018FB601984B22046BDE8A7
:20E88000F08108F103021FFA82F8FF1ED9E770B5044600F11E01C288808820F40043194414
:20E8A000904205D0A289002A04BF228A002A01D0002070BDB1F800C04D8885B1261D20F4DA
:20E8C0000040A84238BFFFDF30884FF4004121EA00002843308000202082012070BDA07DAA
:20E8E0000CF10701C31D084481B26288201D00F017F8F0E70021C1814175418201757047AE
:20E9000003881380C289002A04BF00207047C28800F11E0322F400421A440A60C08970474E
:20E9200010B4B0F800C02CF40044214489B24FF4004491420AD2521A92B21B339A422CBFAC
:20E940000CF4004224EA0C0104D204E0891A89B224EA0C021143018010BC70472DE9F04107
:20E9600088464FF6FC7102F103021E46040002EA010509D00027E01C20F00300A04200D004
:20E98000FFDF201D01210CE00127F4E7024628442FB9B14201D2034600E000231360491CC5
:20E9A000C9B2B142F2D9011BC8F80010002F04D10EB1201D00E000202060BDE8F081024654
:20E9C00000201168002902D0084609681160704702680A60016070474FF6FC73C91C1940DE
:20E9E000101A001F90FBF1F0C0B270474FF6FC73C91C1940001D01FB02007047F8B5D24DA9
:20EA000004460E46A878A04200D8FFDF05EB8607B86A50F8240000B1FFDFB868FFF7CFFF22
:20EA200005000DD0B86A062E40F824500AD0082E00D3FFDFC548294650F8262020469047EA
:20EA40002846F8BDC048C24B7A30A0F12E0200902946204609F0A0FCF2E72DE9F84F80461D
:20EA6000DDF828901E4603EB090093468A46C4B25FEA080707D00025FF2800D9FFDFBAF1B2
:20EA8000000F03D101E00125F6E7FFDF08F1030020F00301414500D0FFDFCB4500D9FFDFC6
:20EAA00065B9A94A00204C324FF6FF7110705180A74A1070A44A7A3210705180A24880F8E3
:20EAC00000B046708470C4700471447180F80690DFF878B2C67100260BF1400B8146FF1CE9
:20EAE00027F003000746002D02D109EB860188603BF8162019F8063001D04FF000006946DD
:20EB0000FFF72CFF0098761CF6B20744082EE6D3FF1C27F003002346064675B10020022274
:20EB20006946FFF71BFF00983118002003464E46C91C21F003021DB110E0C9F84800EEE7A1
:20EB400006EB80070021BA6206E000BFD7F828C04CF82130491CC9B2A142F7D3401CC0B2B4
:20EB600002EB84010828E3D3A1EB0800AAF800000020BDE8F88F10B5044603F005FF08B1FC
:20EB8000102010BD2078704A618802EB800092780EE0836A53F8213043B14A1C6280A180F2
:20EBA000806A50F82100A060002010BD491C89B28A42EED86180052010BD70B505460C464E
:20EBC000084603F0E1FE08B1102070BD082D01D3072070BD25700020608070BD0EB569466E
:20EBE000FFF7EBFF00B1FFDF6846FFF7C4FF08B100200EBD01200EBD10B50446082800D39D
:20EC0000FFDF5148005D10BD3EB5054600246946FFF7D3FF18B1FFDF01E0641CE4B268462E
:20EC2000FFF7A9FF0028F8D02846FFF7E5FF001BC0B23EBD44498978814201D9C0B2704722
:20EC4000FF2070472DE9F0410C460546062901D0072C10D13C4FB86CFFF7B1FE02004FF64B
:20EC6000FF7604D00221B86CFFF7B6FE00E030462880B04202D10020BDE8F0812146FFF704
:20EC8000BDFE040002D1288800F050F82046F3E7A0F57F42FF3A01D0082901D3002070477E
:20ECA000ACE6A0F57F42FF3A0BD0082909D2264A9378834205D902EB8101896A51F8200063
:20ECC0007047002070472DE9F04104460D46A4F57F4143F20200FF39CED0082D01D307202C
:20ECE000CAE719494FF000088A78A242C4D901EB85072146BA6A52F82460002EBCD0134A4F
:20ED000008462032314652F825209047B96A062D41F8248001D0072D02D1204600F006F817
:20ED20003146B868FFF754FE0020A5E710B5064CC2B20221A06CFFF759FE0146A06CBDE849
:20ED40001040FFF745BE000068060020D8E401005400002001469F48002200680260037A14
:20ED600000EB830040F80C2F8180114600F022B92DE9F05F9846DDF830B0DDF828A015469F
:20ED8000894604004FF0000623D00027E01C20F00300A04200D0FFDF65B30120FFF7BAF9C0
:20EDA00000FB05620AEBCB0016180120FFF7B2F900FB05620B9805EB450108EBC0001044FF
:20EDC00000EB4100143000EB850000EB850617B110E00127DAE77F48A6EB8507A90004604B
:20EDE000257204F10C000C3F60600FF0F6F8B8B2FFF7B0FF0020C9F80060BDE8F09F2DE9E9
:20EE0000FF4F744C814681B020689A468B4600B9FFDF2068027A4A4503D9426852F8291080
:20EE200021B143F2020005B0BDE8F08F006800B9FFDF01210E9A0398FFF76EF9C61C4FF608
:20EE4000FC752E40584601215246FFF765F9C01C00EA050808EB0600001D85B25D4800273B
:20EE60000068046801E027460446206838B1A188A942F8D13946204600F0A4F813E005F17E
:20EE80000800A18880B2814229D33946204600F099F8A0880022411B6019026081803946E9
:20EEA00000F088F8A580A08860802680251D0E9F0123039A314628460097FFF735F9208817
:20EEC000414628445A460123CDF800A0FFF72CF9404800684168002041F82940A3E70420F2
:20EEE000A1E770B53B4C0546206800B9FFDF2068017AA94210D9426852F8250060B14188AA
:20EF0000002342F8253003608180194600F052F8216800200A7A08E043F2020070BD4B6816
:20EF200053F820306BB9401CC0B28242F7D8002002E08A88104480B209680029F9D1FFF7BD
:20EF400009FF002070BD70B5224D286800280AD0002404E02046FFF7C4FF641CE4B2286869
:20EF6000007AA042F6D870BD70B51A4E05460024306800B9FFDF3068017AA94204D940688C
:20EF800050F8250000B1041D204670BD70B5114E05460024306800B9FFDF3068017AA9427F
:20EFA00006D9406850F8251011B131F8040B4418204670BD19B10A68026008607047054959
:20EFC0000968F8E7006809B10860704701490968FAE700005C00002070B5044600780E464D
:20EFE00001281AD0072802D00C281AD115E0A068216905780B2D0CD0052003F05EFC052D22
:20F000000FD0782300220520D4F8101003F0B8FB07E0782300220620F8E70520216903F052
:20F020004CFC31462046BDE8704001F0A7B910B500F13902C3799478411D64F003042340B0
:20F04000C371DB070DD04B79547923404B710B79127913400B718278C9788A4200D981705E
:20F0600010BD00224A710A71F5E74178012900D00C21017070472DE9F74F86B000208C69E0
:20F080000D468DF8040009780127FA4816464FF0070A4FF011094FF00A0B2A2978D2DFE8EC
:20F0A00011F02A00110352036903A803B303CC03FA030F043B04620481049A04D504E60485
:20F0C000050510053005540577059C05C605E005EE050F062706300663068506D6060D0767
:20F0E0001B074B076A0779078A07C407FB072708E407E807ED0714B120781D2829D0D5F8E8
:20F1000008805FEA080043D001208DF80400686A059003208DF808008DF809B0286A0390DF
:20F12000A8880028EFD098F8001091B10F2910D27ED2DFE801F07D144CDCFDFCFBFAF9F81C
:20F14000F7089FF6F500022822D124B120780C2801D0002770E302208DF80400ACE10620BF
:20F16000696A03F0AAFBA8880728EDD1204601F000F9022809D0204601F0FBF8032808D95E
:20F18000204601F0F6F8072803D20120207005E011E2002CB7D020780128D5D198F80400EF
:20F1A000C11F0A2903D300BF85F81CB089E2A070D8F80010A163B8F80410A18798F806007D
:20F1C00084F83E00012028700320207046E00728BAD1002C97D020780D28B5D198F80310A0
:20F1E00094F83B20C1F3C000C2F3C002104201D00E2000E00F20890707D198F8051001428D
:20F20000D2D198F806100142CED194F83D2098F8051020EA02021142C6D194F83E2098F8C3
:20F22000061090430142BFD198F80400C11F00E045E20A29B8D2617F814201D90620C2E392
:20F24000D8F800106160B8F80410218198F80600A072012028700E20207003208DF80400DC
:20F26000686A059004F139000290601D03901730049067E2412890D1204601F07AF8042874
:20F2800002D1E078C00704D1204601F072F80F289ED1A88CEF6880B24FF0400AD4F824808A
:20F2A000FFF762FE39460827424653460097FFF77BFA0E208DF80400686A0590606A0290AD
:20F2C000002101A8FFF788FE2078042806D0A07F38B1012805D0032806D0AEE30520207001
:20F2E0000BE284F8009034E71220207066E01128C1D1204601F03DF8042802D1E078C0077D
:20F3000019D0204601F035F8062805D1E078C00711D1A07F02280ED0204601F02AF808E0F3
:20F32000AFE07DE09AE16EE14EE106E1E5E0CBE01CE011289FD1102208F1010104F1480082
:20F340000EF0B2FD607801280DD012202070E078C00703D0A07F88B301282FD085F800B0BF
:20F360008DF804B0F0E384F800A027E011288FD1204600F0FEFF082804D0204600F0F9FF20
:20F38000132885D12869D8B16869C8B104F17800102208F1010107460EF086FD2078082848
:20F3A00012D014202070E078C0070FD0A07F022818D06178022912D00328CFD10420FDE3C3
:20F3C00000208DF80400F6E00920EBE70B202870296901204870206CC1E9010792E208B11A
:20F3E000012870D10B202870296981F801A0606A4860206AC1E9020778E2206CE2780068DD
:20F40000C2F34402521ED04000F0010040F0800000E000200874E06A48617CE20746F9E3DA
:20F420001128D0D1204600F0A4FF0A2802D1E078C00704D1204600F09CFF1528C3D110220C
:20F4400008F1010104F148000EF02EFD20780A2812D016202070122028702969092048709C
:20F4600004F158004860203088601038C860206C0861ACE314E601000B202070E4E2287057
:20F48000D9E102289FD1204600F073FF042804D3204600F06EFF082809D3204600F069FFC0
:20F4A0000E2890D3204600F064FF12288BD2A07F022888D18DF80490686A059098F80100B0
:20F4C0008DF80800FBE36CE20228AAD1204600F050FF00286FD0204600F04BFF0128F9D030
:20F4E000204600F046FF0C28F4D005208DF8080098F801008DF8090065E71128FCD1002C2A
:20F50000FAD020781728F7D16178E06A022912D05FF0000101EB4101182606EBC1011022B1
:20F52000405808F101010EF0BFFC0520696A00F013FF26700DE60121ECE70B28DCD1002CFB
:20F54000DAD020781828D7D16178E06A02292CD05FF0000101EB4101102202EBC10141583F
:20F56000B8F8010008806078E16A022820D0002000EB4002142000EBC2000958404650F8B8
:20F58000032F0A60406848600520696A00F0E4FE6078022810D04FF000002044407A20F066
:20F5A00001000CD14FF001010BE04FF00101D1E74FF00100DCE77FE24FF00100EDE74FF091
:20F5C00000012144487279E3112895D1002C93D02078192890D16078E16A022811D00020F9
:20F5E00000EB40021C2000EBC2001022085808F101010EF059FC0520696A00F0ADFE1A2048
:20F60000F5E00120ECE7082898D1002C98D020781A2893D1E06A98F80120017862F34701A5
:20F620000170E16AD8F8022041F8012FB8F8060088800520696A00F08FFE6078022807D0A7
:20F640004FF000002044407A20F002012BD033E04FF00100F6E7204441722FE31128B4D128
:20F66000002CB4D020781B28AFD16178E06A02291CD0002101EB4101202202EBC1011022D3
:20F68000405808F101010EF00FFC0520696A00F063FE607802280CD04FF000002044407A4A
:20F6A00020F0040108D14FF00100D4E74FF00101E0E74FF00100F1E74FF00000CBE785F8D3
:20F6C0001CA0FAE33078012884D11C2204F11C0071680EF02EFCE079C10894F83B0001EA47
:20F6E000D001E07861F30000E070217FF1BB217803290AD0C0073FF4F9AD032028708DF872
:20F7000004B0686A059041209EE3607FA17888423FF694AD02272771E179204621F0E00141
:20F72000E171617A21F0F0016172A17A21F0F001A172FFF77CFC2F708DF804B0686A0590EA
:20F740008DF808A0F2E33078112888D18DF804A0696A0591B1680391ADF808A008466168CA
:20F76000016021898180A17A817100E06AE004202070A4E230781128A6D18DF804A0686AB9
:20F780000590301D02AB07C883E807004120ADF8080008460C210170A88CD6F80C8080B2DF
:20F7A0004027D4F82090FFF7F1FB41464FF008084A463B46CDF80080FFF72FF8002101A871
:20F7C000FFF70AFCE07820F03E00801CE0702078052801D00F200AE0A07F00283FF4C3AD02
:20F7E0000128FBD003287DD184F80080B1E42070AFE430780328A8D170680168A1664068AC
:20F80000E0660520287035E2317803299DD171680A68226749686167216C51B9A17F19B1BD
:20F82000012901D0062029E185F800A02064606401E085F800A00327F3E33178022984D111
:20F84000317909B1297737E1A17F022910D00329EFD16178012910D0A17994F83A20012968
:20F860000FD02064E178C90713D0012A0ED010E0B0680028E7D020640BE0A27994F83A10C9
:20F88000EDE7B1680029DED02164EBE7F0680028D9D06064CDE78DF804B0696A0591E178B1
:20F8A0005846C90709D06178022903D1A17F29B1012903D0A17F032900D00820287012E262
:20F8C00030781128BFD1B068286209202870E0782969C0070FD081F801A0206A4860606AAE
:20F8E000886000E0ABE004F16800C860A07F02287FF48FAD81E501204870206C486004F1D0
:20F900006800886004F13800C860201D0861206B4861606B88611FE2E1783078C90701D011
:20F92000062100E00A2188428DD12078072817D084F800908DF804A0686A0590286A0390FE
:20F94000ADF80890032100F8011B102271680EF0ABFA002101A8FFF73FFB00202862C2E43A
:20F9600008202070E6E730781128ABD18DF804A0686A0590B0680390ADF80890042100F810
:20F98000011B102204F168010EF08EFA002101A8FFF722FB2078092801D0132027E784F801
:20F9A00000B016E0E1783078C90701D0062100E00A21884286D1102204F1480071680EF066
:20F9C00047FA10B104202877A2E3207809283FF4C5AC0C2053E5E078C10735D0A17F01299D
:20F9E00002D002291BD02CE00D202870296981F801B06078012809D0206A4860606A8860D4
:20FA000004F16800C8601030086104E5606A4860206A886004F17800C8601038F4E7C0F380
:20FA2000440114290DD24FF0006101EBB0104FEAB060E0706078012801D0102055E406201F
:20FA4000D5E6607801288AD00E2018E5307809288BD185F800B010208DF80400686A0590E3
:20FA600070680290002101A8FFF7B6FAE9E7E078C00706D0A07F01281FD10F2028700420C4
:20FA8000F8E015202870296902204870206C48606078012805D004F1780088601038C86086
:20FAA0005AE104F1680088601030F8E730780228CED1307908B1287728E3102028700F2033
:20FAC000D8E030781328F7D185F8009029690820487070684860607801280DD004F1680089
:20FAE00088601030C860206B0861606B486104F158008861A06A21E004F178008860103870
:20FB0000F0E730780728D7D1607801281AD1A078A16A0A18C0F1100110460EF03CFA1220E0
:20FB2000287029690920487004F158004860203088601038C860206C086141E0C861E06A94
:20FB4000086209E11320C9E0CBE030780828B3D1102204F1480071680EF07AF908B10B20D1
:20FB600031E720780B28EDD02046FFF760FAA078A16A0A18C0F1100110460EF00CFA162098
:20FB8000287008208DF80400686A0590002049E03078112890D1B06828621420287029692A
:20FBA0000920487004F158004860103088601030C860606C08616078012800E09EE006D075
:20FBC00004F139004861206B8861606BB6E7601D4861606B8861206BB0E73078082892D13B
:20FBE0008DF804A0686A0590286A0390ADF808900D2100F8011B102271680EF055F9002159
:20FC000001A8FFF7E9F9002028626178012902D01520ECE569E21621297008218DF8041001
:20FC2000696A05910290A0788DF80C007EE130780B288CD1162028706078022802D1204680
:20FC4000FFF7F5F9A07871680A18C0F1100110460EF0A1F908208DF80400686A059070680D
:20FC6000E0E730780F2895D1E079C0077BD01720287009208DF80400686A059056E1307846
:20FC8000102887D11422311D04F11C000EF051F9E16A208DA1F80900E16AA078C871E17967
:20FCA000E26A01F003011172E16A627A0A73E16AA07A81F824006078012876D0B3E13EE2DF
:20FCC0006078022801D0012000E000202044407AC0070BD0E078C00708D1192028708DF822
:20FCE00004B0686A05908DF808901FE11E2071E63078112874D1B06828621A202870052078
:20FD0000B8E7307803286BD16078E26A022801D0012000E0002000EB4001142000EBC101E8
:20FD20005158726813680B6052684A601B212970D5E9041205234B70636A4B606778E36AC6
:20FD4000022F01D0012700E0002707EB470700EBC7001858C1E90202686A4862069800F058
:20FD600024FBFFF75BBB87E130780E2838D16078E26A022801D0012000E0002000EB40009E
:20FD8000102101EBC00002231058093271680CF06DFC1C202870296904204870206A48600C
:20FDA000E06A09308860F84879E65AE130780D2816D16178E06A022901D0012100E00021F8
:20FDC00001EB4101182707EBC101A278405871680EF06AF86178E06A022902D0012101E0F4
:20FDE000A9E0002101EB410107EBC1014058A1780844C1F110010EF0CEF88DF804A0686AF8
:20FE00000590286A0390ADF80890062101706278E16A022A01D0012200E0002202EB4202DB
:20FE200007EBC202401C895810220EF03DF8002101A8FFF7D1F8002028621D2028708DF8DD
:20FE400004B0686A05900B208DF808006EE03078112870D18DF804A0686A0590B068039024
:20FE60000B20ADF80800039880F800A06278E16A022A01D0012200E0002202EB420210234C
:20FE800003EBC20289580988A0F801106178E26A022901D0012100E0002101EB41031421EC
:20FEA00001EBC30151580A6840F8032F49684160002101A8FFF790F818E729E16078022868
:20FEC00001D0012000E000202044407A800701D51F2003E721207DE5307811282BD18DF887
:20FEE00004A0686A0590B0680390ADF80890082707706178E26A022901D0012100E0002125
:20FF000001EB41031C2101EBC301401C515810220DF0CAFF002101A8FFF75EF820202870D9
:20FF20008DF804B0686A05908DF80870314601A8FFF752F815E775E03078112872D18DF8CA
:20FF400004A0686A0590B06803900820ADF80800039809210170E169097849084170E169C9
:20FF600051F8012FC0F802208988C180002101A8FFF732F8AEE76078022801D0012100E088
:20FF800000212144497A490701D52220A6E6012849D068E03078112844D1B06828622320BF
:20FFA0002870296904204870206A4860E06A09308860764873E530780D2833D16178E06A84
:20FFC000022901D0012100E0002101EB4101202707EBC1011022405871680DF065FF8DF850
:20FFE00004A0686A0590286A0390ADF8089080F800B06278E16A022A01D0012200E0002225
:020000040001F9
:2000000002EB420207EBC202401C895810220DF04BFF002101A8FEF7DFFF00202862607824
:20002000B5E791E037E02420D4E4607802280BD000202044407AC10702D0E178C90705D0ED
:20004000810705D51920A9E40120F2E71720A5E4400701D51B20A1E41C2020706078012814
:2000600001D01820B6E42720B4E4282028700B2000E63078122849D12920ABE42078012878
:2000800044D00C2842D02046FEF7EFFF0C208DF80400686A059039E030784FF0260811283A
:2000A00005D012203070032785F800804CE08DF804A0686A0590B06803900220ADF808003C
:2000C000039805210170297F4170002101A8FEF783FF0B208DF80400686A0590314601A819
:2000E000FEF77AFF074685F80080012F0ED02BE001208DF80400686A059004208DF808006D
:20010000287F8DF809000020287712E0287F80B11D202070252028708DF804B0686A0590D7
:2001200002208DF80800314601A8FEF755FF07460AE00CB1FE2020709DF8040020B100217A
:2001400001A8FEF749FF0AE409B03846BDE8F08F2DE9F04F0C4601274E69097885B090465E
:20016000BA464FF00209072021B101294ED002291FD1C8E0217901290AD0022915D0032957
:2001800010D0042915D11BE00CE6010028E50100707801280CD10620616A02F067FB002815
:2001A00007D11AE01D20307017E07178022901D0052796E031780C2927D18DF804000EE0C5
:2001C0003078011F042902D30E3803281DD2B07F02281AD12089022817D38DF8049084F85F
:2001E00000A020899DF80410884203D20A208DF800003FE01121083488F8001094E80E0018
:20020000C8E901120327C8F80C306AE098F80010112966D18DF80000616A0491D8F808508C
:20022000029521794FF00B0B012906D0022929D0032911D0042954D15AE0ADF8049085F8C5
:2002400000B0207E4F4600F01F00687000216846FEF7C2FE377043E0ADF804900520287090
:20026000207E68704E4600216846FEF7B5FE26708DF800B0606A049041466846FEF7ACFE00
:2002800007462EE0ADF8040085F800A0207F6870607F00F00100A870A07F00F01F00E87058
:2002A000E17F2971C0071FD094F8200000F00F00687194F8210000F00F00A8710021684676
:2002C000FEF78AFE2868B063A888B087A87986F83E00A069407870772879B0700D20307084
:2002E0000027384605B031E70020A8716871E5E7ADF804900E202870207E6870002168466A
:20030000FEF76AFEECE7FE2030708DF800A0606A049004208DF80400207E8DF80500EDE7C3
:2003200000B50023012285B005280FD006280BD102208DF8002004918DF804008DF80530D8
:2003400000216846FEF748FE05B000BD8DF8002004918DF80420F1E770B50C46054602F0B2
:20036000ACFA21462846BDE870407823002202F007BA08B1007870470C20704770B50C0041
:2003800005784FF000010CD021702146F3F727FA74482178405D884201D1032070BD0220C1
:2003A00070BDF3F71CFA002070BD027B032A05D000220A704B780B2B02D003E0042070471F
:2003C0000A770A62027B9300521C0273C15003207047F0B585B00F4605460124287B05EB20
:2003E000800050F8046C7078411E0C290AD25D493A46123101EB8000314650F8043C28462B
:20040000984704460CB1012C11D1287B401E10F0FF00287301D00324E0E70D208DF80000DB
:20042000706A0490002101966846FFF7A7FF032CD4D005B02046F0BD70B515460A46044697
:2004400029461046FFF7C5FF064674B12078FE280BD1207E30B100202870294604F10C006B
:20046000FFF7B7FF2046FEF700FE304670BD704770B50E46044688210DF0AFFD0225012EB2
:2004800003D0022E04D0052070BD0120607000E065702046FEF7E9FDA577002070BD28B10A
:2004A000027E1AB10A4600F10C01C5E70120704730B5044687B00D46062002F0FEF92946E8
:2004C000052002F0FAF92078FE2806D000208DF8000069462046FFF7E2FF07B030BD7FB515
:2004E0000E4600218DF80C1041780B2903D00C2903D0002405E0846900E044690CB1217E3F
:2005000091B16D4601462846FFF74FFF032809D1324629462046FFF78FFF9DF80C1000293D
:2005200000D0042004B070BD04F10C05EAE710B590B00C4607900B480421801E08900A4821
:200540008DF8191009900F92694606A8FFF7C7FF002805D11022204601990DF0A5FC0020AC
:2005600010B010BD2EE501000CE6010070B50D46040011D085B1210128460DF00CFD10228C
:200580004E4928460DF090FC4C4801210838018044804560002070BD012070BD70B5474E98
:2005A00000240546083E10E07068AA7B00EB0410817B914208D1C17BEA7B914204D10C227B
:2005C00029460DF045FC30B1641C30888442EBDB4FF0FF3070BD204670BD70B50D4606001D
:2005E00006D02DB1FFF7DAFF002803DB401C14E0102070BD314C083C20886288411C914242
:2006000001D9042070BD6168102201EB001031460DF04AFC2088401C20802870002070BD75
:2006200070B514460D0018D0BCB10021A170022802D0102811D105E0288870B10121A170A8
:20064000108008E02846FFF7A9FF002805DB401CA070A8892080002070BD012070BD70B511
:20066000054614460E000BD000203070A878012808D005D91149A1F108010A8890420AD9F1
:20068000012070BD24B1287820702888000A5070022008700FE064B14968102201EB00110F
:2006A000204610390DF000FC287820732888000A607310203070002070BD0000680000202D
:2006C0002DE9F041FE4C207EE17D884208BFBDE8F0810126FB4D0027E07D215C01EB810207
:2006E00005EB8200037C052B18D0037C062B23D0037C072B34D0437C002B08BFFFDF29D011
:200700004774E07D16280EBF0020E07D401CE075481CC0B255F8222007211AE00674E07D2A
:2007200016281ABFE07D401C0020E075481CC0B255F8222002210CE00674E07D16281ABF12
:20074000E07D401C0020E075481C55F82220C0B203219047207EE17D8842BDD1BDE8F081A1
:200760000674E07D16281ABFE07D401C0020E075481CC0B255F822200821EAE770B5D24DBA
:200780000C2085F82900A5F53B70002480F8CD4180F8CC4100F5F4700476C47505F12C00E5
:2007A0000CF0C0FDA5F58E70047585F82B40601E2C60A86085F8254085F8224085F82340D4
:2007C00085F8244085F82140C048A5F1E80104704470002000EB800201EB82021474401CCA
:2007E000C0B20B28F6D30120F8F708FF0020F8F705FF012085F82600F9F72EFBB448F9F798
:200800003AFBB44C2070B448F9F735FB6070BDE87040F8F787BE10B5F8F7B2FEAD4C2078A9
:20082000F9F742FB6078F9F73FFBA74C94F82800002808BF10BDF9F7B2F8002084F82800C8
:2008400010BD0B20704770B59F4C94F8260000281CBFFFDF70BD94F82B00002808BFFFDF95
:20086000F8F777FF62690025811A6FF07F43B1F5800F24BFA2EB000CBCF5800F0DD38B42C9
:2008800003D2991A0844411C07E0634528BFFFDF05D2181A1044401C4142002900DBFFDFB5
:2008A000012684F8266084F82B5094F829100420844A01EB810102EB81010874A068B0F15F
:2008C000FF3F04D0B01EA0600120F8F797FE0020F8F794FEF8F778FE25600CF0C7FEF8F758
:2008E000C1FF7E48056005604FF0E0214FF40040C1F88002F2F7E5FA74480078022804D0B0
:20090000032805D194F8230010B184F8226001E084F82250BDE87040F8F788BF0346694913
:200920000B2000BF00EB800201EB820212F8042C22B1401E10F0FF00F4D1704700EB80029D
:2009400001EB8201012241F8143C01F8042C7047012804D0032808BF002926D000E021B3DA
:20096000594B4FF0000C83F821C0584A0028907014BF022882F803C00BD0072915D2DFE86F
:2009800001F01404060C0E1012001B2000E03A20D070012083F8210070475820F8E77720F5
:2009A000F6E79620F4E7B520F2E700207047474810B54078F8F75FFF80B210BD30B5421EA7
:2009C0004049002500EB800001EB80040A2A02D814F8040C00B9FFDF14F8040C012818BFB1
:2009E000FFDF04F8045C30BD70B53D4C94F8CD0194F8CC1188420CBF01250025F8F7A9FEE9
:200A0000F8F739FF94F8CD1194F8CC2191420CBF01210021A942E9D170BD30B50D46314A66
:200A200044190021101A71EB010038BFFFDF2E488542C8BFFFDF2D488542B8BFFFDF2C4835
:200A40008442A8BF2B4804DA002CAABF2046284830BD201830BD70B51A4900EB800001EBBC
:200A60008004254A54F8101D607A002852F8202011440CBF04200220084420F07F40F8F70E
:200A8000FAFE94F90850174A44190021101A71EB010038BFFFDF14488542C8BFFFDF13485B
:200AA0008542B8BFFFDF12488442A8BF114804DA002CAABF20460E4870BD201870BD000079
:200AC000DC080020F8080020E00900207A0000202D26010078000020C106010000F5004066
:200AE000F4060020FF7F841E0020A10700E05EF80080841E00807BE170E501002DE9F04F15
:200B00000646FF4885B00068C005C00D11D0103840B20028B8BF00F00F0000F1E020B4BFF6
:200B200090F8140D90F80004400908BF4FF0010A01D04FF0000A307800281FBF0128002015
:200B400005B0BDE8F08F307900280CBF04210221EC4ABAF1000F52F8200001EB000903D1B5
:200B6000E949002081F827006C4602AA2146B068F8F78EFE9DF90820F068211D1044012260
:200B8000C01C1F28B8BF019208DB03AAF8F780FE9DF80C0010B10198401C0190DDE900106D
:200BA0000844401D20F07F400190A1EB090020F07F40009070798DF80A0000980390F8F7A6
:200BC000C8FD009A019B121A181AD04922F07F4220F07F40B2F5800F26D2814224D3CA4807
:200BE00090F82950009CCA4F181B20F07F486FF07F40001BAB4604900C2D24D005EB8500D5
:200C000007EB80026FF07F435068011BB1F5800F12D3A4EB000CBCF5800F0DD38B4205D2F2
:200C200004990844411C07E000205FE0634509D2191A0819401C41420029BCBFAB46957CCC
:200C4000DADB00E0FFDF5D4525D00BEB8B0007EB80026FF07F4091680B1BB3F5800F12D33C
:200C6000A4EB010CBCF5800F0DD3984203D204980844431C07E0604528BFFFDF0BD2431A37
:200C80001819401C4342002B05DD9DF80A00927B904228BF0C460C2D18BF9DF80A1010D0DF
:200CA00005EB850007EB80004268121B22F07F42424506D2827B914228BF8468857C0C2D67
:200CC000EED10098A04205D004EB080020F07F400094019000990398814206D001EB090059
:200CE00020F07F40F8F7C7FDB0600120864991F82710002904BF05B0BDE8F08FBAF1000F33
:200D00003FF42EAF05B0BDE8F08F2DE9F04F064687B00C467F480CF00DFB4FF00108002885
:200D200035D07D4F387D002818BFFFDF3E742079794D05F10C022872607968722946A06877
:200D4000F8F7A6FD95F90C000F2804DD1F3828732868401C286095F90C00E1682E1D08446F
:200D6000C01C1F28B8BFC6F8008009DB6A463146F8F78EFD9DF8000010B13068401C30603C
:200D80002078A87287F8148007B0BDE8F08F634D95F8CD0116281ED095F8CD0195F8CC11B7
:200DA000401C884200D1FFDF55480068C005C00D1AD0103841B20029BDBF01F00F0000F10C
:200DC000E02090F8140D01F1E020A8BF90F80004400909D104E095F8CC010028E4D1E2E77E
:200DE0002078002818BFFFDF4C4890F8CD1101EB810100EB810006742078012800F04A81B4
:200E0000022843D0454890F8CD1101EB810100EB8105207928726079687205F10C0229466A
:200E2000A068F8F735FD95F90C000F2804DD1F3828732868401C286095F90C10E0682E1D34
:200E40000844C01C1F28B8BFC6F8008009DB6A463146F8F71DFD9DF8000010B13068401C10
:200E600030602078A8722D4890F8CD1116290EBF002190F8CD11491C80F8CD1125480CF09E
:200E80006FFA07B0BDE8F04FF8F7D0BC234890F8CD1101AA01EB810100EB81076946E0687F
:200EA000F8F7F6FC9DF904000F28CCBF0120002000993D1D08440190A068C01C1F28B8BF42
:200EC000C5F8008009DB6A462946F8F7E1FC9DF8000010B12868401C28600220B872607917
:200EE00078722079387200280CBF04210221054A52F82000014403917A68481D10440FE06E
:200F000004ED00E070E50100E0090020FFFF3F00F80800200C0A0020C4080020F406002008
:200F20000199009008440399401A0590FD4C002084F82700F8F70DFC386001998046084468
:200F400020F07F40F86094F829000C287ED0214691F8290000EB8002A1F1E80000EB8202C4
:200F60005668009A324422F07F42029297F809B091F829503446111B21F07F4A6FF07F4153
:200F8000891BA94604910C2D23D0E74805EB850100EB81026FF07F435068011BB1F5800FC0
:200FA00024BFA4EB000CBCF5800F0BD38B4203D204990844411C05E0634509D2191A0819F1
:200FC000401C41420029BCBFA946957CDBDB00E0FFDF4D4524D0D44809EB890100EB81038B
:200FE0006FF07F429868011BB1F5800F12D3A4EB000CBCF5800F0DD38A4203D2049901445D
:20100000491C07E0624528BFFFDF09D2121A1119491C4942002903DD997B8B4528BF0446D9
:201020000C2D18BFC04910D005EB850001EB80004268121B22F07F42524506D2827B9345E8
:2010400028BF8468857C0C2DEED100E01BE0A64205D004EB0A0020F07F4026460290029ACA
:20106000A6EB080020F07F40A2EB0802059922F07F42B0F5800F06D2914204D3039830443B
:2010800020F07F403860A74890F8270000287FF44DAFE8E6A548851915F8010C002818BF42
:2010A000FFDF05F8018CADE60020F8F797BA0120F8F794BA9E48007870472DE9F0419A4E33
:2010C00000274FF00308012506F1E80450B301285BD0022800F0E98003281CBFFFDFBDE833
:2010E000F08194F829000C2808BFFFDF84F8267084F82B5094F8290000EB800006EB800057
:2011000080F81080F8F799FB94F8290094F82910401CC0B201EB810156F82120BDE8F04129
:201120000521104794F829000C2808BFFFDF84F8267084F82B5094F8290000EB800006EB8A
:20114000800080F81080F8F778FB207F002818BFFFDF84F825500020F8F750FAA168B1F134
:20116000FF3F04D0012300221846F8F78BFA94F8290094F82910401CC0B201EB810156F841
:201180002120BDE8F0410121104794F829000C2808BFFFDF84F8267084F82B5094F8290073
:2011A00000EB800006EB800080F81080F8F745FB0120F8F723FA94F8250000281CBFA06833
:2011C000B0F1FF3F0DD094F8290094F82910401CC0B201EB810156F82120BDE8F041062111
:2011E0001047207F012815D002281FD0032833D004281CBFFFDFBDE8F08194F82010606825
:201200000123411A00221846F8F73CFA94F82800B8BB37E094F8240028B184F82470F8F7E4
:2012200013FB84F823502777BDE8F08194F8280018B9F8F78BFB84F8285094F8290094F8CE
:201240002910401CC0B201EB810156F82120002190472777BDE8F081217B60680123411AFB
:2012600000221846F8F70EFA94F8240028B184F82470F8F7E9FA84F8235002202077BDE83F
:20128000F08103E0F8F762FB84F8285094F8290094F82910401CC0B201EB810156F8212075
:2012A000002190472577BDE8F08121480078BDE8F041F8F7FFBD10B51A4C94F829000C280E
:2012C00008BFFFDF94F8290094F82910401CC0B2154A01EB810152F82120BDE810400421AF
:2012E00010472DE9F84F8046087C104C401EC6B20D46A05D01281DD0022825D0297CDFF8BD
:2013000028A0481EC4B204EB84020AEB8206371D0A2821D801EB81000AEB800010F8040CBE
:20132000D8B919E0E0090020F8080020D409002078000020A87A012814BF02200020A05510
:2013400018BFBDE8F88FD9E7A87A012818BFFFDF0021A972A155D1E7FFDF307CDFF82894C3
:2013600007280BD11720009099F8172009F11803494620460BF02AFD01203074307C01280D
:2013800004D0A87A012818BFFFDF02D0A87A01284BD1FE4B307C022818D099F81800162852
:2013A00072D099F8180099F81710401C884200D1FFDF0120707499F8180009F8004099F835
:2013C0001800162800F09E8100F093B9F04A92F829000146A04207D0014600EB810003EBDE
:2013E0008000807CA042F7D192F829C084450CD192F8291001EB810103EB8101897C82F88E
:201400002910012182F82A1009E000EB800203EB820201EB810103EB8101927C8A7400EB20
:20142000800003EB80000C218174287AD949002851F820A02968A1EB0A010CBF042002206E
:20144000081A20F07F423A60D5E90001084420F07F407860A87A022818BF287B1ED03872EF
:201460007868401D20F07F407860687AB872287A06257872032872D2002870D000F022FEDE
:2014800000286DD0A1E0FFE799F81700002890D18EE700BF89F81800BDE8F88F287A00288C
:2014A0000CBF0420022000EB0A036868591D00EB010BB9484078504503D9B54991F8231002
:2014C00011B10BF1060003E0A0EB0A005844801DAF4991F829C0BCF10C0F25D091F829C0FE
:2014E0000CEB8C0EA1F1E80C0CEB8E0CDCF804C0624519D0DFF8A4C291F8291001EB8102AE
:20150000A24901EB82014A688968A2EB080222F07F42A1EB080121F07F41904298BFB2F52E
:20152000800F9DD28C459BD34044A0EB0B0020F07F4139601944E86821F07F410A1A6FF0EA
:201540007F4CB2F5800F24BF431AB3F5800F11D3944506D2ACEB00000844421C0AE034E03F
:201560002FE09C4528BFFFDF1DD2ACEB01010844401C4242002A16DD0520307499F8180073
:20158000162819D099F8180099F81710401C884200D1FFDF99F8180009F8004099F818005B
:2015A00016287BD0A5E03868ABF10501084420F07F407860002052E799F817000028E9D105
:2015C000E7E7CAF138054FF0320A73480178012918BF03290AD14078504507D96C4991F823
:2015E0002310002904BFA0EB0A0005446B4B3868A0EB0802786822F07F41A0EB080020F0AE
:201600007F4C8D4298BFB1F5800F1BD2634519D35F4991F829300C2B30D091F829504FF021
:201620000C0BDA46594905EB850301EB8303D3F808C0ACEB080C944531D8AB469D7C0C2D84
:20164000F0D193E00520307499F81800162810D099F8180099F81710401C884200D1FFDF90
:2016600099F8180009F8004099F81800162849D03FE099F817000028F2D1F0E70220307431
:2016800091F829000C2818BF91F82900B07481F82940012081F82A00BDE8F88F32E00C2D9A
:2016A0001CBFAA46002261D00AEB8A0301EB8303D3F804C0ACEB080C84452CD29A7B97F873
:2016C0000AC0944520D30520307499F81800162813D099F8180099F81710401C884200D189
:2016E000FFDF99F8180009F8004099F81800162808D099F81800401CCCE699F817000028DC
:20170000EFD1EDE70020C5E693F812A00122BAF10C0FC9D103E0002A08BFAA4626D02F467B
:201720001A4807EB870100EB8108062288F8102099F81800162838D099F81800411C99F8FB
:201740001700814200D1FFDF99F8180009F8007099F8180016280EBF002099F81800401C0D
:2017600089F8180098F81270BA45D9D10220074F307407F1E80090F82910A9421AD186F804
:2017800012A080F829400BE0DC080020F8080020E009002070E501007A000020FFFF3F0071
:2017A000012180F82A10BDE8F88F99F817000028CAD1C8E70C2D0CD0BBF10C0F08BFFFDF8E
:2017C0000BEB8B0007EB8000847486F812A0BDE8F88FBBF10C0F08BFFFDF0BEB8B0007EBE3
:2017E000800084740C20B074BDE8F88F2DE9F04F83B0F7F7AEFF05464FF00C0BFE4C94F85B
:2018000029100026A4F1E8094FF001080C292FD094F82920214602EB820209EB8202127CB4
:20182000042A25D091F8292002EB820209EB8202127C032A04BF03B0BDE8F08F2A4620697C
:201840006169801A491BED4B20F07F4021F07F4106283CBF03B0BDE8F08FB0F5800F24BFD1
:2018600003B0BDE8F08F8B423CBF03B0BDE8F08FA068B0F1FF3F18BFFFDF84F8256094F8C9
:201880002900DF4F0C2809D094F8290000EB800009EB8000007C042808D01AE094F8210029
:2018A000B8B1F8787870B878387012E094F829B00BEB8B0009EB800080F8108094F8290086
:2018C00000EB800009EB8000807C84F8290084F82A80DFF830A39AF8CD019AF8CC1188421F
:2018E00019D000BF9AF8CC0100EB80000AEB80012846FFF7F6FC9AF8CC0116280EBF002020
:201900009AF8CC01401C8AF8CC019AF8CD019AF8CC118842E6D1DFF8F0A29AF8140028B185
:2019200051462846FFF7DDFC8AF81460BBF10C0F06D00BEB8B0009EB8000017C01292BD0A9
:2019400094F829000C2800F0ED8094F82A00002800F0F78084F82A6094F8290000EB8001D5
:20196000AA4800EB8102A0F50173D2E90101D268C3F80423C3E9BF01607E00280CBF4FF0A9
:2019800004094FF00209A249022811F82010217318BF012834D123E007210174DFF874A27C
:2019A0009AF81800162816D09AF818009AF81710401C884200D1FFDF9AF818000AF800B0C5
:2019C0009AF8180016280EBF00209AF81800401C8AF81800B4E79AF817000028ECD1EAE798
:2019E00020690844421B22F07F42382A08D903213238617620F07F4020613220207309E01C
:201A0000322907D294F8280058B9F7F79FFF84F8288006E094F8280018B1F7F7C0FF84F891
:201A200028607B7884F8203094F80CA038780621A3EB0A02012818BF032804D184F8248096
:201A4000002AC8BF911D94F822B0BBF1000F18BF891C206901905044484420F07F406060C9
:201A6000BAF1000F14BF02200020207794F82400002808BFBBF1000F37D060480090D4F89B
:201A800010E0D4F814C0AEEB050E2EF07F4EACEB050C20462CF07F4C714598BFBEF5800FDB
:201AA0001FD2009961451CD3002A0FDD0199BAF1000FA1EB020101611944494421F07F41F1
:201AC00041600CBF0121032121770EE004DA002B0CBF02210421F7E7BBF1000F08BFFFDF74
:201AE00003E080F8246084F82260207F40B12069012300EB090100221846F7F7C3FD02E0C7
:201B00000120F7F77BFD94F82900012300EB80013E4800EB8100616890F90C200020F7F77B
:201B2000B1FD0EE00120F7F769FD0020F7F766FDF7F74AFD94F8280018B1F7F730FF84F8D8
:201B4000286094F8220028B1F7F77EFE84F8236084F8226094F8210018B1F8787870B87811
:201B6000387094F8240030B184F823603878002808BF84F824602748017EC07D814203D0CD
:201B800025484078F8F796F984F8278003B0BDE8F08F70B5184C054682B094F829000C28B9
:201BA00008BFFFDF94F8290000EB8000174E06EB8000007C032818BFFFDFA068B0F1FF3F47
:201BC00018BFFFDF94F8290001AA00EB800006EB8000694690F90C002844F7F759FE9DF989
:201BE00004000F28CCBF01200020009908446168084420F07F4111E0E0090020FFFF3F00DD
:201C00007A000020F4060020C4080020F808002070E50100DC08002078000020A16094F885
:201C20002500002804BF02B070BD012302B00022BDE870401846F7F725BD744A0B1A02F164
:201C4000010CB3EB9C0F3CBF1846704710B5441AB4EB9C0F3CBF184610BD9A4203D2101AB0
:201C60000844401C10BD94429EBFFFDF002010BD511A0844401C404210BD01230022014602
:201C80000220F7F7FFBC0220F7F7B8BCF7F761BD2DE9F0415E4C054682B094F82B0000289C
:201CA00008BFFFDF642D50D35A480022401B72EB02004AD3584890F8CD1190F8CC01814212
:201CC00043D15648007D00283FD194F82900DFF8508100EB800008EB8006206801AA2844BD
:201CE0006946F7F7D5FD9DF90400002802DD0098401C0090B168009872680F18BA1A22F0B8
:201D00007F42B2F5800F20D2B27C0C2A09D002EB820208EB82025268511A21F07F418142FC
:201D200013D3A068B0F1FF3F05D00120F7F766FC4FF0FF30A06020682844206027F07F40D8
:201D4000606102B00120BDE8F08102B00020BDE8F0812DE9F8430646401EC7B2304807EB13
:201D6000870100EB8104207C002808BFFFDF2A4A92F8CC1192F8CD0181420DD001EB8103BF
:201D800002EB83031B7CB34210D016290CBF0021491CC9B28142F1D120484FF0170800F11D
:201DA0001805017D29B3007CB04222D10020BDE8F883207C05281FBF207C0628207C0728CF
:201DC0000AD184F81090CDF80080EA7D05F11803144938460AF0FAFF607C68B16674CDF8ED
:201DE0000080EA7D05F118030E4938460AF0EEFF02E04FF001090026207C012804BF607C7A
:201E00000028D6D10120BDE8F8830000FF7F841EE0090020FF1FA107F4060020C4080020BD
:201E2000F8080020DC080020F0B5734AD2F80032724D002401212E7856B9714E3460704F54
:201E400003263F1D3E606E4F04260C373E602970C2F80042D1601160694C4834D16425686D
:201E60008542FBD35160D160C2F80032F0BD2DE9F041044680074FF000054FF0010604D5D7
:201E800060480560066024F00204E0044FF0FF3705D55D484660C0F8087324F480546000B8
:201EA00003D55A48056024F08044E0050FD55248C0F80052C0F8087351490D60091D0D6031
:201EC0004F4A04210C321160066124F48074A00409D54F484660C0F80052C0F808734D4891
:201EE000056024F40054C4F38030C4F3C031884200D0FFDF14F4404F14D047484660C0F822
:201F0000087346488660C0F80052C0F8087344490D600A1D16608660C0F808730D60166002
:201F200024F4404420050AD53E4846608660C0F80873C0F848733C48056024F400640BF0E9
:201F40006FFB3A48044200D0FFDFBDE8F08170B5202500224FEA020320FA02F1C90719D0FB
:201F600051B201F01F060124B4404E09B60006F1E026C6F88041C6F88042002906DA01F02C
:201F80000F0101F1E02181F8143D03E001F1E02181F80034521CAA42DED370BD70B5174C31
:201FA0000D466060FFF763FF6068FFF7D0FF2846F7F7A9FD0AF064FF00F0D5F80BF030FBE7
:201FC0000BF07BFAF7F748FFBDE870400BF006B810B50A4C6068FFF74AFF6068FFF7B7FFB8
:201FE0000BF01EFBF7F753FE0020606010BD034840687047022070470080004080000020FE
:2020000004850040FC1F004000C0004004E5014000D0004004D5004000E0004000F00040F9
:2020200000F5004000B0004008B50040FEFF0FFC70B51F490A68BAB100231D4601244A68AF
:20204000521C4A60092A00D34D600E7904FA06F20E6816420AD072B60B6893430B6062B69C
:2020600049680160002070BD052070BD5B1C092BE5D3FFDFF8E74FF0E0214FF48000C1F8D3
:2020800000027047EFF3108111F0010F72B64FF0010202FA00F20648036842EA030202605F
:2020A00000D162B6E7E702480021016041607047880000200120810708607047012081072C
:2020C0004860704712480068C00700D0012070470F48001F0068C00700D0012070470C48CF
:2020E00008300068C00700D001207047084810300068704706490C310A68D20306D5096803
:2021000001F00301814201D101207047002070470C040040C84911F8210F4978884201D38D
:20212000401A02E0C1F121010844C0B27047C249233111F8210F4978884201D3401A02E0E7
:20214000C1F121010844C0B27047BB49463111F8210F4978884201D3401A02E0C1F1210113
:202160000844C0B27047B54910B5802081F80004B1490020233101F8210F4870AE4901F8CB
:20218000210F4870AC49463101F8210F4870AC480BF0C8F8AA48401C0BF0C4F8F0F7A4FECD
:2021A000BDE8104000F03DB920207047B2E770B50C4605460026FFF7ADFF01469E48A1421A
:2021C00012D30022641EE4B20DD390F82210435C491CC9B205F8013B80F822102129F1D1D8
:2021E00080F82220EEE7012600F01BF9304670BD202070479BE770B50C4605460026FFF72B
:2022000096FF01468C482330A14212D30022641EE4B20DD390F82210435C491CC9B205F8A3
:20222000013B80F822102129F1D180F82220EEE7012600F0F6F8304670BD202101700020A3
:20224000704710B50446FFF780FF2070002010BD70B50C460546FFF778FF0146764846301C
:20226000A14213D30022641EE4B20DD390F82210435C491CC9B205F8013B80F82210212915
:20228000F1D180F82220EEE7002401E042F2070400F0C7F8204670BD70B50C46054621295B
:2022A00000D9FFDF67480068103840B200F0A0F8C6B20D2000F09CF8C0B2864204D2FFDF77
:2022C00002E000BFF0F760FE21462846FFF76FFF0028F7D070BD2DE9F047DFF86481564C18
:2022E000A8F101080746233498F80000DFF84891002604F1230A38B994F8221094F82100B4
:20230000212200F084F890B14D4699F8221099F82100212200F07BF8B8B155469AF8221057
:202320009AF82100212200F072F848B335E094F82100275494F82100401CC0B284F82100FD
:2023400021282AD184F8216027E095F821002F5495F82100401CC0B285F82100212801D1CF
:2023600085F8216098F800004746B0B195F8221095F82100212200F04AF870B13E700CE044
:2023800095F821002F5495F82100401CC0B285F82100212801D185F8216094F8221094F88F
:2023A0002100212200F033F800281FD099F8221099F82100212200F02AF8002816D09AF81D
:2023C00022109AF82100212200F021F800280DD0F0F7B0FD1A480AF0ADFFB0F5005F00D057
:2023E000FFDFBDE8F04716480AF0BABFBDE8F087002806DA00F00F0000F1E02090F8140D95
:2024000003E000F1E02090F8000440097047401C884204D0904200D109B10020704701200D
:20242000704710B506480AF085FF002803D1BDE81040F0F76ABD10BD100A00200DE000E081
:202440009100002004ED00E0164908784A78401CC0B2904205D0144B01221A60BFF34F8F58
:20246000087070472DE9F0410E4C4FF0E02600BFF7F7A0FC20BF40BF20BF677820786070FA
:20248000D6F80052EEF73EFF854305D1D6F8040210B92078B842EBD0F7F787FC0020BDE83C
:2024A000F081000093000020180502402DE9F041012528034FF0E0210026C1F880011E4CF7
:2024C000C4F800610C2000F02CF81C4801680268C94341F3001142F010020260C4F804535E
:2024E0002560491C00E020BFD4F80021002AFAD019B9016821F01001016011480768656007
:20250000C4F80853C4F800610C2000F00AF83846BDE8F08110B50446FFF7C8FF2060002069
:2025200010BD00F01F02012191404009800000F1E020C0F88012704700C0004010ED00E032
:2025400008C500402DE9F047F84C0646FF21606800EB061211702178FF2916D04FF008092E
:2025600009EB011109EB06174158C059491E21F07F4100F0DDF918B194F80080454614E040
:202580006168207801EB061108702670BDE8F087626809EB0510D159105800F0C9F930B9AD
:2025A0006068A84600EB08100578FF2DF0D1606800EB061100EB08100D700670E6E7F0B5C6
:2025C000DA4B0446002001255A680C261B7A0BE005EB0017D75DA74204D106EB0017D759A1
:2025E0008F4204D0401CC0B28342F1D8FF20F0BD70B5FFF74BFBCD4C0146082522786068BE
:2026000005EB0212805800F093F9012808D92178606805EB01114058BDE87040FFF72DBB2A
:20262000FEF748FDBDE87040F7F744BC2DE9F041BE4C2578FFF72AFB0146FF2D6FD04FF023
:202640000808626808EB0516905900F071F90228606801D980595EE000EB05110978217059
:20266000022101EB0511425C5AB1521E4254815901F5000121F07F4181512846FFF762FF4D
:2026800034E00423012203EB051302EB051250F803C0875CBCF1000F10D0BCF5806F10D9BF
:2026A000CCF3090250F806C00CEB423C2CF07F4C40F806C0C3589A1A920A09E0FF2181549F
:2026C0000AE0825902EB4C3222F07F428251002242542846FFF736FF0C21606801EB0511DC
:2026E0004158E06850F82720384690472078FF2815D0FFF7CBFA01462278606808EB021206
:202700004546805800F014F9012891D92178606805EB01114058BDE8F041FFF7AEBABDE8F2
:20272000F081F0B51D4614460E460746FF2B00D3FFDFA00700D0FFDF7C48FF210022C760C8
:20274000446005720674017042701046012204E002EB0013401CE154C0B2A842F8D3F0BDFF
:2027600070B5724C06466578207C854200D3FFDFE06840F825606078401C6070284670BD95
:202780002DE9FF5F1D468B460746FF24FFF77EFADFF89891064699F80100B84200D8FFDF25
:2027A00000214FF001084FF00C0A99F80820D9F804000EE008EB0113C35CFF2B27D0BB429B
:2027C00005D10AEB011350F803C0DC4521D0491CC9B28A42EED8FF2C1BD008EB04110AEB78
:2027E0000412475440F802B00421029B0022012B01EB041111D042504FF4806808234FF025
:20280000020C454519D9A905890D08D008E00C46DDE7FF2004B0BDE8F09F4550ECE741461E
:2028200006EB413203EB041322F07F42C250691A0CEB0412890A81540BE005B9012506EB92
:20284000453103EB041321F07F41C1500CEB0411425499F800502046FFF774FE99F8000039
:20286000A84201D0FFF7C4FE3846D3E770B50C460546FFF70BFA064621462846FFF79FFE3C
:202880000446FF2817D0294D082101EB041168684058314600F04CF800F58050400B0221FA
:2028A0006A6801EB0411515C09B100EB8120002800D1012070BD002070BD2DE9F0410F4622
:2028C0008046FFF77CFEFF281BD0184E357871682A462C4605E0844206D0254601EB0513F2
:2028E0001C78FF2CF7D10CE0FF2C0AD0A5420CD101EB021000783070FF2804D0FFF778FE1F
:2029000003E000200BE7FFF7BEF939464046FFF7ADFFFF220123716803EB0413CA5401EB41
:20292000041201EB051112780A70F8E67C0A0020401A20F07F40B0F5000F00D9002070476A
:2029400070B50446A0F500002C4EB0F1786F02D23444A4F500042A48844201D2012500E077
:20296000002500F041F830B1B4420BD32548006804E0284370BDB44204D32348844201D232
:202980000120F6E70020F4E710B50446A0F50000B0F1786F03D219480444A4F5000400F007
:2029A00023F84FF0804130B11648006804E08C4204D2012003E014488442F8D2002080F04D
:2029C000010010BD10B520B1FFF7DEFF08B1012010BD002010BD10B520B1FFF7B1FF08B137
:2029E000012010BD002010BD084809490068884201D1012070470020704700000000002087
:202A000000F00100200000200800002098000020BEBAFECA0548064A0168914201D1002199
:202A200001600449012008607047000098000020BEBAFECA40E5014053480021017041706C
:202A400010218170704770B5054616460C460220F0F7E7F94C49012008704C49F01E08605D
:202A60004B480560001F046070BD10B50220F0F7D8F945490120087046480021C0F8001170
:202A8000C0F80411C0F8081143494FF40000086010BD3D480178C9B1404A4FF400011160DD
:202AA0003C49D1F800310022002B1CBFD1F80431002B02D0D1F8081111B14270102103E00A
:202AC0000121417036490968817002700020F0F7A8B92D480178002904BF407870472D48AA
:202AE000D0F80011002904BF02207047D0F8001100291CBFD0F80411002905D0D0F80801AF
:202B0000002804BF01207047002070471E4800B50278204B4078C821491EC9B282B1D3F89A
:202B200000C1BCF1000F10D0D3F8000100281CBFD3F8040100280BD0D3F8080150B107E0DA
:202B4000022802D0012805D002E00029E4D1FFDF002000BD012000BD0B480178002904BF6A
:202B6000807870470B48D0F8001100291CBFD0F80411002902D0D0F8080108B1102070472D
:202B800007480068C0B270479C00002010F5004008F5004000F0004004F5014008F501406F
:202BA00000F400403148002101704170704770B5064614460D460120F0F733F92B49012087
:202BC00008702B480660001D0460001D056070BD2DE9F04105460120F0F723F9234801262C
:202BE0002449067045F080700860234C0027C4F8047122494FF040700860002D02BFC4F832
:202C000000622660BDE8F081012D18BFFFDFC4F8007226604FF0007019490860BDE8F08190
:202C20001248017879B1154A4FF0407111601249D1F804210021002A08BF417002D0114A9E
:202C40001268427001700020F0F7EBB807480178002904BF407870470748D0F804010028C6
:202C600008BF704707480068C0B270479F00002008F5004004F5004000F0004008F5014053
:202C800004F5014000F4004070B5FE4C002501206570257025626572A572E07284F82950EB
:202CA000256304F13C00A5630AF03CFB002818BFFFDF84F82450F4480BF0A2FAF3494FF007
:202CC00011300860091D0860091D0860091D0860091D0D60091D0860091D0860091D086064
:202CE000091D0860091D0860091D0860091D0860091D0860091D0860657770BD30B4E14969
:202D00000268DFF890C34A6142688A61007A08770A7DDF4BACF1040401204AB10A7E00FAF2
:202D200002F21A608D7D002D0CBF2260CCF800204A7D002A04BF30BC70474A7E9040186056
:202D4000C97D00290CBF2060CCF8000030BC7047D249D1480860091DD14808607047CF4A3F
:202D600000B5D0491160C0B240F44030111D40F000700860CC48D0F80001002818BFFFDF0E
:202D800000BD012070B502244FF0E0250022C5F88041C6490A600860C5490B6823F0770337
:202DA00043F0880343F000430B60C24B40F25B6119601B1F40F203111960191F0860BE4861
:202DC00003230360BD4996200860AE4EBC4896F9241011F1080F08BFF8213CD014DC11F18C
:202DE000280F08BFD82136D011F1140F08BFEC2131D011F1100F08BFF0212CD011F10C0FCA
:202E000008BFF42127D010E011F1040F08BFFC2121D0002908BF026008D0032908BF036085
:202E200004D0042908BF016000D0FFDF707F002814BF4FF4C020A348A3490860A449A34897
:202E40000860091FA3480860C5F8804296491020C1F8040370BD0160E8E78A4A0368C2F8EB
:202E600002308088D08011727047864890F829007047844A517010707047F0B50546800022
:202E800000F1804000F580508B88C0F820360B78D1F8011043EA0121C0F8001605F1080023
:202EA000012707FA00F68C4C002A04BF2068B04304D0012A18BFFFDF2068304320602068FC
:202EC00007FA05F108432060F0BD10B57C49044610F1080F08BFF8202CD014DC14F1280F90
:202EE00008BFD82026D014F1140F08BFEC2021D014F1100F08BFF0201CD014F10C0F08BF63
:202F0000F42017D011E014F1040F08BFFC2011D0002C08BF00200DD0032C08BF032009D007
:202F2000042C04BF0420086000D0FFDF554880F8244010BD0860F9E7524890F834007047C9
:202F4000504890F836007047644AC178116000686349000208607047252808BF02210ED0C2
:202F6000262808BF1A210AD0272808BF502106D00A2894BF0422062202EB4001C9B2594AAB
:202F800011605949086070473E49086270473D498A7A012A49D0022A18BF70474B7D002BDC
:202FA00008BF7047DFF844C1012A42D0CA7D4B7E002A18BF01227D30CCF80000DFF830C10D
:202FC0000020CCF84C01180282F0010240EA025040F00312087F830003F1804303F5C043B4
:202FE000C3F81025434A02EB8002887EC30003F1804303F5F833C3F81425DFF8FCC0C3F800
:2030000010C5C97ECB0003F1804303F5F833C3F81425304AC3F81025012202FA00F002FA86
:2030200001F108433549086070470B7D002BB9D170478A7D0B7E002A18BF01227E30BBE7BE
:203040002DE9F84F00280CBF012202220D4D164C0320AA72C4F80002687F002814BF4FF4FB
:20306000C0201848254F38604FF00108002974D0012971D002291CBFFFDFBDE8F88F286A42
:2030800000283DE0900A0020A40A0020000E0040180500500C0500500601020014150040D5
:2030A000250003020801100000100040FC1F00403C17004038150040101500404415004004
:2030C0000C1500400000040408F5014040800040A4F50140101100404016004024150040FF
:2030E0001C15004008150040541500404C85004000800040006000404C81004004F50140A1
:2031000008BFFFDF296A286B0844FC490860FD49FB480860A97AFC4801290EBF0460FB49F4
:203120000160A86B40F40020A863D4F800924FF0100AC4F808A30026C4F80062F4484FF4DB
:20314000802BC0F800B0FF208DF80000C4F81061C4F810803DE000E01CE0012A13D0C4F87C
:203160000480022A18BFBDE8F88F687D002808BFBDE8F88FE748C0F84C80E7480068BDE8AD
:20318000F84F0A3003E7C4F80080287D0028F1D1BDE8F88FE148012A806B07D0022A18BFB4
:2031A000FFDF09D0BDE8F84F0A20F0E640F48010A8634FF4801004E040F40010A8634FF454
:2031C00000103860EEE700BF9DF80000401E8DF800009DF8000018B1D4F810010028F3D015
:2031E0009DF80000002808BFFFDFC4F80061C4F80C61C4F81061C4F80461C4F81461C4F8EC
:203200001861C4F82861C64800680090C4F80092C7F800B0C4F804A34FF400203860296A3C
:20322000286BBDE8F84F08440A30B0E62DE9F847BC4CD4F8000220F00309D4F804034FF09A
:20324000100AC0F30018C4F808A30026C4F80062B24D687F002814BF4FF4C020B248AC49EB
:203260000860A87A0127012802D0022803D014E0287D10B911E0687D78B1A87EEA7E07FAB4
:2032800000F007FA02F210430860287F800000F1804000F5C040C0F81065FF208DF80000F0
:2032A000C4F81061276104E09DF80000401E8DF800009DF8000018B1D4F810010028F3D0D7
:2032C0009DF80000002808BFFFDFC4F81061C4F828616E72AE72EF72C4F80092B8F1000FB3
:2032E00018BFC4F804A3BDE8F88700688F4920F07F40086070474FF0E0200221C0F8801197
:20330000C0F8801270474FF0E0210220C1F80001704787490870704710B586480AF00AF84B
:20332000002818BFFFDF10BD82480AF019B882490860704730B5794C0546206BA84228BF13
:20334000FFDF012020732561607F40B1A81C20617448D0F8001241F04001C0F800126D49B8
:203360000020C1F84401754920690860A06B744940F48000A0634FF48000086030BD67483A
:2033800002210173CA210161417F41B1CC2101616449D1F8002242F04002C1F800225D4ABA
:2033A0000021C2F844110269016B1144634A1160816B41F48001816361494FF48000086038
:2033C00070475649012048775E49022008605F495D480860091F5E48086070474F4900202C
:2033E000487770474A494FF4800008604B48816B21F48001816300210173704745480121A5
:203400004160C1600021C0F844114C480160434801637047414800B5407F002818BFFFDF47
:203420004020484908603F48D0F8001241F04001C0F8001200BD394800B5407F002818BFE5
:20344000FFDF3848D0F8001221F04001C0F800123C490020086000BD3248D0F8001221F0E9
:203460001001C0F800120121816170472D480021C0F81C11D0F8001241F01001C0F8001255
:203480007047284981B0D1F81C21012A1EBF002001B070472F4A126802F07F0252420270D1
:2034A0000020C1F81C012C4800680090012001B0704730B50C00054608BFFFDF14F0010F2C
:2034C0001CBF012CFFDF002D0CBF01200220134901284872CC72134904BFD1F8000240F034
:2034E000040007D0022807BFD1F8000240F00800FFDF30BDC1F8000230BD0000488500407E
:2035000048810040A8F50140ACF501400410004008F50140008000404C850040900A0020C5
:203520001811004000100040000004043C150040A1000020CC0A0020041500404485004020
:2035400004F5014060150040448000409CF5014028110040481500401C11004070B5EF4CC3
:203560000022E17A11F0020F18BF10F0040F16D111F0100F1CBF94F83530002B02D094F876
:20358000373063B111F0080F1CBF94F82830002B05D111F0040F03D094F8291001B901224F
:2035A000657ADF4900234FF0010C35B100F00200104314D0BDE8704038E6607F002814BF39
:2035C0004FF4C020D748D84A1060D1F8000220F00300C1F80002A37284F80BC070BD012DC7
:2035E00014D0022D18BFFFDF1CD0A07A01280CBFCE48CF484FF47A7100F2E730B0FBF1F019
:20360000216BBDE87040081A8C30C0E4D1F8000220F00400C1F80002637284F80BC084F815
:203620000AC0E2E7D1F8000220F00800C1F80002637284F80BC00220A072D6E72DE9F84FEF
:20364000BC4FD7F84C21B54CB7494FF00108A07A0026CAB1012802D0022803D014E0227D94
:2036600012B911E0627D7AB1A27EE37E08FA02F208FA03F31A430A60227F920002F1804266
:2036800002F5C042C2F81065A26B0A60A663217B29B1D7F84411012908BF012200D00022E2
:2036A0009F4DD5F8101101290CBF40210021012805BFD5F80C31012B0023202319430128AB
:2036C00005BFD5F80431012B002310230B439A49022804BFD1F800C0BCF1010F07D1D5F899
:2036E0000CC1BCF1010F08BF4FF0080C01D04FF0000C4CEA0303022804BF0968002905D171
:20370000D5F80C11012908BF042100D000211943022803D1002A18BF022200D100221143F2
:20372000022804BFD5F80401012805D1D7F84401012818BF012000D1002040EA01097F48AA
:20374000016811F0FF0F03D0D5F81411012900D0002184F83410006810F0FF0F03D0D5F83B
:203760001801012800D0002084F835007448006884F836007348006818B1FFF7AAF90128E2
:2037800000D0002084F83700C5F80061C5F80C61C5F81061C5F80461C5F81461C5F8186186
:2037A000C5F82861684800680090C7F84461674800684D46DFF898910090D9F80000E0626A
:2037C000617F00291CBF801EE062624800682063A07ADFF884A102280CD1607850B1DAF8C8
:2037E000001009780840217831EA000008BF84F8288001D084F82860DFF8608115F0010FAF
:2038000016D098F80010564A4908E06A52F821108847012198F80020524B5208206B53F8FE
:203820002220904798F8000010F0010F0BD01FE015F0200F18BF0221ECD115F0020F18BF1D
:203840000021E7D1EEE7DAF80000062200F10901A01C0AF0FDFA40B9207ADAF80010097822
:20386000B0EBD11F08BF012000D0002084F829002846FFF773FE15F0020F05D03A4898F86E
:20388000001050F82100804715F00C0F07D0374898F8001050F82110C5F3C000884715F00D
:2038A000200F05D0324898F8001050F82100804798F80000022805D105F06E00402806D188
:2038C00001F00BFB98F80000042828BFFFDFA07A022818BFBDE8F88F207B002808BFBDE8FA
:2038E000F88FC7F84461022814D0012818BFFFDF216B2069884298BFFFDF2069C9F8000093
:20390000A06B1C4940F48000A0634FF480000860BDE8F88F2169206B0844EFE7900A002038
:20392000001000400000040408F50140F0FE0100B0F80100008000400014004040160040AF
:2039400008140040601500401811004044810040448500404085004004150040A1000020C0
:2039600088E5010090E5010098E50100A8E50100B8E5010004F5014010B54A4808F0C3FC71
:203980000021484808F0EEFC0121464808F0BEFC4549002081F822004FF6FF70888443499D
:2039A0000880488010BD10B53E4808F0ACFC00213C4808F0D7FC01213A4808F0A7FC3A49CD
:2039C000002081F822004FF6FF70888437490880488010BD704734498A8C824218BF704733
:2039E000002081F822004FF6FF70888470472D49016070472D49088070472B498A8CA2F531
:203A00007F43FF3B03D0002101600846704791F822202549012A1ABF0160012000207047BA
:203A2000214901F1220091F82220012A04BF00207047012202701D480088888410467047DD
:203A40001A49488070471849184B8A8C5B889A4206D191F82220002A1EBF01600120704709
:203A6000002070471048114A818C5288914209D14FF6FF71818410F8221F19B100210170C9
:203A800001207047002070470748084A818C5288914205D190F8220000281CBF00207047C2
:203AA00001207047F60A0020D00A0020A20000207047514A012340B1012818BF70471370B1
:203AC0000868906088889081704753700868C2F802008888D0807047474A10B1012807D056
:203AE0000EE0507860B1D2F802000860D08804E0107828B1906808609089888001207047D5
:203B0000002070473C4910B1012803D006E0487810B903E0087808B1012070470020704752
:203B200030B58DB00C4605460D2104A80AF055FAE0788DF81F0020798DF81E0060798DF80D
:203B40001D002868009068680190A8680290E8680390684609F02EFA20789DF82F1088423D
:203B60000CD160789DF82E10884207D1A0789DF82D10884202BF01200DB030BD00200DB0FE
:203B800030BD30B50C4605468DB00321E01CFEF732FB60790D2120F0C00040F0400060711F
:203BA00004A80AF01AFAE0788DF81F0020798DF81E0060798DF81D00286800906868019017
:203BC000A8680290E8680390684609F0F3F99DF82F0020709DF82E0060709DF82D00A07014
:203BE0000DB030BD10B504460621FEF704FB607920F0C000607110BDA600002070B5F94D79
:203C0000044695F88C000026012814D095F86A0001281CBF002070BD6670122020702022EC
:203C200005F16C01A01C0AF03FF90120A07185F86A60012070BD667017202070D5F88D0075
:203C4000C4F80200D5F89100C4F8060085F88C60EFE7E44890F86A10002914BFB0F86E0007
:203C60004FF6FF70704770B5DF480178002918BF0C2601D0304670BDDA4D0026344685F82A
:203C8000626085F8636085F8646085F8656085F8666085F85E6085F8606085F8566085F834
:203CA000366085F868607F21817095F8670028B1FFF7C1FBFEF7EDFE85F8674085F86A40EE
:203CC00085F88C40C94808F0C1F9C94808F0BEF9D0E770B5C44800240470017800291CBF1B
:203CE000FFDF70BDBF4D85F8624085F8634085F8644085F8654085F8664085F85E4085F870
:203D0000604085F8564085F8364085F868407F21817095F8670028B1FFF78DFBFEF7B9FE50
:203D200085F8674085F86A4085F88C40AF4808F08DF9BDE87040AE4808F088B9A94890F87D
:203D400062007047A74900B591F8580091F85710C0F38002C0F340031A4400F00100104406
:203D6000052910D2DFE801F00B070B030900A14931F8100000BDA04800BDA04900E0A0491B
:203D800031F8100000BDFFDF002000BD954840F27121B0F85A0048437047924890F86900C2
:203DA000002818BF0120704710B5040016BF022C00200120FFF7A6FE002808BF10BD8948F8
:203DC0000472012010BD874981F86000704710B5844C207A002816BF0228002001206072B6
:203DE00004F10A01FFF778FE207A022816BF03280121002184F85F10082084F85D00607A8A
:203E000004F10A02012804BF527912F0C00F0AD004F10A02012804D1507900F0C00040285F
:203E200001D0002000E0012084F85E0029B994F85700012818BF042806D1207C04F111014B
:203E400007F0B2F984F85D004AF2B8102060FCF7CBFD606004F10A01644808F01DF9617A53
:203E6000624808F035F904F10A01614808F014F9617ABDE810405E4808F02AB970B5594CA9
:203E8000417B84F85810017984F8571001290CBF00220288A4F85A20827B84F86920827971
:203EA000002A16BF022A002201222274D0F80720C4F81120B0F80B00A4F8150094F85600DA
:203EC0000125002818BF84F8635094F83600002818BF84F8645005292DD2DFE801F00308AD
:203EE000222708000021414808F0B3F824E001213E4808F0AEF804F111013C4808F0DAF885
:203F0000207C20B1012818BFFFDF05D014E00021364808F0EAF80FE00121344808F0E5F8B2
:203F20000AE00621314808F094F805E002212F4808F08FF800E0FFDF04212D4808F089F8A4
:203F400084F86250002070BD70B5264C0546002084F864002A4604F1170009F0A5FF84F86F
:203F60003650012084F8640070BD10B51D4C002284F8632084F85600024604F1370009F0FF
:203F800093FF012084F8630010BD164981F868007047F0B5144E83B0307810BB114C94F835
:203FA0006200F0B1FFF7B8F9002584F8615075702846FFF7AEF9FEF7E4FEFEF7C9FE114829
:203FC000FEF7C2FF1048FFF790F9FFF7D8F994F8580010F0010F1CD02520FEF7BDFF012690
:203FE00026E013E0180B0020B4000020B00B0020D80B0020D8E5010091891300E0E5010022
:20400000D0E50100CBE50100C8E5010003B00C20F0BD10F0020F04D02620FEF79DFF02261B
:2040200006E010F0040F03D02720FEF795FF0426FEF78EFE84F85C60FFF765F9012100206B
:20404000FEF7FEFF0F210520FEF713FF94F85E00002804BF94F85F00002805D194F8570071
:20406000012818BF04286ED1FCF7BEFC064631466068FDF7E2FDF949B0FBF1F701FB1700E2
:2040800041423046FCF7C9FC606020683844206007F087F8216888426CD8C4E9005694F88F
:2040A0005D0007F09DF8064694F85F000127002818BF002E04D01021304607F0A1FD68B162
:2040C00094F8600000281CBF94F85E0000281AD0607A04F10A0101280DD011E0677204F156
:2040E0000A013046FFF74DFD94F85D1004F10A0007F067F907E0487900F0C00040281BD005
:204100000846FFF76FFD04F10A01D54807F0C4FF617AD34807F0DCFF04F10A01D14807F040
:20412000BBFF617ACF4807F0D3FF94F85700012818BF04281ED107E007F077F904F10A01BE
:20414000FFF71FFDDFE715E094F85D0007F051F806000FD0102107F053FD58B969463046D6
:20416000FFF70FFD6946BE4807F0A4FF0121BC4807F0BBFF617A04F10A00FEF76EFE94F850
:20418000570001281EBF042894F86300002808D094F8562004F13701B14807F0C4FF84F849
:2041A000635094F8640040B194F8362004F11701AC4807F0E4FF84F8645007F076F8AA4827
:2041C00007F0F0F884F86700FFF7AEF803B00020F0BDA6494860704770B5A54C06002AD09D
:2041E00094F8582094F85C1022EA010010F0010F04D02520FEF7B0FE012515E012F0020FBC
:2042000002D011F0020F06D012F0040F0CD011F0040F05D008E02620FEF79EFE022503E041
:204220002720FEF799FE0425FEF792FD94F85C00284384F85C0094F8610040B194F8570012
:20424000012808BFFFDFBDE8704000F067BA1EB102210020FEF7F4FE94F865008048FFF782
:2042600066F894F85700052809D2DFE800F003030309030001210846FFF71BF900E0FFDFF1
:2042800094F8580094F85C1030EA01014FF0010002D07649087070BD94F85710012912BFC2
:2042A00084F86100002184F85C10F2E710B5FFF733F86E48007840B96D4890F8620020B1C2
:2042C0000020FFF789FF002010BDFFF797F8FFF789F8FEF7ABFFFFF70EF8FFF725F80C207D
:2042E00010BD6249012048707047614981F86600704770B5002502F07AFE68B14FF4967060
:20430000FEF742FE594E3078012809D0022801D003282ED0FFDF70BDBDE8704000F0FEB9EC
:20432000534C94F85700032823D094F8670018B1FEF79BFBFFF76EF84B48FEF7F8FF94F82F
:204340005700012818BF04280AD094F86900012814BF0328102545F00E010020FFF7A9F8B4
:2043600094F86800012808BFFFF780F80220307070BDBDE8704001202EE770B53C4C3B4D3C
:2043800094F8680001281FD094F8670018B1FFF752F8FEF77EFB02F02AFEF8B1287802281A
:2043A00018BFFFDF94F85700012804BF4FF41970FEF7EAFD0120FFF70FFF287800281EBF07
:2043C00028780128FFDF70BD2A48FFF75AF8002804BF7F20A870FFF73FF8D5E7BDE870406F
:2043E00000F09CB92DE9F05F07464FF00009FEF7A3FD1E4E82463078022818BFFFDF1C4DC5
:204400007F2495F8680001283BD0174807F040FE83464FF0FF08002F7ED0134807F03FFF20
:20442000002879D0FEF721FD002875D095F867000D4F68B106F01EFF8046FF2808D0014603
:20444000F81C06F0F6FE404606F01FFF40EA0A0A58464FF0010B06285ED20DE040420F00C1
:20446000B00B0020D80B0020000C0020B4000020180B0020B6000020DFE800F08888880CEA
:204480008857C848FEF7FDFF002808BFB470FEF7E3FFBAE795F85700012818BF042875D05C
:2044A000BAF1000F05D195F86900002818BF02286CD195F86800012804BF95F88C000028EE
:2044C00005D0B948FEF733FF0320307060E085F88CB0B8F1FF0F0FD005F18E02511E404612
:2044E00006F090FE002808BFFFDF95F88D0040F0020085F88D000CE03878C0F3801085F8B9
:204500008D00D5F8EB00C5F88E00B5F8EF00A5F8920005F1940700E038E0B0787F2808BF21
:20452000FFDFB0783870B470CBE73878297CC0F380102C46884209D1062204F11101F81C06
:2045400009F086FC002808BF012000D0002094F85D10414504D1B8F1FF0F18BF012100D10B
:204560000021014394F85700012818BF042800D149B958B9BAF1000F05D194F86900002836
:2045800018BF012802D194F86600D8B14FF0010995F8670018B1FEF74EFFFEF77AFAB9F172
:2045A000000F1CBF0120FFF717FE307800281ABF30780128BDE8F09F3078032818BFFFDFAF
:2045C000BDE8F09F7068D4F8F710C0F80D10B4F8FB10A0F8111094F8FD10C174B97D01753D
:2045E000B7F81710C182B7F819104180B7F81B108180B7F81D10C1806C49083009F005FE28
:2046000097F8240000F01F017068017697F82410490980F8F41094F86A00002818BFFFDF24
:204620004FF0000A204684F86CA074682188A0F86E106188A0F88410A188A0F88610E188D3
:20464000A0F8881094F8F41080F88A1090F85F1049B1417A00F10A02012904D1517901F025
:20466000C001402934D090F8601041B1427A00F10A01012A04BF497911F0C00F28D0C0F83A
:2046800078A0A0F87CA039780546C1F380116176D0F8EB00C4F81A00B5F8EF10E183B8F1F4
:2046A000FF0F1CD0C5F87E00E08BA5F8820005F172022F46511E404606F0A4FD002808BFE1
:2046C000FFDF97F8710040F0020087F8710013E0D0F80A108167C189A0F87C10D3E7344879
:2046E00009F08AFD617E85F87110D4F81A10C5F87210E18BA5F8761085F86AB086F800A0E4
:20470000FEF77CFEFEF76EFEFEF790FDFEF7F3FDFEF70AFE012002F076FD39E770B5FEF7A5
:204720006DFEFEF75FFEFEF781FDFEF7E4FD214C002694F8670028B1FEF77DFEFEF7A9F90D
:2047400084F867601C4D2E70FEF7EEFD94F85700012804D0BDE87040002002F054BD0220B5
:2047600002F051FD94F86A00002818BFFFDF6878002808BF70BD207C84F87100D4F81100C4
:20478000C4F87200B4F81500A4F876003C2084F86C0068680088A4F86E00012084F86A006B
:2047A0006E7070BDB6000020D80B00201F0C0020960B0020180B0020B40000202DE9F041AB
:2047C000FA4F044600207978F94D4FF00108064611B1012925D007E095F84D10002918BFA9
:2047E00087F8018000D0012079782B2211FB02F1294491F8222010431AD02A22A01C2331BA
:2048000009F052FB66700420207084F8028078782B2110FB01F0284480F822600120BDE866
:20482000F08195F82210002918BF7E70DBD1DBE795F87800D0B1D5F87900C4F80200D5F895
:204840007D00C4F80600D5F88100C4F80A00D5F88500C4F80E0095F88900A07466701120B8
:20486000207084F8028085F8786011E0287801281CBF0020BDE8F0816670122020702022B0
:20488000A91CA01C09F010FBA6712E7085F8A8600120BDE8F081C6480178002914BF808897
:2048A0004FF6FF7070472DE9F041C14C064694F82200002818BFBDE8F081304607F0E8FBDA
:2048C000014601250020072938D2DFE801F00A0407373737090084F8245009E0032000E0BA
:2048E000022084F8240004F12D01304607F031FC84F82C0094F8AD0018B1FEF7EAF801288F
:2049000020D0304607F0EDFB84F8250004F12601304607F0C8FB00BFA44E04F14C073078C4
:204920007F2808BFFFDF307838707F20307084F82250BDE8F041032001F0A2BC84F82C00BE
:20494000BDE8F081FEF708F904F12602511E06F059FC002808BFFFDF94F8251041F00201B2
:2049600084F82510D8E710B5002001F0F2FB904CA0B1FEF7C8FC00210120FEF761FB04F196
:20498000BC00FEF7D4FCD4F8B400FEF7D3FC94F89C00032818BF02281FD022E0FEF72EFDED
:2049A000FEF720FDFEF742FCFEF7A5FC94F8AD0030B1FEF740FDFEF76CF8002084F8AD002E
:2049C000012084F8B800022084F8B000FEF7ACFCBDE81040002001F053BC01210020FEF74B
:2049E00068FDFEF743FD94F8AD0018B1FEF73DF8FEF710FD032084F8B00010BD6C490028F6
:204A0000B1F8BA202DD0FF2A0CD24FF6FF7000EA4200A1F8BA00FF2888BFFF2002D900BFB5
:204A2000A1F8BA0061484268012A12BF002A0D224260D243C2EBC20303EB021291F8B930DE
:204A4000DB4303EB830CCCEB83131A444260900CB1F8BA20B0FBF2F302FB130081F8B9007D
:204A60007047012ADED95008A1F8BA0008BF0120D8D1D5E770B54E4C94F8B000022819BFA8
:204A800094F8B0000128002005461CBF0C2070BD2B2101FB004181F82250401CC0B20228A6
:204AA000F6D3257094F8AD0028B1FEF7C4FCFDF7F0FF84F8AD5084F8A85084F8A95084F810
:204AC000AC50012084F89700394884F89C5084F8AF5040F2011120F8941F8170002070BDF5
:204AE00070B5334C002584F8B050012684F8B06094F8B00002281BBF94F8B00001280020F9
:204B0000FFDF18BF70BD2B2101FB004181F82250401CC0B20228F6D3257094F8AD0028B1D7
:204B2000FEF789FCFDF7B5FF84F8AD5084F8A85084F8A95084F8AC5084F897601C4884F826
:204B40009C5084F8AF5040F2011120F8941F817070BD2DE9F041164C05460C2794F8B0005E
:204B600001281FBF94F8B00002280C20BDE8F081FEF7D2FBFEF705F9FEF7EAF894F89400DA
:204B80000126002801BF94F89500002894F8960000281CBF94F8A900002873D094F89C00D0
:204BA000032807D002280AD00DE00000BC000020280C00200521FE4800F07BFE03E00321F6
:204BC000FB4800F076FE94F8AA00002804BF94F8AB0000283CD0FBF707FF07463946D4F812
:204BE000A400FDF72AF8F349B0FBF1F801FB180041423846FBF711FFC4F8A400D4F8A00048
:204C00004044C4F8A00006F0CCFAD4F8A01088421ED80020C4E9280794F8AB00002818BF8A
:204C200006F0DBFB94F8AC0000281CBF94F8AA0000280DD094F88D0004F18E01012804D197
:204C4000487900F0C00040280ED00846FEF7CAFF94F88D1004F18E00FEF7FFF894F8B000BD
:204C60000027012817D106E006F0DFFB04F18E01FEF787FFECE784F8B860022084F8B00092
:204C800009E0FFE794F8B000022802BF84F8B0600C20BDE8F08194F89700A0B194F89C00B4
:204CA000032818BF06F022FBC34806F07BFB84F8AD00C248C4F8B450FEF717FBFEF734FB4A
:204CC0003846BDE8F08106F0F0FAEDE770B5FEF723FBBB4C94F8B000022803D0FEF724FB00
:204CE0000C2070BD012084F8B900A4F8BA000220FEF70FFBB348FEF727F9B34B002004F16B
:204D0000940200BF94F8AF10491CA3FB015C4FEA5C0CACEB8C0C6144C9B284F8AF10895C83
:204D2000012907D0401CC0B20328EBD3FFF71BFE002070BD94F8AF00A449085CFEF70CF9D9
:204D4000FEF706F8F2E710B5040016BF022C00200120FEF7D7FE002808BF10BD98480021F3
:204D600080F88C4080F8A910012010BD944981F8AC00704710B5924C94F88C00002816BF5F
:204D800002280020012084F88D0004F18E01FEF7A3FE012084F8A90094F88C00022816BF28
:204DA00003280121002184F8AB1094F88D0004F18E02012804BF527912F0C00F0AD004F159
:204DC0008E02012804D1507900F0C000402801D0002000E0012084F8AA00002804BF002938
:204DE00010BDFBF701FEC4F8A4004AF2B810C4F8A00010BD002816BF022801220022704943
:204E000081F8972081F89D00704770B56C4D0C4600280CBF0121002185F8971085F89E00F0
:204E20004FF0080085F89F000BD1002C1ABF022C01200020114606F0B7F985F89F00082876
:204E400001D0002070BD022C14BF032C1220F8D170BD5B4A032808BFC2F8981082F89C00CD
:204E600000207047564991F89C00032804D0012818BF022807D004E091F89E00012808BF9C
:204E800070470020704791F89D00012814BF03280120F6D1704710B5FEF7B0FAFEF7A2FAA3
:204EA000FEF7C4F9FEF727FA454C94F8AD0030B1FEF7C1FAFDF7EDFD002084F8AD00012087
:204EC00084F8B800022084F8B000FEF72DFA002010BD3B4981F8B100704710B5FEF78EFAA0
:204EE000FEF780FAFEF7A2F9FEF705FA344C94F8AD0030B1FEF79FFAFDF7CBFD002084F83F
:204F0000AD00012084F8B800022084F8B000FEF70BFABDE81040002001F0B2B92DE9F84F79
:204F2000274DFF2100247F27DFF8A48085F8AE10002800F0D78205F1BC0007F080F930B961
:204F400005F1BC0007F09BF9002800F0CB8295F8B000194E052880F0C282DFE800F0F0F093
