
zephyr.elf:     file format elf32-littlearm


Disassembly of section text:

00000000 <_vector_table>:
       0:	200098e8 	.word	0x200098e8
       4:	000067c9 	.word	0x000067c9
       8:	0000681d 	.word	0x0000681d
       c:	00006635 	.word	0x00006635
      10:	00006635 	.word	0x00006635
      14:	00006635 	.word	0x00006635
      18:	00006635 	.word	0x00006635
      1c:	00006635 	.word	0x00006635
      20:	00006635 	.word	0x00006635
      24:	00006635 	.word	0x00006635
      28:	00006635 	.word	0x00006635
      2c:	00006271 	.word	0x00006271
      30:	00006635 	.word	0x00006635
      34:	00006635 	.word	0x00006635
      38:	0000622d 	.word	0x0000622d
      3c:	00006635 	.word	0x00006635

00000040 <_irq_vector_table>:
      40:	0000678d 000213e3 0000678d 0000678d     .g.......g...g..
      50:	0000678d 0000678d 0000678d 0000678d     .g...g...g...g..
      60:	0000678d 0000678d 0000678d 0000678d     .g...g...g...g..
      70:	0000678d 0000678d 0000678d 0000678d     .g...g...g...g..
      80:	0000678d 0000678d 0000678d 0000678d     .g...g...g...g..
      90:	0000678d 0000678d 0000678d 0000678d     .g...g...g...g..
      a0:	0000678d 0000678d 0000678d 0000678d     .g...g...g...g..
      b0:	0000678d 0000678d 0000678d 0000678d     .g...g...g...g..
      c0:	0000678d 0000678d 0000678d 0000678d     .g...g...g...g..
      d0:	0000678d 0000678d 0000678d              .g...g...g..

000000dc <_sw_isr_table>:
      dc:	00000000 00005dfd 00000000 000065a9     .....].......e..
      ec:	00000000 000065a9 00000000 000065a9     .....e.......e..
      fc:	00000000 000065a9 00000000 000065a9     .....e.......e..
     10c:	00000000 00024265 2000bec0 00023db1     ....eB..... .=..
     11c:	00000000 000065a9 00000000 000065a9     .....e.......e..
     12c:	00000000 00000845 00000000 000213a9     ....E...........
     13c:	00000000 000065a9 2000be84 00024bb1     .....e..... .K..
     14c:	00000000 000065a9 00000000 000065a9     .....e.......e..
     15c:	00004a5d 00004a59 00000000 00006095     ]J..YJ.......`..
     16c:	00000000 000065a9 00000000 000065a9     .....e.......e..
     17c:	00000000 000065a9 00000000 000065a9     .....e.......e..
     18c:	00000000 000065a9 00000000 000065a9     .....e.......e..
     19c:	00000000 000213dd 00000000 000065a9     .............e..
     1ac:	00000000 000065a9 00000000 000065a9     .....e.......e..
     1bc:	00000000 000065a9 00000000 000065a9     .....e.......e..
     1cc:	00000000 000065a9 00000000 000065a9     .....e.......e..
     1dc:	00000000 000065a9 00000000 000065a9     .....e.......e..
     1ec:	00000000 000065a9 00000000 000065a9     .....e.......e..
     1fc:	00000000 000065a9 00000000 000065a9     .....e.......e..
     20c:	00000000 000065a9                       .....e..

00000214 <__aeabi_llsl>:
     214:	4091      	lsls	r1, r2
     216:	1c03      	adds	r3, r0, #0
     218:	4090      	lsls	r0, r2
     21a:	469c      	mov	ip, r3
     21c:	3a20      	subs	r2, #32
     21e:	4093      	lsls	r3, r2
     220:	4319      	orrs	r1, r3
     222:	4252      	negs	r2, r2
     224:	4663      	mov	r3, ip
     226:	40d3      	lsrs	r3, r2
     228:	4319      	orrs	r1, r3
     22a:	4770      	bx	lr

0000022c <__aeabi_ldivmod>:
     22c:	b97b      	cbnz	r3, 24e <__aeabi_ldivmod+0x22>
     22e:	b972      	cbnz	r2, 24e <__aeabi_ldivmod+0x22>
     230:	2900      	cmp	r1, #0
     232:	bfbe      	ittt	lt
     234:	2000      	movlt	r0, #0
     236:	f04f 4100 	movlt.w	r1, #2147483648	; 0x80000000
     23a:	e006      	blt.n	24a <__aeabi_ldivmod+0x1e>
     23c:	bf08      	it	eq
     23e:	2800      	cmpeq	r0, #0
     240:	bf1c      	itt	ne
     242:	f06f 4100 	mvnne.w	r1, #2147483648	; 0x80000000
     246:	f04f 30ff 	movne.w	r0, #4294967295	; 0xffffffff
     24a:	f000 b9d9 	b.w	600 <__aeabi_idiv0>
     24e:	f1ad 0c08 	sub.w	ip, sp, #8
     252:	e96d ce04 	strd	ip, lr, [sp, #-16]!
     256:	2900      	cmp	r1, #0
     258:	db09      	blt.n	26e <__aeabi_ldivmod+0x42>
     25a:	2b00      	cmp	r3, #0
     25c:	db1a      	blt.n	294 <CONFIG_BT_HCI_TX_STACK_SIZE+0x14>
     25e:	f000 f861 	bl	324 <__udivmoddi4>
     262:	f8dd e004 	ldr.w	lr, [sp, #4]
     266:	e9dd 2302 	ldrd	r2, r3, [sp, #8]
     26a:	b004      	add	sp, #16
     26c:	4770      	bx	lr
     26e:	4240      	negs	r0, r0
     270:	eb61 0141 	sbc.w	r1, r1, r1, lsl #1
     274:	2b00      	cmp	r3, #0
     276:	db1b      	blt.n	2b0 <CONFIG_BT_HCI_TX_STACK_SIZE+0x30>
     278:	f000 f854 	bl	324 <__udivmoddi4>
     27c:	f8dd e004 	ldr.w	lr, [sp, #4]
     280:	e9dd 2302 	ldrd	r2, r3, [sp, #8]
     284:	b004      	add	sp, #16
     286:	4240      	negs	r0, r0
     288:	eb61 0141 	sbc.w	r1, r1, r1, lsl #1
     28c:	4252      	negs	r2, r2
     28e:	eb63 0343 	sbc.w	r3, r3, r3, lsl #1
     292:	4770      	bx	lr
     294:	4252      	negs	r2, r2
     296:	eb63 0343 	sbc.w	r3, r3, r3, lsl #1
     29a:	f000 f843 	bl	324 <__udivmoddi4>
     29e:	f8dd e004 	ldr.w	lr, [sp, #4]
     2a2:	e9dd 2302 	ldrd	r2, r3, [sp, #8]
     2a6:	b004      	add	sp, #16
     2a8:	4240      	negs	r0, r0
     2aa:	eb61 0141 	sbc.w	r1, r1, r1, lsl #1
     2ae:	4770      	bx	lr
     2b0:	4252      	negs	r2, r2
     2b2:	eb63 0343 	sbc.w	r3, r3, r3, lsl #1
     2b6:	f000 f835 	bl	324 <__udivmoddi4>
     2ba:	f8dd e004 	ldr.w	lr, [sp, #4]
     2be:	e9dd 2302 	ldrd	r2, r3, [sp, #8]
     2c2:	b004      	add	sp, #16
     2c4:	4252      	negs	r2, r2
     2c6:	eb63 0343 	sbc.w	r3, r3, r3, lsl #1
     2ca:	4770      	bx	lr

000002cc <__aeabi_uldivmod>:
     2cc:	b953      	cbnz	r3, 2e4 <__aeabi_uldivmod+0x18>
     2ce:	b94a      	cbnz	r2, 2e4 <__aeabi_uldivmod+0x18>
     2d0:	2900      	cmp	r1, #0
     2d2:	bf08      	it	eq
     2d4:	2800      	cmpeq	r0, #0
     2d6:	bf1c      	itt	ne
     2d8:	f04f 31ff 	movne.w	r1, #4294967295	; 0xffffffff
     2dc:	f04f 30ff 	movne.w	r0, #4294967295	; 0xffffffff
     2e0:	f000 b98e 	b.w	600 <__aeabi_idiv0>
     2e4:	f1ad 0c08 	sub.w	ip, sp, #8
     2e8:	e96d ce04 	strd	ip, lr, [sp, #-16]!
     2ec:	f000 f81a 	bl	324 <__udivmoddi4>
     2f0:	f8dd e004 	ldr.w	lr, [sp, #4]
     2f4:	e9dd 2302 	ldrd	r2, r3, [sp, #8]
     2f8:	b004      	add	sp, #16
     2fa:	4770      	bx	lr

000002fc <__popcountsi2>:
     2fc:	0843      	lsrs	r3, r0, #1
     2fe:	f003 3355 	and.w	r3, r3, #1431655765	; 0x55555555
     302:	1ac0      	subs	r0, r0, r3
     304:	0883      	lsrs	r3, r0, #2
     306:	f003 3333 	and.w	r3, r3, #858993459	; 0x33333333
     30a:	f000 3033 	and.w	r0, r0, #858993459	; 0x33333333
     30e:	4418      	add	r0, r3
     310:	eb00 1010 	add.w	r0, r0, r0, lsr #4
     314:	f000 300f 	and.w	r0, r0, #252645135	; 0xf0f0f0f
     318:	eb00 2000 	add.w	r0, r0, r0, lsl #8
     31c:	eb00 4000 	add.w	r0, r0, r0, lsl #16
     320:	0e00      	lsrs	r0, r0, #24
     322:	4770      	bx	lr

00000324 <__udivmoddi4>:
     324:	e92d 47f0 	stmdb	sp!, {r4, r5, r6, r7, r8, r9, sl, lr}
     328:	468c      	mov	ip, r1
     32a:	460d      	mov	r5, r1
     32c:	4604      	mov	r4, r0
     32e:	9e08      	ldr	r6, [sp, #32]
     330:	2b00      	cmp	r3, #0
     332:	d151      	bne.n	3d8 <__udivmoddi4+0xb4>
     334:	428a      	cmp	r2, r1
     336:	4617      	mov	r7, r2
     338:	d96d      	bls.n	416 <CONFIG_OFFLOAD_WORKQUEUE_STACK_SIZE+0x16>
     33a:	fab2 fe82 	clz	lr, r2
     33e:	f1be 0f00 	cmp.w	lr, #0
     342:	d00b      	beq.n	35c <__udivmoddi4+0x38>
     344:	f1ce 0c20 	rsb	ip, lr, #32
     348:	fa01 f50e 	lsl.w	r5, r1, lr
     34c:	fa20 fc0c 	lsr.w	ip, r0, ip
     350:	fa02 f70e 	lsl.w	r7, r2, lr
     354:	ea4c 0c05 	orr.w	ip, ip, r5
     358:	fa00 f40e 	lsl.w	r4, r0, lr
     35c:	ea4f 4a17 	mov.w	sl, r7, lsr #16
     360:	0c25      	lsrs	r5, r4, #16
     362:	fbbc f8fa 	udiv	r8, ip, sl
     366:	fa1f f987 	uxth.w	r9, r7
     36a:	fb0a cc18 	mls	ip, sl, r8, ip
     36e:	ea45 450c 	orr.w	r5, r5, ip, lsl #16
     372:	fb08 f309 	mul.w	r3, r8, r9
     376:	42ab      	cmp	r3, r5
     378:	d90a      	bls.n	390 <__udivmoddi4+0x6c>
     37a:	19ed      	adds	r5, r5, r7
     37c:	f108 32ff 	add.w	r2, r8, #4294967295	; 0xffffffff
     380:	f080 8123 	bcs.w	5ca <CONFIG_OFFLOAD_WORKQUEUE_STACK_SIZE+0x1ca>
     384:	42ab      	cmp	r3, r5
     386:	f240 8120 	bls.w	5ca <CONFIG_OFFLOAD_WORKQUEUE_STACK_SIZE+0x1ca>
     38a:	f1a8 0802 	sub.w	r8, r8, #2
     38e:	443d      	add	r5, r7
     390:	1aed      	subs	r5, r5, r3
     392:	b2a4      	uxth	r4, r4
     394:	fbb5 f0fa 	udiv	r0, r5, sl
     398:	fb0a 5510 	mls	r5, sl, r0, r5
     39c:	ea44 4405 	orr.w	r4, r4, r5, lsl #16
     3a0:	fb00 f909 	mul.w	r9, r0, r9
     3a4:	45a1      	cmp	r9, r4
     3a6:	d909      	bls.n	3bc <__udivmoddi4+0x98>
     3a8:	19e4      	adds	r4, r4, r7
     3aa:	f100 33ff 	add.w	r3, r0, #4294967295	; 0xffffffff
     3ae:	f080 810a 	bcs.w	5c6 <CONFIG_OFFLOAD_WORKQUEUE_STACK_SIZE+0x1c6>
     3b2:	45a1      	cmp	r9, r4
     3b4:	f240 8107 	bls.w	5c6 <CONFIG_OFFLOAD_WORKQUEUE_STACK_SIZE+0x1c6>
     3b8:	3802      	subs	r0, #2
     3ba:	443c      	add	r4, r7
     3bc:	eba4 0409 	sub.w	r4, r4, r9
     3c0:	ea40 4008 	orr.w	r0, r0, r8, lsl #16
     3c4:	2100      	movs	r1, #0
     3c6:	2e00      	cmp	r6, #0
     3c8:	d061      	beq.n	48e <CONFIG_OFFLOAD_WORKQUEUE_STACK_SIZE+0x8e>
     3ca:	fa24 f40e 	lsr.w	r4, r4, lr
     3ce:	2300      	movs	r3, #0
     3d0:	6034      	str	r4, [r6, #0]
     3d2:	6073      	str	r3, [r6, #4]
     3d4:	e8bd 87f0 	ldmia.w	sp!, {r4, r5, r6, r7, r8, r9, sl, pc}
     3d8:	428b      	cmp	r3, r1
     3da:	d907      	bls.n	3ec <__udivmoddi4+0xc8>
     3dc:	2e00      	cmp	r6, #0
     3de:	d054      	beq.n	48a <CONFIG_OFFLOAD_WORKQUEUE_STACK_SIZE+0x8a>
     3e0:	2100      	movs	r1, #0
     3e2:	e886 0021 	stmia.w	r6, {r0, r5}
     3e6:	4608      	mov	r0, r1
     3e8:	e8bd 87f0 	ldmia.w	sp!, {r4, r5, r6, r7, r8, r9, sl, pc}
     3ec:	fab3 f183 	clz	r1, r3
     3f0:	2900      	cmp	r1, #0
     3f2:	f040 808e 	bne.w	512 <CONFIG_OFFLOAD_WORKQUEUE_STACK_SIZE+0x112>
     3f6:	42ab      	cmp	r3, r5
     3f8:	d302      	bcc.n	400 <CONFIG_OFFLOAD_WORKQUEUE_STACK_SIZE>
     3fa:	4282      	cmp	r2, r0
     3fc:	f200 80fa 	bhi.w	5f4 <CONFIG_BT_CTLR_COMPANY_ID+0x3>
     400:	1a84      	subs	r4, r0, r2
     402:	eb65 0503 	sbc.w	r5, r5, r3
     406:	2001      	movs	r0, #1
     408:	46ac      	mov	ip, r5
     40a:	2e00      	cmp	r6, #0
     40c:	d03f      	beq.n	48e <CONFIG_OFFLOAD_WORKQUEUE_STACK_SIZE+0x8e>
     40e:	e886 1010 	stmia.w	r6, {r4, ip}
     412:	e8bd 87f0 	ldmia.w	sp!, {r4, r5, r6, r7, r8, r9, sl, pc}
     416:	b912      	cbnz	r2, 41e <CONFIG_OFFLOAD_WORKQUEUE_STACK_SIZE+0x1e>
     418:	2701      	movs	r7, #1
     41a:	fbb7 f7f2 	udiv	r7, r7, r2
     41e:	fab7 fe87 	clz	lr, r7
     422:	f1be 0f00 	cmp.w	lr, #0
     426:	d134      	bne.n	492 <CONFIG_OFFLOAD_WORKQUEUE_STACK_SIZE+0x92>
     428:	1beb      	subs	r3, r5, r7
     42a:	0c3a      	lsrs	r2, r7, #16
     42c:	fa1f fc87 	uxth.w	ip, r7
     430:	2101      	movs	r1, #1
     432:	fbb3 f8f2 	udiv	r8, r3, r2
     436:	0c25      	lsrs	r5, r4, #16
     438:	fb02 3318 	mls	r3, r2, r8, r3
     43c:	ea45 4503 	orr.w	r5, r5, r3, lsl #16
     440:	fb0c f308 	mul.w	r3, ip, r8
     444:	42ab      	cmp	r3, r5
     446:	d907      	bls.n	458 <CONFIG_OFFLOAD_WORKQUEUE_STACK_SIZE+0x58>
     448:	19ed      	adds	r5, r5, r7
     44a:	f108 30ff 	add.w	r0, r8, #4294967295	; 0xffffffff
     44e:	d202      	bcs.n	456 <CONFIG_OFFLOAD_WORKQUEUE_STACK_SIZE+0x56>
     450:	42ab      	cmp	r3, r5
     452:	f200 80d1 	bhi.w	5f8 <CONFIG_BT_CTLR_COMPANY_ID+0x7>
     456:	4680      	mov	r8, r0
     458:	1aed      	subs	r5, r5, r3
     45a:	b2a3      	uxth	r3, r4
     45c:	fbb5 f0f2 	udiv	r0, r5, r2
     460:	fb02 5510 	mls	r5, r2, r0, r5
     464:	ea43 4405 	orr.w	r4, r3, r5, lsl #16
     468:	fb0c fc00 	mul.w	ip, ip, r0
     46c:	45a4      	cmp	ip, r4
     46e:	d907      	bls.n	480 <CONFIG_OFFLOAD_WORKQUEUE_STACK_SIZE+0x80>
     470:	19e4      	adds	r4, r4, r7
     472:	f100 33ff 	add.w	r3, r0, #4294967295	; 0xffffffff
     476:	d202      	bcs.n	47e <CONFIG_OFFLOAD_WORKQUEUE_STACK_SIZE+0x7e>
     478:	45a4      	cmp	ip, r4
     47a:	f200 80b8 	bhi.w	5ee <CONFIG_BT_CTLR_XTAL_THRESHOLD+0x12>
     47e:	4618      	mov	r0, r3
     480:	eba4 040c 	sub.w	r4, r4, ip
     484:	ea40 4008 	orr.w	r0, r0, r8, lsl #16
     488:	e79d      	b.n	3c6 <__udivmoddi4+0xa2>
     48a:	4631      	mov	r1, r6
     48c:	4630      	mov	r0, r6
     48e:	e8bd 87f0 	ldmia.w	sp!, {r4, r5, r6, r7, r8, r9, sl, pc}
     492:	f1ce 0420 	rsb	r4, lr, #32
     496:	fa05 f30e 	lsl.w	r3, r5, lr
     49a:	fa07 f70e 	lsl.w	r7, r7, lr
     49e:	fa20 f804 	lsr.w	r8, r0, r4
     4a2:	0c3a      	lsrs	r2, r7, #16
     4a4:	fa25 f404 	lsr.w	r4, r5, r4
     4a8:	ea48 0803 	orr.w	r8, r8, r3
     4ac:	fbb4 f1f2 	udiv	r1, r4, r2
     4b0:	ea4f 4518 	mov.w	r5, r8, lsr #16
     4b4:	fb02 4411 	mls	r4, r2, r1, r4
     4b8:	fa1f fc87 	uxth.w	ip, r7
     4bc:	ea45 4504 	orr.w	r5, r5, r4, lsl #16
     4c0:	fb01 f30c 	mul.w	r3, r1, ip
     4c4:	42ab      	cmp	r3, r5
     4c6:	fa00 f40e 	lsl.w	r4, r0, lr
     4ca:	d909      	bls.n	4e0 <CONFIG_OFFLOAD_WORKQUEUE_STACK_SIZE+0xe0>
     4cc:	19ed      	adds	r5, r5, r7
     4ce:	f101 30ff 	add.w	r0, r1, #4294967295	; 0xffffffff
     4d2:	f080 808a 	bcs.w	5ea <CONFIG_BT_CTLR_XTAL_THRESHOLD+0xe>
     4d6:	42ab      	cmp	r3, r5
     4d8:	f240 8087 	bls.w	5ea <CONFIG_BT_CTLR_XTAL_THRESHOLD+0xe>
     4dc:	3902      	subs	r1, #2
     4de:	443d      	add	r5, r7
     4e0:	1aeb      	subs	r3, r5, r3
     4e2:	fa1f f588 	uxth.w	r5, r8
     4e6:	fbb3 f0f2 	udiv	r0, r3, r2
     4ea:	fb02 3310 	mls	r3, r2, r0, r3
     4ee:	ea45 4503 	orr.w	r5, r5, r3, lsl #16
     4f2:	fb00 f30c 	mul.w	r3, r0, ip
     4f6:	42ab      	cmp	r3, r5
     4f8:	d907      	bls.n	50a <CONFIG_OFFLOAD_WORKQUEUE_STACK_SIZE+0x10a>
     4fa:	19ed      	adds	r5, r5, r7
     4fc:	f100 38ff 	add.w	r8, r0, #4294967295	; 0xffffffff
     500:	d26f      	bcs.n	5e2 <CONFIG_BT_CTLR_XTAL_THRESHOLD+0x6>
     502:	42ab      	cmp	r3, r5
     504:	d96d      	bls.n	5e2 <CONFIG_BT_CTLR_XTAL_THRESHOLD+0x6>
     506:	3802      	subs	r0, #2
     508:	443d      	add	r5, r7
     50a:	1aeb      	subs	r3, r5, r3
     50c:	ea40 4101 	orr.w	r1, r0, r1, lsl #16
     510:	e78f      	b.n	432 <CONFIG_OFFLOAD_WORKQUEUE_STACK_SIZE+0x32>
     512:	f1c1 0720 	rsb	r7, r1, #32
     516:	fa22 f807 	lsr.w	r8, r2, r7
     51a:	408b      	lsls	r3, r1
     51c:	fa05 f401 	lsl.w	r4, r5, r1
     520:	ea48 0303 	orr.w	r3, r8, r3
     524:	fa20 fe07 	lsr.w	lr, r0, r7
     528:	ea4f 4c13 	mov.w	ip, r3, lsr #16
     52c:	40fd      	lsrs	r5, r7
     52e:	ea4e 0e04 	orr.w	lr, lr, r4
     532:	fbb5 f9fc 	udiv	r9, r5, ip
     536:	ea4f 441e 	mov.w	r4, lr, lsr #16
     53a:	fb0c 5519 	mls	r5, ip, r9, r5
     53e:	fa1f f883 	uxth.w	r8, r3
     542:	ea44 4505 	orr.w	r5, r4, r5, lsl #16
     546:	fb09 f408 	mul.w	r4, r9, r8
     54a:	42ac      	cmp	r4, r5
     54c:	fa02 f201 	lsl.w	r2, r2, r1
     550:	fa00 fa01 	lsl.w	sl, r0, r1
     554:	d908      	bls.n	568 <CONFIG_OFFLOAD_WORKQUEUE_STACK_SIZE+0x168>
     556:	18ed      	adds	r5, r5, r3
     558:	f109 30ff 	add.w	r0, r9, #4294967295	; 0xffffffff
     55c:	d243      	bcs.n	5e6 <CONFIG_BT_CTLR_XTAL_THRESHOLD+0xa>
     55e:	42ac      	cmp	r4, r5
     560:	d941      	bls.n	5e6 <CONFIG_BT_CTLR_XTAL_THRESHOLD+0xa>
     562:	f1a9 0902 	sub.w	r9, r9, #2
     566:	441d      	add	r5, r3
     568:	1b2d      	subs	r5, r5, r4
     56a:	fa1f fe8e 	uxth.w	lr, lr
     56e:	fbb5 f0fc 	udiv	r0, r5, ip
     572:	fb0c 5510 	mls	r5, ip, r0, r5
     576:	ea4e 4405 	orr.w	r4, lr, r5, lsl #16
     57a:	fb00 f808 	mul.w	r8, r0, r8
     57e:	45a0      	cmp	r8, r4
     580:	d907      	bls.n	592 <CONFIG_OFFLOAD_WORKQUEUE_STACK_SIZE+0x192>
     582:	18e4      	adds	r4, r4, r3
     584:	f100 35ff 	add.w	r5, r0, #4294967295	; 0xffffffff
     588:	d229      	bcs.n	5de <CONFIG_BT_CTLR_XTAL_THRESHOLD+0x2>
     58a:	45a0      	cmp	r8, r4
     58c:	d927      	bls.n	5de <CONFIG_BT_CTLR_XTAL_THRESHOLD+0x2>
     58e:	3802      	subs	r0, #2
     590:	441c      	add	r4, r3
     592:	ea40 4009 	orr.w	r0, r0, r9, lsl #16
     596:	eba4 0408 	sub.w	r4, r4, r8
     59a:	fba0 8902 	umull	r8, r9, r0, r2
     59e:	454c      	cmp	r4, r9
     5a0:	46c6      	mov	lr, r8
     5a2:	464d      	mov	r5, r9
     5a4:	d315      	bcc.n	5d2 <CONFIG_OFFLOAD_WORKQUEUE_STACK_SIZE+0x1d2>
     5a6:	d012      	beq.n	5ce <CONFIG_OFFLOAD_WORKQUEUE_STACK_SIZE+0x1ce>
     5a8:	b156      	cbz	r6, 5c0 <CONFIG_OFFLOAD_WORKQUEUE_STACK_SIZE+0x1c0>
     5aa:	ebba 030e 	subs.w	r3, sl, lr
     5ae:	eb64 0405 	sbc.w	r4, r4, r5
     5b2:	fa04 f707 	lsl.w	r7, r4, r7
     5b6:	40cb      	lsrs	r3, r1
     5b8:	431f      	orrs	r7, r3
     5ba:	40cc      	lsrs	r4, r1
     5bc:	6037      	str	r7, [r6, #0]
     5be:	6074      	str	r4, [r6, #4]
     5c0:	2100      	movs	r1, #0
     5c2:	e8bd 87f0 	ldmia.w	sp!, {r4, r5, r6, r7, r8, r9, sl, pc}
     5c6:	4618      	mov	r0, r3
     5c8:	e6f8      	b.n	3bc <__udivmoddi4+0x98>
     5ca:	4690      	mov	r8, r2
     5cc:	e6e0      	b.n	390 <__udivmoddi4+0x6c>
     5ce:	45c2      	cmp	sl, r8
     5d0:	d2ea      	bcs.n	5a8 <CONFIG_OFFLOAD_WORKQUEUE_STACK_SIZE+0x1a8>
     5d2:	ebb8 0e02 	subs.w	lr, r8, r2
     5d6:	eb69 0503 	sbc.w	r5, r9, r3
     5da:	3801      	subs	r0, #1
     5dc:	e7e4      	b.n	5a8 <CONFIG_OFFLOAD_WORKQUEUE_STACK_SIZE+0x1a8>
     5de:	4628      	mov	r0, r5
     5e0:	e7d7      	b.n	592 <CONFIG_OFFLOAD_WORKQUEUE_STACK_SIZE+0x192>
     5e2:	4640      	mov	r0, r8
     5e4:	e791      	b.n	50a <CONFIG_OFFLOAD_WORKQUEUE_STACK_SIZE+0x10a>
     5e6:	4681      	mov	r9, r0
     5e8:	e7be      	b.n	568 <CONFIG_OFFLOAD_WORKQUEUE_STACK_SIZE+0x168>
     5ea:	4601      	mov	r1, r0
     5ec:	e778      	b.n	4e0 <CONFIG_OFFLOAD_WORKQUEUE_STACK_SIZE+0xe0>
     5ee:	3802      	subs	r0, #2
     5f0:	443c      	add	r4, r7
     5f2:	e745      	b.n	480 <CONFIG_OFFLOAD_WORKQUEUE_STACK_SIZE+0x80>
     5f4:	4608      	mov	r0, r1
     5f6:	e708      	b.n	40a <CONFIG_OFFLOAD_WORKQUEUE_STACK_SIZE+0xa>
     5f8:	f1a8 0802 	sub.w	r8, r8, #2
     5fc:	443d      	add	r5, r7
     5fe:	e72b      	b.n	458 <CONFIG_OFFLOAD_WORKQUEUE_STACK_SIZE+0x58>

00000600 <__aeabi_idiv0>:
     600:	4770      	bx	lr
     602:	bf00      	nop

00000604 <_bt_ready>:
#define SYS_LOG_DOMAIN "app"
#include "common/log.h"
#include <logging/sys_log.h>

static void _bt_ready(int err)
{
     604:	b51f      	push	{r0, r1, r2, r3, r4, lr}
     606:	4b0d      	ldr	r3, [pc, #52]	; (63c <_bt_ready+0x38>)

    if (err) {
     608:	b158      	cbz	r0, 622 <_bt_ready+0x1e>
        SYS_LOG_ERR("Bluetooth init failed (err %d)", err);
     60a:	9302      	str	r3, [sp, #8]
     60c:	9001      	str	r0, [sp, #4]
     60e:	9300      	str	r3, [sp, #0]
     610:	4a0b      	ldr	r2, [pc, #44]	; (640 <_bt_ready+0x3c>)
     612:	4b0c      	ldr	r3, [pc, #48]	; (644 <_bt_ready+0x40>)
     614:	490c      	ldr	r1, [pc, #48]	; (648 <_bt_ready+0x44>)
     616:	480d      	ldr	r0, [pc, #52]	; (64c <_bt_ready+0x48>)
     618:	f002 fdf2 	bl	3200 <printk>
        return;
    }

    SYS_LOG_INF("Bluetooth initialized");
    mesh_init();
}
     61c:	b005      	add	sp, #20
     61e:	f85d fb04 	ldr.w	pc, [sp], #4
    SYS_LOG_INF("Bluetooth initialized");
     622:	9301      	str	r3, [sp, #4]
     624:	9300      	str	r3, [sp, #0]
     626:	4a0a      	ldr	r2, [pc, #40]	; (650 <_bt_ready+0x4c>)
     628:	4b06      	ldr	r3, [pc, #24]	; (644 <_bt_ready+0x40>)
     62a:	4907      	ldr	r1, [pc, #28]	; (648 <_bt_ready+0x44>)
     62c:	4809      	ldr	r0, [pc, #36]	; (654 <_bt_ready+0x50>)
     62e:	f002 fde7 	bl	3200 <printk>
}
     632:	b005      	add	sp, #20
     634:	f85d eb04 	ldr.w	lr, [sp], #4
    mesh_init();
     638:	f001 bee2 	b.w	2400 <mesh_init>
     63c:	0002a7a7 	.word	0x0002a7a7
     640:	000267c7 	.word	0x000267c7
     644:	000267b8 	.word	0x000267b8
     648:	000267ce 	.word	0x000267ce
     64c:	000267d2 	.word	0x000267d2
     650:	00026801 	.word	0x00026801
     654:	00026808 	.word	0x00026808

00000658 <main>:

void main()
{
     658:	b51f      	push	{r0, r1, r2, r3, r4, lr}
    int err;

    SYS_LOG_INF("Firmware ver 3.0");
     65a:	4c0d      	ldr	r4, [pc, #52]	; (690 <main+0x38>)
     65c:	4b0d      	ldr	r3, [pc, #52]	; (694 <main+0x3c>)
     65e:	4a0e      	ldr	r2, [pc, #56]	; (698 <main+0x40>)
     660:	490e      	ldr	r1, [pc, #56]	; (69c <main+0x44>)
     662:	9401      	str	r4, [sp, #4]
     664:	9400      	str	r4, [sp, #0]
     666:	480e      	ldr	r0, [pc, #56]	; (6a0 <main+0x48>)
     668:	f002 fdca 	bl	3200 <printk>
    /* Initialize the Mesh Network*/
    err = mesh_hub_init();
     66c:	f001 ff64 	bl	2538 <mesh_hub_init>

    if (err != 0)
     670:	b960      	cbnz	r0, 68c <main+0x34>
        return;

    /* Initialize the Bluetooth Subsystem */

    err = bt_enable(_bt_ready);
     672:	480c      	ldr	r0, [pc, #48]	; (6a4 <main+0x4c>)
     674:	f008 fb14 	bl	8ca0 <bt_enable>

    if (err) {
     678:	b140      	cbz	r0, 68c <main+0x34>
        SYS_LOG_ERR("Bluetooth init failed (err %d)", err);
     67a:	9001      	str	r0, [sp, #4]
     67c:	9402      	str	r4, [sp, #8]
     67e:	9400      	str	r4, [sp, #0]
     680:	4b04      	ldr	r3, [pc, #16]	; (694 <main+0x3c>)
     682:	4a09      	ldr	r2, [pc, #36]	; (6a8 <main+0x50>)
     684:	4905      	ldr	r1, [pc, #20]	; (69c <main+0x44>)
     686:	4809      	ldr	r0, [pc, #36]	; (6ac <main+0x54>)
     688:	f002 fdba 	bl	3200 <printk>
    }

#ifdef CONFIG_BT_MESH_VNG_THREAD_TRACKING
    bt_mesh_vng_thread_tracking_main_terminate();
#endif
}
     68c:	b004      	add	sp, #16
     68e:	bd10      	pop	{r4, pc}
     690:	0002a7a7 	.word	0x0002a7a7
     694:	000267c2 	.word	0x000267c2
     698:	00026801 	.word	0x00026801
     69c:	000267ce 	.word	0x000267ce
     6a0:	0002682e 	.word	0x0002682e
     6a4:	00000605 	.word	0x00000605
     6a8:	000267c7 	.word	0x000267c7
     6ac:	000267d2 	.word	0x000267d2

000006b0 <k_delayed_work_submit>:
 * @req K-DWORK-001
 */
static inline int k_delayed_work_submit(struct k_delayed_work *work,
					s32_t delay)
{
	return k_delayed_work_submit_to_queue(&k_sys_work_q, work, delay);
     6b0:	460a      	mov	r2, r1
     6b2:	4601      	mov	r1, r0
     6b4:	4801      	ldr	r0, [pc, #4]	; (6bc <k_delayed_work_submit+0xc>)
     6b6:	f025 bcc1 	b.w	2603c <k_delayed_work_submit_to_queue>
     6ba:	bf00      	nop
     6bc:	20003f80 	.word	0x20003f80

000006c0 <_config_work>:
                            K_SECONDS(_hub.setting.status.warn_notify_period));
    }
}

static void _config_work(struct k_work* work)
{
     6c0:	b57f      	push	{r0, r1, r2, r3, r4, r5, r6, lr}
    for(int index = 0; index < HUB_LINES; index++) {

        if((_hub.config.linesmap_add >> index) & BIT(0)) {
     6c2:	4d39      	ldr	r5, [pc, #228]	; (7a8 <_config_work+0xe8>)
     6c4:	f895 31b0 	ldrb.w	r3, [r5, #432]	; 0x1b0
            /*give other works a chance*/
            k_delayed_work_submit(&_hub.config_work, CONFIG_DELAYED);
            return;
        }

        if((_hub.config.linesmap_del >> index) & BIT(0)) {
     6c8:	f895 21b1 	ldrb.w	r2, [r5, #433]	; 0x1b1
            /*give other works a chance*/
            k_delayed_work_submit(&_hub.config_work, CONFIG_DELAYED);
            return;
        }

        if((_hub.config.linesmap_clr >> index) & BIT(0)) {
     6cc:	f895 11b2 	ldrb.w	r1, [r5, #434]	; 0x1b2
    for(int index = 0; index < HUB_LINES; index++) {
     6d0:	2400      	movs	r4, #0
        if((_hub.config.linesmap_add >> index) & BIT(0)) {
     6d2:	fa43 f004 	asr.w	r0, r3, r4
     6d6:	07c0      	lsls	r0, r0, #31
     6d8:	d523      	bpl.n	722 <_config_work+0x62>
            SYS_LOG_INF("add line %u, group: 0x%04x", index, 
     6da:	f104 06d8 	add.w	r6, r4, #216	; 0xd8
     6de:	4b33      	ldr	r3, [pc, #204]	; (7ac <_config_work+0xec>)
     6e0:	9303      	str	r3, [sp, #12]
     6e2:	eb05 0646 	add.w	r6, r5, r6, lsl #1
     6e6:	4932      	ldr	r1, [pc, #200]	; (7b0 <_config_work+0xf0>)
     6e8:	88b2      	ldrh	r2, [r6, #4]
     6ea:	9202      	str	r2, [sp, #8]
     6ec:	e88d 0018 	stmia.w	sp, {r3, r4}
     6f0:	4a30      	ldr	r2, [pc, #192]	; (7b4 <_config_work+0xf4>)
     6f2:	4b31      	ldr	r3, [pc, #196]	; (7b8 <_config_work+0xf8>)
     6f4:	4831      	ldr	r0, [pc, #196]	; (7bc <_config_work+0xfc>)
     6f6:	f002 fd83 	bl	3200 <printk>
            _hub.config.linesmap_add &= ~(BIT(index));
     6fa:	2301      	movs	r3, #1
     6fc:	fa03 f204 	lsl.w	r2, r3, r4
     700:	f895 31b0 	ldrb.w	r3, [r5, #432]	; 0x1b0
            mesh_hub_line_group_sub_add(index, _hub.config.groups_add[index]);
     704:	88b1      	ldrh	r1, [r6, #4]
            _hub.config.linesmap_add &= ~(BIT(index));
     706:	ea23 0302 	bic.w	r3, r3, r2
            mesh_hub_line_group_sub_add(index, _hub.config.groups_add[index]);
     70a:	b2e0      	uxtb	r0, r4
            _hub.config.linesmap_add &= ~(BIT(index));
     70c:	f885 31b0 	strb.w	r3, [r5, #432]	; 0x1b0
            mesh_hub_line_group_sub_add(index, _hub.config.groups_add[index]);
     710:	f001 ffa6 	bl	2660 <mesh_hub_line_group_sub_add>

            _hub.config.linesmap_clr &= ~(BIT(index));
            mesh_hub_line_group_sub_clr(index);
                
            /*give other works a chance*/
            k_delayed_work_submit(&_hub.config_work, CONFIG_DELAYED);
     714:	482a      	ldr	r0, [pc, #168]	; (7c0 <_config_work+0x100>)
     716:	210a      	movs	r1, #10
            return;
        }
    }
}
     718:	b004      	add	sp, #16
     71a:	e8bd 4070 	ldmia.w	sp!, {r4, r5, r6, lr}
            k_delayed_work_submit(&_hub.config_work, CONFIG_DELAYED);
     71e:	f7ff bfc7 	b.w	6b0 <k_delayed_work_submit>
        if((_hub.config.linesmap_del >> index) & BIT(0)) {
     722:	fa42 f004 	asr.w	r0, r2, r4
     726:	07c6      	lsls	r6, r0, #31
     728:	d51d      	bpl.n	766 <_config_work+0xa6>
            SYS_LOG_INF("del line %u, group: 0x%04x", index, 
     72a:	f104 06e0 	add.w	r6, r4, #224	; 0xe0
     72e:	4b1f      	ldr	r3, [pc, #124]	; (7ac <_config_work+0xec>)
     730:	9303      	str	r3, [sp, #12]
     732:	eb05 0646 	add.w	r6, r5, r6, lsl #1
     736:	491e      	ldr	r1, [pc, #120]	; (7b0 <_config_work+0xf0>)
     738:	88b2      	ldrh	r2, [r6, #4]
     73a:	9202      	str	r2, [sp, #8]
     73c:	e88d 0018 	stmia.w	sp, {r3, r4}
     740:	4a1c      	ldr	r2, [pc, #112]	; (7b4 <_config_work+0xf4>)
     742:	4b1d      	ldr	r3, [pc, #116]	; (7b8 <_config_work+0xf8>)
     744:	481f      	ldr	r0, [pc, #124]	; (7c4 <_config_work+0x104>)
     746:	f002 fd5b 	bl	3200 <printk>
            _hub.config.linesmap_del &= ~(BIT(index));
     74a:	2301      	movs	r3, #1
     74c:	fa03 f204 	lsl.w	r2, r3, r4
     750:	f895 31b1 	ldrb.w	r3, [r5, #433]	; 0x1b1
            mesh_hub_line_group_sub_del(index, _hub.config.groups_del[index]);
     754:	88b1      	ldrh	r1, [r6, #4]
            _hub.config.linesmap_del &= ~(BIT(index));
     756:	ea23 0302 	bic.w	r3, r3, r2
            mesh_hub_line_group_sub_del(index, _hub.config.groups_del[index]);
     75a:	b2e0      	uxtb	r0, r4
            _hub.config.linesmap_del &= ~(BIT(index));
     75c:	f885 31b1 	strb.w	r3, [r5, #433]	; 0x1b1
            mesh_hub_line_group_sub_del(index, _hub.config.groups_del[index]);
     760:	f001 ffb4 	bl	26cc <mesh_hub_line_group_sub_del>
     764:	e7d6      	b.n	714 <_config_work+0x54>
        if((_hub.config.linesmap_clr >> index) & BIT(0)) {
     766:	fa41 f004 	asr.w	r0, r1, r4
     76a:	07c0      	lsls	r0, r0, #31
     76c:	d516      	bpl.n	79c <_config_work+0xdc>
            SYS_LOG_INF("clr line %u", index);
     76e:	4b0f      	ldr	r3, [pc, #60]	; (7ac <_config_work+0xec>)
     770:	9302      	str	r3, [sp, #8]
     772:	e88d 0018 	stmia.w	sp, {r3, r4}
     776:	4a0f      	ldr	r2, [pc, #60]	; (7b4 <_config_work+0xf4>)
     778:	4b0f      	ldr	r3, [pc, #60]	; (7b8 <_config_work+0xf8>)
     77a:	490d      	ldr	r1, [pc, #52]	; (7b0 <_config_work+0xf0>)
     77c:	4812      	ldr	r0, [pc, #72]	; (7c8 <_config_work+0x108>)
     77e:	f002 fd3f 	bl	3200 <printk>
            _hub.config.linesmap_clr &= ~(BIT(index));
     782:	2301      	movs	r3, #1
     784:	fa03 f204 	lsl.w	r2, r3, r4
     788:	f895 31b2 	ldrb.w	r3, [r5, #434]	; 0x1b2
            mesh_hub_line_group_sub_clr(index);
     78c:	b2e0      	uxtb	r0, r4
            _hub.config.linesmap_clr &= ~(BIT(index));
     78e:	ea23 0302 	bic.w	r3, r3, r2
     792:	f885 31b2 	strb.w	r3, [r5, #434]	; 0x1b2
            mesh_hub_line_group_sub_clr(index);
     796:	f001 ffcf 	bl	2738 <mesh_hub_line_group_sub_clr>
     79a:	e7bb      	b.n	714 <_config_work+0x54>
    for(int index = 0; index < HUB_LINES; index++) {
     79c:	3401      	adds	r4, #1
     79e:	2c08      	cmp	r4, #8
     7a0:	d197      	bne.n	6d2 <_config_work+0x12>
}
     7a2:	b004      	add	sp, #16
     7a4:	bd70      	pop	{r4, r5, r6, pc}
     7a6:	bf00      	nop
     7a8:	20000000 	.word	0x20000000
     7ac:	0002a7a7 	.word	0x0002a7a7
     7b0:	000267ce 	.word	0x000267ce
     7b4:	00026801 	.word	0x00026801
     7b8:	0002693a 	.word	0x0002693a
     7bc:	00026975 	.word	0x00026975
     7c0:	20000188 	.word	0x20000188
     7c4:	000269a0 	.word	0x000269a0
     7c8:	000269cb 	.word	0x000269cb

000007cc <_level_work>:
{
     7cc:	b570      	push	{r4, r5, r6, lr}
        levels[index] = _level_to_percent(_hub.lines[index].level);
     7ce:	4c16      	ldr	r4, [pc, #88]	; (828 <CONFIG_BT_RX_STACK_SIZE+0x28>)
{
     7d0:	b086      	sub	sp, #24
     7d2:	2100      	movs	r1, #0
        levels[index] = _level_to_percent(_hub.lines[index].level);
     7d4:	a804      	add	r0, sp, #16
     7d6:	2614      	movs	r6, #20
    return PWM_POLACITY == true? level * 100 / PWM_LEVEL_MAX:
     7d8:	2564      	movs	r5, #100	; 0x64
     7da:	f64f 72ff 	movw	r2, #65535	; 0xffff
        levels[index] = _level_to_percent(_hub.lines[index].level);
     7de:	fb06 4301 	mla	r3, r6, r1, r4
    return PWM_POLACITY == true? level * 100 / PWM_LEVEL_MAX:
     7e2:	891b      	ldrh	r3, [r3, #8]
     7e4:	436b      	muls	r3, r5
     7e6:	fb93 f3f2 	sdiv	r3, r3, r2
        levels[index] = _level_to_percent(_hub.lines[index].level);
     7ea:	540b      	strb	r3, [r1, r0]
     7ec:	3101      	adds	r1, #1
    for(u8_t index = 0; index < HUB_LINES; index++)
     7ee:	2908      	cmp	r1, #8
     7f0:	d1f5      	bne.n	7de <_level_work+0x12>
    _hub.level(levels, HUB_LINES);
     7f2:	f8d4 30a8 	ldr.w	r3, [r4, #168]	; 0xa8
     7f6:	4798      	blx	r3
    if (_hub.report_period >= STATUS_PERIOD_MIN) {
     7f8:	f8d4 21fc 	ldr.w	r2, [r4, #508]	; 0x1fc
     7fc:	2a1d      	cmp	r2, #29
     7fe:	d911      	bls.n	824 <CONFIG_BT_RX_STACK_SIZE+0x24>
        SYS_LOG_INF("resend after %u", _hub.report_period);
     800:	4b0a      	ldr	r3, [pc, #40]	; (82c <CONFIG_BT_RX_STACK_SIZE+0x2c>)
     802:	9302      	str	r3, [sp, #8]
     804:	9201      	str	r2, [sp, #4]
     806:	9300      	str	r3, [sp, #0]
     808:	4909      	ldr	r1, [pc, #36]	; (830 <CONFIG_BT_RX_STACK_SIZE+0x30>)
     80a:	4b0a      	ldr	r3, [pc, #40]	; (834 <CONFIG_BT_RX_STACK_SIZE+0x34>)
     80c:	4a0a      	ldr	r2, [pc, #40]	; (838 <CONFIG_BT_RX_STACK_SIZE+0x38>)
     80e:	480b      	ldr	r0, [pc, #44]	; (83c <CONFIG_BT_RX_STACK_SIZE+0x3c>)
     810:	f002 fcf6 	bl	3200 <printk>
        k_delayed_work_submit(&_hub.level_work, K_SECONDS(_hub.report_period));
     814:	f8d4 31fc 	ldr.w	r3, [r4, #508]	; 0x1fc
     818:	4809      	ldr	r0, [pc, #36]	; (840 <CONFIG_BT_RX_STACK_SIZE+0x40>)
     81a:	f44f 717a 	mov.w	r1, #1000	; 0x3e8
     81e:	4359      	muls	r1, r3
     820:	f7ff ff46 	bl	6b0 <k_delayed_work_submit>
}
     824:	b006      	add	sp, #24
     826:	bd70      	pop	{r4, r5, r6, pc}
     828:	20000000 	.word	0x20000000
     82c:	0002a7a7 	.word	0x0002a7a7
     830:	000267ce 	.word	0x000267ce
     834:	00026920 	.word	0x00026920
     838:	00026801 	.word	0x00026801
     83c:	00026a56 	.word	0x00026a56
     840:	200000ac 	.word	0x200000ac

00000844 <_hub_wdt_isr>:
}


static void _hub_wdt_isr()
{
    if(TIMER->EVENTS_COMPARE[TIMER_CC_PERIOD]) {
     844:	4b0f      	ldr	r3, [pc, #60]	; (884 <_hub_wdt_isr+0x40>)
     846:	f8d3 2140 	ldr.w	r2, [r3, #320]	; 0x140
     84a:	b1b2      	cbz	r2, 87a <_hub_wdt_isr+0x36>
        
        TIMER->EVENTS_COMPARE[TIMER_CC_PERIOD] = 0;
     84c:	2200      	movs	r2, #0
     84e:	f8c3 2140 	str.w	r2, [r3, #320]	; 0x140

        if(++_hub.watchdog.tick_count >= 30) {
     852:	4b0d      	ldr	r3, [pc, #52]	; (888 <_hub_wdt_isr+0x44>)
     854:	681a      	ldr	r2, [r3, #0]
     856:	3201      	adds	r2, #1
     858:	2a1d      	cmp	r2, #29
     85a:	601a      	str	r2, [r3, #0]
     85c:	d90d      	bls.n	87a <_hub_wdt_isr+0x36>

            if(_hub.watchdog.state) {
     85e:	685a      	ldr	r2, [r3, #4]
     860:	f04f 41a0 	mov.w	r1, #1342177280	; 0x50000000
     864:	f44f 1080 	mov.w	r0, #1048576	; 0x100000
     868:	b142      	cbz	r2, 87c <_hub_wdt_isr+0x38>
                // printk("HW_WATCHDOG_PIN\n");
                PIN_SET(HW_WATCHDOG_PIN);
     86a:	f8c1 050c 	str.w	r0, [r1, #1292]	; 0x50c
            } else {
                PIN_CLR(HW_WATCHDOG_PIN);
            }
            _hub.watchdog.state = !_hub.watchdog.state;
     86e:	fab2 f282 	clz	r2, r2
     872:	0952      	lsrs	r2, r2, #5
     874:	605a      	str	r2, [r3, #4]
            _hub.watchdog.tick_count = 0;
     876:	2200      	movs	r2, #0
     878:	601a      	str	r2, [r3, #0]
     87a:	4770      	bx	lr
                PIN_CLR(HW_WATCHDOG_PIN);
     87c:	f8c1 0508 	str.w	r0, [r1, #1288]	; 0x508
     880:	e7f5      	b.n	86e <_hub_wdt_isr+0x2a>
     882:	bf00      	nop
     884:	4000a000 	.word	0x4000a000
     888:	20000000 	.word	0x20000000

0000088c <_level_to_pulse.constprop.2>:
    u32_t percent = (u32_t) level * 100 / PWM_LEVEL_MAX;
     88c:	2264      	movs	r2, #100	; 0x64
     88e:	f64f 73ff 	movw	r3, #65535	; 0xffff
     892:	4351      	muls	r1, r2
     894:	fbb1 f1f3 	udiv	r1, r1, r3
    if(_hub.setting.lines[index].off_0 != PWM_PERCENT_RANGE_OFFSET_DISABLE) {
     898:	4b0e      	ldr	r3, [pc, #56]	; (8d4 <_level_to_pulse.constprop.2+0x48>)
     89a:	eb00 0040 	add.w	r0, r0, r0, lsl #1
     89e:	4418      	add	r0, r3
     8a0:	f890 3159 	ldrb.w	r3, [r0, #345]	; 0x159
     8a4:	4293      	cmp	r3, r2
     8a6:	d00c      	beq.n	8c2 <_level_to_pulse.constprop.2+0x36>
        scaled_percent = (percent <= _hub.setting.lines[index].off_0) ? 0 :   
     8a8:	4299      	cmp	r1, r3
                                                _hub.setting.lines[index].min +
     8aa:	bf81      	itttt	hi
     8ac:	f890 315a 	ldrbhi.w	r3, [r0, #346]	; 0x15a
                                               (_hub.setting.lines[index].max -
     8b0:	f890 015b 	ldrbhi.w	r0, [r0, #347]	; 0x15b
     8b4:	1ac0      	subhi	r0, r0, r3
                                                percent *
     8b6:	4341      	mulhi	r1, r0
        scaled_percent = (percent <= _hub.setting.lines[index].off_0) ? 0 :   
     8b8:	bf92      	itee	ls
     8ba:	2100      	movls	r1, #0
                                                _hub.setting.lines[index].min) /
     8bc:	fbb1 f1f2 	udivhi	r1, r1, r2
        scaled_percent = (percent <= _hub.setting.lines[index].off_0) ? 0 :   
     8c0:	18c9      	addhi	r1, r1, r3
    return (PWM_PERCENT_RANGE_FULL - scaled_percent) * PWM_PERIOD /
     8c2:	4805      	ldr	r0, [pc, #20]	; (8d8 <_level_to_pulse.constprop.2+0x4c>)
     8c4:	4341      	muls	r1, r0
     8c6:	f501 31c3 	add.w	r1, r1, #99840	; 0x18600
     8ca:	31a0      	adds	r1, #160	; 0xa0
}
     8cc:	2064      	movs	r0, #100	; 0x64
     8ce:	fbb1 f0f0 	udiv	r0, r1, r0
     8d2:	4770      	bx	lr
     8d4:	20000000 	.word	0x20000000
     8d8:	fffffc18 	.word	0xfffffc18

000008dc <pwm_pin_set_usec.constprop.3>:
 * @param pulse Pulse width (in micro second) set to the PWM.
 *
 * @retval 0 If successful.
 * @retval Negative errno code if failure.
 */
static inline int pwm_pin_set_usec(struct device *dev, u32_t pwm,
     8dc:	e92d 4ff0 	stmdb	sp!, {r4, r5, r6, r7, r8, r9, sl, fp, lr}
	return api->get_cycles_per_sec(dev, pwm, cycles);
     8e0:	6843      	ldr	r3, [r0, #4]
static inline int pwm_pin_set_usec(struct device *dev, u32_t pwm,
     8e2:	b085      	sub	sp, #20
     8e4:	4693      	mov	fp, r2
	return api->get_cycles_per_sec(dev, pwm, cycles);
     8e6:	685b      	ldr	r3, [r3, #4]
static inline int pwm_pin_set_usec(struct device *dev, u32_t pwm,
     8e8:	9101      	str	r1, [sp, #4]
	return api->get_cycles_per_sec(dev, pwm, cycles);
     8ea:	aa02      	add	r2, sp, #8
static inline int pwm_pin_set_usec(struct device *dev, u32_t pwm,
     8ec:	4605      	mov	r5, r0
	return api->get_cycles_per_sec(dev, pwm, cycles);
     8ee:	4798      	blx	r3
				   u32_t period, u32_t pulse)
{
	u64_t period_cycles, pulse_cycles, cycles_per_sec;

	if (pwm_get_cycles_per_sec(dev, pwm, &cycles_per_sec) != 0) {
     8f0:	bb58      	cbnz	r0, 94a <pwm_pin_set_usec.constprop.3+0x6e>
		return -EIO;
	}

	period_cycles = (period * cycles_per_sec) / USEC_PER_SEC;
     8f2:	9c02      	ldr	r4, [sp, #8]
     8f4:	f8dd a00c 	ldr.w	sl, [sp, #12]
     8f8:	4a17      	ldr	r2, [pc, #92]	; (958 <pwm_pin_set_usec.constprop.3+0x7c>)
     8fa:	f44f 737a 	mov.w	r3, #1000	; 0x3e8
     8fe:	fba4 0103 	umull	r0, r1, r4, r3
     902:	fb03 110a 	mla	r1, r3, sl, r1
     906:	2300      	movs	r3, #0
     908:	f7ff fce0 	bl	2cc <__aeabi_uldivmod>
	if (period_cycles >= ((u64_t)1 << 32)) {
     90c:	f04f 0900 	mov.w	r9, #0
     910:	f04f 38ff 	mov.w	r8, #4294967295	; 0xffffffff
     914:	4589      	cmp	r9, r1
     916:	bf08      	it	eq
     918:	4580      	cmpeq	r8, r0
	period_cycles = (period * cycles_per_sec) / USEC_PER_SEC;
     91a:	4606      	mov	r6, r0
	if (period_cycles >= ((u64_t)1 << 32)) {
     91c:	d318      	bcc.n	950 <pwm_pin_set_usec.constprop.3+0x74>
		return -ENOTSUP;
	}

	pulse_cycles = (pulse * cycles_per_sec) / USEC_PER_SEC;
     91e:	fbab 0104 	umull	r0, r1, fp, r4
     922:	fb0b 110a 	mla	r1, fp, sl, r1
     926:	4a0c      	ldr	r2, [pc, #48]	; (958 <pwm_pin_set_usec.constprop.3+0x7c>)
     928:	2300      	movs	r3, #0
     92a:	f7ff fccf 	bl	2cc <__aeabi_uldivmod>
	if (pulse_cycles >= ((u64_t)1 << 32)) {
     92e:	4589      	cmp	r9, r1
     930:	bf08      	it	eq
     932:	4580      	cmpeq	r8, r0
     934:	d30c      	bcc.n	950 <pwm_pin_set_usec.constprop.3+0x74>
	return api->pin_set(dev, pwm, period, pulse);
     936:	686b      	ldr	r3, [r5, #4]
     938:	9901      	ldr	r1, [sp, #4]
     93a:	681c      	ldr	r4, [r3, #0]
     93c:	4632      	mov	r2, r6
     93e:	4603      	mov	r3, r0
     940:	4628      	mov	r0, r5
     942:	47a0      	blx	r4
		return -ENOTSUP;
	}

	return pwm_pin_set_cycles(dev, pwm, (u32_t)period_cycles,
				  (u32_t)pulse_cycles);
}
     944:	b005      	add	sp, #20
     946:	e8bd 8ff0 	ldmia.w	sp!, {r4, r5, r6, r7, r8, r9, sl, fp, pc}
		return -EIO;
     94a:	f06f 0004 	mvn.w	r0, #4
     94e:	e7f9      	b.n	944 <pwm_pin_set_usec.constprop.3+0x68>
		return -ENOTSUP;
     950:	f06f 0022 	mvn.w	r0, #34	; 0x22
     954:	e7f6      	b.n	944 <pwm_pin_set_usec.constprop.3+0x68>
     956:	bf00      	nop
     958:	000f4240 	.word	0x000f4240

0000095c <gpio_pin_write>:
				   u32_t pin, u32_t value)
{
	const struct gpio_driver_api *api =
		(const struct gpio_driver_api *)port->driver_api;

	return api->write(port, access_op, pin, value);
     95c:	6843      	ldr	r3, [r0, #4]
 * @param value Value set on the pin.
 * @return 0 if successful, negative errno code on failure.
 */
static inline int gpio_pin_write(struct device *port, u32_t pin,
				 u32_t value)
{
     95e:	b410      	push	{r4}
	return api->write(port, access_op, pin, value);
     960:	685c      	ldr	r4, [r3, #4]
     962:	4613      	mov	r3, r2
     964:	46a4      	mov	ip, r4
     966:	460a      	mov	r2, r1
	return gpio_write(port, GPIO_ACCESS_BY_PIN, pin, value);
}
     968:	bc10      	pop	{r4}
	return api->write(port, access_op, pin, value);
     96a:	2100      	movs	r1, #0
     96c:	4760      	bx	ip
	...

00000970 <_hub_random>:
{
     970:	b5f0      	push	{r4, r5, r6, r7, lr}
    error = entropy_get_entropy(_entropy, (u8_t *)(&rand), sizeof(rand));
     972:	4b13      	ldr	r3, [pc, #76]	; (9c0 <_hub_random+0x50>)
{
     974:	4606      	mov	r6, r0
    error = entropy_get_entropy(_entropy, (u8_t *)(&rand), sizeof(rand));
     976:	6818      	ldr	r0, [r3, #0]
					    u16_t length)
{
	const struct entropy_driver_api *api = dev->driver_api;

	__ASSERT(api->get_entropy, "Callback pointer should not be NULL");
	return api->get_entropy(dev, buffer, length);
     978:	6843      	ldr	r3, [r0, #4]
{
     97a:	b087      	sub	sp, #28
     97c:	460c      	mov	r4, r1
     97e:	4617      	mov	r7, r2
     980:	681b      	ldr	r3, [r3, #0]
     982:	2204      	movs	r2, #4
     984:	a905      	add	r1, sp, #20
     986:	4798      	blx	r3
    if(error != 0) {
     988:	4605      	mov	r5, r0
     98a:	b160      	cbz	r0, 9a6 <_hub_random+0x36>
        SYS_LOG_ERR("random failed with error: %d", error);
     98c:	4b0d      	ldr	r3, [pc, #52]	; (9c4 <_hub_random+0x54>)
     98e:	9302      	str	r3, [sp, #8]
     990:	e88d 0028 	stmia.w	sp, {r3, r5}
     994:	4a0c      	ldr	r2, [pc, #48]	; (9c8 <_hub_random+0x58>)
     996:	4b0d      	ldr	r3, [pc, #52]	; (9cc <_hub_random+0x5c>)
     998:	490d      	ldr	r1, [pc, #52]	; (9d0 <_hub_random+0x60>)
     99a:	480e      	ldr	r0, [pc, #56]	; (9d4 <_hub_random+0x64>)
     99c:	f002 fc30 	bl	3200 <printk>
}
     9a0:	4628      	mov	r0, r5
     9a2:	b007      	add	sp, #28
     9a4:	bdf0      	pop	{r4, r5, r6, r7, pc}
    del = (max - min <= 0) ? 10: (max - min); 
     9a6:	42b4      	cmp	r4, r6
    *randomed = min + (rand % del);
     9a8:	9a05      	ldr	r2, [sp, #20]
    del = (max - min <= 0) ? 10: (max - min); 
     9aa:	bf14      	ite	ne
     9ac:	1ba1      	subne	r1, r4, r6
     9ae:	210a      	moveq	r1, #10
    *randomed = min + (rand % del);
     9b0:	fbb2 f3f1 	udiv	r3, r2, r1
     9b4:	fb01 2113 	mls	r1, r1, r3, r2
     9b8:	4431      	add	r1, r6
     9ba:	6039      	str	r1, [r7, #0]
    return 0;
     9bc:	e7f0      	b.n	9a0 <_hub_random+0x30>
     9be:	bf00      	nop
     9c0:	20003d60 	.word	0x20003d60
     9c4:	0002a7a7 	.word	0x0002a7a7
     9c8:	000267c7 	.word	0x000267c7
     9cc:	0002695b 	.word	0x0002695b
     9d0:	000267ce 	.word	0x000267ce
     9d4:	000269e7 	.word	0x000269e7

000009d8 <_status>:
{
     9d8:	b570      	push	{r4, r5, r6, lr}
     9da:	b086      	sub	sp, #24
     9dc:	4606      	mov	r6, r0
     9de:	460d      	mov	r5, r1
     9e0:	4614      	mov	r4, r2
    struct adc_sequence adc_sequence = {
     9e2:	2100      	movs	r1, #0
     9e4:	2214      	movs	r2, #20
     9e6:	a801      	add	r0, sp, #4
     9e8:	f006 f859 	bl	6a9e <memset>
     9ec:	f10d 0302 	add.w	r3, sp, #2
     9f0:	9303      	str	r3, [sp, #12]
     9f2:	230c      	movs	r3, #12
     9f4:	f88d 3014 	strb.w	r3, [sp, #20]
        .channels = BIT(pin),
     9f8:	2001      	movs	r0, #1
    error = adc_read(_adc, &adc_sequence);
     9fa:	4b16      	ldr	r3, [pc, #88]	; (a54 <_status+0x7c>)
        .channels = BIT(pin),
     9fc:	40b0      	lsls	r0, r6
    struct adc_sequence adc_sequence = {
     9fe:	9002      	str	r0, [sp, #8]
    error = adc_read(_adc, &adc_sequence);
     a00:	6818      	ldr	r0, [r3, #0]
static inline int adc_read(struct device *dev,
			   const struct adc_sequence *sequence)
{
	const struct adc_driver_api *api = dev->driver_api;

	return api->read(dev, sequence);
     a02:	6843      	ldr	r3, [r0, #4]
    struct adc_sequence adc_sequence = {
     a04:	2602      	movs	r6, #2
     a06:	9604      	str	r6, [sp, #16]
     a08:	685b      	ldr	r3, [r3, #4]
     a0a:	a901      	add	r1, sp, #4
     a0c:	4798      	blx	r3
    if(error != 0)
     a0e:	b9f8      	cbnz	r0, a50 <_status+0x78>
    if(value >= HUB_LINE_ADC_DRIVER_FAILED_MINIMUM  && value <= HUB_LINE_ADC_DRIVER_FAILED_MAXIMUM) {
     a10:	f8bd 3002 	ldrh.w	r3, [sp, #2]
     a14:	f5a3 62fa 	sub.w	r2, r3, #2000	; 0x7d0
     a18:	f5b2 7fc8 	cmp.w	r2, #400	; 0x190
     a1c:	d80b      	bhi.n	a36 <_status+0x5e>
        if(percent <= _hub.setting.lines[index].min) {
     a1e:	4b0e      	ldr	r3, [pc, #56]	; (a58 <_status+0x80>)
     a20:	eb04 0444 	add.w	r4, r4, r4, lsl #1
     a24:	441c      	add	r4, r3
     a26:	f894 015a 	ldrb.w	r0, [r4, #346]	; 0x15a
            return HUB_LINE_STATUS_DRIVER_FAILED;
     a2a:	42a8      	cmp	r0, r5
     a2c:	bf34      	ite	cc
     a2e:	2004      	movcc	r0, #4
     a30:	2000      	movcs	r0, #0
}
     a32:	b006      	add	sp, #24
     a34:	bd70      	pop	{r4, r5, r6, pc}
    if(value >= HUB_LINE_ADC_NORMAL_MIMINUM &&  value <= HUB_LINE_ADC_NORMAL_MAXINUM) {
     a36:	f6a3 1292 	subw	r2, r3, #2450	; 0x992
     a3a:	b292      	uxth	r2, r2
     a3c:	f240 51aa 	movw	r1, #1450	; 0x5aa
     a40:	428a      	cmp	r2, r1
     a42:	d9f6      	bls.n	a32 <_status+0x5a>
    if(value >= HUB_LINE_ADC_LED_FAILED_MINIMUM) {
     a44:	f5b3 6f7a 	cmp.w	r3, #4000	; 0xfa0
        return HUB_LINE_STATUS_UNDEFINED;
     a48:	bf2c      	ite	cs
     a4a:	2003      	movcs	r0, #3
     a4c:	2005      	movcc	r0, #5
     a4e:	e7f0      	b.n	a32 <_status+0x5a>
        return HUB_LINE_STATUS_GPIO_FAILED;
     a50:	4630      	mov	r0, r6
     a52:	e7ee      	b.n	a32 <_status+0x5a>
     a54:	20003d64 	.word	0x20003d64
     a58:	20000000 	.word	0x20000000

00000a5c <_status_work>:
{
     a5c:	e92d 41f3 	stmdb	sp!, {r0, r1, r4, r5, r6, r7, r8, lr}
     a60:	4d0f      	ldr	r5, [pc, #60]	; (aa0 <_status_work+0x44>)
     a62:	2400      	movs	r4, #0
     a64:	462e      	mov	r6, r5
    return PWM_POLACITY == true? level * 100 / PWM_LEVEL_MAX:
     a66:	f04f 0864 	mov.w	r8, #100	; 0x64
     a6a:	f64f 77ff 	movw	r7, #65535	; 0xffff
     a6e:	8929      	ldrh	r1, [r5, #8]
        status[index] = _status(line->status_pin,
     a70:	7e6a      	ldrb	r2, [r5, #25]
     a72:	f855 0f14 	ldr.w	r0, [r5, #20]!
    return PWM_POLACITY == true? level * 100 / PWM_LEVEL_MAX:
     a76:	fb08 f101 	mul.w	r1, r8, r1
     a7a:	fb91 f1f7 	sdiv	r1, r1, r7
        status[index] = _status(line->status_pin,
     a7e:	b2c9      	uxtb	r1, r1
     a80:	f7ff ffaa 	bl	9d8 <_status>
     a84:	f80d 0004 	strb.w	r0, [sp, r4]
     a88:	3401      	adds	r4, #1
    for(u8_t index = 0; index < HUB_LINES; index++) {
     a8a:	2c08      	cmp	r4, #8
     a8c:	d1ef      	bne.n	a6e <_status_work+0x12>
    _hub.status(status, HUB_LINES);
     a8e:	f8d6 30d4 	ldr.w	r3, [r6, #212]	; 0xd4
     a92:	4621      	mov	r1, r4
     a94:	4668      	mov	r0, sp
     a96:	4798      	blx	r3
}
     a98:	b002      	add	sp, #8
     a9a:	e8bd 81f0 	ldmia.w	sp!, {r4, r5, r6, r7, r8, pc}
     a9e:	bf00      	nop
     aa0:	20000000 	.word	0x20000000

00000aa4 <_warning_work>:
{
     aa4:	e92d 43f0 	stmdb	sp!, {r4, r5, r6, r7, r8, r9, lr}
     aa8:	4d36      	ldr	r5, [pc, #216]	; (b84 <_warning_work+0xe0>)
     aaa:	b087      	sub	sp, #28
     aac:	f04f 0800 	mov.w	r8, #0
    bool has_fault = false;
     ab0:	4646      	mov	r6, r8
     ab2:	462c      	mov	r4, r5
    return PWM_POLACITY == true? level * 100 / PWM_LEVEL_MAX:
     ab4:	f04f 0964 	mov.w	r9, #100	; 0x64
        status[index] = line->status;
     ab8:	af04      	add	r7, sp, #16
    return PWM_POLACITY == true? level * 100 / PWM_LEVEL_MAX:
     aba:	8929      	ldrh	r1, [r5, #8]
        line->status = _status(line->status_pin, _level_to_percent(line->level), line->index);
     abc:	7e6a      	ldrb	r2, [r5, #25]
     abe:	6968      	ldr	r0, [r5, #20]
    return PWM_POLACITY == true? level * 100 / PWM_LEVEL_MAX:
     ac0:	f64f 73ff 	movw	r3, #65535	; 0xffff
     ac4:	fb09 f101 	mul.w	r1, r9, r1
     ac8:	fb91 f1f3 	sdiv	r1, r1, r3
        line->status = _status(line->status_pin, _level_to_percent(line->level), line->index);
     acc:	b2c9      	uxtb	r1, r1
     ace:	f7ff ff83 	bl	9d8 <_status>
        if (line->enabled == false)
     ad2:	7e2b      	ldrb	r3, [r5, #24]
        line->status = _status(line->status_pin, _level_to_percent(line->level), line->index);
     ad4:	72a8      	strb	r0, [r5, #10]
        status[index] = line->status;
     ad6:	f808 0007 	strb.w	r0, [r8, r7]
        if (line->enabled == false)
     ada:	b113      	cbz	r3, ae2 <_warning_work+0x3e>
            has_fault = true;
     adc:	2800      	cmp	r0, #0
     ade:	bf18      	it	ne
     ae0:	461e      	movne	r6, r3
     ae2:	f108 0801 	add.w	r8, r8, #1
    for(u8_t index = 0; index < HUB_LINES; index++) {
     ae6:	f1b8 0f08 	cmp.w	r8, #8
     aea:	f105 0514 	add.w	r5, r5, #20
     aee:	d1e4      	bne.n	aba <_warning_work+0x16>
    if(has_fault) {
     af0:	b306      	cbz	r6, b34 <_warning_work+0x90>
        if(++_hub.faults >= WARN_FAULT_RECHECKS) {
     af2:	f894 3200 	ldrb.w	r3, [r4, #512]	; 0x200
     af6:	3301      	adds	r3, #1
     af8:	b2db      	uxtb	r3, r3
     afa:	2b02      	cmp	r3, #2
     afc:	f04f 0200 	mov.w	r2, #0
     b00:	bf9a      	itte	ls
     b02:	f884 3200 	strbls.w	r3, [r4, #512]	; 0x200
    bool warning = false;
     b06:	4616      	movls	r6, r2
            _hub.faults = 0;
     b08:	f884 2200 	strbhi.w	r2, [r4, #512]	; 0x200
    if(_hub.faults > 0) {
     b0c:	f894 2200 	ldrb.w	r2, [r4, #512]	; 0x200
     b10:	4b1d      	ldr	r3, [pc, #116]	; (b88 <_warning_work+0xe4>)
     b12:	b192      	cbz	r2, b3a <_warning_work+0x96>
        SYS_LOG_INF("Do fault recheck");
     b14:	9301      	str	r3, [sp, #4]
     b16:	9300      	str	r3, [sp, #0]
     b18:	491c      	ldr	r1, [pc, #112]	; (b8c <_warning_work+0xe8>)
     b1a:	4b1d      	ldr	r3, [pc, #116]	; (b90 <_warning_work+0xec>)
     b1c:	4a1d      	ldr	r2, [pc, #116]	; (b94 <_warning_work+0xf0>)
     b1e:	481e      	ldr	r0, [pc, #120]	; (b98 <_warning_work+0xf4>)
     b20:	f002 fb6e 	bl	3200 <printk>
        k_delayed_work_submit(&_hub.warning_work,
     b24:	f44f 61fa 	mov.w	r1, #2000	; 0x7d0
        k_delayed_work_submit(&_hub.warning_work,
     b28:	481c      	ldr	r0, [pc, #112]	; (b9c <_warning_work+0xf8>)
     b2a:	f7ff fdc1 	bl	6b0 <k_delayed_work_submit>
}
     b2e:	b007      	add	sp, #28
     b30:	e8bd 83f0 	ldmia.w	sp!, {r4, r5, r6, r7, r8, r9, pc}
        _hub.faults = 0;
     b34:	f884 6200 	strb.w	r6, [r4, #512]	; 0x200
     b38:	e7e8      	b.n	b0c <_warning_work+0x68>
    } else if (warning != true) {
     b3a:	b986      	cbnz	r6, b5e <_warning_work+0xba>
        SYS_LOG_INF("recheck after %u (s)", _hub.setting.status.warn_check_period);
     b3c:	9302      	str	r3, [sp, #8]
     b3e:	f8b4 2173 	ldrh.w	r2, [r4, #371]	; 0x173
     b42:	9201      	str	r2, [sp, #4]
     b44:	9300      	str	r3, [sp, #0]
     b46:	4a13      	ldr	r2, [pc, #76]	; (b94 <_warning_work+0xf0>)
     b48:	4b11      	ldr	r3, [pc, #68]	; (b90 <_warning_work+0xec>)
     b4a:	4910      	ldr	r1, [pc, #64]	; (b8c <_warning_work+0xe8>)
     b4c:	4814      	ldr	r0, [pc, #80]	; (ba0 <_warning_work+0xfc>)
     b4e:	f002 fb57 	bl	3200 <printk>
                            K_SECONDS(_hub.setting.status.warn_check_period));
     b52:	f8b4 3173 	ldrh.w	r3, [r4, #371]	; 0x173
        k_delayed_work_submit(&_hub.warning_work,
     b56:	f44f 717a 	mov.w	r1, #1000	; 0x3e8
     b5a:	4359      	muls	r1, r3
     b5c:	e7e4      	b.n	b28 <_warning_work+0x84>
        SYS_LOG_INF("Do warning");
     b5e:	9301      	str	r3, [sp, #4]
     b60:	9300      	str	r3, [sp, #0]
     b62:	4a0c      	ldr	r2, [pc, #48]	; (b94 <_warning_work+0xf0>)
     b64:	4b0a      	ldr	r3, [pc, #40]	; (b90 <_warning_work+0xec>)
     b66:	4909      	ldr	r1, [pc, #36]	; (b8c <_warning_work+0xe8>)
     b68:	480e      	ldr	r0, [pc, #56]	; (ba4 <_warning_work+0x100>)
     b6a:	f002 fb49 	bl	3200 <printk>
        if (_hub.setting.status.warn_en)
     b6e:	f894 3172 	ldrb.w	r3, [r4, #370]	; 0x172
     b72:	b123      	cbz	r3, b7e <_warning_work+0xda>
            _hub.warning(status, HUB_LINES);
     b74:	f8d4 3128 	ldr.w	r3, [r4, #296]	; 0x128
     b78:	2108      	movs	r1, #8
     b7a:	4638      	mov	r0, r7
     b7c:	4798      	blx	r3
                            K_SECONDS(_hub.setting.status.warn_notify_period));
     b7e:	f8b4 3175 	ldrh.w	r3, [r4, #373]	; 0x175
     b82:	e7e8      	b.n	b56 <_warning_work+0xb2>
     b84:	20000000 	.word	0x20000000
     b88:	0002a7a7 	.word	0x0002a7a7
     b8c:	000267ce 	.word	0x000267ce
     b90:	0002692c 	.word	0x0002692c
     b94:	00026801 	.word	0x00026801
     b98:	00026a76 	.word	0x00026a76
     b9c:	2000012c 	.word	0x2000012c
     ba0:	00026a97 	.word	0x00026a97
     ba4:	00026abc 	.word	0x00026abc

00000ba8 <hub_init>:
{
     ba8:	e92d 43f7 	stmdb	sp!, {r0, r1, r2, r4, r5, r6, r7, r8, r9, lr}
    SYS_LOG_INF("Configure adc");
     bac:	4c8b      	ldr	r4, [pc, #556]	; (ddc <hub_init+0x234>)
     bae:	4b8c      	ldr	r3, [pc, #560]	; (de0 <hub_init+0x238>)
     bb0:	9401      	str	r4, [sp, #4]
{
     bb2:	4680      	mov	r8, r0
     bb4:	460f      	mov	r7, r1
     bb6:	4616      	mov	r6, r2
    SYS_LOG_INF("Configure adc");
     bb8:	498a      	ldr	r1, [pc, #552]	; (de4 <hub_init+0x23c>)
     bba:	4a8b      	ldr	r2, [pc, #556]	; (de8 <hub_init+0x240>)
     bbc:	9400      	str	r4, [sp, #0]
     bbe:	488b      	ldr	r0, [pc, #556]	; (dec <hub_init+0x244>)
     bc0:	f002 fb1e 	bl	3200 <printk>
    _soft_pwm = device_get_binding(CONFIG_PWM_NRF52_HW_0_DEV_NAME);
     bc4:	488a      	ldr	r0, [pc, #552]	; (df0 <hub_init+0x248>)
     bc6:	f024 f861 	bl	24c8c <device_get_binding>
     bca:	4b8a      	ldr	r3, [pc, #552]	; (df4 <hub_init+0x24c>)
     bcc:	6018      	str	r0, [r3, #0]
    if (_soft_pwm == NULL) {
     bce:	b960      	cbnz	r0, bea <hub_init+0x42>
        SYS_LOG_ERR("Setup pwm device failed");
     bd0:	4b83      	ldr	r3, [pc, #524]	; (de0 <hub_init+0x238>)
     bd2:	4a89      	ldr	r2, [pc, #548]	; (df8 <hub_init+0x250>)
     bd4:	4983      	ldr	r1, [pc, #524]	; (de4 <hub_init+0x23c>)
     bd6:	4889      	ldr	r0, [pc, #548]	; (dfc <hub_init+0x254>)
     bd8:	9401      	str	r4, [sp, #4]
     bda:	9400      	str	r4, [sp, #0]
        SYS_LOG_ERR("Setup entropy device failed");
     bdc:	f002 fb10 	bl	3200 <printk>
        return -ENODEV;
     be0:	f06f 0012 	mvn.w	r0, #18
}
     be4:	b003      	add	sp, #12
     be6:	e8bd 83f0 	ldmia.w	sp!, {r4, r5, r6, r7, r8, r9, pc}
    _adc = device_get_binding(CONFIG_ADC_0_NAME);
     bea:	4885      	ldr	r0, [pc, #532]	; (e00 <hub_init+0x258>)
     bec:	f024 f84e 	bl	24c8c <device_get_binding>
     bf0:	4b84      	ldr	r3, [pc, #528]	; (e04 <hub_init+0x25c>)
     bf2:	6018      	str	r0, [r3, #0]
    if (_adc == NULL) {
     bf4:	b930      	cbnz	r0, c04 <hub_init+0x5c>
        SYS_LOG_ERR("Setup adc device failed");
     bf6:	9401      	str	r4, [sp, #4]
     bf8:	9400      	str	r4, [sp, #0]
     bfa:	4b79      	ldr	r3, [pc, #484]	; (de0 <hub_init+0x238>)
     bfc:	4a7e      	ldr	r2, [pc, #504]	; (df8 <hub_init+0x250>)
     bfe:	4979      	ldr	r1, [pc, #484]	; (de4 <hub_init+0x23c>)
     c00:	4881      	ldr	r0, [pc, #516]	; (e08 <hub_init+0x260>)
     c02:	e7eb      	b.n	bdc <hub_init+0x34>
    _gpio = device_get_binding(CONFIG_GPIO_P0_DEV_NAME);
     c04:	4881      	ldr	r0, [pc, #516]	; (e0c <hub_init+0x264>)
     c06:	4d82      	ldr	r5, [pc, #520]	; (e10 <hub_init+0x268>)
     c08:	f024 f840 	bl	24c8c <device_get_binding>
     c0c:	6028      	str	r0, [r5, #0]
    if (_gpio == NULL) {
     c0e:	b930      	cbnz	r0, c1e <hub_init+0x76>
        SYS_LOG_ERR("Setup GPIO device failed");
     c10:	9401      	str	r4, [sp, #4]
     c12:	9400      	str	r4, [sp, #0]
     c14:	4b72      	ldr	r3, [pc, #456]	; (de0 <hub_init+0x238>)
     c16:	4a78      	ldr	r2, [pc, #480]	; (df8 <hub_init+0x250>)
     c18:	4972      	ldr	r1, [pc, #456]	; (de4 <hub_init+0x23c>)
     c1a:	487e      	ldr	r0, [pc, #504]	; (e14 <hub_init+0x26c>)
     c1c:	e7de      	b.n	bdc <hub_init+0x34>
    _entropy = device_get_binding(CONFIG_ENTROPY_NAME);
     c1e:	487e      	ldr	r0, [pc, #504]	; (e18 <hub_init+0x270>)
     c20:	f024 f834 	bl	24c8c <device_get_binding>
     c24:	4b7d      	ldr	r3, [pc, #500]	; (e1c <hub_init+0x274>)
     c26:	6018      	str	r0, [r3, #0]
        SYS_LOG_ERR("Setup entropy device failed");
     c28:	9401      	str	r4, [sp, #4]
     c2a:	9400      	str	r4, [sp, #0]
     c2c:	4b6c      	ldr	r3, [pc, #432]	; (de0 <hub_init+0x238>)
    if(_entropy == NULL) {
     c2e:	b918      	cbnz	r0, c38 <hub_init+0x90>
        SYS_LOG_ERR("Setup entropy device failed");
     c30:	4a71      	ldr	r2, [pc, #452]	; (df8 <hub_init+0x250>)
     c32:	496c      	ldr	r1, [pc, #432]	; (de4 <hub_init+0x23c>)
     c34:	487a      	ldr	r0, [pc, #488]	; (e20 <hub_init+0x278>)
     c36:	e7d1      	b.n	bdc <hub_init+0x34>
    SYS_LOG_INF("Configure software pin");
     c38:	4a6b      	ldr	r2, [pc, #428]	; (de8 <hub_init+0x240>)
     c3a:	496a      	ldr	r1, [pc, #424]	; (de4 <hub_init+0x23c>)
     c3c:	4879      	ldr	r0, [pc, #484]	; (e24 <hub_init+0x27c>)
     c3e:	f002 fadf 	bl	3200 <printk>
    gpio_pin_configure(_gpio, SW_ENABLE_PIN, GPIO_DIR_OUT);
     c42:	6828      	ldr	r0, [r5, #0]
	return api->config(port, access_op, pin, flags);
     c44:	6843      	ldr	r3, [r0, #4]
     c46:	2207      	movs	r2, #7
     c48:	f8d3 9000 	ldr.w	r9, [r3]
     c4c:	2100      	movs	r1, #0
     c4e:	2301      	movs	r3, #1
     c50:	47c8      	blx	r9
    gpio_pin_write(_gpio, SW_ENABLE_PIN, 1);
     c52:	2201      	movs	r2, #1
     c54:	2107      	movs	r1, #7
     c56:	6828      	ldr	r0, [r5, #0]
     c58:	f7ff fe80 	bl	95c <gpio_pin_write>
    SYS_LOG_INF("Configure bypass pin");
     c5c:	9401      	str	r4, [sp, #4]
     c5e:	9400      	str	r4, [sp, #0]
     c60:	4b5f      	ldr	r3, [pc, #380]	; (de0 <hub_init+0x238>)
     c62:	4a61      	ldr	r2, [pc, #388]	; (de8 <hub_init+0x240>)
     c64:	495f      	ldr	r1, [pc, #380]	; (de4 <hub_init+0x23c>)
     c66:	4870      	ldr	r0, [pc, #448]	; (e28 <hub_init+0x280>)
     c68:	f002 faca 	bl	3200 <printk>
    gpio_pin_configure(_gpio, PIN_BYPASS, GPIO_DIR_OUT | GPIO_PUD_PULL_DOWN);
     c6c:	6828      	ldr	r0, [r5, #0]
     c6e:	6843      	ldr	r3, [r0, #4]
     c70:	2216      	movs	r2, #22
     c72:	f8d3 9000 	ldr.w	r9, [r3]
     c76:	2100      	movs	r1, #0
     c78:	f240 2301 	movw	r3, #513	; 0x201
     c7c:	47c8      	blx	r9
    gpio_pin_write(_gpio, PIN_BYPASS, 0);
     c7e:	2200      	movs	r2, #0
     c80:	2116      	movs	r1, #22
     c82:	6828      	ldr	r0, [r5, #0]
     c84:	f7ff fe6a 	bl	95c <gpio_pin_write>
    SYS_LOG_INF("Configure hardware watchdog");
     c88:	9401      	str	r4, [sp, #4]
     c8a:	9400      	str	r4, [sp, #0]
     c8c:	4b54      	ldr	r3, [pc, #336]	; (de0 <hub_init+0x238>)
     c8e:	4a56      	ldr	r2, [pc, #344]	; (de8 <hub_init+0x240>)
     c90:	4954      	ldr	r1, [pc, #336]	; (de4 <hub_init+0x23c>)
     c92:	4866      	ldr	r0, [pc, #408]	; (e2c <hub_init+0x284>)
     c94:	f002 fab4 	bl	3200 <printk>
}


static void _hub_wdt_init()
{
    SYS_LOG_DBG("");
     c98:	9401      	str	r4, [sp, #4]
     c9a:	9400      	str	r4, [sp, #0]
     c9c:	4b64      	ldr	r3, [pc, #400]	; (e30 <hub_init+0x288>)
     c9e:	4a65      	ldr	r2, [pc, #404]	; (e34 <hub_init+0x28c>)
     ca0:	4950      	ldr	r1, [pc, #320]	; (de4 <hub_init+0x23c>)
     ca2:	4865      	ldr	r0, [pc, #404]	; (e38 <hub_init+0x290>)
    TIMER->EVENTS_COMPARE[TIMER_CC_PERIOD] = 0; 

    TIMER->TASKS_STOP = 1;
    TIMER->TASKS_START = 1;

    _hub.watchdog.state = 0;
     ca4:	4c65      	ldr	r4, [pc, #404]	; (e3c <hub_init+0x294>)
    SYS_LOG_DBG("");
     ca6:	f002 faab 	bl	3200 <printk>
 */
__STATIC_INLINE void __NVIC_ClearPendingIRQ(IRQn_Type IRQn)
{
  if ((int32_t)(IRQn) >= 0)
  {
    NVIC->ICPR[(((uint32_t)IRQn) >> 5UL)] = (uint32_t)(1UL << (((uint32_t)IRQn) & 0x1FUL));
     caa:	4b65      	ldr	r3, [pc, #404]	; (e40 <hub_init+0x298>)
     cac:	f44f 6280 	mov.w	r2, #1024	; 0x400
     cb0:	f8c3 2180 	str.w	r2, [r3, #384]	; 0x180
    IRQ_CONNECT(NRF5_IRQ_TIMER2_IRQn, 1, _hub_wdt_isr, 0, 0);
     cb4:	2101      	movs	r1, #1
     cb6:	2200      	movs	r2, #0
     cb8:	200a      	movs	r0, #10
     cba:	f005 fc5d 	bl	6578 <_irq_priority_set>
    irq_enable(NRF5_IRQ_TIMER2_IRQn);
     cbe:	200a      	movs	r0, #10
     cc0:	f005 fc28 	bl	6514 <_arch_irq_enable>
    NRF_GPIO->DIRSET = BIT(HW_WATCHDOG_PIN);
     cc4:	f04f 43a0 	mov.w	r3, #1342177280	; 0x50000000
     cc8:	f44f 1280 	mov.w	r2, #1048576	; 0x100000
     ccc:	f8c3 2518 	str.w	r2, [r3, #1304]	; 0x518
    PIN_CLR(HW_WATCHDOG_PIN);
     cd0:	f8c3 2508 	str.w	r2, [r3, #1288]	; 0x508
    TIMER->MODE = TIMER_MODE_MODE_Timer;
     cd4:	4b5b      	ldr	r3, [pc, #364]	; (e44 <hub_init+0x29c>)
    k_delayed_work_init(&_hub.level_work, _level_work);
     cd6:	495c      	ldr	r1, [pc, #368]	; (e48 <hub_init+0x2a0>)
    TIMER->MODE = TIMER_MODE_MODE_Timer;
     cd8:	2500      	movs	r5, #0
    TIMER->PRESCALER = 8;
     cda:	2208      	movs	r2, #8
    TIMER->MODE = TIMER_MODE_MODE_Timer;
     cdc:	f8c3 5504 	str.w	r5, [r3, #1284]	; 0x504
    _hub.watchdog.tick_count = 0;
     ce0:	4620      	mov	r0, r4
    TIMER->PRESCALER = 8;
     ce2:	f8c3 2510 	str.w	r2, [r3, #1296]	; 0x510
    TIMER->INTENSET = BIT(TIMER_INTENSET_COMPARE0_Pos);
     ce6:	f44f 3280 	mov.w	r2, #65536	; 0x10000
    TIMER->BITMODE = TIMER_BITMODE_BITMODE_16Bit;
     cea:	f8c3 5508 	str.w	r5, [r3, #1288]	; 0x508
    TIMER->SHORTS = TIMER_SHORTS_COMPARE0_CLEAR_Msk;
     cee:	f04f 0901 	mov.w	r9, #1
    TIMER->INTENSET = BIT(TIMER_INTENSET_COMPARE0_Pos);
     cf2:	f8c3 2304 	str.w	r2, [r3, #772]	; 0x304
    TIMER->CC[TIMER_CC_PERIOD] = TIMER_PERIOD;
     cf6:	f44f 727a 	mov.w	r2, #1000	; 0x3e8
    TIMER->SHORTS = TIMER_SHORTS_COMPARE0_CLEAR_Msk;
     cfa:	f8c3 9200 	str.w	r9, [r3, #512]	; 0x200
    TIMER->CC[TIMER_CC_PERIOD] = TIMER_PERIOD;
     cfe:	f8c3 2540 	str.w	r2, [r3, #1344]	; 0x540
    TIMER->EVENTS_COMPARE[TIMER_CC_PERIOD] = 0; 
     d02:	f8c3 5140 	str.w	r5, [r3, #320]	; 0x140
    TIMER->TASKS_STOP = 1;
     d06:	f8c3 9004 	str.w	r9, [r3, #4]
    TIMER->TASKS_START = 1;
     d0a:	f8c3 9000 	str.w	r9, [r3]
    _hub.watchdog.tick_count = 0;
     d0e:	f840 5bac 	str.w	r5, [r0], #172
    _hub.watchdog.state = 0;
     d12:	6065      	str	r5, [r4, #4]
    k_delayed_work_init(&_hub.level_work, _level_work);
     d14:	f025 f91e 	bl	25f54 <k_delayed_work_init>
    k_delayed_work_init(&_hub.status_work, _status_work);
     d18:	494c      	ldr	r1, [pc, #304]	; (e4c <hub_init+0x2a4>)
     d1a:	f104 00d8 	add.w	r0, r4, #216	; 0xd8
     d1e:	f025 f919 	bl	25f54 <k_delayed_work_init>
    k_delayed_work_init(&_hub.warning_work, _warning_work);
     d22:	494b      	ldr	r1, [pc, #300]	; (e50 <hub_init+0x2a8>)
     d24:	f504 7096 	add.w	r0, r4, #300	; 0x12c
     d28:	f025 f914 	bl	25f54 <k_delayed_work_init>
    k_delayed_work_submit(&_hub.warning_work, K_SECONDS(WARN_CHECK_PERIOD_DEFAULT));
     d2c:	f643 2198 	movw	r1, #15000	; 0x3a98
     d30:	f504 7096 	add.w	r0, r4, #300	; 0x12c
     d34:	f7ff fcbc 	bl	6b0 <k_delayed_work_submit>
    k_delayed_work_init(&_hub.config_work, _config_work);
     d38:	4946      	ldr	r1, [pc, #280]	; (e54 <hub_init+0x2ac>)
     d3a:	f504 70c4 	add.w	r0, r4, #392	; 0x188
     d3e:	f025 f909 	bl	25f54 <k_delayed_work_init>
    k_delayed_work_init(&_hub.restore_work, _level_restore_work);
     d42:	4945      	ldr	r1, [pc, #276]	; (e58 <hub_init+0x2b0>)
     d44:	f504 70ea 	add.w	r0, r4, #468	; 0x1d4
     d48:	f025 f904 	bl	25f54 <k_delayed_work_init>
    k_delayed_work_submit(&_hub.restore_work, 2000); //wait for setting load;
     d4c:	f44f 61fa 	mov.w	r1, #2000	; 0x7d0
     d50:	f504 70ea 	add.w	r0, r4, #468	; 0x1d4
     d54:	f7ff fcac 	bl	6b0 <k_delayed_work_submit>
    _hub.config.linesmap_add = 0x00;
     d58:	f884 51b0 	strb.w	r5, [r4, #432]	; 0x1b0
    _hub.config.linesmap_del = 0x00;
     d5c:	f884 51b1 	strb.w	r5, [r4, #433]	; 0x1b1
    _hub.config.linesmap_clr = 0x00;
     d60:	f884 51b2 	strb.w	r5, [r4, #434]	; 0x1b2
    _hub.faults = 0;
     d64:	f884 5200 	strb.w	r5, [r4, #512]	; 0x200
    _hub.setting.enableds = HUB_ENABLEDS_DEFAULT;
     d68:	f884 5155 	strb.w	r5, [r4, #341]	; 0x155
     d6c:	f884 5156 	strb.w	r5, [r4, #342]	; 0x156
     d70:	f884 5157 	strb.w	r5, [r4, #343]	; 0x157
     d74:	f884 5158 	strb.w	r5, [r4, #344]	; 0x158
    _hub.level = level;
     d78:	f8c4 80a8 	str.w	r8, [r4, #168]	; 0xa8
    _hub.status = status;
     d7c:	f8c4 70d4 	str.w	r7, [r4, #212]	; 0xd4
    _hub.warning = warning;
     d80:	f8c4 6128 	str.w	r6, [r4, #296]	; 0x128
    _hub.hardrwaring = true;
     d84:	f884 9154 	strb.w	r9, [r4, #340]	; 0x154
     d88:	f104 0318 	add.w	r3, r4, #24
     d8c:	4622      	mov	r2, r4
        _hub.setting.lines[index].off_0 = PWM_PERCENT_RANGE_OFFSET_0;
     d8e:	2502      	movs	r5, #2
        _hub.setting.lines[index].min = PWM_PERCENT_RANGE_MINIMUM;
     d90:	200f      	movs	r0, #15
        _hub.setting.lines[index].max = PWM_PERCENT_RANGE_MAXIMUM;
     d92:	2155      	movs	r1, #85	; 0x55
        _hub.setting.lines[index].off_0 = PWM_PERCENT_RANGE_OFFSET_0;
     d94:	f884 5159 	strb.w	r5, [r4, #345]	; 0x159
        _hub.setting.lines[index].min = PWM_PERCENT_RANGE_MINIMUM;
     d98:	f884 015a 	strb.w	r0, [r4, #346]	; 0x15a
        _hub.setting.lines[index].max = PWM_PERCENT_RANGE_MAXIMUM;
     d9c:	f884 115b 	strb.w	r1, [r4, #347]	; 0x15b
     da0:	3403      	adds	r4, #3
    for(int index = 0; index < HUB_LINES; index++) {
     da2:	429c      	cmp	r4, r3
     da4:	d1f6      	bne.n	d94 <hub_init+0x1ec>
    _hub.setting.status.warn_en     = WARN_EN_DEFAULT;
     da6:	2101      	movs	r1, #1
     da8:	f882 1172 	strb.w	r1, [r2, #370]	; 0x172
    _hub.setting.status.warn_notify_period = WARN_NOTIFY_PERIOD_DEFAULT; //seconds
     dac:	213c      	movs	r1, #60	; 0x3c
    _hub.setting.status.status_en   = STATUS_EN_DEFAULT;
     dae:	2300      	movs	r3, #0
    _hub.setting.status.warn_notify_period = WARN_NOTIFY_PERIOD_DEFAULT; //seconds
     db0:	f882 1175 	strb.w	r1, [r2, #373]	; 0x175
    _hub.setting.status.warn_check_period  = WARN_CHECK_PERIOD_DEFAULT; //seconds
     db4:	210f      	movs	r1, #15
    _hub.setting.status.status_en   = STATUS_EN_DEFAULT;
     db6:	f882 3171 	strb.w	r3, [r2, #369]	; 0x171
    _hub.setting.status.warn_notify_period = WARN_NOTIFY_PERIOD_DEFAULT; //seconds
     dba:	f882 3176 	strb.w	r3, [r2, #374]	; 0x176
    _hub.setting.status.warn_check_period  = WARN_CHECK_PERIOD_DEFAULT; //seconds
     dbe:	f882 1173 	strb.w	r1, [r2, #371]	; 0x173
     dc2:	f882 3174 	strb.w	r3, [r2, #372]	; 0x174
    _hub.setting.levels.store       = HUB_STORE_DEFAULT;
     dc6:	f882 3177 	strb.w	r3, [r2, #375]	; 0x177
        _hub.lines[index].index = index;
     dca:	2014      	movs	r0, #20
     dcc:	fb00 2103 	mla	r1, r0, r3, r2
     dd0:	764b      	strb	r3, [r1, #25]
    for(int index = 0; index < HUB_LINES; index++) {
     dd2:	3301      	adds	r3, #1
     dd4:	2b08      	cmp	r3, #8
     dd6:	d1f9      	bne.n	dcc <hub_init+0x224>
    return 0;
     dd8:	2000      	movs	r0, #0
     dda:	e703      	b.n	be4 <hub_init+0x3c>
     ddc:	0002a7a7 	.word	0x0002a7a7
     de0:	0002685f 	.word	0x0002685f
     de4:	000267ce 	.word	0x000267ce
     de8:	00026801 	.word	0x00026801
     dec:	00026af8 	.word	0x00026af8
     df0:	00026b16 	.word	0x00026b16
     df4:	20003d68 	.word	0x20003d68
     df8:	000267c7 	.word	0x000267c7
     dfc:	00026b1f 	.word	0x00026b1f
     e00:	00026b47 	.word	0x00026b47
     e04:	20003d64 	.word	0x20003d64
     e08:	00026b4d 	.word	0x00026b4d
     e0c:	00026b75 	.word	0x00026b75
     e10:	20003d5c 	.word	0x20003d5c
     e14:	00026b7c 	.word	0x00026b7c
     e18:	00026ba5 	.word	0x00026ba5
     e1c:	20003d60 	.word	0x20003d60
     e20:	00026baf 	.word	0x00026baf
     e24:	00026bdb 	.word	0x00026bdb
     e28:	00026c02 	.word	0x00026c02
     e2c:	00026c27 	.word	0x00026c27
     e30:	00026967 	.word	0x00026967
     e34:	00026c53 	.word	0x00026c53
     e38:	00026c5a 	.word	0x00026c5a
     e3c:	20000000 	.word	0x20000000
     e40:	e000e100 	.word	0xe000e100
     e44:	4000a000 	.word	0x4000a000
     e48:	000007cd 	.word	0x000007cd
     e4c:	00000a5d 	.word	0x00000a5d
     e50:	00000aa5 	.word	0x00000aa5
     e54:	000006c1 	.word	0x000006c1
     e58:	000013dd 	.word	0x000013dd

00000e5c <hub_enables_set>:
{
     e5c:	b51f      	push	{r0, r1, r2, r3, r4, lr}
    SYS_LOG_INF("enableds: 0x%08x", enableds);
     e5e:	4b0f      	ldr	r3, [pc, #60]	; (e9c <hub_enables_set+0x40>)
     e60:	9302      	str	r3, [sp, #8]
{
     e62:	4604      	mov	r4, r0
    SYS_LOG_INF("enableds: 0x%08x", enableds);
     e64:	e88d 0018 	stmia.w	sp, {r3, r4}
     e68:	4a0d      	ldr	r2, [pc, #52]	; (ea0 <hub_enables_set+0x44>)
     e6a:	4b0e      	ldr	r3, [pc, #56]	; (ea4 <hub_enables_set+0x48>)
     e6c:	490e      	ldr	r1, [pc, #56]	; (ea8 <hub_enables_set+0x4c>)
     e6e:	480f      	ldr	r0, [pc, #60]	; (eac <hub_enables_set+0x50>)
     e70:	f002 f9c6 	bl	3200 <printk>
    _hub.setting.enableds = enableds;
     e74:	4b0e      	ldr	r3, [pc, #56]	; (eb0 <hub_enables_set+0x54>)
    for(int index = 0; index < HUB_LINES; index++) {
     e76:	2200      	movs	r2, #0
    _hub.setting.enableds = enableds;
     e78:	f8c3 4155 	str.w	r4, [r3, #341]	; 0x155
            line->enabled = true;
     e7c:	2001      	movs	r0, #1
        if ((BIT(index) & enableds) == 0)
     e7e:	fa24 f102 	lsr.w	r1, r4, r2
     e82:	f011 0101 	ands.w	r1, r1, #1
    for(int index = 0; index < HUB_LINES; index++) {
     e86:	f102 0201 	add.w	r2, r2, #1
            line->enabled = false;
     e8a:	bf0c      	ite	eq
     e8c:	7619      	strbeq	r1, [r3, #24]
            line->enabled = true;
     e8e:	7618      	strbne	r0, [r3, #24]
    for(int index = 0; index < HUB_LINES; index++) {
     e90:	2a08      	cmp	r2, #8
     e92:	f103 0314 	add.w	r3, r3, #20
     e96:	d1f2      	bne.n	e7e <hub_enables_set+0x22>
}
     e98:	b004      	add	sp, #16
     e9a:	bd10      	pop	{r4, pc}
     e9c:	0002a7a7 	.word	0x0002a7a7
     ea0:	00026801 	.word	0x00026801
     ea4:	00026876 	.word	0x00026876
     ea8:	000267ce 	.word	0x000267ce
     eac:	00026ad7 	.word	0x00026ad7
     eb0:	20000000 	.word	0x20000000

00000eb4 <hub_pwm_scale_set>:
{
     eb4:	b5f0      	push	{r4, r5, r6, r7, lr}
    u8_t valid_min = (0 <= min && min < 100) ? min : PWM_PERCENT_RANGE_MINIMUM;
     eb6:	2a64      	cmp	r2, #100	; 0x64
{
     eb8:	b087      	sub	sp, #28
     eba:	4604      	mov	r4, r0
    u8_t valid_min = (0 <= min && min < 100) ? min : PWM_PERCENT_RANGE_MINIMUM;
     ebc:	bf38      	it	cc
     ebe:	4615      	movcc	r5, r2
    SYS_LOG_INF("linesmask 0x%02X, off_0 %02d, min %02d, max %02d", linesmap, off_0, min, max);
     ec0:	4815      	ldr	r0, [pc, #84]	; (f18 <hub_pwm_scale_set+0x64>)
     ec2:	9005      	str	r0, [sp, #20]
    u8_t valid_min = (0 <= min && min < 100) ? min : PWM_PERCENT_RANGE_MINIMUM;
     ec4:	bf28      	it	cs
     ec6:	250f      	movcs	r5, #15
    u8_t valid_max = (0 <= max && max < 100) ? max : PWM_PERCENT_RANGE_MAXIMUM;
     ec8:	2b64      	cmp	r3, #100	; 0x64
     eca:	bf34      	ite	cc
     ecc:	461e      	movcc	r6, r3
     ece:	2655      	movcs	r6, #85	; 0x55
    u8_t valid_off = (0 <= off_0 && off_0 <= 100) ? off_0 : PWM_PERCENT_RANGE_OFFSET_0;
     ed0:	2965      	cmp	r1, #101	; 0x65
     ed2:	bf38      	it	cc
     ed4:	460f      	movcc	r7, r1
    SYS_LOG_INF("linesmask 0x%02X, off_0 %02d, min %02d, max %02d", linesmap, off_0, min, max);
     ed6:	9304      	str	r3, [sp, #16]
     ed8:	9203      	str	r2, [sp, #12]
     eda:	9102      	str	r1, [sp, #8]
     edc:	e88d 0011 	stmia.w	sp, {r0, r4}
     ee0:	4b0e      	ldr	r3, [pc, #56]	; (f1c <hub_pwm_scale_set+0x68>)
     ee2:	4a0f      	ldr	r2, [pc, #60]	; (f20 <hub_pwm_scale_set+0x6c>)
     ee4:	490f      	ldr	r1, [pc, #60]	; (f24 <hub_pwm_scale_set+0x70>)
     ee6:	4810      	ldr	r0, [pc, #64]	; (f28 <hub_pwm_scale_set+0x74>)
    u8_t valid_off = (0 <= off_0 && off_0 <= 100) ? off_0 : PWM_PERCENT_RANGE_OFFSET_0;
     ee8:	bf28      	it	cs
     eea:	2702      	movcs	r7, #2
    SYS_LOG_INF("linesmask 0x%02X, off_0 %02d, min %02d, max %02d", linesmap, off_0, min, max);
     eec:	f002 f988 	bl	3200 <printk>
     ef0:	4b0e      	ldr	r3, [pc, #56]	; (f2c <hub_pwm_scale_set+0x78>)
    for(int index = 0; index < HUB_LINES; index++) {
     ef2:	2200      	movs	r2, #0
        if(linesmap & BIT(index)) {
     ef4:	fa24 f102 	lsr.w	r1, r4, r2
     ef8:	07c9      	lsls	r1, r1, #31
    for(int index = 0; index < HUB_LINES; index++) {
     efa:	f102 0201 	add.w	r2, r2, #1
            _hub.setting.lines[index].off_0 = valid_off;
     efe:	bf42      	ittt	mi
     f00:	f883 7159 	strbmi.w	r7, [r3, #345]	; 0x159
            _hub.setting.lines[index].min = valid_min;
     f04:	f883 515a 	strbmi.w	r5, [r3, #346]	; 0x15a
            _hub.setting.lines[index].max = valid_max;
     f08:	f883 615b 	strbmi.w	r6, [r3, #347]	; 0x15b
    for(int index = 0; index < HUB_LINES; index++) {
     f0c:	2a08      	cmp	r2, #8
     f0e:	f103 0303 	add.w	r3, r3, #3
     f12:	d1ef      	bne.n	ef4 <hub_pwm_scale_set+0x40>
}
     f14:	b007      	add	sp, #28
     f16:	bdf0      	pop	{r4, r5, r6, r7, pc}
     f18:	0002a7a7 	.word	0x0002a7a7
     f1c:	00026886 	.word	0x00026886
     f20:	00026801 	.word	0x00026801
     f24:	000267ce 	.word	0x000267ce
     f28:	00026d32 	.word	0x00026d32
     f2c:	20000000 	.word	0x20000000

00000f30 <hub_status_config_set>:
{
     f30:	e92d 41f0 	stmdb	sp!, {r4, r5, r6, r7, r8, lr}
     f34:	461d      	mov	r5, r3
     f36:	b086      	sub	sp, #24
    SYS_LOG_INF("status_en %u, warn_en %u, check_period %u, notify_period %u (s)", 
     f38:	4b14      	ldr	r3, [pc, #80]	; (f8c <hub_status_config_set+0x5c>)
    _hub.setting.status.status_en = status_en;
     f3a:	4c15      	ldr	r4, [pc, #84]	; (f90 <hub_status_config_set+0x60>)
    SYS_LOG_INF("status_en %u, warn_en %u, check_period %u, notify_period %u (s)", 
     f3c:	9305      	str	r3, [sp, #20]
{
     f3e:	4680      	mov	r8, r0
     f40:	460f      	mov	r7, r1
     f42:	4616      	mov	r6, r2
    SYS_LOG_INF("status_en %u, warn_en %u, check_period %u, notify_period %u (s)", 
     f44:	9504      	str	r5, [sp, #16]
     f46:	9203      	str	r2, [sp, #12]
     f48:	9102      	str	r1, [sp, #8]
     f4a:	e88d 0108 	stmia.w	sp, {r3, r8}
     f4e:	4a11      	ldr	r2, [pc, #68]	; (f94 <hub_status_config_set+0x64>)
     f50:	4b11      	ldr	r3, [pc, #68]	; (f98 <hub_status_config_set+0x68>)
     f52:	4912      	ldr	r1, [pc, #72]	; (f9c <hub_status_config_set+0x6c>)
     f54:	4812      	ldr	r0, [pc, #72]	; (fa0 <hub_status_config_set+0x70>)
     f56:	f002 f953 	bl	3200 <printk>
    _hub.setting.status.warn_notify_period = notify_period;
     f5a:	f8a4 5175 	strh.w	r5, [r4, #373]	; 0x175
    k_delayed_work_cancel(&_hub.warning_work);
     f5e:	f504 7596 	add.w	r5, r4, #300	; 0x12c
     f62:	4628      	mov	r0, r5
    _hub.setting.status.status_en = status_en;
     f64:	f884 8171 	strb.w	r8, [r4, #369]	; 0x171
    _hub.setting.status.warn_en   = warn_en;
     f68:	f884 7172 	strb.w	r7, [r4, #370]	; 0x172
    _hub.setting.status.warn_check_period = check_period;
     f6c:	f8a4 6173 	strh.w	r6, [r4, #371]	; 0x173
    k_delayed_work_cancel(&_hub.warning_work);
     f70:	f025 f800 	bl	25f74 <k_delayed_work_cancel>
                        K_SECONDS(_hub.setting.status.warn_check_period));
     f74:	f8b4 3173 	ldrh.w	r3, [r4, #371]	; 0x173
    k_delayed_work_submit(&_hub.warning_work,
     f78:	f44f 717a 	mov.w	r1, #1000	; 0x3e8
     f7c:	4359      	muls	r1, r3
     f7e:	4628      	mov	r0, r5
}
     f80:	b006      	add	sp, #24
     f82:	e8bd 41f0 	ldmia.w	sp!, {r4, r5, r6, r7, r8, lr}
    k_delayed_work_submit(&_hub.warning_work,
     f86:	f7ff bb93 	b.w	6b0 <k_delayed_work_submit>
     f8a:	bf00      	nop
     f8c:	0002a7a7 	.word	0x0002a7a7
     f90:	20000000 	.word	0x20000000
     f94:	00026801 	.word	0x00026801
     f98:	00026898 	.word	0x00026898
     f9c:	000267ce 	.word	0x000267ce
     fa0:	00026eb8 	.word	0x00026eb8

00000fa4 <hub_status_store_set>:
    if(store == 0)
     fa4:	b178      	cbz	r0, fc6 <hub_status_store_set+0x22>
    _hub.setting.levels.store = 1;
     fa6:	4b09      	ldr	r3, [pc, #36]	; (fcc <hub_status_store_set+0x28>)
     fa8:	2201      	movs	r2, #1
     faa:	f883 2177 	strb.w	r2, [r3, #375]	; 0x177
     fae:	f503 71bb 	add.w	r1, r3, #374	; 0x176
     fb2:	2200      	movs	r2, #0
        _hub.setting.levels.levels[index] = _hub.lines[index].level;
     fb4:	1898      	adds	r0, r3, r2
     fb6:	3214      	adds	r2, #20
     fb8:	8900      	ldrh	r0, [r0, #8]
     fba:	f821 0f02 	strh.w	r0, [r1, #2]!
    for(u8_t index = 0; index < HUB_LINES; index++)
     fbe:	2aa0      	cmp	r2, #160	; 0xa0
     fc0:	d1f8      	bne.n	fb4 <hub_status_store_set+0x10>
    return 0;
     fc2:	2000      	movs	r0, #0
     fc4:	4770      	bx	lr
        return -1;
     fc6:	f04f 30ff 	mov.w	r0, #4294967295	; 0xffffffff
}
     fca:	4770      	bx	lr
     fcc:	20000000 	.word	0x20000000

00000fd0 <hub_groups_add>:
{
     fd0:	b537      	push	{r0, r1, r2, r4, r5, lr}
    SYS_LOG_INF("");
     fd2:	4b14      	ldr	r3, [pc, #80]	; (1024 <hub_groups_add+0x54>)
     fd4:	9301      	str	r3, [sp, #4]
{
     fd6:	4604      	mov	r4, r0
    SYS_LOG_INF("");
     fd8:	9300      	str	r3, [sp, #0]
     fda:	4a13      	ldr	r2, [pc, #76]	; (1028 <hub_groups_add+0x58>)
     fdc:	4b13      	ldr	r3, [pc, #76]	; (102c <hub_groups_add+0x5c>)
     fde:	4814      	ldr	r0, [pc, #80]	; (1030 <hub_groups_add+0x60>)
{
     fe0:	460d      	mov	r5, r1
    SYS_LOG_INF("");
     fe2:	4914      	ldr	r1, [pc, #80]	; (1034 <hub_groups_add+0x64>)
     fe4:	f002 f90c 	bl	3200 <printk>
    _hub.config.linesmap_add |= linesmap;
     fe8:	4b13      	ldr	r3, [pc, #76]	; (1038 <hub_groups_add+0x68>)
     fea:	f893 21b0 	ldrb.w	r2, [r3, #432]	; 0x1b0
     fee:	4322      	orrs	r2, r4
     ff0:	f883 21b0 	strb.w	r2, [r3, #432]	; 0x1b0
    for(int index = 0; index < HUB_LINES; index++) {
     ff4:	2200      	movs	r2, #0
        if(linesmap & BIT(index)) {
     ff6:	fa24 f102 	lsr.w	r1, r4, r2
     ffa:	07c9      	lsls	r1, r1, #31
     ffc:	d50d      	bpl.n	101a <hub_groups_add+0x4a>
            _hub.config.groups_add[index] = group;
     ffe:	eb03 0342 	add.w	r3, r3, r2, lsl #1
    1002:	f8a3 51b4 	strh.w	r5, [r3, #436]	; 0x1b4
    k_delayed_work_cancel(&_hub.config_work);
    1006:	480d      	ldr	r0, [pc, #52]	; (103c <hub_groups_add+0x6c>)
    1008:	f024 ffb4 	bl	25f74 <k_delayed_work_cancel>
    k_delayed_work_submit(&_hub.config_work, CONFIG_DELAYED);
    100c:	480b      	ldr	r0, [pc, #44]	; (103c <hub_groups_add+0x6c>)
    100e:	210a      	movs	r1, #10
}
    1010:	b003      	add	sp, #12
    1012:	e8bd 4030 	ldmia.w	sp!, {r4, r5, lr}
    k_delayed_work_submit(&_hub.config_work, CONFIG_DELAYED);
    1016:	f7ff bb4b 	b.w	6b0 <k_delayed_work_submit>
    for(int index = 0; index < HUB_LINES; index++) {
    101a:	3201      	adds	r2, #1
    101c:	2a08      	cmp	r2, #8
    101e:	d1ea      	bne.n	ff6 <hub_groups_add+0x26>
    1020:	e7f1      	b.n	1006 <hub_groups_add+0x36>
    1022:	bf00      	nop
    1024:	0002a7a7 	.word	0x0002a7a7
    1028:	00026801 	.word	0x00026801
    102c:	000268ae 	.word	0x000268ae
    1030:	00026c5a 	.word	0x00026c5a
    1034:	000267ce 	.word	0x000267ce
    1038:	20000000 	.word	0x20000000
    103c:	20000188 	.word	0x20000188

00001040 <hub_groups_del>:
{
    1040:	b537      	push	{r0, r1, r2, r4, r5, lr}
    SYS_LOG_INF("");
    1042:	4b14      	ldr	r3, [pc, #80]	; (1094 <hub_groups_del+0x54>)
    1044:	9301      	str	r3, [sp, #4]
{
    1046:	4604      	mov	r4, r0
    SYS_LOG_INF("");
    1048:	9300      	str	r3, [sp, #0]
    104a:	4a13      	ldr	r2, [pc, #76]	; (1098 <hub_groups_del+0x58>)
    104c:	4b13      	ldr	r3, [pc, #76]	; (109c <hub_groups_del+0x5c>)
    104e:	4814      	ldr	r0, [pc, #80]	; (10a0 <hub_groups_del+0x60>)
{
    1050:	460d      	mov	r5, r1
    SYS_LOG_INF("");
    1052:	4914      	ldr	r1, [pc, #80]	; (10a4 <hub_groups_del+0x64>)
    1054:	f002 f8d4 	bl	3200 <printk>
    _hub.config.linesmap_del |= linesmap;
    1058:	4b13      	ldr	r3, [pc, #76]	; (10a8 <hub_groups_del+0x68>)
    105a:	f893 21b1 	ldrb.w	r2, [r3, #433]	; 0x1b1
    105e:	4322      	orrs	r2, r4
    1060:	f883 21b1 	strb.w	r2, [r3, #433]	; 0x1b1
    for(int index = 0; index < HUB_LINES; index++) {
    1064:	2200      	movs	r2, #0
        if(linesmap & BIT(index)) {
    1066:	fa24 f102 	lsr.w	r1, r4, r2
    106a:	07c9      	lsls	r1, r1, #31
    106c:	d50d      	bpl.n	108a <hub_groups_del+0x4a>
            _hub.config.groups_del[index] = group;
    106e:	eb03 0342 	add.w	r3, r3, r2, lsl #1
    1072:	f8a3 51c4 	strh.w	r5, [r3, #452]	; 0x1c4
    k_delayed_work_cancel(&_hub.config_work);
    1076:	480d      	ldr	r0, [pc, #52]	; (10ac <hub_groups_del+0x6c>)
    1078:	f024 ff7c 	bl	25f74 <k_delayed_work_cancel>
    k_delayed_work_submit(&_hub.config_work, CONFIG_DELAYED);
    107c:	480b      	ldr	r0, [pc, #44]	; (10ac <hub_groups_del+0x6c>)
    107e:	210a      	movs	r1, #10
}
    1080:	b003      	add	sp, #12
    1082:	e8bd 4030 	ldmia.w	sp!, {r4, r5, lr}
    k_delayed_work_submit(&_hub.config_work, CONFIG_DELAYED);
    1086:	f7ff bb13 	b.w	6b0 <k_delayed_work_submit>
    for(int index = 0; index < HUB_LINES; index++) {
    108a:	3201      	adds	r2, #1
    108c:	2a08      	cmp	r2, #8
    108e:	d1ea      	bne.n	1066 <hub_groups_del+0x26>
    1090:	e7f1      	b.n	1076 <hub_groups_del+0x36>
    1092:	bf00      	nop
    1094:	0002a7a7 	.word	0x0002a7a7
    1098:	00026801 	.word	0x00026801
    109c:	000268bd 	.word	0x000268bd
    10a0:	00026c5a 	.word	0x00026c5a
    10a4:	000267ce 	.word	0x000267ce
    10a8:	20000000 	.word	0x20000000
    10ac:	20000188 	.word	0x20000188

000010b0 <hub_groups_clr>:
{
    10b0:	b513      	push	{r0, r1, r4, lr}
    SYS_LOG_INF("");
    10b2:	4b0e      	ldr	r3, [pc, #56]	; (10ec <hub_groups_clr+0x3c>)
    10b4:	9301      	str	r3, [sp, #4]
    10b6:	9300      	str	r3, [sp, #0]
    10b8:	490d      	ldr	r1, [pc, #52]	; (10f0 <hub_groups_clr+0x40>)
    10ba:	4b0e      	ldr	r3, [pc, #56]	; (10f4 <hub_groups_clr+0x44>)
    10bc:	4a0e      	ldr	r2, [pc, #56]	; (10f8 <hub_groups_clr+0x48>)
{
    10be:	4604      	mov	r4, r0
    SYS_LOG_INF("");
    10c0:	480e      	ldr	r0, [pc, #56]	; (10fc <hub_groups_clr+0x4c>)
    10c2:	f002 f89d 	bl	3200 <printk>
    _hub.config.linesmap_clr |= linesmap;
    10c6:	4b0e      	ldr	r3, [pc, #56]	; (1100 <hub_groups_clr+0x50>)
    10c8:	f893 21b2 	ldrb.w	r2, [r3, #434]	; 0x1b2
    10cc:	4314      	orrs	r4, r2
    10ce:	f883 41b2 	strb.w	r4, [r3, #434]	; 0x1b2
    k_delayed_work_cancel(&_hub.config_work);
    10d2:	f503 74c4 	add.w	r4, r3, #392	; 0x188
    10d6:	4620      	mov	r0, r4
    10d8:	f024 ff4c 	bl	25f74 <k_delayed_work_cancel>
    k_delayed_work_submit(&_hub.config_work, CONFIG_DELAYED);
    10dc:	210a      	movs	r1, #10
    10de:	4620      	mov	r0, r4
}
    10e0:	b002      	add	sp, #8
    10e2:	e8bd 4010 	ldmia.w	sp!, {r4, lr}
    k_delayed_work_submit(&_hub.config_work, CONFIG_DELAYED);
    10e6:	f7ff bae3 	b.w	6b0 <k_delayed_work_submit>
    10ea:	bf00      	nop
    10ec:	0002a7a7 	.word	0x0002a7a7
    10f0:	000267ce 	.word	0x000267ce
    10f4:	000268cc 	.word	0x000268cc
    10f8:	00026801 	.word	0x00026801
    10fc:	00026c5a 	.word	0x00026c5a
    1100:	20000000 	.word	0x20000000

00001104 <hub_report_period_set>:
    _hub.report_period = period;
    1104:	4b01      	ldr	r3, [pc, #4]	; (110c <hub_report_period_set+0x8>)
    1106:	f8c3 01fc 	str.w	r0, [r3, #508]	; 0x1fc
    110a:	4770      	bx	lr
    110c:	20000000 	.word	0x20000000

00001110 <hub_report_activate>:
{
    1110:	b5f0      	push	{r4, r5, r6, r7, lr}
    1112:	b087      	sub	sp, #28
    u32_t duration = 0;
    1114:	ad06      	add	r5, sp, #24
    1116:	2300      	movs	r3, #0
    1118:	f845 3d04 	str.w	r3, [r5, #-4]!
    error = _hub_random(min_duration, max_duration, &duration);
    111c:	462a      	mov	r2, r5
{
    111e:	460f      	mov	r7, r1
    error = _hub_random(min_duration, max_duration, &duration);
    1120:	f7ff fc26 	bl	970 <_hub_random>
    if (error != 0)
    1124:	b108      	cbz	r0, 112a <hub_report_activate+0x1a>
        duration = 10;
    1126:	230a      	movs	r3, #10
    1128:	9305      	str	r3, [sp, #20]
    SYS_LOG_INF("level duration: %u", duration);
    112a:	4c1e      	ldr	r4, [pc, #120]	; (11a4 <hub_report_activate+0x94>)
    112c:	9b05      	ldr	r3, [sp, #20]
    k_delayed_work_cancel(&_hub.level_work);
    112e:	4e1e      	ldr	r6, [pc, #120]	; (11a8 <hub_report_activate+0x98>)
    SYS_LOG_INF("level duration: %u", duration);
    1130:	4a1e      	ldr	r2, [pc, #120]	; (11ac <hub_report_activate+0x9c>)
    1132:	491f      	ldr	r1, [pc, #124]	; (11b0 <hub_report_activate+0xa0>)
    1134:	9301      	str	r3, [sp, #4]
    1136:	9402      	str	r4, [sp, #8]
    1138:	4b1e      	ldr	r3, [pc, #120]	; (11b4 <hub_report_activate+0xa4>)
    113a:	9400      	str	r4, [sp, #0]
    113c:	481e      	ldr	r0, [pc, #120]	; (11b8 <hub_report_activate+0xa8>)
    113e:	f002 f85f 	bl	3200 <printk>
    k_delayed_work_cancel(&_hub.level_work);
    1142:	f106 00ac 	add.w	r0, r6, #172	; 0xac
    1146:	f024 ff15 	bl	25f74 <k_delayed_work_cancel>
    k_delayed_work_submit(&_hub.level_work, duration);
    114a:	9905      	ldr	r1, [sp, #20]
    114c:	f106 00ac 	add.w	r0, r6, #172	; 0xac
    1150:	f7ff faae 	bl	6b0 <k_delayed_work_submit>
    error = _hub_random(max_duration, max_duration, &duration);
    1154:	462a      	mov	r2, r5
    1156:	4639      	mov	r1, r7
    1158:	4638      	mov	r0, r7
    115a:	f7ff fc09 	bl	970 <_hub_random>
    if (_hub.setting.status.status_en == 0) {
    115e:	f896 2171 	ldrb.w	r2, [r6, #369]	; 0x171
    1162:	4623      	mov	r3, r4
    1164:	b94a      	cbnz	r2, 117a <hub_report_activate+0x6a>
        SYS_LOG_INF("status en = 0");
    1166:	9401      	str	r4, [sp, #4]
    1168:	9400      	str	r4, [sp, #0]
    116a:	4b12      	ldr	r3, [pc, #72]	; (11b4 <hub_report_activate+0xa4>)
    116c:	4a0f      	ldr	r2, [pc, #60]	; (11ac <hub_report_activate+0x9c>)
    116e:	4910      	ldr	r1, [pc, #64]	; (11b0 <hub_report_activate+0xa0>)
    1170:	4812      	ldr	r0, [pc, #72]	; (11bc <hub_report_activate+0xac>)
    1172:	f002 f845 	bl	3200 <printk>
}
    1176:	b007      	add	sp, #28
    1178:	bdf0      	pop	{r4, r5, r6, r7, pc}
    if (error != 0)
    117a:	b108      	cbz	r0, 1180 <hub_report_activate+0x70>
        duration = 10;
    117c:	220a      	movs	r2, #10
    117e:	9205      	str	r2, [sp, #20]
    SYS_LOG_INF("status duration: %u", duration);
    1180:	9a05      	ldr	r2, [sp, #20]
    1182:	9302      	str	r3, [sp, #8]
    1184:	9201      	str	r2, [sp, #4]
    1186:	9300      	str	r3, [sp, #0]
    1188:	4a08      	ldr	r2, [pc, #32]	; (11ac <hub_report_activate+0x9c>)
    118a:	4b0a      	ldr	r3, [pc, #40]	; (11b4 <hub_report_activate+0xa4>)
    118c:	4908      	ldr	r1, [pc, #32]	; (11b0 <hub_report_activate+0xa0>)
    118e:	480c      	ldr	r0, [pc, #48]	; (11c0 <hub_report_activate+0xb0>)
    1190:	f002 f836 	bl	3200 <printk>
    k_delayed_work_cancel(&_hub.status_work);
    1194:	480b      	ldr	r0, [pc, #44]	; (11c4 <hub_report_activate+0xb4>)
    1196:	f024 feed 	bl	25f74 <k_delayed_work_cancel>
    k_delayed_work_submit(&_hub.status_work, duration);
    119a:	9905      	ldr	r1, [sp, #20]
    119c:	4809      	ldr	r0, [pc, #36]	; (11c4 <hub_report_activate+0xb4>)
    119e:	f7ff fa87 	bl	6b0 <k_delayed_work_submit>
    11a2:	e7e8      	b.n	1176 <hub_report_activate+0x66>
    11a4:	0002a7a7 	.word	0x0002a7a7
    11a8:	20000000 	.word	0x20000000
    11ac:	00026801 	.word	0x00026801
    11b0:	000267ce 	.word	0x000267ce
    11b4:	000268db 	.word	0x000268db
    11b8:	00026d73 	.word	0x00026d73
    11bc:	00026d96 	.word	0x00026d96
    11c0:	00026db4 	.word	0x00026db4
    11c4:	200000d8 	.word	0x200000d8

000011c8 <hub_level_set>:
{
    11c8:	e92d 4ff0 	stmdb	sp!, {r4, r5, r6, r7, r8, r9, sl, fp, lr}
    if (_hub.hardrwaring == true) {
    11cc:	4b21      	ldr	r3, [pc, #132]	; (1254 <hub_level_set+0x8c>)
    11ce:	f893 2154 	ldrb.w	r2, [r3, #340]	; 0x154
{
    11d2:	b087      	sub	sp, #28
    11d4:	4606      	mov	r6, r0
    11d6:	4689      	mov	r9, r1
    if (_hub.hardrwaring == true) {
    11d8:	b13a      	cbz	r2, 11ea <hub_level_set+0x22>
        _hub.hardrwaring = false;
    11da:	2200      	movs	r2, #0
    11dc:	f883 2154 	strb.w	r2, [r3, #340]	; 0x154
        gpio_pin_write(_gpio, SW_ENABLE_PIN, 0);
    11e0:	4b1d      	ldr	r3, [pc, #116]	; (1258 <hub_level_set+0x90>)
    11e2:	2107      	movs	r1, #7
    11e4:	6818      	ldr	r0, [r3, #0]
    11e6:	f7ff fbb9 	bl	95c <gpio_pin_write>
    11ea:	4c1a      	ldr	r4, [pc, #104]	; (1254 <hub_level_set+0x8c>)
        SYS_LOG_INF("line: %d, pin %d, level: %u, pulse: %u", index, line->pwm_pin, level, pulse);
    11ec:	f8df 8074 	ldr.w	r8, [pc, #116]	; 1264 <hub_level_set+0x9c>
    11f0:	f8df b074 	ldr.w	fp, [pc, #116]	; 1268 <hub_level_set+0xa0>
    11f4:	f8df a074 	ldr.w	sl, [pc, #116]	; 126c <hub_level_set+0xa4>
{
    11f8:	2500      	movs	r5, #0
        u32_t pulse = _level_to_pulse(line->index, level, PWM_POLACITY);
    11fa:	7e60      	ldrb	r0, [r4, #25]
        line->level = level;
    11fc:	8126      	strh	r6, [r4, #8]
        u32_t pulse = _level_to_pulse(line->index, level, PWM_POLACITY);
    11fe:	4631      	mov	r1, r6
    1200:	f7ff fb44 	bl	88c <_level_to_pulse.constprop.2>
        SYS_LOG_INF("line: %d, pin %d, level: %u, pulse: %u", index, line->pwm_pin, level, pulse);
    1204:	6923      	ldr	r3, [r4, #16]
    1206:	9004      	str	r0, [sp, #16]
        u32_t pulse = _level_to_pulse(line->index, level, PWM_POLACITY);
    1208:	4607      	mov	r7, r0
        SYS_LOG_INF("line: %d, pin %d, level: %u, pulse: %u", index, line->pwm_pin, level, pulse);
    120a:	9302      	str	r3, [sp, #8]
    120c:	9501      	str	r5, [sp, #4]
    120e:	465b      	mov	r3, fp
    1210:	4652      	mov	r2, sl
    1212:	4912      	ldr	r1, [pc, #72]	; (125c <hub_level_set+0x94>)
    1214:	f8cd 8014 	str.w	r8, [sp, #20]
    1218:	9603      	str	r6, [sp, #12]
    121a:	f8cd 8000 	str.w	r8, [sp]
    121e:	4810      	ldr	r0, [pc, #64]	; (1260 <hub_level_set+0x98>)
    1220:	f001 ffee 	bl	3200 <printk>
    for(int index = 0; index < HUB_LINES; index++) {
    1224:	3501      	adds	r5, #1
        pwm_pin_set_usec(line->pwm, line->pwm_pin, PWM_PERIOD, pulse);
    1226:	6921      	ldr	r1, [r4, #16]
    1228:	68e0      	ldr	r0, [r4, #12]
    122a:	463a      	mov	r2, r7
    122c:	f7ff fb56 	bl	8dc <pwm_pin_set_usec.constprop.3>
    for(int index = 0; index < HUB_LINES; index++) {
    1230:	2d08      	cmp	r5, #8
    1232:	f104 0414 	add.w	r4, r4, #20
    1236:	d1e0      	bne.n	11fa <hub_level_set+0x32>
    if (ack) {
    1238:	f1b9 0f00 	cmp.w	r9, #0
    123c:	d007      	beq.n	124e <hub_level_set+0x86>
        hub_report_activate(10, K_SECONDS(STATUS_TIMEOUT_DEFAULT));
    123e:	f640 31b8 	movw	r1, #3000	; 0xbb8
    1242:	200a      	movs	r0, #10
}
    1244:	b007      	add	sp, #28
    1246:	e8bd 4ff0 	ldmia.w	sp!, {r4, r5, r6, r7, r8, r9, sl, fp, lr}
        hub_report_activate(10, K_SECONDS(STATUS_TIMEOUT_DEFAULT));
    124a:	f7ff bf61 	b.w	1110 <hub_report_activate>
}
    124e:	b007      	add	sp, #28
    1250:	e8bd 8ff0 	ldmia.w	sp!, {r4, r5, r6, r7, r8, r9, sl, fp, pc}
    1254:	20000000 	.word	0x20000000
    1258:	20003d5c 	.word	0x20003d5c
    125c:	000267ce 	.word	0x000267ce
    1260:	00026c6b 	.word	0x00026c6b
    1264:	0002a7a7 	.word	0x0002a7a7
    1268:	00026868 	.word	0x00026868
    126c:	00026801 	.word	0x00026801

00001270 <hub_line_init>:
{
    1270:	b530      	push	{r4, r5, lr}
    1272:	b087      	sub	sp, #28
    struct adc_channel_cfg cfg = {
    1274:	2300      	movs	r3, #0
    1276:	9304      	str	r3, [sp, #16]
    struct _hub_line *line = _hub.lines + index;
    1278:	4926      	ldr	r1, [pc, #152]	; (1314 <hub_line_init+0xa4>)
    struct adc_channel_cfg cfg = {
    127a:	9305      	str	r3, [sp, #20]
    struct _hub_line *line = _hub.lines + index;
    127c:	eb00 0280 	add.w	r2, r0, r0, lsl #2
    struct adc_channel_cfg cfg = {
    1280:	2301      	movs	r3, #1
    struct _hub_line *line = _hub.lines + index;
    1282:	0092      	lsls	r2, r2, #2
    struct adc_channel_cfg cfg = {
    1284:	f88d 3010 	strb.w	r3, [sp, #16]
    1288:	2304      	movs	r3, #4
    struct _hub_line *line = _hub.lines + index;
    128a:	188c      	adds	r4, r1, r2
    struct adc_channel_cfg cfg = {
    128c:	f88d 3011 	strb.w	r3, [sp, #17]
    switch (line) {
    1290:	2807      	cmp	r0, #7
    1292:	d83a      	bhi.n	130a <hub_line_init+0x9a>
    1294:	e8df f000 	tbb	[pc, r0]
    1298:	04040404 	.word	0x04040404
    129c:	04040404 	.word	0x04040404
        return _soft_pwm;
    12a0:	4b1d      	ldr	r3, [pc, #116]	; (1318 <hub_line_init+0xa8>)
    12a2:	681b      	ldr	r3, [r3, #0]
    line->pwm = _pwm(index);
    12a4:	6063      	str	r3, [r4, #4]
    12a6:	2807      	cmp	r0, #7
    12a8:	bf96      	itet	ls
    12aa:	4b1c      	ldrls	r3, [pc, #112]	; (131c <hub_line_init+0xac>)
    12ac:	f04f 33ff 	movhi.w	r3, #4294967295	; 0xffffffff
    12b0:	5c1b      	ldrbls	r3, [r3, r0]
    line->status_pin = _adc_pin(index);
    12b2:	60e3      	str	r3, [r4, #12]
    12b4:	2807      	cmp	r0, #7
    12b6:	bf96      	itet	ls
    12b8:	4d19      	ldrls	r5, [pc, #100]	; (1320 <hub_line_init+0xb0>)
    12ba:	f04f 30ff 	movhi.w	r0, #4294967295	; 0xffffffff
    12be:	5c28      	ldrbls	r0, [r5, r0]
    line->pwm_pin = _pwm_pin(index);
    12c0:	60a0      	str	r0, [r4, #8]
    line->level = PWM_LEVEL_MAX;
    12c2:	f64f 70ff 	movw	r0, #65535	; 0xffff
    12c6:	5288      	strh	r0, [r1, r2]
    cfg.channel_id = ADC_CHANNEL_BASE + line->status_pin;
    12c8:	f89d 2014 	ldrb.w	r2, [sp, #20]
    12cc:	b2db      	uxtb	r3, r3
    12ce:	f363 0204 	bfi	r2, r3, #0, #5
    cfg.input_positive = ADC_PSEL_BASE + line->status_pin;
    12d2:	3301      	adds	r3, #1
    12d4:	f88d 3015 	strb.w	r3, [sp, #21]
    error = adc_channel_setup(_adc, &cfg);
    12d8:	4b12      	ldr	r3, [pc, #72]	; (1324 <hub_line_init+0xb4>)
    cfg.channel_id = ADC_CHANNEL_BASE + line->status_pin;
    12da:	f88d 2014 	strb.w	r2, [sp, #20]
    error = adc_channel_setup(_adc, &cfg);
    12de:	6818      	ldr	r0, [r3, #0]
	return api->channel_setup(dev, channel_cfg);
    12e0:	6843      	ldr	r3, [r0, #4]
    12e2:	a904      	add	r1, sp, #16
    12e4:	681b      	ldr	r3, [r3, #0]
    12e6:	4798      	blx	r3
    if (error != 0) {
    12e8:	b188      	cbz	r0, 130e <hub_line_init+0x9e>
        SYS_LOG_ERR("setup adc pin: %u, failed with error: %d",
    12ea:	4b0f      	ldr	r3, [pc, #60]	; (1328 <hub_line_init+0xb8>)
    12ec:	9303      	str	r3, [sp, #12]
    12ee:	9002      	str	r0, [sp, #8]
    12f0:	68e2      	ldr	r2, [r4, #12]
    12f2:	9201      	str	r2, [sp, #4]
    12f4:	9300      	str	r3, [sp, #0]
    12f6:	4a0d      	ldr	r2, [pc, #52]	; (132c <hub_line_init+0xbc>)
    12f8:	4b0d      	ldr	r3, [pc, #52]	; (1330 <hub_line_init+0xc0>)
    12fa:	490e      	ldr	r1, [pc, #56]	; (1334 <hub_line_init+0xc4>)
    12fc:	480e      	ldr	r0, [pc, #56]	; (1338 <hub_line_init+0xc8>)
    12fe:	f001 ff7f 	bl	3200 <printk>
        return NULL;
    1302:	2400      	movs	r4, #0
}
    1304:	4620      	mov	r0, r4
    1306:	b007      	add	sp, #28
    1308:	bd30      	pop	{r4, r5, pc}
        return NULL;
    130a:	2300      	movs	r3, #0
    130c:	e7ca      	b.n	12a4 <hub_line_init+0x34>
    line->enabled = false;
    130e:	7420      	strb	r0, [r4, #16]
    return line;
    1310:	e7f8      	b.n	1304 <hub_line_init+0x94>
    1312:	bf00      	nop
    1314:	20000008 	.word	0x20000008
    1318:	20003d68 	.word	0x20003d68
    131c:	00026857 	.word	0x00026857
    1320:	0002684f 	.word	0x0002684f
    1324:	20003d64 	.word	0x20003d64
    1328:	0002a7a7 	.word	0x0002a7a7
    132c:	000267c7 	.word	0x000267c7
    1330:	000268ef 	.word	0x000268ef
    1334:	000267ce 	.word	0x000267ce
    1338:	00026ca2 	.word	0x00026ca2

0000133c <hub_line_level_set>:
{
    133c:	e92d 43f0 	stmdb	sp!, {r4, r5, r6, r7, r8, r9, lr}
    if (line->enabled != true) {
    1340:	7c03      	ldrb	r3, [r0, #16]
    1342:	4d1e      	ldr	r5, [pc, #120]	; (13bc <hub_line_level_set+0x80>)
{
    1344:	b087      	sub	sp, #28
    1346:	4604      	mov	r4, r0
    1348:	460e      	mov	r6, r1
    134a:	4691      	mov	r9, r2
    if (line->enabled != true) {
    134c:	b953      	cbnz	r3, 1364 <hub_line_level_set+0x28>
        SYS_LOG_DBG("Line has not enabled yet");
    134e:	9501      	str	r5, [sp, #4]
    1350:	9500      	str	r5, [sp, #0]
    1352:	4b1b      	ldr	r3, [pc, #108]	; (13c0 <hub_line_level_set+0x84>)
    1354:	4a1b      	ldr	r2, [pc, #108]	; (13c4 <hub_line_level_set+0x88>)
    1356:	491c      	ldr	r1, [pc, #112]	; (13c8 <hub_line_level_set+0x8c>)
    1358:	481c      	ldr	r0, [pc, #112]	; (13cc <hub_line_level_set+0x90>)
    135a:	f001 ff51 	bl	3200 <printk>
}
    135e:	b007      	add	sp, #28
    1360:	e8bd 83f0 	ldmia.w	sp!, {r4, r5, r6, r7, r8, r9, pc}
    if (_hub.hardrwaring == true) {
    1364:	4b1a      	ldr	r3, [pc, #104]	; (13d0 <hub_line_level_set+0x94>)
    1366:	f893 3154 	ldrb.w	r3, [r3, #340]	; 0x154
    136a:	b123      	cbz	r3, 1376 <hub_line_level_set+0x3a>
        hub_level_set(PWM_LEVEL_MAX, false);
    136c:	2100      	movs	r1, #0
    136e:	f64f 70ff 	movw	r0, #65535	; 0xffff
    1372:	f7ff ff29 	bl	11c8 <hub_level_set>
    u32_t pulse = _level_to_pulse(line->index, level, PWM_POLACITY);
    1376:	f894 8011 	ldrb.w	r8, [r4, #17]
    line->level = level;
    137a:	8026      	strh	r6, [r4, #0]
    u32_t pulse = _level_to_pulse(line->index, level, PWM_POLACITY);
    137c:	4631      	mov	r1, r6
    137e:	4640      	mov	r0, r8
    1380:	f7ff fa84 	bl	88c <_level_to_pulse.constprop.2>
    SYS_LOG_INF("line %u, level: %u, pulse: %u", line->index, level, pulse);
    1384:	4a13      	ldr	r2, [pc, #76]	; (13d4 <hub_line_level_set+0x98>)
    1386:	9003      	str	r0, [sp, #12]
    u32_t pulse = _level_to_pulse(line->index, level, PWM_POLACITY);
    1388:	4607      	mov	r7, r0
    SYS_LOG_INF("line %u, level: %u, pulse: %u", line->index, level, pulse);
    138a:	490f      	ldr	r1, [pc, #60]	; (13c8 <hub_line_level_set+0x8c>)
    138c:	9504      	str	r5, [sp, #16]
    138e:	9602      	str	r6, [sp, #8]
    1390:	e88d 0120 	stmia.w	sp, {r5, r8}
    1394:	4b0a      	ldr	r3, [pc, #40]	; (13c0 <hub_line_level_set+0x84>)
    1396:	4810      	ldr	r0, [pc, #64]	; (13d8 <hub_line_level_set+0x9c>)
    1398:	f001 ff32 	bl	3200 <printk>
    pwm_pin_set_usec(line->pwm, line->pwm_pin, PWM_PERIOD, pulse);
    139c:	463a      	mov	r2, r7
    139e:	68a1      	ldr	r1, [r4, #8]
    13a0:	6860      	ldr	r0, [r4, #4]
    13a2:	f7ff fa9b 	bl	8dc <pwm_pin_set_usec.constprop.3>
    if (ack) {
    13a6:	f1b9 0f00 	cmp.w	r9, #0
    13aa:	d0d8      	beq.n	135e <hub_line_level_set+0x22>
        hub_report_activate(10, K_SECONDS(STATUS_TIMEOUT_DEFAULT));
    13ac:	f640 31b8 	movw	r1, #3000	; 0xbb8
    13b0:	200a      	movs	r0, #10
}
    13b2:	b007      	add	sp, #28
    13b4:	e8bd 43f0 	ldmia.w	sp!, {r4, r5, r6, r7, r8, r9, lr}
        hub_report_activate(10, K_SECONDS(STATUS_TIMEOUT_DEFAULT));
    13b8:	f7ff beaa 	b.w	1110 <hub_report_activate>
    13bc:	0002a7a7 	.word	0x0002a7a7
    13c0:	000268fd 	.word	0x000268fd
    13c4:	00026c53 	.word	0x00026c53
    13c8:	000267ce 	.word	0x000267ce
    13cc:	00026cdb 	.word	0x00026cdb
    13d0:	20000000 	.word	0x20000000
    13d4:	00026801 	.word	0x00026801
    13d8:	00026d04 	.word	0x00026d04

000013dc <_level_restore_work>:
{
    13dc:	b573      	push	{r0, r1, r4, r5, r6, lr}
    if (_hub.setting.levels.store == 0) {
    13de:	4d14      	ldr	r5, [pc, #80]	; (1430 <_level_restore_work+0x54>)
    13e0:	4b14      	ldr	r3, [pc, #80]	; (1434 <_level_restore_work+0x58>)
    13e2:	f895 2177 	ldrb.w	r2, [r5, #375]	; 0x177
        SYS_LOG_INF("nothing todo");
    13e6:	9301      	str	r3, [sp, #4]
    13e8:	9300      	str	r3, [sp, #0]
    13ea:	4b13      	ldr	r3, [pc, #76]	; (1438 <_level_restore_work+0x5c>)
    if (_hub.setting.levels.store == 0) {
    13ec:	b932      	cbnz	r2, 13fc <_level_restore_work+0x20>
        SYS_LOG_INF("nothing todo");
    13ee:	4a13      	ldr	r2, [pc, #76]	; (143c <_level_restore_work+0x60>)
    13f0:	4913      	ldr	r1, [pc, #76]	; (1440 <_level_restore_work+0x64>)
    13f2:	4814      	ldr	r0, [pc, #80]	; (1444 <_level_restore_work+0x68>)
    13f4:	f001 ff04 	bl	3200 <printk>
}
    13f8:	b002      	add	sp, #8
    13fa:	bd70      	pop	{r4, r5, r6, pc}
    SYS_LOG_INF("restoring levels ...");
    13fc:	4a0f      	ldr	r2, [pc, #60]	; (143c <_level_restore_work+0x60>)
    13fe:	4910      	ldr	r1, [pc, #64]	; (1440 <_level_restore_work+0x64>)
    1400:	4811      	ldr	r0, [pc, #68]	; (1448 <_level_restore_work+0x6c>)
    _hub.setting.levels.store = 0;
    1402:	2400      	movs	r4, #0
    SYS_LOG_INF("restoring levels ...");
    1404:	f001 fefc 	bl	3200 <printk>
        hub_line_level_set(&_hub.lines[index], _hub.setting.levels.levels[index], false);
    1408:	260a      	movs	r6, #10
    _hub.setting.levels.store = 0;
    140a:	f885 4177 	strb.w	r4, [r5, #375]	; 0x177
        hub_line_level_set(&_hub.lines[index], _hub.setting.levels.levels[index], false);
    140e:	192b      	adds	r3, r5, r4
    1410:	fb06 5004 	mla	r0, r6, r4, r5
    1414:	2200      	movs	r2, #0
    1416:	f8b3 1178 	ldrh.w	r1, [r3, #376]	; 0x178
    141a:	3008      	adds	r0, #8
    141c:	3402      	adds	r4, #2
    141e:	f7ff ff8d 	bl	133c <hub_line_level_set>
    for (int index = 0; index < HUB_LINES; ++index) {
    1422:	2c10      	cmp	r4, #16
    1424:	d1f3      	bne.n	140e <_level_restore_work+0x32>
}
    1426:	b002      	add	sp, #8
    1428:	e8bd 4070 	ldmia.w	sp!, {r4, r5, r6, lr}
    mesh_hub_setting_store();
    142c:	f001 b9b8 	b.w	27a0 <mesh_hub_setting_store>
    1430:	20000000 	.word	0x20000000
    1434:	0002a7a7 	.word	0x0002a7a7
    1438:	00026947 	.word	0x00026947
    143c:	00026801 	.word	0x00026801
    1440:	000267ce 	.word	0x000267ce
    1444:	00026a14 	.word	0x00026a14
    1448:	00026a31 	.word	0x00026a31

0000144c <hub_line_level_get>:
    hub_report_activate(10, K_SECONDS(timeout));
    144c:	f44f 737a 	mov.w	r3, #1000	; 0x3e8
    1450:	4359      	muls	r1, r3
    1452:	200a      	movs	r0, #10
    1454:	f7ff be5c 	b.w	1110 <hub_report_activate>

00001458 <hub_setting_get>:
    *data = (u8_t*)(&_hub.setting);
    1458:	4b02      	ldr	r3, [pc, #8]	; (1464 <hub_setting_get+0xc>)
    145a:	6003      	str	r3, [r0, #0]
    *len  =  sizeof(_hub.setting);
    145c:	2333      	movs	r3, #51	; 0x33
    145e:	800b      	strh	r3, [r1, #0]
    1460:	4770      	bx	lr
    1462:	bf00      	nop
    1464:	20000155 	.word	0x20000155

00001468 <hub_setting_set>:
{
    1468:	e92d 41f0 	stmdb	sp!, {r4, r5, r6, r7, r8, lr}
    if(len >= sizeof(_hub.setting)) {
    146c:	2932      	cmp	r1, #50	; 0x32
{
    146e:	b086      	sub	sp, #24
    1470:	4607      	mov	r7, r0
    1472:	4688      	mov	r8, r1
    if(len >= sizeof(_hub.setting)) {
    1474:	d92c      	bls.n	14d0 <hub_setting_set+0x68>
        SYS_LOG_INF("match  _hub.setting len %u", len);
    1476:	4d46      	ldr	r5, [pc, #280]	; (1590 <hub_setting_set+0x128>)
        memcpy(&_hub.setting, data, len);
    1478:	4c46      	ldr	r4, [pc, #280]	; (1594 <hub_setting_set+0x12c>)
        SYS_LOG_INF("match  _hub.setting len %u", len);
    147a:	4b47      	ldr	r3, [pc, #284]	; (1598 <hub_setting_set+0x130>)
    147c:	4a47      	ldr	r2, [pc, #284]	; (159c <hub_setting_set+0x134>)
    147e:	4948      	ldr	r1, [pc, #288]	; (15a0 <hub_setting_set+0x138>)
    1480:	9502      	str	r5, [sp, #8]
    1482:	e88d 0120 	stmia.w	sp, {r5, r8}
    1486:	4847      	ldr	r0, [pc, #284]	; (15a4 <hub_setting_set+0x13c>)
    1488:	f001 feba 	bl	3200 <printk>
        memcpy(&_hub.setting, data, len);
    148c:	4642      	mov	r2, r8
    148e:	4639      	mov	r1, r7
    1490:	f204 1055 	addw	r0, r4, #341	; 0x155
    1494:	f005 fad7 	bl	6a46 <memcpy>
        hub_enables_set(_hub.setting.enableds);
    1498:	f8d4 0155 	ldr.w	r0, [r4, #341]	; 0x155
    149c:	f7ff fcde 	bl	e5c <hub_enables_set>
        SYS_LOG_INF("status config: status_en %u, warn_en %u, check_period %u, notify_period %u",
    14a0:	f8b4 3175 	ldrh.w	r3, [r4, #373]	; 0x175
    14a4:	9304      	str	r3, [sp, #16]
    14a6:	f8b4 3173 	ldrh.w	r3, [r4, #371]	; 0x173
    14aa:	9303      	str	r3, [sp, #12]
    14ac:	f894 3172 	ldrb.w	r3, [r4, #370]	; 0x172
    14b0:	9302      	str	r3, [sp, #8]
    14b2:	f894 3171 	ldrb.w	r3, [r4, #369]	; 0x171
    14b6:	9301      	str	r3, [sp, #4]
    14b8:	9505      	str	r5, [sp, #20]
    14ba:	9500      	str	r5, [sp, #0]
    14bc:	4b36      	ldr	r3, [pc, #216]	; (1598 <hub_setting_set+0x130>)
    14be:	4a37      	ldr	r2, [pc, #220]	; (159c <hub_setting_set+0x134>)
    14c0:	4937      	ldr	r1, [pc, #220]	; (15a0 <hub_setting_set+0x138>)
    14c2:	4839      	ldr	r0, [pc, #228]	; (15a8 <hub_setting_set+0x140>)
    14c4:	f001 fe9c 	bl	3200 <printk>
        return 0;
    14c8:	2000      	movs	r0, #0
}
    14ca:	b006      	add	sp, #24
    14cc:	e8bd 81f0 	ldmia.w	sp!, {r4, r5, r6, r7, r8, pc}
    if (remain_len >= sizeof(_hub.setting.enableds)) {
    14d0:	2903      	cmp	r1, #3
    14d2:	d959      	bls.n	1588 <hub_setting_set+0x120>
        memcpy(&_hub.setting.enableds, data, sizeof(_hub.setting.enableds));
    14d4:	4c2f      	ldr	r4, [pc, #188]	; (1594 <hub_setting_set+0x12c>)
        SYS_LOG_INF("enableds 0x%08x", _hub.setting.enableds);
    14d6:	4e2e      	ldr	r6, [pc, #184]	; (1590 <hub_setting_set+0x128>)
        memcpy(&_hub.setting.enableds, data, sizeof(_hub.setting.enableds));
    14d8:	4601      	mov	r1, r0
    14da:	2204      	movs	r2, #4
    14dc:	f204 1055 	addw	r0, r4, #341	; 0x155
    14e0:	f005 fab1 	bl	6a46 <memcpy>
        hub_enables_set(_hub.setting.enableds);
    14e4:	f8d4 0155 	ldr.w	r0, [r4, #341]	; 0x155
    14e8:	f7ff fcb8 	bl	e5c <hub_enables_set>
        SYS_LOG_INF("enableds 0x%08x", _hub.setting.enableds);
    14ec:	f8d4 3155 	ldr.w	r3, [r4, #341]	; 0x155
    14f0:	9301      	str	r3, [sp, #4]
    14f2:	4a2a      	ldr	r2, [pc, #168]	; (159c <hub_setting_set+0x134>)
    14f4:	9602      	str	r6, [sp, #8]
    14f6:	9600      	str	r6, [sp, #0]
    14f8:	4b27      	ldr	r3, [pc, #156]	; (1598 <hub_setting_set+0x130>)
    14fa:	4929      	ldr	r1, [pc, #164]	; (15a0 <hub_setting_set+0x138>)
    14fc:	482b      	ldr	r0, [pc, #172]	; (15ac <hub_setting_set+0x144>)
    14fe:	f001 fe7f 	bl	3200 <printk>
        remain_len -= sizeof(_hub.setting.enableds);
    1502:	f1a8 0204 	sub.w	r2, r8, #4
    1506:	b295      	uxth	r5, r2
    if (remain_len >= sizeof(_hub.setting.lines)) {
    1508:	2d17      	cmp	r5, #23
    150a:	d910      	bls.n	152e <hub_setting_set+0xc6>
        memcpy(_hub.setting.lines, data + sizeof(_hub.setting.enableds), 
    150c:	2218      	movs	r2, #24
    150e:	1d39      	adds	r1, r7, #4
    1510:	f204 1059 	addw	r0, r4, #345	; 0x159
    1514:	f005 fa97 	bl	6a46 <memcpy>
        remain_len -= sizeof(_hub.setting.lines);
    1518:	f1a8 021c 	sub.w	r2, r8, #28
    151c:	b295      	uxth	r5, r2
        SYS_LOG_INF("lines dim config");
    151e:	9601      	str	r6, [sp, #4]
    1520:	9600      	str	r6, [sp, #0]
    1522:	4b1d      	ldr	r3, [pc, #116]	; (1598 <hub_setting_set+0x130>)
    1524:	4a1d      	ldr	r2, [pc, #116]	; (159c <hub_setting_set+0x134>)
    1526:	491e      	ldr	r1, [pc, #120]	; (15a0 <hub_setting_set+0x138>)
    1528:	4821      	ldr	r0, [pc, #132]	; (15b0 <hub_setting_set+0x148>)
    152a:	f001 fe69 	bl	3200 <printk>
    if (remain_len >= sizeof(_hub.setting.status)) {
    152e:	2d05      	cmp	r5, #5
    1530:	d92a      	bls.n	1588 <hub_setting_set+0x120>
        memcpy(&_hub.setting.status, data + sizeof(_hub.setting.enableds) + 
    1532:	2206      	movs	r2, #6
    1534:	f107 011c 	add.w	r1, r7, #28
    1538:	481e      	ldr	r0, [pc, #120]	; (15b4 <hub_setting_set+0x14c>)
    153a:	f005 fa84 	bl	6a46 <memcpy>
        SYS_LOG_INF("status config: status_en %u, warn_en %u, check_period %u, notify_period %u",
    153e:	f8b4 3175 	ldrh.w	r3, [r4, #373]	; 0x175
    1542:	9304      	str	r3, [sp, #16]
    1544:	f8b4 3173 	ldrh.w	r3, [r4, #371]	; 0x173
    1548:	9303      	str	r3, [sp, #12]
    154a:	f894 3172 	ldrb.w	r3, [r4, #370]	; 0x172
    154e:	9302      	str	r3, [sp, #8]
    1550:	f894 3171 	ldrb.w	r3, [r4, #369]	; 0x171
    1554:	9301      	str	r3, [sp, #4]
    1556:	4a11      	ldr	r2, [pc, #68]	; (159c <hub_setting_set+0x134>)
    1558:	4b0f      	ldr	r3, [pc, #60]	; (1598 <hub_setting_set+0x130>)
    155a:	4911      	ldr	r1, [pc, #68]	; (15a0 <hub_setting_set+0x138>)
    155c:	9605      	str	r6, [sp, #20]
    155e:	9600      	str	r6, [sp, #0]
    1560:	4811      	ldr	r0, [pc, #68]	; (15a8 <hub_setting_set+0x140>)
    1562:	f001 fe4d 	bl	3200 <printk>
        memcpy(&_hub.setting.levels, data + sizeof(_hub.setting.enableds) + 
    1566:	2211      	movs	r2, #17
    1568:	f107 0122 	add.w	r1, r7, #34	; 0x22
    156c:	4812      	ldr	r0, [pc, #72]	; (15b8 <hub_setting_set+0x150>)
    156e:	f005 fa6a 	bl	6a46 <memcpy>
        SYS_LOG_INF("store %u", _hub.setting.levels.store);
    1572:	f894 3177 	ldrb.w	r3, [r4, #375]	; 0x177
    1576:	9301      	str	r3, [sp, #4]
    1578:	9602      	str	r6, [sp, #8]
    157a:	9600      	str	r6, [sp, #0]
    157c:	4b06      	ldr	r3, [pc, #24]	; (1598 <hub_setting_set+0x130>)
    157e:	4a07      	ldr	r2, [pc, #28]	; (159c <hub_setting_set+0x134>)
    1580:	4907      	ldr	r1, [pc, #28]	; (15a0 <hub_setting_set+0x138>)
    1582:	480e      	ldr	r0, [pc, #56]	; (15bc <hub_setting_set+0x154>)
    1584:	f001 fe3c 	bl	3200 <printk>
    return -1;
    1588:	f04f 30ff 	mov.w	r0, #4294967295	; 0xffffffff
    158c:	e79d      	b.n	14ca <hub_setting_set+0x62>
    158e:	bf00      	nop
    1590:	0002a7a7 	.word	0x0002a7a7
    1594:	20000000 	.word	0x20000000
    1598:	00026910 	.word	0x00026910
    159c:	00026801 	.word	0x00026801
    15a0:	000267ce 	.word	0x000267ce
    15a4:	00026dd8 	.word	0x00026dd8
    15a8:	00026e03 	.word	0x00026e03
    15ac:	00026e5e 	.word	0x00026e5e
    15b0:	00026e7e 	.word	0x00026e7e
    15b4:	20000171 	.word	0x20000171
    15b8:	20000177 	.word	0x20000177
    15bc:	00026e9f 	.word	0x00026e9f

000015c0 <hub_release>:
    k_delayed_work_cancel(&_hub.warning_work);
    15c0:	4801      	ldr	r0, [pc, #4]	; (15c8 <hub_release+0x8>)
    15c2:	f024 bcd7 	b.w	25f74 <k_delayed_work_cancel>
    15c6:	bf00      	nop
    15c8:	2000012c 	.word	0x2000012c

000015cc <flash_uicr_init>:
}

static int flash_uicr_init(struct device* dev)
{

	u32_t w = * ((u32_t*)(FLASH_UNICAST_ADDR));
    15cc:	f44f 23e0 	mov.w	r3, #458752	; 0x70000

	if(!BT_MESH_ADDR_IS_UNICAST(flash_unicast))
		flash_unicast = MESH_DEPLOY_UNICAST;

	return 0;
}
    15d0:	2000      	movs	r0, #0
	u32_t w = * ((u32_t*)(FLASH_UNICAST_ADDR));
    15d2:	681a      	ldr	r2, [r3, #0]
	if(!BT_MESH_ADDR_IS_UNICAST(flash_unicast))
    15d4:	b213      	sxth	r3, r2
    15d6:	2b00      	cmp	r3, #0
    15d8:	4b02      	ldr	r3, [pc, #8]	; (15e4 <flash_uicr_init+0x18>)
		flash_unicast = MESH_DEPLOY_UNICAST;
    15da:	bfd8      	it	le
    15dc:	2201      	movle	r2, #1
    15de:	801a      	strh	r2, [r3, #0]
}
    15e0:	4770      	bx	lr
    15e2:	bf00      	nop
    15e4:	200002e6 	.word	0x200002e6

000015e8 <_configure_3rd>:

    SYS_LOG_INF("done");
}

static void _configure_3rd(struct k_work *work)
{
    15e8:	e92d 4ff0 	stmdb	sp!, {r4, r5, r6, r7, r8, r9, sl, fp, lr}
    15ec:	b087      	sub	sp, #28
    u16_t primary_addr = bt_mesh_primary_addr();
    15ee:	f00e febb 	bl	10368 <bt_mesh_primary_addr>
    MODELS_BIND(models5, false , _net_idx, _app_idx);
    15f2:	f8df a18c 	ldr.w	sl, [pc, #396]	; 1780 <_configure_3rd+0x198>
    15f6:	4d5a      	ldr	r5, [pc, #360]	; (1760 <_configure_3rd+0x178>)
    15f8:	f8df b188 	ldr.w	fp, [pc, #392]	; 1784 <_configure_3rd+0x19c>
    15fc:	4e59      	ldr	r6, [pc, #356]	; (1764 <_configure_3rd+0x17c>)
    u16_t primary_addr = bt_mesh_primary_addr();
    15fe:	4680      	mov	r8, r0
    MODELS_BIND(models5, false , _net_idx, _app_idx);
    1600:	f00e feb2 	bl	10368 <bt_mesh_primary_addr>
    1604:	f89a 7004 	ldrb.w	r7, [sl, #4]
    1608:	4b57      	ldr	r3, [pc, #348]	; (1768 <_configure_3rd+0x180>)
    160a:	9502      	str	r5, [sp, #8]
    160c:	4407      	add	r7, r0
    160e:	b2bf      	uxth	r7, r7
    1610:	2400      	movs	r4, #0
    1612:	4681      	mov	r9, r0
    1614:	e88d 00a0 	stmia.w	sp, {r5, r7}
    1618:	4a54      	ldr	r2, [pc, #336]	; (176c <_configure_3rd+0x184>)
    161a:	4955      	ldr	r1, [pc, #340]	; (1770 <_configure_3rd+0x188>)
    161c:	4658      	mov	r0, fp
    161e:	f001 fdef 	bl	3200 <printk>
    1622:	9401      	str	r4, [sp, #4]
    1624:	f8ba 3000 	ldrh.w	r3, [sl]
    1628:	9300      	str	r3, [sp, #0]
    162a:	463a      	mov	r2, r7
    162c:	4623      	mov	r3, r4
    162e:	4649      	mov	r1, r9
    MODELS_BIND(models6, false , _net_idx, _app_idx);
    1630:	f8df a154 	ldr.w	sl, [pc, #340]	; 1788 <_configure_3rd+0x1a0>
    MODELS_BIND(models5, false , _net_idx, _app_idx);
    1634:	8830      	ldrh	r0, [r6, #0]
    1636:	f018 fae1 	bl	19bfc <bt_mesh_cfg_mod_app_bind>
    MODELS_BIND(models6, false , _net_idx, _app_idx);
    163a:	f00e fe95 	bl	10368 <bt_mesh_primary_addr>
    163e:	f89a 7004 	ldrb.w	r7, [sl, #4]
    1642:	4b49      	ldr	r3, [pc, #292]	; (1768 <_configure_3rd+0x180>)
    1644:	9502      	str	r5, [sp, #8]
    1646:	4407      	add	r7, r0
    1648:	b2bf      	uxth	r7, r7
    164a:	4681      	mov	r9, r0
    164c:	e88d 00a0 	stmia.w	sp, {r5, r7}
    1650:	4a46      	ldr	r2, [pc, #280]	; (176c <_configure_3rd+0x184>)
    1652:	4947      	ldr	r1, [pc, #284]	; (1770 <_configure_3rd+0x188>)
    1654:	4658      	mov	r0, fp
    1656:	f001 fdd3 	bl	3200 <printk>
    165a:	9401      	str	r4, [sp, #4]
    165c:	f8ba 3000 	ldrh.w	r3, [sl]
    1660:	9300      	str	r3, [sp, #0]
    1662:	463a      	mov	r2, r7
    1664:	4623      	mov	r3, r4
    1666:	4649      	mov	r1, r9
    MODELS_BIND(models7, false , _net_idx, _app_idx);
    1668:	f8df a120 	ldr.w	sl, [pc, #288]	; 178c <_configure_3rd+0x1a4>
    MODELS_BIND(models6, false , _net_idx, _app_idx);
    166c:	8830      	ldrh	r0, [r6, #0]
    166e:	f018 fac5 	bl	19bfc <bt_mesh_cfg_mod_app_bind>
    MODELS_BIND(models7, false , _net_idx, _app_idx);
    1672:	f00e fe79 	bl	10368 <bt_mesh_primary_addr>
    1676:	f89a 7004 	ldrb.w	r7, [sl, #4]
    167a:	4b3b      	ldr	r3, [pc, #236]	; (1768 <_configure_3rd+0x180>)
    167c:	9502      	str	r5, [sp, #8]
    167e:	4407      	add	r7, r0
    1680:	b2bf      	uxth	r7, r7
    1682:	4681      	mov	r9, r0
    1684:	e88d 00a0 	stmia.w	sp, {r5, r7}
    1688:	4a38      	ldr	r2, [pc, #224]	; (176c <_configure_3rd+0x184>)
    168a:	4939      	ldr	r1, [pc, #228]	; (1770 <_configure_3rd+0x188>)
    168c:	4658      	mov	r0, fp
    168e:	f001 fdb7 	bl	3200 <printk>
    1692:	9401      	str	r4, [sp, #4]
    1694:	f8ba 3000 	ldrh.w	r3, [sl]
    1698:	9300      	str	r3, [sp, #0]
    169a:	463a      	mov	r2, r7
    169c:	4649      	mov	r1, r9
    169e:	4623      	mov	r3, r4
    16a0:	8830      	ldrh	r0, [r6, #0]
                .app_idx = _app_idx,
                .ttl = 3,
                .transmit = BT_MESH_PUB_TRANSMIT(1, 50),
    };

    MODEL_PUB(vnd_models[0], true, _net_idx, &level_pub);
    16a2:	f8df 90ec 	ldr.w	r9, [pc, #236]	; 1790 <_configure_3rd+0x1a8>
    MODELS_BIND(models7, false , _net_idx, _app_idx);
    16a6:	f018 faa9 	bl	19bfc <bt_mesh_cfg_mod_app_bind>
    struct bt_mesh_cfg_mod_pub level_pub = {
    16aa:	f44f 4360 	mov.w	r3, #57344	; 0xe000
    16ae:	9404      	str	r4, [sp, #16]
    16b0:	f8ad 3010 	strh.w	r3, [sp, #16]
    16b4:	2303      	movs	r3, #3
    16b6:	9405      	str	r4, [sp, #20]
    16b8:	f88d 3015 	strb.w	r3, [sp, #21]
    16bc:	2301      	movs	r3, #1
    16be:	f88d 3017 	strb.w	r3, [sp, #23]
    MODEL_PUB(vnd_models[0], true, _net_idx, &level_pub);
    16c2:	f00e fe51 	bl	10368 <bt_mesh_primary_addr>
    16c6:	f899 7004 	ldrb.w	r7, [r9, #4]
    16ca:	4b27      	ldr	r3, [pc, #156]	; (1768 <_configure_3rd+0x180>)
    16cc:	9502      	str	r5, [sp, #8]
    16ce:	4407      	add	r7, r0
    16d0:	b2bf      	uxth	r7, r7
    16d2:	4682      	mov	sl, r0
    16d4:	e88d 00a0 	stmia.w	sp, {r5, r7}
    struct bt_mesh_cfg_mod_pub level_pub = {
    16d8:	f10d 0b10 	add.w	fp, sp, #16
    MODEL_PUB(vnd_models[0], true, _net_idx, &level_pub);
    16dc:	4a23      	ldr	r2, [pc, #140]	; (176c <_configure_3rd+0x184>)
    16de:	4924      	ldr	r1, [pc, #144]	; (1770 <_configure_3rd+0x188>)
    16e0:	4824      	ldr	r0, [pc, #144]	; (1774 <_configure_3rd+0x18c>)
    16e2:	f001 fd8d 	bl	3200 <printk>
    16e6:	f8b9 3002 	ldrh.w	r3, [r9, #2]
    16ea:	9402      	str	r4, [sp, #8]
    16ec:	f8cd b004 	str.w	fp, [sp, #4]
    16f0:	f8b9 2000 	ldrh.w	r2, [r9]
    16f4:	9200      	str	r2, [sp, #0]
    16f6:	4651      	mov	r1, sl
    16f8:	463a      	mov	r2, r7
    16fa:	8830      	ldrh	r0, [r6, #0]
    16fc:	f018 faf1 	bl	19ce2 <bt_mesh_cfg_mod_pub_set_vnd>

    bt_mesh_cfg_mod_sub_add_vnd(_net_idx,
    1700:	27ff      	movs	r7, #255	; 0xff
    1702:	f44f 53b8 	mov.w	r3, #5888	; 0x1700
    1706:	e88d 0088 	stmia.w	sp, {r3, r7}
    170a:	4642      	mov	r2, r8
    170c:	4641      	mov	r1, r8
    170e:	8830      	ldrh	r0, [r6, #0]
    1710:	9402      	str	r4, [sp, #8]
    1712:	f44f 4350 	mov.w	r3, #53248	; 0xd000
    1716:	f018 faa3 	bl	19c60 <bt_mesh_cfg_mod_sub_add_vnd>
                                BT_MESH_MODEL_ID_VNG_STATUS,
                                CID_VNG,
                                NULL);

    
    bt_mesh_cfg_mod_sub_add(_net_idx,
    171a:	f44f 53a8 	mov.w	r3, #5376	; 0x1500
    171e:	9300      	str	r3, [sp, #0]
    1720:	4642      	mov	r2, r8
    1722:	4641      	mov	r1, r8
    1724:	8830      	ldrh	r0, [r6, #0]
    1726:	9401      	str	r4, [sp, #4]
    1728:	f24c 0301 	movw	r3, #49153	; 0xc001
    172c:	f018 fa85 	bl	19c3a <bt_mesh_cfg_mod_sub_add>
                            primary_addr,
                            HUB_GROUP_ADDR,
                            BT_MESH_MODEL_ID_LIGHT_HUB_SRV,
                            NULL);    

    bt_mesh_cfg_mod_sub_add_vnd(_net_idx, 
    1730:	f44f 53c0 	mov.w	r3, #6144	; 0x1800
    1734:	9300      	str	r3, [sp, #0]
    1736:	4642      	mov	r2, r8
    1738:	4641      	mov	r1, r8
    173a:	8830      	ldrh	r0, [r6, #0]
    173c:	9402      	str	r4, [sp, #8]
    173e:	9701      	str	r7, [sp, #4]
    1740:	f24c 0302 	movw	r3, #49154	; 0xc002
    1744:	f018 fa8c 	bl	19c60 <bt_mesh_cfg_mod_sub_add_vnd>
                                VNG_MESH_THREAD_TRACKING_GROUP, 
                                BT_MESH_MODEL_ID_VNG_THREAD_TRACKING, 
                                CID_VNG, 
                                NULL);
#endif 
    SYS_LOG_INF("done");
    1748:	9501      	str	r5, [sp, #4]
    174a:	9500      	str	r5, [sp, #0]
    174c:	4b06      	ldr	r3, [pc, #24]	; (1768 <_configure_3rd+0x180>)
    174e:	4a0a      	ldr	r2, [pc, #40]	; (1778 <_configure_3rd+0x190>)
    1750:	4907      	ldr	r1, [pc, #28]	; (1770 <_configure_3rd+0x188>)
    1752:	480a      	ldr	r0, [pc, #40]	; (177c <_configure_3rd+0x194>)
    1754:	f001 fd54 	bl	3200 <printk>

}
    1758:	b007      	add	sp, #28
    175a:	e8bd 8ff0 	ldmia.w	sp!, {r4, r5, r6, r7, r8, r9, sl, fp, pc}
    175e:	bf00      	nop
    1760:	0002a7a7 	.word	0x0002a7a7
    1764:	200002d4 	.word	0x200002d4
    1768:	00026fba 	.word	0x00026fba
    176c:	00026c53 	.word	0x00026c53
    1770:	000267ce 	.word	0x000267ce
    1774:	000270c7 	.word	0x000270c7
    1778:	00026801 	.word	0x00026801
    177c:	000270ed 	.word	0x000270ed
    1780:	2000b1e0 	.word	0x2000b1e0
    1784:	000270a4 	.word	0x000270a4
    1788:	2000b224 	.word	0x2000b224
    178c:	2000b268 	.word	0x2000b268
    1790:	2000b2f0 	.word	0x2000b2f0

00001794 <_level_set>:
    hub_line_level_set(user_data, level, ack);
    1794:	4601      	mov	r1, r0
    1796:	f89d 2004 	ldrb.w	r2, [sp, #4]
    179a:	9800      	ldr	r0, [sp, #0]
    179c:	f7ff bdce 	b.w	133c <hub_line_level_set>

000017a0 <_level_get>:
{
    17a0:	460b      	mov	r3, r1
    hub_line_level_get(user_data, timeout);
    17a2:	4601      	mov	r1, r0
    17a4:	4618      	mov	r0, r3
    17a6:	f7ff be51 	b.w	144c <hub_line_level_get>
	...

000017ac <_mesh_status_set>:
{
    17ac:	b5f0      	push	{r4, r5, r6, r7, lr}
    17ae:	461d      	mov	r5, r3
    17b0:	b087      	sub	sp, #28
   SYS_LOG_INF("time: %u, main: %u, duration: %u, period: %u", time, main, duration, period);
    17b2:	4b14      	ldr	r3, [pc, #80]	; (1804 <_mesh_status_set+0x58>)
    17b4:	9305      	str	r3, [sp, #20]
{
    17b6:	4607      	mov	r7, r0
    17b8:	460c      	mov	r4, r1
    17ba:	4616      	mov	r6, r2
   SYS_LOG_INF("time: %u, main: %u, duration: %u, period: %u", time, main, duration, period);
    17bc:	9203      	str	r2, [sp, #12]
    17be:	9102      	str	r1, [sp, #8]
    17c0:	e88d 0088 	stmia.w	sp, {r3, r7}
    17c4:	9504      	str	r5, [sp, #16]
    17c6:	4b10      	ldr	r3, [pc, #64]	; (1808 <_mesh_status_set+0x5c>)
    17c8:	4a10      	ldr	r2, [pc, #64]	; (180c <_mesh_status_set+0x60>)
    17ca:	4911      	ldr	r1, [pc, #68]	; (1810 <_mesh_status_set+0x64>)
    17cc:	4811      	ldr	r0, [pc, #68]	; (1814 <_mesh_status_set+0x68>)
    17ce:	f001 fd17 	bl	3200 <printk>
    if( main == 0)
    17d2:	b1a4      	cbz	r4, 17fe <_mesh_status_set+0x52>
    u16_t mod = bt_mesh_primary_addr() % main;
    17d4:	f00e fdc8 	bl	10368 <bt_mesh_primary_addr>
    17d8:	fbb0 f3f4 	udiv	r3, r0, r4
    17dc:	fb03 0014 	mls	r0, r3, r4, r0
    if (mod == time) {
    17e0:	b280      	uxth	r0, r0
    17e2:	4287      	cmp	r7, r0
    17e4:	d10b      	bne.n	17fe <_mesh_status_set+0x52>
        hub_report_activate(10, duration*1000);
    17e6:	f44f 717a 	mov.w	r1, #1000	; 0x3e8
    17ea:	4371      	muls	r1, r6
    17ec:	200a      	movs	r0, #10
    17ee:	f7ff fc8f 	bl	1110 <hub_report_activate>
        hub_report_period_set(period);  
    17f2:	4628      	mov	r0, r5
}
    17f4:	b007      	add	sp, #28
    17f6:	e8bd 40f0 	ldmia.w	sp!, {r4, r5, r6, r7, lr}
        hub_report_period_set(period);  
    17fa:	f7ff bc83 	b.w	1104 <hub_report_period_set>
}
    17fe:	b007      	add	sp, #28
    1800:	bdf0      	pop	{r4, r5, r6, r7, pc}
    1802:	bf00      	nop
    1804:	0002a7a7 	.word	0x0002a7a7
    1808:	00026f17 	.word	0x00026f17
    180c:	00026801 	.word	0x00026801
    1810:	000267ce 	.word	0x000267ce
    1814:	0002726b 	.word	0x0002726b

00001818 <_status_config>:
    bt_mesh_model_setting_val_update((&models0[1]), 
                            setting_data, setting_len);
}

static void _status_config(u8_t status_en, u8_t warn_en, u16_t check_period, u16_t notify_period, void *user_data)
{
    1818:	b507      	push	{r0, r1, r2, lr}
    u8_t *setting_data;
    u16_t setting_len;

    hub_status_config_set(status_en, warn_en, check_period, notify_period);
    181a:	f7ff fb89 	bl	f30 <hub_status_config_set>
    
    hub_setting_get(&setting_data, &setting_len);
    181e:	f10d 0102 	add.w	r1, sp, #2
    1822:	a801      	add	r0, sp, #4
    1824:	f7ff fe18 	bl	1458 <hub_setting_get>
    bt_mesh_model_setting_val_update((&models0[1]), 
    1828:	f8bd 2002 	ldrh.w	r2, [sp, #2]
    182c:	9901      	ldr	r1, [sp, #4]
    182e:	4803      	ldr	r0, [pc, #12]	; (183c <_status_config+0x24>)
    1830:	f00f f8c6 	bl	109c0 <bt_mesh_model_setting_val_update>
                            setting_data, setting_len);

}
    1834:	b003      	add	sp, #12
    1836:	f85d fb04 	ldr.w	pc, [sp], #4
    183a:	bf00      	nop
    183c:	2000afc0 	.word	0x2000afc0

00001840 <_dimming_config>:
{
    1840:	b507      	push	{r0, r1, r2, lr}
    hub_pwm_scale_set(linesmap, off_0, scale_min, scale_max);
    1842:	f7ff fb37 	bl	eb4 <hub_pwm_scale_set>
    hub_setting_get(&setting_data, &setting_len);
    1846:	f10d 0102 	add.w	r1, sp, #2
    184a:	a801      	add	r0, sp, #4
    184c:	f7ff fe04 	bl	1458 <hub_setting_get>
    bt_mesh_model_setting_val_update((&models0[1]), 
    1850:	f8bd 2002 	ldrh.w	r2, [sp, #2]
    1854:	9901      	ldr	r1, [sp, #4]
    1856:	4803      	ldr	r0, [pc, #12]	; (1864 <_dimming_config+0x24>)
    1858:	f00f f8b2 	bl	109c0 <bt_mesh_model_setting_val_update>
}
    185c:	b003      	add	sp, #12
    185e:	f85d fb04 	ldr.w	pc, [sp], #4
    1862:	bf00      	nop
    1864:	2000afc0 	.word	0x2000afc0

00001868 <_levels_set>:
    hub_level_set(level, ack);
    1868:	f89d 1000 	ldrb.w	r1, [sp]
    186c:	f7ff bcac 	b.w	11c8 <hub_level_set>

00001870 <k_delayed_work_submit>:
    1870:	460a      	mov	r2, r1
    1872:	4601      	mov	r1, r0
    1874:	4801      	ldr	r0, [pc, #4]	; (187c <k_delayed_work_submit+0xc>)
    1876:	f024 bbe1 	b.w	2603c <k_delayed_work_submit_to_queue>
    187a:	bf00      	nop
    187c:	20003f80 	.word	0x20003f80

00001880 <_configure_1st>:
{
    1880:	e92d 47ff 	stmdb	sp!, {r0, r1, r2, r3, r4, r5, r6, r7, r8, r9, sl, lr}
    bt_mesh_cfg_app_key_add(_net_idx,
    1884:	4e1e      	ldr	r6, [pc, #120]	; (1900 <_configure_1st+0x80>)
    1886:	4b1f      	ldr	r3, [pc, #124]	; (1904 <_configure_1st+0x84>)
    1888:	8832      	ldrh	r2, [r6, #0]
    188a:	8819      	ldrh	r1, [r3, #0]
    188c:	4b1e      	ldr	r3, [pc, #120]	; (1908 <_configure_1st+0x88>)
    188e:	9300      	str	r3, [sp, #0]
    1890:	2400      	movs	r4, #0
    1892:	4623      	mov	r3, r4
    1894:	4610      	mov	r0, r2
    1896:	9401      	str	r4, [sp, #4]
    1898:	f018 f948 	bl	19b2c <bt_mesh_cfg_app_key_add>
    MODELS_BIND(models0, false , _net_idx, _app_idx);
    189c:	f00e fd64 	bl	10368 <bt_mesh_primary_addr>
    18a0:	f8df 807c 	ldr.w	r8, [pc, #124]	; 1920 <_configure_1st+0xa0>
    18a4:	f8df 907c 	ldr.w	r9, [pc, #124]	; 1924 <_configure_1st+0xa4>
    18a8:	f8df a07c 	ldr.w	sl, [pc, #124]	; 1928 <_configure_1st+0xa8>
    18ac:	4607      	mov	r7, r0
    18ae:	eb08 0304 	add.w	r3, r8, r4
    18b2:	4a16      	ldr	r2, [pc, #88]	; (190c <_configure_1st+0x8c>)
    18b4:	791d      	ldrb	r5, [r3, #4]
    18b6:	4916      	ldr	r1, [pc, #88]	; (1910 <_configure_1st+0x90>)
    18b8:	f8cd 9008 	str.w	r9, [sp, #8]
    18bc:	443d      	add	r5, r7
    18be:	b2ad      	uxth	r5, r5
    18c0:	4653      	mov	r3, sl
    18c2:	9501      	str	r5, [sp, #4]
    18c4:	f8cd 9000 	str.w	r9, [sp]
    18c8:	4812      	ldr	r0, [pc, #72]	; (1914 <_configure_1st+0x94>)
    18ca:	f001 fc99 	bl	3200 <printk>
    18ce:	f834 2008 	ldrh.w	r2, [r4, r8]
    18d2:	9200      	str	r2, [sp, #0]
    18d4:	2300      	movs	r3, #0
    18d6:	8830      	ldrh	r0, [r6, #0]
    18d8:	9301      	str	r3, [sp, #4]
    18da:	462a      	mov	r2, r5
    18dc:	4639      	mov	r1, r7
    18de:	3444      	adds	r4, #68	; 0x44
    18e0:	f018 f98c 	bl	19bfc <bt_mesh_cfg_mod_app_bind>
    18e4:	f5b4 7faa 	cmp.w	r4, #340	; 0x154
    18e8:	d1e1      	bne.n	18ae <_configure_1st+0x2e>
    k_delayed_work_init(&_configure_2nd_work, _configure_2nd);
    18ea:	490b      	ldr	r1, [pc, #44]	; (1918 <_configure_1st+0x98>)
    18ec:	480b      	ldr	r0, [pc, #44]	; (191c <_configure_1st+0x9c>)
    18ee:	f024 fb31 	bl	25f54 <k_delayed_work_init>
    k_delayed_work_submit(&_configure_2nd_work, 100);
    18f2:	480a      	ldr	r0, [pc, #40]	; (191c <_configure_1st+0x9c>)
    18f4:	2164      	movs	r1, #100	; 0x64
}
    18f6:	b004      	add	sp, #16
    18f8:	e8bd 47f0 	ldmia.w	sp!, {r4, r5, r6, r7, r8, r9, sl, lr}
    k_delayed_work_submit(&_configure_2nd_work, 100);
    18fc:	f7ff bfb8 	b.w	1870 <k_delayed_work_submit>
    1900:	200002d4 	.word	0x200002d4
    1904:	2000ae78 	.word	0x2000ae78
    1908:	0002706d 	.word	0x0002706d
    190c:	00026c53 	.word	0x00026c53
    1910:	000267ce 	.word	0x000267ce
    1914:	000270a4 	.word	0x000270a4
    1918:	0000192d 	.word	0x0000192d
    191c:	20000254 	.word	0x20000254
    1920:	2000af7c 	.word	0x2000af7c
    1924:	0002a7a7 	.word	0x0002a7a7
    1928:	00026f9c 	.word	0x00026f9c

0000192c <_configure_2nd>:
{
    192c:	e92d 4ff0 	stmdb	sp!, {r4, r5, r6, r7, r8, r9, sl, fp, lr}
    MODELS_BIND(models1, false , _net_idx, _app_idx);
    1930:	f8df 918c 	ldr.w	r9, [pc, #396]	; 1ac0 <_configure_2nd+0x194>
    1934:	4d58      	ldr	r5, [pc, #352]	; (1a98 <_configure_2nd+0x16c>)
    1936:	f8df a18c 	ldr.w	sl, [pc, #396]	; 1ac4 <_configure_2nd+0x198>
    MODELS_BIND(vnd_models, true , _net_idx, _app_idx);
    193a:	f8df b160 	ldr.w	fp, [pc, #352]	; 1a9c <_configure_2nd+0x170>
{
    193e:	b085      	sub	sp, #20
    MODELS_BIND(models1, false , _net_idx, _app_idx);
    1940:	f00e fd12 	bl	10368 <bt_mesh_primary_addr>
    1944:	f899 6004 	ldrb.w	r6, [r9, #4]
    1948:	4b54      	ldr	r3, [pc, #336]	; (1a9c <_configure_2nd+0x170>)
    194a:	4a55      	ldr	r2, [pc, #340]	; (1aa0 <_configure_2nd+0x174>)
    194c:	4955      	ldr	r1, [pc, #340]	; (1aa4 <_configure_2nd+0x178>)
    194e:	9502      	str	r5, [sp, #8]
    1950:	4406      	add	r6, r0
    1952:	b2b6      	uxth	r6, r6
    1954:	2400      	movs	r4, #0
    1956:	4607      	mov	r7, r0
    1958:	e88d 0060 	stmia.w	sp, {r5, r6}
    195c:	4852      	ldr	r0, [pc, #328]	; (1aa8 <_configure_2nd+0x17c>)
    195e:	f001 fc4f 	bl	3200 <printk>
    1962:	9401      	str	r4, [sp, #4]
    1964:	f8b9 3000 	ldrh.w	r3, [r9]
    1968:	9300      	str	r3, [sp, #0]
    196a:	4632      	mov	r2, r6
    196c:	4639      	mov	r1, r7
    196e:	4623      	mov	r3, r4
    MODELS_BIND(models2, false , _net_idx, _app_idx);
    1970:	f8df 9154 	ldr.w	r9, [pc, #340]	; 1ac8 <_configure_2nd+0x19c>
    MODELS_BIND(models1, false , _net_idx, _app_idx);
    1974:	f8ba 0000 	ldrh.w	r0, [sl]
    1978:	f018 f940 	bl	19bfc <bt_mesh_cfg_mod_app_bind>
    MODELS_BIND(models2, false , _net_idx, _app_idx);
    197c:	f00e fcf4 	bl	10368 <bt_mesh_primary_addr>
    1980:	f899 6004 	ldrb.w	r6, [r9, #4]
    1984:	4b45      	ldr	r3, [pc, #276]	; (1a9c <_configure_2nd+0x170>)
    1986:	4a46      	ldr	r2, [pc, #280]	; (1aa0 <_configure_2nd+0x174>)
    1988:	4946      	ldr	r1, [pc, #280]	; (1aa4 <_configure_2nd+0x178>)
    198a:	9502      	str	r5, [sp, #8]
    198c:	4406      	add	r6, r0
    198e:	b2b6      	uxth	r6, r6
    1990:	4607      	mov	r7, r0
    1992:	e88d 0060 	stmia.w	sp, {r5, r6}
    1996:	4844      	ldr	r0, [pc, #272]	; (1aa8 <_configure_2nd+0x17c>)
    1998:	f001 fc32 	bl	3200 <printk>
    199c:	9401      	str	r4, [sp, #4]
    199e:	f8b9 3000 	ldrh.w	r3, [r9]
    19a2:	9300      	str	r3, [sp, #0]
    19a4:	4632      	mov	r2, r6
    19a6:	4639      	mov	r1, r7
    19a8:	4623      	mov	r3, r4
    MODELS_BIND(models3, false , _net_idx, _app_idx);
    19aa:	f8df 9120 	ldr.w	r9, [pc, #288]	; 1acc <_configure_2nd+0x1a0>
    MODELS_BIND(models2, false , _net_idx, _app_idx);
    19ae:	f8ba 0000 	ldrh.w	r0, [sl]
    19b2:	f018 f923 	bl	19bfc <bt_mesh_cfg_mod_app_bind>
    MODELS_BIND(models3, false , _net_idx, _app_idx);
    19b6:	f00e fcd7 	bl	10368 <bt_mesh_primary_addr>
    19ba:	f899 6004 	ldrb.w	r6, [r9, #4]
    19be:	4b37      	ldr	r3, [pc, #220]	; (1a9c <_configure_2nd+0x170>)
    19c0:	4a37      	ldr	r2, [pc, #220]	; (1aa0 <_configure_2nd+0x174>)
    19c2:	4938      	ldr	r1, [pc, #224]	; (1aa4 <_configure_2nd+0x178>)
    19c4:	9502      	str	r5, [sp, #8]
    19c6:	4406      	add	r6, r0
    19c8:	b2b6      	uxth	r6, r6
    19ca:	4607      	mov	r7, r0
    19cc:	e88d 0060 	stmia.w	sp, {r5, r6}
    19d0:	4835      	ldr	r0, [pc, #212]	; (1aa8 <_configure_2nd+0x17c>)
    19d2:	f001 fc15 	bl	3200 <printk>
    19d6:	9401      	str	r4, [sp, #4]
    19d8:	f8b9 3000 	ldrh.w	r3, [r9]
    19dc:	9300      	str	r3, [sp, #0]
    19de:	4632      	mov	r2, r6
    19e0:	4639      	mov	r1, r7
    19e2:	4623      	mov	r3, r4
    MODELS_BIND(models4, false , _net_idx, _app_idx);
    19e4:	f8df 90e8 	ldr.w	r9, [pc, #232]	; 1ad0 <_configure_2nd+0x1a4>
    MODELS_BIND(models3, false , _net_idx, _app_idx);
    19e8:	f8ba 0000 	ldrh.w	r0, [sl]
    19ec:	f018 f906 	bl	19bfc <bt_mesh_cfg_mod_app_bind>
    MODELS_BIND(models4, false , _net_idx, _app_idx);
    19f0:	f00e fcba 	bl	10368 <bt_mesh_primary_addr>
    19f4:	f899 6004 	ldrb.w	r6, [r9, #4]
    19f8:	4b28      	ldr	r3, [pc, #160]	; (1a9c <_configure_2nd+0x170>)
    19fa:	4a29      	ldr	r2, [pc, #164]	; (1aa0 <_configure_2nd+0x174>)
    19fc:	4929      	ldr	r1, [pc, #164]	; (1aa4 <_configure_2nd+0x178>)
    19fe:	9502      	str	r5, [sp, #8]
    1a00:	4406      	add	r6, r0
    1a02:	b2b6      	uxth	r6, r6
    1a04:	4607      	mov	r7, r0
    1a06:	e88d 0060 	stmia.w	sp, {r5, r6}
    1a0a:	4827      	ldr	r0, [pc, #156]	; (1aa8 <_configure_2nd+0x17c>)
    1a0c:	f001 fbf8 	bl	3200 <printk>
    1a10:	9401      	str	r4, [sp, #4]
    1a12:	f8b9 3000 	ldrh.w	r3, [r9]
    1a16:	9300      	str	r3, [sp, #0]
    1a18:	4639      	mov	r1, r7
    1a1a:	4623      	mov	r3, r4
    1a1c:	4632      	mov	r2, r6
    1a1e:	f8ba 0000 	ldrh.w	r0, [sl]
    1a22:	f8df 90b0 	ldr.w	r9, [pc, #176]	; 1ad4 <_configure_2nd+0x1a8>
    1a26:	f018 f8e9 	bl	19bfc <bt_mesh_cfg_mod_app_bind>
    MODELS_BIND(vnd_models, true , _net_idx, _app_idx);
    1a2a:	f00e fc9d 	bl	10368 <bt_mesh_primary_addr>
    1a2e:	4607      	mov	r7, r0
    1a30:	eb09 0804 	add.w	r8, r9, r4
    1a34:	465b      	mov	r3, fp
    1a36:	f898 6004 	ldrb.w	r6, [r8, #4]
    1a3a:	4a19      	ldr	r2, [pc, #100]	; (1aa0 <_configure_2nd+0x174>)
    1a3c:	4919      	ldr	r1, [pc, #100]	; (1aa4 <_configure_2nd+0x178>)
    1a3e:	9502      	str	r5, [sp, #8]
    1a40:	443e      	add	r6, r7
    1a42:	b2b6      	uxth	r6, r6
    1a44:	e88d 0060 	stmia.w	sp, {r5, r6}
    1a48:	4818      	ldr	r0, [pc, #96]	; (1aac <_configure_2nd+0x180>)
    1a4a:	f001 fbd9 	bl	3200 <printk>
    1a4e:	2300      	movs	r3, #0
    1a50:	9302      	str	r3, [sp, #8]
    1a52:	f834 2009 	ldrh.w	r2, [r4, r9]
    1a56:	9201      	str	r2, [sp, #4]
    1a58:	f8b8 2002 	ldrh.w	r2, [r8, #2]
    1a5c:	9200      	str	r2, [sp, #0]
    1a5e:	f8ba 0000 	ldrh.w	r0, [sl]
    1a62:	4632      	mov	r2, r6
    1a64:	4639      	mov	r1, r7
    1a66:	3444      	adds	r4, #68	; 0x44
    1a68:	f018 f8d5 	bl	19c16 <bt_mesh_cfg_mod_app_bind_vnd>
    1a6c:	2c88      	cmp	r4, #136	; 0x88
    1a6e:	d1df      	bne.n	1a30 <_configure_2nd+0x104>
    k_delayed_work_init(&_configure_3rd_work, _configure_3rd);
    1a70:	490f      	ldr	r1, [pc, #60]	; (1ab0 <_configure_2nd+0x184>)
    1a72:	4810      	ldr	r0, [pc, #64]	; (1ab4 <_configure_2nd+0x188>)
    1a74:	f024 fa6e 	bl	25f54 <k_delayed_work_init>
    k_delayed_work_submit(&_configure_3rd_work, 100);
    1a78:	2164      	movs	r1, #100	; 0x64
    1a7a:	480e      	ldr	r0, [pc, #56]	; (1ab4 <_configure_2nd+0x188>)
    1a7c:	f7ff fef8 	bl	1870 <k_delayed_work_submit>
    SYS_LOG_INF("done");
    1a80:	9501      	str	r5, [sp, #4]
    1a82:	9500      	str	r5, [sp, #0]
    1a84:	4b05      	ldr	r3, [pc, #20]	; (1a9c <_configure_2nd+0x170>)
    1a86:	4a0c      	ldr	r2, [pc, #48]	; (1ab8 <_configure_2nd+0x18c>)
    1a88:	4906      	ldr	r1, [pc, #24]	; (1aa4 <_configure_2nd+0x178>)
    1a8a:	480c      	ldr	r0, [pc, #48]	; (1abc <_configure_2nd+0x190>)
    1a8c:	f001 fbb8 	bl	3200 <printk>
}
    1a90:	b005      	add	sp, #20
    1a92:	e8bd 8ff0 	ldmia.w	sp!, {r4, r5, r6, r7, r8, r9, sl, fp, pc}
    1a96:	bf00      	nop
    1a98:	0002a7a7 	.word	0x0002a7a7
    1a9c:	00026fab 	.word	0x00026fab
    1aa0:	00026c53 	.word	0x00026c53
    1aa4:	000267ce 	.word	0x000267ce
    1aa8:	000270a4 	.word	0x000270a4
    1aac:	0002707d 	.word	0x0002707d
    1ab0:	000015e9 	.word	0x000015e9
    1ab4:	2000027c 	.word	0x2000027c
    1ab8:	00026801 	.word	0x00026801
    1abc:	000270ed 	.word	0x000270ed
    1ac0:	2000b0d0 	.word	0x2000b0d0
    1ac4:	200002d4 	.word	0x200002d4
    1ac8:	2000b114 	.word	0x2000b114
    1acc:	2000b158 	.word	0x2000b158
    1ad0:	2000b19c 	.word	0x2000b19c
    1ad4:	2000b2f0 	.word	0x2000b2f0

00001ad8 <_prov_reset>:
    bt_mesh_prov_enable(BT_MESH_PROV_ADV | BT_MESH_PROV_GATT);
    1ad8:	2003      	movs	r0, #3
    1ada:	f00a be39 	b.w	c750 <bt_mesh_prov_enable>
	...

00001ae0 <_mesh_hub_warning_report>:
{
    1ae0:	b5f0      	push	{r4, r5, r6, r7, lr}
    1ae2:	b091      	sub	sp, #68	; 0x44
    SYS_LOG_INF("");
    1ae4:	4c25      	ldr	r4, [pc, #148]	; (1b7c <_mesh_hub_warning_report+0x9c>)
    1ae6:	4b26      	ldr	r3, [pc, #152]	; (1b80 <_mesh_hub_warning_report+0xa0>)
    1ae8:	4a26      	ldr	r2, [pc, #152]	; (1b84 <_mesh_hub_warning_report+0xa4>)
    1aea:	9401      	str	r4, [sp, #4]
{
    1aec:	4606      	mov	r6, r0
    1aee:	460f      	mov	r7, r1
    SYS_LOG_INF("");
    1af0:	9400      	str	r4, [sp, #0]
    1af2:	4925      	ldr	r1, [pc, #148]	; (1b88 <_mesh_hub_warning_report+0xa8>)
    1af4:	4825      	ldr	r0, [pc, #148]	; (1b8c <_mesh_hub_warning_report+0xac>)
    1af6:	f001 fb83 	bl	3200 <printk>
    NET_BUF_SIMPLE_DEFINE(msg, 2 + 12 + 4);
    1afa:	2500      	movs	r5, #0
    1afc:	ab0b      	add	r3, sp, #44	; 0x2c
    1afe:	2212      	movs	r2, #18
    1b00:	f8ad 2026 	strh.w	r2, [sp, #38]	; 0x26
    1b04:	9308      	str	r3, [sp, #32]
    1b06:	930a      	str	r3, [sp, #40]	; 0x28
    1b08:	f8ad 5024 	strh.w	r5, [sp, #36]	; 0x24
    u8_t ttl = bt_mesh_default_ttl_get();
    1b0c:	f012 fb16 	bl	1413c <bt_mesh_default_ttl_get>
        .net_idx = bt_mesh.sub[0].net_idx,
    1b10:	4b1f      	ldr	r3, [pc, #124]	; (1b90 <_mesh_hub_warning_report+0xb0>)
    struct bt_mesh_msg_ctx ctx = {
    1b12:	9505      	str	r5, [sp, #20]
    1b14:	f8b3 3118 	ldrh.w	r3, [r3, #280]	; 0x118
    1b18:	f8ad 501c 	strh.w	r5, [sp, #28]
    1b1c:	f8ad 3014 	strh.w	r3, [sp, #20]
    1b20:	f88d 001d 	strb.w	r0, [sp, #29]
    1b24:	f44f 4340 	mov.w	r3, #49152	; 0xc000
    bt_mesh_model_msg_init(&msg, BT_MESH_MODEL_OP_VND_WARNING);
    1b28:	f248 2109 	movw	r1, #33289	; 0x8209
    1b2c:	a808      	add	r0, sp, #32
    struct bt_mesh_msg_ctx ctx = {
    1b2e:	9506      	str	r5, [sp, #24]
    1b30:	f8ad 3018 	strh.w	r3, [sp, #24]
    bt_mesh_model_msg_init(&msg, BT_MESH_MODEL_OP_VND_WARNING);
    1b34:	f00e fd76 	bl	10624 <bt_mesh_model_msg_init>
    net_buf_simple_add_mem(&msg, status, lines);
    1b38:	463a      	mov	r2, r7
    1b3a:	4631      	mov	r1, r6
    1b3c:	a808      	add	r0, sp, #32
    1b3e:	f021 ff19 	bl	23974 <net_buf_simple_add_mem>
    error = bt_mesh_model_send(&vnd_models[0], &ctx, &msg, NULL, NULL);
    1b42:	9500      	str	r5, [sp, #0]
    1b44:	462b      	mov	r3, r5
    1b46:	aa08      	add	r2, sp, #32
    1b48:	a905      	add	r1, sp, #20
    1b4a:	4812      	ldr	r0, [pc, #72]	; (1b94 <_mesh_hub_warning_report+0xb4>)
    1b4c:	f00e fd93 	bl	10676 <bt_mesh_model_send>
    if (error != 0) {
    1b50:	b150      	cbz	r0, 1b68 <_mesh_hub_warning_report+0x88>
        SYS_LOG_ERR("Send failed with error: %d", error);
    1b52:	9001      	str	r0, [sp, #4]
    1b54:	9402      	str	r4, [sp, #8]
    1b56:	9400      	str	r4, [sp, #0]
    1b58:	4b09      	ldr	r3, [pc, #36]	; (1b80 <_mesh_hub_warning_report+0xa0>)
    1b5a:	4a0f      	ldr	r2, [pc, #60]	; (1b98 <_mesh_hub_warning_report+0xb8>)
    1b5c:	490a      	ldr	r1, [pc, #40]	; (1b88 <_mesh_hub_warning_report+0xa8>)
    1b5e:	480f      	ldr	r0, [pc, #60]	; (1b9c <_mesh_hub_warning_report+0xbc>)
    1b60:	f001 fb4e 	bl	3200 <printk>
}
    1b64:	b011      	add	sp, #68	; 0x44
    1b66:	bdf0      	pop	{r4, r5, r6, r7, pc}
        SYS_LOG_INF("Send successed");
    1b68:	9401      	str	r4, [sp, #4]
    1b6a:	9400      	str	r4, [sp, #0]
    1b6c:	4b04      	ldr	r3, [pc, #16]	; (1b80 <_mesh_hub_warning_report+0xa0>)
    1b6e:	4a05      	ldr	r2, [pc, #20]	; (1b84 <_mesh_hub_warning_report+0xa4>)
    1b70:	4905      	ldr	r1, [pc, #20]	; (1b88 <_mesh_hub_warning_report+0xa8>)
    1b72:	480b      	ldr	r0, [pc, #44]	; (1ba0 <_mesh_hub_warning_report+0xc0>)
    1b74:	f001 fb44 	bl	3200 <printk>
}
    1b78:	e7f4      	b.n	1b64 <_mesh_hub_warning_report+0x84>
    1b7a:	bf00      	nop
    1b7c:	0002a7a7 	.word	0x0002a7a7
    1b80:	00026f78 	.word	0x00026f78
    1b84:	00026801 	.word	0x00026801
    1b88:	000267ce 	.word	0x000267ce
    1b8c:	00026c5a 	.word	0x00026c5a
    1b90:	2000b6f4 	.word	0x2000b6f4
    1b94:	2000b2f0 	.word	0x2000b2f0
    1b98:	000267c7 	.word	0x000267c7
    1b9c:	00027221 	.word	0x00027221
    1ba0:	0002724c 	.word	0x0002724c

00001ba4 <_line_enables_status_work>:
    if(ack)
        _groups_list_delayed_get(linesmap, 2000);
}

static void _line_enables_status_work(struct k_work* work)
{
    1ba4:	b5f0      	push	{r4, r5, r6, r7, lr}
    1ba6:	b091      	sub	sp, #68	; 0x44
    SYS_LOG_INF("");
    1ba8:	4c2c      	ldr	r4, [pc, #176]	; (1c5c <_line_enables_status_work+0xb8>)
    1baa:	492d      	ldr	r1, [pc, #180]	; (1c60 <_line_enables_status_work+0xbc>)
    1bac:	4b2d      	ldr	r3, [pc, #180]	; (1c64 <_line_enables_status_work+0xc0>)
    1bae:	4a2e      	ldr	r2, [pc, #184]	; (1c68 <_line_enables_status_work+0xc4>)
    1bb0:	9401      	str	r4, [sp, #4]
    1bb2:	9400      	str	r4, [sp, #0]
    1bb4:	482d      	ldr	r0, [pc, #180]	; (1c6c <_line_enables_status_work+0xc8>)
        .send_ttl = ttl,
    };

    bt_mesh_model_msg_init(&msg, BT_MESH_MODEL_OP_LINE_ENABLES);
    
    net_buf_simple_add_u8(&msg, _groups_status.enableds.val);
    1bb6:	4e2e      	ldr	r6, [pc, #184]	; (1c70 <_line_enables_status_work+0xcc>)
    SYS_LOG_INF("");
    1bb8:	f001 fb22 	bl	3200 <printk>
    NET_BUF_SIMPLE_DEFINE(msg, 2 + 12 + 4);
    1bbc:	2500      	movs	r5, #0
    1bbe:	2212      	movs	r2, #18
    1bc0:	ab0b      	add	r3, sp, #44	; 0x2c
    1bc2:	f8ad 2026 	strh.w	r2, [sp, #38]	; 0x26
    1bc6:	9308      	str	r3, [sp, #32]
    1bc8:	930a      	str	r3, [sp, #40]	; 0x28
    1bca:	f8ad 5024 	strh.w	r5, [sp, #36]	; 0x24
    u8_t ttl = bt_mesh_default_ttl_get();
    1bce:	f012 fab5 	bl	1413c <bt_mesh_default_ttl_get>
        .net_idx = bt_mesh.sub[0].net_idx,
    1bd2:	4b28      	ldr	r3, [pc, #160]	; (1c74 <_line_enables_status_work+0xd0>)
    struct bt_mesh_msg_ctx ctx = {
    1bd4:	9505      	str	r5, [sp, #20]
    1bd6:	f8b3 3118 	ldrh.w	r3, [r3, #280]	; 0x118
    1bda:	f8ad 501c 	strh.w	r5, [sp, #28]
    1bde:	f8ad 3014 	strh.w	r3, [sp, #20]
    1be2:	f88d 001d 	strb.w	r0, [sp, #29]
    1be6:	f44f 4360 	mov.w	r3, #57344	; 0xe000
    bt_mesh_model_msg_init(&msg, BT_MESH_MODEL_OP_LINE_ENABLES);
    1bea:	f249 0122 	movw	r1, #36898	; 0x9022
    1bee:	a808      	add	r0, sp, #32
    struct bt_mesh_msg_ctx ctx = {
    1bf0:	9506      	str	r5, [sp, #24]
    1bf2:	f8ad 3018 	strh.w	r3, [sp, #24]
    bt_mesh_model_msg_init(&msg, BT_MESH_MODEL_OP_LINE_ENABLES);
    1bf6:	f00e fd15 	bl	10624 <bt_mesh_model_msg_init>
    net_buf_simple_add_u8(&msg, _groups_status.enableds.val);
    1bfa:	f896 1044 	ldrb.w	r1, [r6, #68]	; 0x44
    1bfe:	a808      	add	r0, sp, #32
    1c00:	f021 fec1 	bl	23986 <net_buf_simple_add_u8>
    SYS_LOG_INF("buf %u: %s", msg.len, bt_hex(msg.data, msg.len));
    1c04:	f8bd 7024 	ldrh.w	r7, [sp, #36]	; 0x24
    1c08:	9808      	ldr	r0, [sp, #32]
    1c0a:	4639      	mov	r1, r7
    1c0c:	f004 ff74 	bl	6af8 <bt_hex>
    1c10:	4b14      	ldr	r3, [pc, #80]	; (1c64 <_line_enables_status_work+0xc0>)
    1c12:	9002      	str	r0, [sp, #8]
    1c14:	4a14      	ldr	r2, [pc, #80]	; (1c68 <_line_enables_status_work+0xc4>)
    1c16:	4912      	ldr	r1, [pc, #72]	; (1c60 <_line_enables_status_work+0xbc>)
    1c18:	9403      	str	r4, [sp, #12]
    1c1a:	e88d 0090 	stmia.w	sp, {r4, r7}
    1c1e:	4816      	ldr	r0, [pc, #88]	; (1c78 <_line_enables_status_work+0xd4>)
    1c20:	f001 faee 	bl	3200 <printk>
    
    error = bt_mesh_model_send(_groups_status.model, &ctx, &msg, NULL, NULL);
    1c24:	9500      	str	r5, [sp, #0]
    1c26:	462b      	mov	r3, r5
    1c28:	aa08      	add	r2, sp, #32
    1c2a:	a905      	add	r1, sp, #20
    1c2c:	6830      	ldr	r0, [r6, #0]
    1c2e:	f00e fd22 	bl	10676 <bt_mesh_model_send>
    if (error != 0) {
    1c32:	b150      	cbz	r0, 1c4a <_line_enables_status_work+0xa6>
        SYS_LOG_ERR("Send failed with error: %d", error);
    1c34:	9001      	str	r0, [sp, #4]
    1c36:	9402      	str	r4, [sp, #8]
    1c38:	9400      	str	r4, [sp, #0]
    1c3a:	4b0a      	ldr	r3, [pc, #40]	; (1c64 <_line_enables_status_work+0xc0>)
    1c3c:	4a0f      	ldr	r2, [pc, #60]	; (1c7c <_line_enables_status_work+0xd8>)
    1c3e:	4908      	ldr	r1, [pc, #32]	; (1c60 <_line_enables_status_work+0xbc>)
    1c40:	480f      	ldr	r0, [pc, #60]	; (1c80 <_line_enables_status_work+0xdc>)
    1c42:	f001 fadd 	bl	3200 <printk>
    } else {
        SYS_LOG_INF("Send successed");
    }
}
    1c46:	b011      	add	sp, #68	; 0x44
    1c48:	bdf0      	pop	{r4, r5, r6, r7, pc}
        SYS_LOG_INF("Send successed");
    1c4a:	9401      	str	r4, [sp, #4]
    1c4c:	9400      	str	r4, [sp, #0]
    1c4e:	4b05      	ldr	r3, [pc, #20]	; (1c64 <_line_enables_status_work+0xc0>)
    1c50:	4a05      	ldr	r2, [pc, #20]	; (1c68 <_line_enables_status_work+0xc4>)
    1c52:	4903      	ldr	r1, [pc, #12]	; (1c60 <_line_enables_status_work+0xbc>)
    1c54:	480b      	ldr	r0, [pc, #44]	; (1c84 <_line_enables_status_work+0xe0>)
    1c56:	f001 fad3 	bl	3200 <printk>
}
    1c5a:	e7f4      	b.n	1c46 <_line_enables_status_work+0xa2>
    1c5c:	0002a7a7 	.word	0x0002a7a7
    1c60:	000267ce 	.word	0x000267ce
    1c64:	00026fc9 	.word	0x00026fc9
    1c68:	00026801 	.word	0x00026801
    1c6c:	00026c5a 	.word	0x00026c5a
    1c70:	2000ada0 	.word	0x2000ada0
    1c74:	2000b6f4 	.word	0x2000b6f4
    1c78:	000271b6 	.word	0x000271b6
    1c7c:	000267c7 	.word	0x000267c7
    1c80:	00027221 	.word	0x00027221
    1c84:	0002724c 	.word	0x0002724c

00001c88 <_groups_status_send>:
    k_delayed_work_submit(&_groups_status.timer, 10);
}


static void _groups_status_send(bool glist, struct net_buf_simple* buf)
{
    1c88:	e92d 41f0 	stmdb	sp!, {r4, r5, r6, r7, r8, lr}
    1c8c:	b090      	sub	sp, #64	; 0x40
    SYS_LOG_INF("");
    1c8e:	4d47      	ldr	r5, [pc, #284]	; (1dac <_groups_status_send+0x124>)
    1c90:	4b47      	ldr	r3, [pc, #284]	; (1db0 <_groups_status_send+0x128>)
    1c92:	4a48      	ldr	r2, [pc, #288]	; (1db4 <_groups_status_send+0x12c>)
    1c94:	9501      	str	r5, [sp, #4]
{
    1c96:	4680      	mov	r8, r0
    1c98:	460f      	mov	r7, r1
    SYS_LOG_INF("");
    1c9a:	9500      	str	r5, [sp, #0]
    1c9c:	4946      	ldr	r1, [pc, #280]	; (1db8 <_groups_status_send+0x130>)
    1c9e:	4847      	ldr	r0, [pc, #284]	; (1dbc <_groups_status_send+0x134>)
    1ca0:	4e47      	ldr	r6, [pc, #284]	; (1dc0 <_groups_status_send+0x138>)
    1ca2:	f001 faad 	bl	3200 <printk>
    int error;
    NET_BUF_SIMPLE_DEFINE(msg, 2 + 12 + 4);
    1ca6:	2400      	movs	r4, #0
    1ca8:	ab0b      	add	r3, sp, #44	; 0x2c
    1caa:	2212      	movs	r2, #18
    1cac:	9308      	str	r3, [sp, #32]
    1cae:	930a      	str	r3, [sp, #40]	; 0x28
    1cb0:	f8ad 4024 	strh.w	r4, [sp, #36]	; 0x24
    1cb4:	f8ad 2026 	strh.w	r2, [sp, #38]	; 0x26

    u8_t len;
    u8_t ttl = bt_mesh_default_ttl_get();
    1cb8:	f012 fa40 	bl	1413c <bt_mesh_default_ttl_get>
    struct bt_mesh_msg_ctx ctx = {
        .net_idx = bt_mesh.sub[0].net_idx,
    1cbc:	4b41      	ldr	r3, [pc, #260]	; (1dc4 <_groups_status_send+0x13c>)
    struct bt_mesh_msg_ctx ctx = {
    1cbe:	9405      	str	r4, [sp, #20]
    1cc0:	f8b3 3118 	ldrh.w	r3, [r3, #280]	; 0x118
    1cc4:	f8ad 3014 	strh.w	r3, [sp, #20]
    1cc8:	f44f 4360 	mov.w	r3, #57344	; 0xe000
    1ccc:	9406      	str	r4, [sp, #24]
    1cce:	f8ad 401c 	strh.w	r4, [sp, #28]
    1cd2:	f8ad 3018 	strh.w	r3, [sp, #24]
    1cd6:	f88d 001d 	strb.w	r0, [sp, #29]
        .app_idx = _app_idx,
        .addr = STATUS_DESTINATION_GROUP_ADDR,
        .send_ttl = ttl,
    };

    if (glist) {
    1cda:	f1b8 0f00 	cmp.w	r8, #0
    1cde:	d050      	beq.n	1d82 <_groups_status_send+0xfa>

        bt_mesh_model_msg_init(&msg, BT_MESH_MODEL_OP_GROUPS_LIST);
    1ce0:	f249 0121 	movw	r1, #36897	; 0x9021
    1ce4:	a808      	add	r0, sp, #32
    1ce6:	f00e fc9d 	bl	10624 <bt_mesh_model_msg_init>
    
        u8_t glist_info_0 = GLIST_INFO_0(_groups_status.glist.line, 
    1cea:	f896 1030 	ldrb.w	r1, [r6, #48]	; 0x30
    1cee:	f896 3038 	ldrb.w	r3, [r6, #56]	; 0x38
                                        _groups_status.glist.gbits);

        u8_t glist_info_1 = GLIST_INFO_1(_groups_status.glist.pno, 
    1cf2:	f896 2039 	ldrb.w	r2, [r6, #57]	; 0x39
        u8_t glist_info_0 = GLIST_INFO_0(_groups_status.glist.line, 
    1cf6:	f001 010f 	and.w	r1, r1, #15
    1cfa:	ea41 1103 	orr.w	r1, r1, r3, lsl #4
        u8_t glist_info_1 = GLIST_INFO_1(_groups_status.glist.pno, 
    1cfe:	f896 303a 	ldrb.w	r3, [r6, #58]	; 0x3a
    1d02:	f003 040f 	and.w	r4, r3, #15
    1d06:	ea44 1402 	orr.w	r4, r4, r2, lsl #4
                                        _groups_status.glist.pid);

        
        ++_groups_status.glist.pid;
    1d0a:	3301      	adds	r3, #1
        u8_t glist_info_1 = GLIST_INFO_1(_groups_status.glist.pno, 
    1d0c:	b2e4      	uxtb	r4, r4

        net_buf_simple_add_u8(&msg, glist_info_0);
    1d0e:	b2c9      	uxtb	r1, r1
    1d10:	a808      	add	r0, sp, #32
        ++_groups_status.glist.pid;
    1d12:	f886 303a 	strb.w	r3, [r6, #58]	; 0x3a
        net_buf_simple_add_u8(&msg, glist_info_0);
    1d16:	f021 fe36 	bl	23986 <net_buf_simple_add_u8>
        net_buf_simple_add_u8(&msg, glist_info_1);
    1d1a:	4621      	mov	r1, r4
    1d1c:	a808      	add	r0, sp, #32
    1d1e:	f021 fe32 	bl	23986 <net_buf_simple_add_u8>

        len = buf->len > GLIST_DATA_LEN_MAX ? GLIST_DATA_LEN_MAX : buf->len;
    1d22:	88bc      	ldrh	r4, [r7, #4]
    1d24:	2c07      	cmp	r4, #7
    1d26:	d836      	bhi.n	1d96 <_groups_status_send+0x10e>

    } else {

        bt_mesh_model_msg_init(&msg, BT_MESH_MODEL_OP_GROUPS_COUNT);
        len = buf->len > GCOUNT_DATA_LEN_MAX ? GCOUNT_DATA_LEN_MAX : buf->len;
    1d28:	b2e4      	uxtb	r4, r4
    }
    

    net_buf_simple_add_mem(&msg, buf->data, len);
    1d2a:	4622      	mov	r2, r4
    1d2c:	6839      	ldr	r1, [r7, #0]
    1d2e:	a808      	add	r0, sp, #32
    1d30:	f021 fe20 	bl	23974 <net_buf_simple_add_mem>
    SYS_LOG_INF("buf %u: %s", len, bt_hex(msg.data, msg.len));
    1d34:	f8bd 1024 	ldrh.w	r1, [sp, #36]	; 0x24
    1d38:	9808      	ldr	r0, [sp, #32]
    1d3a:	f004 fedd 	bl	6af8 <bt_hex>
    1d3e:	4b1c      	ldr	r3, [pc, #112]	; (1db0 <_groups_status_send+0x128>)
    1d40:	4a1c      	ldr	r2, [pc, #112]	; (1db4 <_groups_status_send+0x12c>)
    1d42:	9002      	str	r0, [sp, #8]
    1d44:	491c      	ldr	r1, [pc, #112]	; (1db8 <_groups_status_send+0x130>)
    1d46:	9503      	str	r5, [sp, #12]
    1d48:	9401      	str	r4, [sp, #4]
    1d4a:	9500      	str	r5, [sp, #0]
    1d4c:	481e      	ldr	r0, [pc, #120]	; (1dc8 <_groups_status_send+0x140>)
    1d4e:	f001 fa57 	bl	3200 <printk>
    
    // remove sent-data.
    net_buf_simple_pull(buf, len);
    1d52:	4621      	mov	r1, r4
    1d54:	4638      	mov	r0, r7
    1d56:	f021 fe72 	bl	23a3e <net_buf_simple_pull>

    error = bt_mesh_model_send(_groups_status.model, &ctx, &msg, NULL, NULL);
    1d5a:	2300      	movs	r3, #0
    1d5c:	9300      	str	r3, [sp, #0]
    1d5e:	aa08      	add	r2, sp, #32
    1d60:	a905      	add	r1, sp, #20
    1d62:	6830      	ldr	r0, [r6, #0]
    1d64:	f00e fc87 	bl	10676 <bt_mesh_model_send>
    if (error != 0) {
    1d68:	b1b8      	cbz	r0, 1d9a <_groups_status_send+0x112>
        SYS_LOG_ERR("Send failed with error: %d", error);
    1d6a:	9001      	str	r0, [sp, #4]
    1d6c:	9502      	str	r5, [sp, #8]
    1d6e:	9500      	str	r5, [sp, #0]
    1d70:	4b0f      	ldr	r3, [pc, #60]	; (1db0 <_groups_status_send+0x128>)
    1d72:	4a16      	ldr	r2, [pc, #88]	; (1dcc <_groups_status_send+0x144>)
    1d74:	4910      	ldr	r1, [pc, #64]	; (1db8 <_groups_status_send+0x130>)
    1d76:	4816      	ldr	r0, [pc, #88]	; (1dd0 <_groups_status_send+0x148>)
    1d78:	f001 fa42 	bl	3200 <printk>
    } else {
        SYS_LOG_INF("Send successed");
    }
}
    1d7c:	b010      	add	sp, #64	; 0x40
    1d7e:	e8bd 81f0 	ldmia.w	sp!, {r4, r5, r6, r7, r8, pc}
        bt_mesh_model_msg_init(&msg, BT_MESH_MODEL_OP_GROUPS_COUNT);
    1d82:	f249 0120 	movw	r1, #36896	; 0x9020
    1d86:	a808      	add	r0, sp, #32
    1d88:	f00e fc4c 	bl	10624 <bt_mesh_model_msg_init>
        len = buf->len > GCOUNT_DATA_LEN_MAX ? GCOUNT_DATA_LEN_MAX : buf->len;
    1d8c:	88bc      	ldrh	r4, [r7, #4]
    1d8e:	2c08      	cmp	r4, #8
    1d90:	d9ca      	bls.n	1d28 <_groups_status_send+0xa0>
    1d92:	2408      	movs	r4, #8
    1d94:	e7c9      	b.n	1d2a <_groups_status_send+0xa2>
        len = buf->len > GLIST_DATA_LEN_MAX ? GLIST_DATA_LEN_MAX : buf->len;
    1d96:	2407      	movs	r4, #7
    1d98:	e7c7      	b.n	1d2a <_groups_status_send+0xa2>
        SYS_LOG_INF("Send successed");
    1d9a:	9501      	str	r5, [sp, #4]
    1d9c:	9500      	str	r5, [sp, #0]
    1d9e:	4b04      	ldr	r3, [pc, #16]	; (1db0 <_groups_status_send+0x128>)
    1da0:	4a04      	ldr	r2, [pc, #16]	; (1db4 <_groups_status_send+0x12c>)
    1da2:	4905      	ldr	r1, [pc, #20]	; (1db8 <_groups_status_send+0x130>)
    1da4:	480b      	ldr	r0, [pc, #44]	; (1dd4 <_groups_status_send+0x14c>)
    1da6:	f001 fa2b 	bl	3200 <printk>
}
    1daa:	e7e7      	b.n	1d7c <_groups_status_send+0xf4>
    1dac:	0002a7a7 	.word	0x0002a7a7
    1db0:	00026fe3 	.word	0x00026fe3
    1db4:	00026801 	.word	0x00026801
    1db8:	000267ce 	.word	0x000267ce
    1dbc:	00026c5a 	.word	0x00026c5a
    1dc0:	2000ada0 	.word	0x2000ada0
    1dc4:	2000b6f4 	.word	0x2000b6f4
    1dc8:	000271b6 	.word	0x000271b6
    1dcc:	000267c7 	.word	0x000267c7
    1dd0:	00027221 	.word	0x00027221
    1dd4:	0002724c 	.word	0x0002724c

00001dd8 <_status_store>:
{
    1dd8:	b507      	push	{r0, r1, r2, lr}
    error = hub_status_store_set(store);
    1dda:	f7ff f8e3 	bl	fa4 <hub_status_store_set>
    if (error)
    1dde:	b950      	cbnz	r0, 1df6 <_status_store+0x1e>
    hub_setting_get(&setting_data, &setting_len);
    1de0:	f10d 0102 	add.w	r1, sp, #2
    1de4:	a801      	add	r0, sp, #4
    1de6:	f7ff fb37 	bl	1458 <hub_setting_get>
    bt_mesh_model_setting_val_update((&models0[1]), 
    1dea:	f8bd 2002 	ldrh.w	r2, [sp, #2]
    1dee:	9901      	ldr	r1, [sp, #4]
    1df0:	4802      	ldr	r0, [pc, #8]	; (1dfc <_status_store+0x24>)
    1df2:	f00e fde5 	bl	109c0 <bt_mesh_model_setting_val_update>
}
    1df6:	b003      	add	sp, #12
    1df8:	f85d fb04 	ldr.w	pc, [sp], #4
    1dfc:	2000afc0 	.word	0x2000afc0

00001e00 <_prov_complete>:
{
    1e00:	b51f      	push	{r0, r1, r2, r3, r4, lr}
    _net_idx = net_idx;
    1e02:	4b12      	ldr	r3, [pc, #72]	; (1e4c <_prov_complete+0x4c>)
    SYS_LOG_INF("net idx %u", net_idx);
    1e04:	4c12      	ldr	r4, [pc, #72]	; (1e50 <_prov_complete+0x50>)
    _net_idx = net_idx;
    1e06:	8018      	strh	r0, [r3, #0]
    SYS_LOG_INF("net idx %u", net_idx);
    1e08:	4a12      	ldr	r2, [pc, #72]	; (1e54 <_prov_complete+0x54>)
    1e0a:	9001      	str	r0, [sp, #4]
    1e0c:	4b12      	ldr	r3, [pc, #72]	; (1e58 <_prov_complete+0x58>)
    1e0e:	9402      	str	r4, [sp, #8]
    1e10:	9400      	str	r4, [sp, #0]
    1e12:	4912      	ldr	r1, [pc, #72]	; (1e5c <_prov_complete+0x5c>)
    1e14:	4812      	ldr	r0, [pc, #72]	; (1e60 <_prov_complete+0x60>)
    1e16:	f001 f9f3 	bl	3200 <printk>
    if(_setting_loading)
    1e1a:	4b12      	ldr	r3, [pc, #72]	; (1e64 <_prov_complete+0x64>)
    1e1c:	781b      	ldrb	r3, [r3, #0]
    1e1e:	b993      	cbnz	r3, 1e46 <_prov_complete+0x46>
    SYS_LOG_INF("Provisioned completed");
    1e20:	4b0d      	ldr	r3, [pc, #52]	; (1e58 <_prov_complete+0x58>)
    1e22:	4a0c      	ldr	r2, [pc, #48]	; (1e54 <_prov_complete+0x54>)
    1e24:	9401      	str	r4, [sp, #4]
    1e26:	9400      	str	r4, [sp, #0]
    1e28:	490c      	ldr	r1, [pc, #48]	; (1e5c <_prov_complete+0x5c>)
    1e2a:	480f      	ldr	r0, [pc, #60]	; (1e68 <_prov_complete+0x68>)
    1e2c:	f001 f9e8 	bl	3200 <printk>
    k_delayed_work_init(&_configure_1st_work, _configure_1st);
    1e30:	490e      	ldr	r1, [pc, #56]	; (1e6c <_prov_complete+0x6c>)
    1e32:	480f      	ldr	r0, [pc, #60]	; (1e70 <_prov_complete+0x70>)
    1e34:	f024 f88e 	bl	25f54 <k_delayed_work_init>
    k_delayed_work_submit(&_configure_1st_work, 100);
    1e38:	480d      	ldr	r0, [pc, #52]	; (1e70 <_prov_complete+0x70>)
    1e3a:	2164      	movs	r1, #100	; 0x64
}
    1e3c:	b004      	add	sp, #16
    1e3e:	e8bd 4010 	ldmia.w	sp!, {r4, lr}
    k_delayed_work_submit(&_configure_1st_work, 100);
    1e42:	f7ff bd15 	b.w	1870 <k_delayed_work_submit>
}
    1e46:	b004      	add	sp, #16
    1e48:	bd10      	pop	{r4, pc}
    1e4a:	bf00      	nop
    1e4c:	200002d4 	.word	0x200002d4
    1e50:	0002a7a7 	.word	0x0002a7a7
    1e54:	00026801 	.word	0x00026801
    1e58:	00026f08 	.word	0x00026f08
    1e5c:	000267ce 	.word	0x000267ce
    1e60:	000272b8 	.word	0x000272b8
    1e64:	200002e4 	.word	0x200002e4
    1e68:	000272d3 	.word	0x000272d3
    1e6c:	00001881 	.word	0x00001881
    1e70:	2000022c 	.word	0x2000022c

00001e74 <_groups_count_get>:
{
    1e74:	b538      	push	{r3, r4, r5, lr}
    1e76:	4605      	mov	r5, r0
    if( main == 0)
    1e78:	460c      	mov	r4, r1
    1e7a:	b301      	cbz	r1, 1ebe <_groups_count_get+0x4a>
    u16_t mod = bt_mesh_primary_addr() % main;
    1e7c:	f00e fa74 	bl	10368 <bt_mesh_primary_addr>
    1e80:	fbb0 f1f4 	udiv	r1, r0, r4
    1e84:	fb01 0014 	mls	r0, r1, r4, r0
    if (mod != index)
    1e88:	b280      	uxth	r0, r0
    1e8a:	42a8      	cmp	r0, r5
    1e8c:	d117      	bne.n	1ebe <_groups_count_get+0x4a>
 * @return Previous value of @a target.
 */
#ifdef CONFIG_ATOMIC_OPERATIONS_BUILTIN
static inline atomic_val_t atomic_or(atomic_t *target, atomic_val_t value)
{
	return __atomic_fetch_or(target, value, __ATOMIC_SEQ_CST);
    1e8e:	f3bf 8f5b 	dmb	ish
    1e92:	4c0b      	ldr	r4, [pc, #44]	; (1ec0 <_groups_count_get+0x4c>)
    1e94:	e854 3f00 	ldrex	r3, [r4]
    1e98:	f443 7380 	orr.w	r3, r3, #256	; 0x100
    1e9c:	e844 3200 	strex	r2, r3, [r4]
    1ea0:	2a00      	cmp	r2, #0
    1ea2:	d1f7      	bne.n	1e94 <_groups_count_get+0x20>
    1ea4:	f3bf 8f5b 	dmb	ish
    k_delayed_work_cancel(&_groups_status.timer);
    1ea8:	f1a4 0028 	sub.w	r0, r4, #40	; 0x28
    1eac:	f024 f862 	bl	25f74 <k_delayed_work_cancel>
    k_delayed_work_submit(&_groups_status.timer, 10);
    1eb0:	f1a4 0028 	sub.w	r0, r4, #40	; 0x28
    1eb4:	210a      	movs	r1, #10
}
    1eb6:	e8bd 4038 	ldmia.w	sp!, {r3, r4, r5, lr}
    k_delayed_work_submit(&_groups_status.timer, 10);
    1eba:	f7ff bcd9 	b.w	1870 <k_delayed_work_submit>
    1ebe:	bd38      	pop	{r3, r4, r5, pc}
    1ec0:	2000adcc 	.word	0x2000adcc

00001ec4 <_enableds_set>:
{
    1ec4:	b537      	push	{r0, r1, r2, r4, r5, lr}
    1ec6:	4614      	mov	r4, r2
    1ec8:	4605      	mov	r5, r0
    hub_enables_set(enableds);
    1eca:	f7fe ffc7 	bl	e5c <hub_enables_set>
    hub_setting_get(&setting_data, &setting_len);
    1ece:	f10d 0102 	add.w	r1, sp, #2
    1ed2:	a801      	add	r0, sp, #4
    1ed4:	f7ff fac0 	bl	1458 <hub_setting_get>
    bt_mesh_model_setting_val_update((&models0[1]), 
    1ed8:	f8bd 2002 	ldrh.w	r2, [sp, #2]
    1edc:	9901      	ldr	r1, [sp, #4]
    1ede:	4809      	ldr	r0, [pc, #36]	; (1f04 <_enableds_set+0x40>)
    1ee0:	f00e fd6e 	bl	109c0 <bt_mesh_model_setting_val_update>
    if (ack) {
    1ee4:	b15c      	cbz	r4, 1efe <_enableds_set+0x3a>
        _groups_status.enableds.val = enableds;
    1ee6:	4c08      	ldr	r4, [pc, #32]	; (1f08 <_enableds_set+0x44>)
        k_delayed_work_cancel(&_groups_status.enableds.timer);
    1ee8:	f104 0048 	add.w	r0, r4, #72	; 0x48
        _groups_status.enableds.val = enableds;
    1eec:	f884 5044 	strb.w	r5, [r4, #68]	; 0x44
        k_delayed_work_cancel(&_groups_status.enableds.timer);
    1ef0:	f024 f840 	bl	25f74 <k_delayed_work_cancel>
        k_delayed_work_submit(&_groups_status.enableds.timer, 10);
    1ef4:	210a      	movs	r1, #10
    1ef6:	f104 0048 	add.w	r0, r4, #72	; 0x48
    1efa:	f7ff fcb9 	bl	1870 <k_delayed_work_submit>
}
    1efe:	b003      	add	sp, #12
    1f00:	bd30      	pop	{r4, r5, pc}
    1f02:	bf00      	nop
    1f04:	2000afc0 	.word	0x2000afc0
    1f08:	2000ada0 	.word	0x2000ada0

00001f0c <_provision>:
{   
    1f0c:	b530      	push	{r4, r5, lr}
	return flash_unicast;
    1f0e:	4b19      	ldr	r3, [pc, #100]	; (1f74 <_provision+0x68>)
    _addr = flash_unicast_get();
    1f10:	4d19      	ldr	r5, [pc, #100]	; (1f78 <_provision+0x6c>)
    1f12:	881b      	ldrh	r3, [r3, #0]
    SYS_LOG_INF("Address going to provision is %d",_addr);
    1f14:	4c19      	ldr	r4, [pc, #100]	; (1f7c <_provision+0x70>)
    _addr = flash_unicast_get();
    1f16:	802b      	strh	r3, [r5, #0]
{   
    1f18:	b085      	sub	sp, #20
    SYS_LOG_INF("Address going to provision is %d",_addr);
    1f1a:	4a19      	ldr	r2, [pc, #100]	; (1f80 <_provision+0x74>)
    1f1c:	9301      	str	r3, [sp, #4]
    1f1e:	4919      	ldr	r1, [pc, #100]	; (1f84 <_provision+0x78>)
    1f20:	4b19      	ldr	r3, [pc, #100]	; (1f88 <_provision+0x7c>)
    1f22:	9402      	str	r4, [sp, #8]
    1f24:	9400      	str	r4, [sp, #0]
    1f26:	4819      	ldr	r0, [pc, #100]	; (1f8c <_provision+0x80>)
    1f28:	f001 f96a 	bl	3200 <printk>
    int err = bt_mesh_provision(_net_key,
    1f2c:	4b18      	ldr	r3, [pc, #96]	; (1f90 <_provision+0x84>)
    1f2e:	4819      	ldr	r0, [pc, #100]	; (1f94 <_provision+0x88>)
    1f30:	8819      	ldrh	r1, [r3, #0]
    1f32:	4b19      	ldr	r3, [pc, #100]	; (1f98 <_provision+0x8c>)
    1f34:	9301      	str	r3, [sp, #4]
    1f36:	882b      	ldrh	r3, [r5, #0]
    1f38:	9300      	str	r3, [sp, #0]
    1f3a:	2300      	movs	r3, #0
    1f3c:	461a      	mov	r2, r3
    1f3e:	f00a fac7 	bl	c4d0 <bt_mesh_provision>
    if (err == -EALREADY) {
    1f42:	f110 0f45 	cmn.w	r0, #69	; 0x45
    1f46:	d109      	bne.n	1f5c <_provision+0x50>
        SYS_LOG_DBG("Using stored settings");
    1f48:	9401      	str	r4, [sp, #4]
    1f4a:	9400      	str	r4, [sp, #0]
    1f4c:	4b0e      	ldr	r3, [pc, #56]	; (1f88 <_provision+0x7c>)
    1f4e:	4a13      	ldr	r2, [pc, #76]	; (1f9c <_provision+0x90>)
    1f50:	490c      	ldr	r1, [pc, #48]	; (1f84 <_provision+0x78>)
    1f52:	4813      	ldr	r0, [pc, #76]	; (1fa0 <_provision+0x94>)
    1f54:	f001 f954 	bl	3200 <printk>
}
    1f58:	b005      	add	sp, #20
    1f5a:	bd30      	pop	{r4, r5, pc}
    } else if (err) {
    1f5c:	2800      	cmp	r0, #0
    1f5e:	d0fb      	beq.n	1f58 <_provision+0x4c>
        SYS_LOG_DBG("Provisioning failed (err %d)", err);
    1f60:	9001      	str	r0, [sp, #4]
    1f62:	9402      	str	r4, [sp, #8]
    1f64:	9400      	str	r4, [sp, #0]
    1f66:	4b08      	ldr	r3, [pc, #32]	; (1f88 <_provision+0x7c>)
    1f68:	4a0c      	ldr	r2, [pc, #48]	; (1f9c <_provision+0x90>)
    1f6a:	4906      	ldr	r1, [pc, #24]	; (1f84 <_provision+0x78>)
    1f6c:	480d      	ldr	r0, [pc, #52]	; (1fa4 <_provision+0x98>)
    1f6e:	f001 f947 	bl	3200 <printk>
}
    1f72:	e7f1      	b.n	1f58 <_provision+0x4c>
    1f74:	200002e6 	.word	0x200002e6
    1f78:	20000204 	.word	0x20000204
    1f7c:	0002a7a7 	.word	0x0002a7a7
    1f80:	00026801 	.word	0x00026801
    1f84:	000267ce 	.word	0x000267ce
    1f88:	00026f91 	.word	0x00026f91
    1f8c:	000272f9 	.word	0x000272f9
    1f90:	200002d4 	.word	0x200002d4
    1f94:	000272a8 	.word	0x000272a8
    1f98:	00027102 	.word	0x00027102
    1f9c:	00026c53 	.word	0x00026c53
    1fa0:	0002732a 	.word	0x0002732a
    1fa4:	00027350 	.word	0x00027350

00001fa8 <_mesh_hub_status_report>:
{
    1fa8:	b5f0      	push	{r4, r5, r6, r7, lr}
    struct net_buf_simple *msg = vnd_models[0].pub->msg;
    1faa:	4c16      	ldr	r4, [pc, #88]	; (2004 <_mesh_hub_status_report+0x5c>)
    1fac:	68a3      	ldr	r3, [r4, #8]
    1fae:	695d      	ldr	r5, [r3, #20]
{
    1fb0:	b085      	sub	sp, #20
    1fb2:	4606      	mov	r6, r0
    1fb4:	460f      	mov	r7, r1
    bt_mesh_model_msg_init(msg, BT_MESH_MODEL_OP_VND_STATUS);
    1fb6:	4628      	mov	r0, r5
    1fb8:	f248 2107 	movw	r1, #33287	; 0x8207
    1fbc:	f00e fb32 	bl	10624 <bt_mesh_model_msg_init>
    net_buf_simple_add_mem(msg, values, lines);
    1fc0:	463a      	mov	r2, r7
    1fc2:	4631      	mov	r1, r6
    1fc4:	4628      	mov	r0, r5
    1fc6:	f021 fcd5 	bl	23974 <net_buf_simple_add_mem>
    vnd_models[0].pub->ttl = bt_mesh_default_ttl_get();
    1fca:	68a5      	ldr	r5, [r4, #8]
    1fcc:	f012 f8b6 	bl	1413c <bt_mesh_default_ttl_get>
    1fd0:	7228      	strb	r0, [r5, #8]
    error = bt_mesh_model_publish(&vnd_models[0]);
    1fd2:	4620      	mov	r0, r4
    1fd4:	f00e fb76 	bl	106c4 <bt_mesh_model_publish>
    1fd8:	4b0b      	ldr	r3, [pc, #44]	; (2008 <_mesh_hub_status_report+0x60>)
    if (error != 0) {
    1fda:	b150      	cbz	r0, 1ff2 <_mesh_hub_status_report+0x4a>
        SYS_LOG_ERR("publish failed with error: %d", error);
    1fdc:	9302      	str	r3, [sp, #8]
    1fde:	9001      	str	r0, [sp, #4]
    1fe0:	9300      	str	r3, [sp, #0]
    1fe2:	4a0a      	ldr	r2, [pc, #40]	; (200c <_mesh_hub_status_report+0x64>)
    1fe4:	4b0a      	ldr	r3, [pc, #40]	; (2010 <_mesh_hub_status_report+0x68>)
    1fe6:	490b      	ldr	r1, [pc, #44]	; (2014 <_mesh_hub_status_report+0x6c>)
    1fe8:	480b      	ldr	r0, [pc, #44]	; (2018 <_mesh_hub_status_report+0x70>)
    1fea:	f001 f909 	bl	3200 <printk>
}
    1fee:	b005      	add	sp, #20
    1ff0:	bdf0      	pop	{r4, r5, r6, r7, pc}
        SYS_LOG_INF("publish successed");
    1ff2:	9301      	str	r3, [sp, #4]
    1ff4:	9300      	str	r3, [sp, #0]
    1ff6:	4a09      	ldr	r2, [pc, #36]	; (201c <_mesh_hub_status_report+0x74>)
    1ff8:	4b05      	ldr	r3, [pc, #20]	; (2010 <_mesh_hub_status_report+0x68>)
    1ffa:	4906      	ldr	r1, [pc, #24]	; (2014 <_mesh_hub_status_report+0x6c>)
    1ffc:	4808      	ldr	r0, [pc, #32]	; (2020 <_mesh_hub_status_report+0x78>)
    1ffe:	f001 f8ff 	bl	3200 <printk>
}
    2002:	e7f4      	b.n	1fee <_mesh_hub_status_report+0x46>
    2004:	2000b2f0 	.word	0x2000b2f0
    2008:	0002a7a7 	.word	0x0002a7a7
    200c:	000267c7 	.word	0x000267c7
    2010:	00026f60 	.word	0x00026f60
    2014:	000267ce 	.word	0x000267ce
    2018:	000271d1 	.word	0x000271d1
    201c:	00026801 	.word	0x00026801
    2020:	000271ff 	.word	0x000271ff

00002024 <_mesh_hub_level_report>:
{
    2024:	b5f0      	push	{r4, r5, r6, r7, lr}
    struct net_buf_simple *msg = vnd_models[0].pub->msg;
    2026:	4c16      	ldr	r4, [pc, #88]	; (2080 <_mesh_hub_level_report+0x5c>)
    2028:	68a3      	ldr	r3, [r4, #8]
    202a:	695d      	ldr	r5, [r3, #20]
{
    202c:	b085      	sub	sp, #20
    202e:	4606      	mov	r6, r0
    2030:	460f      	mov	r7, r1
    bt_mesh_model_msg_init(msg, BT_MESH_MODEL_OP_VND_LEVELS);
    2032:	4628      	mov	r0, r5
    2034:	f248 2108 	movw	r1, #33288	; 0x8208
    2038:	f00e faf4 	bl	10624 <bt_mesh_model_msg_init>
    net_buf_simple_add_mem(msg, values, lines);
    203c:	463a      	mov	r2, r7
    203e:	4631      	mov	r1, r6
    2040:	4628      	mov	r0, r5
    2042:	f021 fc97 	bl	23974 <net_buf_simple_add_mem>
    vnd_models[0].pub->ttl = bt_mesh_default_ttl_get();
    2046:	68a5      	ldr	r5, [r4, #8]
    2048:	f012 f878 	bl	1413c <bt_mesh_default_ttl_get>
    204c:	7228      	strb	r0, [r5, #8]
    error = bt_mesh_model_publish(&vnd_models[0]);
    204e:	4620      	mov	r0, r4
    2050:	f00e fb38 	bl	106c4 <bt_mesh_model_publish>
    2054:	4b0b      	ldr	r3, [pc, #44]	; (2084 <_mesh_hub_level_report+0x60>)
    if (error != 0) {
    2056:	b150      	cbz	r0, 206e <_mesh_hub_level_report+0x4a>
        SYS_LOG_ERR("publish failed with error: %d", error);
    2058:	9302      	str	r3, [sp, #8]
    205a:	9001      	str	r0, [sp, #4]
    205c:	9300      	str	r3, [sp, #0]
    205e:	4a0a      	ldr	r2, [pc, #40]	; (2088 <_mesh_hub_level_report+0x64>)
    2060:	4b0a      	ldr	r3, [pc, #40]	; (208c <_mesh_hub_level_report+0x68>)
    2062:	490b      	ldr	r1, [pc, #44]	; (2090 <_mesh_hub_level_report+0x6c>)
    2064:	480b      	ldr	r0, [pc, #44]	; (2094 <_mesh_hub_level_report+0x70>)
    2066:	f001 f8cb 	bl	3200 <printk>
}
    206a:	b005      	add	sp, #20
    206c:	bdf0      	pop	{r4, r5, r6, r7, pc}
        SYS_LOG_INF("publish successed");
    206e:	9301      	str	r3, [sp, #4]
    2070:	9300      	str	r3, [sp, #0]
    2072:	4a09      	ldr	r2, [pc, #36]	; (2098 <_mesh_hub_level_report+0x74>)
    2074:	4b05      	ldr	r3, [pc, #20]	; (208c <_mesh_hub_level_report+0x68>)
    2076:	4906      	ldr	r1, [pc, #24]	; (2090 <_mesh_hub_level_report+0x6c>)
    2078:	4808      	ldr	r0, [pc, #32]	; (209c <_mesh_hub_level_report+0x78>)
    207a:	f001 f8c1 	bl	3200 <printk>
}
    207e:	e7f4      	b.n	206a <_mesh_hub_level_report+0x46>
    2080:	2000b2f0 	.word	0x2000b2f0
    2084:	0002a7a7 	.word	0x0002a7a7
    2088:	000267c7 	.word	0x000267c7
    208c:	00026f49 	.word	0x00026f49
    2090:	000267ce 	.word	0x000267ce
    2094:	000271d1 	.word	0x000271d1
    2098:	00026801 	.word	0x00026801
    209c:	000271ff 	.word	0x000271ff

000020a0 <_groups_status_work>:

static void _groups_status_work(struct k_work* work)
{
    20a0:	e92d 4ff0 	stmdb	sp!, {r4, r5, r6, r7, r8, r9, sl, fp, lr}
    // check if tosend-buf has data.

    if (_groups_status.glist.buf->len > 0) {
    20a4:	4e81      	ldr	r6, [pc, #516]	; (22ac <_groups_status_work+0x20c>)
    20a6:	6b71      	ldr	r1, [r6, #52]	; 0x34
    20a8:	8888      	ldrh	r0, [r1, #4]
{
    20aa:	b091      	sub	sp, #68	; 0x44
    20ac:	4635      	mov	r5, r6
    if (_groups_status.glist.buf->len > 0) {
    20ae:	b128      	cbz	r0, 20bc <_groups_status_work+0x1c>

        _groups_status_send(true, _groups_status.glist.buf);
    20b0:	2001      	movs	r0, #1
        return;
    }

    if (_groups_status.gcount.buf->len > 0) {

         _groups_status_send(false, _groups_status.gcount.buf);
    20b2:	f7ff fde9 	bl	1c88 <_groups_status_send>
         k_delayed_work_submit(&_groups_status.timer, 200);
    20b6:	21c8      	movs	r1, #200	; 0xc8
    20b8:	1d30      	adds	r0, r6, #4
    20ba:	e08e      	b.n	21da <_groups_status_work+0x13a>
    if (_groups_status.gcount.buf->len > 0) {
    20bc:	6bf1      	ldr	r1, [r6, #60]	; 0x3c
    20be:	888c      	ldrh	r4, [r1, #4]
    20c0:	2c00      	cmp	r4, #0
    20c2:	d1f6      	bne.n	20b2 <_groups_status_work+0x12>
    20c4:	4626      	mov	r6, r4
 *
 * @return 1 if the bit was set, 0 if it wasn't.
 */
static inline int atomic_test_and_clear_bit(atomic_t *target, int bit)
{
	atomic_val_t mask = ATOMIC_MASK(bit);
    20c6:	2101      	movs	r1, #1
	return __atomic_fetch_and(target, value, __ATOMIC_SEQ_CST);
    20c8:	f105 032c 	add.w	r3, r5, #44	; 0x2c
	atomic_val_t mask = ATOMIC_MASK(bit);
    20cc:	fa01 f206 	lsl.w	r2, r1, r6
	atomic_val_t old;

	old = atomic_and(ATOMIC_ELEM(target, bit), ~mask);
    20d0:	43d7      	mvns	r7, r2
	return __atomic_fetch_and(target, value, __ATOMIC_SEQ_CST);
    20d2:	f3bf 8f5b 	dmb	ish
    20d6:	e853 0f00 	ldrex	r0, [r3]
    20da:	ea00 0e07 	and.w	lr, r0, r7
    20de:	e843 ec00 	strex	ip, lr, [r3]
    20e2:	f1bc 0f00 	cmp.w	ip, #0
    20e6:	d1f6      	bne.n	20d6 <_groups_status_work+0x36>
    20e8:	f3bf 8f5b 	dmb	ish
         return;
    }

    for(int task = 0; task < GROUP_TASKS_COUNT; ++task) {

        if (atomic_test_and_clear_bit(_groups_status.tasks, task)) {
    20ec:	4210      	tst	r0, r2
    20ee:	f000 80d5 	beq.w	229c <_groups_status_work+0x1fc>

            if (task < GROUP_COUNT) { // group-list task, task = line-idx
    20f2:	2e07      	cmp	r6, #7
    20f4:	4f6e      	ldr	r7, [pc, #440]	; (22b0 <_groups_status_work+0x210>)
    20f6:	f8df 81dc 	ldr.w	r8, [pc, #476]	; 22d4 <_groups_status_work+0x234>
    20fa:	f300 8090 	bgt.w	221e <_groups_status_work+0x17e>

                SYS_LOG_INF("group-list, line %u, gbits %u", task, _groups_status.glist.gbits);
    20fe:	9703      	str	r7, [sp, #12]
    2100:	f895 3030 	ldrb.w	r3, [r5, #48]	; 0x30
    2104:	9302      	str	r3, [sp, #8]
    2106:	9601      	str	r6, [sp, #4]
    2108:	4b6a      	ldr	r3, [pc, #424]	; (22b4 <_groups_status_work+0x214>)
    210a:	9700      	str	r7, [sp, #0]
    210c:	4a6a      	ldr	r2, [pc, #424]	; (22b8 <_groups_status_work+0x218>)
    210e:	496b      	ldr	r1, [pc, #428]	; (22bc <_groups_status_work+0x21c>)
    2110:	486b      	ldr	r0, [pc, #428]	; (22c0 <_groups_status_work+0x220>)
    2112:	f001 f875 	bl	3200 <printk>
    2116:	f858 3026 	ldr.w	r3, [r8, r6, lsl #2]
                u8_t len;
                u16_t group;
                u8_t bit;
                struct bt_mesh_model* mod = &modelss[task][0];

                for (int gidx = 0; gidx < CONFIG_BT_MESH_MODEL_GROUP_COUNT; ++gidx) {
    211a:	f04f 0800 	mov.w	r8, #0
    211e:	f103 0912 	add.w	r9, r3, #18
                    
                    group = mod->groups[gidx];
    2122:	f839 ab02 	ldrh.w	sl, [r9], #2
                    if (BT_MESH_ADDR_IS_GROUP(group) && group != VNG_MESH_UNUSED_GROUP) {
    2126:	f50a 4380 	add.w	r3, sl, #16384	; 0x4000
    212a:	b29b      	uxth	r3, r3
    212c:	f5b3 5f7c 	cmp.w	r3, #16128	; 0x3f00
    2130:	d819      	bhi.n	2166 <_groups_status_work+0xc6>
    2132:	f64c 73ff 	movw	r3, #53247	; 0xcfff
    2136:	459a      	cmp	sl, r3
    2138:	d015      	beq.n	2166 <_groups_status_work+0xc6>
                        // msb-first
                        SYS_LOG_INF("\tgroup %04X, idx %u, bbidx %u", group, gidx, bbidx);
    213a:	4a5f      	ldr	r2, [pc, #380]	; (22b8 <_groups_status_work+0x218>)
    213c:	495f      	ldr	r1, [pc, #380]	; (22bc <_groups_status_work+0x21c>)
    213e:	9704      	str	r7, [sp, #16]
    2140:	9403      	str	r4, [sp, #12]
    2142:	f8cd 8008 	str.w	r8, [sp, #8]
    2146:	e88d 0480 	stmia.w	sp, {r7, sl}
    214a:	4b5a      	ldr	r3, [pc, #360]	; (22b4 <_groups_status_work+0x214>)
    214c:	485d      	ldr	r0, [pc, #372]	; (22c4 <_groups_status_work+0x224>)
    214e:	f001 f857 	bl	3200 <printk>
                        for (int bidx = _groups_status.glist.gbits - 1; bidx >= 0; --bidx) {
    2152:	f895 1030 	ldrb.w	r1, [r5, #48]	; 0x30
    2156:	4622      	mov	r2, r4
    2158:	1e48      	subs	r0, r1, #1
                            bit = (group & BIT(bidx)) > 0 ? 1 : 0;
    
                            SET_BUF_BIT(buf, bbidx, bit);
    215a:	f04f 0e01 	mov.w	lr, #1
                        for (int bidx = _groups_status.glist.gbits - 1; bidx >= 0; --bidx) {
    215e:	1c43      	adds	r3, r0, #1
    2160:	d13e      	bne.n	21e0 <_groups_status_work+0x140>
    2162:	440c      	add	r4, r1
    2164:	b2a4      	uxth	r4, r4
                for (int gidx = 0; gidx < CONFIG_BT_MESH_MODEL_GROUP_COUNT; ++gidx) {
    2166:	f108 0801 	add.w	r8, r8, #1
    216a:	f1b8 0f14 	cmp.w	r8, #20
    216e:	d1d8      	bne.n	2122 <_groups_status_work+0x82>
                            ++bbidx;
                        }
                    }
                }
                
                len = (bbidx > 0) ? (bbidx - 1) / 8 /*bits*/ + 1 : 0;
    2170:	b11c      	cbz	r4, 217a <_groups_status_work+0xda>
    2172:	3c01      	subs	r4, #1
    2174:	10e4      	asrs	r4, r4, #3
    2176:	3401      	adds	r4, #1
    2178:	b2e4      	uxtb	r4, r4
                net_buf_simple_add_mem(_groups_status.glist.buf, buf, len);
    217a:	4622      	mov	r2, r4
    217c:	a906      	add	r1, sp, #24
    217e:	6b68      	ldr	r0, [r5, #52]	; 0x34
    2180:	f021 fbf8 	bl	23974 <net_buf_simple_add_mem>
                _groups_status.glist.pno = (len > 0) ? (len - 1) / GLIST_DATA_LEN_MAX + 1 : 0; 
    2184:	2c00      	cmp	r4, #0
    2186:	d048      	beq.n	221a <_groups_status_work+0x17a>
    2188:	f104 38ff 	add.w	r8, r4, #4294967295	; 0xffffffff
    218c:	2307      	movs	r3, #7
    218e:	fb98 f8f3 	sdiv	r8, r8, r3
    2192:	f108 0801 	add.w	r8, r8, #1
    2196:	fa5f f888 	uxtb.w	r8, r8
                _groups_status.glist.pid = 0;
    219a:	2300      	movs	r3, #0
                _groups_status.glist.line = task;
                SYS_LOG_INF("line %u, pno %u, buf %u: %s", task, _groups_status.glist.pno , len, bt_hex(buf, len));
    219c:	4621      	mov	r1, r4
    219e:	a806      	add	r0, sp, #24
                _groups_status.glist.pid = 0;
    21a0:	f885 303a 	strb.w	r3, [r5, #58]	; 0x3a
                _groups_status.glist.pno = (len > 0) ? (len - 1) / GLIST_DATA_LEN_MAX + 1 : 0; 
    21a4:	f885 8039 	strb.w	r8, [r5, #57]	; 0x39
                _groups_status.glist.line = task;
    21a8:	f885 6038 	strb.w	r6, [r5, #56]	; 0x38
                SYS_LOG_INF("line %u, pno %u, buf %u: %s", task, _groups_status.glist.pno , len, bt_hex(buf, len));
    21ac:	f004 fca4 	bl	6af8 <bt_hex>
    21b0:	4942      	ldr	r1, [pc, #264]	; (22bc <_groups_status_work+0x21c>)
    21b2:	9004      	str	r0, [sp, #16]
    21b4:	9705      	str	r7, [sp, #20]
    21b6:	9403      	str	r4, [sp, #12]
    21b8:	f8cd 8008 	str.w	r8, [sp, #8]
    21bc:	9601      	str	r6, [sp, #4]
    21be:	9700      	str	r7, [sp, #0]
    21c0:	4b3c      	ldr	r3, [pc, #240]	; (22b4 <_groups_status_work+0x214>)
    21c2:	4a3d      	ldr	r2, [pc, #244]	; (22b8 <_groups_status_work+0x218>)
    21c4:	4840      	ldr	r0, [pc, #256]	; (22c8 <_groups_status_work+0x228>)
    21c6:	f001 f81b 	bl	3200 <printk>

                if (_groups_status.glist.pno == 0) {
    21ca:	f895 1039 	ldrb.w	r1, [r5, #57]	; 0x39
    21ce:	b911      	cbnz	r1, 21d6 <_groups_status_work+0x136>
                    //groups-list is empty
                    net_buf_simple_add_u8(_groups_status.glist.buf, 0);
    21d0:	6b68      	ldr	r0, [r5, #52]	; 0x34
    21d2:	f021 fbd8 	bl	23986 <net_buf_simple_add_u8>

                    net_buf_simple_add_u8(_groups_status.gcount.buf, edata);

                }

                k_delayed_work_submit(&_groups_status.timer, 10);
    21d6:	483d      	ldr	r0, [pc, #244]	; (22cc <_groups_status_work+0x22c>)
    21d8:	210a      	movs	r1, #10
         k_delayed_work_submit(&_groups_status.timer, 200);
    21da:	f7ff fb49 	bl	1870 <k_delayed_work_submit>
         return;
    21de:	e061      	b.n	22a4 <_groups_status_work+0x204>
    21e0:	ea4f 0cd2 	mov.w	ip, r2, lsr #3
                            SET_BUF_BIT(buf, bbidx, bit);
    21e4:	f10d 0b40 	add.w	fp, sp, #64	; 0x40
                            bit = (group & BIT(bidx)) > 0 ? 1 : 0;
    21e8:	fa2a f300 	lsr.w	r3, sl, r0
                            SET_BUF_BIT(buf, bbidx, bit);
    21ec:	fa1b fc8c 	uxtah	ip, fp, ip
    21f0:	f013 0f01 	tst.w	r3, #1
    21f4:	ea6f 0302 	mvn.w	r3, r2
    21f8:	f81c bc28 	ldrb.w	fp, [ip, #-40]
    21fc:	f003 0307 	and.w	r3, r3, #7
    2200:	fa0e f303 	lsl.w	r3, lr, r3
    2204:	bf14      	ite	ne
    2206:	ea43 030b 	orrne.w	r3, r3, fp
    220a:	ea2b 0303 	biceq.w	r3, fp, r3
                            ++bbidx;
    220e:	3201      	adds	r2, #1
                            SET_BUF_BIT(buf, bbidx, bit);
    2210:	f80c 3c28 	strb.w	r3, [ip, #-40]
                            ++bbidx;
    2214:	b292      	uxth	r2, r2
                        for (int bidx = _groups_status.glist.gbits - 1; bidx >= 0; --bidx) {
    2216:	3801      	subs	r0, #1
    2218:	e7a1      	b.n	215e <_groups_status_work+0xbe>
                _groups_status.glist.pno = (len > 0) ? (len - 1) / GLIST_DATA_LEN_MAX + 1 : 0; 
    221a:	46a0      	mov	r8, r4
    221c:	e7bd      	b.n	219a <_groups_status_work+0xfa>
                SYS_LOG_INF("group-count");
    221e:	9701      	str	r7, [sp, #4]
    2220:	9700      	str	r7, [sp, #0]
    2222:	4b24      	ldr	r3, [pc, #144]	; (22b4 <_groups_status_work+0x214>)
    2224:	4a24      	ldr	r2, [pc, #144]	; (22b8 <_groups_status_work+0x218>)
    2226:	4925      	ldr	r1, [pc, #148]	; (22bc <_groups_status_work+0x21c>)
    2228:	4829      	ldr	r0, [pc, #164]	; (22d0 <_groups_status_work+0x230>)
    222a:	f000 ffe9 	bl	3200 <printk>
                net_buf_simple_reset(_groups_status.gcount.buf);
    222e:	6beb      	ldr	r3, [r5, #60]	; 0x3c
 *
 *  @param buf Buffer to reset.
 */
static inline void net_buf_simple_reset(struct net_buf_simple *buf)
{
	buf->len  = 0;
    2230:	2400      	movs	r4, #0
	buf->data = buf->__buf;
    2232:	689a      	ldr	r2, [r3, #8]
	buf->len  = 0;
    2234:	809c      	strh	r4, [r3, #4]
	buf->data = buf->__buf;
    2236:	601a      	str	r2, [r3, #0]
                        if (BT_MESH_ADDR_IS_GROUP(group) && group != VNG_MESH_UNUSED_GROUP) {
    2238:	f64c 77ff 	movw	r7, #53247	; 0xcfff
                    mod = &modelss[line][0];
    223c:	f858 3024 	ldr.w	r3, [r8, r4, lsl #2]
                    gcount = 0;
    2240:	2600      	movs	r6, #0
    2242:	f103 0e12 	add.w	lr, r3, #18
    2246:	333a      	adds	r3, #58	; 0x3a
                        group = mod->groups[gidx];
    2248:	f83e 2b02 	ldrh.w	r2, [lr], #2
                        if (BT_MESH_ADDR_IS_GROUP(group) && group != VNG_MESH_UNUSED_GROUP) {
    224c:	f502 4180 	add.w	r1, r2, #16384	; 0x4000
    2250:	b289      	uxth	r1, r1
    2252:	f5b1 5f7c 	cmp.w	r1, #16128	; 0x3f00
    2256:	d80e      	bhi.n	2276 <_groups_status_work+0x1d6>
    2258:	42ba      	cmp	r2, r7
    225a:	d00c      	beq.n	2276 <_groups_status_work+0x1d6>
                            groups[gcount++] = sys_cpu_to_be16(group);
    225c:	a910      	add	r1, sp, #64	; 0x40
    225e:	f106 0901 	add.w	r9, r6, #1
    2262:	ea4f 2c02 	mov.w	ip, r2, lsl #8
    2266:	eb01 0646 	add.w	r6, r1, r6, lsl #1
    226a:	ea4c 2212 	orr.w	r2, ip, r2, lsr #8
    226e:	f826 2c28 	strh.w	r2, [r6, #-40]
    2272:	fa5f f689 	uxtb.w	r6, r9
                    for (int gidx = 0; gidx < CONFIG_BT_MESH_MODEL_GROUP_COUNT; ++gidx) {
    2276:	4573      	cmp	r3, lr
    2278:	d1e6      	bne.n	2248 <_groups_status_work+0x1a8>
                    crc = crc16_ccitt(0, (const u8_t *)groups, gcount * sizeof(u16_t));
    227a:	0072      	lsls	r2, r6, #1
    227c:	a906      	add	r1, sp, #24
    227e:	2000      	movs	r0, #0
    2280:	f000 fac4 	bl	280c <crc16_ccitt>
                    edata = GCOUNT_LINE_DATA(gcount, crc);
    2284:	f000 000f 	and.w	r0, r0, #15
    2288:	ea40 1106 	orr.w	r1, r0, r6, lsl #4
                    net_buf_simple_add_u8(_groups_status.gcount.buf, edata);
    228c:	b2c9      	uxtb	r1, r1
    228e:	6be8      	ldr	r0, [r5, #60]	; 0x3c
                for (int line = 0; line < HUB_LINES; ++line) {
    2290:	3401      	adds	r4, #1
                    net_buf_simple_add_u8(_groups_status.gcount.buf, edata);
    2292:	f021 fb78 	bl	23986 <net_buf_simple_add_u8>
                for (int line = 0; line < HUB_LINES; ++line) {
    2296:	2c08      	cmp	r4, #8
    2298:	d1d0      	bne.n	223c <_groups_status_work+0x19c>
    229a:	e79c      	b.n	21d6 <_groups_status_work+0x136>
    for(int task = 0; task < GROUP_TASKS_COUNT; ++task) {
    229c:	3601      	adds	r6, #1
    229e:	2e0a      	cmp	r6, #10
    22a0:	f47f af14 	bne.w	20cc <_groups_status_work+0x2c>
            }
        }
        
    }

}
    22a4:	b011      	add	sp, #68	; 0x44
    22a6:	e8bd 8ff0 	ldmia.w	sp!, {r4, r5, r6, r7, r8, r9, sl, fp, pc}
    22aa:	bf00      	nop
    22ac:	2000ada0 	.word	0x2000ada0
    22b0:	0002a7a7 	.word	0x0002a7a7
    22b4:	00026ff7 	.word	0x00026ff7
    22b8:	00026801 	.word	0x00026801
    22bc:	000267ce 	.word	0x000267ce
    22c0:	00027112 	.word	0x00027112
    22c4:	00027140 	.word	0x00027140
    22c8:	0002716e 	.word	0x0002716e
    22cc:	2000ada4 	.word	0x2000ada4
    22d0:	0002719a 	.word	0x0002719a
    22d4:	00027488 	.word	0x00027488

000022d8 <_groups_list_delayed_get>:
	return __atomic_fetch_or(target, value, __ATOMIC_SEQ_CST);
    22d8:	4a11      	ldr	r2, [pc, #68]	; (2320 <_groups_list_delayed_get+0x48>)
{
    22da:	b538      	push	{r3, r4, r5, lr}
    22dc:	460c      	mov	r4, r1
    for (int line = 0; line < HUB_LINES; ++line) {
    22de:	2300      	movs	r3, #0
 *
 * @return N/A
 */
static inline void atomic_set_bit(atomic_t *target, int bit)
{
	atomic_val_t mask = ATOMIC_MASK(bit);
    22e0:	2101      	movs	r1, #1
        if (linesmap & BIT(line)) {
    22e2:	fa20 f503 	lsr.w	r5, r0, r3
    22e6:	07ed      	lsls	r5, r5, #31
    22e8:	d50e      	bpl.n	2308 <_groups_list_delayed_get+0x30>
	return __atomic_fetch_or(target, value, __ATOMIC_SEQ_CST);
    22ea:	f3bf 8f5b 	dmb	ish
	atomic_val_t mask = ATOMIC_MASK(bit);
    22ee:	fa01 f503 	lsl.w	r5, r1, r3
	return __atomic_fetch_or(target, value, __ATOMIC_SEQ_CST);
    22f2:	e852 ef00 	ldrex	lr, [r2]
    22f6:	ea4e 0e05 	orr.w	lr, lr, r5
    22fa:	e842 ec00 	strex	ip, lr, [r2]
    22fe:	f1bc 0f00 	cmp.w	ip, #0
    2302:	d1f6      	bne.n	22f2 <_groups_list_delayed_get+0x1a>
    2304:	f3bf 8f5b 	dmb	ish
    for (int line = 0; line < HUB_LINES; ++line) {
    2308:	3301      	adds	r3, #1
    230a:	2b08      	cmp	r3, #8
    230c:	d1e9      	bne.n	22e2 <_groups_list_delayed_get+0xa>
    k_delayed_work_cancel(&_groups_status.timer);
    230e:	4805      	ldr	r0, [pc, #20]	; (2324 <_groups_list_delayed_get+0x4c>)
    2310:	f023 fe30 	bl	25f74 <k_delayed_work_cancel>
    k_delayed_work_submit(&_groups_status.timer, delayed);
    2314:	4621      	mov	r1, r4
    2316:	4803      	ldr	r0, [pc, #12]	; (2324 <_groups_list_delayed_get+0x4c>)
}
    2318:	e8bd 4038 	ldmia.w	sp!, {r3, r4, r5, lr}
    k_delayed_work_submit(&_groups_status.timer, delayed);
    231c:	f7ff baa8 	b.w	1870 <k_delayed_work_submit>
    2320:	2000adcc 	.word	0x2000adcc
    2324:	2000ada4 	.word	0x2000ada4

00002328 <_groups_list_get>:
{
    2328:	b5f8      	push	{r3, r4, r5, r6, r7, lr}
    232a:	4607      	mov	r7, r0
    232c:	4615      	mov	r5, r2
    232e:	461e      	mov	r6, r3
    if( main == 0)
    2330:	460c      	mov	r4, r1
    2332:	b199      	cbz	r1, 235c <_groups_list_get+0x34>
    u16_t mod = bt_mesh_primary_addr() % main;
    2334:	f00e f818 	bl	10368 <bt_mesh_primary_addr>
    2338:	fbb0 f1f4 	udiv	r1, r0, r4
    233c:	fb01 0014 	mls	r0, r1, r4, r0
    if (mod != index)
    2340:	b280      	uxth	r0, r0
    2342:	42b8      	cmp	r0, r7
    2344:	d10a      	bne.n	235c <_groups_list_get+0x34>
    _groups_status.glist.gbits = gbits;
    2346:	4a06      	ldr	r2, [pc, #24]	; (2360 <_groups_list_get+0x38>)
    u8_t linesmap = BIT(line);
    2348:	2001      	movs	r0, #1
    234a:	40a8      	lsls	r0, r5
    _groups_status.glist.gbits = gbits;
    234c:	f882 6030 	strb.w	r6, [r2, #48]	; 0x30
    _groups_list_delayed_get(linesmap, 10);
    2350:	210a      	movs	r1, #10
    2352:	b2c0      	uxtb	r0, r0
}
    2354:	e8bd 40f8 	ldmia.w	sp!, {r3, r4, r5, r6, r7, lr}
    _groups_list_delayed_get(linesmap, 10);
    2358:	f7ff bfbe 	b.w	22d8 <_groups_list_delayed_get>
    235c:	bdf8      	pop	{r3, r4, r5, r6, r7, pc}
    235e:	bf00      	nop
    2360:	2000ada0 	.word	0x2000ada0

00002364 <_groups_clr>:
{
    2364:	b537      	push	{r0, r1, r2, r4, r5, lr}
    2366:	461d      	mov	r5, r3
    2368:	4604      	mov	r4, r0
    hub_groups_clr(linesmap, lines);
    236a:	f7fe fea1 	bl	10b0 <hub_groups_clr>
    hub_setting_get(&setting_data, &setting_len);
    236e:	f10d 0102 	add.w	r1, sp, #2
    2372:	a801      	add	r0, sp, #4
    2374:	f7ff f870 	bl	1458 <hub_setting_get>
    bt_mesh_model_setting_val_update((&models0[1]), 
    2378:	f8bd 2002 	ldrh.w	r2, [sp, #2]
    237c:	9901      	ldr	r1, [sp, #4]
    237e:	4805      	ldr	r0, [pc, #20]	; (2394 <_groups_clr+0x30>)
    2380:	f00e fb1e 	bl	109c0 <bt_mesh_model_setting_val_update>
    if(ack)
    2384:	b125      	cbz	r5, 2390 <_groups_clr+0x2c>
        _groups_list_delayed_get(linesmap, 2000);
    2386:	f44f 61fa 	mov.w	r1, #2000	; 0x7d0
    238a:	4620      	mov	r0, r4
    238c:	f7ff ffa4 	bl	22d8 <_groups_list_delayed_get>
}
    2390:	b003      	add	sp, #12
    2392:	bd30      	pop	{r4, r5, pc}
    2394:	2000afc0 	.word	0x2000afc0

00002398 <_groups_del>:
{
    2398:	b537      	push	{r0, r1, r2, r4, r5, lr}
    239a:	461d      	mov	r5, r3
    239c:	4604      	mov	r4, r0
    hub_groups_del(linesmap, group);
    239e:	f7fe fe4f 	bl	1040 <hub_groups_del>
    hub_setting_get(&setting_data, &setting_len);
    23a2:	f10d 0102 	add.w	r1, sp, #2
    23a6:	a801      	add	r0, sp, #4
    23a8:	f7ff f856 	bl	1458 <hub_setting_get>
    bt_mesh_model_setting_val_update((&models0[1]), 
    23ac:	f8bd 2002 	ldrh.w	r2, [sp, #2]
    23b0:	9901      	ldr	r1, [sp, #4]
    23b2:	4805      	ldr	r0, [pc, #20]	; (23c8 <_groups_del+0x30>)
    23b4:	f00e fb04 	bl	109c0 <bt_mesh_model_setting_val_update>
    if(ack)
    23b8:	b125      	cbz	r5, 23c4 <_groups_del+0x2c>
        _groups_list_delayed_get(linesmap, 2000);
    23ba:	f44f 61fa 	mov.w	r1, #2000	; 0x7d0
    23be:	4620      	mov	r0, r4
    23c0:	f7ff ff8a 	bl	22d8 <_groups_list_delayed_get>
}
    23c4:	b003      	add	sp, #12
    23c6:	bd30      	pop	{r4, r5, pc}
    23c8:	2000afc0 	.word	0x2000afc0

000023cc <_groups_add>:
{
    23cc:	b537      	push	{r0, r1, r2, r4, r5, lr}
    23ce:	461d      	mov	r5, r3
    23d0:	4604      	mov	r4, r0
    hub_groups_add(linesmap, group);
    23d2:	f7fe fdfd 	bl	fd0 <hub_groups_add>
    hub_setting_get(&setting_data, &setting_len);
    23d6:	f10d 0102 	add.w	r1, sp, #2
    23da:	a801      	add	r0, sp, #4
    23dc:	f7ff f83c 	bl	1458 <hub_setting_get>
    bt_mesh_model_setting_val_update((&models0[1]), 
    23e0:	f8bd 2002 	ldrh.w	r2, [sp, #2]
    23e4:	9901      	ldr	r1, [sp, #4]
    23e6:	4805      	ldr	r0, [pc, #20]	; (23fc <_groups_add+0x30>)
    23e8:	f00e faea 	bl	109c0 <bt_mesh_model_setting_val_update>
    if(ack)
    23ec:	b125      	cbz	r5, 23f8 <_groups_add+0x2c>
        _groups_list_delayed_get(linesmap, 2000);
    23ee:	f44f 61fa 	mov.w	r1, #2000	; 0x7d0
    23f2:	4620      	mov	r0, r4
    23f4:	f7ff ff70 	bl	22d8 <_groups_list_delayed_get>
}
    23f8:	b003      	add	sp, #12
    23fa:	bd30      	pop	{r4, r5, pc}
    23fc:	2000afc0 	.word	0x2000afc0

00002400 <mesh_init>:
{
    2400:	b570      	push	{r4, r5, r6, lr}
    2402:	b086      	sub	sp, #24
    err = bt_le_oob_get_local(BT_ID_DEFAULT, &oob);
    2404:	a904      	add	r1, sp, #16
    2406:	2000      	movs	r0, #0
    2408:	f007 f830 	bl	946c <bt_le_oob_get_local>
    240c:	4c37      	ldr	r4, [pc, #220]	; (24ec <mesh_init+0xec>)
    if (err != 0) {
    240e:	4605      	mov	r5, r0
    2410:	b150      	cbz	r0, 2428 <mesh_init+0x28>
        SYS_LOG_ERR("Get LE local Out Of Band information failed");
    2412:	4b37      	ldr	r3, [pc, #220]	; (24f0 <mesh_init+0xf0>)
    2414:	4a37      	ldr	r2, [pc, #220]	; (24f4 <mesh_init+0xf4>)
    2416:	4938      	ldr	r1, [pc, #224]	; (24f8 <mesh_init+0xf8>)
    2418:	4838      	ldr	r0, [pc, #224]	; (24fc <mesh_init+0xfc>)
    241a:	9401      	str	r4, [sp, #4]
    241c:	9400      	str	r4, [sp, #0]
        SYS_LOG_ERR("Initialize Mesh support failed");
    241e:	f000 feef 	bl	3200 <printk>
}
    2422:	4628      	mov	r0, r5
    2424:	b006      	add	sp, #24
    2426:	bd70      	pop	{r4, r5, r6, pc}
    memset(uuid, 0, sizeof(uuid));
    2428:	4601      	mov	r1, r0
    242a:	2210      	movs	r2, #16
    242c:	4834      	ldr	r0, [pc, #208]	; (2500 <mesh_init+0x100>)
    242e:	f004 fb36 	bl	6a9e <memset>
    memcpy(uuid, oob.addr.a.val, 6);
    2432:	2206      	movs	r2, #6
    2434:	f10d 0111 	add.w	r1, sp, #17
    2438:	4831      	ldr	r0, [pc, #196]	; (2500 <mesh_init+0x100>)
    243a:	f004 fb04 	bl	6a46 <memcpy>
    err = bt_mesh_init(&prov, &comp);
    243e:	4931      	ldr	r1, [pc, #196]	; (2504 <mesh_init+0x104>)
    2440:	4831      	ldr	r0, [pc, #196]	; (2508 <mesh_init+0x108>)
    2442:	f00a f9cb 	bl	c7dc <bt_mesh_init>
        SYS_LOG_ERR("Initialize Mesh support failed");
    2446:	9401      	str	r4, [sp, #4]
    if (err != 0) {
    2448:	4605      	mov	r5, r0
        SYS_LOG_ERR("Initialize Mesh support failed");
    244a:	9400      	str	r4, [sp, #0]
    244c:	4b28      	ldr	r3, [pc, #160]	; (24f0 <mesh_init+0xf0>)
    if (err != 0) {
    244e:	b118      	cbz	r0, 2458 <mesh_init+0x58>
        SYS_LOG_ERR("Initialize Mesh support failed");
    2450:	4a28      	ldr	r2, [pc, #160]	; (24f4 <mesh_init+0xf4>)
    2452:	4929      	ldr	r1, [pc, #164]	; (24f8 <mesh_init+0xf8>)
    2454:	482d      	ldr	r0, [pc, #180]	; (250c <mesh_init+0x10c>)
    2456:	e7e2      	b.n	241e <mesh_init+0x1e>
    SYS_LOG_INF("Mesh initialized");
    2458:	4a2d      	ldr	r2, [pc, #180]	; (2510 <mesh_init+0x110>)
    245a:	4927      	ldr	r1, [pc, #156]	; (24f8 <mesh_init+0xf8>)
        _setting_loading = true;
    245c:	4e2d      	ldr	r6, [pc, #180]	; (2514 <mesh_init+0x114>)
    SYS_LOG_INF("Mesh initialized");
    245e:	482e      	ldr	r0, [pc, #184]	; (2518 <mesh_init+0x118>)
    2460:	f000 fece 	bl	3200 <printk>
        _setting_loading = true;
    2464:	2301      	movs	r3, #1
    2466:	7033      	strb	r3, [r6, #0]
        settings_load();
    2468:	f003 f914 	bl	5694 <settings_load>
        SYS_LOG_INF("done");
    246c:	4b20      	ldr	r3, [pc, #128]	; (24f0 <mesh_init+0xf0>)
    246e:	4922      	ldr	r1, [pc, #136]	; (24f8 <mesh_init+0xf8>)
    2470:	9401      	str	r4, [sp, #4]
    2472:	9400      	str	r4, [sp, #0]
    2474:	4a26      	ldr	r2, [pc, #152]	; (2510 <mesh_init+0x110>)
    2476:	4829      	ldr	r0, [pc, #164]	; (251c <mesh_init+0x11c>)
    2478:	f000 fec2 	bl	3200 <printk>
        _setting_loading = false;
    247c:	7035      	strb	r5, [r6, #0]
    error = hub_setting_set(models0[1].setting_val.val->data, 
    247e:	4e28      	ldr	r6, [pc, #160]	; (2520 <mesh_init+0x120>)
    2480:	6d33      	ldr	r3, [r6, #80]	; 0x50
    2482:	8899      	ldrh	r1, [r3, #4]
    2484:	6818      	ldr	r0, [r3, #0]
    2486:	f7fe ffef 	bl	1468 <hub_setting_set>
    if (error) {
    248a:	b198      	cbz	r0, 24b4 <mesh_init+0xb4>
        SYS_LOG_INF("store new setting");
    248c:	4a20      	ldr	r2, [pc, #128]	; (2510 <mesh_init+0x110>)
    248e:	4b25      	ldr	r3, [pc, #148]	; (2524 <mesh_init+0x124>)
    2490:	4919      	ldr	r1, [pc, #100]	; (24f8 <mesh_init+0xf8>)
    2492:	9401      	str	r4, [sp, #4]
    2494:	9400      	str	r4, [sp, #0]
    2496:	4824      	ldr	r0, [pc, #144]	; (2528 <mesh_init+0x128>)
    2498:	f000 feb2 	bl	3200 <printk>
        hub_setting_get(&setting_data, &setting_len);
    249c:	f10d 010a 	add.w	r1, sp, #10
    24a0:	a803      	add	r0, sp, #12
    24a2:	f7fe ffd9 	bl	1458 <hub_setting_get>
        bt_mesh_model_setting_val_update((&models0[1]), 
    24a6:	f8bd 200a 	ldrh.w	r2, [sp, #10]
    24aa:	9903      	ldr	r1, [sp, #12]
    24ac:	f106 0044 	add.w	r0, r6, #68	; 0x44
    24b0:	f00e fa86 	bl	109c0 <bt_mesh_model_setting_val_update>
	*work = (struct k_work)_K_WORK_INITIALIZER(handler);
    24b4:	491d      	ldr	r1, [pc, #116]	; (252c <mesh_init+0x12c>)
    24b6:	4b1e      	ldr	r3, [pc, #120]	; (2530 <mesh_init+0x130>)
    24b8:	604b      	str	r3, [r1, #4]
    24ba:	460b      	mov	r3, r1
    24bc:	2200      	movs	r2, #0
    24be:	f843 2f08 	str.w	r2, [r3, #8]!
    24c2:	600a      	str	r2, [r1, #0]
    24c4:	f3bf 8f5b 	dmb	ish
    24c8:	e853 2f00 	ldrex	r2, [r3]
    24cc:	f042 0001 	orr.w	r0, r2, #1
    24d0:	e843 0400 	strex	r4, r0, [r3]
    24d4:	2c00      	cmp	r4, #0
    24d6:	d1f7      	bne.n	24c8 <mesh_init+0xc8>
    24d8:	f3bf 8f5b 	dmb	ish
	if (!atomic_test_and_set_bit(work->flags, K_WORK_STATE_PENDING)) {
    24dc:	f012 0401 	ands.w	r4, r2, #1
    24e0:	d19f      	bne.n	2422 <mesh_init+0x22>
		k_queue_append(&work_q->queue, work);
    24e2:	4814      	ldr	r0, [pc, #80]	; (2534 <mesh_init+0x134>)
    24e4:	f022 fec0 	bl	25268 <k_queue_append>
    return 0;
    24e8:	4625      	mov	r5, r4
    24ea:	e79a      	b.n	2422 <mesh_init+0x22>
    24ec:	0002a7a7 	.word	0x0002a7a7
    24f0:	00026f28 	.word	0x00026f28
    24f4:	000267c7 	.word	0x000267c7
    24f8:	000267ce 	.word	0x000267ce
    24fc:	000273da 	.word	0x000273da
    2500:	2000b2e0 	.word	0x2000b2e0
    2504:	00027380 	.word	0x00027380
    2508:	2000b2ac 	.word	0x2000b2ac
    250c:	00027416 	.word	0x00027416
    2510:	00026801 	.word	0x00026801
    2514:	200002e4 	.word	0x200002e4
    2518:	00027445 	.word	0x00027445
    251c:	000270ed 	.word	0x000270ed
    2520:	2000af7c 	.word	0x2000af7c
    2524:	00026f32 	.word	0x00026f32
    2528:	00027466 	.word	0x00027466
    252c:	200002d8 	.word	0x200002d8
    2530:	00001f0d 	.word	0x00001f0d
    2534:	20003f80 	.word	0x20003f80

00002538 <mesh_hub_init>:


int mesh_hub_init()
{
    2538:	b5f0      	push	{r4, r5, r6, r7, lr}

    u8_t* setting_data;
    u16_t setting_len;

    bt_mesh_vng_status_init(&vnd_models[0]);
    bt_mesh_light_hub_srv_init(&models0[1]);
    253a:	4c30      	ldr	r4, [pc, #192]	; (25fc <mesh_hub_init+0xc4>)
    bt_mesh_vng_status_init(&vnd_models[0]);
    253c:	4830      	ldr	r0, [pc, #192]	; (2600 <mesh_hub_init+0xc8>)
{
    253e:	b087      	sub	sp, #28
    bt_mesh_vng_status_init(&vnd_models[0]);
    2540:	f018 f9ca 	bl	1a8d8 <bt_mesh_vng_status_init>
    bt_mesh_light_hub_srv_init(&models0[1]);
    2544:	f104 0044 	add.w	r0, r4, #68	; 0x44
    2548:	f018 f8aa 	bl	1a6a0 <bt_mesh_light_hub_srv_init>

#ifdef CONFIG_BT_MESH_VNG_THREAD_TRACKING
    bt_mesh_vng_thread_tracking_init(&vnd_models[2]);
#endif

    k_delayed_work_init(&_groups_status.timer, _groups_status_work);
    254c:	492d      	ldr	r1, [pc, #180]	; (2604 <mesh_hub_init+0xcc>)
    254e:	482e      	ldr	r0, [pc, #184]	; (2608 <mesh_hub_init+0xd0>)
    2550:	f023 fd00 	bl	25f54 <k_delayed_work_init>
    k_delayed_work_init(&_groups_status.enableds.timer, _line_enables_status_work);
    2554:	492d      	ldr	r1, [pc, #180]	; (260c <mesh_hub_init+0xd4>)
    2556:	482e      	ldr	r0, [pc, #184]	; (2610 <mesh_hub_init+0xd8>)
    2558:	f023 fcfc 	bl	25f54 <k_delayed_work_init>

    error = hub_init(_mesh_hub_level_report,
    255c:	4a2d      	ldr	r2, [pc, #180]	; (2614 <mesh_hub_init+0xdc>)
    255e:	492e      	ldr	r1, [pc, #184]	; (2618 <mesh_hub_init+0xe0>)
    2560:	482e      	ldr	r0, [pc, #184]	; (261c <mesh_hub_init+0xe4>)
    2562:	f7fe fb21 	bl	ba8 <hub_init>
                     _mesh_hub_status_report,
                     _mesh_hub_warning_report);

    if (error != 0)
    2566:	4605      	mov	r5, r0
    2568:	2800      	cmp	r0, #0
    256a:	d136      	bne.n	25da <mesh_hub_init+0xa2>
        return error;

    bt_mesh_gen_level_srv_init(&models0[0]);
    256c:	4620      	mov	r0, r4
    256e:	f017 fd9d 	bl	1a0ac <bt_mesh_gen_level_srv_init>
    bt_mesh_gen_level_srv_init(&models1[0]);
    2572:	482b      	ldr	r0, [pc, #172]	; (2620 <mesh_hub_init+0xe8>)
                                     (models0 + 1),
                                     60);

    for(u8_t line = 0; line < HUB_LINES; line ++) {
        struct bt_mesh_gen_level_srv *level_srv = &_gel_level_srvs[line];
        level_srv->user_data = hub_line_init(line);
    2574:	4e2b      	ldr	r6, [pc, #172]	; (2624 <mesh_hub_init+0xec>)
    bt_mesh_gen_level_srv_init(&models1[0]);
    2576:	f017 fd99 	bl	1a0ac <bt_mesh_gen_level_srv_init>
    bt_mesh_gen_level_srv_init(&models2[0]);
    257a:	482b      	ldr	r0, [pc, #172]	; (2628 <mesh_hub_init+0xf0>)
    257c:	f017 fd96 	bl	1a0ac <bt_mesh_gen_level_srv_init>
    bt_mesh_gen_level_srv_init(&models3[0]);
    2580:	482a      	ldr	r0, [pc, #168]	; (262c <mesh_hub_init+0xf4>)
    2582:	f017 fd93 	bl	1a0ac <bt_mesh_gen_level_srv_init>
    bt_mesh_gen_level_srv_init(&models4[0]);
    2586:	482a      	ldr	r0, [pc, #168]	; (2630 <mesh_hub_init+0xf8>)
    2588:	f017 fd90 	bl	1a0ac <bt_mesh_gen_level_srv_init>
    bt_mesh_gen_level_srv_init(&models5[0]);
    258c:	4829      	ldr	r0, [pc, #164]	; (2634 <mesh_hub_init+0xfc>)
    258e:	f017 fd8d 	bl	1a0ac <bt_mesh_gen_level_srv_init>
    bt_mesh_gen_level_srv_init(&models6[0]);
    2592:	4829      	ldr	r0, [pc, #164]	; (2638 <mesh_hub_init+0x100>)
    2594:	f017 fd8a 	bl	1a0ac <bt_mesh_gen_level_srv_init>
    bt_mesh_gen_level_srv_init(&models7[0]);
    2598:	4828      	ldr	r0, [pc, #160]	; (263c <mesh_hub_init+0x104>)
    259a:	f017 fd87 	bl	1a0ac <bt_mesh_gen_level_srv_init>
    hub_setting_get(&setting_data, &setting_len);
    259e:	f10d 0112 	add.w	r1, sp, #18
    25a2:	a805      	add	r0, sp, #20
    25a4:	f7fe ff58 	bl	1458 <hub_setting_get>
    BT_MESH_MODEL_SETTING_VAL_DEFINE(enables_setting,
    25a8:	4b25      	ldr	r3, [pc, #148]	; (2640 <mesh_hub_init+0x108>)
    25aa:	6523      	str	r3, [r4, #80]	; 0x50
        level_srv->user_data = hub_line_init(line);
    25ac:	2764      	movs	r7, #100	; 0x64
    BT_MESH_MODEL_SETTING_VAL_DEFINE(enables_setting,
    25ae:	462c      	mov	r4, r5
        level_srv->user_data = hub_line_init(line);
    25b0:	b2e0      	uxtb	r0, r4
    25b2:	f7fe fe5d 	bl	1270 <hub_line_init>
    25b6:	fb07 6304 	mla	r3, r7, r4, r6
    25ba:	60d8      	str	r0, [r3, #12]
        if (level_srv->user_data == NULL) {
    25bc:	b980      	cbnz	r0, 25e0 <mesh_hub_init+0xa8>
            SYS_LOG_ERR("Init line %u failed", 0);
    25be:	4b21      	ldr	r3, [pc, #132]	; (2644 <mesh_hub_init+0x10c>)
    25c0:	9302      	str	r3, [sp, #8]
    25c2:	9001      	str	r0, [sp, #4]
    25c4:	9300      	str	r3, [sp, #0]
    25c6:	4a20      	ldr	r2, [pc, #128]	; (2648 <mesh_hub_init+0x110>)
    25c8:	4b20      	ldr	r3, [pc, #128]	; (264c <mesh_hub_init+0x114>)
    25ca:	4921      	ldr	r1, [pc, #132]	; (2650 <mesh_hub_init+0x118>)
    25cc:	4821      	ldr	r0, [pc, #132]	; (2654 <mesh_hub_init+0x11c>)
    25ce:	f000 fe17 	bl	3200 <printk>
            hub_release();
    25d2:	f7fe fff5 	bl	15c0 <hub_release>
            return -ENODEV;
    25d6:	f06f 0512 	mvn.w	r5, #18
        }
    }
    SYS_LOG_INF("done");
    return 0;
}
    25da:	4628      	mov	r0, r5
    25dc:	b007      	add	sp, #28
    25de:	bdf0      	pop	{r4, r5, r6, r7, pc}
    25e0:	3401      	adds	r4, #1
    for(u8_t line = 0; line < HUB_LINES; line ++) {
    25e2:	2c08      	cmp	r4, #8
    25e4:	d1e4      	bne.n	25b0 <mesh_hub_init+0x78>
    SYS_LOG_INF("done");
    25e6:	4b17      	ldr	r3, [pc, #92]	; (2644 <mesh_hub_init+0x10c>)
