:020000021000EC
:10F0000020D20020A5400200F94002002D3F02005E
:10F010002D3F02002D3F02002D3F02002D3F020038
:10F020002D3F02002D3F02002D3F0200693B0200F0
:10F030002D3F02002D3F0200253B02002D3F020024
:10F040006940020003D003006940020069400200E9
:10F050006940020069400200694002006940020004
:10F0600069400200694002006940020069400200F4
:10F0700069400200694002006940020069400200E4
:10F0800069400200694002006940020069400200D4
:10F0900069400200694002006940020069400200C4
:10F0A00069400200694002006940020069400200B4
:10F0B00069400200694002006940020069400200A4
:10F0C0006940020069400200694002006940020094
:10F0D000694002006940020069400200000000002F
:10F0E000F536020000000000A13E02000000000012
:10F0F000A13E020000000000A13E0200000000004E
:10F10000A13E020000000000A13E0200000000003D
:10F11000C1FA030000000000A13E02000000000050
:10F12000A13E020000000000A13E0200000000001D
:10F13000A13E020000000000C9CF03000000000053
:10F14000A13E0200C8F000205904040000000000A5
:10F15000A13E020000000000A13E02005523020073
:10F1600051230200000000008D3902000000000061
:10F17000A13E020000000000A13E020000000000CD
:10F18000A13E020000000000A13E020000000000BD
:10F19000A13E020000000000A13E020000000000AD
:10F1A000FDCF030000000000A13E020000000000AF
:10F1B000A13E020000000000A13E0200000000008D
:10F1C000A13E020000000000A13E0200000000007D
:10F1D000A13E020000000000A13E0200000000006D
:10F1E000A13E020000000000A13E0200000000005D
:10F1F000A13E020000000000A13E0200000000004D
:10F20000A13E020000000000A13E0200000000003C
:10F21000A13E02009140031C90409C46203A93403E
:10F22000194352426346D340194370477BB972B9C0
:10F230000029BEBF00204FF0004106E008BF0028B3
:10F240001CBF6FF000414FF0FF3000F0D9B9ADF1B5
:10F25000080C6DE904CE002909DB002B1ADB00F055
:10F2600061F8DDF804E0DDE9022304B070474042B4
:10F2700061EB4101002B1BDB00F054F8DDF804E0EA
:10F28000DDE9022304B0404261EB4101524263EBED
:10F2900043037047524263EB430300F043F8DDF849
:10F2A00004E0DDE9022304B0404261EB4101704714
:10F2B000524263EB430300F035F8DDF804E0DDE98A
:10F2C000022304B0524263EB4303704753B94AB977
:10F2D000002908BF00281CBF4FF0FF314FF0FF305E
:10F2E00000F08EB9ADF1080C6DE904CE00F01AF80B
:10F2F000DDF804E0DDE9022304B07047430803F0C1
:10F300005533C01A830803F0333300F03330184408
:10F3100000EB101000F00F3000EB002000EB00407D
:10F32000000E70472DE9F0478C460D460446089EB6
:10F33000002B51D18A4217466DD9B2FA82FEBEF136
:10F34000000F0BD0CEF1200C01FA0EF520FA0CFCC8
:10F3500002FA0EF74CEA050C00FA0EF44FEA174ACF
:10F36000250CBCFBFAF81FFA87F90AFB18CC45EA12
:10F370000C4508FB09F3AB420AD9ED1908F1FF323D
:10F3800080F02381AB4240F22081A8F102083D4485
:10F39000ED1AA4B2B5FBFAF00AFB105544EA054495
:10F3A00000FB09F9A14509D9E41900F1FF3380F008
:10F3B0000A81A14540F2078102383C44A4EB0904CC
:10F3C00040EA08400021002E61D024FA0EF4002308
:10F3D00034607360BDE8F0878B4207D9002E54D0AB
:10F3E000002186E821000846BDE8F087B3FA83F1E2
:10F3F000002940F08E80AB4202D3824200F2FA80B4
:10F40000841A65EB03050120AC46002E3FD086E848
:10F410001010BDE8F08712B90127B7FBF2F7B7FA71
:10F4200087FEBEF1000F34D1EB1B3A0C1FFA87FCAC
:10F430000121B3FBF2F8250C02FB183345EA034522
:10F440000CFB08F3AB4207D9ED1908F1FF3002D2EB
:10F45000AB4200F2D1808046ED1AA3B2B5FBF2F0C8
:10F4600002FB105543EA05440CFB00FCA44507D9F8
:10F47000E41900F1FF3302D2A44500F2B880184627
:10F48000A4EB0C0440EA08409DE731463046BDE855
:10F49000F087CEF1200405FA0EF307FA0EF720FAF2
:10F4A00004F83A0C25FA04F448EA0308B4FBF2F134
:10F4B0004FEA184502FB11441FFA87FC45EA044550
:10F4C00001FB0CF3AB4200FA0EF409D9ED1901F17E
:10F4D000FF3080F08A80AB4240F2878002393D44A1
:10F4E000EB1A1FFA88F5B3FBF2F002FB103345EA82
:10F4F000034500FB0CF3AB4207D9ED1900F1FF38CF
:10F500006FD2AB426DD902383D44EB1A40EA01415B
:10F510008FE7C1F1200722FA07F88B4005FA01F4C2
:10F5200048EA030320FA07FE4FEA134CFD404EEA77
:10F53000040EB5FBFCF94FEA1E440CFB19551FFAEB
:10F5400083F844EA054509FB08F4AC4202FA01F2EB
:10F5500000FA01FA08D9ED1809F1FF3043D2AC42A4
:10F5600041D9A9F102091D442D1B1FFA8EFEB5FBDE
:10F57000FCF00CFB10554EEA054400FB08F8A045D2
:10F5800007D9E41800F1FF3529D2A04527D9023860
:10F590001C4440EA0940A4EB0804A0FB02894C4546
:10F5A000C6464D4615D312D056B1BAEB0E0364EBE6
:10F5B000050404FA07F7CB401F43CC403760746062
:10F5C0000021BDE8F0871846F8E69046E0E6C2451F
:10F5D000EAD2B8EB020E69EB03050138E4E72846EE
:10F5E000D7E7404691E78146BEE7014678E7023813
:10F5F0003C4445E7084608E7A8F102083D442BE7EC
:10F60000704700BF1FB50C4806F0B8FF60B10B4B48
:10F610000293019000930A4A0A4B0B490B4801F0F0
:10F620006BFA05B05DF804FB00F0E4F905B05DF895
:10F6300004EB00F01FBC00BF11FB010023560400C7
:10F640008B1E0400861E0400921E0400961E0400F9
:10F650004FF4E02300201A68014B1A80704700BF66
:10F66000BC31002003200AF0B3BB00002DE9F04FAD
:10F67000564B1E7889B00746002E40F0A480544CAB
:10F68000544B554A5549564D019400945548DFF85E
:10F6900070A101F031FA544B298800933A46334661
:10F6A0000196384616F0D4FF0EF03EFAA84683467F
:10F6B0000AEB06034D4A1B7948494D481B010025BA
:10F6C00038F80390434B02948DE8100201F014FACD
:10F6D000019536F80A3000934A462B46594638467B
:10F6E000303617F01DF8902EE2D10EF01DFADFF83B
:10F6F0001491059009EB050B3C4A9BF804303749FF
:10F700003C481B01002638F803A0324B02948DE8D8
:10F71000100401F0F1F9029635F809300193BBF8B5
:10F72000023000935246334605993846303517F07B
:10F7300004F8902DDED14FF440430696ADF8183012
:10F74000072307968DF81D3001238DF81F300EF02A
:10F75000EBF999F80430254A20491B0106AD38F829
:10F760000380029482468DE810011A4B224801F072
:10F77000C3F9B9F8023001950296B9F80020009259
:10F7800051464246384617F005F80EF0CDF9FF25F0
:10F790004FF4B8530446024601468DE8280002960D
:10F7A0004FF45043384616F0DAFF4FF4C05300933D
:10F7B00002964CF20203019522462146304616F08D
:10F7C000CEFF0E4B1F8009B0BDE8F08F2232002023
:10F7D00023560400C51E04004921040050210400E2
:10F7E00018E40020532104002B1F04007921040099
:10F7F00080210400A3210400CA210400203200203B
:10F800006CE4002040E500207FB5134C134D04F15B
:10F8100028020E4600F02CFC40B101950095104BDB
:10F82000104A1149114801F067F9A662A36A0193D1
:10F830000F4A0B4B0C49029500950E4801F05CF9FC
:10F84000054821F0FFFFA26A03490B4804B0BDE858
:10F85000704022F05BB800BFF03100202356040056
:10F86000131F04008B1E0400502104001122040009
:10F87000792104002D220400C86E00207FB50C46BB
:10F88000064615460EF050F94CB3B0FBF4F304FBFA
:10F89000130189B2B14222D1174C184B184A1949A9
:10F8A00001940094184801F027F921F0ADFC174BA2
:10F8B000DA6A90423CBF0022DA62DA6A8AB1904288
:10F8C0000FD9821A47F22F518A420AD80192029424
:10F8D00000940A4B0E4A0B490E4801F00DF904B092
:10F8E00070BD4FF47A71D8626943002004B0BDE85E
:10F8F0007040FFF789BF00BF23560400D31E0400E9
:10F900007921040050210400A8200400F0310020D7
:10F91000DD200400E420040030B591B0284C294BD0
:10F92000294A2A4901940094294801F0E5F8294917
:10F930002948FFF769FF0AF043FA48B90194009497
:10F94000204B264A2149264801F0D6F811B030BD97
:10F950000BAB002513222349089308A8ADF82620F5
:10F960000A93ADF824500EF085FAFF2108A81FF085
:10F970000EFE4FF4A05108A81FF020FE1A4B05956B
:10F980001B88ADF814304FF460430695ADF818307D
:10F99000FF23ADF81C5000958DF81D3008AA2B46AA
:10F9A00005A912480EF08FFA0028CFD001900294DA
:10F9B0000094044B094A05490D4801F09DF8C5E73C
:10F9C00023560400F41E0400792104005021040091
:10F9D0004D220400C0270900E09304008B1E0400A0
:10F9E00072220400FF00C4002032002040E5002005
:10F9F000A322040007B50C4B0C4A019300930C4959
:10FA00000C4B0D4801F078F80C490D4821F00AFF25
:10FA10000C4947F23050FFF7F7FE0B4803B05DF892
:10FA200004EB16F041BF00BF235604007921040007
:10FA300050210400E81E0400F021040019F901001F
:10FA4000F0310020E093040040E5002030B58DB097
:10FA5000244C254B254A264901940094254801F061
:10FA60004BF80AF0ADF948B9019400941E4B224AB4
:10FA70001F49224801F040F80DB030BD002505AB0C
:10FA800001221F49099309A8ADF82A200B93ADF86C
:10FA900028500EF0EFF9142109A81FF078FD194B3A
:10FAA00006951B88ADF818304FF440430795ADF824
:10FAB0001C30FF23ADF8205000958DF8213009AAA5
:10FAC0002B4606A910480EF0FEF90028D4D001906C
:10FAD00002940094044B084A05490C4801F00CF8C4
:10FAE000CAE700BF23560400041F04007921040064
:10FAF000502104001E2104008B1E04007222040009
:10FB0000FF00C40020320020A0E50020A322040052
:10FB100070B586B0404C0294054648B18DE830007F
:10FB20003E4B3F4A3F49404800F0E6FF06B070BDFB
:10FB300048F2022301933D4A384B3A4900943C482D
:10FB400000F0DAFF354B394A3649019400943948C0
:10FB500000F0D2FF04A9284607F0F6F8014638B1B4
:10FB60000190029400942D4B2D4A2E493248DBE738
:10FB70001022324804F001FC06220DF111012F4839
:10FB800004F0CFFB2E492F480AF068F9064638B139
:10FB900002948DE85000214B214A22492A48C3E7AC
:10FBA0001E4B2A4A1F49019400942948294D00F010
:10FBB000A3FF264A1B49194B01940094264800F0E4
:10FBC0009BFF01232B7003F0E1F9244B2E701D885D
:10FBD0001E4A124B1349029415F4004F18BF012519
:10FBE0008DE830001E4800F087FF1E4B0193314620
:10FBF0000095334632461C480AF006F810F1450FCE
:10FC0000014603D1194800F077FF8FE700288DD017
:10FC1000174800F071FF89E723560400221F0400F3
:10FC20008B1E040050210400961E0400492104008C
:10FC30003B1F04005B1F0400811F040030E500200F
:10FC400088200400FCE40020B51F04007921040092
:10FC5000E71F04002232002009200400BC310020EC
:10FC600032200400982004000E21040052200400D9
:10FC7000692004002DE9F04F9B46436885B0164685
:10FC80005B68019102AA0546984748BB029CDDF8D3
:10FC90000CA0164AA6FB040106FB0A110023FFF77D
:10FCA00015FB4FF000094FF0FF38894508BF80452C
:10FCB000064618D3ABFB04010BFB0A110B4A0023C9
:10FCC000FFF704FB894508BF80450CD36B68019999
:10FCD0001C68324603462846A04705B0BDE8F08FB1
:10FCE0006FF00400F9E76FF02200F6E740420F00E2
:10FCF00007B5094B01930093084A094B09490A4883
:10FD000000F0FAFE0948826EC16B806B002303B0DD
:10FD10005DF804EBFFF7AEBF235604007921040021
:10FD2000EB220400921E040092230400E0E5002070
:10FD3000436810B45C681346A4460A4610BC002110
:10FD40006047000037B5114C114D23684BB9114B7A
:10FD5000114A124912480195009500F0CDFE03B0FA
:10FD600030BD201D21F06EFD0122216B2068FFF7C0
:10FD7000DFFF0022616B2068FFF7DAFF0195009535
:10FD8000044B084A05490848E7E700BFE0E50020C2
:10FD900023560400D92204008B1E0400921E040086
:10FDA00050230400792104007A230400436810B42E
:10FDB0001C681346A4460A4610BC00216047000098
:10FDC00030B5224C8B68E26A214DD34013F0010F0D
:10FDD00085B009D11F4B204A204921480195009543
:10FDE00000F08AFE05B030BD019202950095194BD6
:10FDF0001C4A1A491C4800F07FFE206830B9019562
:10FE00000095144B144A15491848E9E7216B002264
:10FE1000FFF78EFF616B20680122FFF789FFFFF774
:10FE200015FEA26EE16BA06B5308FFF723FF211DA7
:10FE30004FF4FA720E4821F069FD0D48322204F1A8
:10FE4000400105B0BDE8304021F060BDE0E5002094
:10FE500023560400E12204008B1E0400921E0400BD
:10FE6000A323040079210400CC23040050230400C0
:10FE7000C86E002073B5314820F05CFB064660B9BF
:10FE80002F4B019300932F4A2F4B3049304800F0FD
:10FE900033FE4FF0FF3002B070BD2E4C0122216BBB
:10FEA0002060FFF783FF0122616B2068FFF77EFF70
:10FEB0000022E16A2068FFF779FF2749201D21F021
:10FEC000B1FC0122216B2068FFF732FF0022616B39
:10FED0002068FFF72DFF3222E16A2068FFF766FFF6
:10FEE000E36A1E491E4A4A60012505FA03F38B6046
:10FEF00073682A46DB68304698472068E26A4368A0
:10FF000000211B699847174904F1400021F08AFC41
:10FF1000154820F00FFBA06350B9094B01930093E3
:10FF2000084A094B0949114800F0E6FD2846B2E7A6
:10FF30000020FFF7DDFE0020ADE700BF0223040034
:10FF4000235604008B1E0400F6220400921E0400B7
:10FF500009230400E0E5002045FD01003C320020BB
:10FF6000C1FD0100F1FC0100252304002B23040046
:10FF700070B586B0274C01940094274B274A284936
:10FF8000284800F0B9FD01940094274B234A2449E6
:10FF90002448264C00F0B0FD254820F0CBFA064658
:10FFA000A062D8B1234B0FCB02AD85E80F00736878
:10FFB00029469B68304698470028E0620EDBA06A1D
:10FFC000436800211B6898471B49204621F02AFC02
:10FFD0004FF47A722146194821F098FC184820F015
:10FFE000A9FA044638B91649164800F085FD4FF0C5
:10FFF000FF3006B070BD436816221D680021012342
:020000022000DC
:10000000A84763685D680023162219462046A84762
:100010000020EEE7235604000724040079210400A1
:100020001224040092230400F92304005C6C0020D5
:100030001A240400D01D040049000200C86E0020EC
:10004000022304001E24040010B5074CA06AE16AD4
:100050004368DB68984721464FF47A720348BDE84D
:10006000104021F053BC00BF5C6C0020C86E002023
:1000700081422DE9F347804691462DD304D111608A
:10008000002002B0BDE8F0870C1AFE2C14D94FF600
:10009000FE75AC4294BF02250425114F00264FF097
:1000A000010AAE420ADB019BB3FBF4F104FB1134FD
:1000B0004444C9F80040E3E70125EEE7C7F800A093
:1000C0004FF47A7021F04EFAC7F804A001ABD7F8CC
:1000D0000825F2540136E4E76FF01500D1E700BFC0
:1000E00000D0004010B54FF02003EFF3118483F3EC
:1000F000118801F0F3FF064B0122C3F84025054BA0
:100100004FF0FF329A62DA6284F31188002010BD4A
:1001100000E0014000ED00E008B504460846114645
:100120001A46A04721F01CF803F076FF10B5094CE1
:100130000A44914200D110BD11F8013B5840030917
:10014000E35C83EA0010C3B21809205C80EA031064
:10015000C0B2EEE7492404002DE9F043079C1CB926
:1001600014602046BDE8F0830325B4FBF5F505EBEC
:100170004507BC4218BF0135B5F1804F06D34FF09B
:10018000FF3313606FF00B00BDE8F083AD00013565
:100190008D4200D808B91560F4E7DFF8C4C0064600
:1001A0000025BD4231469E4606F1040603F10303D5
:1001B0002FD3A54227D29EF80060294F0135AC42CB
:1001C00088BF9EF801304FEA960E98BF002317F8BB
:1001D0000EE081F800E0AC4207EB131E84BF9B00E9
:1001E00003F03C034FEA061606F0300601F1030463
:1001F00088BFFB5C1EF806604E7098BF3D238B7075
:100200003D23611C2370081A106000200870BDE8AF
:10021000F08313F803EC13F8021C13F8018C4FEA77
:100220009E094FEA0E1E1CF8099006F8049C0EF079
:10023000300E0CEB1119890019F80EE006F803ECEA
:1002400001F03C010CEB981E08F03F081EF801106D
:1002500006F8021C1CF8081006F8011C0335A0E77C
:10026000D92404002DE9F043DDF81CE0DFF8188103
:1002700000273C463D4675452DD24FF0000C5E5D93
:10028000202E23D0AEEB0509B9F1010F05D90D2EB3
:1002900003D15E1976780A2E16D05E5D0A2E13D031
:1002A000BCF1000F6CD13D2E02D10137022F67D86F
:1002B00016F0800F64D118F806607F2E60D03F2EB4
:1002C00001D8002F5CD101340135D4E70135AE45AA
:1002D0000CF1010CD3D11CB914600020BDE8F083EF
:1002E00004F0070E0626E40806FB0EFE74430EF12A
:1002F000070EE41B04EBDE0478B18C420DD8002716
:10030000DFF884C0DFF884801D44014603263C46A4
:10031000AB4207D1091A1160DFE714606FF00B00E0
:10032000BDE8F08313F8019BA9F10A0E5FFA8EFE77
:10033000BEF1160F04D828FA0EFE1EF0010FE7D109
:100340001CF809E00134BEF1400F08BF013E0EF079
:100350003F0E042C4EEA8717DAD17EB13C0C012EF9
:100360000C7002D101310024D2E7022E4FEA17248B
:100370004C7016BF8F7002310331F4E73446C7E783
:100380006FF01500BDE8F083592404000900400017
:1003900010B590F90B40C0688C424FF00C04B6BF0A
:1003A000614304FB01014158202492FBF4F401EB6A
:1003B0008401196002F01F0010BD07B501ABFFF703
:1003C000E7FF019A012303FA00F013680343136067
:1003D00003B05DF804FB07B501ABFFF7D9FF019A45
:1003E000012303FA00F0136823EA0003136003B04B
:1003F0005DF804FB2DE9F047436805890446006871
:10040000A77A5D43FF222844E27200214FF00C0ED0
:100410004FF0200CB94205DB002523899D4223DBE8
:10042000BDE8F087D4F80C90B5FBF3F20EFB01F8B1
:100430001F2A09EB08064FEA930306F1040AC8BF16
:100440001F3203F10303C6F804A0C6F808A0CABF10
:1004500092FBFCF2E17249F8080023F00303C8BFE5
:1004600000EB82000131D5E76268E36820686A43E7
:100470001E1D865081189A684A609A68204611604D
:1004800099602A460021FFF798FF0135C5E72DE95D
:10049000F04F8BB0857A00AF0446BB60AB000A33E7
:1004A00023F00703ADEB030D4368FA6003336A469C
:1004B00023F0030342F80439E9464FF0FF360023E6
:1004C0004FF00C0E581EAB42786209DA2BB110685F
:1004D0008008033020F003005060506888420BD23F
:1004E0007B6A013314D13A6D002313606FF00B0067
:1004F0002C37BD46BDE8F08FE0680EFB030000F12D
:10050000040C40680432604518BF1E460133D9E729
:10051000711CE8D094F8108059F8261018F00108E2
:1005200005D04FF02003EFF3118883F31188E268C0
:100530000C2303FB062353F8045F9D422CD095E85F
:100540000C001A602A68536022682046AA1A92FB9F
:10055000F1F23146FFF73FFF237CDA0701D588F33C
:100560001188002D6AD0A9EB890309EB860A3B614B
:100570007B6A9E4212DBFB681A467B6A1360236823
:100580007A6AEB1A59F8222093FBF2F3BA681360E7
:100590003B6D00201D60ABE70025DDE7237C13F0F9
:1005A000010305D04FF02002EFF3118382F311888D
:1005B0003B6223685AF8042BEB1A93FBF2F33A6977
:1005C0009B00BB610AEB4A0313444FF0010B7B61B4
:1005D00006EB0B037B60DAF8008079680BFB08F30D
:1005E000FB61EB183B60BB6920460BEB0302FFF796
:1005F000E4FE3B682268218908F1FF389844A8EBA3
:10060000020862684A4390450AD2E2687969F8694B
:100610000A44111D29509168596091680B609360DC
:100620000BF1010BBBF1040FD5D1237CDB0706F1E5
:1006300001069DD53B6A83F3118899E76FF00A00A4
:1006400056E72DE9F04F87B0837A9B000A3323F0F9
:10065000070300AFADEB030D4368033323F003033F
:100660000446EB4600936D460120814260D20D4660
:10067000164694F810805BF82590D4F800A018F086
:10068000010805D04FF02003EFF3118883F31188A0
:10069000324629462046FFF790FE002D51D007F143
:1006A0001403324629462046FFF772FE7A69042376
:1006B00090FBF3F083001068D84000F00F000F2883
:1006C0003FD126F00302FA6009F1FF320023BA603D
:1006D000FA687B6002EB030A524629462046FFF780
:1006E0007AFE56457B6816D0B968B4F808E02268EF
:1006F00009FB0AFA0AEB0100616801FB0EF188426E
:1007000002EB0A0C07D2DCF8040052F80A10016070
:1007100052F80A2050600133042BD9D1237CDA0728
:1007200001D588F311880423013D96FBF3F6A0E779
:100730002B689B08033323F0030345F8043F013083
:1007400093E709FB06F6226861680AEB060309F1E4
:10075000FF399944A9EB02092289514389450BD2FB
:10076000E1680C2202FB05152A1D4AF80620AA683A
:100770005A60AA681360AB60237CDB0701D588F35D
:1007800011881C37BD46BDE8F08F0020704700007F
:100790000B6801330B60014B1B6818476CE60020A7
:1007A0002DE9F04F85B09B460E9CDFF890A0012C00
:1007B000B8BF0124012B0CBF3023202315468046EF
:1007C00089460194029301260A2700220AF10104B6
:1007D0000AB9AA451FD2B5FBF4F049463030C047EC
:1007E00001360122013F012FB5FBF4F14FF00A035E
:1007F00004FB1155BAFBF3FAE8D1494605F1300084
:10080000C047BBF1030F03D1019B9C1B002C0FDCE5
:1008100005B0BDE8F08F019BBB42E3DBBBF1020FEB
:10082000E0D84946029803920136C047039AD9E7B7
:1008300049462020C047013CE8E700BFFFC99A3B7A
:100840000A688B6830B512B14C68A34202DB0133F1
:100850008B6030BD651EAB420BBF8C605C1C002101
:100860008C600CBFD154D05430BD0000014B1860D7
:10087000704700BF6CE600202DE9F04F89B04FF0C3
:10088000000A06460F4604921C464FF0FF39D04638
:100890005546049B187810B909B0BDE8F08F45B9EA
:1008A000252800F00C813946B047049B013304939E
:1008B000EFE7642861D019D839280AD8312850D2F6
:1008C0002D283CD030283DD0252808D13946B047C6
:1008D0006FE0582800F08980632800F0EA803946EC
:1008E0002520B047049B39461878F0E7702872D06D
:1008F00006D8692841D06C283CD06828D5D0EEE7CE
:10090000752858D017D87328E9D1236804F1040B4F
:100910001C46254615F8010B002840F0BF80B8F1B1
:10092000030F40F0D580E41AA9EB0404002C00F377
:10093000BB805C463DE0782857D07A28DEE74FF050
:100940000308B2E7B9F1000F0EDAB8F1000F00F0BA
:10095000BC80A0F13009B8F1000F08BF4FF00208C9
:10096000A3E7B9F1000FF4DB0A2303FB0909A9F19E
:100970003009F0E70AF1010A97E7BAF1010FC5BFA4
:10098000073424F0070325681D68D4BF043403F13D
:100990000804002D05DA39462D20B0476D4209F1D3
:1009A000FF39CDF8009043462A4639463046FFF7D6
:1009B000F7FE002579E7BAF1010FC5BF073424F02F
:1009C000070322681A68CDF80090CCBF03F1080431
:1009D00004344346E9E739463020B04739467820A9
:1009E000B0474FF008094FF00108BAF1010FC7BF37
:1009F000073424F0070323680593C2BF03F10804FA
:100A00001B6805934FF008024FF00003D8BF043471
:100A10000393079393460BF1FF3B059B4FEA8B0033
:100A200023FA00F010F00F0009D1079B13B9BBF1B6
:100A3000000F22D14FF0300E07E0069AEBE70928AD
:100A40008CBF4FF0570E4FF0300E3946704406926F
:100A5000B047039B079501330393BBF1000FECD123
:100A6000B8F1030FA5D1039BC3EB4905002DA0DD11
:100A700039462020B047013DF8E7531E91450693C3
:100A8000EBDBB8F1010F03D139463020B047E4E782
:100A9000B8F1020FE1D139462020F7E73946039338
:100AA0002C46B047039B34E739462020B047013C31
:100AB0003CE72068251D3946B0472C4679E7AA4611
:100AC000A8464FF0FF390125EFE64FF00108ECE6AC
:100AD0005C460546E9E6000013B502AC002344F885
:100AE000043D02460B4603482146FFF7C5FE019828
:100AF00002B010BD910702000FB407B504A951F868
:100B0000040B0191FFF7E8FF03B05DF804EB04B0BC
:100B1000704700000CB430B585B008AB044653F8FC
:100B2000042B01900291002501A907480093039529
:100B3000FFF7A2FE0398029B9842B8BF255405B068
:100B4000BDE8304002B070474108020070478B4258
:100B500038B515461C4605D81A46294603F0E1FB70
:100B6000204638BD0024FBE703F007BCC3095A0048
:100B7000134403EBC30383EA4000C0B270472DE97E
:100B8000F0410646A8B00F46144640254FF0200815
:100B900000F066F9034618B9002028B0BDE8F081DE
:100BA000402108A898470028F6D0B4F9023004F193
:100BB000240208A968461F3393FBF8F35BB200F0E8
:100BC000ECFA2246694618A800F009FF00B3B4F910
:100BD00002306A4607333846082193FBF1F100F0F2
:100BE00026FF18AA94F90110304600F020FF94F96E
:100BF000011094F9002018AB03EB8202701800F08A
:100C000016FF20220021684603F0B7FB0120C4E74D
:100C1000013DBDD1C0E72DE9F04F9146A5B0B3F934
:100C2000022093F9017093F900B004AD82464FF0B1
:100C300008080CAE2846073292FBF8F21C460295D3
:100C4000039600F008FF3A46514614A800F003FF4F
:100C500014AB0AEB070103EB8B003A4600F0FBFEF6
:100C6000234632462946284600F08DFEB0FA80F031
:100C7000019424AB400903EB8000638801331BB26D
:100C8000009314A9002350F8882C084600F0AAFD10
:100C900014AA3946484600F0CAFE214614A800F0BE
:100CA00018FD0DEB0804074642460021204603F0DC
:100CB00064FB20220021304603F05FFB202200214C
:100CC000284603F05AFBB7FA87F0400925B0BDE883
:100CD000F08FF0B500248646204665B2AB4200DCBA
:100CE000F0BD51F8245052F824602E440644B54219
:100CF0008CBF0125002514BF0127002707FB05F73E
:100D00000CBF054600254EF8246047EA0500013473
:100D1000E3E700EB81010023884200D3704751F8DC
:100D2000042C43EA520341F8043DD307F4E7036877
:100D300070B513F001050646144605D013460A4661
:100D40000146FFF7C6FF054621463046FFF7E1FFA3
:100D500045B104F18042013A56F8223043F0004395
:100D600046F8223070BD2DE9F04F87B00392002283
:100D70000291154614464FFA82F8984514DB4FF05D
:100D8000FF3C00220CEB430C00929DF8002002EB8C
:100D9000030E4FFA8EFEE64533DB00EBC30040F84E
:100DA000044C07B0BDE8F08F039E4FF0000E06EB39
:100DB0008209F446029959F8047951F82E60019598
:100DC00000250095A7FB06ABDDE9006746EA0406AF
:100DD00016EB0A0447EB0B055D450EF1010E08BF4B
:100DE00054454FFA8EFA264634BF01240024D045DC
:100DF000A4443446DEDA40F822602C4601326546CF
:100E0000B9E701322F4652B200259A4206DB009A1A
:100E100040F82E40013200923C46B6E7AEEB0206A7
:100E20000399059751F82660029951F82210A6FB04
:100E300001AB00210491DDE9046746EA040616EBE4
:100E40000A0847EB0B09D94508BFD04534BF012438
:100E50000C46013225444F4652B24446D5E70000C5
:100E6000014B1868704700BF70E60020002310B5E2
:100E70001C465AB2914200DC10BD40F823400133B9
:100E8000F7E710B500231A465CB2A14203DCB2FAC0
:100E900082F0400910BD50F8234001332243F3E7AC
:100EA0004A11012350F8220001F01F0103FA01F159
:100EB00008407047013949B2002904DA013149B2CA
:100EC00031B90846704750F82130002BF2D0F5E7D1
:100ED00001F18043013B50F82330002023B9013950
:100EE00000EB411108B270475B080130F6E710B51E
:100EF00000235CB2A24200DC10BD51F8234040F850
:100F000023400133F5E710B5013A52B2002A01DA65
:100F1000002010BD13B250F8234051F823309C42FA
:100F200003D8F1D24FF0FF3010BD012010BD30B515
:100F3000013A52B20023002A03DA181C18BF01201C
:100F400030BD15B2013A50F8254051F825506C409B
:100F5000234352B2EFE7F0B500248646204665B23F
:100F6000AB4200DCF0BD51F8245052F82460AE1BB7
:100F7000361AB54234BF0125002514BF01270027CA
:100F800007FB05F70CBF054600254EF8246047EA2D
:100F900005000134E3E70000F0B5082289B00C46F3
:100FA0000646FFF7A4FFCB6A03930B6B04934B6BCE
:100FB00005938B6B0693CB6B0793002708236A4638
:100FC00069466846029701970097FFF782FE08235B
:100FD00005466A4631463046FFF77BFE236B039396
:100FE000636B0493A36B0593E36B0693054408239B
:100FF0006A46694668460797FFF76BFE0823054473
:101000006A4631463046FFF764FE236A0093636AFE
:101010000193A36A0293A36B0693E36B07930544C2
:1010200008236A4631463046059704970397FFF731
:1010300050FE636A0093A36A0193E36AA26B029372
:10104000636B039304920693E26B236A0592054453
:1010500007936A46082331463046FFF73AFEE36AB3
:101060000093236B0193636B0293236A0693A36A35
:101070000793054408236A4631463046059704978E
:101080000397FFF768FF236B0093636B0193A36BD8
:101090000293E36B0393636A0693E36A07932D1A43
:1010A00008236A463146304605970497FFF753FFF9
:1010B000636B0093A36B0193E36B0293236A039327
:1010C000636A0493A36A0593236B07932D1A08237D
:1010D0006A46314630460697FFF73DFFA36B009303
:1010E000E36B0193636A0393A36A0493E36A059332
:1010F000636B07932D1A08236A46314630460297E0
:101100000697FFF728FF2D1A0D4C0FD435B908228A
:1011100031462046FFF7F7FE01280FD0082322466C
:1011200031463046FFF717FF2D1AEFE70823224616
:1011300031463046FFF7CDFD2D18F7D409B0F0BD8C
:101140002025040070B59DF910401E462346054633
:10115000FFF7BFFD30B9224629463046FFF7D3FEE0
:10116000012807D02346324629462846BDE870406C
:10117000FFF7F1BE70BD70B59DF910401E462346C5
:101180000546FFF7E8FE38B1234632462946284691
:10119000BDE87040FFF79DBD70BD2DE9F04FA5B0D3
:1011A0001D46039114AB294680461046174602930C
:1011B000FFF780FEC0EB851004B2634203F01F030B
:1011C0004FF0200694FBF6F676B204F01F0904A84F
:1011D00058BFC3F100093146FFF748FEB9F1000FCF
:1011E00030B22BDD04AB002203EB8000C9F1200EEE
:1011F0001346AB4217D32FB27B00019304AB03EB32
:10120000870705F1FF3924AB012603EB8909002C80
:1012100055DB24AB0022C6F10100964603EB860A9B
:1012200003EB80002DE057F8236006FA09F10A432A
:1012300040F8232026FA0EF20133DAE704AB2A46FF
:10124000394603EB8000FFF752FED4E70FFA81FC2A
:101250005AF8883C53F82CB024AB03EB810151F8C9
:10126000803CABEB0303A3EB0E039B4504D034BFE0
:101270004FF0010E4FF0000E50F8881C41F82C3052
:101280000132019B51B29942E0DBA6EB0E035E42B4
:10129000294604A85E41FFF73CFD24AB03EB850320
:1012A000294653F8802C59F8803C384643EAC273EB
:1012B000013C49F8803C24B2FFF72BFDA7E724ABA3
:1012C00003EB86062A4656F8881C4046FFF70FFEB9
:1012D00025B0BDE8F08F30B51C4691B0054693F9B6
:1012E00000306846FFF73FFDD4F8AC306946284629
:1012F000984711B030BD13460A46FFF7ECBF2DE901
:10130000F04793F9006092B0044689461046314692
:1013100015469846FFF7B5FD002840F093804246F9
:10132000494602A8FFF7E7FF434602AA21460AA85A
:10133000FFF7D1FF02A908464246FFF7DCFF43460C
:101340002A4649464846FFF7C6FF08F104074246C9
:1013500029462846FFF7CFFF3B462A46214620462E
:101360000096FFF7EFFE3B462A46294628460096A0
:10137000FFF7E8FE3B462A46214628460096FFF73F
:10138000FAFE43462A4621462046FFF7A4FF3B4685
:101390002246214628460096FFF7D4FE3B4600969B
:1013A0002A4621462046FFF7CDFE2368DB074CD5B1
:1013B00033463A4621462046FFF78BFC31468246AB
:1013C0002046FFF7A6FC06F18043013B54F82300BA
:1013D00040EACA7044F82300424621462846FFF7F7
:1013E0008AFF3B460AAA294628460096FFF7C3FE15
:1013F0003B460AAA294628460096FFF7BCFE0AA9E2
:1014000008463B462A460096FFF7B5FE43460AAA21
:1014100021462046FFF75FFF02AA3B4610462146C1
:101420000096FFF7A8FE324629462046FFF75FFDEB
:10143000324649462846FFF75AFD324602A9484639
:10144000FFF755FD12B0BDE8F08731462046FFF7A3
:1014500060FCC1E72DE9F04115468AB00446884694
:101460002022002102A802F088FF2E1D95F90070AD
:1014700003232A46414620460293FFF73CFF3346AA
:1014800002AA214620460097FFF775FE2B464246EA
:1014900021462046FFF71FFF0097334605F18402DF
:1014A00021462046FFF74EFE0AB0BDE8F0812DE947
:1014B000F0439BB01646229C14F9045B00959846B5
:1014C0000746894623460246314602A8FFF753FEE7
:1014D00002A9229A0846FFF70EFF229B02AA39466C
:1014E0003846FFF7F8FE229B02AA31463046FFF746
:1014F000F2FE23464A46414602A80095FFF722FE27
:1015000023464A46414640460095FFF734FE2346AF
:101510003A4631460AA80095FFF72DFE229B0AAAFB
:1015200049464846FFF7D7FE2346324639460AA8C1
:101530000095FFF707FE229A41463046FFF7DBFE93
:1015400023460AAA314630460095FFF714FE23468B
:101550003246394612A80095FFF70DFE229B12AACB
:1015600041464046FFF7B7FE23464A4641464046BD
:101570000095FFF700FE229A02A912A8FFF7BBFE12
:1015800012A923460AAA08460095FFF7F4FD234650
:101590003A4612A90AA80095FFF7EDFD0AA9229B79
:1015A00002AA0846FFF797FE23464A460AA948467C
:1015B0000095FFF7E0FD2A4612A93846FFF797FC91
:1015C0001BB0BDE8F083F0B50F46A1B00646194642
:1015D000384615461C46FFF754FC28B121463046D4
:1015E000FFF744FC21B0F0BD224639466846FFF7BC
:1015F0007EFC2246294608A8FFF779FC214610A860
:10160000FFF734FC0123214618A81093FFF72EFCA6
:10161000224608A96846FFF776FC28B9224610A999
:101620003046FFF764FCDDE7009BDA0709D421466A
:101630006846FFF76EFB2246294610A8FFF777FBA6
:10164000E6E7089BDB0707D4214608A8FFF761FB04
:101650002246294618A8F1E7002823461CDD08AADF
:1016600069466846FFF777FC21466846FFF751FB5D
:10167000224618A910A8FFF746FC002805DA10A991
:1016800023462A460846FFF724FB10A9234618AA3A
:101690000846FFF760FCCEE708A96A460846FFF750
:1016A0005AFC214608A8FFF734FB224610A918A8C7
:1016B000FFF729FC002805DA18A923462A46084620
:1016C000FFF707FB18A9234610AA0846FFF743FCBB
:1016D000BEE70978490049B2FFF7D3BBF0B515461C
:1016E00089B01C4607460E461A4629466846FFF74B
:1016F00002FE23466A4639463846FFF7ECFD23468C
:101700002A4669466846FFF7E6FD23466A463146A3
:101710003046FFF7E0FD09B0F0BD2DE9F0438BB096
:101720001446129D15F9046B00961F4680468946A3
:101730002B460246214602A8FFF71DFD02A9129A78
:101740000846FFF7D8FD129B02AA41464046FFF724
:10175000C2FD129B02AA21462046FFF7BCFD2B4684
:101760004A46394638460096FFF705FD129A394633
:1017700002A8FFF7C0FD02A92B4642460846009684
:10178000FFF7F9FC02A92B46224608460096FFF710
:10179000F2FC2B464246214620460096FFF7EBFC22
:1017A000129B224649464846FFF795FD2B4602AA62
:1017B000414620460096FFF7DEFC129B2246394642
:1017C0003846FFF788FD2B464A463946384600968C
:1017D000FFF7D1FC324602A92046FFF788FB0BB089
:1017E000BDE8F0832DE9F04FB1B01E463B9C04905C
:1017F00094F90070069218A83A460591FFF777FB16
:10180000BB000793059BBA00134419463A4628A823
:101810000293FFF76CFB94F90050002E00F08980D2
:101820002A46314608A8FFF762FB10AE2A4618A9DF
:1018300030460DF18009FFF75AFB2A4628A9484691
:10184000FFF755FB234608AA28A918A8FFF746FF6B
:10185000D4F8A450234608AA28A918A8A8472346C4
:1018600008AA49463046FFF739FFBDF9E850023D66
:101870002DB2002D64DC069B1D68009405F0010666
:1018800010AB7601ED4303EB060805F0010520AB34
:101890001E446D0110AB03EB050920AB1D4404F1A0
:1018A000040A2B464A4631464046FFF700FE53469F
:1018B00010AA18A908A80097FFF75DFC08A92346FD
:1018C00032460846FFF707FD08A92346059A084651
:1018D000FFF701FD08A93B4652460846FFF773FE95
:1018E00008A92346029A0846FFF7F5FC08A92346F3
:1018F00042460846FFF7EFFC00943346424629462D
:101900004846FFF70AFF234608AA20A910A8FFF7B8
:10191000E5FE3A4610A90498FFF7E9FA049B079CF4
:1019200023443A4620A91846FFF7E1FA31B0BDE852
:10193000F08F294608A8FFF799FA0123089374E766
:1019400029460698FFF7ACFAB0FA80F04009C0F1DA
:1019500001084FEA4818400106EB080B06EB000AA5
:10196000C84409EB0003524641465846009403938D
:10197000FFF79DFD009443465A4603995046FFF7F2
:10198000CCFE013D74E72DE9F041B3F902500F465A
:1019900003F12406904605F11F04202294FBF2F483
:1019A00064B20146234632463846FFF792F990B9B1
:1019B000B5EB441F11DA29463846FFF771FA051CCA
:1019C00018BF01252346324639464046FFF781F9C4
:1019D0002846BDE8F0810125F4E70546F2E730B579
:1019E000144695B005460CAA2346084604A9029160
:1019F0000392FFF7C8FFB0FA80F014AB400903EB85
:101A000080006388019401331BB2009350F8482C86
:101A1000002304F144012846FFF7E4FE214628464E
:101A2000FFF757FEB0FA80F0400915B030BDF0B5B1
:101A300000254F1E6CB28C4205F1010500DBF0BDA4
:101A40003B1B23F0030603F003039659DB0026FA41
:101A500003F30355EEE7F8B5144604230E46D11CF4
:101A600091FBF3F149B20546671EFFF7FFF900222B
:101A700051B28C4202F1010200DCF8BD7B1A23F066
:101A80000300715C03F00303DB0001FA03F3295840
:101A900019432950ECE72DE9F04190B006460C4679
:101AA00091F90050FFF715FE48BB04F104082A46DF
:101AB00031464046FFF727FA012823D106EB850778
:101AC0002A4639464046FFF71EFA01281AD1224617
:101AD00039466846FFF70FFCD4F8A8302246314655
:101AE00008A898472A4608A96846FFF720FA002860
:101AF00014BF6FF00200002010B0BDE8F0814FF07D
:101B0000FF30F9E76FF00100F6E770B50C4690B0D2
:101B1000254691F90120064601466846FFF79BFFDE
:101B200094F9012015F9440BB1180DEB8000FFF773
:101B300092FF102229466846FFF7E5F928B12146B1
:101B40006846FFF7A8FF10B070BD6FF00300FAE71A
:101B5000CB780278534003704B88427853404370EF
:101B60000A68837883EA122383700A68C378534033
:101B7000C370CB79027953400371CB8842795340CB
:101B800043714A68837983EA122383714A68C3796F
:101B90005340C371CB7A027A53400372427A4B8925
:101BA000534043728A68837A83EA122383728A6875
:101BB000C37A5340C372CB7B027B53400373CB8900
:101BC000427B53404373CA68837B83EA1223837347
:101BD000CA68C37B5340C37370471FB502788DF842
:101BE000002042798DF80120827A8DF80220C27B94
:101BF0008DF8032002798DF80420427A8DF80520B3
:101C0000827B8DF80620C2788DF80720027A8DF845
:101C10000820427B8DF8092082788DF80A20C2794D
:101C20008DF80B20027B8DF80C2042788DF80D206A
:101C3000C37A82798DF80E208DF80F3010236A4612
:101C40001946FEF784FF05B05DF804FBF8B50646BB
:101C500008780C46FEF78AFF05466078FEF786FF97
:101C6000A27863785340E27853405D404540357038
:101C700060782778FEF77AFF0546A078FEF776FFB2
:101C8000A3785F40E3785F407D4045407570A07861
:101C900065782778FEF76AFF6F400546E078FEF723
:101CA00065FFE3785F407D404540B5702078FEF7E2
:101CB0005DFF637825785D40A3785D404540E0781E
:101CC000FEF754FFEDB26840F070F8BDF0B5284E55
:101CD00007460C460FCE8DB001AD0FC50FCE0FC518
:101CE00096E8070085E80700002F3CD0002C3CD088
:101CF000381F2146024610344B780D781B0443EA06
:101D00000563CD782B438D78043143EA05238C425B
:101D100042F8043FF0D1174C04218A07036918D117
:101D20004FEA33631A0EA55CDAB2A25C42EA05629E
:101D3000C3F30745C3F30723655DE35C42EA05424D
:101D400042EA03220CAD21F003032B4453F82C3C50
:101D5000534050F8042F013153402C290361DCD14A
:101D600001200DB0F0BD3846FBE72046F9E700BF83
:101D7000E01D0400CC2504002DE9F043154689B090
:101D8000804600285BD000295AD0002A5AD0102360
:101D90000A4668461946FEF7DAFE294668462A4C86
:101DA000FFF7D6FE05F11007A146A03500261DF865
:101DB0000630E35C0DF806300136102EF7D1684688
:101DC000FFF70BFF694604A8FFF740FF01A905A82C
:101DD000FFF73CFF02A906A8FFF738FF03A907A8F1
:101DE000FFF734FF334604AA31466846FEF7AFFEDC
:101DF000394668461037FFF7ABFEBD42D6D1002604
:101E00001DF8063019F803300DF806300136102E93
:101E1000F6D16846FFF7E1FE29466846FFF798FECF
:101E200033466A4631464046FEF791FE68463246E2
:101E30000021FEF799FE012009B0BDE8F083FBE721
:101E40000846F9E71046F7E7CC25040010B591F9EC
:101E50000030002B01F10F02B4BF872300230F30A5
:101E600014788A4283EA440300F8013903D012F857
:101E70000139DB09F4E710BD08B528B1582200216B
:101E8000FEF772FE012008BD08BD10B5044690B1F2
:101E900010220021FEF768FE04F13000102200211C
:101EA000FEF762FE0023636400224FF48033C4E92E
:101EB0001423012010BD10BD70B50D461646044612
:101EC00018B319B358220021FEF74EFE2946A66426
:101ED0003046FFF7FBFE204610220021FEF744FEAD
:101EE00004F11005A26C21462046FFF745FF21466C
:101EF0002846FFF7ABFF294604F12000FFF7A6FFB5
:101F00002046FFF7C2FF012070BD70BD084670BDBE
:101F1000F8B50D461646044600285BD00AB90120E4
:101F2000F8BD002956D0D0E9142352EA030151D05C
:101F300012F1FF3243F1FF33C0E91423406C48B380
:101F4000C0F11007BE4200F1300009D233463146DD
:101F50002A462044FEF7FBFD636C1E446664DEE700
:101F60003B462A4639462044FEF7F1FD00236364D0
:101F7000F61B3D44631E04F10F005A7893F83110AC
:101F80004A4003F8012F8342F7D1A26C2146204634
:101F9000FFF7F2FE04F10F07102E11D9631E691E20
:101FA0005A7811F8010F424003F8012FBB42F7D1D4
:101FB000A26C21462046FFF7DFFE1035103EEBE70E
:101FC000002EACD033462A46314604F13000FEF7ED
:101FD000BEFDC3E70020F8BD70B50C46054670B3E2
:101FE00071B34A6C102A1AD101F11002611E013A34
:101FF00004F10F0691F831004B78434012F8010FBD
:10200000434001F8013F8E42F4D1A26C214628469C
:10201000FFF7B2FE2046FFF72FFF012070BD02F14F
:1020200030000021C2F110022044FEF79DFD636CD8
:102030002344802283F8302004F12002D6E770BDCB
:10204000084670BDBFF34F8F0549064BCA6802F4BE
:10205000E0621343CB60BFF34F8F00BFFDE700BFCB
:1020600000ED00E00400FA05094B1B78062B0CD1AB
:10207000084B1B681A0708D1074B186800F0F000DE
:10208000A0F130035842584170470020704700BF0C
:10209000E00F00F0E40F00F0E80F00F00C4B1B78AD
:1020A000062B10D10B4B1B681A070CD10A4B186872
:1020B00000F0F003302B08D000F0E000A0F1400366
:1020C000584258417047002070470120704700BFB8
:1020D000E00F00F0E40F00F0E80F00F008B5FFF7A4
:1020E000DDFF28B1854B864A1B68C3F304231360C8
:1020F000FFF7BAFF10B1834B834A1A60FFF7CEFF98
:1021000028B1824B824A1B68C3F342331360FFF746
:10211000ABFF20B17F4AD36823F08073D360FFF711
:10212000BDFF40B14FF080430022C3F80C21C3F83B
:102130001021C3F83825FFF797FF10B1764B032223
:102140001A60FFF791FF40B1744B05221A6001221B
:102150009A6700229A603F225A60714B1B78062BC7
:1021600009D1704B1B68180705D16F4B1B6803F032
:10217000F003502B73D0FFF791FF28B16B4B6C4AE3
:102180001B6803F04F031360FFF788FF48B14FF05F
:102190008043D3F80024D10744BF6FF00102C3F895
:1021A0000024644B1B68062B04D1634B1B68062B71
:1021B00000F09D804FF01023D3F80C22D2071ED5DB
:1021C0005E4B0122C3F80425D3F80024002AFBD07B
:1021D0004FF01022D2F80C3223F00103C2F80C3277
:1021E000564B1A46D3F800140029FBD00021C3F83F
:1021F0000415D2F80034002BFBD0FFF723FFD3F8EF
:102200000022002A03DBD3F80432002B23DA4B4BE5
:102210000122C3F80425D3F80024002AFBD04FF094
:1022200010221521C2F80012D3F80024002AFBD096
:102230004FF010231522C3F80422404B1A46D3F85E
:1022400000140029FBD00021C3F80415D2F8003493
:10225000002BFBD0D1E73A4B3A4A1A6008BD4FF049
:102260008052394BD2F80414C3F82015D2F8081460
:10227000C3F82415D2F80C14C3F82815D2F810149A
:10228000C3F82C15D2F81414C3F83015D2F818146A
:10229000C3F83415D2F81C14C3F84015D2F8201432
:1022A000C3F84415D2F82414C3F84815D2F82814FA
:1022B000C3F84C15D2F82C14C3F85015D2F83014CA
:1022C000C3F85415D2F83414C3F86015D2F8381492
:1022D000C3F86415D2F83C14C3F86815D2F840145A
:1022E000C3F86C15D2F84424C3F8702543E7174AA5
:1022F000136843F4806313605CE700BF240300109D
:102300004035014074C007400DF0ADBA44020010E2
:102310003C050040F0ED00E0A005004010560040F4
:10232000E00F00F0E40F00F0E80F00F0580200109A
:10233000E40E0040300100103401001000E00140C4
:1023400074E600200090D00300C000403C1700401D
:1023500000470000084BD3F80433DB0707B508D566
:10236000064B1B689847064B00221A601B680193B6
:10237000019B03B05DF804FB0000014050320020D7
:102380000001014008B50D4B19600D4B1A7892B948
:1023900001221A700B4A0378C2F80C3543684FF4D7
:1023A0007A711020DB03B3FBF1F3C2F8043501F0BE
:1023B0002DFD054808BD054808BD00BF503200206E
:1023C0004C320020000001400000AD0B0500AD0BB9
:1023D000044B0122C3F804231A60034B02221A7033
:1023E000704700BF000001404C32002010B54FF094
:1023F0002003EFF3118483F311880A4B1A68072A2C
:102400000ED8511C1960084902700123D1F8080543
:10241000934003430548C1F8083584F3118810BD83
:102420000348FAE748320020000001400000AD0BED
:102430000200AD0B00F5C070024B034A43F82020A8
:10244000704700BF000001403546526E0369C16805
:102450008B429DBF8268D21802F1FF3203F1FF3335
:1024600094BF501A581A70472DE9F041C768866822
:10247000F61B9642044688461546406806D93844FD
:1024800001F04FFF3D44E560BDE8F081324638443D
:10249000AD1B01F046FF2A4608EB0601606801F01B
:1024A00040FFF0E72DE9F843C56806468946174620
:1024B0004FF000083469B3687068A54228BFE4187B
:1024C000013C621B5C1BBC4228BF3C46944228BFB7
:1024D000144649462844224601F023FFB3682544A8
:1024E0009D4208BF00253F1BA044A144F560E1D1F7
:1024F0004046BDE8F883000010B5114C114AA261B6
:10250000032323616361104BE36122664FF4806310
:102510000E4A2362626600231022A3626362E362B2
:102520002367E3666367A2660949E01D01F0C5FE03
:102530000849204601F0C1FE2023A37110BD00BF51
:10254000B46C0020CC2604006432002054320020F9
:10255000D5260400D9260400F8B5184C182300FB32
:10256000033503FB00402544C46A012C0F46164680
:1025700011D003D3022C1BD000240AE02846FFF719
:1025800065FFB04205D3324639462846FFF76CFF57
:1025900034462046F8BD2846FFF758FF86423446A9
:1025A00028BF0446224639462846FFF75DFFF0E77C
:1025B0002846BDE8F840FFF775BF00BFB46C0020A7
:1025C000FFF79ABF38B5416A044600F093FA236AD0
:1025D000984205460FD070B1A28E0132014692B2E8
:1025E000204600F036F940B90823A362A38E656245
:1025F0000133A38638BD6FF0030038BD2DE9F04FDD
:1026000085B0044603A80D46904600F0FAF8061E71
:1026100068DB94F83630012BB7B205D9591E5A42FF
:102620000F440D4417401540012B88BF5A4204F156
:102630000C098CBF13400123ADB24FF0FF31484667
:102640001D441EF055F9ADB20646002854D1616A0A
:10265000A36A4A683B442B4493422BD994F806B0B2
:102660008246204600F046FA236ABAF1000F08BFFE
:1026700082469842014639D00136731E9B45F0DCF4
:10268000BAF1000F32D007F10803DAF804202B4426
:102690009A422BD3A28E013292B25146204600F0CC
:1026A000D8F80646D8B90823A362A38EC4F824A09C
:1026B0000133A386009703ABA26A616A204600F04B
:1026C0006BF80646A8B9636AC8F80030A36AC8F870
:1026D0000430A36A1F44C8F808702F44A762484614
:1026E0001EF06EF9304605B0BDE8F08F6FF00306BE
:1026F000F5E76FF00106F2E74FF0FF36F2E7F0B5CD
:1027000083B090F83620D31D23F0070302AFADEB62
:10271000030D02AE04460D463046FF2101F02DFEAA
:1027200032462946204600F03EF9B0B994F836000A
:10273000AA89D5F808E00090012881BF00F1FF3395
:10274000D21841420A40334672442968204600F0BC
:1027500023F8002818BF6FF001000437BD46F0BD14
:10276000806B08B100F0A5BB704770B514461A46DF
:10277000049B4D68E618AE420BD8806B10B96FF021
:10278000010070BD0968214400F02CFB0028F6D13F
:1027900070BD4FF0FF30FBE770B514461A46049B3E
:1027A0004D68E618AE420BD8806B10B96FF001008F
:1027B00070BD0968214400F02DFB0028F6D170BDE2
:1027C0004FF0FF30FBE7806B08B510B96FF00100E8
:1027D00008BD06C900F047FB0028F7D108BD416AD3
:1027E00038B5054600246B799C4201DB204638BD94
:1027F000284600F07FF92B6A98420146F6D0013452
:10280000F1E77F2902D801700120704747F6FE7377
:1028100099429FBF61F07F03C9090370417094BF63
:1028200002204FF0FF30704703781A060BD5FF2BBC
:10283000427801D1FF2A09D003F07F0343EAC21393
:102840000B80022070470B80012070476FF0020060
:1028500070471FB503798DF80C30FF238DF80D30CC
:1028600008230468ADF80E20009300226B44029404
:10287000FFF792FF002818BF6FF0010004B010BDF1
:1028800030B5054685B0144602B902AC0823009362
:10289000002223462846FFF768FF50B923685A1CD8
:1028A00005D02A68934214BF6FF00600012005B0DE
:1028B00030BD6FF00100FAE72DE9F04F8B6885B06D
:1028C0000C462BB94FF0FF35284605B0BDE8F08F18
:1028D0004B798A799B1A002BF4DD3831C0B200F0B5
:1028E00047FA06460028EDD12046FFF739FF834618
:1028F0000028E7D04FF0FF33B2463746984662795A
:10290000964224DBB8F1FF3F49D1A768002239463F
:102910002046FFF79EFF05460028D5D1BA4608237A
:1029200084F836B02762C4F824A0A362A58604F117
:1029300024063146204600F0BBF8C31C054630D0C3
:102940000028F6D004F10C001DF0CCFFBCE7A26813
:10295000019302EBC609494602AA2046FFF790FF01
:10296000051EB1DB019B08D0B8F1FF3FBDF80E207A
:1029700005D19046CA464F4613460136BFE715B209
:1029800018B2281A002802DD1346CA46F5E70FFAE6
:1029900088F1491B0029C4BF90464F46EDE71D460C
:1029A000BDE70025CEE72DE9F0470C46174606C9DE
:1029B0004B68951C9D428CB006464BD80223009371
:1029C00004ABFFF7D2FE20B16FF001000CB0BDE800
:1029D000F0870DF10E0104A8FFF726FF0028F5DBB4
:1029E00096F836206568012A88BF02F1FF3183B26C
:1029F00082BF5B18524213402B44A360BDF80E30D7
:102A0000A381024604A9FF20FDF790FBA568BDF84D
:102A10000E908246A9444D4503D387F800A00020BC
:102A2000D4E7A9EB0508B8F1200F28BF4FF0200824
:102A3000CDF8008004AB2A4621683046FFF795FEAA
:102A40000028C1D15046424604A9FDF76FFB45441A
:102A50008246E0E76FF00200B8E730B585B00DF1CF
:102A60000E0205460C46FFF79EFFE0B995F836309A
:102A7000A289A068012B81BF03F1FF3152185B428C
:102A80001A400123009302440DF10F0321682846E8
:102A9000FFF76BFE48B99DF80F209DF80E309A4263
:102AA00018BF6FF0050005B030BD6FF00100FAE708
:102AB00038B504460D46FFF7D0FF08B1831D18D185
:102AC00094F83610AB89A868012981BF01F1FF3263
:102AD0009B184A421340012984BF4A420A400344DA
:102AE00098BF012213446B6029462046FFF7B5FFCB
:102AF000E4E738BD82684379083102EBC3039942A9
:102B000034BF0846104670470B6870B505460C4642
:102B10000BB9036A0B606368DBB908232146636065
:102B20002846FFF79AFF811D1ED088B1082621682C
:102B30006B6A994221D02846FFF7DCFF214684E8E2
:102B400041002846FFF789FF831D0DD00028EED1F4
:102B500070BD21462846FFF7ABFF08B9002070BDC5
:102B6000C21CE3D00630F9D121462846FFF7A0FF6A
:102B70000028F3D00630F7D0D8E76FF00200E7E77F
:102B800070B500F10C0504460E4628464FF0FF31A3
:102B90001DF0AEFE48B920463146FFF7B5FF0446AA
:102BA00028461DF00DFF204670BD4FF0FF34FAE7B8
:102BB000F8B500F10C0604464FF0FF3130461DF029
:102BC00097FE48BB216A2046FFF7FDFD08BB216A3E
:102BD000636A994212D12046FFF78CFFA28E013220
:102BE0000146074692B22046FFF733FE054658B924
:102BF0000823A362A38E67620133A386216A20465D
:102C0000FFF778FF0025206230461DF0D9FE2846E8
:102C1000F8BD6FF00105F7E74FF0FF35F7E72DE955
:102C2000F04186B09846002305460E4617460191AE
:102C3000029300F10C044FF0FF3120461DF058FEC6
:102C4000002812DA4FF0FF3006B0BDE8F0811DF029
:102C5000B7FE16B1019B9E4210D1AB6B0593414666
:102C600001A8B8470028E6D0EEE701A92846FFF7FB
:102C70004BFF03302046EAD11DF0A2FE0020E3E71F
:102C800013B5114CBFF35B8F2068BFF35B8F60B946
:102C90000E481DF04FFCBFF35B8F54E8003F44E843
:102CA0000002002AF9D1BFF35B8F436804221B683E
:102CB0000DEB02019847002802DA00F0E5FE0190D2
:102CC000019802B010BD00BF64360020E026040069
:102CD0004368DB6818470000084B30B51C68084B98
:102CE00019680022A24202DB0023184630BD0B46C1
:102CF0000C311D788542F8D00132F3E73C270400FF
:102D000078E6002028B1404080F311884FF005009C
:102D100002DF014B186870476836002008B5034889
:102D20001DF008FC024B1860002008BDEA260400D4
:102D30006836002070B502684C68A24216D38B68D2
:102D400023449A4206D20B694D69AB4204D36FF01B
:102D50000B038B61002070BDCD68121B05EBC30611
:102D600045F833204268726001330B61012070BD69
:102D7000084B1B6810B50C462BB1FFF7ADFF28B10F
:102D80002060002010BD6FF00C0010BD6FF001003E
:102D900010BD00BF78E600207047000030B589B054
:102DA0000C4615460190FFF797FFB0B143680293B8
:102DB0008368039322680692002305930793049582
:102DC0004078FFF79FFF01AA05491DF00FFA079809
:102DD00008B9059B236009B030BD6FF01500FAE714
:102DE000352D020070B51D4683688B4204460ED314
:102DF000681883420BD36078FFF784FF43686668E6
:102E00001C6831442B46A446BDE8704060474FF033
:102E1000FF3070BD2DE9F843984683688B42064623
:102E20000F46914603D308EB0102934202D24FF0C2
:102E3000FF3415E04078FFF765FF00210546FFF7F6
:102E400047FF044660B96B6871685C683944434663
:102E50004A462846A047012104462846FFF738FF86
:102E60002046BDE8F88383688B422DE9F041064691
:102E70000F46904602D30A44934202D24FF0FF34E9
:102E800014E04078FFF73EFF00210546FFF720FFE2
:102E9000044658B971686B6839449B6842462846B5
:102EA0009847012104462846FFF712FF2046BDE857
:102EB000F08108B54078FFF725FF4368187D08BD0D
:102EC000F0B5104B1D6885B006460F46A5B16B687E
:102ED0000190002402911B68039401AA0A49284624
:102EE0009847039B012B0AD06B683A469B68314692
:102EF0002846984705B0F0BD6FF00100FAE720467C
:102F0000F8E700BF646D0020112F020000F0DAB86E
:102F100038B50D461168144601F0E1F978B96168D9
:102F20002DB909B10B7843B90123A36038BD21B194
:102F3000284601F0D4F90028F6D00023F5E738BD83
:102F40000E4B10B51C680021224632B941B904600D
:102F50005A68186082B9586010BD11461268F4E7CB
:102F60000C683CB902605A6812B95860186010BD0C
:102F70001060F0E70460086010BD00BF5C6D0020C9
:102F8000014B1860704700BF646D002038B5094BD5
:102F9000094D1C6824B92046BDE8384000F0A6B8A9
:102FA000636800221B682946204698471EF074F883
:102FB0002468EFE75C6D00200D2F0200024B002219
:102FC0001A605A60704700BF5C6D002010B5054C58
:102FD000237833B9044A13605360FFF7EFFF0123EE
:102FE000237010BD6C360020686D0020044B1A68F9
:102FF00002605A68186002B958600020704700BF2C
:10300000686D002038B5074B1C68054614B90024CC
:10301000204638BD6168284601F061F90028F7D0E4
:103020002468F3E7686D0020002370B51D4608B9D9
:103030000B6070BD42F823000446264614F8010BCD
:1030400020B12F28F9D1304600F8015B0133EEE7BB
:1030500010B5FFF7E9FF20B91068BDE81040FFF791
:10306000D1BF002010BDF0B585B00D4616680746EB
:10307000144601F02CF93B46009003AA314628463D
:10308000FDF7F0F818B9039B236005B0F0BD4FF0D1
:10309000FF30FAE730B50D461446194603226B1E81
:1030A00093FBF2F39B0005338B4285B008DC0346AB
:1030B000009503AA2046FDF74FF8204605B030BD25
:1030C0000024FAE710B58AB00C4602AA01A9FFF75E
:1030D000BFFF38B1C3680198224603A90138984759
:1030E0000AB010BD6FF01500FAE7000030B50446D5
:1030F0008BB068B102AA01A9FFF7AAFFB0B10369BA
:103100001BB9002420460BB030BD98470446F9E7B0
:10311000084B1D68002DF4D02B691BB19847002C7B
:1031200008BF04462D68002DF6D1EBE76FF01504BB
:10313000E8E700BF686D002073B51F4D2A78002AAC
:1031400036D1FFF743FF02A9092341F8083D1B4A86
:103150000420FFF723FE38B10C3005D0404080F347
:1031600011884FF0050002DF154C009B6373204669
:1031700000F072F9A8B101A90420FFF7F9FD01469A
:103180000028EBD101988268FFF76DFE0646019892
:10319000FFF702FE002EE1D1204600F05DF9002885
:1031A000DCD1074800F082F90028D7D101232B7029
:1031B000002002B070BD00BFB8360020703600207D
:1031C0007CE6002030B5002414602546037833B92E
:1031D000A01E01284FF0FF3098BF002030BD032C07
:1031E00008D8DFE804F002090E16202B02D0093BB4
:1031F000042B15D80130E9E73D2B0AD105700224D4
:10320000F8E7202BF6D0093B042BF3D910600324F8
:10321000F0E7202B02D0093B042BEBD80570E9E73F
:1032200008600124E6E72DE9F84305461046894683
:1032300090461E4601F04BF80746E6B1304601F0D5
:1032400046F80446E31902334B4516DC3A4641463C
:10325000284601F066F807F101083D23EB552246A8
:10326000314605EB080001F05CF804EB0800002390
:103270002B54BDE8F8833446E4E74FF0FF30BDE857
:10328000F883F0B5036884891F68D7B0B4F5A47FCC
:103290000E468168006928BF4FF4A47403AD23462D
:1032A0002A463944FFF79EFD58B9285502AA01A9BC
:1032B0002846FFF787FF20B93368726802990198A2
:1032C0009847002057B0F0BD07B508308DE80600DC
:1032D0006B46054A0021FFF7A2FC002818BF6FF0DB
:1032E000150003B05DF804FB83320200F8B5044614
:1032F0001F4603680D461868A168A3891646014455
:103300002A462069FFF76EFD40B9A389E8543A4682
:1033100031462846BDE8F840FFF754BFF8BD2DE917
:10332000F0431346ADF2344D074629B96FF015004E
:103330000DF2344DBDE8F0830A4613A840F249115E
:10334000FFF771FFB0F10008F0DB08F10203B3F5FD
:10335000A57FEBD24FF00A0907F1080405AA1FFA6E
:1033600088F12046FFF74AF9031D61D12046FFF797
:1033700029F958B93B6C0D9309900A9009A9204688
:10338000FFF7FEFB30B12046FFF712FCB9F101094F
:10339000E2D1CBE7099ABB6A9A42F4D102AB01AA07
:1033A00066A909A8FFF7A2FF0028E7D1029B002B1E
:1033B000E4D009AE0FCE0EAD0FC533682B600EA959
:1033C0002046FFF7DDFB20B3099B0B991868BDF879
:1033D0003030014466AA0D98FFF704FD0028CDD1D6
:1033E0000EAABDF830102046FFF708F90028C5D115
:1033F0000E9B10991868BDF83030014466AA1298E7
:10340000FFF708FD0028B9D10EA92046FFF777F98C
:10341000B4E704AB03AAB9A90EA8FFF767FF002819
:10342000CDD10399019800F05AFF0028C7D1A5E734
:1034300000287FF47BAF059B0799186813AA014405
:103440004346386CFFF7E6FC00287FF46FAF05A910
:103450002046FFF754F96BE7012370B50446037368
:10346000837300F1080631460420FFF725FA05466C
:10347000B0B93046FFF7B3F900280ADCE36A206CE4
:1034800093E80600FFF7EFFC0028ECD06FF004058E
:1034900004E0054B63602046FFF752FD284670BDEF
:1034A0006FF01505FAE700BFC0E6002008B5034B32
:1034B0004360FFF765FD002008BD00BFC0E60020A7
:1034C00010B5054CFFF77CF82046FDF7CFF92046F4
:1034D00000F07AFF002010BDDD3402002DE9F34139
:1034E00002AE144D06F8010D074603244FF02003E9
:1034F000EFF3118883F31188012231460020FFF792
:103500002BF888F3118828B101232B70384602B0BC
:10351000BDE8F0812B78002BF8D0013C07D01EF0DD
:1035200009F80028E2D102201DF0E6FDDEE72C704C
:10353000ECE700BFB936002010B54FF02003EFF3E1
:10354000118283F31188114C237823B982F31188F7
:103550006FF0440010BD013BDBB2237023B182F356
:1035600011886FF00F0010BD094B1878012128B1A8
:10357000217082F311886FF00A0010BD197082F378
:103580001188044A1160187010BD00BFBC360020BD
:10359000BB3600200400004008B50022104601217F
:1035A00000F066FC002000F031FC002008BD0000A7
:1035B000F8B54FF02002EFF3118382F31188264A09
:1035C0001078441C147070B183F311884FF080435D
:1035D000D3F80C3403F00113B3F1011F0CBF00202A
:1035E0006FF04300F8BD1D4D2F782FB1107083F39D
:1035F00011886FF00A00F8BD01262E7083F3118840
:103600004FF0804419B3384600F010FCC4F8007144
:10361000D4F80433C4F804632660D4F8002192B1CE
:103620000022C4F800210E4A13F0010F4FF00103ED
:1036300008BFC4F808330020C2F8803100F0E6FB70
:1036400000232B70C2E720BF40BF20BFE5E7C4F8CE
:1036500000112660F4E700BFBC360020BB36002016
:1036600000E100E038B54FF02002EFF3118382F360
:1036700011881D4D2A788AB183F311884FF080425A
:10368000D2F81C34D2F8182403F0030343F4803337
:10369000934314BF6FF04300002038BD01242C7009
:1036A00083F311884FF08043104DC3F80421C3F811
:1036B00018152C6011F003014FF01805C3F80853DA
:1036C000C3F80C21C3F81021D8D11022C3F8382533
:1036D000C3F80453C3F80443FFF76AFF0028CDD1B1
:1036E000034BC3F80041C9E7BA3600200800004088
:1036F00000E100E0F8B54FF080430546D3F808E15B
:10370000D3F80423D3F80C44D3F80071D3F80401A0
:10371000D3F80C11D3F8106102F00102BEF1000FD2
:1037200003D04FF0000EC3F808E127B14FF08043FB
:103730000027C3F800713AB1E30341BF4FF0804363
:103740000122C3F808231A6120B14FF08043002200
:10375000C3F8042149B14FF080440021C4F80C1192
:103760002846FFF7E9FE0123636176B14FF08043FD
:1037700000210124C3F810112846C3F80443FFF7C1
:1037800017FF10B9014BC3F80041F8BD00E100E09C
:103790004FF0FF30704700207047704770470000BF
:1037A000F8B50A4D0A4E0B4F00242B789C4200DBE3
:1037B000F8BDD6F80434E340DB0705D557F82430CC
:1037C00013B12146044898470134EEE7CC36002077
:1037D00000000140D0360020C03600201FB5002474
:1037E000092301940D498DF8043001A84FF4FA63C0
:1037F00002930394FEF7C6FD094B98420AD1224674
:103800000121102000F034FB102000F0FFFA2046C8
:1038100004B010BD6FF00F00FAE700BFA13702003F
:103820000000AD0B08B5064B1B788B4204DBC8B219
:10383000FEF700FE002008BD6FF0150008BD00BFB8
:10384000CC36002037B50B7B022B0D4625D10B68FB
:1038500003BB154C4B682278C2B9144A591E9142D9
:1038600018D8134A13600DF10700FEF7BFFD114B86
:10387000984215D0AB689DF8070013B10E4A42F884
:10388000203023780133237003B030BD084A12681A
:103890009342E8D06FF01500F6E76FF02200F3E7EF
:1038A0006FF00B00F0E700BFCC360020FEFFCF0723
:1038B000F03600200200AD0BD036002011F0010FD1
:1038C00010B50CBF092308230A4C8A0748BF03F030
:1038D0000103C4F80C35084B19684FF47A720023C1
:1038E000C803490CFBF7F2FCC4F80405FEF770FDB1
:1038F000002010BD00000140F0360020704700009D
:10390000084BC3F84005D3F80435C01A20F07F40B7
:10391000054B0238984282BF044B4FF40032C3F883
:103920000021704700100140FDFF7F0000E100E032
:1039300038B5114B114CD3F804052268104D801A8C
:103940002B6820F07F4098420FD3B0FBF3F00D4975
:103950000968884228BF084600FB032323F07F4301
:103960002360094B18601DF07FFC20682B68184409
:10397000BDE83840FFF7C4BF00100140F836002012
:1039800070F00020F43600206CF00020024B002282
:10399000C3F84021FFF7CCBF00100140031E0A4AC4
:1039A0000A4804DB116890FBF1F18B4202DD1368D9
:1039B00090FBF3F31068064A064912680B6000FB9F
:1039C0000320FFF79DBF00BF70F00020FFFF7F00C6
:1039D000F8360020F436002008B5074B0022C3F863
:1039E0004021064B4FF40032C3F88021FFF7A0FFBF
:1039F000034B01221A6008BD0010014000E100E005
:103A0000F436002070B519481CF094FD50B343689B
:103A1000174D1B6801219847164B00241C60164B5C
:103A200001261E60154BC5F808451B68C5F84035D2
:103A30004FF48033C5F84433C5F80433104BC5F850
:103A400040414FF40032C3F8802131462246112014
:103A500000F00EFA112000F0D9F90A4B20461E6042
:103A60002E6070BD4FF0FF3070BD00BF58270400BE
:103A700000100140F8360020F436002070F00020DD
:103A800000E100E008100140064BD3E90001064BBD
:103A90001B685843054BD3F804351B1A23F07F43AA
:103AA00018447047B86E002070F0002000100140EC
:103AB00007488168006A884208D000B51DF0C0FA46
:103AC0005DF804EB03494FF080520A607047000034
:103AD000806E002004ED00E0044800232021C2187D
:103AE0000133272B82F80013F9D1704700E100E081
:103AF000094A0A4993680968C3F880100849D867D9
:103B00004B6843F080534B60002383F31188936824
:103B1000D3F88000704700BF806E002040B20400E0
:103B200000ED00E0202080F311880D498A682C20E8
:103B30001044EFF3098C80E8F01F0A4F4FF0006645
:103B40000A6A8A603E60D06F0023D36780F31188D1
:103B500002F12C0090E8F01F8CF3098870470000F8
:103B6000806E002004ED00E01EF0040F0CBFEFF3A8
:103B70000880EFF30980816931F8021C11F0FF0120
:103B80000229FFD000B500F017FA00BD38B5194C76
:103B900005461948FCF7B0FFA36AD90602D51748B5
:103BA000FCF7AAFFA36A1A0702D51548FCF7A4FF81
:103BB000A36A9B070ED51348FCF79EFF616BA36AAF
:103BC000180607D51048FCF797FF1DB1A36A23F02C
:103BD0008003A362074CA26AD20702D50B48FCF708
:103BE0008BFFA36A9B0602D50948FCF785FF0020DE
:103BF00038BD00BF00ED00E0E92804000029040002
:103C000012290400262904003F2904005629040033
:103C10007629040038B51B4C05461B48FCF76CFFA1
:103C2000A36AD80404D51948FCF766FF002038BD04
:103C3000A36A190501D51648F6E7A36A9A0514D5B3
:103C40001448FCF759FFA16BA36A1B0407D512485F
:103C5000FCF752FF1DB1A36A23F40043A362094B92
:103C60009B6A5805E2D50D48DEE7A36A5905FAD4E8
:103C7000A36ADA0501D50A48D6E7A36A9B04D5D51D
:103C80000848D1E700ED00E09A270400002904006D
:103C900012290400B1270400CB270400E127040007
:103CA000FD2704007629040010B5194C1948FCF7CB
:103CB00023FFA36A9A0102D51748FCF71DFFA36AE8
:103CC000DB0102D51548FCF717FFA36A180302D5DC
:103CD0001348FCF711FF0E4CA36A590302D5114893
:103CE000FCF70AFFA36A9A0302D50F48FCF704FF0A
:103CF000A36ADB0302D50D48FCF7FEFE044A936A73
:103D00006FEA03436FEA13439362002010BD00BFC4
:103D100000ED00E0A6290400BF290400D329040017
:103D2000EE2904000D2A0400332A04004E2A040060
:103D300038B5274C6368C3F30803DA1E0546092A21
:103D40003AD8DFE802F005333530393939393937B7
:103D50002048FCF7D1FEE36A9A0703D51E48FCF71A
:103D6000CBFE02E0E36A5B0005D400202946BDE8F3
:103D7000384000F0EFB81948FCF7BEFE184B1B782E
:103D80002BB10120FFF702FF0628EFD138BD154BFC
:103D90001B781BB10120FFF73DFFF5E7124B1B8895
:103DA0009BB2002BE1D0FFF77FFFEDE70020E9E7B2
:103DB0000020F0E70D48D2E70D480E49A3F11002AC
:103DC0000F2BD8BF01460C48FCF796FECDE700BF8D
:103DD00000ED00E0442804005C2804007E28040074
:103DE00028ED00E029ED00E02AED00E09E28040027
:103DF000162804002B280400D5280400024A536921
:103E000043F010035361704700ED00E043B2002B14
:103E100008DB012200F01F0002FA00F05B09024AF1
:103E200042F82300704700BF00E100E043B2002BDE
:103E30000DDB01225B0900F01F0002FA00F02033C5
:103E4000034A42F82300BFF34F8FBFF36F8F7047D1
:103E500000E100E04209054B00F01F0053F822206A
:103E6000012303FA00F01040704700BF00E100E0BA
:103E700043B2002BA8BF03F1604301F101014FEAF7
:103E80004111ADBF03F5614300F00F00034BC9B210
:103E9000B6BFC9B283F800131954704714ED00E09F
:103EA00000F044B808B572B6044BD86918B10022C6
:103EB000DA611CF06BFB62B608BD00BF806E0020AB
:103EC00070470000F8B50C4616461F4604220A9BB0
:103ED000099905461DF044FCA6F1200121440C4A35
:103EE0002C6721F00701002322F001022B656B658E
:103EF0006E678A61069A4A60079A8A60089ACA6061
:103F00000F604FF08072CA61E964EB67F8BD00BFD3
:103F100019010200014910220A60704710ED00E00B
:103F2000404080F3118830BF704700BF404080F3AD
:103F30001188DFF81CC0DCF800C01CF4006C0CBF5A
:103F4000EFF30880EFF3098000B5FFF7F1FE00BD45
:103F500004ED00E038B504460D4605281AD8DFE820
:103F600000F00319191315170D48FCF7C5FD1DF0D6
:103F7000F7F8AA6901460B48FCF7BEFD2946204622
:103F8000BDE8384000F01CB80748EEE70748ECE70A
:103F90000748EAE701460748FCF7AEFDE7E700BF40
:103FA0007A2A0400182B04009A2A0400C02A04006C
:103FB000DA2A0400F52A040001460068FFF7CABFA8
:103FC000052810B50CD01DF0B5FA60B11DF0B2FA9D
:103FD0000C4B0D49002808BF19460C48FCF78CFD16
:103FE000FFF79EFFFCE71DF0B5FA0028EED1084C64
:103FF0000848A168FCF780FDA068BDE8104000F00B
:104000000BB800BF582B0400542B0400692B04008C
:10401000806E0020892B040038B505464FF0200340
:10402000EFF3118483F311881DF030FB28461DF057
:10403000ADFA0B4B9B689D420DD10A4B5A68C2F3F7
:10404000080222B91CF0FCFF2046FFF751FD5A6818
:1040500042F080525A602046BDE838401CF078BEDD
:10406000806E002000ED00E000B572B60B4AD0690A
:1040700000281EBF0021D1611CF088FA62B6EFF360
:104080000580A0F110004FEAC0000549014409C9AC
:1040900098475DF804EBFFF70BBD0000806E002031
:1040A000DCF00100202080F3118806484FF4006105
:1040B000401880F30988022080F31488BFF36F8FC3
:1040C00000F006B860D3002030BFFFF7FDBF00BF8F
:1040D00008B5074B074A23F07F039360BFF34F8F68
:1040E000BFF36F8F1CF082FA1CF08AFA1CF0ACFA56
:1040F00000F0010000ED00E008B5FFF7E5FFBDE8C6
:104100000840FFF7D5BC0000034B05225A60BFF3FF
:104110004F8FBFF36F8F704790ED00E02DE9F047B0
:10412000204F3B68082B86B039D81F4D1F4E029593
:104130000823019300951E4B1E4A1F491F48DFF8B4
:104140008480DFF87090DFF870A00024FCF7D4FCC6
:1041500074603B689C4205D3FFF7D6FF002006B091
:10416000BDE8F0870C237A68B4606343D118D25855
:1041700044F0100322F01F000343F3608B681048E3
:1041800043F001013161039302920194049500957B
:1041900043464A465146FCF7AFFC0134D9E74FF09D
:1041A000FF30DCE74CE600202356040090ED00E0F1
:1041B000BB2B04007921040012240400C82B040046
:1041C000EF2B0400AE2B04002DE9F84386460F4682
:1041D00005462C4614F8013B202B03D0A3F109011E
:1041E000042957D82546F4E72B2B04BFAC1C6B7869
:1041F000002154E0302B27D1237803F0DF03582B24
:1042000054D163781022023400290CBF6FF00048AB
:104210004FF000480026B8FBF2FC304602FB1C8938
:10422000A3F13005092D11D82B469A421EDD751CCD
:1042300007D0604517D801D14B4514DC02FB003094
:10424000012614F8013BEBE70A22DDE743F02005E5
:10425000613D192D0AD8A3F14105192D8CBF5725B1
:1042600037255B1BE1E74FF0FF36EAE7731C07D108
:104270001CF086F92623036040462FB9BDE8F88379
:1042800001B14042BFB10EB104F1FF3EC7F800E0FA
:10429000BDE8F8832D2BA7D16B78AC1C0121002A37
:1042A000A8D0102AB0D1302BA6D0ADE73023002AF9
:1042B000AAD10822A8E7BDE8F8830139034611F81E
:1042C000012F0AB91A70704703F8012BF7E702466D
:1042D0000346981A13F8011B0029FAD170470138D8
:1042E000013910F8013F11F8012F934202D1002B40
:1042F000F7D11A46981A704770B582B1013A0C4648
:10430000034603D11A782078101A70BD1E782578DC
:10431000AE4200F1010001F10101EFD0F2E71046D9
:1043200070BD81EA000313F0030F70B503460BD094
:10433000013B0A4491421BD170BD002AFCD011F808
:10434000014B03F8014B013A9C07F6D11E1F0D46A5
:10435000541B0C44032C06D822F0030421442344AC
:1043600002F00302E4E755F8044B46F8044FEFE788
:1043700011F8014B03F8014FDCE770B5C9B20346F1
:104380009C0711D141EA012444EA04441E46951BCE
:104390001D44032D0ED822F00304234402F003022F
:1043A0001A44934209D170BD002AFCD003F8011BC6
:1043B000013AE5E746F8044BE9E703F8011BF0E7AB
:1043C0004FF0FF3070470000014B1860704700BF8E
:1043D000D0E6002070B54FF02003EFF3118583F392
:1043E0001188144C144E237803EBC312013303F0ED
:1043F00003033244237085F31188402928BF4021EC
:104400000E4D0138134602EB4106B34204D100239E
:1044100002F81130104670BD4478240902332C5D37
:1044200003F8024C10F8014F04F00F042C5D03F860
:10443000014CEAE733370020343700205E2C0400BB
:1044400070B51D4A1D49137803EB4306013303F091
:104450000103137003788AB006EBC60604460E44C7
:1044600007AD032B21D8DFE803F0021A1C1E144904
:104470002846FFF722FF62780492A2780392E2783E
:1044800002922279019262790092A37905950D4AF0
:104490001B213046FCF73EFB30460AB070BD0A498E
:1044A000E6E70A49E4E70A49E2E70A4A0A21284618
:1044B000FCF730FBDFE700BF32370020FC3600207E
:1044C000122C04003B2C0400192C0400202C0400A6
:1044D0002A2C0400342C04002DE9F04180464FF0D2
:1044E000FF300F4602F06AFB012500F10806044682
:1044F0000575022130461BF03BF80F2304210370A1
:10450000417030461BF034F845700770A0F8028007
:104510002046BDE8F04101F031BF01F12003013830
:1045200013F8012D00F8012F8B42F9D170470000DC
:104530008FB55F4EDFF8AC8135464FF0FF31404616
:104540001CF046FEBFF35B8F3468BFF35B8F14F043
:10455000010458D0DFF88091564C574F57484A46CF
:104560002146FCF70CFB00283BD1554B01930093EF
:10457000544A554B55495648FCF7BEFA1F244FF094
:10458000FF31012002F00AFB00F1080702218146F9
:1045900038461AF0EDFF3E23037042234370012199
:1045A00038461AF0E5FF08230370412138461AF017
:1045B000DFFF074600F8014BE4B140220021FFF77E
:1045C000DCFEBFF35B8F55E8003F23F0010345E8B5
:1045D0000032002AF7D1BFF35B8F484601F0E4FBBD
:1045E000ABE7202239462046FFF786FE0028B5D0EB
:1045F0000024C4E73149FFF790FF364907F1210055
:10460000FFF78BFFDDE7BFF35B8F3368BFF35B8F93
:104610009B0792D530492948FDF777FA002837DA09
:10462000274B029301900093264A2C4B27492C4894
:10463000FCF762FA4FF0FF31012002F0AFFA00F10F
:1046400008070221814638461AF092FF3E23037084
:1046500022234370012138461AF08AFF0923037090
:10466000212138461AF084FF03460130CCB91F22BD
:104670001A7021462022FFF780FEBFF35B8F55E8BA
:10468000003F23F0020345E80032002AA3D0F6E7FA
:104690000A4A114BA2F120011046FCF7BCFA04466D
:1046A000C8E700221A700549FFF737FFE5E700BFAA
:1046B0001C3A002038390020482D040058390020C9
:1046C000235604008B1E04006F2C040050210400AC
:1046D000682D040078390020982C04007D2C0400FB
:1046E000A12D040040F1002070B5037D0446ABB954
:1046F00083681A8842F225018A4217D042F22601C5
:104700008A423DD042F201018A4207D1DA7802F0B2
:104710007F02DA701A7922F001021A71334BD3F852
:10472000D43020461B69BDE870401847032108308B
:104730001AF089FF20461AF0E9FEBFF35B8F2C4B7D
:104740001A68BFF35B8F910706D50C2142F2250052
:10475000FFF7C2FE002070BDBFF35B8F53E8001F60
:1047600041F0010243E800200028F7D1BFF35B8F3E
:1047700011F00104E9D11F481CF001FD2146E5E7D5
:10478000032108301AF05FFFBFF35B8F184B1A68E4
:10479000BFF35B8FD20707D50C2520461AF0B6FE73
:1047A000294642F22600D3E7A2893F2A1CD9BFF34B
:1047B0005B8F53E8005F45F0020243E800210029C7
:1047C000F7D1BFF35B8F15F00205E5D1A6680A4863
:1047D0003146FFF7A2FE06F120010848FFF79DFED3
:1047E00004481CF0CCFCD8E71225D6E7F0E6002000
:1047F0001C3A002040F10020583900207839002070
:1048000008B519F0B7FCB0FA80F0400908BD000007
:104810007FB500230A220593049303920293019328
:10482000009340F22C52044B044905481CF010FF41
:1048300007B05DF804FB00BF31450200786F00202F
:104840009839002037B5104BDB793BB10F4C104D38
:10485000AC4214D301F03CFA00240DE001F06AFFF1
:1048600004460028F2D00B4B019300930A4A0B4BED
:104870000B490C48FCF740F9204603B030BDA36853
:1048800003B198471034E3E7F0E60020B01D0400C0
:10489000D01D0400235604008B1E0400DE2D0400EE
:1048A00050210400A92E040073B5064629B90C4C0A
:1048B0000C4DAC420ED300200AE00B4B0193009349
:1048C0000A4A0B4B0B490C48FCF716F96FF0220013
:1048D00002B070BDE3680BB1304698471034E8E78A
:1048E000B01D0400D01D040023560400DD20040088
:1048F000E52D040050210400DD2E04007FB50D4895
:10490000C1790D23C1EBC10102AAFEF7C3FB014629
:1049100058B9094B01930093084A094B09490A48C1
:10492000FCF7EAF807B05DF804FB0848FEF7C8FAA0
:10493000F8E700BFF0E60020235604008B1E0400B9
:10494000D62D0400502104000B2F04003D2F04003D
:1049500001282DE9FF4106460D46174618DD2A4C71
:10496000DFF8CC80444502D36FF001040AE02168EF
:104970002868FFF7B4FC48B963683A46291D701EE1
:1049800098470446204604B0BDE8F0811034E9E7BA
:104990001E492868FFF7A3FC0446002831D1BFF365
:1049A0005B8F1B4D2B68BFF35B8F5B0709D5194BE2
:1049B00001930093184A194B19491A48FCF79CF8BF
:1049C000E0E704AA0726703D42F8046D2946384600
:1049D000FEF749FB039A062A0FD80E4B019300936A
:1049E000114A0E4B0E491148FCF786F83246214613
:1049F0002846FFF7C2FCEC71C4E7B2FBF6F2EA719D
:104A0000C0E70024BEE700BFB01D0400272C04004F
:104A100060E7002023560400DD200400D22D0400AE
:104A200050210400432F04008B1E0400772F040044
:104A3000D01D04002DE9F04188B093F800C0DDF8E6
:104A4000388093F801E09F78DE781D795C799B7956
:104A5000B8F1000F0FD08DE87800CDF81C80134618
:104A6000CDF818C0CDF814E00497094AFCF752F8C5
:104A700008B0BDE8F0818DE87800CDF818C0134685
:104A8000CDF814E00497034AFCF744F8F0E700BFC0
:104A9000FD2D0400212E040038B504460D46FFF715
:104AA00016FC0D2802D06FF0150038BD237B302B8B
:104AB0001BD100232B70013C0520012114F8012F8C
:104AC000A2F13003DBB2092B06D9A2F16103052B59
:104AD000E9D8A2F15703DBB22A1851B11B01537078
:104AE00000210028EADA002038BD312BDBD1012378
:104AF000E0E751780B43537001380121F1E70000E2
:104B00000949BFF35B8F51E8003F43F0010241E8E0
:104B100000200028F7D1BFF35B8FDB0703D40839EF
:104B200002481BF0F5BF7047C0F10020C86E00209E
:104B30001FB5FEF701FB044660B10E4B02938DE8F2
:104B400018000D4A0D4B0E490E48FBF7D5FF2046C5
:104B500004B010BD0C48FEF749FA04460028F6D010
:104B6000044B02938DE81800034A044B044907489C
:104B7000EBE700BF235604008B1E0400EC2D04005D
:104B800050210400422E0400D4E60020772E0400B9
:104B9000F0B40278012A04460B4617D003D3022A48
:104BA0002CD0F0BC7047184A0D4602F1100710686F
:104BB00051682E4603C60832BA423546F7D11278FC
:104BC000327062885A73120A9A73EAE70E4A0D46E7
:104BD00002F11007106851682E4603C60832BA4227
:104BE0003546F7D11278327062685A73C2F30721E2
:104BF000120CDA73120A99731A74D2E70146112261
:104C00001846F0BCFFF78DBBC92F040010B50C4649
:104C1000017822788A428AB00ED06946FFF7B8FF41
:104C200005A92046FFF7B4FF10220DF115010DF183
:104C30000100FFF761FB0AE0012A0AD004D3022A2F
:104C40000AD06FF0150002E040886388C01A0AB0ED
:104C500010BD40686368F9E71022611C0130E8E785
:104C6000F0B50578012D8BB004460E4617460FD0DF
:104C700006D3022D0ED000213046FFF77EFB05E063
:104C80004388204A39463046FBF744FF0BB0F0BD5D
:104C90004368F6E72A46411C06A8FFF742FBE11CE1
:104CA000042208A8FFF73DFB2A46E11D0DF11A007A
:104CB000FFF737FB2A4604F1090107A8FFF731FB8C
:104CC0002A4604F10B010DF11E00FFF72AFB04F147
:104CD0000D01042209A8FFF724FBBDF81830049346
:104CE000089B0393BDF81A300293BDF81C30019362
:104CF000BDF81E300093044A099B39463046FBF745
:104D000009FFC3E7C42F0400AC2F040010B5034C07
:104D100025222146FFF7A4FF204610BD203A00209F
:104D20007047000070B50B4D06460FCD8AB06C463B
:104D30000FC40FCD0FC495E80300092E84E80300CB
:104D40009BBF0AAB03EB8606034856F8280C0AB053
:104D500070BD00BF0C1E0400143B04000722FFF7C7
:104D6000E0BA00B5BFF35B8F50E8003F43EA0102B1
:104D700040E8002EBEF1000FF6D1BFF35B8F18465E
:104D80005DF804FB00B5BFF35B8F50E8003F03EA1A
:104D9000010240E8002EBEF1000FF6D1BFF35B8F99
:104DA00018465DF804FB0000C378002B41F28832FE
:104DB00000F1740108BF002201481CF0A7BD00BF2C
:104DC000C86E00202DE9F041064686B09079264F46
:104DD000884615461AF086FA874213D0AC792046E9
:104DE0001AF080FA214B059303908DE84800049750
:104DF00002941F4B1F4A20492048FBF77DFE06B056
:104E0000BDE8F08128461AF073FA1D4C04EBC0008F
:104E10004388B34210D028461AF06AFA134B039322
:104E200004EBC0001449428802928DE84800114A00
:104E30000F4B1448FBF760FE28461AF059FA04EBB2
:104E4000C0004368002BDAD028461AF051FA04F863
:104E5000308028461AF04CFA04EBC000406806B0D7
:104E6000BDE8F0411CF08BB924F200202356040069
:104E7000A2300400DD200400502104005B3804004F
:104E8000483A0020A03804002DE9F04FDFF84CA18B
:104E9000504D85B0DAF80C304F486FF31033CAF834
:104EA0000C3002F073F900F101094FF0FF3249466E
:104EB0004A481CF05FFE48B9494C484E04F1C40B07
:104EC000B9F1000F11D11CF0E7F8E3E7414B019372
:104ED0000093444A444B45494548FBF70DFE40408A
:104EE00080F311884FF0040002DFF368C3F304334A
:104EF000012B52D9042B62D1377B002F51D1394677
:104F000058461AF08FFA804638B9324B0193009315
:104F1000344A384B35493848DFE74FF0FF313748DE
:104F20001CF056F9D4F8C0306BB1324B2D4A2F49E2
:104F3000019500953248FBF7DFFDD4F8C0001AF068
:104F4000E5FAC4F8C07040461AF00EFBC4F8C00081
:104F50004046FFF7C9FB00B3264B224A2349019084
:104F6000029500952748FBF7C7FD24481CF007F978
:104F700040461AF0BDF9244B03EBC00000221F216C
:104F80004088FFF71FFFD4F8C0001AF0BFFA0023D3
:104F90004046C4F8C0301AF0B9FA143609F1FF39A6
:104FA0008EE7012F04D130691C3802F019F8F4E7BC
:104FB000022FF2D130692C3802F094FBEDE7019317
:104FC00002950095114B124A08491248FBF794FDCF
:104FD000E3E700BF23560400DCE70020C8E7002019
:104FE000F0E600208B1E0400E33004005021040092
:104FF000E3380400CB3004000D39040098E70020AA
:10500000323904005D390400483A0020D4300400ED
:10501000DD2004008F390400F8B50B4E074600254B
:10502000F379ECB2A34202D86FF0010409E0C4EBBB
:10503000C401072231443846FFF75EF901350028E4
:10504000EED12046F8BD00BFF0E60020074BBFF3CD
:105050005B8F420903EB820300F01F001B6FBFF35D
:105060005B8F43FA00F000F001007047F0E600208B
:105070002DE9F047804689461348144D4FF0FF3123
:105080001AF0CAF9044600F108060021304600274C
:105090001AF0E1F9277520461AF02AF905EBC0004D
:1050A000A0F8028020461AF023F905EBC000032186
:1050B000476030461AF05CFA80F80290A0F8008051
:1050C0002046BDE8F08700BF24F20020483A0020C7
:1050D00030B5044685B00D4619B9FFF7C9FF05463E
:1050E000F0B140F635439C4214D12846FFF7FCFA54
:1050F000044660B10C4B02938DE818000B4A0C4B30
:105100000C490D48FBF7F8FC28461AF0FFF9204639
:1051100005B030BD294609481AF0EBF90024F6E73E
:105120006FF03604F3E700BF235604008B1E040023
:10513000DA2F0400502104005D390400B4E7002098
:1051400038B50721044642F23200FFF791FF0546C9
:1051500098B1072108301AF00BFA23880380002445
:1051600002238470C370037144718471294642F232
:105170003200FFF7ADFF204638BD6FF0360038BD76
:1051800070B506460D4642F221000321FFF770FF7D
:10519000044660B1032108301AF0EAF985700680F0
:1051A000214642F22100BDE87040FFF791BF6FF049
:1051B000360070BD70B5154686B00C4619B9FFF7BC
:1051C00057FF044668B30122002168461BF0CEFF5A
:1051D00020461AF08DF8144E06EBC000C0F804D03B
:1051E00020461AF0C1F9214610481AF082F942F21D
:1051F000107168461BF0ECFF20461AF079F816F89B
:10520000300030B120461AF081F96FF0040006B08A
:1052100070BD0DB12C60FAE720461AF077F92846E8
:10522000F5E76FF03600F2E7483A0020B4E70020D7
:1052300038B50221054642F20C00FFF719FF04467B
:1052400028B3022108301AF093F9012D014615D137
:105250000C20FFF7FBFE48700D700022214642F241
:105260000C00FFF7A7FF044630B9012D09D14FF418
:1052700000710848FFF775FD204638BD00234370D4
:10528000EAE76FF400710348FFF77CFDF4E76FF085
:105290003604F1E760E7002070B5154D062205F1F0
:1052A0000A010646FFF728F80446D8B1062142F263
:1052B0000500FFF7DDFE0446B0B106223146083096
:1052C0001AF05CF92146002242F20500FFF772FF56
:1052D000044638B90622314605F10A00FFF721F8E5
:1052E00001236B72204670BD6FF03604FAE700BFF1
:1052F000F0E6002007B50621684618F03BFF40B9EC
:105300009DF80530684603F03F038DF80530FFF740
:10531000C3FF03B05DF804FB38B50121054642F236
:105320000A00FFF7A5FE0446D8B108308DB101216F
:105330001AF02DF92146002242F20A00FFF73AFF47
:10534000044620B93DB140210748FFF70AFD204639
:1053500038BD2946ECE76FF040010348FFF712FD26
:10536000F5E76FF03604F2E760E700202DE9F74F2C
:105370008A46202183460092FFF77AFE07460028DE
:1053800055D0202108301AF0F3F8202200210446DD
:10539000FEF7F3FF0025009B9D4207D1002239460E
:1053A000584603B0BDE8F04FFFF704BF5AF8356028
:1053B0000AEBC5034FF000095A684A4501D8013588
:1053C000E9E77278217896F800E0501802301F283B
:1053D0000FDDBEF1090FC1F11D0200D13AB9384607
:1053E0001AF094F86FF0150003B0BDE8F08F4FF09D
:1053F000080E5FFA82F8601808F1010C80F801C00D
:10540000881C013154FA81F1C0B2207081F801E0AA
:105410000130716801932044FEF783FF2278019BDD
:10542000904484F8008009F101090836C4E76FF060
:105430003600D9E7F7B5074601AA002142F22F004E
:10544000FFF7B8FED8B901988368B3F80160B3F8E4
:1054500003501AF05BF8062142F22200FFF708FE23
:10546000044670B1062108301AF082F83B880380A8
:1054700046808580214642F22200FFF729FE03B0D4
:10548000F0BD6FF03600FAE7F0B5037889B0054655
:105490007BB10221002002F007F8044600283FD02B
:1054A0002B784372002101F0EDFE204602F025F832
:1054B00036E0041DB0F80160214606A8FFF74EFC57
:1054C0009DF81830023BDBB2012BB7B22AD8062276
:1054D00005F111010DF111008DF81830FEF721FFD3
:1054E00001238DF81030022106A801F0DDFFEB78D2
:1054F000012B044609D16FF040014948FFF742FCF7
:10550000ACB906A801F08AFE044684B9454B029363
:105510008DE88800444A454B45494648FBF7ECFA7C
:1055200009B0F0BD214604A8FFF718FCDBE72046D0
:1055300006A920F8486BFFF711FC2A7EEB7D43EAB1
:105540000223A4F85E30AA7E6B7E43EA0223A4F80D
:105550006430EB7E2A7F43EA0223A4F86630EE78BB
:10556000E670012E1DD1344F3B7A237204A904F159
:105570004F00FFF7F3FB217AC1EBC10104F15600A4
:105580003944FFF7EBFB0820FFF760FD48B1D7E98E
:105590002023002203F04003134302D03046FFF7DC
:1055A000BBFE0321204601F06DFEA37A032B7FF49E
:1055B0007CAFEB7823B1204B93F87830190712D5E4
:1055C000022142F21600FFF753FD054658B10221B1
:1055D000083019F0CDFF23880380294642F21600D7
:1055E000FFF776FD61E7144D95F87920D20708D5CD
:1055F0002046FFF7A5FD20B98021201DFFF7B1FB54
:1056000053E795F878309B0606D52046FFF712FF42
:1056100010B94FF48071F0E72046FFF7C5FB44E76F
:1056200060E70020235604008B1E04002130040094
:1056300050210400C0390400F0E6002002884388AD
:105640009A4210B518D8052A16D9B3F5486F13D861
:105650008488B4F5FA7F0FD2C188A1F10A0292B210
:1056600040F67640824207D804FB0333B3EB810F48
:10567000B4BF0120002010BD002010BD08B50A20D5
:10568000FFF7E4FC014640B90920FFF7DFFC20B139
:105690000846BDE80840FFF7CBBD002008BD00006C
:1056A0002DE9F0415C4DD5F8D430996811F0010135
:1056B0008EB024D109AA40F60340FFF77BFD0446D3
:1056C000002840F0A580099B9B681B78A3B9534A2A
:1056D00013602B46BFF35B8F53F8702FBFF35B8FC4
:1056E00002F00D02BFF35B8F53E8001F43E8002078
:1056F0000028F9D1BFF35B8F099819F007FF09AAB9
:10570000002141F20300FFF755FD044600287FD138
:10571000099B4348996808220131FEF702FE099867
:1057200019F0F4FE214609AA41F20100FFF742FDFB
:10573000044600286CD1099883685A782A74D9786D
:105740009A7842EA01226A821A796A74197ADA79B5
:1057500042EA0122AA825A799B7942EA0323EB8228
:1057600019F0D4FE0320FFF771FC014650BB09AAD3
:1057700041F20900FFF71EFD0446002848D1099BAD
:105780000A909E68ADF82C00013606220AA9304620
:10579000FEF7B2FD98B1234B18680C909B88ADF8CA
:1057A000343006220CA93046FEF7A6FD38B1062299
:1057B00031461D48FEF7B5FD01232C70EB710998A9
:1057C00019F0A4FE09AA002141F20200FFF7F2FC41
:1057D0000446E8B9099B1548996840220131FEF753
:1057E000A0FD95F84230099843F0060385F8423051
:1057F00019F08CFE2B7F5A0624D40D4B0193009395
:105800000C4A0D4B0D490E48FBF776F96FF0120468
:1058100020460EB0BDE8F081F0E60020A43A00205A
:1058200008E70020341E0400F1E6002010E7002005
:10583000235604008B1E0400F130040050210400A4
:10584000D2320400214609AA42F20300FFF7B2FC5B
:1058500004460028DCD1099B9A4899680822013146
:10586000FEF75FFD099819F051FE214609AA42F2A0
:105870000200FFF79FFC04460028C9D1099B9B68E2
:10588000B3F80120A5F888203AB1DA788E48022AC8
:1058900028BF022211461BF069FC099819F036FE58
:1058A0002C7F14F0200400F0C58095F83C301B07D5
:1058B00013D509AA002142F21C00FFF77BFC044625
:1058C0000028A5D10998836853F8012F5B68C5F8B3
:1058D0008430C5F8802019F019FE95F878309F06BD
:1058E00000F1C480082142F20100FFF7C1FB044629
:1058F000002800F0A6800821084419F039FE95F828
:1059000078108E074CBF2F220F22890695F8791048
:1059100048BF42F0400211F0090F95F8421001F023
:10592000060118BF42F40062062908BF42F4C072A3
:105930000270C2F30722427000228270C2700271AC
:1059400042718271C271214642F20100FFF732FCBE
:10595000044600287FF45CAF2B7F9B0621D4B5F86A
:105960008810F1B909AA41F20500FFF723FC0446AB
:1059700000287FF44DAFB5F888307BB9099B5248B9
:105980009B6899785A7842EA0122A5F888209A887B
:10599000022A28BF022211461BF0E8FB099819F0E1
:1059A000B5FD082140F60140FFF762FB04460028E0
:1059B00047D00821084419F0DBFD10230370882329
:1059C000437002230022C37020238270027142714F
:1059D0008271C371214640F60140FFF7EBFB04469C
:1059E00000287FF415AF014609AA4FF60140FFF7E2
:1059F000E1FB364E002875D0354B364A36493748DC
:105A000001960096FBF778F801F0E8FE04460028BE
:105A10007FF4FEAE02213248FFF7A3F92046FFF7DC
:105A20002DFEEB79002B00F0D78004212C48FFF7E6
:105A300098F9EDE6022140F66D40FFF719FB0646A6
:105A400010B96FF03604E3E60221083019F090FD3A
:105A50000123447003702246314640F66D40FFF743
:105A6000A9FB044600283FF420AFD1E609AA002193
:105A700042F22F00FFF79EFB044600287FF4C8AED9
:105A800009988368B3F80180B3F8037019F03EFDFC
:105A9000042142F22400FFF7EBFA06460028D0D09A
:105AA0000421083019F064FD2246A0F800804780E8
:105AB000314642F22400FFF77DFB044600283FF404
:105AC00011AFA5E668E700207CE70020235604001C
:105AD0001B310400DD2004005021040006330400C3
:105AE00060E70020099B41499C684148B4F80130B7
:105AF0000293032B96BF3F4A3F4A52F8232001925C
:105B00003E4B3F4A03960096FAF7F6FFB4F8013091
:105B1000B4F80320022B3AD1022A38D8394B53F873
:105B2000223002920193364A344B30490396009654
:105B30003548FAF7E1FF63790696D4F80910059124
:105B4000032BB4F8071098BF304A0491A17994BF91
:105B500052F82320284A039102932449274B0192AB
:105B60000096274A2A48FAF7C7FF099819F0CEFC91
:105B700009AA00214FF60240FFF71CFB044640B182
:105B8000019600961D4B234A184923483AE71A4BC1
:105B9000C7E7099B2148996802220131FEF7C1FB42
:105BA000099819F0B3FC09AA21464FF60340FFF704
:105BB00001FB30B101960096104B164A0B4918486C
:105BC00020E7099B1748996801221144FEF7A9FBB9
:105BD000099819F09BFC17E701960096124B0D4AA5
:105BE00002491248FAF788FF12E600BF502104006C
:105BF0003A330400243A0400143B04001B3104002F
:105C000049210400183A040063330400043B0400F3
:105C10008B330400DD200400C833040051E700206A
:105C20000134040050E700203C3104003A34040001
:105C300010B5FFF735FD034B1B6813B1BDE81040ED
:105C4000184710BDA03A0020012310B506210446D4
:105C500000F8013B18F08EFA18B9A37963F03F03FE
:105C6000A37110BD30B5044685B00D46C1B1002307
:105C7000072202A928460293CDF80B30FEF73CFB21
:105C800070B11248C4EBC40429462044FFF766F8FB
:105C90000120FFF7DBF908B1FEF732FF05B030BD98
:105CA0006846FFF7D1FF6846FFF7B6F90028F7DA34
:105CB0000648C4EBC404044469462046FFF74EF886
:105CC000002DE5D021462846E0E700BFF0E60020A1
:105CD0002DE9F043294C2A4EE3792A4D2A4FDFF86B
:105CE000AC80DFF8AC9087B02046012B98BF3546DA
:105CF000FEF7A6FB0195029003960096224B234ADD
:105D000023492448FAF7F8FE0125E3799D4224DB74
:105D1000257C2846FFF706F8E38A0493638A0393F9
:105D200002950190184B194A1949059600961A4890
:105D3000FAF7E2FE657C2846FEF7F4FFA38A039398
:105D400001900496029500960F4B104A1049134893
:105D5000FAF7D2FE07B0BDE8F083C5EBC5002044DA
:105D6000FEF76EFB01950290039600963B46424675
:105D700049460B48FAF7C0FE0135C6E7F0E60020B9
:105D8000235604006A3104000A310400492104004A
:105D9000502104006E310400AE310400FC310400D7
:105DA0008D310400FEF7A0BC2DE9F04F037D012BDF
:105DB00095B0044640D0032B40F08B8283681E8848
:105DC0005D88C6F30B03C382FF23437504210830AB
:105DD00019F039FCA28995420ED0994B0393019298
:105DE00000930295974B984A98499948FAF784FE90
:105DF000204619F08BFB1BE0E08A01F005FB05460D
:105E000058B98F4BE28A0293019200938E4A8D4BD0
:105E10008E499048FAF770FEEAE701F0D3FC320BA6
:105E200060752146284601F01BF8284601F065FB05
:105E3000002015B0BDE8F08F86683278132A00F292
:105E40005882934013F40C2F00F053827C4B019343
:105E500000937D4A804B7D498048FAF74DFE4040D3
:105E600080F311884FF0040002DFA7683E78002E0F
:105E7000BED1B7F80180404601F0C6FA0546B8B970
:105E80006F4B02938DE808016F4A754B6F49754857
:105E9000FAF732FE0820FFF7D9F80028A8D006202C
:105EA000FFF7D4F80028A3D10120FFF735FA9FE7C8
:105EB000FB7843726C496D481BF026FB284631463F
:105EC00001F0E0F9AB782E80284613B101F015FB04
:105ED0008EE701F012FBDDE7A6680121284619F0E4
:105EE000B2FB3678731E0B2B00F2E181DFE813F072
:105EF0000C00960143006C00DF01C800250167011A
:105F000087014100DF013E01A1680B788DF8303038
:105F1000B1F80130ADF83130CB788DF83330B1F8CD
:105F20000B30ADF84730B1F80D30ADF84930B1F86D
:105F30000F30ADF84B304B7C8DF84D3004310DA84F
:105F4000FEF70CFF0025062208A90DF13B0008957D
:105F5000ADF82450FEF7E5F906220AA90DF141003B
:105F60000A95ADF82C50FEF7DCF90CA8FFF78CFA77
:105F70003EE7A068FAE7A568B5F80170384601F079
:105F800043FA064640B92E4B02938DE88800384B01
:105F90002D4A2E4937483DE72B789BB92A79EB7873
:105FA00043EA0223A0F85E30AA796B7943EA022320
:105FB000A0F86430EB792A7A43EA0223A0F866302D
:105FC00000F012FF304681E7A668B6F80170384647
:105FD00001F01AFA054628B9194B02938DE888009A
:105FE000254BD5E7337823B90822F11C6830FEF73A
:105FF00098F9224E96F87920D2070DD595F8693098
:10600000DB0709D52846FFF79BF828B98021281D12
:10601000FEF7A7FE284659E796F878309F0640F12C
:10602000A18095F868309E0640F19C802846FFF7D5
:1060300001FA002840F096804FF48071E7E700BF36
:1060400023560400EA2F04008B1E04005021040094
:10605000E63404001A350400C1300400453604005B
:106060000C3004004C35040082350400214D020040
:106070008A3004008635040036300400F0E6002043
:10608000A368D9789A781F8842EA0122ADF83020B7
:1060900059791A7942EA0122ADF832209A79D979F0
:1060A00042EA0122ADF834201A7A5B7ABDB242EAA4
:1060B00003232846ADF8363001F0A6F9804670B9C2
:1060C0009A4B02938DE82800994A9A4B9A499B482B
:1060D000FAF712FD02212846FFF752F888E60CA9CC
:1060E00000F096FE28B91E212846FFF749F84046E1
:1060F000ECE60E2142F22000FEF7BAFF0646002829
:10610000F5D00E21083019F033FA0E220546002191
:10611000FEF733F9BDF830306B80BDF83230AB801C
:10612000BDF83430EB80BDF836302F802B813146FE
:1061300042F22000FEF7CCFFD9E7A3681E88304664
:1061400001F062F9054628B9784B02938DE84800C2
:106150007B4B1DE76FF480710430FEF713FEC00522
:106160007FF558AF2846FEF71FFE53E7A368B3F844
:106170000160304601F048F9054628B96B4B02939F
:106180008DE848006F4B03E7061D6FF08001304635
:10619000FEF7F8FD01067FF53DAF6B4B93F87830C5
:1061A0009A06DFD595F868309B06DBD52846FFF7C1
:1061B00041F90028D6D14FF48071304628E7A6680F
:1061C00062486FF02001FEF7DDFD337843B9711CA2
:1061D00040225F48FEF7A5F810215C48FEF7C1FD9C
:1061E0005C4B1D68771C002D3FF402AE32782B68A3
:1061F000002A0CBF3846002098476D68F3E7564DDB
:10620000A0682A68002A3FF4F3AD037823B901306F
:10621000904700232B60EBE50020F9E7284619F0B2
:106220001AFADFF854A10790079B002B3FF4E0AD6A
:10623000A6680921284619F006FA337A3146334414
:106240000CA893F809B011F8013F023B012B2BD8A1
:10625000FEF784FD9DF83030023B8DF83030DAF8DF
:106260000030ABB1284619F023FA337AB4F80C8029
:10627000A38181462B463278DAF800704FFA8BF111
:106280000CA8B8472369A4F80C8013FA89F3A3601B
:10629000317A2846013119F0D6F9079B03F1FF380E
:1062A0005FFA88F30793BFE7FEF758FDD7E7A589A4
:1062B000A0682946FEF78EF81C4B049303908DE8E6
:1062C0004800264A264B1C4926480295FAF714FC3A
:1062D0008EE5164A02928DE80C001749224B144AAB
:1062E0002248FAF709FC204619F010F96FF0150062
:1062F0009FE504F108050221284619F0A4F9367833
:10630000052E3FF4B2AD3E2E3FF4E6ADA589A06860
:106310002946FEF75FF8054B049303908DE848008B
:106320000295134B0D4A04491248CFE72356040047
:106330008B1E0400783004005021040086350400D0
:106340004E30040061300400F0E6002060E70020D9
:106350005C3A00209C3A0020583A0020DD200400DE
:10636000AF300400BA3504002731040021360400A0
:10637000C1300400EF350400A43A00202DE9F04FAD
:10638000037D8668012B87B004460ED0654B0193D0
:106390000093654A654B66496648FAF7ADFB404095
:1063A00080F311884FF0040002DF8289012A07D8A8
:1063B0005C4B019300935C4A5C4B5D495E48ECE7A3
:1063C0003278132A00F2A580934013F40C2F00F0CA
:1063D000A08000F108050221284619F034F933782D
:1063E0000F2B1DD0132B2BD00E2B40F08780A368D2
:1063F00003212846B3F801701E7819F024F9A36828
:10640000224619783846FEF7DDFC16B14B481AF0E3
:10641000B6FE204619F07AF8002007B0BDE8F08FEC
:10642000A668B6F8028077780421284619F00BF99F
:10643000224631784046FEF7C5FC002FE9D0E5E75B
:10644000A368384FDFF80891DFF8DCA0049300263A
:10645000049B1B789E42DCDA049B03EB8603B3F8B3
:106460000120B3F803804FF02001EFF3118B81F38B
:1064700011881046059200F0C7FF059A054660B9DD
:106480000192029700974B46524629492C48FAF749
:1064900033FB8BF311880136DAE78BF3118800F1B7
:1064A0001C0BB8F1000F1CD04FF02002EFF3118E3F
:1064B00082F31188696929B1AA6908686861914203
:1064C00008BFA8618EF3118808F1FF331FFA83F823
:1064D00059B9019700974B46524615491948FAF7A2
:1064E0000BFB284601F009F8D5E758461AF010FBD7
:1064F000284600F075FC1AF042FED2E7204619F05B
:1065000005F8084B01930093074A084B08490E48C9
:1065100043E7044B01930093034A044B04490B489F
:106520003BE700BF235604008B1E04002F310400FC
:106530005021040084360400C836040098E7002087
:10654000023704002E370400553704007837040062
:10655000F22F0400084AD2F8D4303BB9C16841B1E7
:10656000016931B1C2F8D400184670476FF0440099
:1065700070476FF015007047F0E6002070B52D4DA4
:10658000D5F8D43086B006466BB92B4B01930093F7
:106590002A4A2B4B2B492C48FAF7AEFA6FF012041B
:1065A000204606B070BD012105F17000FEF7D9FB51
:1065B000C2073BD4FEF7BCFA04460028F0D1234BB7
:1065C00023491E606FF008034FF46B72059004902E
:1065D000039302901F4B019000901F481BF038F866
:1065E000FEF716F9D5F8D430DB689847044650B169
:1065F000114B02938DE81800104A114B11491748AE
:10660000FAF77AFACCE726B906B0BDE87040FFF792
:1066100047B8012105F16C00FEF7A3FBC307BFD407
:1066200005F164010E481AF073FAB9E76FF04404FB
:10663000B6E700BFF0E60020235604008B1E0400DE
:10664000443104005021040033320400A03A0020F9
:10665000A8740020894E0200A83A00205C32040091
:10666000C86E0020004870478832040038B50D46D7
:1066700005492B68CC799C4228BF1C46C4EBC40258
:10668000FDF74FFE2C6038BDF0E60020F0B50C465B
:1066900085B0064618B934B36FF0150438E000230E
:1066A000072202A90293CDF80B30FDF725FE002842
:1066B000F1D03378012B04D1B37903F0C003C02BA0
:1066C00009D0164B01930093154A164B16491748EB
:1066D000FAF712FAE0E73046FEF79EFC0028DADB14
:1066E0006FF0440414E0124FFD79012D13D06B1CA0
:1066F000FB712C4645B90120FEF7A8FC20B9082102
:1067000007F17000FEF72DFB31462846FFF7AAFA85
:10671000204605B0F0BD6FF00B04F9E723560400E6
:106720008B1E04004E3104005021040094320400FA
:10673000F0E600201FB5244BD9791C4600293AD138
:1067400093F86230DB0736D503AA4FF60940FEF70F
:1067500031FD68B11D4B019300931D4A1D4B1E492D
:106760001E48FAF7C9F900210846FFF78FFF18E025
:10677000039B99684B78002B14BF01230023E3711E
:1067800007D02046012300F8013B06220231FDF725
:10679000C8FD039818F0BAFEE37923B11048FEF75C
:1067A0007BFD04B010BD094B01930093084A094BCF
:1067B00009490C48D5E7054B01930093044A054B62
:1067C00005490948CDE700BFF0E600202356040044
:1067D000DD200400F930040050210400B637040025
:1067E000F1E60020E63704001F380400002070475F
:1067F0002DE9F04305468DB07C4E149C0F46914622
:106800000021102208A89846FDF7B7FD2878F379F3
:10681000834205D86FF0150420460DB0BDE8F08323
:10682000C0EBC00000230722694630440093CDF836
:106830000330FDF761FD0028ECD06B7813F0010FF9
:106840006B8804D1327C082A01D89F2BE2D9AA8810
:106850009342DFD81F2BDDD9B2F5804FDAD806205E
:10686000FEF7F4FB10B16FF04404D5E7012208A94C
:1068700042F208000897CDF82490FEF777FD07460E
:10688000002840F0AD806B78CDF82080180709947F
:1068900013D5B8F1000F02D03B46A34246D1544C69
:1068A000092320468DF80830FDF711FD02AB0A934D
:1068B00001238DF8090003940B93089B002B3DD115
:1068C0000A9B002B3AD16B78D90737D40F220021CD
:1068D00004A8FDF752FD6B882C78ADF81030AB881A
:1068E0003472ADF812306B780720DA078DF81D008E
:1068F0002ED459076BD54FEAC409A9EB0403F35C06
:10690000012B05D110FB04303044FEF7C5FC0746CF
:10691000A9EB0404335D8DF815303C46002C7FF460
:106920007BAFB8F1000F59D0022320E018F83320D4
:10693000083A012A7FF66EAF0133AEE7022208A9BA
:1069400042F20900FEF712FD04460028BED063E7BC
:10695000E7003B1BF35C012B04D110FB04303044F7
:10696000FEF79AFC3C1B335D8DF8153000230F2198
:1069700042F206008DF81430FEF77AFB044688B325
:106980000F2204A9083018F0F9FD2146002242F236
:106990000600FEF70FFC044600287FF43DAF0120FF
:1069A000FEF7BAFC044600287FF436AF6B789A07EE
:1069B00004D44FF480710F48FEF7D3F96B781B07AE
:1069C0007FF52AAF80210B48FEF7CBF924E7FEF7CD
:1069D00091FC012304468DF815309FE70323C6E799
:1069E000044619E76FF0360416E700BFF0E6002012
:1069F0008832040060E7002010B56FF480710E4803
:106A0000FEF7C0F90620FEF721FB10B9002420464E
:106A100010BD0020FEF780FC04460028F7D10920B5
:106A2000FEF714FB0028F1D00B20FEF70FFB002827
:106A3000ECD0FEF75FFCEAE760E700202DE9F341C8
:106A40000378012B05460F4610D84378012B0DD84B
:106A500041880B1F9BB243F6FC70834206D8AA887C
:106A6000131F9BB2834201D891426CD26FF0150480
:106A7000204602B0BDE8F0810920FEF7E7FA50B1E8
:106A80000846FEF7D5FB044628B16FF4806135480F
:106A9000FEF778F9ECE76B78002B48D04FF4805183
:106AA0003048FEF75EF90722002168462E78B5F8D7
:106AB0000280AC88FDF761FC00238DF806302A4B7C
:106AC0008DF800601B78ADF80180012EADF8034011
:106AD0008DF805300AD10620FEF7B8FA30B9FEF776
:106AE00009FC04460028D0D18DF80560072142F248
:106AF0000B00FEF7BDFA044680B307226946083052
:106B000018F03CFD214642F20B00FEF7E1FA0120AD
:106B1000FEF78EFB04460028B7D1012E0DD14FF4AD
:106B200000611048FEF71DF9104B1F60A0E76FF4DD
:106B300080510C48FEF726F9B5E76FF4006109486B
:106B4000FEF720F9F0E74FF480610648FEF709F9F7
:106B500010F4806190D06FF0440489E76FF0360440
:106B600093E700BF60E70020F0E60020A43A002091
:106B700008B56FF480610748FEF704F9430506D5B0
:106B8000054B00201860BDE80840FEF777BD6FF0A8
:106B9000440008BD60E70020A43A002038B505464F
:106BA000054818F039FC044620B10021083018F0DF
:106BB00052FC2575204638BD44F2002010B5014630
:106BC0004FF02003EFF3118083F311880B4A002369
:106BD000D2F8C040C2F8C03080F3118824B9012037
:106BE000BDE81040FFF7DABF012204F1080022756A
:106BF000A381194618F02FFC204610BDF0E60020B6
:106C00002DE9F341274E96F8423003F00603062B98
:106C100007460ED0244B01930093244A244B254968
:106C20002548F9F769FF6FF02204204602B0BDE85D
:106C3000F081224D2B6843602860202106F170000E
:106C4000FEF78FF810F0200801D00024EDE76FF078
:106C5000100106F17000FEF795F84246414642F2F7
:106C60002500FEF7A7FA044688B10F4B0193009365
:106C7000134A0F4B0F491348F9F73EFF6FF02001FD
:106C800006F17000FEF77EF8C5F80080CDE72C68AD
:106C9000002CDAD0BC4202D02368002098476468F8
:106CA000F6E700BFF0E6002023560400DD200400D4
:106CB0005B310400502104007D3404009C3A002024
:106CC0008B1E0400AC34040008B50420FEF7BEF9A6
:106CD0000028024808BF002008BD00BF5C3A002021
:106CE000F8B5184C2368074613B16FF00F00F8BDD4
:106CF0000520FEF7ABF906460028F6D10420FEF782
:106D0000A5F9E0B1216042F226004021FEF7B0F97A
:106D1000054618B920606FF03600F8BD40210830F4
:106D200018F026FC40223946FDF7FBFA3246294688
:106D300042F22600FEF73EFA18B12660F8BD6FF069
:106D40003000F8BD583A002010B50B46044628B96B
:106D500018460449FEF702F8204610BD6FF01500F2
:106D600010BD00BFF0E6002038B5064B1C68054694
:106D700004B938BD236813B1697A28469847246955
:106D8000F6E700BF2C3B0020BFF35B8F0068BFF32A
:106D90005B8F7047838910B504462BB1006918F0EA
:106DA000B5FB00232361A38110BDBFF35B8F50E8C7
:106DB000003F5A1E40E800210029F8D1BFF35B8F45
:106DC00018467047BFF35B8F50E8003F5A1C40E8FD
:106DD00000210029F8D1BFF35B8F184670470000EF
:106DE000004870477CE70020084B70B51C680546DA
:106DF00004B970BDE6683EB1B5F86630B5F86420F8
:106E0000B5F85E102846B0472469F1E72C3B002016
:106E1000F8B5074608460E46FEF710FC054610B9C1
:106E200000252846F8BD094B1C68002CF9D0A36842
:106E30000BB92469F9E73146384698470028EFD066
:106E40003046FEF7FBFB0028F3D1E9E72C3B00209E
:106E5000024B1A6802611860704700BF2C3B00208B
:106E6000012A7FB504460D461BD0022A6BD18B68E0
:106E70001E8883895BB13D4B019300933C4A3D4B97
:106E80003D493E48F9F738FE2046FFF783FFAB89BE
:106E9000F31A04339BB2A381002B42D0256104B0C6
:106EA00070BD83898BB9314B01930093304A314BCC
:106EB00031493348F9F720FE2046FFF76BFF28469B
:106EC00004B0BDE8704018F021BB8E89B34207D2F0
:106ED000264B01930093264A264B27492948E9E788
:106EE0000069083018F0E8FB864207D91F4B019370
:106EF00000931F4A1F4B20492348DBE72069AA89DA
:106F0000A968083018F03AFBA389AA899B1AA381C3
:106F1000284618F0FBFAA389002BC0D12569A3816C
:106F20002361AB68A9891A88131D8B4216D00F4BB9
:106F300003930291019200930D4A0E4B0E491348A0
:106F4000F9F7DAFDBBE7094B029301920093084A77
:106F5000084B09490E48F9F7CFFDADE72946204611
:106F600004B0BDE8704000F0F9BD00BF2356040036
:106F70008B1E04001C3B040050210400683B0400ED
:106F8000953B0400C33B0400E73B04004C3C040079
:106F90001E3C0400837A032B13B50C460FD00B4B19
:106FA000019300930A4A0B4B0B490C48F9F7A4FDD7
:106FB000204618F0ABFA6FF0380002B010BD2C304C
:106FC0004A6118F096FA0020F7E700BF2356040044
:106FD0008B1E0400293B040050210400783C04006F
:106FE0002DE9F0410D4D064600F11C074FF0000859
:106FF0000021384619F0B0FD044608B9BDE8F0811B
:1070000063680BB1304698472B6823606B68C4F8FF
:1070100004802C60002BEBD16C60E7E7DC3B0020A8
:107020002DE9FF4105460F4644484FF0FF31984691
:1070300014461AF0CDF8424B03F14400FFF7A4FECA
:1070400030B19A7A033A012A02D81846FFF7C8FFEE
:10705000AB7A032B53D1042107F1080018F0CEFAC4
:107060002A88384E42EA04320280BB89346871684B
:107070007A69043B438002233B75236833608C426A
:1070800008BF736062604FF02003EFF3118283F357
:10709000118800232360AB69002B3FD1AC616C6188
:1070A00082F311883846FEF77DFE002842D0264B39
:1070B000029301900093254A254B26492648F9F76B
:1070C0001BFD4FF02003EFF3118183F311886B69EF
:1070D000002253B19C422AD1236812BBAA696B617A
:1070E000944200D1AB610023236081F31188002317
:1070F0006360336823607368346003B974600F4859
:107100001AF03DF8B8F1000F04D0384618F0FEF937
:107110004FF00008404604B0BDE8F0811C60AC614F
:10712000BEE71360AB699C4208BFAA61DBE71A4661
:107130001B68CEE74FF00108ECE700BF7CE70020BA
:10714000403B0020DC3B0020235604008B1E040043
:10715000393B0400502104005D39040038B5044671
:1071600000F12C050021284618F05CF958B920469A
:10717000FFF736FF2046FFF70DFE04F14400BDE89F
:107180003840FFF712BE18F0C1F9EBE738B51F4BD6
:10719000002201219A6005461AF0D7FC1C4B03F12E
:1071A0004400FFF7F1FD194608B9012038BD9A7A6D
:1071B0009AB9BFF35B8F1A1D52E8000F20F040040C
:1071C00042E8004EBEF1000FF6D1BFF35B8F4206DE
:1071D00003D51846FFF7C2FFE7E78C7A032CE4D10A
:1071E00005F114000B4B002204211AF0AEFC012320
:1071F00085F8203005F12800074B002204211AF001
:10720000A4FC022385F83430204638BD18E800205D
:10721000403B00205C3B00206C3B0020F8B5174C45
:1072200004F1440607463046FFF7AEFD054608B1B7
:107230000020F8BD01469C222046FDF79EF8BFF3D2
:107240005B8F012356E8002F46E800310029F9D171
:10725000BFF35B8F0722394604F14800FDF761F860
:107260001823A4F86030282304F17400A570A4F852
:10727000623003491AF0D6FA2046F8BD403B0020A0
:1072800021760200F0B5857A8D4285B004460E461F
:107290000AD1534B01930093524A534B53495448DC
:1072A000F9F72AFC05B0F0BDA17215B94430FFF71B
:1072B00089FDA37A042B00F2878001A252F823F003
:1072C0000B730200A5720200A5720200D5720200C3
:1072D000A5720200A378022BE4D004F12C0019F06F
:1072E000FFFB04F11C0019F0FBFB002141481AF0E0
:1072F000D3FC00232046E363236400F01FFB2046F9
:1073000005B0BDE8F040FFF72FBDA378022B06D1F2
:1073100004F1440005B0BDE8F040FFF746BDEB1EA8
:10732000012B44D8204600F043FB334B1D68EDB9D8
:10733000324E334F4FF02003EFF3118183F3118866
:1073400063692BB1A0691A686261834208BFA261B8
:1073500081F311888BB132681A6072685D603360A6
:1073600002B97360384619F00AFFE3E76B6813B19E
:10737000617A204698472D69D9E7A3781BB904F1B3
:1073800074001AF05FFABFF35B8F043454E8003FD7
:1073900043F0400344E80032002AF7D1BFF35B8F8B
:1073A0001448002105B0BDE8F0401AF075BC022D6C
:1073B00003D12046FFF7D8FCAAE7012D7FF472AF76
:1073C000637A002BA4D0F4E7054B02938DE84800C4
:1073D000044A054B05490B48F9F78EFB62E700BFED
:1073E00023560400DD200400563B04005021040015
:1073F000973C040018E800202C3B0020DC3B0020D8
:107400007CE70020B53C040010B50B4C024604F1AB
:107410004400FFF7B9FC68B1A37A033B012B08D8FD
:107420002388934205D104F14400FFF7CBFC2046AA
:1074300010BD002010BD00BF403B002038B50D46F8
:10744000044600F1480107222846FCF755FF60B1C9
:10745000E378072233B904F156012846BDE83840E5
:10746000FCF74ABF04F14F01F7E738BD10B50D4CEA
:10747000034604F14400FFF787FC08B9002010BD63
:10748000A278002AFAD1227A9A42F7D12046FFF751
:10749000D5FF0028F2D104F14400FFF793FC204609
:1074A00010BD00BF403B002038B50E4C034604F130
:1074B00044000D46FFF768FC08B9002038BDA278EB
:1074C000002AFAD13BB9A37AAB42F6D10648FFF7BE
:1074D00079FC044838BD19462046FFF7AFFF002865
:1074E000EBD1F0E7403B0020843B002010B5044680
:1074F0004430FFF767FC204610BD4430FFF755BC11
:10750000837A013B70B505460E46032B03D8DFE8AE
:1075100003F0060A0C0A6FF03804204670BD697249
:107520000021FFF7AFFE0024F7E7032140F20640F9
:10753000FDF79EFD044698B10321083018F018F8B5
:107540002B8803808670214640F20640FDF7C0FD7F
:1075500004460028E1D104212846FFF793FEDCE72A
:107560006FF03604D9E7F8B507460D4642F213002E
:107570000E21FDF77DFD0646C8B10E21083017F03B
:10758000F7FF002104460E22FCF7F7FE3B8823801C
:107590002B8863806B88A380AB88E380EB88238192
:1075A000314642F21300BDE8F840FDF791BD6FF09F
:1075B0003600F8BD38B50A88B0F85E309A42044605
:1075C0000D460CD84A889A4209D3B0F864208B88BB
:1075D0009A4204D1B0F86620CB889A421AD004F1BE
:1075E00074001AF02FF90D4B93F878309A0703D5F1
:1075F00094F868309B0701D4E3782BB929462046DC
:10760000BDE83840FFF7AFBF29462046BDE8384007
:1076100000F0E4BA6FF0440038BD00BFF0E600208F
:1076200007B530F8143CADF8003030F8123CADF836
:10763000023030F8103CADF80430694630F80E3CAA
:10764000ADF806307438FFF7B5FF03B05DF804FB02
:1076500038B5084B0D46002808BF18464FF0FF31DB
:1076600017F0DAFE291D0446083017F0F4FE204614
:1076700038BD00BFC4F100202DE9F04106460C469C
:1076800016480021FFF7E4FF3378032B05464FF03F
:10769000000605D017F03AFF35462846BDE8F081D0
:1076A000466100F108070E4E3846B6F8888018F09B
:1076B00003F880450CD2B6F8886054F8081F3246AB
:1076C000384617F05BFF3146204617F0BCFFE4E771
:1076D000384617F0F1FF86B2EFE700BF04F2002052
:1076E000F0E60020837AF7B505469BB9BFF35B8FC0
:1076F000031D53E8002F22F0400143E80014002C42
:10770000F7D1BFF35B8F530604D503B0BDE8F0405B
:10771000FFF724BD002105F12C0017F083FE04467D
:1077200070B9224B01930093214A224B22492348EE
:10773000F9F7E2F9404080F311884FF0040002DFCE
:107740001F4E8189B6F88820914208D800231A4636
:1077500021462846FFF764FC48B103B0F0BD05F1AF
:107760000A0701463846FFF787FF014628B9204639
:1077700003B0BDE8F04017F0C9BE0123002228463F
:10778000FFF74EFC0028F2D0A289B6F888309A4262
:1077900002D800230122DBE721463846FFF76CFFC1
:1077A00001460028E3D001231A46E8E723560400E7
:1077B0008B1E0400433B0400502104000D390400DB
:1077C000F0E60020034BC01A034B80105843C0B2B0
:1077D000704700BF403B0020976FF9960B4B0C4A57
:1077E000196810B51160596801B95A6059689260FA
:1077F000084A1A6001B95A6001F0B0FA02F0FCF9C7
:10780000044608B900F020FA204610BDDC3B0020F9
:10781000303B0020383B0020704700001FB50B4A6A
:10782000136833B90A4850600A60184605B05DF81D
:1078300004FB084B029301900093074A074B084949
:107840000848F9F759F96FF00B00EFE7E43B002027
:1078500034E80020235604008B1E0400413D040040
:1078600050210400B03D04007047000000238360F5
:10787000054B596800F1080211B95A601A60704747
:107880000A605A60704700BF7C3C0020C36B10B593
:1078900013B1083B002203B910BD8B4203F1080469
:1078A0000FD199683AB9026CC163944200D1016466
:1078B00000229A6010BD1160016C8C4208BF026406
:1078C000F6E72246002CE7D09B68002BE4D0083B6B
:1078D000E1E7036810B504462BB143685B6803B168
:1078E000984700232360E3681BB12046BDE81040A1
:1078F000184710BD30B50C4B0C4A0D4985B0A0F1AE
:107900001004054602938DE818000A480A4BF9F75F
:10791000F3F855F8100C2146FFF7B8FF204605B0E4
:10792000BDE83040FFF7D5BF235604008B1E04008E
:1079300050210400D13E0400043D04001A4B2DE9FF
:10794000F7431C6806462CB10027DFF86080083C2E
:10795000B94614B903B0BDE8F083636801A93046A5
:107960009847002818DB019D23882B87A5F85830FD
:10797000414605F1100019F055FFAF60326C05F17A
:10798000080372B93364F36301982E604368C5F845
:107990000C901B6803B19847A468002CDAD0083C0F
:1079A000D7E713603364EFE77C3C0020F5780200F2
:1079B000C36B10B5A3B1B3F108000AD110BD083CE8
:1079C000FFF787FF64B1A36803B1083B20461C465C
:1079D000F6E71C68002CF2D1BDE81040FFF779BF34
:1079E00010BD0431FFF734BEF8B5144605460F4606
:1079F00002F1080004211E4617F000FEA18947800D
:107A000004390180324621462846BDE8F840FFF798
:107A1000C1BA0000F0B58B89032B85B007460E462E
:107A200009D8334B01930093324A334B33493448DE
:107A3000F9F762F814E00846042150F8084F658809
:107A400017F001FEB28995420CD0294B03930192A5
:107A500000930295284B274A28492A48F9F74CF801
:107A600005B0F0BD63783BB9214B01930093214AE7
:107A7000214B22492448DBE72378012BF0D0132B3C
:107A800009D1012DECD81A4B01930093194A1F4BD1
:107A90001A491F48CCE7164A02928DE80C00174994
:107AA0001C4A154B1C48F9F727F8042100203F68B1
:107AB0006478FFF7CDFD00F1080605460421304645
:107AC00017F056FD012344700221002403708170D9
:107AD000C470304617F04CFD2346047044702A46AB
:107AE0000521384605B0BDE8F040FFF77DBF00BF77
:107AF000235604008B1E0400283D0400502104007E
:107B0000E73D0400153E0400463E0400163D040017
:107B1000773E0400DD200400A33E0400C06B00B1EA
:107B2000083800B97047B0F858308B42FAD08368F3
:107B30000020002BF6D0A3F10800F2E7C06B00B1E3
:107B4000083800B97047038F8B42FBD08368002050
:107B5000002BF7D0A3F10800F3E700007FB58B8975
:107B6000032B06460C460ED8154B01930093154A7D
:107B7000154B16491648F8F7BFFF204604B0BDE87C
:107B8000704017F0C3BC0846042150F8083F5D88D8
:107B900017F059FD29463046FFF7D0FF50B9084B82
:107BA00002938DE828000B4A074B08490A48F8F76A
:107BB000A3FFE2E7436821461B699847DDE700BF62
:107BC000235604008B1E0400333D040050210400A2
:107BD0004E3D0400DD2004007B3D04002DE9F04112
:107BE000184B1A78013212F0FF0208BF01220C462E
:107BF0001A700546042100201E78FFF729FD00F1C8
:107C0000080807460421404617F0B2FC12234670CC
:107C10000821002603708170C670404617F0A8FC4A
:107C20002388038063884380A3888380E388C3809C
:107C30003A46284633460521FFF7D6FE3046BDE8D2
:107C4000F08100BF783C00200148FFF70FBE00BF65
:107C500028E800200620704710B50A4A002312F8D1
:107C6000334084424FEAC30102D10A44907810BDE8
:107C700001331A2BF3D110F0400F14BF002006205F
:107C800010BD00BF904104007FB5114D2C680E4619
:107C900084B9E42221462846FCF76FFB02220D4BF3
:107CA0006B6005F1CC00114619F060FA3560204692
:107CB00004B070BD084B029301900093074A084B33
:107CC00008490948F8F718FF6FF00B00F0E700BF0C
:107CD000843C002054E80020235604008B1E04003E
:107CE0005B3F0400502104004640040008B501F148
:107CF000080017F0B8FC002008BD10B50446006964
:107D000008B117F003FCA3680BB120469847204642
:107D100014220021BDE81040FCF72FBB2DE9FF41E4
:107D20000D6806460C464FF000084FF4205302A998
:107D300000682F688DF80880ADF80A30FCF766FF00
:107D400098B142F6010303A930688DF80C80ADF8B4
:107D50000E30FCF75BFF40B1236923B1328A5988AA
:107D6000914200D25A80012012E061683068FCF72D
:107D70004DFF10B100232361F5E7E368A0681A788E
:107D80004AB1B5F85A3081895B1A934203DA002070
:107D900004B0BDE8F0810421083017F0E9FB338A14
:107DA000A1682061038043808A89B5F85A308968C8
:107DB000D6F804809B1A00250A44009531469BB2F0
:107DC0003846C047011EE2DBE06802780B1D2AB985
:107DD0000370A068083017F0CBFBC4E79A42F8D0D4
:107DE000A2689389043B9381D1E78B6870B50546FF
:107DF0000C460E6863B948680121083017F0B8FBDB
:107E00002B68A0601B78002B0CBF0123022303709A
:107E1000A3681B78012B03D0022B1AD0002070BD61
:107E20002B681B78002BF9D160680421083017F00B
:107E30009FFBE0602B8A03802B685B88438063682C
:107E4000B6F85A009B89C01A042894BF002001206C
:107E500070BD2B681B78022BE0D1606812210830BE
:107E600017F086FBE06029682B8A20F8023B10227D
:107E70000131FCF756FA6368B6F85A009B89C01ABC
:107E80001228E2E72DE9F0410E6888B005460C465D
:107E9000002742F6010302A90068D6F800808DF899
:107EA0000870ADF80A30FCF7B1FE28B90023A360D2
:107EB000012008B0BDE8F0814FF4205303A92868E1
:107EC0008DF80C70ADF80E30FCF7A0FE40B1A36841
:107ED000002BEDD02A8A59889142E9D25A80E7E7EF
:107EE0006268B6F85A3092899B1A032BE1D91023A5
:107EF00000900DEB03026E6829464046B047021E13
:107F0000D4DB237C9A42D1D104A9E068FCF7F4F9D0
:107F10000028CBD1607460680421083017F028FB7A
:107F20002B8AA06003804380C2E7000010B51723AE
:107F30000446A0F85A3043870649A43019F072FC71
:107F40000023C4F89C30C4F8A0302068BDE810407D
:107F500001F08CBD7984020011F0010F837C04D004
:107F600013F0150F12D0426882B18A0704D513F0BE
:107F70002A0F0DD082685AB1194011F0300F09D183
:107F800011F00C0F14BF0F20002070470220704723
:107F900003207047052070472DE9F7430F68064618
:107FA0000C4600684968D7F80090FCF72FFE804621
:107FB00000284DD115213046FFF7CEFF054620752C
:107FC00048B1E3681D7815B184F814804546284609
:107FD00003B0BDE8F083A0680221083017F0C8FAAA
:107FE000338AA168206103808A89B7F85A3089688A
:107FF000D6F8048000959B1A9BB20A444846314645
:10800000C047011E08DA01F1FF03FE2B9ABF494267
:10801000C9B20E212175DAE7E06802788B1C82B9BB
:108020000370A068083017F0A3FAA368B7F85A5095
:108030009B89ED1AE3681B789D42D4BF002501257A
:10804000C5E79A42EDD0A2689389023B9381BEE7CF
:108050000125BCE710B58A89022A044603D0102AFC
:108060000AD0002010BD0023037001F1080017F0B2
:10807000FAFA6080012010BD022300F8013B8968F4
:10808000FCF74FF9F6E7000010B50421FFF746FDB5
:108090000446CC3019F073F8D4F8983043B104F1A9
:1080A000A40147F230520348BDE8104019F02EBC3D
:1080B00010BD00BFC86E002003689B7A032B0AD155
:1080C000BFF35B8FD0F89400BFF35B8F6FEAA00023
:1080D00000F001007047012070470620704708B586
:1080E0000421FFF71BFDBDE80840CC3019F047B86C
:1080F00008B50421FFF712FDBFF35B8F00F1940375
:1081000053E8002F22F0010243E800210029F7D1B3
:10811000BFF35B8FCC30BDE8084019F030B808B52C
:108120000421FFF7FBFCBFF35B8F00F1940353E8DE
:10813000002F22F0020243E800210029F7D1BFF30B
:108140005B8FCC30BDE8084019F019B8837A032B57
:1081500013B50BD0154B01930093154A154B1649D7
:108160001648F8F7C9FC002002B010BD0421FFF743
:10817000E5FC044650B90D4B01930093104A0D4B9A
:108180000D491048F8F7B8FC2046EDE7BFF35B8FC8
:10819000D0F89430BFF35B8F5B07F5D5034B0193A9
:1081A0000093034A034B04490748DAE723560400C7
:1081B000DD200400303F040050210400693F04002A
:1081C0008B1E0400873F0400B23F04002DE9F341F9
:1081D0000C46D1F800802A210646FFF7BDFE054671
:1081E0002075E0B9628A01900092237CB768E2684A
:1081F00031464046B847002802DB237C98420BD02A
:1082000000F1FF03FE2B9ABF4042C0B20E20207542
:10821000284602B0BDE8F08125750125F8E7002564
:10822000F6E7000073B5054600F1CC06C5F89810D6
:108230000C4630464FF0FF3118F0CAFF2846FFF7D2
:108240003BFF78B9184B01930093184A184B194912
:108250001948F8F751FC304618F091FF6FF03800DC
:1082600002B070BD266906F1080017F021FAB38943
:10827000A081E38120692D6817F076F923699B6856
:1082800006461878FFF7E8FC0138C0B2042896BF0C
:108290000A4B0B4B53F82030324628460421FFF797
:1082A000A3FB0020DCE700BF23560400DD20040010
:1082B000083F0400502104000D400400F43E040077
:1082C000DF8002002DE9F7430446A4301E460F4626
:1082D000904619F0B7FAD4F89830DBB91C4B0193EB
:1082E00000931C4A1C4B1D491D48F8F705FCD4F8A7
:1082F0009C1059B1D4F8A0200B68C4F89C3091426E
:1083000008BFC4F8A0302046FFF78CFF002003B060
:10831000BDE8F083186928B117F0F8F8D4F8983060
:1083200000221A61D4F898302068D3F80490002510
:108330005D603A46009331464346C847D4F89800FA
:1083400043680BB9FFF7D9FCC4F89850CFE700BFDA
:1083500023560400DD200400153F040050210400D2
:10836000E63F04008A8989680023FFF7ABBFFFF767
:10837000F9BFFFF7F7BFFFF7F5BFFFF7F3BFFFF751
:10838000F1BFFFF7EFBFFFF7EDBFFFF7EBBFFFF761
:10839000E9BF10B40A46034680B189680C88162CE0
:1083A00083BF17245C87A3F85A40002299BF042397
:1083B00011460023928910BCFFF784BF10BC7047A0
:1083C00030B4D0F898208C686AB113692BB19589C4
:1083D0001969D2899A8129449960E378002211466B
:1083E00030BCFFF76FBF0E23F8E7F7B500F1940339
:1083F0000546BFF35B8F53E8002F42F0040243E8C9
:1084000000210029F7D1BFF35B8F05F1CC04204692
:1084100018F0B5FE204618F0B2FED5F89C408CB995
:10842000D5F898300022C5F89C20C5F8A0200BB9DB
:1084300003B0F0BD0E231146284603B0BDE8F0405E
:10844000FFF740BF266867682FB1002300941A46E3
:108450000E211846B8472046FFF74FFC002EDFD00C
:1084600034463668EFE710B50446FFF7BEFF2068D4
:10847000BDE8104001F062BB13B50B4B0B4A0C4931
:108480000193044600930B480B4BF8F735FBA4F11E
:10849000A400FFF7AAFF54F8A40C01F04FFB00233F
:1084A00044F8A43C02B010BD235604008B1E040007
:1084B000502104002A4004004F3F04002DE9F743F7
:1084C00006468868D1F800900C4608300021D9F89B
:1084D000008017F04DF80027E06027741521304622
:1084E000FFF73AFD0546207408BBA168B9F85A3079
:1084F0008A898968A08800909B1A77680A449BB291
:1085000031464046B847011E0BDA01F1FF03FE2B4E
:108510009ABF4942C9B20E212174284603B0BDE872
:10852000F083A068083017F023F80125F5E73D46F1
:10853000F3E70000F0B5056887B001F108000C46CC
:1085400017F091F8064628B3182200216846A7685C
:10855000A489FBF712FF00238DF80830ADF8123024
:1085600001238DF814300C4A00956B463146304695
:1085700003978DF8104001F0EDF89DF8143033B9F1
:10858000019A22B1054B04212846FFF72DFA00205D
:1085900007B0F0BD0120FBE7CD810200F1800200B1
:1085A00030B585B00D461446FFF7D0FDF0B1B0F8F8
:1085B0005A1001348C420ED90D4B03930294019151
:1085C00000930C4A0C4B0D490D48F8F795FA00241E
:1085D000204605B030BD00210846FFF702FA012110
:1085E0000446083016F0C4FF0570F1E70446EFE7D3
:1085F00023560400DD2004003D3F04005021040008
:108600007B40040010B5046801F1080017F02BF856
:1086100000221E212046FFF7C3FF024620B1034B74
:1086200004212046FFF7E0F9002010BD1F81020061
:108630002DE9F0418B681B88162B05461CD9D0F814
:108640000080022203214046FFF7AAFF0746B0B18F
:108650000221083016F08CFF1726002406704470A3
:10866000084B40463A460421FFF7BEF96E87A5F84D
:108670005A602046BDE8F0810420BDE8F0810E205C
:10868000BDE8F081F18002002DE9F04188461746EF
:108690000121042205461E46FFF782FF044680B1F1
:1086A0000421083016F064FF80F80080C670A0F83E
:1086B000017022462846044B0421BDE8F041FFF733
:1086C00093B9BDE8F08100BFF1800200F0B58B895D
:1086D00085B004460F4653B94B4B019300934B4A68
:1086E0004B4B4C494C48F8F707FA05B0F0BD08462B
:1086F000012150F8085F16F0A6FF484A28780023A9
:10870000114612F8336086424FEAC30E1CD1724400
:108710009678012E36D1BFF35B8F04F1940252E8B4
:10872000003F43F0010042E8000CBCF1000FF6D11D
:10873000BFF35B8FDA0740D5334B01930093384A80
:10874000334B34493748CEE701331A2BD9D12E4B5E
:10875000029301900093324A2D4B2E493248F8F78C
:10876000CBF92D782846FFF777FA0028BDD0002DE9
:10877000BBD0062300222946206805B0BDE8F040A2
:10878000FFF782BF052E18D1BFF35B8F04F194026F
:1087900052E8003F43F0020042E8000CBCF1000F39
:1087A000F6D1BFF35B8F9B0707D5174B019300935F
:1087B0001B4A174B17491D4895E701EB0E03BA8971
:1087C000597891420FD9104B039329780291019265
:1087D00000930E4A0E4B0F491548F8F78DF9012EFC
:1087E00083D104230AE05B68394620469847012E6E
:1087F00003467FF47AAF00283FF477AF2978002949
:108800003FF473AF0022B7E7235604008B1E040029
:10881000243F040050210400B040040090410400B3
:10882000DD200400DB400400654104000741040032
:10883000364104002DE9F0438B89062B8DB080462C
:108840000C4601D0142B68D12046042150F8083F73
:10885000D8F800901D885E8802AF16F0F4FE21461D
:108860003846FFF7F7FB002859D0002D5AD00024D6
:10887000002E56D0B54255D84FF42053694638469D
:108880008DF80040ADF80230FCF7C0F938BBD8F8DD
:1088900000901422002107A8FBF76FFD012211218F
:1088A0004846FFF77DFE0990002838D001210830A6
:1088B0000897CDF81C8016F05BFE00270A9007ABE6
:1088C00007701C4A0B973146284600F043FF0A9B6D
:1088D0001C78D4B9099816F019FE0A230CE042F668
:1088E000010301A938468DF80440ADF80630FCF7C5
:1088F0008DF90028CBD010232A4610214846FFF7D7
:10890000C3FE20460DB0BDE8F0830B4B099A04214D
:108910004846FFF769F80024F3E70424F1E70E2442
:10892000EFE7354601232A4610214846FFF7ACFE03
:10893000F1E700BF1D7D0200F18002002DE9F04348
:10894000046887B0142206460D4601A80021FBF7F3
:1089500014FD00220F212046FFF722FE039068B38A
:10896000DFF86090019605F108074FF00108AB8928
:10897000012B06D8124B039A04212046FFF734F846
:1089800018E0384616F06FFE01AB4A46014606462F
:108990008DF8148000F0DEFE9DF81430002BE6D038
:1089A000039816F0B3FD9DF8143032460E21204690
:1089B000FFF76AFE002007B0BDE8F0830E20FAE75B
:1089C000F1800200BD8402002DE9F041074686B027
:1089D0000C4690461D46A3B306681422002101A848
:1089E000FBF7CBFC002241463046FFF7D9FD039050
:1089F00048B3BDF83030ADF8083001238DF814309D
:108A0000124A019701AB2946284600F0A3FE9DF8C3
:108A100014707FB1039816F079FD3CB19DF81430C5
:108A20002A4621463046FFF72FFE0024204606B096
:108A3000BDE8F081064B039A04213046FEF7D4FFCF
:108A4000F3E70124F2E70E24F0E700BFBD84020043
:108A5000F180020007B58A681388528800920C21C1
:108A60000D22FFF7B1FF03B05DF804FB07B58B687B
:108A700000221B8800920A210B22FFF7A5FF03B0FA
:108A80005DF804FB2DE9F0438B89062B8DB007467A
:108A90000E4601D0142B52D13046042150F8083F25
:108AA000D7F800901D885C880DF1040816F0CBFD06
:108AB00031464046FFF7CEFA98B1002D42D0002C47
:108AC0003FD0A5423ED818223E6800210DEB02009F
:108AD000FBF753FC012209213046FFF761FD0890A6
:108AE00008B90E2427E0012108300697CDF81C8034
:108AF00016F03EFD00270A23099021460770144A0C
:108B00008DF82C30284606AB00F024FE9DF82C4052
:108B10005CB1089816F0FAFC9DF82C302A46082122
:108B20003046FFF7B1FD002405E00A4B089A042106
:108B30003046FEF759FF20460DB0BDE8F08304240F
:108B4000F9E7254601232A4608214846E9E700BF00
:108B5000997F0200F18002002DE9F04FD0F80090DB
:108B60008046084689B050F8083F8B4606211D888C
:108B70005F889E8816F067FD8246002D57D000243E
:108B8000002F53D0BD4252D84FF4205302A901A860
:108B9000ADF806608DF804408DF80840ADF80A3055
:108BA000FCF734F8064648B10A232A46062148460F
:108BB000FFF76AFD204609B0BDE8F08FD8F80090B5
:108BC000BBF80C401422314603A8FBF7D6FB324613
:108BD00007214846FFF7E4FC049028B30A238DF8E8
:108BE0001D30144A8DF81C4003AB39462846CDF899
:108BF0000C800596CDF818A000F0ACFD9DF81D4046
:108C00005CB1049816F082FC9DF81D302A460621BE
:108C10004846FFF739FD0024CCE7074B049A0421AE
:108C20004846FEF7E1FEC5E70E24C3E73D460123B3
:108C3000ECE700BF857E0200F1800200F0B58B6892
:108C400006681D8885B0074675B35C885CB3A5428D
:108C50002AD8102200216846FBF78FFB002205214D
:108C60003046FFF79DFC019010B90E2005B0F0BD15
:108C700021466B460D4A0097284600F06BFD029C8A
:108C80004CB9019816F042FC0A232A4604213046CA
:108C9000FFF7FAFC05E0064B019A04213046FEF787
:108CA000A3FE0020E2E725460123EEE7EB7D02006C
:108CB000F18002002DE9F043056887B001F108005A
:108CC0000C4616F0D0FC0646002840D018220021A1
:108CD0006846D4F80890A489FBF74FFB00221321C3
:108CE0002846FFF75DFC019078B301238DF814301E
:108CF0004FF0120800276B46164A8DF81040314697
:108D0000304600958DF80880ADF81270CDF80C90C3
:108D100000F020FD9DF8144074B1019816F0F6FBA8
:108D20009DF81430324641462846FFF7ADFC3C46DC
:108D3000204607B0BDE8F083019A002AF8D0064B20
:108D400004212846FEF750FEF2E70E24F0E7012446
:108D5000EEE700BFCD810200F180020008B50348B4
:108D6000FEF784FDBDE8084000F052BC48E8002052
:108D700008B5FFF7EBF908B1B0F85A0008BD10B517
:108D80000C46D8B1D1B1FFF7E1F90346C8B1D0F82C
:108D9000982072B100202060D3F8A0202AB9C3F82F
:108DA000A040C3F89C40104610BD1460C3F8A0401A
:108DB00010BD2146BDE81040FFF734BA6FF0150032
:108DC00010BD6FF0380010BD70470860002070477C
:108DD00030B400234D681A46AA4208D10A899A4243
:108DE0000ED0CA680B815AB1194630BC10470C68C6
:108DF00004EB021401322489A34238BF2346EBE777
:108E000030BC704710B4019B9C690A4659692346DF
:108E100010BC18472DE9F3478A4691461B219A1C3E
:108E200080461E46FFF7BCFB044668B9134B01930E
:108E30000093134A134B14491448F7F75DFE6FF083
:108E40000B0002B0BDE8F08700F1080702213846A8
:108E500016F08EFB0546314625F802AB384616F073
:108E600087FB324649462846FBF75BFA404600231B
:108E700022460421FEF7B8FD0020E2E72356040055
:108E8000DD2004009C420400502104008F440400B3
:108E90002DE9F0434B6987B081461D8A186800238D
:108EA0000C468DF8143005A942F60303ADF81630D0
:108EB000FBF7ACFE30B96369DB681B799B0644D5D0
:108EC0000135ADB2228C1D2102324846FFF768FB06
:108ED000064670B91E4B019300931E4A1E4B1F4954
:108EE0001F48F7F709FE6FF00B04204607B0BDE8F6
:108EF000F08300F108070221384616F039FB80465E
:108F0000218C28F8025B384616F032FB228CE1698E
:108F10004046FBF706FA134B636000232661A3600B
:108F200021464846FFF72BFF04460028DDD0084BBA
:108F300002938DE818000C4A0C4B08490C48F7F7CF
:108F4000DBFD304616F0E2FACFE76FF01504CCE710
:108F500023560400DD200400B24204005021040026
:108F60002E440400058E02008B1E0400A84204005B
:108F7000654404007FB51E4A136890E822004BB197
:108F80005368002B32D013E91800142606FB043373
:108F900033F8043CADB2142404FB051509B1A94211
:108FA00008D1002300F1080183605068D0B95160F6
:108FB000116015E00C8A2CB901339CB20C8214317B
:108FC0002346EBE7A342FAD30A4B02938DE818003D
:108FD000094A0A4B0A490B48F7F78EFD6FF0150056
:108FE00004B070BD016051601846F9E71B68FFDEF0
:108FF000683D0020235604008B1E040060420400DC
:1090000050210400C8440400F8B505460F4600246A
:109010006B68A34201D80020F8BD286826013044BF
:10902000072239460130FBF767F910B92868304448
:10903000F8BD0134ECE7000038B582680B4B9A426A
:1090400005460C460FD10968C068FFF7DDFF50B137
:10905000D4F8C430298A04EB83020133918001895A
:10906000D180C4F8C430012038BD00BF159402007F
:1090700010B5174BBFF35B8F03F1500252E8004F5E
:1090800044F0010E42E800ECBCF1000FF6D1BFF352
:109090005B8FE20702D49884D9840AE09A8C8242DA
:1090A00003D8DA8C8A4201D310BD9884DA8C8A42C4
:1090B000F2D3BFF35B8F1B6DBFF35B8F9B0706D4AF
:1090C0000A2204490448BDE8104018F01FBC10BD36
:1090D000703D0020983D0020C86E00208268194B2A
:1090E0009A422DE9F04107460C4626D1C568002674
:1090F0006B689E4221D229684FEA0618414401312B
:109100002046FEF79BF9D8B92B6843441B89BBB1B5
:1091100029463846FFF75CFE2C680B4B9C420CD16D
:109120004444A089E18900B939B1FFF7A1FF0422C5
:10913000002104F10C00FBF720F90120BDE8F081CB
:109140000136D5E715940200C83D002030B5214B0B
:109150000C468168994285B0024602D0012005B0D4
:1091600030BDA568C0687DB9611CFFF74DFF04469E
:109170000028F3D0072202A901300295CDF80B5048
:10918000FBF7CFF82581E9E7E3680BB32988138A59
:1091900099420AD0E2D2E068A36801380433E06063
:1091A0000030A36018BF0120D9E70023694600936F
:1091B000CDF80330FFF728FF05460028EBD0072243
:1091C000611C0130FBF7ADF8A3685B882B81E2E7F7
:1091D0001846C4E7159402000D49BFF35B8F01F1F7
:1091E000500353E8002F22F0020243E80020002839
:1091F000F7D1BFF35B8FBFF35B8F0B6DBFF35B8F5B
:10920000DB0704D500222831024818F07FBB7047E5
:10921000703D0020C86E002013B5BDF81010104638
:1092200002294FF00002ADF806200DD8C1F102046A
:109230009C42A8BF1C460DF1060322461944FBF7C9
:1092400070F8204602B010BD6FF00604F9E72DE972
:10925000F04198461646BDF81850FDF703FA074648
:10926000FBF735F883B2AB420DD35C1B4445234674
:10927000A8BF43469CB2224679193046FBF751F805
:109280002046BDE8F0816FF00604F9E72DE9F347C9
:10929000CE68BDF82870044690469946002573684C
:1092A0009D420FD231684FEA051A514401312046E0
:1092B000FEF7C4F808B10135F1E73268524413896A
:1092C000ADF8063073689D4204BF0023ADF8063048
:1092D000022F0FD8C7F102044C45A8BF4C460DF130
:1092E00006032246D9194046FBF71BF8204602B078
:1092F000BDE8F0876FF00604F8E737B5C968BDF838
:10930000185010460A7892B94A88ADF80620022D06
:1093100019D8C5F102049C42A8BF1C460DF10603F2
:1093200022465919FAF7FDFF204603B030BD102D33
:1093300001F1010107D8C5F110049C42A8BF1C46E9
:1093400022462944EEE76FF00604EDE72DE9F04FE1
:1093500082682F4B9A4285B081460E464BD1C46835
:109360002389002B47D0002501F1480B63689D42FB
:109370000CD30222002104F10800FAF7FEFFE36893
:10938000002B38D021894846984734E023684FEABB
:10939000051803EB080ABAF8082062B1317A13F80D
:1093A000082091420AF1010707D0394613F8080056
:1093B000FEF75CF8D0B90135D8E73946304601935D
:1093C000FEF73CF8019B0028EFD15946307AFDF7B3
:1093D0000DFA8046B0B902900722CDF80B0002A921
:1093E0003846FAF79EFFAAF80880E4E7837A032B51
:1093F00005D1FEF782F8012005B0BDE8F08FFEF739
:109400007CF8D8E7072259463846FAF78AFFD2E7B0
:10941000159402002DE9F04F87B08846BDF8401042
:10942000D8F80C500229814663D8194402291F46F6
:1094300062DC53781678002446EA03266B689C4267
:1094400007D2296801EB041101314846FDF7F6FF08
:10945000C0B96B689C4231D166B30024A3466B68E7
:109460009C4219D22868CDF808B04FEA041A50443B
:10947000072202A90130CDF80BB0FAF73DFF18B171
:109480000134ECE70134D9E728685044072209F198
:1094900048010130FAF745FF6B689C420ED1184B2A
:1094A00001930093174A184B18491948F7F724FB02
:1094B0006FF01007384607B0BDE8F08F2B68240125
:1094C00023441E812B89B34203D029464046FFF72F
:1094D0007FFC002EEED1286804962044072204A9C0
:1094E0000130CDF81360FAF71CFF2B681C4426816D
:1094F000E0E76FF00607DDE76FF00C07DAE700BF83
:1095000023560400DD20040085420400502104009D
:10951000104304002DE9F34742F6021304460E46B9
:109520000025694600688DF80050ADF80230FBF761
:109530006DFB78B142F6030320688DF8045001A951
:10954000ADF80630FBF762FB401B18BF012002B0EC
:10955000BDE8F087A2682C4B9A4201D00120F6E7C3
:10956000E768DFF8A890054680467B689D42F5D203
:109570003A68B1882B01D4182089884216D1611C21
:10958000D05CFDF773FF824600BB3B684B450DD1B5
:10959000736901A8D9691A8CFAF7C3FEA189BDF8CD
:1095A000063029B9E2893AB90198E0600135DCE773
:1095B000BDF804208A4207D3E2899A42F6D2E289B2
:1095C0009A42F3D2E381F1E7A281F8E7837A032B91
:1095D00002D0FDF792FFE9E7B388022B0BD1716946
:1095E000FFF756FC04465046FDF787FF002C09DBC9
:1095F000C6F80080DAE7B168338AF268098AFFF7B3
:1096000009FCEFE70020A2E715940200C83D002006
:1096100007B5002301930E4BBFF35B8F012253E884
:10962000001F002903D143E800200028F7D1BFF331
:109630005B8F09D10748FFF79DFC0748FFF79AFCAD
:109640000649074818F0EEF803B05DF804FB00BFC8
:10965000C43D00202CE9002088E90020A9980200E0
:10966000983D002037B50446FFF7D2FF2368002558
:1096700018688DF800504FF4C0536946ADF80230B9
:10968000FBF7C4FA18B96FF0440003B030BD23688B
:1096900001A918688DF8045041F60103ADF80630B1
:1096A000FBF7B4FA0028EED02046FFF763FC002851
:1096B000EBDB94E80C00142101FB0323108A33F840
:1096C000041CFFF7D5FC2846DFE70000144B1A689E
:1096D00010B5002100F1080412B96FF0010010BDAF
:1096E00094421AD1826891B959681A608C4200D1AB
:1096F0005A6090E80C00142101FB032300248460CD
:1097000033F8041C108AFFF7B3FC204610BD0A6032
:109710005A68944208BF5960EBE711461268DBE7CC
:10972000683D002010B51046BDF80810BDF81020A7
:1097300091420BD8541AA342A8BF23469CB2039B64
:1097400022461944FAF7EDFD204610BD6FF00604DD
:10975000FAE700002DE9F0479946124B1C680646CF
:109760000F469046DCB1083C4FF0140ABCB100250E
:1097700006E020680AFB0500038AB34207D20135E0
:109780006368AB42F5D8A4684CB1083CEEE7BB4235
:10979000F5D84946C0470028F1D1BDE8F087BDE8BB
:1097A000F08700BF683D002030B50028BBB00D46F3
:1097B00014460DDC294B01930093294A294B2A4971
:1097C0002A48F7F799F96FF0150420463BB030BDF1
:1097D000012814D100238DF818300DF119012868E3
:1097E000FBF75AF998B11D4B02932A680192009336
:1097F0001B4A1C4B1C491E48F7F77EF9E3E70A2277
:1098000000216868FAF7E0FC8DF81800E5E714B36A
:109810003AAAC0230AAD204642F8D43D2946F9F7BA
:1098200022FC044650B10D4B02938DE818000C4AFF
:109830000C4B0D490F48F7F75FF9C6E7059B0895F4
:109840009B08099306AB0C4A4FF6FF710120FFF706
:1098500081FF0024B9E708940994F3E72356040034
:109860008B1E0400D242040050210400A1430400D6
:10987000D2430400FE4304004D9102007FB56FF017
:1098800038030590406900930223ADF80430054A7F
:10989000008A6B464FF6FF71FFF75CFF009807B038
:1098A0005DF804FB1595020013B530F8042CADF8F3
:1098B0000420034630F8022CADF80620283803F1C6
:1098C0002804BFF35B8F54E8002F22F0010244E824
:1098D00000210029F7D1BFF35B8F002223F8042C6D
:1098E00023F8022C0E4A43F8142C0E4A43F8102C8D
:1098F00001AA43F80C2C042223F8082CFFF7BEFF22
:1099000058B9BFF35B8F54E8003F43F0020344E8CB
:109910000032002AF7D1BFF35B8F02B010BD00BF49
:1099200060E90020D991020007B5018A02AB01313C
:1099300089B2002243F8042D0846034AFFF70AFFC4
:10994000019803B05DF804FBCB8D02002DE9F043D4
:10995000D1F80C908BB01C46084699F80430BDF83D
:1099600048608DF8143088461746FFF7DDFF05463E
:1099700040BB1C4BB8F810200293019200931A4A86
:109980001A4B1B491B48F7F7B7F88DF815508DF89F
:109990001650D9F800100B78C3B94B88ADF81730C2
:1099A0000523B3421AD39B1BA342A8BF23469CB2F4
:1099B00005AB224699193846FAF7B3FC20460BB09E
:1099C000BDE8F083038AADF81530E2E710220131DB
:1099D0000DF11700FAF7A5FC1323E2E76FF0060478
:1099E000ECE700BF23560400DD2004006E420400B3
:1099F00050210400DA420400F0B50C4689B01D463F
:109A0000002307468DF8043001A942F603032068BD
:109A1000ADF806301646FBF7F9F820B9E3681B7974
:109A2000DB061CD51434208A3FB101462B46324652
:109A30003846FFF7EFF909B0F0BD6FF03803029335
:109A40000123ADF80C30074A049402AB4FF6FF71C6
:109A50000596ADF81850FFF77DFE0298EBE76FF022
:109A60001500E8E715950200FFF782B90346034A9F
:109A70004FF6FF710120FFF76DBE00BFDD900200C1
:109A8000F0B5ADF5037D00230F914093224A0FAB53
:109A900005460C4601204FF6FF71FFF75BFE40992B
:109AA00040F2011341AA890010A8F9F7F3FA06461B
:109AB00070B91A4B01930093194A1A4B1A491B4863
:109AC000F7F71AF86FF0150420460DF5037DF0BD89
:109AD000FDB105AF2B46164A04213846F7F71AF8B0
:109AE00000972346134A242106A8FAF7A3FF31461C
:109AF00006A8F9F7E5F904460028E5D0074B0293DC
:109B00008DE81800064A074B07490B48F6F7F4FFA3
:109B1000DAE70095E5E700BF39900200235604001C
:109B20008B1E0400C0420400502104003A4304008C
:109B30003F2E04006F4304007343040038B504460D
:109B400003464FF6FF710120084A04F14805FFF76C
:109B500001FE2946207AFCF749FE28B12946207AE1
:109B6000BDE83840FFF78CBF38BD00BF4D93020001
:109B70001FB50B4A136833B90A4850600A6018468B
:109B800005B05DF804FB084B029301900093074A6F
:109B9000074B08490848F6F7AFFF6FF00B00EFE7F7
:109BA000D83D0020A0E90020235604008B1E0400AD
:109BB000F9440400502104000745040000212DE968
:109BC000F04107680846FDF70CFF00F1080604465F
:109BD0000121304615F0CCFC0525057001213046E9
:109BE00015F0C6FC05702246384600230621BDE864
:109BF000F041FDF7F9BE000008B50248FDF736FE5A
:109C0000002008BD94E900202DE9F04387B02A4CDC
:109C1000BDF8387002940D4616469846274A284BE0
:109C2000284981468DE890002748F6F765FF17F030
:109C300097FA234B254A2349029501900594CDF8C4
:109C40001080039600942248F6F756FF0BF056FD5D
:109C5000284643464A46314600F03EFF054628B1B5
:109C60000BF034FD284607B0BDE8F083194E736849
:109C700060F317037360384603F0DEFE0F9910227D
:109C800006F14C00FAF74DFB17F06AFA0C4B0F4A3D
:109C90000C490190029400940F48F6F72DFF08F04C
:109CA000CFFF06F1FC0008F0E5FF284608F0CBFFE7
:109CB00001F078FDD6E700BF2356040049210400D7
:109CC0003C45040050210400824504007921040031
:109CD000AA450400B4E90020EB45040007B5084894
:109CE00000F1440390F82C20418D0193038D0093E3
:109CF000036C2D30FFF788FF03B05DF804FB00BF55
:109D00006C3E002038B5184CE379DB062BD5636830
:109D1000002565F3170363601B0E03F0E60365F38C
:109D20004103E37104F12400256084F8205017F00A
:109D300089FD07F0EDF902F087FE02F09DFE0BF0C1
:109D400019FD08F0ECFF2946102204F14C00FAF747
:109D500014FB00F089FA00F01DFD03F0C1FEBDE820
:109D600038400BF069B838BDB4E9002070B5114C2B
:109D7000114E208533682364002506F59671102264
:109D800004F12D00658584F82C50FAF7CAFA06F123
:109D90004C01102204F14400FAF7C3FA02F09EFECF
:109DA000FFF7B0FF4FF47A722146044817F0AEFD7A
:109DB000284670BD6C3E0020B4E90020C86E00202B
:109DC000024BD879C0F30010704700BFB4E90020FF
:109DD00070B51C4BDD79C5F300158AB004466DBB28
:109DE0000AF02AFF11220646294605A8FAF7C5FA05
:109DF00002238DF81430102231680DF11500FAF7A6
:109E000090FA05A8FAF782FF0F4B02930190009396
:109E10000E4A0F4B0F491048F6F76EFEE30703D5C5
:109E200000F010FA00F08CFC14F0020004D00BF0EB
:109E30004DFC00F04FF900200AB070BD6FF04400F7
:109E4000FAE700BFB4E900202356040049210400CA
:109E50004E450400502104006245040038B5054613
:109E6000084603F0D7FD0446A0B928460AF096FF3D
:109E7000044678B901F0B8FC02F00CFE00F04CFC8E
:109E800000F0C6F90BF0C8FE08F0BCFF0249034819
:109E900017F0C8FC204638BDDD9C02006C3E002057
:109EA000024B0C2202FB0030704700BFC03E002076
:109EB000704700002DE9F04F5A4FDFF89481DFF82A
:109EC000949189B00021384617F082F901460028A4
:109ED00076D1404615F0A6FA044630B90146484608
:109EE00015F0A0FA0446002C6CD06269137A590769
:109EF00040F187806FF3820313724B4B61691B7CC7
:109F0000082B4B7A4FEAD30000F101004FF00A050D
:109F10008CBF1422642245439542A4BF00EB80020B
:109F2000520092B203F00705013502F10A0315FB56
:109F300003F50B7A91E8400403F003033B49CB5C43
:109F40008DF81830A3898DF81930A368079305217F
:109F50000023D20092FBF1F292B2ADF81220ADF8DC
:109F600014200093012206A904A88DF811308DF861
:109F70001030FCF73DFC0A3583462046ADB215F0A3
:109F8000C5FA002E44D033681BB1524659462846C4
:109F90009847BBF1000F2AD1284617F0ADF8FCF71F
:109FA0002BFD736804460BB1514698474CB3204BC8
:109FB00002938DE818001F4A1F4B204920481EE0DD
:109FC000002490E70BF080FC0146384617F000F9BA
:109FD00050B92146404615F025FA044620B90146FD
:109FE000484615F01FFA04460BF0F4FD7BE7104BD2
:109FF00002938DE808080F4A0F4B10491148F6F7F5
:10A000007BFD1149114817F07FFA17F045F859E721
:10A01000BBF1000FEBD1284617F06EF8FCF7ECFC13
:10A020000446C3E770F10020F0E60020B6460400C5
:10A03000235604008B1E040029460400502104000E
:10A040007A4604004F460400AE460400B19E02006A
:10A0500088F1002098F10020032A2DE9F843884672
:10A060001C4602D1A388012B01D8BDE8F883204605
:10A0700015F0F1FA06460028F7D0A38885B2AB4266
:10A08000F3D3204615F014FB07462046B4F804909D
:10A0900015F0E1FA013D2A28A58007D02B2815D01C
:10A0A000292808D120460AF0D5FD04E000224146C7
:10A0B000204601F033FAA368A4F8049013FA87F756
:10A0C00027603146204615F0BEFACBE7204600F067
:10A0D00047FAF0E7014816F00BBD00BF88F10020F9
:10A0E000F7B50D46089917461E4615F095F9044632
:10A0F000D8B9194B019300931849194B194A1A48BA
:10A10000F6F7FAFC2146194817F062F8E8B921463B
:10A11000174815F087F9044628B9144817F02FF8A6
:10A12000204603B0F0BD15F007F9204615F0E0F821
:10A13000A847054660610C220021FAF71EF92B7A28
:10A140006E7267F301032B72EAE7204615F0D0F830
:10A15000A8476061FFDE00BF2356040050210400C1
:10A1600032460400DD200400BA46040070F10020ED
:10A1700098F1002007B50B460092044902460448B6
:10A18000FFF7AEFF03B05DF804FB00BFA19E020025
:10A19000E4F1002010B5446984E806004269137AAE
:10A1A00043F00403137215F0DFF90146034815F07C
:10A1B000A0F90348BDE8104016F0E1BF88F1002087
:10A1C00070F1002038B5456985E80C00426901F559
:10A1D0004051137A89B243F00403B1F5805F1372E2
:10A1E0000AD815F0C1F90146064815F082F906486B
:10A1F000BDE8384016F0C3BF15F0B6F90146034874
:10A20000F3E700BF98F1002070F1002088F10020F2
:10A210007FB500236FF00802059304930392029325
:10A22000019300934FF44B72034B0449044817F019
:10A230000FFA07B05DF804FBB59E0200808600208F
:10A24000784A002007B5064B0649186800909B889D
:10A25000ADF804306846FCF7F1FB03B05DF804FB91
:10A260003A1E040059A00200FCF782BC10B50C464F
:10A2700016F0CAFF206010BD08B506F083F920B9BA
:10A280000248BDE8084017F0DDBA08BDFC4A0020CE
:10A290000949BFF35B8F51E8003F43F0010241E8F9
:10A2A00000200028F7D1BFF35B8FDB0703D4083908
:10A2B000024816F02DBC7047044B0020C86E0020E9
:10A2C000F8B50C46054600F0E1FB012107462046A3
:10A2D00015F05DF9AB7FC3B105F18906394620461B
:10A2E00015F055F9082206F12101204615F046F92E
:10A2F000074B2046196815F072F905F12801204630
:10A300000822BDE8F84015F039B905F13006E5E757
:10A31000B4E900202DE9F0478CB00AF093FC10B1AD
:10A3200041F288325EE0FFF74BFD054600286FD012
:10A330007B4B1A7882F001021A70D2B9794BB3F8CC
:10A3400018014FF6FF7188421CBF93F8011183F882
:10A350000011B3F8FC1118BF83F801214FF6FF720A
:10A3600091421FBF93F8E52183F8E421002283F88E
:10A37000E52116F049FF6C4CDFF8DC81DFF8DC9159
:10A38000064604F5E4754FF6FF77AC4220D0A38B68
:10A39000BB423BD02268B21A424509D8217942F229
:10A3A000107301FB0333A3F59C53083B9A422DD352
:10A3B000002208210220FFF7DDFE8246C8B95B4B70
:10A3C000019300935A4A5B4B5B495C48F6F794FB58
:10A3D00006F0D8F8012803D0524BDB799B0705D54E
:10A3E00042F210725649574817F090FA0CB0BDE887
:10A3F000F08700F108012046FFF762FF5046224631
:10A400004946FFF7C7FE504615F080F8E434BCE734
:10A41000102201460DEB0200F9F7AFFF2A460A2190
:10A420000220FFF7A7FE064648B9404B0193009370
:10A430003F4A454B40494148F6F75EFB70E70AF05A
:10A44000FBFB06F1080704462946384615F09FF83D
:10A4500010222168384615F091F8D4F80480B8F13C
:10A46000000F38D01022294608A8F9F786FF404689
:10A47000F9F72DFF04AB0390012202A908A8CDF83B
:10A48000088002F0D2FD30BB218941F0020189B27F
:10A49000384615F093F8042204A9384615F06EF8F2
:10A4A000002211463046FFF775FE304615F02EF8B3
:10A4B0006368002B3FF434AF00220A210320FFF72A
:10A4C00059FE054648B9194B01930093184A1E4B93
:10A4D00019491E48B0E72189DAE76068F9F7F7FE05
:10A4E00005F108060746304615F0E6F887420CD914
:10A4F0000E4B01930093164A134B0F491548F6F77C
:10A50000FBFA284615F002F80AE73A466168304639
:10A5100015F034F8002211462846FFF73BFEF0E71D
:10A52000244B0020B4E90020B0EA002023560400A8
:10A530008B1E04000C4704005021040060470400F7
:10A54000FC4A0020C86E00201F4704009147040009
:10A55000DD200400BF470400BF270900F0480400C5
:10A560002DE9F043838887B005464BB95D4B0193D5
:10A5700000935D4A5D4B5E495E48F6F7BDFA49E0DF
:10A5800015F069F8002845D0012840F09F80AA887E
:10A59000142A0AD8534B029301920093524A564B05
:10A5A00053495648F6F7A8FA34E0554E2C68B6F8E9
:10A5B00018214FF6FF739A4206D01522214606F560
:10A5C0008170F9F799FE48B3B6F8FC214FF6FF7396
:10A5D0009A4205D0152221464A48F9F78DFEE0B18E
:10A5E0002846D5F8009015F036F808210746284689
:10A5F0002C6815F028F8284615F048F80DF11703D7
:10A600000093024680462B682046394600F0E6FD5E
:10A61000044678B907B0BDE8F083E420FC30341874
:10A6200005F0B0FF0128F5D16379FF2BF2D001339B
:10A630006371EFE7C37F022B0AD19DF817303BB956
:10A64000284B01930093304A2B4B29492F4894E71C
:10A6500015224946A01DF9F764FE002000F08AF992
:10A6600058B1A38B4BB11F4B01930093264A224B49
:10A670001F492748F6F740FAD2E7F37913F0020FA3
:10A680004FEA57050AD003F0010205F001018A42A2
:10A6900004D16FF34103F371FFF7EEFD05F0010103
:10A6A000404600F0E9FA9DF81720054607F0010141
:10A6B000204600F083FA90B1204600F0F3F91DB176
:10A6C000002000F0CDFAABE72046FAE7054B0293F5
:10A6D000019000930C4A054B05490E4862E7002D96
:10A6E0009ED0EDE7235604008B1E04004C47040067
:10A6F00050210400F44704003947040015480400C1
:10A70000B4E900209AEB0020DD2004004648040054
:10A7100087480400C44804000149024817F082B881
:10A7200015A30200FC4A0020044BDA7960F34102D1
:10A73000DA7108B1FFF7ACBDFFF79EBDB4E90020A8
:10A7400010B5FFF73DFBE8B1104CB4F818214FF6F7
:10A75000FF739A4208D0002304F1FC0084F8003112
:10A7600084F8013100F09EF9B4F8FC214FF6FF7334
:10A770009A4207D00023064884F8E43184F8E53192
:10A7800000F090F9BDE81040FFF782BDB4E9002069
:10A7900094EB0020034BDB799B0702D4024817F0AF
:10A7A00051B87047B4E90020FC4A00202DE9F0437D
:10A7B000064606F1210787B008469046394608222A
:10A7C0009946F9F799FD10BB04AD3A46414600950C
:10A7D0004B4606F1490002F010FF082229460E9868
:10A7E000F9F78AFDB8B108210E98F9F7F3FD0821B1
:10A7F00006462846F9F7EEFD084B039302908DE8D4
:10A800004800074A074B08490848F6F775F9002041
:10A8100007B0BDE8F0830120FAE700BF235604002B
:10A82000DD2004005E490400502104009A49040020
:10A830002DE9F047464D86B0894629680E9F0F9C4A
:10A840009A46137801F0010181EAD3113B7D61F34F
:10A8500000033B750023A380A36823609046514604
:10A860000646204614F084FE52464146F9F759FD4B
:10A870003B7D2968206803F001034A46C91A02F0AB
:10A88000F3FC00285ED13B7D13F0300830D1216805
:10A890002A6891F8029003F00103D31A03310422CD
:10A8A00005A849EA0329F9F73CFD059BDFF8BCE060
:10A8B0004046494618430EF5166CFEE902238B42CA
:10A8C00008BF824241D0F445F7D1DFF8A4E0214A25
:10A8D000BEF8003002EBC3020133C2E900019BB2B3
:10A8E0004FF49671B3FBF1F201FB1233AEF8003076
:10A8F00022685179937943EA01231BB29AB2002B63
:10A900003A810EDC144B029301920093134A144BCC
:10A9100014491548F6F7F0F86FF0150006B0BDE8D9
:10A92000F0873A7D296802F03003302B02F00102F3
:10A93000A1EB02020CBF012300232146304602F0A6
:10A9400006FDEBE76FF00100E8E76FF04400E5E794
:10A95000B4E90020404B002023560400DD20040011
:10A960006949040050210400554E0400384B002072
:10A97000A05400204FF6FF73984210D00A4BB3F852
:10A980001821824209D0B3F8FC21824209D101206A
:10A99000E42202FB0030FC3070470020F8E7034857
:10A9A00070470020704700BFB4E90020B0EA0020E3
:10A9B0007FB500238DF80C3000F139030E4601936A
:10A9C00000F11103009305460DF10F03012203A9C5
:10A9D000304602F085FB044658B1224B01930093A8
:10A9E000214A224B22492348F6F786F8204604B034
:10A9F00070BD102231462846F9F793FC9DF80F30C0
:10AA00002B7405F12101304602F0C2FB044638B137
:10AA1000144B01930093144A144B15491648E3E76D
:10AA200005F129021549304602F008FC044638B108
:10AA30000C4B019300930C4A0C4B0D491048D3E783
:10AA400005F149020F49304602F0F8FB04460028A0
:10AA5000CCD0044B01930093034A044B04490A48A9
:10AA6000C2E700BF235604008B1E0400F848040010
:10AA700050210400724C0400AE4C0400D84C040079
:10AA8000DD4C04000C4D0400114D040000B1807F2A
:10AA9000034BDB79DB0748BF40F00200704700BF83
:10AAA000B4E9002007B50246FFF7F0FF937F0146A7
:10AAB0006BB102F189002832064B00921B6800F14D
:10AAC0002102493002F099FD03B05DF804FB02F168
:10AAD0003000F0E7B4E900202DE9F843224CE57995
:10AAE00015F0100581460E461746984637D129467F
:10AAF0004FF416621D48F9F740FC1D4B1D8006F00F
:10AB0000010384F81A31394613B304F28510FFF7B4
:10AB10004FFF18B16FF00400BDE8F883022384F8FA
:10AB20001B31E379A4F81891760843F0100300254F
:10AB300066F30003E37184F81C5160230D48C4F8E8
:10AB4000008084F82030FFF7ADFF2846BDE8F88389
:10AB500004F59670FFF72CFF0028E2D0DAE76FF0DB
:10AB60004400BDE8F88300BFB4E90020404B00205A
:10AB7000A0540020B0EA0020F8B500F18901054694
:10AB8000592230300C4CF9F7CCFB04F1A006002719
:10AB9000B44200D1F8BD34F8052CAB8B9A4209D1F0
:10ABA00014F8013C33B11122A1182046F9F7B9FB82
:10ABB00004F8017C2834EBE715EA002037B5837FE1
:10ABC000C57F8B4204460DD065B9144B01930093A9
:10ABD000134A144B14491548F5F78EFF2A461046C0
:10ABE00003B030BD002914BF01230023A37704D094
:10ABF000012D11D10223E377F0E7012D03D0022DBF
:10AC000003D00A46EBE7002AE9D02046FFF7B4FF5D
:10AC10000023E3770122E2E70022E0E72356040065
:10AC2000DD2004001049040050210400C84904003C
:10AC300070B50A4C012604F15005AC4200D170BD3C
:10AC4000238833B1A37833B1082200212046F9F7D5
:10AC500094FB0834F1E7A670FBE700BF78EC002016
:10AC600010B5044605F030FD012804D12046BDE8AA
:10AC700010400AF0ABBC10BDF0B5544BDF7917F0B3
:10AC8000010785B006460D461C4614D01A6882425C
:10AC90000BD04F4B039302928DE848004D4A4E4B28
:10ACA0004E494F48F5F728FF01E0002964D0002500
:10ACB000284605B0F0BD1B68984200F0848003D39D
:10ACC00003F12A02904209D9414A039202938DE886
:10ACD0004400414B434A41494348E3E7013398422A
:10ACE0003CD93B4B019300933A4A3B4B3B493F488D
:10ACF000F5F702FF5022394604F53170F9F73DFBB4
:10AD00006368266067F317036360E37965F3000304
:10AD1000E371002213F0010384F820204ED0266056
:10AD2000FFF786FF324A3349334816F0EFFDB4F897
:10AD300018214FF6FF739A4202D03048FFF7B2FE57
:10AD4000B4F8FC214FF6FF739A4202D02C48FFF76B
:10AD5000A9FE002007F077FF0125A9E70AD159B91C
:10AD60001B4B019300931B4A1B4B1C492548F5F7CD
:10AD7000C3FE9DE700299BD094F820305F2B09D8B3
:10AD8000134B01930093134A134B14491E48F5F7D4
:10AD9000B3FE8CE7002DB8D101F0CAF90028B4D079
:10ADA0000B4B019300930B4A0B4B0C491748F5F7DB
:10ADB000A3FEE37943F00803E37179E7626863F384
:10ADC00017026260AEE73D4672E700BFB4E90020BB
:10ADD00023560400DD200400224904005021040011
:10ADE000374B04008B1E04006B4B0400A24B040085
:10ADF000005C2605D8E90020C86E0020B0EA0020DB
:10AE000094EB0020CF4B0400014C0400334C0400B1
:10AE100010B5124C94F820301833DBB25F2B84F855
:10AE200020300AD8012007F00EFF04F124010C4A5B
:10AE30000C48BDE8104016F069BDE379DB074FF020
:10AE4000010007D5FFF770FC20680021BDE8104025
:10AE5000FFF712BFBDE8104007F0F5BEB4E90020CF
:10AE6000005C2605C86E0020064A536810B5C3F37F
:10AE70001704611C61F31703536007F0F1FE2046CD
:10AE800010BD00BFB4E900202DE9FF47434D59270D
:10AE900057439946EB790E4607F1690829688044C3
:10AEA00003F0010382464246C91AB06802F0DCF999
:10AEB000044668B13A4B02938DE81800394A3A4B80
:10AEC0003A493B48F5F718FE204604B0BDE8F08744
:10AED000EA7929684137574402F0010206F1080A6D
:10AEE00003468A1A3846514602F031FA044640B108
:10AEF0002B4B02938DE818002A4A2B4B2B492D48E7
:10AF0000E0E7FFF7B1FFB368020C9A70B368020A7A
:10AF1000DA70B36829681871EA7902F001022346F1
:10AF20008A1A3846514602F0C7F9044640B11C4B14
:10AF300002938DE818001B4A1B4B1C491E48C1E7B1
:10AF4000EB792968B06803F001034246C91A02F0A0
:10AF50008BF9044640B1124B02938DE81800114A58
:10AF6000114B12491548ADE70C9A49463046FFF798
:10AF700011F9EB79DB07A7D46B68114AC3F3170308
:10AF80009342A1DD0120FFF7CFFB2868012108448F
:10AF9000FFF772FE2046FFF763FE95E7B4E9002055
:10AFA000235604008B1E040038490400502104007D
:10AFB000AF4D0400DB4D0400034E04002B4E040093
:10AFC00000127A0043682DE9F7435F884FF6FF735C
:10AFD0009F4205460C46914612D1084614F06CFB80
:10AFE00007280DD8374B01930093374A374B384920
:10AFF0003848F5F781FD6FF0150003B0BDE8F08328
:10B00000204614F059FB032807D82E4B01930093D8
:10B010002D4A2E4B2E493048EBE76B682046998825
:10B0200014F0F4FA2989204614F0F0FA032120469E
:10B0300014F0E4FA0646FFF717FF030C3370030A17
:10B040007370B0704FF6FF739F426B68234E597A4E
:10B05000204608BF41F0800114F0ECFA2F68EB7A2B
:10B06000BA7F31686FF30003EB7259255543F379CA
:10B070007A19C3F30003CB1A92F8401041EAC311C6
:10B08000C9B2204614F0D6FAF279316805F14108C8
:10B09000B84402F001028A1A4B462146404602F0AB
:10B0A0000BF90028A9D1F3793168206805F169020C
:10B0B00003F001033A44C91A03B0BDE8F04302F0BB
:10B0C000D3B800BF235604008B1E04004B49040074
:10B0D00050210400D54A0400084B0400B4E90020C4
:10B0E0002DE9F84346681F46737AFF2B05468846CC
:10B0F000144602D105F05AFD707208F108090022C9
:10B1000049462846FFF75EFF0646C8B96B685A7A7B
:10B11000012A1BD0998848460AF09AFBB0B16B68A7
:10B12000B3F90430002B11DD54B123681BB13A464A
:10B13000314630469847636813B139460020984736
:10B14000404614F0E3F93046BDE8F8836B68988810
:10B1500002F054FD18B39CBB404614F005FA0146BA
:10B160001B4814F07CF924B1636813B13946002000
:10B170009847BFF35B8F174951E8003F43F0010246
:10B1800041E800200028F7D1BFF35B8F13F00104E2
:10B19000D6D10839104815F0BBFC2646D0E76B68BD
:10B1A000988802F0D9FC0028D5D169684B7A012B28
:10B1B000C6D03B46224689884046FFF703F8BFE7E2
:10B1C0002368002BC8D000213A4608469847C3E7B9
:10B1D000CCE90020C8E90020C86E00202DE9F34723
:10B1E000284CDDF828901746B4F8182198464FF6F9
:10B1F000FF739A4205460E46A24616D00A46CDF87F
:10B20000008001463B4604F59670FFF7CFFA58BB25
:10B2100094F81B314BB1CDF800803B4632462946AD
:10B2200004F28510FFF7C2FA30BBBAF8FC214FF6E2
:10B23000FF739A4214D0CDF800803B46324629462F
:10B240001148FFF7B3FAA8B99AF8FF3143B1CDF826
:10B2500000803B46324629460C48FFF7A7FA78B9EA
:10B26000002002B0BDE8F08704F1FC00002389F85B
:10B270000030F6E70648F9E704F1FC000123F6E7A1
:10B280000348FBE7B4E90020C4EB00201DEC0020DC
:10B2900094EB00202DE9F043B0F80480B8F1110FD1
:10B2A00085B005460F461446994619D88A4C8B4BF3
:10B2B0008B4A8C4902948DE810018B48F5F71CFCF1
:10B2C000A9882868F9F786F8029401900094834BC6
:10B2D000834A84498548F5F70FFC6FF01500E0E0DC
:10B2E000066879BB06EB080212F8073C12F8081C46
:10B2F00012F8060C43EA012112F8053C43EA002348
:10B3000043EA014312F8040C12F8031C41EA00213D
:10B3100012F8020C12F8012C42EA002242EA014221
:10B32000734853403A4650F822108B42D5D0013230
:10B33000042AF8D16F490A6840F82230013202F03D
:10B3400003020A60237D6C4D67F30513B5F81821DD
:10B3500023754FF6FF739A426FD0337895F83C21EE
:10B3600003F07F039A4222D095F81B31002B64D062
:10B37000337895F8952103F07F039A425DD15F49B8
:10B380008DE8100243463246A1F12800FFF750FA3B
:10B39000002852D15A4A237D43F002032375E42347
:10B3A00003FB0050B0F81831A380226014E08DE850
:10B3B00010024346324605F2651105F23D10FFF7D3
:10B3C00037FA0028D0D105F1FC03E42202FB00503B
:10B3D000B0F81821A2802360D9F80020237B4FF613
:10B3E000FF71E180507860F30603237313F07F034D
:10B3F00018BF0B4663735378217DDB0963F3C301E8
:10B400002175D37891781B0243EA014311790B43EC
:10B410002361D179137A032F43EA0123638143D156
:10B4200003F580739BB2FB2B4CD82B4B01930093FD
:10B43000344A2A4B2B4934483FE0B5F8FC214FF6FB
:10B44000FF739A422BD0337895F8202203F07F03C4
:10B450009A4216D095F8FF310BB3337895F87922DC
:10B4600003F07F039A421AD128498DE8100243461F
:10B470003246A1F12800FFF7DBF980B9244A012008
:10B4800089E724498DE8100243463246A1F128009D
:10B49000FFF7CEF90028DDD11D4B012095E76FF0B5
:10B4A000010005B0BDE8F083002BB9D10A4B019330
:10B4B0000093144A094B0B491748F5F71DFB6FF031
:10B4C0004C00EEE7012F04D0208902F045FB002854
:10B4D000F5D10020E5E700BF2356040087490400AA
:10B4E000DD200400502104000B4A0400434A0400FC
:10B4F000284B0020384B0020B4E9002072EB0020DC
:10B50000B0EA00208B1E0400994A040056EC00208B
:10B5100094EB0020FDEB0020564A04002DE9F04199
:10B5200094B016461D22ADF8122018220CAB0C4622
:10B53000054600210DEB02000393ADF810100593B2
:10B54000F8F71BFF8DF82D40FEF73AFC002859D084
:10B5500003AB06AA31462846FFF79CFE002851D1CE
:10B5600003A814F0A5F8022E0446BDF8107004D10B
:10B57000BDF8201028460AF00BF9BDF8220002F0B1
:10B580003DFB88BBBDF8220002F0E6FA003018BF90
:10B5900001209DF82C3006A960F3861303A88DF8CE
:10B5A0002C3000F08BFFBDF922309DF82C20002BB1
:10B5B00002DD12F0C00F25D1059BADF8107013FA13
:10B5C00084F402F030029DF824300394102A03F032
:10B5D0007F030BD1012B15D09DF82C3013F0300FC9
:10B5E00013D004F0EFFE12E00120D2E7012B09DDB9
:10B5F000002AF1D104F06EFF0128EDD005F064F8C7
:10B600000128E9D014B0BDE8F08104F077FF0146CD
:10B6100000220120FEF7AEFD044648B94F4B0193CE
:10B6200000934F4A4F4B50495048F5F765FAE9E708
:10B630009DF82C3003F03003102B0DD0039A537873
:10B6400023F07F035370039A9DF824305178C3F39D
:10B650000603013B0B43537004F10807BDF81020AB
:10B660000399384613F08AFF069E9DF82C30B27F6E
:10B670005925554305F141005A0730440BD5A168BF
:10B680000A78731922F07F0293F840300A70A2689A
:10B6900011780B431370DFF8E0809DF82C20D8F868
:10B6A000001002F001028A1A0023394601F004FE5C
:10B6B00060B12A4B01930093294A2A4B2A492C480E
:10B6C000F5F71AFA204613F021FF9BE79DF82C307E
:10B6D000D8F80010A06805F1690203F001033244B4
:10B6E000C91A01F0C1FD38B11C4B019300931C4AEB
:10B6F0001C4B1D491F48E3E704F0E6FF012811D069
:10B700009DF82C3003F03003102B0BD09DF82C301B
:10B71000C3F30113012B18D010D3022BD2D104F0A4
:10B72000D3FF0DE0BDF8221038460AF091F800284A
:10B73000ECD0BDF92230002BC4DCE7E704F0CAFEF0
:10B74000431E584258410028BCD000231A46BDF879
:10B7500022102046FEF736FDB4E700BF2356040052
:10B760008B1E040075490400502104003F4D040065
:10B77000644D0400894D0400B4E9002038B5084D3B
:10B78000284613F085FE044600B938BD04F10800D0
:10B7900001220021FFF7C2FE204613F0B7FEEFE7BB
:10B7A000CCE9002010B504F0EDFE012816D1FEF71B
:10B7B000C7FF04F089FF022803D009F0B7FFFEF7A6
:10B7C00089FCFEF73FFD074BB3F8184102F0ACF9D6
:10B7D00001462046BDE8104009F026BBFEF7DAFF1F
:10B7E000E7E700BFB4E9002010B5064C064904F1B4
:10B7F000240016F017F80023044AE3602261636115
:10B8000010BD00BFB4E9002011AE02007DB70200F8
:10B81000136A1BB11B680BB1526A184770470000CE
:10B82000017D01F03003102BF0B532D01C4C1D4DC2
:10B830002268002393420CDB092A2EDC531C236070
:10B84000184B583203EBC20203899380036993605B
:10B850001FE005EBC306B6F8C4720689B7421AD1D9
:10B8600011F0010F03F1580303D005EBC3029279E5
:10B870009AB105EBC304C1F30001A679CAB296429E
:10B88000026902D1A068824207D905EBC3039A601E
:10B8900099710020F0BD0133CCE70120F0BD00BF5D
:10B8A000A4540020B4E9002038B50546807CFF2868
:10B8B00001D105F07BF99623322414FB0034A869EA
:10B8C000F3F71CFD2B7C03F01F03181A642300FB05
:10B8D00003331819B0F5C87FB8BF4FF4C87038BD2E
:10B8E0002DE9F04F9DB09246269F06910BAA0026A7
:10B8F00008920A92BA88ADF824609946B34214BF00
:10B9000009230523442193420446ADF826100BDD9C
:10B91000554B01930093554A554B56495648F5F7F8
:10B92000EBF86FF015033BE0408980F40043B3F57A
:10B93000804F02D205F0D8F90646B9F1000FBB8856
:10B9400014BF082204229B1A1AF0400FBB802BD18F
:10B95000237D4A4803F0010250F84C3C01969B1AA3
:10B960000593069B04936389039308AD238902938F
:10B9700000953B464A46012101F075FD38B13A4B2E
:10B9800001930093394A3A4B3A493D48C7E74FF68D
:10B99000FE720690E2802946204602F047F9069B97
:10B9A00018461DB0BDE8F08F364D0AF03F034FF04A
:10B9B00000080793A5F1720B236835F8162C9B8BB2
:10B9C0009A4236D1237D9B0703D515F8123C002BF4
:10B9D0003ED1A5F111000378079A934229D10DF1C8
:10B9E000700A0A9B4AF8503D237D03F00102DBF800
:10B9F000003001969B1A0593069B04936389039379
:10BA0000238902930021CDF800A03B464A4601302D
:10BA1000ADF8241001F027FDE0B1134B029335F887
:10BA2000142C01920093184A114B12491748F5F74C
:10BA300063F808F10108B8F1040F05F12805BBD13E
:10BA4000094B01930093104A094B0A49104866E7D5
:10BA50002846C0E7282202FB08B80690B8F85E2006
:10BA6000E280514698E700BF235604008B1E040075
:10BA7000C54E040050210400C453040000EA002015
:10BA8000E853040026EA0020DD20040016540400D8
:10BA90004B5404002DE9F74304460F469046817A43
:10BAA000002201209946FEF765FB064608B300F127
:10BAB00008050921284613F0CEFC63685A884FF622
:10BAC000FE739A421BBFE17A8908002141F04001D0
:10BAD000284613F05CFDBA883968284613F04EFDFD
:10BAE0004B4642463146204603B0BDE8F043FFF7DF
:10BAF000F7BA074B01930093064A074B07490848DA
:10BB0000F4F7FAFF6FF0360003B0BDE8F08300BF32
:10BB1000235604008B1E04008A4E040050210400AA
:10BB2000F6550400F8B50446283015F08BFEE27E89
:10BB300000250020002125626562C4E9040125601A
:10BB400025830AB3261D2F46A37E03F01F039D42C3
:10BB500012DD00250D4AE576D379190714D565F372
:10BB6000C303D37129461068FFF786F860B12846F1
:10BB7000BDE8F840FFF774B8306810B113F0C6FCA8
:10BB8000376001350436DFE7F8BD00BFB4E90020B7
:10BB90002DE9F04F8DB0064609938B8808920F4629
:10BBA00073B9864B01930093854A864B8649874833
:10BBB000F4F7A2FF6FF0150420460DB0BDE8F08F3A
:10BBC000242B0CD97D4A02928DE80C007E497D4BD6
:10BBD0007B4A7F48F4F790FF6FF02304ECE77D4940
:10BBE0000025502000FB051898F81B404CB9D6F8EA
:10BBF00004C0BCF802004FF6FE71884210D18021CB
:10BC000012E00135142DEDD16C4B019300936C4A79
:10BC10006C4B6D497048F4F76FFF6FF00F04CBE782
:10BC2000F17A890841F0C0016A4A07914FF0500E3D
:10BC30000EFB05FE02EB0E04BCF8041067482183DE
:10BC4000013B0C2193FBF1F1A37E90F807B061F367
:10BC500004030131E17601680BF0010BA1EB0B014C
:10BC60000A0A05920A0641680492C1F3170BDDE93E
:10BC7000040140EA0B00C4E90401564A316842F865
:10BC80000E10897F61F34513A376089B2362099BFD
:10BC900063629CF80930FF2B2ED104F087FF2077D8
:10BCA0004C49049150226A438B184FF0000B1B8AB9
:10BCB0000A92C3F30C0398099B005BB208900993A6
:10BCC000BC885FFA8BFA002C3FF476AF0022B17A81
:10BCD0000120FEF74FFA814680B9384B019300935B
:10BCE000374A384B38493E48F4F706FF4046FFF7DD
:10BCF00019FF6FF036045FE72377D1E7436900F15E
:10BD0000080404229A722046092113F0A4FB079923
:10BD1000204613F03CFCF17A089BC1F3400143EA52
:10BD2000C111204613F033FC099B43EADA01C9B282
:10BD3000204613F02CFC0A9A049B13442046997E5B
:10BD4000C1F3040141EA4A11C9B213F020FCBB88D7
:10BD500039680C2B28BF0C231A4620460B9313F08E
:10BD60000DFC0B9B3846194613F06DFC484613F04A
:10BD7000FBFB049A1B49142303FB05A302EB83037B
:10BD8000194A5860BAF1000F08BF0A4643464946AF
:10BD90003046FFF7A5F90BF1010B044600288FD0C0
:10BDA000064B01930093064A064B07490F48F4F7E8
:10BDB000A3FE4046FFF7B6FEFEE600BF2356040092
:10BDC0008B1E0400A94E04005021040007550400F6
:10BDD00033550400B0540020BA550400B4E90020E3
:10BDE0006C550400BC53040098540400935504009F
:10BDF00010B504460846236A1BB15B680BB1616A43
:10BE000098472046BDE81040FFF78CBEF7B51F4F9E
:10BE10000446061D0025A37E03F01F039D4201DD9D
:10BE200003B0F0BD56F8041B00292DD04B691A7AD7
:10BE3000520729D49A7A501E987282B9144B0193F2
:10BE400000931449144B154A1548F4F755FE6FF04A
:10BE50003B01204603B0BDE8F040FFF7C9BFA27E1A
:10BE600000943B46C2F340122068FFF70DF858B12A
:10BE7000074B019300930749074B084A0948F4F719
:10BE80003BFE6FF00401E4E70135C4E79854040079
:10BE90002356040050210400954E04008B1E04001C
:10BEA000A0540400935504002838FFF7AFBF0000EA
:10BEB0002DE9F04F11F07F0487B0064615461F4666
:10BEC00013D00A2C00F0C280077D17F040071AD06B
:10BED000764B02938DE81800754A764B7649774881
:10BEE000F4F70AFE6FF001070DE09388052B0ED8DA
:10BEF0006E4B01930093724A724B6F497248F4F78C
:10BF0000FBFD6FF01507384607B0BDE8F08F10460F
:10BF100013F0B1FBC0F3CF33C0F38C082846059370
:10BF200013F0B4FB694A3389054600211FFA88F0F3
:10BF3000164682468B464FF0500E142C07D15B4BB1
:10BF4000019300935A4A5F4B5B496148D7E7D2E9B6
:10BF50000489002141F6FF7001EA090100EA0800A6
:10BF6000594508BF504528D1118B99420ED00599EB
:10BF700019B30EFB046092F81BC0817E01F01F0113
:10BF800001318C4500F1180017D103805020604327
:10BF900006EB000AC7E9008995B9444B0193009369
:10BFA0004549484B424A4B48F4F7A6FD6FF047011C
:10BFB0005046FFF71DFF0027A5E701345032BCE7CC
:10BFC0009AF81A30B5FA85F2C2F11F0203F01F0386
:10BFD0009A4207D9354B01930093394A394B364978
:10BFE0003D488CE72830304415F02CFCD146002D1C
:10BFF00095FAA5F8B8FA88F808BF4FF0FF3818F19D
:10C00000010708D1502101FB0464E37ECBB1504607
:10C01000FFF7FCFE77E7142707FB048706EB87078B
:10C02000786840B113F072FA00237B6099F81B30F6
:10C03000013B89F81B30012303FA08F825EA0805BB
:10C04000D5E739465046FFF7D3FE5CE79388022BCD
:10C0500007D8164B01930093194A204B16492048E4
:10C060004DE7204B42891B889A4209D00F4B019320
:10C0700000930F4A194B10491B48F4F73DFD9AE70E
:10C08000284613F0E8FA0446284613F0F4FA327B07
:10C090007189C2F3060204F07F04C2F10102224456
:10C0A0000346D2B2308904F02DF984E72356040008
:10C0B000DD200400E84E0400502104005F5304001A
:10C0C0008B1E0400CE4E04007F520400B0540020AA
:10C0D0008C530400A5520400C2520400D84E040040
:10C0E000F2520400A25400201E530400134651B122
:10C0F000127F4FF4C871322000FB021203F12801B5
:10C10000014815F003BC7047C86E00200A7F32203A
:10C110004FF4C87300FB02322831014815F0F6BB1A
:10C12000C86E0020014B1880704700BFA254002049
:10C13000064A00235033D11811F8350C18B9B3F55D
:10C14000C86FF7D170470120704700BFB05400207E
:10C150000C4A30B5002311464FF6FF74042B01D171
:10C16000002030BDB2F85C50A54208D0B2F85E5055
:10C17000854204D1282000FB03105C3030BD013320
:10C180002832EBE7B4E900202DE9F043044687B0FC
:10C1900008460D461746984613F08EFA03280DD828
:10C1A000464B01930093464A464B47494748F4F7AC
:10C1B000A3FC6FF0150007B0BDE8F083AB88D4F89E
:10C1C00004900B2B88BF99F80830B9F8020084BF9F
:10C1D00043F0800389F808304FF6FE73984248D147
:10C1E000E37A3B4E6FF38703E37299F90830002B33
:10C1F00054DBE37A6FF34103E3726368988880F459
:10C200000043B3F5804F52D204F06EFD314BD4F8A9
:10C2100004C0DA791968BCF8029094F80BE002F0D7
:10C2200001028A1A04925B68C3F317030393BCF8F4
:10C230000430029323898DE809004FF6FE70A9EBC4
:10C240000000414241412B46CEF34002304601F00E
:10C25000C5F80028AFD1636893F90830002B3A463F
:10C2600043462946204624DA07B0BDE8F043FFF7ED
:10C270008FBCFFF76DFF00289BD02368DB7F022B6C
:10C28000E37A08D1027932B1827D00F1170662F3B8
:10C290008703E372A9E7861D4279F8E7284613F081
:10C2A0000BFA0728A5D9E37A43F00203A4E700209C
:10C2B000ACE707B0BDE8F043FFF7ECBB2356040042
:10C2C0008B1E0400B24E04005021040047520400AB
:10C2D00000EA0020B4E900202DE9F74F06468B461E
:10C2E0009146817A0D9FDDF83880002201209A4620
:10C2F000FDF740FF0446C0B100F1080528460921BA
:10C3000013F0A9F80BF07F01284613F040F95246CC
:10C310004946284613F032F943463A46214630460C
:10C3200003B0BDE8F04FFEF7DBBE074B019300936F
:10C33000064A074B07490848F4F7DEFB6FF0360062
:10C3400003B0BDE8F08F00BF235604008B1E04002D
:10C35000FD4E040050210400454F0400F0B58DB09F
:10C36000B0F81CE09DF85040ADF818E000270D46ED
:10C370004FF6FF7E06A90797ADF82070139EADF823
:10C380001AE0ADF81C208DF821300B9709900A9126
:10C39000D4B101F0C9FBADF82C0004F013F8129BE6
:10C3A0008DF82E001B882DB2002DC3F30C030DDC7D
:10C3B000164B01930093164A164B17491748F4F78A
:10C3C0009BFB00200DB0F0BD2846E4E7E40344EAFF
:10C3D000830424B2C4F307238DF81030330C0021FA
:10C3E0001A0A8DF81330C6F307238DF812208DF842
:10C3F0001430029101910091062304AA09A88DF836
:10C4000011408DF81560FFF767FFDBE72356040046
:10C41000DD2004000E4F040050210400CF5404001E
:10C4200030B5044685B014F0EFFE54F8043CC01A51
:10C430004EF66023984213D91A4B019300931A4A7F
:10C440001A4B1B491B48F4F757FB204615F0FAF925
:10C4500014F8103C6FF3861304F8103C05B030BD9F
:10C4600014F8100C34F80C2C34F80A1C14F80E3C98
:10C47000C009029054F8080C0190A4F11800009033
:10C48000A4F1200554F8200CFFF768FF2846FFF7B9
:10C490000BFA02460848214605B0BDE8304015F0C9
:10C4A00035BA00BF23560400DD200400174F0400F6
:10C4B000502104006E540400C86E00202DE9F04F96
:10C4C0004FF0FF328DB04FF0FF33CDE90A230B7DE3
:10C4D0006FF3C71306460B750C46092113F0B3F82A
:10C4E000304613F0E5F8B38808933368079393F95F
:10C4F00000300990002B80F20782237D13F0C003E7
:10C5000000F03D82089B042B19D8AB4B089A02938C
:10C5100001920093A94AAA4BAA49AB48F4F7ECFA56
:10C520006FF01504B368BDF8242013FA82F333606A
:10C53000BDF82030B38020460DB0BDE8F08F01215A
:10C54000304613F080F8304613F095F8C700C0F37A
:10C550008C05304613F07FF807F0180747EA5017AC
:10C56000FFB200F01F0B5F4581460AD9924B03933F
:10C570008DE88808914A924B92499448F4F7BCFAA6
:10C58000CEE7934B94F814C01B6820690CF0010EA1
:10C59000A3EB0E0E4FEA1E231A46451B4FEA0E630D
:10C5A0001946C5F30C05451B13460A4642EA050227
:10C5B000884DA068696981424FF00008CDE90A23DF
:10C5C00026D1D5E90201994208BF904280F0D98175
:10C5D0002B7C58061CD5784B02932289019200933C
:10C5E0007D4A7E4B77497E48F4F786FA05F12000B4
:10C5F00015F028F92B7CC5F8008068F386132B749E
:10C6000000220023C5E90223A5F81480A5F81680AE
:10C6100094F814C0CCF3C001002914BF08230C23E4
:10C620001BFB03F30133482B3BDD634B019300936A
:10C63000624A634B63496B48F4F75EFA207D637B83
:10C6400022896189C0090290002001900AA8009007
:10C650002068FFF783FE6FF0230463E7079B1A78D7
:10C660006B7C9A4204D12B7C03F01F025A4507D001
:10C67000514B01930093514A5B4B52495B488CE10B
:10C68000C3F34013CCF3C0018B4200F089814A4BC5
:10C6900001930093494A544B4A4955487DE1554816
:10C6A0007BE14C4B187C10F0400E40F0A08140F034
:10C6B00040001874186D986420681860187CA3F8FE
:10C6C0004CE061F34510DDE90A12C3E9021269F397
:10C6D00004000799187409785974617B9974218949
:10C6E00099826189D9824FEADC12C1B262F3C71123
:10C6F000C3F818E01974DFF8DC80D8F8183023FA92
:10C7000007F919F00109C24609D02B4B0193009398
:10C71000314A2B4B2B493848F4F7EEF964E15F4579
:10C7200098F8103038D113F0200FB2880CBF0C23CA
:10C73000082303FB07239BB2482BA8F84C3061D990
:10C740001D4B019300931D4A1D4B1E492B48F4F7C6
:10C75000D3F998F81000637B22896189CDF80490A1
:10C76000C00902900AA800902068FFF7F7FD08F1C1
:10C77000200015F067F898F81030C8F8009069F3B9
:10C78000861388F8103000220023C8E90223A8F895
:10C790001490A8F816905EE713F0200FB2880CBF33
:10C7A0000C2308239A422DD0034B01930093034A94
:10C7B000034B04491248F0E0235604008B1E04008A
:10C7C0003B4F0400502104006E4F0400A34F0400AF
:10C7D000B4E90020C8EC0020DD2004001F4F040055
:10C7E000D44F0400E95004002B4F040027500400EC
:10C7F0005B500400BC500400155104004851040073
:10C800006A51040014F000FDCAF81C007E4815F0BF
:10C81000EFF838B97D48FFF747F87D4902467D4873
:10C8200015F074F89AF81020DAF84830316812F0F0
:10C83000200F0CBF0C20082007FB0030B288F7F750
:10C8400070FD012303FA07F7DAF8183047EA030806
:10C85000CAF818800BF1010201200021F2F7DAFC7E
:10C860000138804501D000245CE6237D590619D5A6
:10C870002046FEF7D5FFA8B1674B049322690392C7
:10C8800062890292228901920093644A644B65494D
:10C890006548F4F731F9DAF8183023EA0707CAF8DF
:10C8A00018703DE65A4814F0CDFF287C637B22893E
:10C8B0006189C0090290A86901900AAF00972068B9
:10C8C000FFF74CFD237D594A13F0080F079B197899
:10C8D0000ED03B462046FFF7EBFA04464C4814F0D6
:10C8E000B1FF9AF810306FF386138AF8103019E60A
:10C8F000079BA8685B780092DB090A4620F07F411D
:10C900002046FEF7EDFFE8E7089B3BB9424B019359
:10C910000093474A474B434947483EE0237D5A0628
:10C9200013D52046FEF77CFF78B13B4B0493226978
:10C93000039262890292228901920093374A3D4B09
:10C9400038493948F4F7D8F8EAE5304612F083FE62
:10C95000227D12F00803014606D00AAB324620467B
:10C96000FFF7A6FA0446DDE512F0C00F3FF47BAFF7
:10C970000096024621692046FEF7B2FFF2E71C4608
:10C98000D9E58B4208BF8242BFF468AE224B0193C7
:10C990000093224A224B23492848F4F7ADF8BFE51B
:10C9A0002B7C5B063FF5A7AE013201200021F2F798
:10C9B00031FCAB69194A1B4901388342164B01937C
:10C9C0000093174B7FF46BAE1D48F4F795F8287C65
:10C9D000637B22896189C0090290A86901900AA835
:10C9E00000902068FFF7BAFC6FF044049AE50A4B08
:10C9F00001930093094A0A4B0A491248F4F77CF85C
:10CA00006FF00B048EE500BFF4EC0020C8EC0020B2
:10CA1000E8EC0020C86E002023560400DD2004004E
:10CA20003B4F040050210400A251040010ED0020EF
:10CA30008B1E0400F14E0400DB5104000250040080
:10CA4000875004000552040010B50A4C04F1200080
:10CA500014F0F8FE237C6FF3861323740022002366
:10CA6000C4E9022300232360A382E382BDE81040CF
:10CA700006F0AFB9C8EC002038B5054D00242819E0
:10CA80005034FFF74FF8B4F5C86FF8D138BD00BF88
:10CA9000B054002070B50C4D0C4E002000F1500435
:10CAA000B4F5D26F09D10A4C0A4904F1200014F000
:10CAB000B9FE094B2365A36470BD28302844314674
:10CAC00014F0B0FE2046E9E7B0540020A9BE0200F1
:10CAD000C8EC002021C402006EBD002050220021BD
:10CAE0000148F7F74ABC00BF78EC0020030C1A0A93
:10CAF0004B70C0F307230A708B70C87070472DE924
:10CB0000F04F9BB00746DDF894800291B8F57F4F57
:10CB10001646019380F035810DF16809012309F86B
:10CB2000503D0D220DF11900F7F7FBFB00230AAA77
:10CB3000494638468DF826308DF8273011F036FBFF
:10CB4000044600283ED1279B082B3FD1B8F1000FA7
:10CB500014BF592319230D2202998DF818300DF1B5
:10CB60001900F7F7DEFBBDF804500DF1580B2B0A46
:10CB70008DF826305A469DF804308DF82730494606
:10CB8000384611F013FB0446E0B9B8F1000F23D189
:10CB9000019BDDF898900F331B0915F00F051FFA64
:10CBA00083FBC3F3072308BF10254FF0000803934E
:10CBB000D8455ED3019B269D279A2B4412A918467F
:10CBC000F7F7AFFB20461BB0BDE8F08FB8F1000FC0
:10CBD00014BF49230923BEE79DF85820C8F3072353
:10CBE00053408DF818309DF8593083EA08038DF8CA
:10CBF000193008F1020882460223B8F1100F15D847
:10CC0000249A0023924416AA985C1AF80310414013
:10CC100006A8C15401339845F6D1102B24D106A99A
:10CC2000384611F0C3FA0028B2D01BE02499AAEBD1
:10CC300003001A460844815C12F80BE081EA0E01F9
:10CC400002F809100132102AF5D1C3F110035A4637
:10CC5000494638469A4411F0A9FAA8F11008002371
:10CC60000028CAD00446ADE706A8D15CC154013300
:10CC7000D3E708F10108C3454FF000034FD116A9CF
:10CC8000AB423FD32B460DF1580A102B41D15246EF
:10CC900006A9384611F08AFA0028E3D112AA0AA997
:10CCA000435C10F80AE083EA0E0383540130102835
:10CCB000F6D11AAB012203F8502D029904930D22EC
:10CCC0000DF119000593F7F72CFB9DF80C308DF84A
:10CCD0002630049B8DF827B00DF1380A52461946CC
:10CCE000384611F063FA0028BCD1335C10F80A20F2
:10CCF000534009F8003001308542F6D8103609F16A
:10CD0000100955E7F05C5A5C424006A8C254013352
:10CD1000B6E706A91AF80320CA540133B5E716AAE4
:10CD2000F05C995C414006A8C1540133102BF7D147
:10CD30000146384611F03AFA002893D101230D221A
:10CD400002998DF818300DF119000DF1380AF7F736
:10CD5000E8FAC8F30723524606A938468DF826306C
:10CD60008DF8278011F022FA00287FF47BAF335C26
:10CD700010F80A20534009F8003001301028F6D18D
:10CD8000BCE76FF015041DE72DE9F04F9DB0054697
:10CD90008DE80600279C1F46002B00F04381B4F568
:10CDA0007F4F80F03F811CAE012306F8503D0D22DD
:10CDB0000DF12100F7F7B5FA00230CAA31462846F9
:10CDC0008DF82E308DF82F3011F0F0F9002840F05A
:10CDD0008A80299B082B3CD1002C14BF592319238E
:10CDE0000D2200998DF820300DF121001FFA87FBEC
:10CDF0000DF15008F7F795FA4FEA1B2342463146EA
:10CE000028468DF82E308DF82F7011F0CFF90028BC
:10CE100069D11CBB07F10F031B091BF00F04DDF8E0
:10CE2000A0A0DDF804901FFA83FBC3F3072308BF1B
:10CE30001024002602935E455CD3019B299A3B4453
:10CE4000194618A8F7F758FA002818BF6FF04C00D9
:10CE500049E0002C14BF49230923C1E79DF8502065
:10CE6000C4F3072353408DF820309DF851306340C0
:10CE70008DF82130023482460222B146102C16D899
:10CE8000269A002302EB0A0914AA19F80310985CE9
:10CE90004140F15401339C42F7D108A9102B25D110
:10CEA0003146284611F082F90028B3D01BE0269BBA
:10CEB000AAEB020E11469E441EF8010011F808C0AC
:10CEC00080EA0C0001F8090001311029F4D1C2F107
:10CED0001002924449464246284611F067F9103C38
:10CEE00000220028CAD01DB0BDE8F08FD05C585495
:10CEF0000133D3E701360123B3458DF820304FF0DD
:10CF00000D0200990DF1210058D10DF14008F7F7FD
:10CF100008FA9DF808308DF82E30424608A92846B8
:10CF20008DF82FB011F042F90028DCD104AB424655
:10CF3000A042A04632D31946224650460393F7F743
:10CF4000F0F9039B002208A90DF1500E12F80E0013
:10CF500012F803C080EA0C00505401329442F5D814
:10CF600014ABB8F1100F22D11A462846039311F0E2
:10CF70001DF90028B7D1039B18A90DF1300E10F848
:10CF80000E2010F803C082EA0C024254013010282F
:10CF9000F5D10AF1100A09F110094CE719F800104F
:10CFA00010F802E081EA0E0119540130C0E713F8CD
:10CFB000082001F8082008F10108D2E7F7F7B1F9D5
:10CFC000C6F307238DF82E3010AB1A4608A9284661
:10CFD0008DF82F60039311F0E9F8002883D1039BAB
:10CFE00002460DF1100819F80210D05C414002F819
:10CFF00008100132102AF6D141465046F7F791F950
:10D00000002308A914AA985C13F808E080EA0E002F
:10D0100058540133102BF6D1284611F0C7F80028D8
:10D02000B7D060E76FF015005DE770B5C2B00D4690
:10D030001446014616AA68461E46F4F73DFF40B165
:10D04000083554B969463046F4F7C6FF08B12046A2
:10D0500001E06FF0040042B070BD15E906006846BB
:10D06000F4F756FF08350028F3D0013CE9E707B58F
:10D070008DE8060001226946FFF7D7FF03B05DF88F
:10D0800004FB30B585B004460D46102200216846E9
:10D09000F7F773F92046F7F71AF92B4602462146AF
:10D0A0006846FFF7E4FF003018BF012005B030BD2F
:10D0B00070B5049D16461C460A462B46014630466E
:10D0C000FFF7D5FF00280ADB2046F7F700F92B46CB
:10D0D000024621462846BDE87040FFF7C8BF70BD34
:10D0E000F0B595B004460F46284802A915461E46DD
:10D0F000FFF7C7FF002846D121460AAB102202A83D
:10D10000FFF7B5FF044600283AD1012311950DF130
:10D11000070206AD8DF807300E900F901292139310
:10D1200003222B460EA90AA81097FFF77EFF04469C
:10D1300030BB9DF827300E9503F07F033370022338
:10D140008DF8073010262B4603220EA90AA80F9649
:10D15000FFF76BFF044698B9324629461A98F7F74D
:10D16000E0F803222B460EA90AA88DF80720FFF746
:10D170005CFF044620B9324629461B98F7F7D1F8E0
:10D18000204615B0F0BD0124FAE700BF2456040084
:10D1900030B5144B8BB00446186800900D461B79CF
:10D1A00011488DF8043002A9FFF76BFFB8B921468A
:10D1B00006AB102202A8FFF75AFF044660B902AB83
:10D1C0000522694606A8FFF752FF044620B9082247
:10D1D00004A92846F7F7A5F820460BB030BD012476
:10D1E000FAE700BF401E04002956040030B5114B79
:10D1F0008BB00546186801900C460F4802A9FFF74E
:10D2000040FFA8B906AB1022294602A8FFF72FFF5E
:10D2100060B9042202AB0DEB020106A8FFF727FF5D
:10D2200020B99DF8173003F03F0323700BB030BDD9
:10D230000120FBE7451E04002E56040030B587B0E0
:10D240000446084602A91546FFF71BFF40B90095A2
:10D25000044B02AA10212046FFF72AFF07B030BD79
:10D260000120FBE71D56040070B588B00D4604464A
:10D270001646002110226846F7F77FF828460DF180
:10D280000501FFF733FC0722A1180DF1090004ADD9
:10D29000F7F747F82A466946304610F087FF48B945
:10D2A000234602465978AC5C01326140062A03F8F5
:10D2B000011FF7D108B070BD2DE9F0430C46096895
:10D2C00091F8019091F8028091F803C091F804E080
:10D2D0004F7919F0800F054689B0104614BF082613
:10D2E00004268A7973B303238DF8103000238DF858
:10D2F00011300DF119018DF813C08DF814E08DF87F
:10D3000016208DF817308DF818308DF812808DF8B2
:10D310001570FFF7EBFB2268A38803960021073204
:10D320000191009128460292073B04A9FFF7E7FB11
:10D33000054618B93146204612F01AF9284609B0B8
:10D34000BDE8F0838DF810308DF81190D1E72DE90C
:10D35000F0430E46096891F8019091F8028091F827
:10D3600003C091F804E04F7919F0800F054689B0A9
:10D37000104614BF082404248A7953B303238DF87C
:10D38000103000238DF811300DF119018DF813C004
:10D390008DF814E08DF816208DF817308DF81830C0
:10D3A0008DF812808DF81570FFF7A0FBB3883268F6
:10D3B00003941B1B073200219BB2B38001910091A3
:10D3C0000292073B04A92846FFF7DEFC09B0BDE83E
:10D3D000F0838DF810308DF81190D5E72DE9F043EA
:10D3E00089B0814616461C46109DBDF84480BDF8A4
:10D3F0004870002935D0022313988DF8103040EA88
:10D40000C6700DF11101FFF771FB4FEA18230DF102
:10D4100019018DF8153014988DF816803B0A8DF897
:10D4200017308DF81870FFF761FB002D14BF102125
:10D430000021002E2268019114BF082604260095C1
:10D44000A3880396029204A94846FFF758FB0546B5
:10D4500018B93146204612F08BF8284609B0BDE8CD
:10D46000F0830123C8E72DE9F04788B082461746CC
:10D470001C46109E119DBDF84890BDF84C800029B7
:10D4800037D0022314988DF810300DF1110140EAC5
:10D49000C770FFF72BFB4FEA192315988DF815304D
:10D4A0000DF119014FEA18238DF817308DF81690F9
:10D4B0008DF81880FFF71AFB002D14BF10220022F0
:10D4C000002F3168029114BF0820042003900192BC
:10D4D0000095A388226804A95046FFF755FC05462D
:10D4E00018B9A188304612F043F8284608B0BDE8C4
:10D4F000F0870123C6E7000010B5064A0144FF2368
:10D50000884202D1D843C0B210BD10F8014B63402D
:10D51000D35CF5E73D5604000268808830B5084CBE
:10D520001044FF23824206D14B40E05CA0F1CF03C0
:10D530005842584130BD12F8015B6B40E35CF1E7A3
:10D540003D56040030B589B005460C460E48694684
:10D55000FFF797FDA8B904AB102229466846FFF7EC
:10D5600086FD60B99DF81E209DF81F3043EA022316
:10D57000C3F30D036FEA43436FEA5343238009B0BB
:10D5800030BD0120FBE700BF3856040030B585B040
:10D5900004460D46102200216846F6F7EEFE2B46A3
:10D5A000912221466846FFF762FD05B030BD0000BC
:10D5B00007B5044B00920A462021FFF779FD03B01E
:10D5C0005DF804FB335604001FB500911021019152
:10D5D0000292039102226946FFF727FD05B05DF82C
:10D5E00004FB1FB5082402930023019300930394C6
:10D5F0001923FFF7C9FB04B010BD70B588B008ACA3
:10D60000054610461E4604F8201D082201460DF16D
:10D610000100F6F786FE0DF109013046FFF766FAC4
:10D62000214604AB0D222846FFF721FD044620B910
:10D63000082204A90C98F6F774FE204608B070BDC5
:10D640002DE9F04F0E4689B01D463C4C129FDDF887
:10D650004C809246814613F083FD736805949A8846
:10D6600004925A8803921B88354A364902930190E6
:10D67000354B00943548F3F73FFA13F071FDB5F8D8
:10D6800004B0079059462868F6F7A4FE079B03905C
:10D6900001932B4A2C4B2B490494CDF808B00094ED
:10D6A0002B48F3F729FAFCF78BFB60B9019400943F
:10D6B000254B284A23492848F3F71EFA6FF00A0041
:10D6C00009B0BDE8F08F284611F0F6FF03280AD80C
:10D6D000019400941C4B1F4A1A492048F3F70CFA96
:10D6E0006FF01500ECE7AB88202B0AD90194009469
:10D6F000154B184A13491A48F3F7FEF96FF0230047
:10D70000DEE7BAF1000F05D17368B9F810205B8825
:10D710009A4208D143463A462946304609B0BDE808
:10D72000F04FFEF731BD019302940094064B094A75
:10D7300004490C48F3F7E0F9D2E700BF2356040090
:10D740007921040050210400C2570400D45B040076
:10D75000125C04008B1E0400325C0400645C040054
:10D76000955C0400B55C0400F8B5044680680F467B
:10D7700015461E4620B140F81C4B134914F052F8D0
:10D780004FF6FF732382114B1B68DB68FB1A1B11DA
:10D7900023710F4B2DB1FA68A21A12115343637112
:10D7A000F8BDBA680B4FA21A121153436371EB5BB9
:10D7B0002288934204D17B1931465B682046984702
:10D7C0000835182DF3D1F8BD91E00200F05A002081
:10D7D000ABAAAAAABC5B04002DE9F347DFF868A056
:10D7E0000746884600254FF03009DAF800309A687D
:10D7F000AA4202D802B0BDE8F087DC68002604EB3C
:10D80000051423799E4205DB002663799E420EDBD8
:10D810000135EAE7A068CDF80080B5FA85F309FB89
:10D8200006005B0900222146B8470136E9E7E068B7
:10D83000CDF80080B5FA85F309FB06005B090122EB
:10D840002146B8470136E0E7F05A0020806878B1F9
:10D85000837A9A09022A12D0032A15D0012A08D005
:10D86000642213FB02F3C07A00F00F0043FA00F0C9
:10D87000704703F03F034FF47A725343F3E703F02A
:10D880003F0342F21072F8E703F03F03004AF4E767
:10D89000C0270900F0B585B00F46044613F060FCC0
:10D8A000274D0190274B039502940095264A27495E
:10D8B0002748F3F721F9BE68F37A13F0E00F19D087
:10D8C000747AE308322403FB044413F049FC039503
:10D8D0000190029400951B4B1B4A1C491D48F3F70D
:10D8E0000BF9B9681C4822461C3105B0BDE8F04070
:10D8F00014F00CB83846FFF7A9FF0446E8B113F05E
:10D9000083FC3669861B13F02BFC0395019002966D
:10D910000095124B0C4A0D491148F3F7EDF8B4424B
:10D9200009D2019500950D4B0E4A08490E48F3F7B0
:10D93000E3F80124C9E7A41BC7D105B0F0BD00BFBF
:10D9400023560400495704007921040050210400A3
:10D95000F05C0400765D0400C86E00203D570400B2
:10D960000C5D0400DD200400365D0400034B0079EB
:10D970001B68DB6803EB0010704700BFF05A002003
:10D980001FB51C4B1B680446986881420CD31A4B88
:10D99000029301910093194A194B1A491A48F3F757
:10D9A000ABF8002004B010BDDB6803EB01118CB1B3
:10D9B0004B79934208D8104B0293019200930F4A7F
:10D9C0000F4B10491148EAE7C86802EB420200EB2E
:10D9D0000210E7E70B79934208D8074B02930192B4
:10D9E0000093064A064B07490948D8E702EB420272
:10D9F0008868ECE7F05A0020235604008B1E0400D0
:10DA00006257040050210400685804009158040033
:10DA1000BF58040008B583683BB1054B002118606E
:10DA20000448FFF7D9FE002008BD6FF0150008BDBF
:10DA3000F05A002069D702002DE9F04F204B214E0B
:10DA4000188089B00746204CDFF88490DFF884A066
:10DA500013F086FB336804949B680393019002974C
:10DA600000941A4B1A4A1B491B48F3F745F8002546
:10DA7000326891687B19A9429BB202D809B0BDE80F
:10DA8000F08FD26807924FEA051B02EB0B0822F8D1
:10DA90000B3013F065FB059498F80530049398F863
:10DAA0000430079A039332F80B30029301900094EC
:10DAB000064B0A484A465146F3F71EF80135D7E7A8
:10DAC000F45A0020F05A0020235604007457040032
:10DAD0007921040050210400E35704001358040086
:10DAE0001FB513F03DFB094B029301900093084AC8
:10DAF000084B09490948F2F7FFFF094B0948002183
:10DB0000198005B05DF804EBFFF766BE23560400EC
:10DB1000792104008B57040050210400525804005E
:10DB2000F45A002069D70200014B1888704700BFE3
:10DB3000F45A002010B500F11202002332F8024B13
:10DB40008C4203D1093300EB430010BD01330A2B93
:10DB5000F4D1002010BD00002DE9F74F234BD3F87E
:10DB60000080D8F8083000930746002680F4004B68
:10DB70004FF03009009B9E4201D100252DE0D8F8DE
:10DB80000C203301BBF5FE4F02EB030529D895F8B5
:10DB900004A00023534506DB95F805A00023534558
:10DBA0000DDB0136E6E7AC68019309FB0344394617
:10DBB0002046FFF7BFFF70B9019B0133EAE7EC682D
:10DBC000019309FB034439462046FFF7B3FF10B920
:10DBD000019B0133E3E7002CE3D0284603B0BDE806
:10DBE000F08FD35ABB42DCD1F7E700BFF05A0020D8
:10DBF000014B1B68187A7047F05A002008B54FF6A1
:10DC0000FE7398420CD00ED84FF6FD73984201D0A7
:10DC1000002008BD02F068FC431E5842584108BD70
:10DC200002F058FCF8E7012008BD00002DE9F04F94
:10DC3000804689B00D4613F093FAB8F80A30049381
:10DC4000B8F808307A4C0393B8F80630794A7A4924
:10DC500002930190794B059400947948F2F74CFFB8
:10DC600013F07EFAAE88074631462868F6F7B2FB15
:10DC7000724B03906F4A049402968DE890006E49AF
:10DC80007048F2F739FF2B681B789A09022A29D0CD
:10DC9000032A35D07F2B12D16B4B6C4A66496C48F6
:10DCA00001940094F2F728FF01940094634B694AB1
:10DCB00061496948F2F720FF09B0BDE8F08F2846B6
:10DCC00011F0C9FC074613F04BFA03940190029738
:10DCD00000945A4B574A58496048F2F70DFF4FF0ED
:10DCE00000092EE0AB88012B06D801940094564B16
:10DCF000564A51495A48D5E7284611F0BCFCE1E79D
:10DD0000AB88022B06D8019400944F4B4F4A4A49E6
:10DD10005448C7E7284611F09EFC0746284611F0F4
:10DD2000A2FC40EA0747CEE780F40043B3F5FE4F7C
:10DD300019D9B9F1000F02D1FFF760FF98B909F1C5
:10DD40000109494B1B689A684A45B5D9B8F80A00D9
:10DD5000DB6801B24FEA0912002903EB020AE3DD96
:10DD60009B5A8342EBD1B7F5803FDAF80830DAF8F6
:10DD70000C6002D39AF805A002E09AF804A01E46AF
:10DD8000B8F80AB0B8F806200AEB4A0A06EB0A1AF5
:10DD90008BF4004356450ED113F0E2F90494019040
:10DDA000CDF80C9002970094244B224A22492F4828
:10DDB000F2F7A2FEC3E7B3F5FE4F08D85946304646
:10DDC00007930692FFF7B6FE069A079B58B1318A71
:10DDD000914208D1B16A03E0086887420FD00C3144
:10DDE00088680028F8D13036D4E702948DE8900096
:10DDF000124B164A10491E48F2F77EFE9FE7AA888A
:10DE00004B689A42F1D32846069111F051FC0699CD
:10DE1000B5F804B08B6882462A4608F10401304602
:10DE20009847AB68A5F804B013FA8AF32B6086E72D
:10DE3000235604007921040050210400AF57040048
:10DE400091590400125C0400A45704008B1E0400C6
:10DE5000CB590400DD2004008D5A0400B55A04009B
:10DE6000EF590400245A0400F05A0020D85A040044
:10DE7000595A040038B58368044613B900F10C03FD
:10DE80008360A3682360FF294FF00003A38005D8B7
:10DE90002046C9B2BDE8384011F079BBB1F5803FEA
:10DEA0008DB205D229462046BDE8384011F086BB28
:10DEB000C1F30741204611F06AFB29462046BDE820
:10DEC000384011F06CBB2DE9F04186B000240546C6
:10DED000088803940E461746984604940594FCF768
:10DEE00049FD039028460496FFF740FD0388ADF8EE
:10DEF000143002F067FA0C9B8DF816000193CDF8F0
:10DF000000803B46224603A92846FFF799FB06B04E
:10DF1000BDE8F0812DE9F04198B00FAA002324213B
:10DF200009920B9206AAADF82A100D92ADF828308E
:10DF3000846806930793ADF820300C930E93074640
:10DF4000FFF714FD0388ADF8383002F03BFA8DF886
:10DF50003A0013F005F9434D019002950095424BAC
:10DF6000424A43494348F2F7C7FD2E46002C75D07C
:10DF7000A38823B96FF0300018B0BDE8F081E088C5
:10DF8000FEF7E6F880460028F4D063699B880433E6
:10DF9000242B0ADD01950095334B374A3449374825
:10DFA000F2F7AAFD6FF02300E6E7E37A13F0E00F43
:10DFB0000BD0019500952C4B314A2D493148F2F791
:10DFC0009BFD04F11C0013F03DFC636909A819686E
:10DFD0009A8811F0D3FAA388ADF81C30237A8DF813
:10DFE0002130B8F80230B8F80000ADF81A30E37A02
:10DFF0009DF83B20ADF81800C3F3001363F3000253
:10E000008DF83B20FCF7B6FCE37A627A0C9062F361
:10E010004713E37213F0A4F80496637A1449DA08FC
:10E02000322302FB03330393E37A104A01905B0926
:10E03000029300960C4B1448F2F75EFD134B0093CD
:10E04000019709AB01220CA93846FFF7F9FA00281D
:10E0500092D0E37A6FF34713E3728DE76FF02200FB
:10E060008AE700BF23560400CD570400792104003D
:10E0700050210400525804008B1E0400EA5804008A
:10E08000DD2004002059040052590400E85C04001B
:10E090002DE9F04397B0044613F062F85B4D5C4BFA
:10E0A0005C4A5D490190029500955C48F2F724FDB9
:10E0B00054F81C0CFFF7CAFB064613F051F8544BFA
:10E0C0000190039502960095524A53495448F2F73D
:10E0D00013FD14F8113C13F0E00FA84667D054F874
:10E0E0001C9CD9F8085000220DAB24210592ADF8F4
:10E0F000182004920993ADF82210A9880793ADF86F
:10E10000141004AB297AADF8202048468DF8191078
:10E110000A920C920B93FFF729FC0388ADF830307C
:10E1200002F050F9EB7A9DF833208DF83200C3F3FA
:10E13000001363F30002E8888DF83320FEF708F837
:10E14000074600285FD00088FCF714FC3B88ADF838
:10E1500010307B88ADF812306B690A909A88196884
:10E1600007A811F00BFAEB7A2E4AE033EB7207A9FD
:10E170004B460AA8FEF708F8B0B10190244BCDF841
:10E180000880CDF80080284A23492848F2F7B4FCDB
:10E1900014F8113C6FF3471304F8113C26B13246D2
:10E1A0002146234813F0B2FB17B0BDE8F083002EE0
:10E1B000FAD013F029F854F8043C44F80C0C54F845
:10E1C0001C0C984740B101950095114B164A124915
:10E1D0001848F2F791FCE7E754F81C0CFFF79AFE99
:10E1E00040B1019002950095094B0F4A0A49124827
:10E1F000F2F782FC14F8113C13F0E00FD4D0204663
:10E2000013F020FBD0E76FF03000B6E72356040090
:10E21000565704007921040050210400525804008C
:10E220000A5B0400E85C04008B1E04002C5B040005
:10E23000C86E00205A5B04008F5B0400F0B547797C
:10E24000054600234FF0300ED8B2874201D8002097
:10E25000F0BD0EFB03F4EE683019345B8C4202D142
:10E2600044889442F4D00133EEE7F0B506790023F8
:10E270003027DAB2964201D8002208E007FB03F407
:10E2800085682A192C5B8C4203F10103F1D11046F9
:10E29000F0BD0000014B1868704700BFF05A002025
:10E2A0000A4930B500234FF6FF745A18B2F85C5093
:10E2B000A54203D0B2F85E20824204D02833A02BBE
:10E2C000F3D1002030BD012030BD00BFB4E90020F3
:10E2D00038B541EA02310546144689B211F05FF9BA
:10E2E000C4F307112846BDE8384011F050B90000CA
:10E2F000F0B589B002AB002406460F4610460B214C
:10E3000005930793ADF81840ADF81A1011F0ABF96A
:10E3100003B2A34205460ADC184B01930093184A46
:10E32000184B19491948F2F7E7FB09B0F0BD48F25C
:10E330002E0105A8FFF79EFD294605A811F02FF92B
:10E34000214605A811F023F9214605A811F01FF96F
:10E35000214605A811F01BF90094234605AA394669
:10E360003046FFF7B0FD0028DFD0044B0193009347
:10E37000074A044B04490748D5E700BF2356040069
:10E38000DD200400105F0400502104007D680400BB
:10E390008B1E0400AE6804002DE9F0418AB004AB86
:10E3A0000746884600260A2110460793ADF82060EC
:10E3B000ADF82210099311F056F9B0F5805F0546CB
:10E3C0000CD31E4B02938DE828001D4A1D4B1E499D
:10E3D0001E48F2F791FB0AB0BDE8F08148F248010F
:10E3E00007A8FFF747FD2846FCF7C4FA0446F0B932
:10E3F000042107A811F0CBF8294607A811F0CFF89F
:10E40000214607A811F0C3F80023009307AA41464C
:10E410003846FFF758FD0028DDD0084B01930093E4
:10E42000074A084B08490A48F2F766FBD3E731462A
:10E4300007A811F0ACF894F82040DDE7235604005B
:10E440008B1E04009B5E040050210400826B0400BC
:10E45000AD6B04002DE9F0438DB00F46002108ABF1
:10E46000ADF8181006460F2110460593ADF81A10A6
:10E47000079311F0F8F8B0F5805F05460CD32A4BEE
:10E4800002938DE82800294A294B2A492A48F2F7A5
:10E4900033FB0DB0BDE8F08348F2020105A8FFF799
:10E4A000E9FC2846FCF766FA00280CBF0424002487
:10E4B000214605A811F06BF8294605A811F06FF860
:10E4C000C4B91E4C4FF6FF7104F1A0088946B4F898
:10E4D0005C30AB4204D14945B4F85E201DD11146F1
:10E4E0002834A045F3D14FF6FF73994202D005A816
:10E4F00011F055F80023009305AA39463046FFF77E
:10E50000E2FC0028C5D0084B01930093074A084B52
:10E5100008490B48F2F7F0FABBE705A8FFF7D8FE69
:10E520004FF6FF71DCE700BF235604008B1E04008A
:10E530001A60040050210400826B0400B4E900203A
:10E54000F76004002DE9F0418AB0904600221F4692
:10E55000ADF8102006AB0F22C46A039305460E46A1
:10E5600003A80621ADF812200593FFF783FC41466E
:10E5700003A811F00CF8DFB1092103A810F0F8FF8F
:10E5800009223946F5F7CDFE0023009303AA314650
:10E590002846FFF798FC40B11B4B019300931B4AA0
:10E5A0001B4B1C491C48F2F7A7FA0AB0BDE8F081E2
:10E5B000A18E03A810F0F3FFE18E71B101290CD0F8
:10E5C0004FF6FF7399421FBF01F1FF31B1FA81F19C
:10E5D000C1F12101C9B208BFFF2103A810F0D7FF84
:10E5E00094F8381003A810F0D2FF94F8391003A85B
:10E5F00010F0CDFF618F03A810F0D1FFA18F03A809
:10E6000010F0CDFFC0E700BF235604008B1E0400AE
:10E61000405F040050210400EB66040000231A460A
:10E62000FFF790BF2DE9F0418AB01F460D46002349
:10E6300006A990460391ADF8103005910F2348F2DA
:10E640001F01044603A8ADF812309DF84860FFF79B
:10E6500011FC414603A810F09AFF394603A810F0B8
:10E660009EFFBDF8401003A810F099FFDEB1042111
:10E6700003A810F07DFF04221199F5F752FE002344
:10E68000009303AA29462046FFF71DFC40B1094B21
:10E6900001930093084A094B09490A48F2F72CFAFA
:10E6A0000AB0BDE8F081022103A810F061FF022248
:10E6B000E2E700BF235604008B1E0400B75D040090
:10E6C00050210400A96D040070B588B003AB00248C
:10E6D000062205460E4605A848F24A010593ADF804
:10E6E0001A200793ADF81840FFF7C4FB00942346A7
:10E6F00005AA31462846FFF7E6FB40B1064B0193D9
:10E700000093064A064B07490748F2F7F5F9FBF76D
:10E71000F9FA08B070BD00BF235604008B1E040038
:10E72000E75E0400502104000E6C04002DE9F04364
:10E7300014468FB006AB4FF000091F220746204653
:10E74000039305938846ADF81090ADF8122010F0B1
:10E750008AFF03B24B4505460BDC2B4B019300931C
:10E760002A4A2B4B2B492C48F2F7C6F90FB0BDE8CB
:10E77000F083204610F077FF48F22A01064603A8EE
:10E78000FFF778FB2846FFF7E7F9E0B9012103A876
:10E7900010F0FDFE294603A810F001FF314603A842
:10E7A00010F0FDFE0023009303AA41463846FFF710
:10E7B0008AFB0028DAD0144B01930093174A144BBC
:10E7C00014491748D0E73146FFF74FFD044608B912
:10E7D0000221DCE7494603A810F0D9FE294603A828
:10E7E00010F0DDFE314603A810F0D9FE04F1120549
:10E7F0002634A542D6D035F8021B0029F9D003A84B
:10E8000010F0CDFEF5E700BF23560400DD20040024
:10E81000055E040050210400E36904008B1E04001F
:10E820000E6A04002DE9F04714468EB005AB4FF098
:10E83000000A212280462046029304938946ADF8BF
:10E840000CA0ADF80E2010F00EFF03B253450546A4
:10E850000BDC314B01930093304A314B3149324844
:10E86000F2F74AF90EB0BDE8F087204610F0FBFE43
:10E870000746204610F0F7FE48F22C01064602A893
:10E88000FFF7F8FA2846FFF767F900BB012102A855
:10E8900010F07DFE294602A810F081FE394602A83C
:10E8A00010F07DFE314602A810F079FE002300939F
:10E8B00002AA49464046FFF706FB0028D2D0164B75
:10E8C00001930093194A164B16491948C8E7324676
:10E8D0003946FFF7B3FC044608B90221D7E7514691
:10E8E00002A810F054FE294602A810F058FE39463E
:10E8F00002A810F054FE314602A810F050FE04F1B8
:10E9000012052634A542D1D035F8021B0029F9D0D2
:10E9100002A810F044FEF5E723560400DD200400B1
:10E92000115E040050210400E36904008B1E040002
:10E93000456A040030B404686578237843EA052307
:10E94000C3F30B030B80A178637843EA01231B090F
:10E950001380032130BC10F076BE00002DE9F04199
:10E9600000251D4E074688462C4636F8043CCBB998
:10E97000341F0135032D06F11406F6D12CB34146A0
:10E980003846FEF7DFFD002822DB01232380B8F89C
:10E990000030638010223946201DF5F7C2FC0020AC
:10E9A000BDE8F081102239463046F5F7A5FC002875
:10E9B000DFD10A4A14235D4353195B88A8F800305D
:10E9C000535B01335353BDE8F0810520BDE8F0816E
:10E9D0001020BDE8F08100BF005B0020FC5A002041
:10E9E0002DE9F04188B00E4602A9002405461F46D5
:10E9F00005910A23079105A848F217019046ADF842
:10EA00001A30ADF81840FFF735FA9DF8381005A810
:10EA100010F0BDFD414605A810F0C1FD394605A81E
:10EA200010F0B5FD0094234605AA31462846FFF7AD
:10EA30004AFA40B1054B01930093054A054B06493C
:10EA40000648F2F759F808B0BDE8F08123560400F3
:10EA50008B1E0400205F040050210400396D040067
:10EA60007FB5054610460E4610F0FDFDB0F5805FFF
:10EA700004460BD30D4B02938DE818000C4A0D4B46
:10EA80000D490E48F2F738F804B070BDFBF772FF7D
:10EA9000034638B904220092314622462846FFF741
:10EAA0009FFFF1E7C37F0022F5E700BF2356040074
:10EAB0008B1E0400305F040050210400826B0400B0
:10EAC0002DE9FF41074610461446884610F0CBFD5D
:10EAD0000646204610F0BFFDB6F5805F05460CD314
:10EAE000244B02938DE84800234A244B24492548AF
:10EAF000F2F702F804B0BDE8F0813046FBF73AFFC8
:10EB0000044640B904230093034632464146384642
:10EB1000FFF766FFEEE7AB1EDBB2012B03D8C37F26
:10EB200073B9022D18D1134B03930295E27F019222
:10EB30000093154A114B12491448F1F7DDFFD9E74C
:10EB4000012B09D1022D07D1C5778377FBF7AAFFE7
:10EB50000022E37F0092D8E7013B012BF8D8032D78
:10EB6000F6D12046FCF708F80023E377A377204688
:10EB7000ECE700BF235604008B1E0400385F04003E
:10EB800050210400826B0400DD2004004E68040064
:10EB9000F0B5C76A89B003AB0722002405460E46CC
:10EBA00005A848F211010593ADF81A200793ADF8B6
:10EBB0001840FFF75FF9797A05A810F0E8FC009497
:10EBC000234605AA31462846FFF77DF940B1054B9B
:10EBD00001930093044A054B05490648F1F78CFF61
:10EBE00009B0F0BD235604008B1E0400F25E040041
:10EBF00050210400DB6C0400FFF7CABF70B588B079
:10EC0000002202ABADF81820054609220E4605A8E1
:10EC100048F243010593ADF81A200793FFF72AF94C
:10EC2000154BB3F8FC21B3F818114FF6FF74A2424C
:10EC300005D0A1421DD005A8FFF74AFB21464FF69B
:10EC4000FF73994202D005A810F0A9FC002300939D
:10EC500005AA31462846FFF736F940B1074B019324
:10EC60000093074A074B08490848F1F745FF08B0E9
:10EC700070BD1146E3E700BFB4E90020235604004D
:10EC80008B1E04008F5E040050210400A86A04005B
:10EC90002DE9F04188B00E4602A9002405469846A9
:10ECA00005910923079105A848F244011746ADF8DC
:10ECB0001A30ADF81840FFF7DDF8414605A810F00E
:10ECC00066FC394605A810F06AFC0094234605AAA4
:10ECD00031462846FFF7F7F840B1064B0193009301
:10ECE000054A064B06490748F1F706FF08B0BDE89C
:10ECF000F08100BF235604008B1E0400545E040004
:10ED000050210400E26D04002DE9FF410646104643
:10ED10000F46904610F0A7FCB0F5805F05460CD377
:10ED2000244B02938DE82800234A244B244925488C
:10ED3000F1F7E2FE04B0BDE8F081FBF71BFE0446EC
:10ED400040B904232A463946304604B0BDE8F041B4
:10ED5000FFF79EBFC37F032B0CD8DFE803F002153B
:10ED60001F1F00F130011022D8F80000F5F7C4FA97
:10ED70000028DFD0D8F8001004F18900FBF718FE56
:10ED8000804668B11023DDE700F189011022D8F830
:10ED90000000F5F7B1FA03460028D3D00B23D1E7E2
:10EDA0000123E377204603F065FF2046FBF77AFE58
:10EDB0004346C7E7235604008B1E0400745E04001C
:10EDC00050210400826B04002DE9FF4106461046E5
:10EDD0000F46904610F047FCB0F5805F05460CD317
:10EDE000284B02938DE82800274A284B28492948B8
:10EDF000F1F782FE04B0BDE8F081FBF7BBFD0446ED
:10EE000078B9254BB3F818114FF6FF72914204D030
:10EE1000B3F8FC11914233D10124E42202FB043403
:10EE2000FC34A38BAB4204F1300011D10146102217
:10EE3000D8F80000F5F760FA002814BF0623002375
:10EE40002A463946304604B0BDE8F041FFF720BFFE
:10EE5000D8F80010FBF7ACFD804608B11023EFE7AF
:10EE60002046A58303F006FF2046FBF71BFE204645
:10EE700084F8208006F0AAFBFBF72CF94346DFE775
:10EE80000523DDE7235604008B1E0400685E0400A2
:10EE900050210400826B0400B4E900202DE9F843FE
:10EEA0009DF82090099D04460E4648F23E0190468A
:10EEB0001F46FEF7DFFF4946204610F068FB41463B
:10EEC000204610F06CFB3946204610F068FB4EB12E
:10EED0000421204610F04CFB04222946BDE8F843EB
:10EEE000F5F71FBA0221204610F042FB0222F4E798
:10EEF0002DE9F04F8BB00F469DF858909DF850804B
:10EF0000159C05A902910491064648F2190102A830
:10EF10009A46002514239346ADF80E30ADF80C50F8
:10EF2000FEF7A8FF494602A810F031FB594602A897
:10EF300010F035FBB9F1000F26D0072102A810F020
:10EF400017FB07222946F5F718FAB8F1000F39D058
:10EF5000042102A810F00CFB04221799F5F7E1F93F
:10EF60000023009302AA39463046FEF7ACFF40B1B9
:10EF7000174B01930093174A174B18491848F1F79C
:10EF8000BBFD0BB0BDE8F08F514602A810F007FBA7
:10EF90002268D37AD188C3F3001341EA033102A86F
:10EFA00010F0FDFA236802A8197A10F0F0FA23682D
:10EFB00002A8997A10F0EBFA236802A8597A10F0A7
:10EFC000E6FAC2E7022102A810F0D2FA0222C4E750
:10EFD000235604008B1E0400B86004005021040076
:10EFE000716D0400F8B58B88032B05460C46164658
:10EFF000084609D810F037FB002333700146284635
:10F00000BDE8F840FFF731B910F02DFB0746204668
:10F0100010F029FB01233370024639462846BDE82B
:10F02000F840FFF70BB900002DE9F0438DB015460D
:10F03000002207ABADF81420804611222846049325
:10F0400006938946ADF8162010F00DFB03B2002B95
:10F0500007460BDC2D4B019300932D4A2D4B2E4977
:10F060002E48F1F749FD0DB0BDE8F0832E68FEF79C
:10F0700073FD0446002839D1AB881A1F534253410F
:10F080008DF80F3001259DF80F30002B39D048F254
:10F090004E0104A8FEF7EEFE294604A810F077FA08
:10F0A000394604A810F07BFA9DF80F3063B30422B0
:10F0B000314604A810F062FA3CB1218A4FF6FF7382
:10F0C000994202D004A810F06AFA0023009304AA1F
:10F0D00049464046FEF7F7FE0028C4D00B4B01938B
:10F0E00000930F4A0B4B0C490E48BAE729460DF125
:10F0F0000F02FFF777FF044600280CBF022500250A
:10F10000C1E748F24C01C4E70222D1E723560400CC
:10F11000DD200400DB5E040050210400E3690400EC
:10F120008B1E0400656904002DE9F04715468AB07E
:10F1300006AB00240F228046284603930593894698
:10F14000ADF81040ADF8122010F08DFA03B2A342D2
:10F1500007460BDC304B01930093304A304B31496A
:10F160003148F1F7C9FC0AB0BDE8F087284610F035
:10F170007AFA06463846D5F800A0FEF7EDFC00BB4B
:10F18000AB881A1F534253418DF80B3001249DF870
:10F190000B1033463A4603A88DE81004FFF77EFEB5
:10F1A0000023009303AA49464046FEF78CFE002840
:10F1B000D9D0194B019300931C4A194B19491C488B
:10F1C000CFE729460DF10B02FFF70CFF0546E0B132
:10F1D00040450AD1104B01930093144A104B11493A
:10F1E0001448F1F789FC0D24D1E73046FFF758F8B1
:10F1F00068B12B8A9E42CAD04FF6FF72934208D163
:10F200002E82284603F0E8FDC1E70224BFE703246D
:10F21000BDE70524BBE700BF23560400DD20040042
:10F22000BF5E040050210400E36904008B1E04004B
:10F2300027690400E46804002DE9F047074686B01A
:10F2400010468846144610F00EFA03B2002B06460C
:10F250000BDC324B01930093314A324B3249334835
:10F26000F1F74AFC06B0BDE8F0871021204625687A
:10F2700010F0E9F93046D4F80090FEF76DFC90B933
:10F28000A388191F4B424B418DF8173005460122C8
:10F290009DF8173002938DE82002334641463846E8
:10F2A000FFF7C0F9DEE70DF117022146FFF79AFEDE
:10F2B000824658B3102229461D481E4CF5F71CF80B
:10F2C00070B11022294604F11800F5F715F8D8B1ED
:10F2D0001022294604F12C00F5F70EF8C8B90220D7
:10F2E0001423584323185D88235A013B23529DB1B0
:10F2F00029465046FEF71EFC60B1002404805046AB
:10F3000003F071FD2246C3E70120E9E7054602222A
:10F31000BEE700250C22BBE72A46B9E723560400C6
:10F32000DD200400305E040050210400E369040085
:10F33000005B0020FC5A00202DE9F047074686B00C
:10F3400010468846144610F08EF903B2002B05468D
:10F350000BDC224B01930093214A224B2249234884
:10F36000F1F7CAFB06B0BDE8F087204610F07BF944
:10F3700006462846D4F80090FEF7EEFB38B9A3887D
:10F380001A1F534253418DF81730012216E00DF138
:10F3900017022146FFF726FE8246D0B106F58043CC
:10F3A0009BB2B3F57C5FF0D83146FEF7C3FB002477
:10F3B00088B10480504603F016FD22469DF81730B0
:10F3C00002938DE840022B4641463846FFF72AF962
:10F3D000C8E70222F2E70246F0E700BF2356040026
:10F3E000DD200400D75D040050210400E36904001F
:10F3F0002DE9F047074686B010468846144610F0BF
:10F4000032F903B2002B06460BDC2F4B019300931D
:10F410002E4A2F4B2F493048F1F76EFB06B0BDE85E
:10F42000F08710212046D4F800A010F00CF93046E7
:10F43000D4F80090FEF790FBB8B9A388ADF8160099
:10F44000191F4B424B418DF8153001249DF81530A2
:10F450000293BDF816300093CDF80490334622464F
:10F4600041463846FFF7DEF8D8E70DF11502214690
:10F47000FFF7B8FD054618B9ADF816000224E5E718
:10F480000DF116015046FFF769FA04460028DDD158
:10F49000BDF816102846FEF74DFB0028D6D105F121
:10F4A0001202234632F8021B41B905EB4303BDF8B3
:10F4B00016205A82284603F096FCC7E701330A2B30
:10F4C000F0D10524C2E700BF23560400DD2004006C
:10F4D000215E040050210400E36904002DE9F04797
:10F4E000074686B010468846144610F0BCF803B2B2
:10F4F000002B06460BDC264B01930093254A264B36
:10F5000026492748F1F7F8FA06B0BDE8F08720460B
:10F5100010F0A9F805463046D4F80090FEF71CFB21
:10F5200038B9A3881A1F534253418DF8173001226E
:10F5300021E00DF117022146FFF754FD824628B362
:10F5400005F580439BB2B3F57C5FF0D82946FEF702
:10F55000F1FA50B90AF1120333F8024B3CB90AEB45
:10F5600040004582504603F03EFC002203E001309B
:10F570000A28F1D105229DF8173002938DE8200268
:10F58000334641463846FFF74DF8BDE70222F2E721
:10F5900023560400DD200400CB5D0400502104004C
:10F5A000E36904002DE9F041054686B010460E4699
:10F5B000904610F058F803B2002B04460BDC1B4BAE
:10F5C000019300931A4A1B4B1B491C48F1F794FA0C
:10F5D00006B0BDE8F081D8F80070FEF7BDFA03462A
:10F5E000A0B9B8F80420111F4A424A418DF81720EB
:10F5F0000122029208309DF8172001900092039793
:10F60000224631462846FFF773FCE1E70DF1170269
:10F610004146FFF7E7FC20B183682BB19B880022AD
:10F62000E7E702220346E4E70722E2E72356040065
:10F63000DD200400CC60040050210400E3690400D4
:10F640002DE9F04F91B08946002107AB8046ADF817
:10F650001410104624210493ADF8161006930FF0F1
:10F66000FAFF48B1484B029301900093474A484B38
:10F6700048494948F1F740FA022104A8FEF7FAFB8D
:10F68000002104A80FF083FFFEF704FE0546018861
:10F6900004A80FF084FF698804A80FF080FFA988F0
:10F6A00004A80FF07CFF0A2104A80FF078FF0221C4
:10F6B00004A80FF074FF00263027AB689E420FD3DA
:10F6C0000023009304AA49464046FEF7FCFB28B3FA
:10F6D0002D4B01930093314A2D4B2E4930481BE0AE
:10F6E000EC6804EB061404A80FF0E6FF23796279B6
:10F6F00002331344B0EB430F13D2234C294B274A58
:10F700002449019400942848F1F7F6F9204B234A44
:10F710002049264801940094F1F7EEF911B0BDE8B4
:10F72000F08F618804A80FF03AFF217904A80FF048
:10F730002EFF617904A80FF02AFF4FF0000A237909
:10F740009A4506DB4FF0000A63799A450BDB0136D8
:10F75000B3E707FB0AF3A26804A8D15A0FF01FFF12
:10F760000AF1010AEBE7E26807FB0AF302EB030B7D
:10F77000D15A04A80FF013FFBBF8021004A80FF031
:10F780000EFF0AF1010ADFE723560400DD20040022
:10F79000E15F040050210400BD6504008B1E0400DD
:10F7A0004D660400D35F0400EF6504001C6604008E
:10F7B00058B1FF2807D0112805D00123013803FADA
:10F7C00000F080B270474FF6FF7070472DE9F04FA0
:10F7D0001568B5F800901FFA89FB8BF40043B3F568
:10F7E000804F87B006460F4677D3AB78123BDBB22B
:10F7F000EC2B75D9EB78102B72D82A7982F0800324
:10F800007E2B0CD8384B029301920093374A384B29
:10F8100038493948F1F770F907B0BDE8F08FB5F80D
:10F820000730B3F5805F184608D32F4B0293019041
:10F8300000932E4A2E4B2F493048EBE70593F46A8C
:10F84000B5F805A0FBF796F800284BD0A4F8349043
:10F85000EA78059B84F838200AF00F0AA4F83AA049
:10F86000A387BBF1000F0CD1A4F83490A4F8369014
:10F8700084F8399084F8389004F10C0011F0E2FF1C
:10F8800020E0A9780846FFF793FFE0862B7984F8FB
:10F890003930002AF0D00029EED0BFF35B8F04F19D
:10F8A000140353E8002F42F0010143E80010002840
:10F8B000F7D1BFF35B8FD30704D404F10C011048D8
:10F8C00011F026F903F025FA00231A46394630468E
:10F8D00007B0BDE8F04FFEF735BE01222B46F5E735
:10F8E0000F22FBE70422F9E7235604008B1E0400D5
:10F8F000535F04005021040096670400826B0400EB
:10F90000C86E00202DE9F043C56A8BB006AB0F220C
:10F9100000240393059306460F46ADF81040ADF85A
:10F92000122011F091FCD5E91089804579EB010393
:10F9300059DBB8EB00004FF47A724FF0000369EB2B
:10F940000101EFF773FC84B248F23C0103A8FEF713
:10F9500091FA002103A80FF01AFEB5F8481003A889
:10F960000FF01DFEB5F84A1003A80FF018FE002C8A
:10F970003BD04FF6FF739C4239D0B4FA84F4C4F103
:10F980002004E1B203A80FF002FEB5F84C1049B113
:10F990004FF6FF7399421DBFB1FA81F1C1F1200109
:10F9A000C9B2FF2103A80FF0F2FD95F84E1003A88D
:10F9B0000FF0EDFD95F84F1003A80FF0E8FD0023C0
:10F9C000009303AA39463046FEF77DFA40B1094B51
:10F9D00001930093084A094B09490A48F1F78CF84A
:10F9E0000BB0BDE8F0832046ADE72146CAE7FF2112
:10F9F000C8E700BF235604008B1E0400655F0400A7
:10FA00005021040059670400FFF77CBF2DE9F04343
:10FA1000C56A85B007461046144688460FF023FE97
:10FA2000814620460FF01FFE064620460FF013FECB
:10FA300019F4004F04460BD0384B01930093384A19
:10FA4000384B39493948F1F757F805B0BDE8F0832C
:10FA5000A6F500439BB2B3F5804F07D22F4B01931D
:10FA600000932F4A2F4B30493148ECE706F580735D
:10FA70009BB2FB2BF2D933B2002B03DDFEF754F817
:10FA80008642EBD1112C0AD9244B02938DE8180041
:10FA9000234A244B24492748F1F72EF8D5E7B9F13A
:10FAA000000F14D09EB1F4B17F2385F84E300023AF
:10FAB0002046A5F84890A5F84A6085F84F30A5F88B
:10FAC0004C30FFF775FE4FF47A7444430BE000248A
:10FAD0007F23A5F84840A5F84A4085F84E3085F8C0
:10FAE0004F40A5F84C40B5F84A00FCF71BFB7CB131
:10FAF00011F0AAFB001941EBE471C5E91001414680
:10FB00003846FFF7FFFE002C9FD185F84E409CE75A
:10FB100000220023C5E91023F1E700BF23560400AB
:10FB2000DD200400785F040050210400BF6704005A
:10FB3000E9670400186804002DE9F8430646806868
:10FB40009DF824809DF82C700C4691461D46002897
:10FB500048D0002B44D1826912B9B8F1000F41D1CD
:10FB6000BCB9838893B1C37A848064F3041364F3CB
:10FB70004713C480047284724472C37212B11C3081
:10FB800011F060FE17B1304603F034F92846BDE8A5
:10FB9000F8834846FCF7DCFA30B3B368DA7A9C8025
:10FBA0006FF30412DA729DF820201A729DF8282053
:10FBB000A3F8069083F80A805A729B69002BE1D063
:10FBC0003046FDF743FEB168CA681C311AB10748D8
:10FBD00011F09CFED6E708B10246F8E70846CFE7E9
:10FBE0000A25D3E70725D1E70325CFE7C86E002014
:10FBF0007FB5068A8E420446154614D14FF6FF7330
:10FC000003820AB103F0E8F8A36863B1DB88B3426A
:10FC100009D1002303950293019300931A461946D4
:10FC20002046FFF789FF002004B070BD2DE9F043A6
:10FC30008BB01446002206ABADF8102007460F2209
:10FC40002046039305938846ADF812200FF00BFD74
:10FC500003B2002B05460BDC254B01930093254A8C
:10FC6000254B26492648F0F747FF0BB0BDE8F08347
:10FC700020460FF0F8FC06462846D4F80090FDF721
:10FC80006BFF00BBA3881A1F534253418DF80B3002
:10FC900001209DF80B108DE8010233462A4603A887
:10FCA000FFF7FCF80023009303AA41463846FEF70D
:10FCB0000AF90028D9D00E4B01930093114A0E4B3C
:10FCC0000E491148CFE721460DF10B02FFF78AF9E3
:10FCD000044648B13046FEF7E3FA38B10122314616
:10FCE0002046FFF785FFD4E70220D2E70320D0E7C4
:10FCF00023560400DD200400CC5E040050210400E3
:10FD0000E36904008B1E0400A369040070B5049D20
:10FD10002C8806462046FEF7C3FA30B1AA78214661
:10FD20003046BDE87040FFF763BF70BD2DE9F04F6E
:10FD3000804689B01046894614460FF094FC03B201
:10FD4000002B05460BDC334B01930093324A334BB7
:10FD500033493448F0F7D0FE09B0BDE8F08F2046B3
:10FD60000FF081FC064620460FF07DFC074620463A
:10FD70000FF071FCA0F18002D2B27E2A82460AD82E
:10FD8000244A02928DE80404244B274A2449274838
:10FD9000F0F7B2FEE0E720460FF05DFC059020464C
:10FDA0000FF059FC2368049383462846FDF7D4FEE0
:10FDB000B0B9A388191F4B424B4104468DF81F3040
:10FDC0000120049B039308349DF81F300290009398
:10FDD000019433462A4649464046FFF789F8BBE777
:10FDE00021460DF11F02FFF7FDF8044678B1059B8F
:10FDF000019301220392CDF808B0CDF800A0C7F31B
:10FE00000033C7F30B023146FFF796FED9E7022015
:10FE1000D7E700BF23560400DD200400D8600400AB
:10FE200050210400E36904008B1E0400966704005F
:10FE30002DE9F04F804689B01046894614460FF0F0
:10FE400012FC03B2002B05460BDC3A4B01930093E6
:10FE5000394A3A4B3A493B48F0F74EFE09B0BDE803
:10FE6000F08F10212046D4F800B00FF0ECFB2046B4
:10FE70000FF0F9FB074620460FF0EDFBA0F18003E1
:10FE8000DBB27E2B06460AD82A4B02938DE8480047
:10FE90002D4A2A4B2A492D48F0F72EFEDEE7204650
:10FEA0000FF0D9FB059020460FF0D5FB2368049393
:10FEB00082462846FDF750FEC8B9A388ADF81E005B
:10FEC000191F4B424B4104468DF81D300120049A06
:10FED000039208349DF81D2002900092BDF81E3058
:10FEE00001942A4649464046FFF702F8B6E7214604
:10FEF0000DF11D02FFF776F8044618B9ADF81E00A3
:10FF00000220E4E70DF11E015846FEF727FD002808
:10FF1000DDD101230393059B0193BDF81E10CDF89D
:10FF200008A00096C7F30033C7F30B022046FFF783
:10FF300003FECCE723560400DD200400A85D040086
:10FF400050210400E36904008B1E0400966704003E
:10FF50000A4830B5002328214FF6FF74042B01D145
:10FF6000002030BD01FB03F21518B5F85C50A54226
:10FF700002D15C32104430BD0133EFE7B4E9002018
:10FF80002DE9F0470746894616469A46FAF7F2FCED
:10FF9000054600283FD04846FCF7DAF80446BAF197
:10FFA000000F26D000284ED00388BB424ED1EB7FF5
:10FFB000012B02D00B20BDE8F08702794AB1102254
:10FFC00031461730F4F798F90028F3D10020BDE846
:10FFD000F08700F11608037141463046FDF706F937
:10FFE00020B3BAF1000F01D0002323710920BDE82E
:10FFF000F08798B10388BB4205D02388BB420AD161
:020000023000CC
:100000000620BDE8F087102231460630F4F774F977
:100010000028F2D1DAE70420BDE8F0874846FFF770
:1000200097FF0446A8B100F10508D5E72780A4F89A
:1000300002901022314608F10100F4F772F92046CF
:1000400002F03FFEC2E70320BDE8F0871120BDE8C3
:10005000F0870520BDE8F087F0B58BB015460A2281
:1000600004AB002406460F46ADF8222003A90DF18B
:100070000E02284607930993ADF82040FEF75AFC7C
:1000800048F2030107A8FDF7F5FE01232A68BDF831
:100090000E10BDF80C00FFF773FF014607A80FF024
:1000A00076FABDF80E20BDF80C1007A8FEF710F97F
:1000B0000094234607AA39463046FDF704FF40B1B5
:1000C000054B01930093054A054B06490648F0F796
:1000D00013FD0BB0F0BD00BF235604008B1E0400BF
:1000E000FF5F04005021040022610400F0B58BB0D2
:1000F00015460A2204AB002406460F46ADF822201E
:1001000003A90DF10E02284607930993ADF820408C
:10011000FEF710FC48F2030107A8FDF7ABFE2346EB
:100120002A68BDF80E10BDF80C00FFF729FF014644
:1001300007A80FF02CFABDF80E20BDF80C1007A888
:10014000FEF7C6F80094234607AA39463046FDF765
:10015000BAFE40B1054B01930093054A054B064991
:100160000648F0F7C9FC0BB0F0BD00BF23560400F1
:100170008B1E0400F35F0400502104002261040080
:1001800037B543888DF806100D46044601A90A4884
:10019000ADF80430FDF720FB15B1204602F0F3FD69
:1001A00020464FF6FF7320F8053B22220021F4F78A
:1001B000E4F803B030BD00BF0DFD0200F0B58BB018
:1001C000064610460A2204ABADF822200F46002551
:1001D0000DF10E0203A90793ADF820500993FEF725
:1001E000A9FBBDF80C00FAF7C5FB002831D0BDF81B
:1001F0000E00FBF7ADFF044640B10288BDF80C309D
:100200009A4228D10121FFF7BBFF2C4648F2030197
:1002100007A8FDF72FFE214607A80FF0B8F9BDF893
:100220000E20BDF80C1007A8FEF752F8002300932B
:1002300007AA39463046FDF746FE40B1074B019309
:100240000093074A074B08490848F0F755FC0BB0E4
:10025000F0BD0424DAE71124D8E700BF23560400D8
:100260008B1E04000E600400502104002261040073
:1002700037B5C46A054664B91A4B019300931A4A0C
:100280001A4B1B491B48F0F737FC6FF0150003B001
:1002900030BD6379022B06D8E379012B03D894F99A
:1002A0000A30002B07DA0F4B019300930E4A0F4BD5
:1002B0000F491148E7E74FF6FE730382022363718B
:1002C000637204F10C000D4911F0ACFA4FF6FF73A4
:1002D000A38700220023C4E91023094B25601C607A
:1002E0000020D4E7235604008B1E0400955F040011
:1002F00050210400C961040002620400E108030007
:10030000F85A002073B51E46264B1C68154654B992
:10031000254B01930093254A254B26492648F0F7A3
:10032000EBFB02B070BDB4F84830834203D1B4F89F
:100330004A308B4207D01C4B019300931B4A1C4B45
:100340001C491E48EBE710F07FFFD4E910238242DE
:100350008B4107DA144B01930093144A144B15494F
:100360001748DCE794F84E20B4F84C10AA4228BF96
:100370002A4684F84E2094F84F204FF6FF73AA4285
:1003800038BF2A469942236D84F84F201CBF0131A3
:10039000A4F84C10002BC4D03146284602B0BDE86A
:1003A00070401847F85A002023560400DD2004004E
:1003B000AA5F04005021040074640400AF640400C8
:1003C000E6640400024B186800B10079704700BF72
:1003D000F85A002030B589B003AB0D4605930021D3
:1003E0000793C36AADF8181007210446ADF81A1038
:1003F00033BB164B01930093154A164B1649174809
:10040000F0F77AFB48F2250105A8FDF733FDFFF769
:10041000D9FF014605A80FF0BAF80023009305AAFA
:1004200029462046FDF74FFD40B1084B019300934C
:100430000B4A084B08490B48F0F75EFB09B030BD8A
:10044000126812781A7102F067FCDBE72356040089
:10045000DD2004009360040050210400116B0400AF
:100460008B1E04004B6B040070B588B003AB0722F1
:10047000002405460E4605A848F225010593ADF86F
:100480001A200793ADF81840FDF7F4FCFFF79AFF28
:10049000014605A80FF07BF80094234605AA3146D3
:1004A0002846FDF710FD40B1054B01930093054A26
:1004B000054B06490648F0F71FFB08B070BD00BFAA
:1004C000235604008B1E04008260040050210400A7
:1004D000D36A0400034B1B680BB1587970470220A4
:1004E000704700BFF85A0020034B1B680BB1587AC5
:1004F00070470220704700BFF85A0020024B18686E
:1005000000B18079704700BFF85A002070B588B0FC
:1005100003AB0822002405460E4605A848F2280130
:100520000593ADF81A200793ADF81840FDF7A2FC2B
:10053000FFF7D0FF014605A80FF029F8FFF7DEFF0F
:10054000014605A80FF023F80094234605AA31467A
:100550002846FDF7B8FC40B1054B01930093054ACE
:10056000054B06490648F0F7C7FA08B070BD00BF52
:10057000235604008B1E0400A460040050210400D4
:100580003F6C0400024B186800B1C079704700BF8F
:10059000F85A002070B58AB00E46C46A002105AB37
:1005A000ADF82010072105460793ADF822100993F6
:1005B0002CBB224B01930093214A224B2249234812
:1005C000F0F79AFA48F20B0107A8FDF753FCFFF782
:1005D000D9FF014607A80EF0DAFF0023009307AA0F
:1005E00031462846FDF76FFC28B3144B0193009366
:1005F000174A144B14491748F0F77EFA1BE01368AA
:100600001B78012B0DD8E2799A42DBD0E37102F01E
:1006100083FBE37913B1FAF793F8D3E7FAF7BAF863
:10062000D0E7064A02928DE80C000749054B044AC0
:100630000948F0F761FA0AB070BD00BF2356040004
:10064000DD2004003160040050210400116B04001F
:100650008B1E04008C6104005961040070B588B0E1
:1006600003AB0722002405460E4605A848F20B01FD
:100670000593ADF81A200793ADF81840FDF7FAFB83
:10068000FFF780FF014605A80EF081FF0094234686
:1006900005AA31462846FDF716FC40B1054B0193EB
:1006A0000093054A054B06490648F0F725FA08B0BD
:1006B00070BD00BF235604008B1E0400266004009A
:1006C000502104008C610400034B1B680BB1187AA5
:1006D00070470220704700BFF85A002070B5C46A06
:1006E0008CB04FF6FF720023ADF81A20A28E07934C
:1006F0000646ADF81C20A08F94F83920ADF82030C4
:1007000009938DF821200A930B93ADF81800FAF79E
:1007100031F906AD099030460A95FDF727F90388AF
:10072000ADF82C30FFF74EFE94F839308DF81430C8
:100730008DF82E00FFF7CEFE431E5A425A41FFF7B6
:10074000C3FF012808BF42F00202FFF7CDFE0128D7
:1007500008BF42F0040200231202ADF815200293F4
:100760000193009305AA03230A2109A8FBF7B4FD0E
:100770000CB070BD7FB513681B78012B05460E4683
:100780000BD9164A02928DE80C001549154B164AF2
:100790001648F0F7B1F904B070BDC46A7CB90F4BCC
:1007A00001930093104A0F4B0D491148F0F7A4F93B
:1007B0003146284604B0BDE87040FEF7E9B9627AD8
:1007C0009A42F5D0A08FFAF7D5F8638F5B07EFD583
:1007D0000028EDD02846FFF781FFE9E72356040003
:1007E00050210400055F0400DD2004008F66040032
:1007F000116B0400F0B5C46A8BB005AB0F46002541
:10080000082106460793ADF82050ADF82210099351
:10081000002C2CD12A4B019300932A4A2A4B2B49B6
:100820002B48F0F769F948F2280107A8FDF722FBE9
:10083000FFF750FE014607A80EF0A9FEFFF75EFE87
:10084000014607A80EF0A3FE0023009307AA39462D
:100850003046FDF738FB002830D0194B0193009348
:100860001C4A194B19491C48F0F746F926E0126852
:100870001378012B18D86179022907D063715D1AAA
:100880005378A37118BF012502F046FAA08FFAF73A
:1008900071F8638FDB07C6D50028C4D0002DC2D005
:1008A0003046FFF71BFFBEE7054A02928DE80C00B9
:1008B0000649054B034A0948F0F71EF90BB0F0BD95
:1008C00023560400DD200400AE6004005021040023
:1008D000116B04008B1E0400A66C04007B6C0400EA
:1008E0007FB550F80C6C0446008EFAF743F80546C5
:1008F00068B9174B228E029301920093154A164B4A
:1009000016491748F0F7F8F8258504B070BD618DD9
:100910000029FAD094F82C00FEF74AFFC0EB4012F1
:1009200000EB8202D20092B22AB1012903D92146FA
:100930000C4810F0EBFF3046FFF7D0FE638D4FF60A
:10094000FF7293421CBF03F1FF336385DDE700BFF5
:10095000235604008B1E04008A5F0400502104000B
:1009600027670400C86E00202DE9F04315468BB0C0
:1009700004AB0A2280460027284689460793ADF833
:100980002070ADF8222009930EF06DFEB0F5805F67
:1009900004460CD32E4B02938DE818002D4A2E4BA3
:1009A0002E492F48F0F7A8F80BB0BDE8F083284691
:1009B0000EF051FE0128064608D9254B02938DE81A
:1009C0004800244A244B25492648EBE748F24801D1
:1009D00007A8FDF74FFA2046F9F7CCFF0546F0B916
:1009E000042107A80EF0D3FD214607A80EF0D7FD7D
:1009F000314607A80EF0CBFD0023009307AA494615
:100A00004046FDF760FA0028CED0114B01930093C9
:100A1000154A114B11491548F0F76EF8C4E73946ED
:100A200007A80EF0B4FD214607A80EF0B8FDFFF7A9
:100A30004BFE012805D1284636B104F0EBFDF9F74D
:100A400049FB95F82010D4E704F0FEFDF7E700BF5E
:100A500023560400DD200400AD5E04005021040094
:100A6000826B0400E16B04008B1E0400AD6B04007C
:100A700070B588B003AB0722002405460E4605A8D2
:100A800048F214010593ADF81A200793ADF8184009
:100A9000FDF7F0F9FFF718FE014605A80EF077FD07
:100AA0000094234605AA31462846FDF70CFA40B1CA
:100AB000054B01930093054A054B06490648F0F79C
:100AC0001BF808B070BD00BF235604008B1E040045
:100AD0005C60040050210400086D0400FFF7C8BFEB
:100AE000F0B513681A78012A85B006460F460BD96F
:100AF000264B029301920093254A264B264927480C
:100B0000EFF7FAFF05B0F0BDFFF7DEFD02280AD0CF
:100B1000F46A7CB91D4B019300931D4A1D4B1E497D
:100B20001F48EFF7E9FF3946304605B0BDE8F04011
:100B3000FFF79EBF237A9342F5D0227202F0ECF8C1
:100B4000237AABB9174DB5F818214FF6FF739A42C7
:100B500003D005F1FC0004F077FDB5F8FC214FF659
:100B6000FF739A4202D0104804F06EFD04F0F2FDCB
:100B7000F9F7B0FAA08FF9F7FDFE638F9B07D2D586
:100B80000028D0D03046FFF7A9FDCCE7235604005B
:100B9000DD2004007360040050210400BB660400E3
:100BA000116B0400B4E9002094EB0020034B1B6898
:100BB0000BB1987A70470720704700BFF85A0020A1
:100BC00030B58BB00D460021ADF820100721ADF8EF
:100BD0002210C16A05AB04460793099329BB1F4B3A
:100BE000019300931E4A1F4B1F492048EFF784FFD3
:100BF00048F20E0107A8FDF73DF9FFF7D7FF0146C0
