:0200000270008C
:10800000807F002001BC070029BC07002BBC0700B3
:108010002DBC07002FBC070031BC0700000000008A
:1080200000000000000000000000000033BC07005A
:1080300035BC07000000000037BC070039BC070052
:108040003BBC07003BBC07003BBC07003BBC070038
:108050003BBC07003BBC07003BBC07003BBC070028
:108060003BBC07003BBC07003BBC07003BBC070018
:108070003BBC07007D9307003BBC07003BBC0700EF
:108080003BBC0700419407003BBC07003BBC07001A
:10809000719507003BBC07009DA207003BBC070091
:1080A0003BBC07003BBC07003BBC07003BBC0700D8
:1080B0003BBC07003BBC07000000000000000000C4
:1080C0003BBC07003BBC07003BBC07003BBC0700B8
:1080D0003BBC07003BBC07003BBC070000000000A6
:1080E0000000000000000000000000000000000090
:1080F0000000000000000000000000000000000080
:10810000000000000000000000000000000000006F
:10811000000000000000000000000000000000005F
:1084000010B5054C237833B9044B13B10448AFF3CE
:1084100000800123237010BD8C2C00200000000080
:10842000A4D20700084B10B51BB108480849AFF3A8
:1084300000800848036803B910BD074B002BFBD030
:10844000BDE81040184700BF00000000A4D207009C
:10845000902C0020702C002000000000154B002BF9
:1084600008BF134B9D46A3F5803A00218B460F466B
:108470001348144A121A00F065F80F4B002B00D075
:1084800098470E4B002B00D0984700200021040095
:108490000D000D48002802D00C48AFF3008000F01A
:1084A0002BF82000290002F09FFA00F011F800BF1D
:1084B00000000800807F0020000000000000000095
:1084C0008C2C0020E038002000000000000000009C
:1084D00008B5074B044613B10021AFF30080054BEC
:1084E0001868836A03B19847204600F033F800BF4C
:1084F0000000000034CF070070B50E4B0E4CE41A9C
:10850000A41000251E46A54204D056F825309847F1
:108510000135F8E704F000FD084C094BE41AA410FB
:1085200000251E46A54204D056F82530984701354F
:10853000F8E770BD682C0020682C00206C2C00200F
:10854000682C002002440346934202D003F8011B2A
:10855000FAE77047FEE700BF2DE9F04F0388112BC3
:108560008DB0044618D002D8102B05D03BE0122B5A
:1085700031D0502B1DD036E0914B82881A8000F10B
:10858000100303CB8F4A904B1060516000221A7089
:108590008E4BDB893BBB24E0894B4FF6FF721A8080
:1085A000894B00221A7002F099FCE0B1874B9B695D
:1085B0000EE0864DC288EB899A4214D1038A022BC1
:1085C00011D1837CD9070CD402F088FC58B1AB6977
:1085D0004BB1984707E000F1080303CB794A1060DC
:1085E000516002F07DF92388142B00F09D8218D889
:1085F000102B28D008D8022B40F0AC84744B0021FB
:10860000188800F042FEB5E3112B29D0132B40F05F
:10861000A1846F4B002218888521134600F047FE85
:10862000A8E3522B00F0878206D8502B00F08A82F4
:10863000512B2CD000F08EBC552B00F09783562B7D
:108640001BD000F087BC624BA2881A80614A136875
:1086500023F002031360604B01221A7000F07ABC11
:1086600000F0A2FD08B102F083F9594B4FF6FF72FA
:108670001A80594B187000F06DBCA379002B40F0A4
:108680006984534B1321188800F017FE72E3A57913
:10869000002D00F05F8408A800211022FFF752FF90
:1086A000022D40F057844D4D2289AB899A4240F00B
:1086B0005184A37B043B022B40F24C849DF826306E
:1086C000434E298A308843F001038DF82630238AEF
:1086D000ADF82830638AADF82A3004F11403022281
:1086E0000B93002306938DF82020ADF8182005ABDE
:1086F00006AA079300F0D3FD374668B99DF81430F9
:10870000DA0709D440F2FD133088ADF8243008A907
:1087100000F0C3FD00F01EBC00263888ADF82460D0
:1087200008A900F0BAFD002840F0148408A83146DA
:108730000C22FFF707FF207D431E052B00F2F2817C
:10874000DFE813F00600870196019A00F001C801E6
:10875000638A062B01D00120E4E12149E07D4B88AA
:108760000B80237E627D09921B0443EA0023A07DD7
:108770000343607E43EA0063012082420A938DF83E
:10878000200001D0022A6AD116480270154A1478D6
:10879000012C02D0022C2DD063E0002B63D0B3F566
:1087A000807F62D80025104B10481D70202229467A
:1087B000FFF7C8FE0E4B0A9A1D639A635AE000BF8A
:1087C0002C330020583300202E330020303300207B
:1087D000622C0020E83600202A330020FC360020DE
:1087E000A82C0020602C0020A8360020483700204C
:1087F00010370020002B36D0C3F30B0232B1A54A4C
:10880000A548526D00681A4482422CD1B3F5805FAE
:108810002BD8A24A127852B39E4A9F4C506D2468BE
:108820001D18A54223D853640B79D46C946401338A
:1088300003F003039A4C0B710023CB80236810656F
:1088400001332360974B10631B68974A184401213A
:1088500001F096FB68B12368013B236001E0072427
:1088600008E0052406E0032404E0042402E00824D0
:1088700000E001240120EAE003238DF820308B4B37
:108880001B78012B02D0022B4ED02EE3814BD96BEB
:108890009A6B91421F4640F0D880804D2B780BB1E7
:1088A0000124D3E002F076F8012840F01E83804BCB
:1088B00093F874201C4692B393F87A30002B00F0A2
:1088C00014837C4B93E803001E46002800F00883C5
:1088D000002900F0058394F8DB3023B194F8DC30F4
:1088E000002B40F0FD8294F88420714B002A00F0A8
:1088F000F782D3F88820342A40F0F28213F88CEF04
:108900000022724580F2EC8243F20C0C53F8048F83
:10891000BCF800C0E04500F031820132F1E71B787D
:10892000002B00F0E282DBE25A4B196D5A6D586C55
:108930008A1A90421F4640F088800020586459658A
:108940009B6CFB6401F054FC002840F0C982524B40
:10895000396D1A6891429846A2D1514B1B6813B1E8
:1089600001F006F8F9E7524E96F8B930032B1AD108
:10897000504D514B2B604B4BD8F8001018684FF0FE
:108980002009C5F8049002F03DFC06F1BB01002867
:108990004A46286814BF0A24012404F099FA0028E2
:1089A00018BF052400E00A247B6923B1012B40F0A5
:1089B0009782424900E04249012C2FD196F8A1301C
:1089C000032B15D8DFE803F002050B0E01238B60A3
:1089D00015E0A5238B60D6F8A4307B6318E0AA23AA
:1089E0008B6010E0AC238B60D6F8A4307B630AE088
:1089F00023B1023B012B0AD80A2404E00A24D6F84A
:108A00008030BB6004E0D6F88030FB6000E00A24D0
:108A1000BB6C4B60D8F800300B6003E000228A602A
:108A20004A600A60002120222648FFF78BFDFF21C3
:108A3000B2222548FFF786FD002324483B6301F05E
:108A4000D7FB002818BF0A2400E008240420214690
:108A50007EE2638A032B01D0022063E0A27D637D66
:108A600043EA02231A4A02205380138001216FE255
:108A700004238DF820300D4B1B78012B06D0022BE0
:108A800040F03882034B186D996C30E2014BD86B83
:108A9000196C2CE210370020A4360020A8360020E4
:108AA000543300206C38002045A60700602C0020BD
:108AB00074330020E0360020703800203437002066
:108AC00028370020483700206C37002055A60700C3
:108AD000A82C0020638A022B01D0062022E0637DAF
:108AE00009930622012B8DF8202002D0022B40F0A2
:108AF0002B82AD4A1370AC4B1B78012B0AD0022B92
:108B000040F02482A94B4FF48050D3F84880D3F82A
:108B10005090F2E1A54B4FF48070D3F84080D3F829
:108B20003C90EAE1032113E20021A0880A460B46AB
:108B300000F0BBFB1EE10021A0880A460B4600F0B6
:108B4000AAFB17E19A4BE2889B889A4240F0028286
:108B50000C2208A80021FFF7F5FC934A954E1278E5
:108B600002238DF8203004F1120B238ACDF824B0B3
:108B7000012A0A9302D0022A1AD0E3E08B4FFC6B41
:108B8000BA6B1919914201D93D6CDDE038191A46CA
:108B900059465C3004F0ACF90A99FC6B09980C4416
:108BA00007F14002FC6300F0B7FB05463864CBE0F8
:108BB00081497E4A0978146D956C9046002900F031
:108BC000C380B3F5807F00F2BF801A190292029928
:108BD000D8F854208A1AD8F844108A42474600F23E
:108BE000B380194608F148025846039300F094FBFD
:108BF000029BB8640546C8F85030F088039BDFF844
:108C0000B4A1C218FF2A0AF1500932790ED800EB3C
:108C1000022048441A46594604F06AF9BAF8063068
:108C20000A9A029C1344AAF806304FE0C0F58074FB
:108C3000A4B200EB022059462246484404F058F9F9
:108C40000A9BBAF80620D8F830001B1B0A93099B30
:108C500022441C440994594B594C19682368013328
:108C600092B223609AF80430AAF80620033208442E
:108C7000921009EB0321534B01F020FA40B9D8F8C8
:108C80003030BAF80620029C1344C8F830300AE0AD
:108C90002368D8F84C50C8F84850013B2360D8F8F6
:108CA0005440C8F8504030790A9A424F013000F0E1
:108CB000030000233071F38042B109EB00200999D1
:108CC00004F016F9FB880A9A1344FB80F288DFF857
:108CD000E4A0002A38D0D8F85430D8F83000D8F8BA
:108CE0004410324FD31A03448B422DD3334BDFF859
:108CF000D080D3F800E0D8F800309AF8041001339F
:108D00000332C8F80030704409EB012192102D4B5A
:108D100001F0D4F928B93B6BBAF8062013443B6341
:108D200008E0D8F80030FD6C7C6DBD64013BC8F8EC
:108D300000303C653379013303F0030333710023C2
:108D4000F38001E000252C4676881A4F002E00F0B3
:108D500001813B88013B9BB23B80002B40F0FA80B5
:108D60002046294602F00AF93E80F3E0A088172148
:108D700000F08FFA002800F0ED8074E494F8A12050
:108D8000032A00F2AD80DFE802F0022C212194F8E2
:108D90007C30002B00F0A4800B4BD3F88020BB6804
:108DA0009A42C0F09D801CE0602C0020103700200B
:108DB000FC360020A82C0020A83600206C380020AB
:108DC0005433002045A607007433002094F87C300B
:108DD000002B00F08580614BD3F88020FB689A421D
:108DE0007ED994F8E830DFF87481002B78D15C4BA1
:108DF00033602023DFF88C91736002F003FA0028BF
:108E00006ED1584E98F8E92006F10807384608F167
:108E1000EA0104F06DF898F8E930B764402BF36488
:108E200063D199E84004002E5FD016F003095CD1AD
:108E300003F0E0FE3146009052464B483B4603F0BB
:108E4000DDFE002851D0494A98F8A130C2F80090C0
:108E50001646032B44D8DFE803F002190A2194F8E0
:108E6000B030002B3CD03D4BD3F8B43014E094F834
:108E7000A830002B34D0394BD3F8AC2032603C4BB7
:108E8000C3F5FC239A421CD90424DFE594F8A230F0
:108E900033B3324BD3F8A430336012E094F8A820F7
:108EA0002E4BEAB193F8A220D2B1D3F8A410D3F894
:108EB000AC205318336009B90324C7E5002AFBD05E
:108EC000DDE727482B49202204F012F830680028FB
:108ED000F2D002F0CDF80028D6D101F089F908B11E
:108EE0000A24B3E501242C70B0E50524AEE502F0B8
:108EF00045F82FE0032005212AE03A884FF6FF735A
:108F00009A4227D01C4B1B68DB0723D51B4E6023DE
:108F1000337006237370F11C0123B37000F0AAF9BB
:108F2000033084B23119484600F0A4F9204484B2D9
:108F30003119404600F09EF9114BA989221892B2CE
:108F4000188800F014F905E0072100E0052106204B
:108F500001F0F4FF0DB0BDE8F08F00BF74330020C6
:108F600070380020A82C002038CF0700A43600203D
:108F7000008007002F340020E8360020EC36002067
:108F8000622C0020E0360020A6DF70477DDF7047AE
:108F900073DF704772DF7047084B5A6E013A5A66AA
:108FA00022B907490A7822F002020A701B6E034AAE
:108FB0000133042B08BF0023136670474C31002097
:108FC000C531002028DF704729DF704730B50446DF
:108FD00085B00D46684600211022FFF7B3FA237AC8
:108FE000012B0CD0022B12D10123A2898DF8003065
:108FF000E389ADF80A20D31AADF8083007E0002362
:109000008DF8003023690293A38AADF80C306368B1
:109010000193236868469B682946984705B030BD90
:1090200038B51B4A516E146E134681B3182505FBE3
:1090300004252A7A012A05D0022A23D1A889FFF71C
:10904000C1FF14E0182000FB0433E98A1869AA8ADA
:109050000833521A5B68B2F5806F4FEA8101084409
:10906000B4BF92B24FF480621944FFF7ADFF1128EC
:1090700007D1084A137823F0020343F00403137066
:1090800038BD20B128460921BDE838409EE738BDEB
:109090004C310020C531002070B52B492B4B0A788C
:1090A0001C6E12F0020F06461D4640D01820022EFC
:1090B00000FB043002D0032E29D042E0244B0021D3
:1090C0001970037A012B00F1080202D0022B13D091
:1090D00037E0C28A818A8B1AB3F5806FB4BF9BB226
:1090E0004FF48063134418229BB202FB04548B425A
:1090F000E38226D1002115E0938801339380D38841
:1091000001339BB2D38012899A421AD10AE0104AE5
:1091100013780133DBB2032B01D8137011E0002365
:1091200013700821FFF752FFFFF736FF09E05007E1
:1091300007D55B6E02F0FB020A7013B142F0020227
:109140000A70BDE870406BE7C53100204C3100204B
:10915000F830002008B501F00BFC082910B501D04B
:1091600001F006FC03684068BDE81040184730B5C0
:1091700087B004460D46ADF8062002A81022002153
:10918000FFF7E0F901238DF80A300DF1060304938F
:109190002046044BADF8085002A90593FFF7F4FEF2
:1091A00007B030BDEC36002030B5304D296811F0E5
:1091B00002018BB053D1102201A8FFF7C3F90B2392
:1091C0000122ADF8023002238DF814308DF81520FD
:1091D0008DF81830062259238DF816208DF8193095
:1091E0000322FE230DF11D000DF102018DF8172061
:1091F0008DF81A30FFF7CAFEE0B9BDF802100B294E
:109200009DBF4B1C8DF81B3009230C2395BFC9183B
:109210008DF81B3089B2082388BF14214FF000025B
:1092200094BF8DF81C308DF81C3005A8C9B21346C8
:10923000FFF7B0FE0446A8B98DF8040002908DF83F
:109240000C002823ADF8100001A8ADF80E30FFF790
:109250009FFE30B92B6843F002032B6002E000242C
:1092600000E0044620460BB030BD00BFE8360020C9
:1092700013DF7047C0F3072308704B70C0F3074338
:10928000000EC8708B700420704767DF704763DF83
:109290007047ADDF7047A9DF7047A8DF7047A5DFD3
:1092A0007047A2DF7047A0DF704786DF70477FDF1F
:1092B00070477CDF70477ADF704776DF704774DF76
:1092C00070476DDF70476CDF704738B50B4C616ECF
:1092D0000429054610D0226E8B18032B88BF043B4F
:1092E00018220131616602FB034420460021FFF78A
:1092F00029F92C60012038BD002038BD4C310020F8
:10930000044A137813F0060F03D143F002031370DD
:1093100086E67047C531002030B512B11368DB43D3
:1093200001E04FF0FF33014488420DD010F8012BCB
:1093300053400822054D13F0010418BF2C46013A92
:1093400084EA5303F6D1EFE7D84330BD2083B8ED6C
:1093500010B5084B9A685AB150B9EFF3108272B643
:1093600005491C680C605C684C60986002B962B684
:10937000002010BDAC36002000E100E073B502A86B
:10938000002300F8063D01F00BFD294B1B7803F08C
:10939000FF05002B46D1274B1A68002A42D0264AE7
:1093A000D2F80813C9073DD51D601B68019302A8B8
:1093B000224C019BD2F8086500F8055D01F0F0FC35
:1093C000A16860681F2994BF4B1C2B461F2994BFBE
:1093D0004A1C00228342A26004D11F2B94BF013398
:1093E0000023636063689DF803009A423ABFC3F1AB
:1093F0002103D218D21AE3682144934238BF0F4B9D
:109400000E7438BFDA60FFF7A3FFA36862681F2BF2
:1094100094BF01330023934201BF074A0123C2F8DE
:10942000083353609DF80200FFF792FF02B070BD51
:10943000C431002000D1004000D00040F8300020AE
:1094400070B5254A254B0021C2F84011C2F84411DD
:10945000C2F84811C2F84C11C2F80011C2F8041148
:109460001B68002B36D01E48D2F804250468141B54
:1094700024F07F440D461A68944215D3A41A15446B
:109480001A7CDE696AB100221A74164A12682AB17F
:1094900058699969904720B101F06AFA5A69986948
:1094A00090470EB13346E6E70F4B104A1978137810
:1094B0008B4205D10133DBB2022B08BF00231370AE
:1094C00012780B4B03EB82034FF480125D63094B60
:1094D000C3F8002170BD00BF001001401C35002002
:1094E00024350020A0340020203500202135002024
:1094F000F830002000E100E010B50A494A788C7885
:10950000531CDBB29C4208BF00230C789C421FBF57
:109510000370486802EB420200EBC20008BF002063
:1095200010BD00BFB836002038B50D4B0D4C4FF4C0
:109530000032C3F8802001254FF48033C4F848334B
:10954000C4F80833656001F083FC074BA560002474
:109550001C6001F07DFC054B83F83C4038BD00BF2A
:1095600000E100E00010014024350020F830002028
:109570002DE9F74FBB4ABC4913780978BB48BC4D6D
:10958000D0F800E0994211D00133DBB2022B08BFC2
:1095900000231370137805EB83034FF001085F6B12
:1095A00007EB0E0323F07F43036001E00027B8467A
:1095B000B04CB1492378D1F8009095F83DC00194A2
:1095C000019CAC4A66789E4227D003EB430B566859
:1095D00092780133DBB29A4208BF002316F83B2091
:1095E000022A06EBCB0A03D0032AE9D10E680DE06C
:1095F000D1F800B0DAF804205E46DA46002EDFD05B
:10960000964200F01781B246F669F7E71EB10022D4
:109610003274F669FAE70E60D2E785F83DC00E684D
:10962000B8F1000F02D0002294461AE0B6EB09060A
:1096300018BF012642461CE0BF1BB44400261E6032
:10964000D3F80C808C4EDC693460B8F1000F08D080
:109650000CEB0E0626F07F46DA615E60C3F80880E8
:109660001A460B6823B11E68B742E5D2F71B1F608C
:109670000126D1F800C095F83D8012B11346D26999
:1096800030E0019B019C1B786778DFF8E8A19F42DE
:109690007BD003EB430E9AF802B0DAF80470013382
:1096A000DBB29B458AF8003008BF8AF8002007EB40
:1096B000CE0917F83E70D9F80430012FE1D11F7C94
:1096C000002FDED1D9F808405C60D9F80C409C60CE
:1096D000D9F81040DC60D9F814409C61B8F1000F53
:1096E00000D05F60D3F804A00768DFF89891C7EB5B
:1096F0000A0E2EF07F4ECE45D3F8089002D80EEB1E
:10970000090708E0CAEB070727F07F47B9458CBF78
:10971000C7EB090700271F60D1F80090DFF858A1B8
:1097200000274FF0010E5F609F6083F810E0DF615B
:10973000B9F1000F0BD0D3F800E0D9F80070BE45A6
:1097400008D8CEEB0707C9F80070C3F81C90CAF818
:10975000003092E74F46D7F800A0D64509D9CAEBAA
:109760000E0ED7F81CA0B946BAF1000F07D0574625
:10977000F1E7CEEB0A0AC7F800A0BA464F46C3F895
:1097800000E0C3F81CA0FB6177E70B68634501D1DB
:10979000002E49D0002B45D0384E0468D6F80485F9
:1097A000D3F800A095F83C30C4EB080727F07F47BA
:1097B0000337A3B9324A4FF480334FF400314FF0EE
:1097C0000109C6F84433C6F80433C2F880111160A9
:1097D000C6F8009001F03CFB254B83F83C905745C0
:1097E0002CBFE31904EB0A0323F07F44C6F840457D
:1097F000D6F80435214AC8EB030323F07F43C8EBB6
:109800000404033324F07F44A3420DD9D2F8043575
:10981000C2F8403501F01CFB194B4FF40032C3F87D
:10982000002101E0FFF780FE002385F83D3003B002
:10983000BDE8F08F92450AD1DBF81C600E6036B9A6
:10984000DFF838B04FF0010CCBF808C0066016689E
:10985000D269CAF81C20002A3FF4B2AE146826442C
:109860001660ADE62035002021350020243500208B
:10987000F8300020B83600201C35002000100140D0
:1098800000E100E0FEFF7F002DE9F743064602A855
:10989000002400F8014D0D46174601F081FA234BD4
:1098A000234A18781178CBB2224909888B4238BFF5
:1098B0000133C0B238BFDCB2844209D014781378C7
:1098C000DBB28B423ABF0133DBB20023137001E0FD
:1098D0004FF6FF749DF80700FFF73AFD4FF6FF7350
:1098E0009C421FD0DFF85890D9F800304FEAC408E6
:1098F00003EB080243F834708EB185B10E4B188823
:109900000E4B1B68314600FB04302A4603F0F0FA88
:10991000D9F8003098440020A8F8045003E0002053
:10992000908000E0042003B0BDE8F083A136002061
:10993000A0360020A2360020283300209C360020CC
:109940004835002007B5084B1B88072B8DE803001E
:1099500005D968460821054AFFF796FF00E009206F
:1099600003B05DF804FB00BF283300205B910700C3
:1099700070B5114C114A237812789A421BD0237883
:109980000F48104A068812680F48DBB219B202EB82
:10999000C105006852F83120A98806FB03009047F2
:1099A0000A4A23781288DBB29A4286BF0133DBB2BF
:1099B00000232370DDE770BDA1360020A036002013
:1099C00028330020483500209C360020A236002095
:1099D0002DE9F04F0022C9B00C468D5CE37843EAD4
:1099E0000563657843EA0543A57843EA052308AD96
:1099F0000434AB500432402AEFD12A463023916B15
:109A0000576A92E860004FEA714484EAF14484EABC
:109A100091242F443D194FEAF61484EAB64484EAAF
:109A2000D6012944013B116402F10402E7D1426DE1
:109A30000192826D0292C26D0392026E0492426E96
:109A40000592826E0692C26E0792924604AA92E82E
:109A50000450D0F85080DDF80CB0029E019F4446BF
:109A6000274951F8235008A951F8231005EB0109A3
:109A70004FEAB21585EAF22585EA726109EB010524
:109A80002EEA02090CEA020189EA01010D4486EA84
:109A90000701AA44214006EA07054D404FEAB401F8
:109AA00081EA743181EAB45101332944402B0BEB34
:109AB0000A0901EB0A05B346F24606D0E6463E46E1
:109AC000944627464A462C46CAE7019B1C44029B03
:109AD00044651F44039B87651E44049BC6654B4435
:109AE0000366059B1A44069B426663448366079B94
:109AF000454473440565C36649B0BDE8F08F00BFB7
:109B000078CF0700034B01B919705B6803B11847A0
:109B1000704700BF38310020094A936810B523F020
:109B2000010419B923F00303936002E044F0020436
:109B30009460436813B1BDE81040184710BD00BFE2
:109B4000383100200E4B0F4AC3F800260E4BDA685E
:109B5000198A8A4211DB0D4A127862B9BFF34F8F1E
:109B60000B490C4BCA6802F4E0621343CB60BFF3AD
:109B70004F8F00BFFDE7002200E00132DA6070473E
:109B8000000001403546526E383100202A33002053
:109B900000ED00E00400FA05F0B50346186880F314
:109BA00008885868FF2464B2EFF30585002D01D1C1
:109BB000A64600472546064621273FBAF0B40024B2
:109BC000002500260027F0B4F92040B2004700BF6E
:109BD000F0BD13DF704761DF704748DF704708B59D
:109BE000044B9B6F042B04D101F0FAF9FFF7C0FE80
:109BF000F6E708BD3831002000200146014AFFF792
:109C000043BE00BF9D9C07002DE9F341224BDD6F51
:109C1000D3F88040B5FA85F5B4FA84F46D09640987
:109C20001F46002D32D197F88430002B30D101A887
:109C3000FFF7D3FF052807D008B100F099FE164BB7
:109C40000198DB6F984700E00125ECB997F8843064
:109C5000114EEBB902A9D6F88880B6F8863021F803
:109C6000063D4046FFF7B7FF0528044606D000280A
:109C7000E3D1D6F880304046984700E00124002D1B
:109C8000D1D0002CCDD003E015B9CCE7002CDDD02D
:109C900002B0BDE8F08100BF3831002008B509B13D
:109CA00000F066FE034B93F88C3013B1BDE808401A
:109CB000AAE708BD3831002008B500F059FEF0B51C
:109CC00085B00F468D6869460646144601F0E7FBED
:109CD00088B1B86878B17B7803F03003202B03D1CA
:109CE0002846214601F074FB68462946224601F0C9
:109CF000B7FC019B736005B0F0BD2DE9D34F14464E
:109D00006946082200F06FFD90B39DF801609DF850
:109D100002809DF805A00027002332023B434FEA52
:109D20000846002732433B439DF800609DF80380BE
:109D300000273B439DF804704FEA0A2932439DF8FF
:109D400006A04FEA086632433B43002643EA090374
:109D500032434FEA0A499DF807A0324343EA090318
:109D600032434FEA0A69324343EA0903C4E9002354
:109D700002B0BDE8D08F13B5144601A9042200F04B
:109D800032FD70B19DF806309DF805201B0443EAB2
:109D900002239DF8042013439DF8072043EA026341
:109DA000236002B010BD73B50D4601A906461446E6
:109DB00000F0E6FC98B1019A511C0FD26B7803F0C9
:109DC000C003802B0AD02B79994207D83046214610
:109DD00000F009FD019B0022E25400E0002002B0E7
:109DE00070BD73B50D4601A90646144600F0C8FCC7
:109DF000A8B1019BFF2B11D8591C0FD26A7802F031
:109E0000C002802A0AD02A79914207D821463046DA
:109E100001F8013B1A4600F0E6FC00E0002002B029
:109E200070BDF7B50F466946164601F0EDFC50B31C
:109E3000DDE90045002304F001026D084FEA340417
:109E400013431CBFE443ED43E8B13B79082B02D137
:109E5000C6E9004517E0042B02D1346022460AE02F
:109E6000022B03D1A3B233801AB204E0012B09D133
:109E7000E3B233705AB2D317AB4206BFA2420120FD
:109E8000002000E0002003B0F0BD37B50D46694664
:109E9000144601F0B9FC20B32B79082B04D1DDE97D
:109EA0000001C4E9000113E0042B03D1DDE9000146
:109EB00020600CE0022B03D10098208080B206E0E5
:109EC000012B0DD1DDE90001207000F0FF00002121
:109ED000DDE90023994206BF90420120002000E006
:109EE000002003B030BD37B50D466946144601F079
:109EF0008BFC20B32A79082A04D1DDE90023C4E9C8
:109F000000231CE0009B042A18464FEAE37103D1AA
:109F100023601A460B460BE0022A03D19BB2238032
:109F20001AB204E0012A09D1DBB223705AB2D31766
:109F30008B4206BF82420120002000E0002003B0D7
:109F400030BD08B50C220021FEF7FCFA034B0022BD
:109F50001A635A631A615A6108BD00BF10370020A6
:109F600018DF70471FB5002110226846FEF7EAFA95
:109F7000022368460093FFF7F3FF05B05DF804FB8A
:109F80002DE9FF41484FBB6805465807144616D5D2
:109F90009A074DD443F00103BB6097F88D30DB077F
:109FA0007CD5424B424A93421E4602D3414A9342D9
:109FB00044D30220BB6823F00103BB6070E0C5F30B
:109FC0000B03002B36D10F462A463B4B0220C3F829
:109FD0000405D3F800040028FBD03748C0F8082552
:109FE000D3F800040028FBD0334B0020C3F804054D
:109FF000314BD3F80034002BFAD0013F02F58052E8
:10A00000E3D105EB0136BCB1394610226846FEF7B4
:10A0100099FA2D0B01236846360B39468DF800302E
:10A020000194ADF80850ADF80A60A047384637E013
:10A030000A2035E0062033E0204631E065B3C5F361
:10A040000B030BBB33689D4220D31FFA81F8726863
:10A0500005EB08339A4219D3B8F1000F18D06846BF
:10A06000FFF733F9B0B1009B5C601E60009B0222D9
:10A070002D0B1A729D81A3F81080FFF741F9BB6880
:10A08000002043F0010398E7062093E7052091E7BD
:10A0900004208FE707208DE703208BE7012089E765
:10A0A00004B0BDE8F08100BF38310020742C0020DE
:10A0B000742C0020842C002000E001402DE9F043A6
:10A0C0000E4646491C468B6813F0040F85B00546C2
:10A0D000884611D09F0742D443F001038B6091F86A
:10A0E0008D30D8076ED53E4B3E498B421F4638D344
:10A0F0003D498B4235D238E0002E65D0002863D030
:10A1000040EA06039B0761D1002A63D0374B012147
:10A11000C3F80415D3F800140029FBD0002156F829
:10A12000213045F82130314BD3F800040028FAD013
:10A1300001319142F3D10021C3F80415D3F8001482
:10A140000029FBD0002674B1684631468DF80060C6
:10A1500001940295ADF80C20A04730463BE00A2060
:10A1600039E0022037E0204635E06EB365B345EABA
:10A17000060399072AD13B68AB4229D81FFA82F916
:10A180007A6805EB89039A4222D3B9F1000F21D0F6
:10A190006846FFF79AF898B1009B5C601F60009BCF
:10A1A00001221A72DE601D61A3F81490FFF7A8F86F
:10A1B000D8F8083043F001030020C8F808300AE05E
:10A1C000072008E0012006E0032004E0062002E06A
:10A1D000052000E0042005B0BDE8F0833831002000
:10A1E000742C0020742C0020842C002000E00140FE
:10A1F00038B50546194C237823B100F0F1FEFFF77E
:10A20000B7FBF7E7012323706560FFF7E8FC002246
:10A2100013480121FFF7B4FE07280246F5D018B114
:10A2200000232370032038BD0E4D58212846FFF728
:10A2300073F829464FF4AE7241F8040D0A4802F053
:10A2400057FEFFF7CCFC06480749084B5722FFF79B
:10A2500035FF0728F5D00028E2D138BD383100207D
:10A2600000F0070014370020C8310020059B0700CC
:10A2700010B50446FFF776FE60B9074B4FF0FF328A
:10A28000C3F880202046FFF7A4FC18B92046BDE89B
:10A29000104081E410BD00BF00E100E008B5074BAD
:10A2A000D3F8EC211AB1904738B100F061FB93F874
:10A2B0008C3013B1BDE80840A6E408BD3831002059
:10A2C00060DF704710DF70479D4B1B78062B0AD16B
:10A2D0009C4B1B68180706D19B4B1B6803F0F003CF
:10A2E000302B00F0B580964B1B78062B0FD1954B89
:10A2F0001B6819070BD1944B1B6803F0F002302A3E
:10A3000000F0AA8003F0E003402B00F0A5808C4B06
:10A310001B78062B0AD18B4B1B681A0706D18A4B78
:10A320001B6803F0F003302B00F09D80844B1B78FA
:10A33000062B0FD1834B1B681B070BD1824B1B686D
:10A3400003F0F002302A00F0948003F0E003402B89
:10A3500000F08F807A4B1B78062B0AD1794B1B6853
:10A36000180706D1784B1B6803F0F003302B00F080
:10A370008A80734B1B78062B0AD1724B1B6813F033
:10A380000F0305D1704A126802F0F002302A7ED025
:10A390006B4B1B78062B09D16A4B1B68190705D13B
:10A3A000694B1B6803F0F003502B7AD0644B1B7889
:10A3B000062B0FD1634B1B681A070BD1624B1B682E
:10A3C00003F0F002302A00F0B48003F0E003402BE9
:10A3D00000F0AF805D4AD2F8883043F47003C2F8D1
:10A3E0008830BFF34F8FBFF36F8F4FF01023D3F838
:10A3F0000C32DB0728D5564B0122C3F80425D3F8CD
:10A400000024002AFBD04FF01022D2F80C3223F0A7
:10A410000103C2F80C324E4BD3F80024002AFAD0C4
:10A420000022C3F80425D3F80024002AFBD0BFF390
:10A430004F8F4649474BCA6802F4E0621343CB6032
:10A44000BFF34F8F00BFFDE7434B444A1A6070478C
:10A45000434B444A1A6046E7434B444A1B68C3F3E4
:10A460004233136053E7424AD36823F08073D360CA
:10A470005CE74FF080430022C3F80C21C3F81021A1
:10A48000C3F8382566E73B4B03221A6071E73A4A66
:10A4900005211160012191679360384B3F221A60BA
:10A4A00076E74FF08052364BD2F80414C3F82015EB
:10A4B000D2F80814C3F82415D2F80C14C3F82815E0
:10A4C000D2F81014C3F82C15D2F81414C3F83015B0
:10A4D000D2F81814C3F83415D2F81C14C3F8401578
:10A4E000D2F82014C3F84415D2F82414C3F8481540
:10A4F000D2F82814C3F84C15D2F82C14C3F8501510
:10A50000D2F83014C3F85415D2F83414C3F86015D7
:10A51000D2F83814C3F86415D2F83C14C3F868159F
:10A52000D2F84014C3F86C15D2F84424C3F870254F
:10A530003CE7144B144A1B6803F04F03136049E7D0
:10A54000E00F00F0E40F00F0E80F00F000ED00E095
:10A5500000E001400400FA05642C00200090D003C4
:10A5600074C007400DF0ADBA440200103C05004035
:10A57000F0ED00E0A00500401056004014560040E9
:10A5800000C0004058020010E40E004010B5012247
:10A5900003680446984710B1A368013BA36010BD4F
:10A5A00043681A44426039B10139934204D013F828
:10A5B000010B01F8010FF8E70120704776DF7047C3
:10A5C00075DF704737B5154C20884FF6FF739842FA
:10A5D000254620D0A378227C0133DBB29A42A370B7
:10A5E00007D304F12001FFF7EBFFA0B1E3698BB9BA
:10A5F00011E00023A370237D33B13B21FFF7DEFF81
:10A6000010B1E36903B19847AB6923B102A80022F6
:10A6100000F8042D984703B030BD00BF2C33002054
:10A620005B689A68054B9A4206D142688368044980
:10A630000132013B0A604B60704700BF78D00700D1
:10A64000E0360020024A936A013B9362704700BFE4
:10A650002C33002008B50E4C0E4BE41AE4080025FC
:10A660001E46A54204D006EBC5035B68984758B167
:10A67000BFF34F8F0849094BCA6802F4E0621343E5
:10A68000CB60BFF34F8F01E00135EAE700BFFDE784
:10A690008C2C0020842C002000ED00E00400FA0542
:10A6A00038B5324D2B6813F0040459D143F004023D
:10A6B0002A602F4A2F4811682F4A00BF00BF00BFF1
:10A6C00000BF00BF00BF00BF00BF81422FD000BF4E
:10A6D00000BF00BF00BF00BF00BF00BF00BF00BF82
:10A6E00000BF00BF00BF00BF00BF00BF00BF00BF72
:10A6F00000BF00BF00BF00BF00BF00BF00BF00BF62
:10A7000000BF00BF00BF00BF00BF00BF00BF00BF51
:10A7100000BF00BF00BF00BF00BF00BF00BF00BF41
:10A7200000BF00BF00BF00BF00BF00BF00BF013AB5
:10A73000C3D1124A10884FF6FF72904204D0132101
:10A74000FEF7BBFD48B10DE09B0706D5FEF7B7FD50
:10A7500040B92B6843F002032B6000F0BFFB02E01E
:10A76000002400E00446204638BD00BFE836002043
:10A77000642C00200024F400C0D40100622C0020CE
:10A780002DE9F3418368074688460BB9002626E089
:10A790000DF10701FFF7FAFE06460028F6D09DF8F6
:10A7A0000740220619D504F07F040725BB68002B5B
:10A7B000ECD038460DF10701FFF7E8FE0028E5D0A0
:10A7C0009DF8072002F07F03AB401C43130605F100
:10A7D000070502D5232DE9D1D8E7C8F80040304657
:10A7E00002B0BDE8F08130B5044685B0154689B9A0
:10A7F0000268104B9A420DD0102D2046694605D9AB
:10A800001022FFF7F0FF98B1103DF5E72A46FFF759
:10A81000EAFF0DE0A368AB4201D2002008E0236804
:10A8200020462A4698470028F7D0A3685D1BA560FC
:10A8300005B030BDA1A507000023C26001604160E2
:10A8400083608B781A44026191F903301A444261A3
:10A850000878003018BF0120704710B542681178A1
:10A86000034600293AD002F10C014160147B2CB957
:10A870000168C268FFF7E0FF204610BD51781079EB
:10A8800001F03004302C0AD1547B04F03004302C19
:10A8900005D190781969091A196100200CE001F0BE
:10A8A000F004202C03D1517911FB00F004E001F0F9
:10A8B000C001802908BF0420517811F0300F02BF79
:10A8C000996801319960917B0144186901441961CB
:10A8D00092F90F2011445961012010BD084610BDA6
:10A8E00013B51E4CE38D228C9A420ED8628C9A428C
:10A8F0000BD3A36923B102A8012200F8042D9847C5
:10A90000002384F8343002B010BD94F83420134B87
:10A910002AB19B69002BF3D002A80022EDE79968C9
:10A92000DA689B78002B18BF11460D4B5B689BB112
:10A9300004290FD90B48436973B1437C012B0CBF29
:10A940000A46002200F052FA0028D9D0E369002B11
:10A95000D5D1D5E70720F9E70820F7E72C33002009
:10A96000B8360020C03600207BDF70477ADF7047A2
:10A97000BFF34F8F0549064BCA6802F4E0621343E8
:10A98000CB60BFF34F8F00BFFDE700BF00ED00E0DD
:10A990000400FA0570B50E4B0E4C9A6B0E4E0F4923
:10A9A000A1635C33E3630E4B636404F148050D4B14
:10A9B00022643046002229461A605A6000F008FDE1
:10A9C00004F1380031462A4600F04AFE70BD00BF4F
:10A9D000103700202C330020F0D00700A1A507007D
:10A9E00021A60700E03600202DE9FF47B94BBA4DFC
:10A9F00001214FF4A022C3F80C15C3F80425D3F8A5
:10AA000008250A43C3F80825B44A1960C3F800268C
:10AA10004FF0A04303224FF48021C3F84827C3F826
:10AA20000C15C3F844274FF40032C3F80C25AC4B87
:10AA3000AC49002628464FF4AE721E7002F058FA58
:10AA40002C68631C06D0281D58213246FEF764FC92
:10AA5000A0420DD0A04800214FF4AE72FDF772FD68
:10AA6000012300206B60FFF7C3FB08B1FFF780FFF5
:10AA70002A69994C43F20803012A1B680BD06269CA
:10AA80004AB1A76907F6FF7727F47F6727F00F071A
:10AA90001F44243401E01F461834A268A52A61D05F
:10AAA00002D8012A05D07BE0AA2A67D0AC2A6BD055
:10AAB00076E06969884A012972D1166BD2F824A020
:10AAC000F418C6EB0A06B6F5805F20464FF0010188
:10AAD0004FF00002B04628BF4FF48058FFF750FAFD
:10AAE000034600285AD1204639464246FFF7E6FA87
:10AAF000002853D103238DE8980068464FEA980355
:10AB00000393FFF72DFA0246002847D1384601216A
:10AB1000FFF736FA002841D12B6BDFF8BC91434494
:10AB20002B63FFF765FBB6EB080644444744CAD1E4
:10AB300043F20803514618683246FEF7EDFBD9F898
:10AB40002830984204BF0123C9F81C00664804BF9E
:10AB5000C9F82030C9F818A0FFF7F3F90020FFF773
:10AB600047FB0FE0384600F0C1FA0646B0B9204670
:10AB7000FFF7E7F93046FFF73BFB0DE0384621468B
:10AB800000F014FB002408E0384600F0AFFA28B9C2
:10AB90003846214600F00AFB012410B1012400E0F0
:10ABA00000245248D0F8C83623F00103C0F8C83654
:10ABB000BFF34F8F4FF080434D4ED3F81C15D3F8A1
:10ABC000202542EA012201323280BFF34F8F00215B
:10ABD000C3F81C15C3F82015D0F8C82642F00102AE
:10ABE000C0F8C8263288920092B23280002A6BD117
:10ABF00024B900F0C3FA002840F0B980FEF794FCB5
:10AC00003C4C3D4A3D4BC4F8743105210023917002
:10AC100004F5BC71137053705160394AC4F8F031B7
:10AC20004FF48010E02684F8F43184F8F531C2F84E
:10AC3000800182F81463106000F18040A0F56F205D
:10AC4000C0F8083582F81163D0F80435C4F8F8313B
:10AC500000293FF40BAF94F80C32002B7FF406AFC1
:10AC600084F80C32012384F80D324FF40051254B47
:10AC7000C4F8103204F5FE700A4600F0B7F8002858
:10AC80007FF4F4AE04F50873C4F81C3204F5327393
:10AC9000C4F870331C4B1D4F84F8740308221A80CB
:10ACA0001423A4F876331A4B84F87503FF1AFF08AF
:10ACB00006469846BE422DD058F8363098470028B0
:10ACC0007FF4D4AE0136F5E7C3F81C15C3F82015A0
:10ACD00094E700BF00000140103700203546526E57
:10ACE0003831002000F00700343700200000024017
:10ACF000483100202C330020B83600204599070049
:10AD000000E100E0459B0700283300208C2C002048
:10AD1000842C00201C4A1D4E137843F0010313704D
:10AD20001B4B1C4A1A601C4B04221A600023A362AE
:10AD3000AB6BCBB1FFF72EFEB0B1336A2BB9B36961
:10AD40001BB1164AC2F8783307E0EA6A0F4B5AB9CA
:10AD50009A694AB15B6AC4F87833D4F8780300F092
:10AD600087F9012384F87C33FEF702FEFCE743F207
:10AD700008052868FFF77CFA2868FFF779FA20466B
:10AD800004B0BDE8F08700BFC531002010370020B7
:10AD9000B431002099900700403100202C3300206E
:10ADA00070B5EFF3108572B60D4A9468012394B91B
:10ADB00093600C4B0C49D3F88060314011600A4914
:10ADC000C3F88010D3F8841051604FF0FF32C3F8FD
:10ADD0008420047000E0037005B962B6002070BDE5
:10ADE000AC36002000E100E0FC06FFBCF7B50746EA
:10ADF00002A8002400F8014D0E461546FFF7D0FFCB
:10AE00000DF10600FEF778FB70B1012303700D4BC6
:10AE10004760D3F8043583600B4B9DF80620C6606D
:10AE2000056144615A7300E004249DF80700FEF7B1
:10AE30008FFA24B9054B4FF48012C3F80021204645
:10AE400003B0F0BD00100140AC36002000E100E08E
:10AE5000204B21491A682F2300BF00BF00BF00BF4D
:10AE600000BF00BF00BF00BF8A422FD000BF00BF9D
:10AE700000BF00BF00BF00BF00BF00BF00BF00BFDA
:10AE800000BF00BF00BF00BF00BF00BF00BF00BFCA
:10AE900000BF00BF00BF00BF00BF00BF00BF00BFBA
:10AEA00000BF00BF00BF00BF00BF00BF00BF00BFAA
:10AEB00000BF00BF00BF00BF00BF00BF00BF00BF9A
:10AEC00000BF00BF00BF00BF00BF00BF013BC3D138
:10AED000704700BF642C00200024F40037B5154DE6
:10AEE0002B6923B3AB6A13B302A8002400F8014D09
:10AEF00085F82440FFF754FF0DF10600FEF7FCFA39
:10AF000040B10223037005F1140343609DF806303D
:10AF10006B7300E004249DF80700FEF719FA24B9CA
:10AF2000054B4FF48012C3F80021204600E00820B2
:10AF300003B030BDAC36002000E100E00D4B1A88B4
:10AF40004FF6FF739A4210B512D00B4BDC6BE4073F
:10AF50000ED5602483F8410083F8421083F8404006
:10AF60001046B3F85C100322BDE81040FEF7FFB8AE
:10AF7000082010BD622C0020AC360020164B2DE9B5
:10AF8000F0411E884FF6FF739E42884621D0134C35
:10AF9000E36BDB071DD5602384F84030032384F87E
:10AFA000413004F14301012384F84230FEF762F995
:10AFB000033085B204F1400779194046FEF75AF98B
:10AFC0002A18B4F85C10304692B2BDE8F041FEF7A2
:10AFD000CEB80820BDE8F081622C0020AC360020FD
:10AFE000204B21491A68214B00BF00BF00BF00BFA2
:10AFF00000BF00BF00BF00BF8A422FD000BF00BF0C
:10B0000000BF00BF00BF00BF00BF00BF00BF00BF48
:10B0100000BF00BF00BF00BF00BF00BF00BF00BF38
:10B0200000BF00BF00BF00BF00BF00BF00BF00BF28
:10B0300000BF00BF00BF00BF00BF00BF00BF00BF18
:10B0400000BF00BF00BF00BF00BF00BF00BF00BF08
:10B0500000BF00BF00BF00BF00BF00BF013BC3D1A6
:10B06000704700BF642C00200024F400A08601007B
:10B0700038B543F20803054619681A4B1A68A2F559
:10B080004052521A82422AD31748D0F88440C0F85E
:10B09000C011012C16D1C36F03F6FF7323F47F6335
:10B0A00023F00F03D21A95424FF0000202D94467F1
:10B0B00082670AE00B4484674267C0F8C03100F140
:10B0C000880404E000234367836700F17C04204682
:10B0D00000210C22FDF736FA2560002038BD04203F
:10B0E00038BD00BF14100010AC3600202DE9F0432D
:10B0F000214DD5F89820D5F8943002F6FF74E41A63
:10B1000024F47F6424F00F044FEA940909F6FF79D0
:10B1100029F47F6985B003F5805629F00F09C71817
:10B120000AB1934224D04FEA9908012368468DE87A
:10B1300088000296CDF80C80FEF712FFC8B90323F1
:10B1400068468DE8C801FEF70BFF90B9A145D5F818
:10B1500098308CBF0446C9EB04041B1B00204E44EE
:10B160004F44C5F89430FFF743F8002CDDD100E0E0
:10B17000002005B0BDE8F083AC36002010B50A4BC6
:10B18000D3F8840001280DD1D3F880405CB143F29C
:10B190000802D96F10680022FEF7BEF8031B584260
:10B1A000584110BD002010BDAC360020F0B5134B47
:10B1B000D3F898400B6885B005191C1B0323009336
:10B1C000A4080F4B019368460F4602950394FEF7BF
:10B1D000C7FE064630B93846FEF7B3FE3046FFF7E5
:10B1E00007F809E0684600211022FDF7ABF9684630
:10B1F00001950294FEF7B4FE05B0F0BDAC36002018
:10B200000080070070B59CB000231093002200233B
:10B21000CDE91223524B1493524B1593524B169374
:10B22000524B1793524B1893524B1993524B1A93FC
:10B2300003F17453A3F52303A3F692431B9311B9AF
:10B24000044645181BE00028FAD11DE0109B14F8B5
:10B25000011B1CAA1A440133402B02F8701C1093E6
:10B260000DD168466946FEF7B3FBDDE9122312F5FE
:10B27000007243F10003CDE9122300231093AC4286
:10B28000E4D13E4C656B0DB90E2067E0109B1CAA03
:10B290001A44372B4FF0800103F101036E4602F888
:10B2A000701C6B4406D89A1B382A13D0002203F86E
:10B2B000012BF8E79A1B3F2A03D8002203F8012B41
:10B2C000F8E730463146FEF783FB3046002138224E
:10B2D000FDF738F9DDE9122310980821E1FB00237E
:10B2E00022FA01F1CDE912238DF83F208DF83E10AE
:10B2F000110C120E8DF83C201A0A8DF83D108DF8B5
:10B300003B308DF83A2030461A0C31461B0E8DF832
:10B3100039208DF83830FEF75BFB2A4600231B9955
:10B32000D94011701A99D94011711999D9401172E7
:10B330001899D94011731799D94011741699D940A9
:10B3400011751599D94011761499D9400833202BDD
:10B35000117702F10102E2D1A36300201CB070BD9D
:10B3600067E6096A85AE67BB72F36E3C3AF54FA596
:10B370007F520E518C68059BABD9831FAC360020E1
:10B3800013B50446052920D8DFE801F0070F121F86
:10B390001F1C9DF90430002B18DA204601A9012258
:10B3A000FFF721FA0028F4D110E00021082206E07E
:10B3B00001A9FFF7E5F948B1019A20460021FFF7FE
:10B3C00012FA03E000210422F9E7002002B010BDC8
:10B3D0007FB503460A4668461946FFF72DFA30B195
:10B3E000684600F007F86846FFF737FAF7E707B056
:10B3F0005DF804FB30B54268527802F00F0108296D
:10B4000087B003461ED103691C68002C45D0002379
:10B410002373236862689D6868462946FFF70CFA23
:10B420006368049304F10C0305936B7803F0C00385
:10B43000802B08BF231D684608BF0493FFF7DAFF7F
:10B44000A468E2E712F0C00109D102F03000102830
:10B4500002D15A6911700CE090060AD506E08029E5
:10B460001BD1006900219206016016D55B69197035
:10B4700013E05A68517801F00F01072904D1906850
:10B480001969FFF7A5FF08E091681869127911B1F1
:10B4900001F02EFD01E0FDF755F807B030BD73B5A2
:10B4A0000D4601A90446FFF76BF9064608B90026C8
:10B4B0000AE094E80F0085E80F0001998A42F6D36C
:10B4C000A960A3685B1AA360304602B070BD2DE985
:10B4D000F04357687B7813F0C00C89B006468E465F
:10B4E000144603D0BCF1400F66D0B0E003F00F0269
:10B4F000594903F03003102B51F822500AD004D8D8
:10B50000002B40F0A480394608E0202B09D0302BD6
:10B5100040D09CE0636901221A7061682269A847E3
:10B5200096E0BEF1020FD4F8148023D1042A21D86A
:10B5300004A9FFF7B4FF002800F08980069B93B1AF
:10B54000616898F800204B7993420CD90F792369F0
:10B5500004A807FB0232A84730B198F80030013345
:10B5600088F80030EAE70120059B7360069B002BFA
:10B570006ED06CE098F800307979226997F804E091
:10B58000994264D9591C88F80010304661680EFB56
:10B590000322C4E7636939781970072A0AD16368FE
:10B5A00020691A796146FCF7CDFF636821699868C4
:10B5B000FFF70EFF3046B0E717693B6807F1040953
:10B5C00013B9FFF7DDFE43E0022911D104A9FFF70B
:10B5D00066FF00283BD03B68616804A84A4698474C
:10B5E000002834D0069B002BF5D1059B73602FE01B
:10B5F000012919D007D3052929D101A90422FFF770
:10B60000F2F8042515E000250DF1040801350B2D95
:10B610001DD0304641460122FFF7E5F8B8B118F9D0
:10B62000013B002BF2DB05E001A90822FFF7DBF864
:10B63000082568B1094B049301AB059300230695D7
:10B6400007933B68616804A84A46984700E00020D9
:10B6500009B0BDE8F08300BFB4D10700A1A5070081
:10B660002DE9F0478EB00027044602A80097019705
:10B67000FFF7E2F8A368002B44D0204608A9FFF7A3
:10B680007FF818B9A368002B3CD033E0089E002E49
:10B6900038D0039D4FEAD60806F00706039B1A78B8
:10B6A000424529D002A8FFF7D8F8039BAB42F5D159
:10B6B000B8455CD3039A537803F00F03082B4BD1A2
:10B6C0001778B84553D3069BD4F808901D68A36833
:10B6D000002D4AD0994548D12B68D3F800C0BCF161
:10B6E000000F6CD02046294642463346E0470028EA
:10B6F00040F08580002084E05B7803F00F02082A88
:10B70000D0D039E0039B049C5D7802A8FFF7A5F830
:10B710000028F7D115F0300F03D1039B1B7803B13C
:10B720000134BCB162090023934205D05DF82310B7
:10B730000131DFD10133F7E70EAA02EB830304F0F6
:10B740001F04C4F120044FF0FF3253F8383CE240AC
:10B750009342CFD1012054E002A8FFF77EF8039B6B
:10B76000AB42A7D14FF0FF3701E0994582D1204687
:10B770003146FFF705FE1EE013F0300F0FD1049B9A
:10B780003F2B0CD85A090EA901EB820203F01F03CC
:10B790000121994052F8383C0B4342F8383CE568A7
:10B7A00025B120464146324602ABA84720463146E5
:10B7B00002AAFFF78CFE00287FF45CAF9AE7D3F86B
:10B7C00008A09AF80030434519D151466A6808A884
:10B7D000FFF732F86B680C9305F10C030D939AF8A0
:10B7E000013003F0C003802B04BF2B1D0C930123F9
:10B7F0002B732046314608AAFFF769FE77E7AD684C
:10B8000065E70EB0BDE8F0872DE9F34781468A462B
:10B81000002600270024D9F808300BB900251EE0C7
:10B8200048460DF10701FEF7B1FE05460028F5D0A8
:10B830009DF8078008F07F002246C0B2002100F08A
:10B84000D3F918F0800F46EA000647EA010704F131
:10B85000070402D0462CDED1E0E7CAE9006728469B
:10B8600002B0BDE8F08700BF2DE9F043A14B95B0D1
:10B8700018680490FEF776FB00285BD19E48FDF720
:10B88000F7FC002856D19D4B9D4A1A609D4B5022D3
:10B890001A809D4B9D4A1A609D4B1C68C4F340342E
:10B8A0001CB14FF40052C3F8802004A89949FEF758
:10B8B00009FD974A20B17CB14FF4005313600BE0AF
:10B8C000954B0121197092F816335B09991E0529D1
:10B8D00002D8043B012B01D8FFF74AF88F4B996837
:10B8E000002900F066811A6842F480021A60002183
:10B8F0001C220DA8FCF726FE01239DF84820ADF878
:10B9000034308DF83C308DF83D308DF83E301723C3
:10B910000021ADF84430824B139161F30002019392
:10B9200014A9019B41F8303D0DA88DF84820FEF781
:10B93000C7FC019B0446002840F03F81794B7A4ABE
:10B940001A609DF810300D90012262F303030E90EF
:10B9500062F3071308A88DF81030FDF7B2FC38B970
:10B960009DF8213008A801338DF82130FDF7ABFC9C
:10B970000446002840F021816C4801F0C4FA6B496C
:10B9800082B204A8FDF795FC70B90C23ADF83430F1
:10B990001823ADF836300DA84FF4C873ADF8384011
:10B9A000ADF83A30FDF787FC0446002840F00581E9
:10B9B0005F4B4FF6FF7214A91A804FF659630120AE
:10B9C00021F8483D5B4A8DF80A00FDF76CFC002821
:10B9D00040F0B880584B04AC03F110051868596862
:10B9E000224603C20833AB421446F7D1534E04A893
:10B9F0003146FDF74CFC0446002840F0A480214667
:10BA00001C224FF014090DA8FCF79CFD21464A4664
:10BA100008A8FCF797FD9DF83430ADF80040374694
:10BA200043F004038DF8343017F802398DF80E30E6
:10BA300002234FF00108ADF80C30230A68F303032A
:10BA400068F3420468F30713E4B28DF8013044EA66
:10BA5000080403AD36F8020C8DF802400DA908AABF
:10BA60003B1D0895CDF824D0ADF82C90FDF719FCBE
:10BA70000446002840F0A18021461C220DA8FCF7B6
:10BA800061FD21464A4608A8FCF75CFD9DF834306C
:10BA9000ADF8004043F018038DF83430BB788DF8D2
:10BAA0000E30230A204668F3030368F3071368F394
:10BAB00042008DF80130C4B2172344F01104ADF8F0
:10BAC0002C3036F8020C8DF802400DA908AA07F1B7
:10BAD0000C03ADF80C800895CDF824D0FDF7E1FB00
:10BAE0000446002869D1164A136843EA0803136024
:10BAF0002BE000BFD8D1070000800700C031002034
:10BB000090380020BE31002024330020F99B07002C
:10BB100000E100E0B99C0700C4310020AC360020F1
:10BB2000002C0020B831002059850700ECD1070017
:10BB3000622C0020FC360020DCD10700FE360020FD
:10BB4000E83600200446002C37D100211C220DA825
:10BB5000FCF7F8FC40F6CD430E934FF480430F936F
:10BB600003238DF84030174B13930DAD0FCD164EB8
:10BB70000FC695E80700154B86E8070014481C70AF
:10BB8000FEF7F2FE88B9134B4FF6FF721A80124B84
:10BB90001C70124B5B6853B1114B1A7C3AB9114AB5
:10BBA0001C745C745A61FDF7FFFA044605E0082432
:10BBB00003E04FF48003136099E6204615B0BDE81A
:10BBC000F08300BF55910700303300206033002020
:10BBD0004C3300202C3300202E330020B8360020B8
:10BBE000C0360020C5A507009140031C90409C462C
:10BBF000203A9340194352426346D3401943704759
:10BC00000649074A074B9B1A03DD043BC858D0502E
:10BC1000FBDCFEF759FBFCF721FC0000B0D207006B
:10BC2000002C00208C2C0020FEE7FEE7FEE7FEE75C
:10BC3000FEE7FEE7FEE7FEE7FEE7FEE71AB1013AA0
:10BC40008B5C8354FAE7704710B5013AD2B253B215
:10BC5000002B09DB1BB250F8234051F823309C42E3
:10BC600004D8F2D2FF2002E0002000E0012040B220
:10BC700010BD0000000000000000000000000000F7
:10BC8000C3F10803DB0070B501330446002003A5AF
:10BC90005B1920C940CAAD1920C4184720C940CA41
:10BCA000754120C420C940CA754120C420C940CA7A
:10BCB000754120C420C940CA754120C420C940CA6A
:10BCC000754120C420C940CA754120C420C940CA5A
:10BCD000754120C4404170BD00000000000000001C
:10BCE000C3F10803DB0070B50133002403A500BFD6
:10BCF0005B1920C940CAAD1B20C0184720C940CAE3
:10BD0000B54120C020C940CAB54120C020C940CAA1
:10BD1000B54120C020C940CAB54120C020C940CA91
:10BD2000B54120C020C940CAB54120C020C940CA81
:10BD3000B54120C06441B4FA84F0400970BD00BF31
:10BD40002DE9F04F08B4F8CA04B451F8042BA3FB52
:10BD5000028940F8048B4FF0000AE4FB629A4FF02E
:10BD6000000BE5FB62AB4FF0000CE6FB62BC4FF052
:10BD7000000EE7FB62CE51F8042B4FF00008E3FB06
:10BD8000628940F8048BE4FB629AE5FB62ABE6FB58
:10BD900062BCE7FB62CE51F8042B4FF00008E3FBD6
:10BDA000628940F8048BE4FB629AE5FB62ABE6FB38
:10BDB00062BCE7FB62CE51F8042B4FF00008E3FBB6
:10BDC000628940F8048BE4FB629AE5FB62ABE6FB18
:10BDD00062BCE7FB62CE51F8042B4FF00008E3FB96
:10BDE000628940F8048BE4FB629AE5FB62ABE6FBF8
:10BDF00062BCE7FB62CE40F8049B40F804AB40F81D
:10BE000004BB40F804CB40F804EB0CBC052B00F05D
:10BE10001E810C68A0F11400A1F11401A2F114021A
:10BE200052F804EB4FF0000550F8046BE4FB6E563B
:10BE300052F804EB50F8047BE4FB6E6752F804EB15
:10BE400050F8048BE4FB6E7852F804EB50F8049B36
:10BE5000E4FB6E8952F804EB50F804ABE4FB6E9AF5
:10BE6000A0F1140052F8044B51F804EB4FF0000C11
:10BE7000E4FB6EC540F804CB51F804EBE4FB6E56CE
:10BE800040F8045B51F804EBE4FB6E6740F8046B88
:10BE900051F804EBE4FB6E7840F8047B51F804EBB6
:10BEA000E4FB6E8940F8048B51F804EBE4FB6E9AD6
:10BEB000A0E80006062B00F0CA800C68A0F118006C
:10BEC000A1F11801A2F1180252F804EB4FF000059D
:10BED00050F8046BE4FB6E5652F804EB50F8047B08
:10BEE000E4FB6E6752F804EB50F8048BE4FB6E78C9
:10BEF00052F804EB50F8049BE4FB6E8952F804EB13
:10BF000050F804ABE4FB6E9A52F804EB50F804BB13
:10BF1000E4FB6EABA0F1180052F8044B51F804EBAF
:10BF20004FF0000CE4FB6EC540F804CB51F804EB75
:10BF3000E4FB6E5640F8045B51F804EBE4FB6E67DB
:10BF400040F8046B51F804EBE4FB6E7840F8047B96
:10BF500051F804EBE4FB6E8940F8048B51F804EBD4
:10BF6000E4FB6E9A40F8049B51F804EBE4FB6EABE3
:10BF7000A0E8000C072B6AD008B40C68A0F11C00E4
:10BF8000A1F11C01A2F11C0252F804EB4FF00005D4
:10BF900050F8046BE4FB6E5652F804EB50F8047B47
:10BFA000E4FB6E6752F804EB50F8048BE4FB6E7808
:10BFB00052F804EB50F8049BE4FB6E8952F804EB52
:10BFC00050F804ABE4FB6E9A52F804EB50F804BB53
:10BFD000E4FB6EAB52F804EB50F804CBE4FB6EBC10
:10BFE000A0F11C0052F8044B51F804EB4FF0000391
:10BFF000E4FB6E3540F8043B51F804EBE4FB6E566D
:10C0000040F8045B51F804EBE4FB6E6740F8046B06
:10C0100051F804EBE4FB6E7840F8047B51F804EB34
:10C02000E4FB6E8940F8048B51F804EBE4FB6E9A54
:10C0300040F8049B51F804EBE4FB6EAB40F804AB12
:10C0400051F804EBE4FB6EBCA0E8001808BCBDE8A6
:10C05000F08F2DE9F04FB1E8005E06B4AAFB09129B
:10C060004FF00003EBFB69234FF00004ECFB693455
:10C070004FF00005EEFB69454FF00006EBFB6A63ED
:10C08000ECFB6A344918524176415B41A9FB0978BF
:10C090004FF0000949F1000918EB0108A0E8800100
:10C0A000AAFB0A78574158EB0608A0E88001EEFB8E
:10C0B0006A454FF0000A4AF1000A4FF00001ECFB1C
:10C0C0006B14EEFB6B454FF00002EEFB6C255FEA54
:10C0D00059094941644152416D4149F10009EBFB65
:10C0E0006B3A1AEB010AA0E80804ACFB0C6A664143
:10C0F0005AEB020AA0E84004AEFB0E6A6E415AEB0E
:10C10000090AA0E8400406BC052A00F0E680A0F178
:10C110001400A1F11401B1E8E043A5FB0E344FF087
:10C120000005E6FB6E454FF00006E7FB6E564FF04C
:10C130000007E8FB6E674FF00008E9FB6E784FF0F0
:10C140000009DB1864416D4176417F4158EB0808D6
:10C1500059F1000950F804CB13EB0C0350F804CB51
:10C1600054EB0C0450F804CB55EB0C0550F804CB01
:10C1700056EB0C0650F804CB57EB0C0758F10008AF
:10C1800059F10009A0F11400EEFB0E89A0E8F803B4
:10C19000062A00F0A280A0F11800A1F11801B1E870
:10C1A000E047A5FB0E344FF00005E6FB6E454FF06F
:10C1B0000006E7FB6E564FF00007E8FB6E674FF096
:10C1C0000008E9FB6E784FF00009EAFB6E894FF03A
:10C1D000000ADB1864416D4176417F4158EB080845
:10C1E00059EB09095AF1000A50F804CB13EB0C0380
:10C1F00050F804CB54EB0C0450F804CB55EB0C0571
:10C2000050F804CB56EB0C0650F804CB57EB0C0758
:10C2100050F804CB58EB0C0859F100095AF1000A08
:10C22000A0F11800EEFB0E9AA0E8F807072A54D0F8
:10C23000A0F11C00A1F11C01B1E8E04FA5FB0E34F8
:10C240004FF00005E6FB6E454FF00006E7FB6E562B
:10C250004FF00007E8FB6E674FF00008E9FB6E78CF
:10C260004FF00009EAFB6E894FF0000AEBFB6E9A73
:10C270004FF0000BDB1864416D4176417F4158EB74
:10C28000080859EB09095AEB0A0A5BF1000B50F850
:10C2900004CB13EB0C0350F804CB54EB0C0450F814
:10C2A00004CB55EB0C0550F804CB56EB0C0650F8BC
:10C2B00004CB57EB0C0750F804CB58EB0C0850F8A4
:10C2C00004CB59EB0C095AF1000A5BF1000BA0F109
:10C2D0001C00EEFB0EABA0E8F80FBDE8F08F10B528
:10C2E000002253B28B4205DA1BB2002440F82340EF
:10C2F0000132F6E710BD2DE9F0478846B3F9021088
:10C300001F460825CB1D202493FBF5F51F319542D0
:10C3100091FBF4F44FFA84F928BF154606464946C6
:10C32000FFF7DDFF2A4630464146FFF787FCB7F9A5
:10C330000230ED009D4220D9ED1A06EB8401002267
:10C340008E420AD251F8040D20FA05F313430B6014
:10C35000C5F1200300FA03F2F2E7243738463146EC
:10C360004A46FFF771FC012807D0304631463A466D
:10C370004B46BDE8F047FFF7B3BCBDE8F08710B50A
:10C3800000231A465CB28C4204DA50F82440013390
:10C390002243F7E7B2FA82F0400910BD4A110123A7
:10C3A00001F01F0150F822008B40184070470139FE
:10C3B000C9B24BB2002B0BDA013111F0FF0315D0DB
:10C3C00059B201F18043013B50F82320002304E0DF
:10C3D00050F82330002BEAD0EEE712B152080133B7
:10C3E000FBE7481E03EB401080B200E0184600B2A5
:10C3F000704730B5002463B2934206DA1BB20134B1
:10C4000051F8235040F82350F5E730BDF0B50C4605
:10C4100089B008220646FFF7ECFFE36A0393236B1B
:10C420000493636B0593A36B0693E36B0793002759
:10C4300069466A4608236846029701970097FFF706
:10C440001FFC314605466A4608233046FFF718FCB4
:10C45000236B0393636B0493A36B0593E36B0693C6
:10C46000054469466A46082368460797FFF708FCB3
:10C47000314605446A4608233046FFF701FC236A2B
:10C480000093636A0193A36A0293A36B0693E36B21
:10C490000793054431466A460823304605970497BA
:10C4A0000397FFF7EDFB636A0093A36A0193E36AC6
:10C4B000A26B0293636B039304920693E26B236A6D
:10C4C00005920544079331466A4608233046FFF734
:10C4D000D7FBE36A0093236B0193636B0293236A98
:10C4E0000693A36A0793054431466A4608233046FB
:10C4F000059704970397FFF7F3FB236B0093636B98
:10C500000193A36B0293E36B0393636A0693E36A5D
:10C5100007932D1A31466A4608233046059704973B
:10C52000FFF7DEFB636B0093A36B0193E36B029356
:10C53000236A0393636A0493A36A0593236B0793A7
:10C540002D1A31466A46082330460697FFF7C8FB86
:10C55000A36B0093E36B0193636A0393A36A049351
:10C56000E36A0593636B07932D1A314630466A469A
:10C57000082302970697FFF7B3FB2D1A16D530460E
:10C5800031460D4A0823FFF77BFB4519F7D410E02D
:10C59000094831460822FFF757FB012809D03046E9
:10C5A0003146054A0823FFF79BFB2D1A002DEFD0DB
:10C5B000F5E709B0F0BD00BFF8D10700013A30B58A
:10C5C000D2B2002453B2002B09DB1BB2013A51F85E
:10C5D000235050F823306B401C43D2B2F2E7B4FA38
:10C5E00084F0400930BD00EB81010023884206D26F
:10C5F00051F8042D43EA52030B60D307F6E7704766
:10C60000F8B5036813F0010506460F46144605D039
:10C6100001463A462346FFF733FB0546304621469E
:10C62000FFF7E1FF45B104F18042013A56F82230AC
:10C6300043F0004346F82230F8BD70B59DF9104034
:10C640001D4623460646FFF71BFB30B928463146F8
:10C650002246FFF7F9FA012807D0304631462A462C
:10C660002346BDE87040FFF73BBB70BD70B59DF938
:10C6700010401D4623460646FFF732FB38B13046D0
:10C6800031462A462346BDE87040FFF7F9BA70BD2F
:10C690002DE9F043A3B09846019112AB41460746FD
:10C6A000104691460093FFF782FEC0EB881086B2D9
:10C6B000454C33B21C40002CBEBF04F1FF3464F083
:10C6C0001F040134202593FBF5F5EDB26DB2A4B241
:10C6D00002A8294624B2FFF702FE28B202AB002CC2
:10C6E00003EB800010DD00221346434510D259F8B9
:10C6F000235005FA04F10A4340F82320C4F1200234
:10C7000025FA02F20133F0E749464246FFF771FE8F
:10C710000FFA88F502AB4FEA4509012403EB8505C2
:10C72000330444D40022114653B24B4522DA0DF1B2
:10C73000880E0EEB840E0DF1880C18B25EF888ECB2
:10C740000CEB83035EF820E053F8803CC3EB0E0350
:10C750005B1A734502D08CBF01210021C4F1010E88
:10C760000DF1880C0CEB8E0E01325EF888EC4EF861
:10C770002030D9E7621A544202A841465441FFF7DB
:10C7800032FF22AA08F1FF3302EB830302EB880297
:10C79000284652F8801C53F8802C013E42EAC172B0
:10C7A000414643F8802CB6B2FFF71DFFB8E722AB35
:10C7B00003EB8404384654F8881C4246FFF719FE00
:10C7C00023B0BDE8F08300BF1F00008070B590B0BB
:10C7D00006469DF950401D4668462346FFF7B0FACD
:10C7E000304669462A462346FFF752FF10B070BD17
:10C7F00030B51C4691B0054693F900306846FFF706
:10C800009FFAD4F8AC3028466946984711B030BD3D
:10C8100030B5144691B0054692F900206846FFF7FE
:10C8200018FCD4F8AC3028466946984711B030BDA2
:10C830002DE9F04115468AB00446884602A8002139
:10C840002022FBF77FFE2E780323204641462A460E
:10C850002F1D76B20293FFF7DBFF2046214602AA86
:10C860003B460096FFF702FF2046214642462B46F4
:10C87000FFF7BEFF00962046214605F184023B46A5
:10C88000FFF7DBFE0AB0BDE8F0812DE9F04793F930
:10C89000006092B0044689461046314615469846D7
:10C8A000FFF76DFD002840F0978002A849464246F8
:10C8B000FFF7AEFF43460AA8214602AAFFF798FFFA
:10C8C00002A801464246FFF7A3FF434648464946B1
:10C8D0002A46FFF78DFF08F10407284629464246FD
:10C8E000FFF796FF204621462A463B460096FFF773
:10C8F000A4FE284629462A463B460096FFF79DFEA1
:10C90000284621462A463B460096FFF7AFFE2046C2
:10C9100021462A464346FFF76BFF2846214622461A
:10C920003B460096FFF789FE20463B46009621468F
:10C930002A46FFF782FE2368DB07204613D53346DD
:10C9400021463A46FFF79CF9314682462046FFF7DA
:10C950004AFE06F18043013B54F8230040EACA70C6
:10C9600044F8230002E03146FFF73DFE2846214609
:10C970004246FFF74DFF284629460AAA3B46009645
:10C98000FFF774FE284629460AAA3B460096FFF7A1
:10C990006DFE0AA801462A463B460096FFF766FE52
:10C9A000204621460AAA4346FFF722FF02A8024674
:10C9B0003B4621460096FFF759FE2046294632465F
:10C9C000FFF717FD284649463246FFF712FD484655
:10C9D00002A93246FFF70DFD12B0BDE8F0872DE940
:10C9E000F0438BB08046129D15F9046B00961446F7
:10C9F0001F4689462B4602A811464246FFF736FEDF
:10CA000002A80146129AFFF703FF4046414602AAD8
:10CA1000129BFFF7EDFE2046214602AA129BFFF76C
:10CA2000E7FE2B46384639464A460096FFF71EFE7B
:10CA300002A83946129AFFF7EBFE02A801464246C9
:10CA40002B460096FFF712FE02A8014622462B460F
:10CA50000096FFF70BFE2046214642462B460096E5
:10CA6000FFF704FE484649462246129BFFF7C0FEE8
:10CA70002046414602AA2B460096FFF7F7FD3846AE
:10CA800039462246129BFFF7B3FE384639464A46DE
:10CA90002B460096FFF7EAFD204602A93246FFF733
:10CAA000A8FC0BB0BDE8F083F0B589B01C46074682
:10CAB0000E461546684611461A46FFF7A9FE384647
:10CAC00039466A462346FFF793FE684669462A467A
:10CAD0002346FFF78DFE304631466A462346FFF770
:10CAE00087FE09B0F0BDF0B50646A1B00F46084676
:10CAF000194615461C46FFF742FC20B13046214638
:10CB0000FFF7EDFB73E0684639462246FFF771FCFC
:10CB100008A829462246FFF76CFC10A82146FFF71B
:10CB2000DEFB012318A821461093FFF7D8FB6846C7
:10CB300008A92246FFF788F8002853D0009BDA079F
:10CB400004D468462146FFF74EFD26E0089BDB072C
:10CB500004D408A82146FFF746FD3DE000281EDD6D
:10CB600008AA234669466846FFF7BAF86846214690
:10CB7000FFF739FD10A818A92246FFF765F800282D
:10CB800005DA10A801462A462346FFF779F810A8CF
:10CB9000014618AA2346FFF7A3F810A81DE008A82D
:10CBA0006A4623460146FFF79BF808A82146FFF78F
:10CBB0001AFD18A810A92246FFF746F8002805DA42
:10CBC00018A801462A462346FFF75AF818A8014636
:10CBD00010AA2346FFF784F818A829462246FFF733
:10CBE0000FFDA4E7304610A92246FFF702FC21B052
:10CBF000F0BD000000487047F4D107002DE9F04F68
:10CC0000EFB01E46789C059023780493B4F9023067
:10CC100092461F33202293FBF2F3DBB206939DF979
:10CC2000187094F9012007F1FF3926AB002543F86D
:10CC300029506EAB03EB89034EA88B46314643F86F
:10CC4000805C43F8605CFEF7F9FF94F9012056A878
:10CC5000B118FEF7F3FF9DF910604EA83146FFF7BB
:10CC60008EFB8046002840F02F8156A83146FFF702
:10CC700086FB0546002840F0258104F12408404643
:10CC80004EA93A46FEF7E0FF012840F01D814046DC
:10CC900056A93A46FEF7D8FF0128089040F01481C3
:10CCA0003B461EA856A94246FFF71DFF0DF1380C62
:10CCB00060465946524623464CF82950CDF80CC0E0
:10CCC000FFF719FBDDF80CC00097604661461EAA0D
:10CCD0004346CDF824C00DF5BC79FFF777FD4346F8
:10CCE000009716A84EA91EAAFFF770FD48463246C7
:10CCF0000599FFF77EFBB300039309EB030B039A3F
:10CD0000059B584699183246FFF773FB04F144031C
:10CD10001946324636A80793FFF76BFB04EB8601F2
:10CD200032463EA8443104F1040AFFF762FB49464B
:10CD300000961EA836AA5346FFF798FC4A465B4663
:10CD400036A83EA90094FFF74AFE1EA801463346C6
:10CD50005246FFF7C8FE1EAA484659462346FFF72B
:10CD6000A3FEDDF824C0079B0B936046059B0C9344
:10CD70003946CDF814C00A95CDF83490FFF717FB6B
:10CD80003946054616A8FFF712FBA842B8BF284649
:10CD900085B2DDF814C06F1E3FB260463946FFF71A
:10CDA000FDFA394610F1000916A818BF4FF0010925
:10CDB000FFF7F4FA002814BF0223002343EA09090D
:10CDC0000DF1280B32465BF8297026A83946FFF78B
:10CDD00010FB039B3246F9182EA8FFF70AFB3146D9
:10CDE0001EA8FFF77CFA023D089B1E93AEB237B235
:10CDF000002F44DB23461EAAD4F8A45026A82EA94F
:10CE0000A84739460EA8FFF7C9FA3946051C16A8E7
:10CE100018BF0125FFF7C2FA002814BF0223002320
:10CE20001D430AAB53F8257037B39DF9105036A84F
:10CE300039462A46FFF7DDFA039B3EA8F9182A4631
:10CE4000FFF7D7FA36A83EA91EAA2346FFF72CFE05
:10CE500046A826A936AA53460095FFF707FC36A830
:10CE60003EA926AA2EAB0094FFF7B9FD1EA80146E5
:10CE700046AA2346FFF7BCFC013EB6B2B7E79DF9D0
:10CE800010501EA8014652462B46FFF72CFE2346A3
:10CE900026A82EA91EAAFFF707FE9DF918404046B6
:10CEA00026A92246FEF7D0FE012805D026A8014675
:10CEB00042462346FEF714FF26A84EA92A46FFF74E
:10CEC0007DFB02E0404600E028466FB0BDE8F08FF1
:10CED00010B50A44441E914208D014F8013F087866
:10CEE000834201D0181A10BD0131F4E7002010BDB3
:10CEF00010B5431E0A44914204D011F8014B03F8C7
:10CF0000014FF8E710BD034613F8012B002AFBD1AF
:10CF1000181A013870470000F8B500BFF8BC08BC0B
:10CF20009E467047F8B500BFF8BC08BC9E467047E7
:10CF300043000000002C00204109D6C659653C5131
:10CF4000CBD5301AD321743D0E56B1DA1A7E6D8DD1
:10CF5000DF361A3165F0315C05025569EDC6B3AFB5
:10CF60003F8058CEEEA67D208159A0D227EE2C68B6
:10CF7000ECF20BF0D3198CED982F8A429144377163
:10CF8000CFFBC0B5A5DBB5E95BC25639F111F1594C
:10CF9000A4823F92D55E1CAB98AA07D8015B83128E
:10CFA000BE853124C37D0C55745DBE72FEB1DE803A
:10CFB000A706DC9B74F19BC1C1699BE48647BEEF69
:10CFC000C69DC10FCCA10C246F2CE92DAA84744AF4
:10CFD000DCA9B05CDA88F97652513E986DC631A86A
:10CFE000C82703B0C77F59BFF30BE0C64791A7D549
:10CFF0005163CA0667292914850AB72738211B2ED1
:10D00000FC6D2C4D130D385354730A65BB0A6A76B8
:10D010002EC9C281852C7292A1E8BFA24B661AA8C4
:10D02000708B4BC2A3516CC719E892D1240699D6D4
:10D0300085350EF470A06A1016C1A419086C371E4D
:10D040004C774827B5BCB034B30C1C394AAAD84E2B
:10D050004FCA9C5BF36F2E68EE828F746F63A57866
:10D060001478C8840802C78CFAFFBE90EB6C50A4F9
:10D07000F7A3F9BEF27871C6011104FC04000000A8
:10D0800000000000021104FC040000000000000089
:10D09000032104FC0404000000000000041101FF4F
:10D0A0000100000000000000051102FE0400000065
:10D0B00000000000061104FC040000000000000055
:10D0C000071104FC0400000000000000081701FF25
:10D0D0002200000014D10700091001FF0100000028
:10D0E000B0D10700000000000000000000000000B8
:10D0F000011704FC7000000080D10700021704FC37
:10D10000B400000050D10700000000000000000043
:10D11000000000000101000001000000000000000C
:10D1200002050000210000000000000000000000D7
:10D1300000000000000000000101000004000000E9
:10D1400000000000000000000000000000000000DF
:10D15000010700007000000080D1070002010000FC
:10D160000100000000000000030500004100000075
:10D1700000000000000000000000000000000000AF
:10D18000011101FF0100000000000000021702FE73
:10D190006400000078D00700031704FC04000000BE
:10D1A00038D107000000000000000000000000006F
:10D1B00000000000E79E07008B9E0700239E0700EB
:10D1C000779D0700FB9C0700E39D0700A79D0700D4
:10D1D000BF9C0700000000000100000750EADA30A1
:10D1E0008883B89F604F15F30000C98E564E475F85
:10D1F0004741000008200001FFFFFFFFFFFFFFFF86
:10D20000FFFFFFFF00000000000000000000000022
:10D2100001000000FFFFFFFF512563FCC2CAB9F304
:10D22000849E17A7ADFAE6BCFFFFFFFFFFFFFFFFDD
:10D2300000000000FFFFFFFF96C298D84539A1F417
:10D24000A033EB2D817D0377F240A463E5E6BCF8C3
:10D2500047422CE1F2D1176BF551BF376840B6CB8E
:10D26000CE5E316B5733CE2B169E0F7C4AEBE78E8A
:10D270009B7F1AFEE242E34F4B60D2273E3CCE3BFF
:10D28000F6B053CCB0061D65BC86987655BDEBB3A1
:10D29000E7933AAAD835C65A8BC8070031C80700A9
:08D2A0000DC4070000000000AE
:08D2A800B4B1FF7F010000009A
:10D2B000000000000000000000000000000000006E
:10D2C000000000000000000000000000000000005E
:10D2D00030CF070000000000000000000000000048
:10D2E000000000000000000000000000000000003E
:10D2F000000000000000000000000000000000002E
:10D30000000000000000000000000000000000001D
:10D310000100FFFF0090D00325840700018407006F
:04D320000000000009
:10D324000010000000300800199B070000000000F6
:08D3340069B80700A1A607007B
:020000020000FC
:020000041000EA
:041014000080070051
:0410180000E00700ED
:040000037000BC01CC
:00000001FF
